{"abi":[{"inputs":[{"internalType":"contract IERC20","name":"erc_token_address","type":"address"},{"internalType":"contract IERC20","name":"dai_token_address","type":"address"},{"internalType":"address[]","name":"prevContracts","type":"address[]"},{"internalType":"uint256","name":"no_of_nfts","type":"uint256"}],"stateMutability":"nonpayable","type":"constructor","name":"constructor"},{"anonymous":false,"inputs":[{"indexed":true,"internalType":"address","name":"owner","type":"address"},{"indexed":true,"internalType":"address","name":"approved","type":"address"},{"indexed":true,"internalType":"uint256","name":"tokenId","type":"uint256"}],"name":"Approval","type":"event"},{"anonymous":false,"inputs":[{"indexed":true,"internalType":"address","name":"owner","type":"address"},{"indexed":true,"internalType":"address","name":"operator","type":"address"},{"indexed":false,"internalType":"bool","name":"approved","type":"bool"}],"name":"ApprovalForAll","type":"event"},{"anonymous":false,"inputs":[{"indexed":false,"internalType":"address","name":"_destAddr","type":"address"},{"indexed":false,"internalType":"uint256","name":"_amount","type":"uint256"}],"name":"CLAIM","type":"event"},{"anonymous":false,"inputs":[{"indexed":true,"internalType":"uint256","name":"requestId","type":"uint256"}],"name":"CREATE_NFT","type":"event"},{"anonymous":false,"inputs":[{"indexed":true,"internalType":"uint256","name":"requestId","type":"uint256"},{"indexed":false,"internalType":"uint256","name":"randomNumber","type":"uint256"}],"name":"MINT","type":"event"},{"anonymous":false,"inputs":[{"indexed":true,"internalType":"address","name":"from","type":"address"},{"indexed":true,"internalType":"address","name":"to","type":"address"},{"indexed":true,"internalType":"uint256","name":"tokenId","type":"uint256"}],"name":"Transfer","type":"event"},{"anonymous":false,"inputs":[{"indexed":false,"internalType":"uint256","name":"amount","type":"uint256"}],"name":"UPDATE_NFT_BALANCE","type":"event"},{"inputs":[],"name":"Admin","outputs":[{"internalType":"address","name":"","type":"address"}],"stateMutability":"view","type":"function"},{"inputs":[],"name":"RequestId","outputs":[{"internalType":"uint256","name":"","type":"uint256"}],"stateMutability":"view","type":"function"},{"inputs":[{"internalType":"address","name":"","type":"address"}],"name":"Wallets","outputs":[{"internalType":"bool","name":"","type":"bool"}],"stateMutability":"view","type":"function"},{"inputs":[{"internalType":"address","name":"to","type":"address"},{"internalType":"uint256","name":"tokenId","type":"uint256"}],"name":"approve","outputs":[],"stateMutability":"nonpayable","type":"function"},{"inputs":[{"internalType":"address","name":"owner","type":"address"}],"name":"balanceOf","outputs":[{"internalType":"uint256","name":"","type":"uint256"}],"stateMutability":"view","type":"function"},{"inputs":[],"name":"claim","outputs":[],"stateMutability":"nonpayable","type":"function"},{"inputs":[{"internalType":"string","name":"tokenURI","type":"string"}],"name":"create_nft","outputs":[],"stateMutability":"payable","type":"function"},{"inputs":[],"name":"fParticipation","outputs":[{"internalType":"uint256","name":"","type":"uint256"}],"stateMutability":"view","type":"function"},{"inputs":[{"internalType":"uint256","name":"tokenId","type":"uint256"}],"name":"getApproved","outputs":[{"internalType":"address","name":"","type":"address"}],"stateMutability":"view","type":"function"},{"inputs":[{"internalType":"address","name":"owner","type":"address"},{"internalType":"address","name":"operator","type":"address"}],"name":"isApprovedForAll","outputs":[{"internalType":"bool","name":"","type":"bool"}],"stateMutability":"view","type":"function"},{"inputs":[{"internalType":"uint256","name":"requestId","type":"uint256"},{"internalType":"uint256","name":"RandomNumber","type":"uint256"}],"name":"mint","outputs":[],"stateMutability":"nonpayable","type":"function"},{"inputs":[],"name":"name","outputs":[{"internalType":"string","name":"","type":"string"}],"stateMutability":"view","type":"function"},{"inputs":[],"name":"nft_count","outputs":[{"internalType":"uint256","name":"","type":"uint256"}],"stateMutability":"view","type":"function"},{"inputs":[{"internalType":"uint256","name":"tokenId","type":"uint256"}],"name":"ownerOf","outputs":[{"internalType":"address","name":"","type":"address"}],"stateMutability":"view","type":"function"},{"inputs":[{"internalType":"address","name":"","type":"address"}],"name":"ownerToValue","outputs":[{"internalType":"uint256","name":"","type":"uint256"}],"stateMutability":"view","type":"function"},{"inputs":[],"name":"participationCalculation","outputs":[],"stateMutability":"nonpayable","type":"function"},{"inputs":[],"name":"participationReturns","outputs":[],"stateMutability":"nonpayable","type":"function"},{"inputs":[{"internalType":"uint256","name":"","type":"uint256"}],"name":"participationValue","outputs":[{"internalType":"uint256","name":"","type":"uint256"}],"stateMutability":"view","type":"function"},{"inputs":[{"internalType":"uint256","name":"","type":"uint256"}],"name":"previousContracts","outputs":[{"internalType":"address","name":"","type":"address"}],"stateMutability":"view","type":"function"},{"inputs":[],"name":"randomNumber","outputs":[{"internalType":"uint256","name":"","type":"uint256"}],"stateMutability":"view","type":"function"},{"inputs":[{"internalType":"uint256","name":"","type":"uint256"}],"name":"requestIdToSender","outputs":[{"internalType":"address","name":"","type":"address"}],"stateMutability":"view","type":"function"},{"inputs":[{"internalType":"uint256","name":"","type":"uint256"}],"name":"requestIdToTokenId","outputs":[{"internalType":"uint256","name":"","type":"uint256"}],"stateMutability":"view","type":"function"},{"inputs":[{"internalType":"uint256","name":"","type":"uint256"}],"name":"requestIdToTokenURI","outputs":[{"internalType":"string","name":"","type":"string"}],"stateMutability":"view","type":"function"},{"inputs":[{"internalType":"address","name":"from","type":"address"},{"internalType":"address","name":"to","type":"address"},{"internalType":"uint256","name":"tokenId","type":"uint256"}],"name":"safeTransferFrom","outputs":[],"stateMutability":"nonpayable","type":"function"},{"inputs":[{"internalType":"address","name":"from","type":"address"},{"internalType":"address","name":"to","type":"address"},{"internalType":"uint256","name":"tokenId","type":"uint256"},{"internalType":"bytes","name":"data","type":"bytes"}],"name":"safeTransferFrom","outputs":[],"stateMutability":"nonpayable","type":"function"},{"inputs":[{"internalType":"address","name":"operator","type":"address"},{"internalType":"bool","name":"approved","type":"bool"}],"name":"setApprovalForAll","outputs":[],"stateMutability":"nonpayable","type":"function"},{"inputs":[{"internalType":"uint256","name":"tokenId","type":"uint256"},{"internalType":"string","name":"_tokenURI","type":"string"}],"name":"setTokenURI","outputs":[],"stateMutability":"nonpayable","type":"function"},{"inputs":[{"internalType":"address","name":"_wallet","type":"address"}],"name":"setWallet","outputs":[],"stateMutability":"nonpayable","type":"function"},{"inputs":[{"internalType":"bytes4","name":"interfaceId","type":"bytes4"}],"name":"supportsInterface","outputs":[{"internalType":"bool","name":"","type":"bool"}],"stateMutability":"view","type":"function"},{"inputs":[],"name":"symbol","outputs":[{"internalType":"string","name":"","type":"string"}],"stateMutability":"view","type":"function"},{"inputs":[],"name":"tokenCounter","outputs":[{"internalType":"uint256","name":"","type":"uint256"}],"stateMutability":"view","type":"function"},{"inputs":[{"internalType":"uint256","name":"","type":"uint256"}],"name":"tokenIdToBreed","outputs":[{"internalType":"enum AdvancedCollectible.Breed","name":"","type":"uint8"}],"stateMutability":"view","type":"function"},{"inputs":[{"internalType":"address","name":"","type":"address"}],"name":"tokenToOwner","outputs":[{"internalType":"uint256","name":"","type":"uint256"}],"stateMutability":"view","type":"function"},{"inputs":[{"internalType":"uint256","name":"tokenId","type":"uint256"}],"name":"tokenURI","outputs":[{"internalType":"string","name":"","type":"string"}],"stateMutability":"view","type":"function"},{"inputs":[{"internalType":"uint256","name":"","type":"uint256"}],"name":"tokenidToValue","outputs":[{"internalType":"uint256","name":"","type":"uint256"}],"stateMutability":"view","type":"function"},{"inputs":[],"name":"totalTokenTransfered","outputs":[{"internalType":"uint256","name":"","type":"uint256"}],"stateMutability":"view","type":"function"},{"inputs":[{"internalType":"address","name":"from","type":"address"},{"internalType":"address","name":"to","type":"address"},{"internalType":"uint256","name":"tokenId","type":"uint256"}],"name":"transferFrom","outputs":[],"stateMutability":"nonpayable","type":"function"},{"inputs":[{"internalType":"uint256","name":"amount","type":"uint256"}],"name":"update_nft_balance","outputs":[],"stateMutability":"nonpayable","type":"function"}],"bytecode":"60806040523480156200001157600080fd5b5060405162002a8038038062002a80833981016040819052620000349162000249565b6040805180820182526004815263088a48ab60e31b602080830191825283518085019094526003845262088a4f60eb1b9084015281519192916200007b916000916200010a565b508051620000919060019060208401906200010a565b5050601880546001600160a01b03191633179055508151620000bb90601290602085019062000199565b50600780546001600160a01b039586166001600160a01b03199182161790915560088054949095169316929092179092556001601655600a60175560006014819055601355601955506200038b565b82805462000118906200034f565b90600052602060002090601f0160209004810192826200013c576000855562000187565b82601f106200015757805160ff191683800117855562000187565b8280016001018555821562000187579182015b82811115620001875782518255916020019190600101906200016a565b5062000195929150620001f1565b5090565b82805482825590600052602060002090810192821562000187579160200282015b828111156200018757825182546001600160a01b0319166001600160a01b03909116178255602090920191600190910190620001ba565b5b80821115620001955760008155600101620001f2565b6001600160a01b03811681146200021e57600080fd5b50565b634e487b7160e01b600052604160045260246000fd5b8051620002448162000208565b919050565b600080600080608085870312156200026057600080fd5b84516200026d8162000208565b80945050602080860151620002828162000208565b60408701519094506001600160401b0380821115620002a057600080fd5b818801915088601f830112620002b557600080fd5b815181811115620002ca57620002ca62000221565b8060051b604051601f19603f83011681018181108582111715620002f257620002f262000221565b60405291825284820192508381018501918b8311156200031157600080fd5b938501935b828510156200033a576200032a8562000237565b8452938501939285019262000316565b60609a909a0151989b979a5050505050505050565b600181811c908216806200036457607f821691505b6020821081036200038557634e487b7160e01b600052602260045260246000fd5b50919050565b6126e5806200039b6000396000f3fe6080604052600436106102255760003560e01c80638e2de4d311610123578063c87b56dd116100ab578063e7fefafe1161006f578063e7fefafe14610695578063e985e9c5146106b5578063f136d197146106fe578063fb96e6491461072b578063ff1b636d1461074157600080fd5b8063c87b56dd146105ec578063cbbc3c281461060c578063ccbac9f514610649578063d082e3811461065f578063deaa59df1461067557600080fd5b8063a22cb465116100f2578063a22cb46514610554578063a3bab28614610574578063af15401114610587578063b88d4fde146105b7578063c6ce3bcd146105d757600080fd5b80638e2de4d3146104de57806395d89b4114610514578063977284f9146105295780639a2320721461053e57600080fd5b806324e71743116101b157806356cffecb1161017557806356cffecb146104525780636352211e1461046857806370a082311461048857806373b0745f146104a85780638a774091146104be57600080fd5b806324e71743146103a357806342842e0e146103d057806345afc81f146103f05780634dfb4c53146104105780634e71d92d1461043d57600080fd5b8063095ea7b3116101f8578063095ea7b3146102f457806315a9f7a514610316578063162094c4146103435780631b2ef1ca1461036357806323b872dd1461038357600080fd5b806301ffc9a71461022a57806306fdde031461025f5780630750b16314610281578063081812fc146102bc575b600080fd5b34801561023657600080fd5b5061024a610245366004612047565b610761565b60405190151581526020015b60405180910390f35b34801561026b57600080fd5b506102746107b3565b60405161025691906120bc565b34801561028d57600080fd5b506102ae61029c3660046120cf565b600c6020526000908152604090205481565b604051908152602001610256565b3480156102c857600080fd5b506102dc6102d73660046120cf565b610845565b6040516001600160a01b039091168152602001610256565b34801561030057600080fd5b5061031461030f366004612104565b61086c565b005b34801561032257600080fd5b506102ae61033136600461212e565b600f6020526000908152604090205481565b34801561034f57600080fd5b5061031461035e3660046121f5565b610986565b34801561036f57600080fd5b5061031461037e36600461223c565b610a05565b34801561038f57600080fd5b5061031461039e36600461225e565b610ba8565b3480156103af57600080fd5b506102ae6103be3660046120cf565b60106020526000908152604090205481565b3480156103dc57600080fd5b506103146103eb36600461225e565b610bd9565b3480156103fc57600080fd5b506102dc61040b3660046120cf565b610bf4565b34801561041c57600080fd5b506102ae61042b36600461212e565b600d6020526000908152604090205481565b34801561044957600080fd5b50610314610c1e565b34801561045e57600080fd5b506102ae60135481565b34801561047457600080fd5b506102dc6104833660046120cf565b610d94565b34801561049457600080fd5b506102ae6104a336600461212e565b610df4565b3480156104b457600080fd5b506102ae60195481565b3480156104ca57600080fd5b506103146104d93660046120cf565b610e7a565b3480156104ea57600080fd5b506102dc6104f93660046120cf565b6009602052600090815260409020546001600160a01b031681565b34801561052057600080fd5b50610274610f00565b34801561053557600080fd5b50610314610f0f565b34801561054a57600080fd5b506102ae60155481565b34801561056057600080fd5b5061031461056f3660046122a8565b61115d565b6103146105823660046122df565b611168565b34801561059357600080fd5b5061024a6105a236600461212e565b60116020526000908152604090205460ff1681565b3480156105c357600080fd5b506103146105d2366004612314565b611337565b3480156105e357600080fd5b5061031461136e565b3480156105f857600080fd5b506102746106073660046120cf565b611422565b34801561061857600080fd5b5061063c6106273660046120cf565b600b6020526000908152604090205460ff1681565b60405161025691906123a6565b34801561065557600080fd5b506102ae60175481565b34801561066b57600080fd5b506102ae60145481565b34801561068157600080fd5b5061031461069036600461212e565b611532565b3480156106a157600080fd5b506102746106b03660046120cf565b611556565b3480156106c157600080fd5b5061024a6106d03660046123ce565b6001600160a01b03918216600090815260056020908152604080832093909416825291909152205460ff1690565b34801561070a57600080fd5b506102ae6107193660046120cf565b600e6020526000908152604090205481565b34801561073757600080fd5b506102ae60165481565b34801561074d57600080fd5b506018546102dc906001600160a01b031681565b60006001600160e01b031982166380ac58cd60e01b148061079257506001600160e01b03198216635b5e139f60e01b145b806107ad57506301ffc9a760e01b6001600160e01b03198316145b92915050565b6060600080546107c290612401565b80601f01602080910402602001604051908101604052809291908181526020018280546107ee90612401565b801561083b5780601f106108105761010080835404028352916020019161083b565b820191906000526020600020905b81548152906001019060200180831161081e57829003601f168201915b5050505050905090565b6000610850826115f0565b506000908152600460205260409020546001600160a01b031690565b600061087782610d94565b9050806001600160a01b0316836001600160a01b0316036108e95760405162461bcd60e51b815260206004820152602160248201527f4552433732313a20617070726f76616c20746f2063757272656e74206f776e656044820152603960f91b60648201526084015b60405180910390fd5b336001600160a01b0382161480610905575061090581336106d0565b6109775760405162461bcd60e51b815260206004820152603d60248201527f4552433732313a20617070726f76652063616c6c6572206973206e6f7420746f60448201527f6b656e206f776e6572206f7220617070726f76656420666f7220616c6c00000060648201526084016108e0565b6109818383611652565b505050565b610991335b836116c0565b6109f75760405162461bcd60e51b815260206004820152603160248201527f4552433732313a207472616e736665722063616c6c6572206973206e6f74206f6044820152701ddb995c881b9bdc88185c1c1c9bdd9959607a1b60648201526084016108e0565b610a01828261173e565b5050565b600082815260096020908152604080832054600a909252822080546001600160a01b039092169291610a3690612401565b80601f0160208091040260200160405190810160405280929190818152602001828054610a6290612401565b8015610aaf5780601f10610a8457610100808354040283529160200191610aaf565b820191906000526020600020905b815481529060010190602001808311610a9257829003601f168201915b505060145460185494955093610ad393506001600160a01b031691508390506117d8565b610add818361173e565b610ae683611532565b6000610af3600186612451565b8015610b0157610b01612390565b6000838152600b602052604090208054919250829160ff19166001838015610b2b57610b2b612390565b02179055506000868152600c602090815260408083208590556001600160a01b0387168352600d9091529020829055601454610b6890600161247b565b60145560405185815286907fd996551a703bf267a3068bb00ce0d5967b05fbab9b7091219d8e95226e9e0e3d9060200160405180910390a2505050505050565b610bb233826116c0565b610bce5760405162461bcd60e51b81526004016108e090612493565b6109818383836117f2565b61098183838360405180602001604052806000815250611337565b60128181548110610c0457600080fd5b6000918252602090912001546001600160a01b0316905081565b3360009081526011602052604090205460ff161515600114610c7b5760405162461bcd60e51b81526020600482015260166024820152751cd95b99195c88191bdb9d081a1bdb190818481b999d60521b60448201526064016108e0565b336000908152600d60209081526040808320548084526010909252822054909190610caf90670de0b6b3a7640000906124e0565b90508060136000828254610cc3919061247b565b90915550506007546040516323b872dd60e01b8152306004820152336024820152604481018390526001600160a01b03909116906323b872dd906064016020604051808303816000875af1158015610d1f573d6000803e3d6000fd5b505050506040513d601f19601f82011682018060405250810190610d4391906124f4565b5060008281526010602090815260408083209290925581513381529081018390527fcea16a2d83554574def1edf3ec1fb53f1373f7ebb1fa98fecdaa4268588793cc91015b60405180910390a15050565b6000818152600260205260408120546001600160a01b0316806107ad5760405162461bcd60e51b8152602060048201526018602482015277115490cdcc8c4e881a5b9d985b1a59081d1bdad95b88125160421b60448201526064016108e0565b60006001600160a01b038216610e5e5760405162461bcd60e51b815260206004820152602960248201527f4552433732313a2061646472657373207a65726f206973206e6f7420612076616044820152683634b21037bbb732b960b91b60648201526084016108e0565b506001600160a01b031660009081526003602052604090205490565b600060195482610e8a91906124e0565b905060005b601954811015610ecf5760008181526010602052604081208054849290610eb790849061247b565b90915550819050610ec781612511565b915050610e8f565b506040518281527f22712b798ae7934ec355d80da68e214e1ada67aa7c0ab551450dffeb27f10d2e90602001610d88565b6060600180546107c290612401565b6007546040516370a0823160e01b81523060048201526000916001600160a01b0316906370a0823190602401602060405180830381865afa158015610f58573d6000803e3d6000fd5b505050506040513d601f19601f82011682018060405250810190610f7c919061252a565b6007546040516370a0823160e01b81523060048201529192506064916001600160a01b03909116906370a0823190602401602060405180830381865afa158015610fca573d6000803e3d6000fd5b505050506040513d601f19601f82011682018060405250810190610fee919061252a565b116110345760405162461bcd60e51b815260206004820152601660248201527518985b185b98d9481b9bdd081cdd59999a58da595b9d60521b60448201526064016108e0565b60006064601554836110469190612543565b61105091906124e0565b905060005b6012548110156109815760006012828154811061107457611074612562565b60009182526020909120015460075460405163a9059cbb60e01b81526001600160a01b039283166004820181905260248201879052935091169063a9059cbb906044016020604051808303816000875af11580156110d6573d6000803e3d6000fd5b505050506040513d601f19601f820116820180604052508101906110fa91906124f4565b506111058385612578565b604080516001600160a01b0384168152602081018690529195507fcea16a2d83554574def1edf3ec1fb53f1373f7ebb1fa98fecdaa4268588793cc910160405180910390a1508061115581612511565b915050611055565b610a01338383611963565b6008546040516370a0823160e01b815233600482015261c350916001600160a01b0316906370a0823190602401602060405180830381865afa1580156111b2573d6000803e3d6000fd5b505050506040513d601f19601f820116820180604052508101906111d6919061252a565b116112235760405162461bcd60e51b815260206004820152601f60248201527f62616c616e6365206e6f7420656e6f7567687420746f206d696e74206e66740060448201526064016108e0565b6008546040516323b872dd60e01b815233600482015230602482015261c35060448201526001600160a01b03909116906323b872dd906064016020604051808303816000875af115801561127b573d6000803e3d6000fd5b505050506040513d601f19601f8201168201806040525081019061129f91906124f4565b50601654600081815260096020908152604080832080546001600160a01b03191633179055600a825290912083516112d992850190611f98565b506112e681601754610a05565b6016546112f490600161247b565b60165560175461130590600161247b565b60175560405181907f29f8474dee2f5f19ab0c7b6f5136824047cd822e5c7bb7526df99d7c9258b07590600090a25050565b6113403361098b565b61135c5760405162461bcd60e51b81526004016108e090612493565b61136884848484611a31565b50505050565b6012546113bd5760405162461bcd60e51b815260206004820152601a60248201527f746869732069732074686520666972737420636f6e747261637400000000000060448201526064016108e0565b6012546000906113ce90600161247b565b90506000601954826113e09190612543565b90506000816019546113f291906124e0565b905060006114018460016124e0565b9050600261140f828461247b565b61141991906124e0565b60155550505050565b606061142d826115f0565b6000828152600660205260408120805461144690612401565b80601f016020809104026020016040519081016040528092919081815260200182805461147290612401565b80156114bf5780601f10611494576101008083540402835291602001916114bf565b820191906000526020600020905b8154815290600101906020018083116114a257829003601f168201915b5050505050905060006114dd60408051602081019091526000815290565b905080516000036114ef575092915050565b81511561152157808260405160200161150992919061258f565b60405160208183030381529060405292505050919050565b61152a84611a64565b949350505050565b6001600160a01b03166000908152601160205260409020805460ff19166001179055565b600a602052600090815260409020805461156f90612401565b80601f016020809104026020016040519081016040528092919081815260200182805461159b90612401565b80156115e85780601f106115bd576101008083540402835291602001916115e8565b820191906000526020600020905b8154815290600101906020018083116115cb57829003601f168201915b505050505081565b6000818152600260205260409020546001600160a01b031661164f5760405162461bcd60e51b8152602060048201526018602482015277115490cdcc8c4e881a5b9d985b1a59081d1bdad95b88125160421b60448201526064016108e0565b50565b600081815260046020526040902080546001600160a01b0319166001600160a01b038416908117909155819061168782610d94565b6001600160a01b03167f8c5be1e5ebec7d5bd14f71427d1e84f3dd0314c0f7b2291e5b200ac8c7c3b92560405160405180910390a45050565b6000806116cc83610d94565b9050806001600160a01b0316846001600160a01b0316148061171357506001600160a01b0380821660009081526005602090815260408083209388168352929052205460ff165b8061152a5750836001600160a01b031661172c84610845565b6001600160a01b031614949350505050565b6000828152600260205260409020546001600160a01b03166117b95760405162461bcd60e51b815260206004820152602e60248201527f45524337323155524953746f726167653a2055524920736574206f66206e6f6e60448201526d32bc34b9ba32b73a103a37b5b2b760911b60648201526084016108e0565b6000828152600660209081526040909120825161098192840190611f98565b610a01828260405180602001604052806000815250611ad8565b826001600160a01b031661180582610d94565b6001600160a01b03161461182b5760405162461bcd60e51b81526004016108e0906125be565b6001600160a01b03821661188d5760405162461bcd60e51b8152602060048201526024808201527f4552433732313a207472616e7366657220746f20746865207a65726f206164646044820152637265737360e01b60648201526084016108e0565b61189a8383836001611b0b565b826001600160a01b03166118ad82610d94565b6001600160a01b0316146118d35760405162461bcd60e51b81526004016108e0906125be565b600081815260046020908152604080832080546001600160a01b03199081169091556001600160a01b0387811680865260038552838620805460001901905590871680865283862080546001019055868652600290945282852080549092168417909155905184937fddf252ad1be2c89b69c2b068fc378daa952ba7f163c4a11628f55a4df523b3ef91a4505050565b816001600160a01b0316836001600160a01b0316036119c45760405162461bcd60e51b815260206004820152601960248201527f4552433732313a20617070726f766520746f2063616c6c65720000000000000060448201526064016108e0565b6001600160a01b03838116600081815260056020908152604080832094871680845294825291829020805460ff191686151590811790915591519182527f17307eab39ab6107e8899845ad3d59bd9653f200f220920489ca2b5937696c31910160405180910390a3505050565b611a3c8484846117f2565b611a4884848484611b93565b6113685760405162461bcd60e51b81526004016108e090612603565b6060611a6f826115f0565b6000611a8660408051602081019091526000815290565b90506000815111611aa65760405180602001604052806000815250611ad1565b80611ab084611c94565b604051602001611ac192919061258f565b6040516020818303038152906040525b9392505050565b611ae28383611d27565b611aef6000848484611b93565b6109815760405162461bcd60e51b81526004016108e090612603565b6001811115611368576001600160a01b03841615611b51576001600160a01b03841660009081526003602052604081208054839290611b4b908490612578565b90915550505b6001600160a01b03831615611368576001600160a01b03831660009081526003602052604081208054839290611b8890849061247b565b909155505050505050565b60006001600160a01b0384163b15611c8957604051630a85bd0160e11b81526001600160a01b0385169063150b7a0290611bd7903390899088908890600401612655565b6020604051808303816000875af1925050508015611c12575060408051601f3d908101601f19168201909252611c0f91810190612692565b60015b611c6f573d808015611c40576040519150601f19603f3d011682016040523d82523d6000602084013e611c45565b606091505b508051600003611c675760405162461bcd60e51b81526004016108e090612603565b805181602001fd5b6001600160e01b031916630a85bd0160e11b14905061152a565b506001949350505050565b60606000611ca183611ec0565b600101905060008167ffffffffffffffff811115611cc157611cc1612149565b6040519080825280601f01601f191660200182016040528015611ceb576020820181803683370190505b5090508181016020015b600019016f181899199a1a9b1b9c1cb0b131b232b360811b600a86061a8153600a8504945084611cf557509392505050565b6001600160a01b038216611d7d5760405162461bcd60e51b815260206004820181905260248201527f4552433732313a206d696e7420746f20746865207a65726f206164647265737360448201526064016108e0565b6000818152600260205260409020546001600160a01b031615611de25760405162461bcd60e51b815260206004820152601c60248201527f4552433732313a20746f6b656e20616c7265616479206d696e7465640000000060448201526064016108e0565b611df0600083836001611b0b565b6000818152600260205260409020546001600160a01b031615611e555760405162461bcd60e51b815260206004820152601c60248201527f4552433732313a20746f6b656e20616c7265616479206d696e7465640000000060448201526064016108e0565b6001600160a01b038216600081815260036020908152604080832080546001019055848352600290915280822080546001600160a01b0319168417905551839291907fddf252ad1be2c89b69c2b068fc378daa952ba7f163c4a11628f55a4df523b3ef908290a45050565b60008072184f03e93ff9f4daa797ed6e38ed64bf6a1f0160401b8310611eff5772184f03e93ff9f4daa797ed6e38ed64bf6a1f0160401b830492506040015b6d04ee2d6d415b85acef81000000008310611f2b576d04ee2d6d415b85acef8100000000830492506020015b662386f26fc100008310611f4957662386f26fc10000830492506010015b6305f5e1008310611f61576305f5e100830492506008015b6127108310611f7557612710830492506004015b60648310611f87576064830492506002015b600a83106107ad5760010192915050565b828054611fa490612401565b90600052602060002090601f016020900481019282611fc6576000855561200c565b82601f10611fdf57805160ff191683800117855561200c565b8280016001018555821561200c579182015b8281111561200c578251825591602001919060010190611ff1565b5061201892915061201c565b5090565b5b80821115612018576000815560010161201d565b6001600160e01b03198116811461164f57600080fd5b60006020828403121561205957600080fd5b8135611ad181612031565b60005b8381101561207f578181015183820152602001612067565b838111156113685750506000910152565b600081518084526120a8816020860160208601612064565b601f01601f19169290920160200192915050565b602081526000611ad16020830184612090565b6000602082840312156120e157600080fd5b5035919050565b80356001600160a01b03811681146120ff57600080fd5b919050565b6000806040838503121561211757600080fd5b612120836120e8565b946020939093013593505050565b60006020828403121561214057600080fd5b611ad1826120e8565b634e487b7160e01b600052604160045260246000fd5b600067ffffffffffffffff8084111561217a5761217a612149565b604051601f8501601f19908116603f011681019082821181831017156121a2576121a2612149565b816040528093508581528686860111156121bb57600080fd5b858560208301376000602087830101525050509392505050565b600082601f8301126121e657600080fd5b611ad18383356020850161215f565b6000806040838503121561220857600080fd5b82359150602083013567ffffffffffffffff81111561222657600080fd5b612232858286016121d5565b9150509250929050565b6000806040838503121561224f57600080fd5b50508035926020909101359150565b60008060006060848603121561227357600080fd5b61227c846120e8565b925061228a602085016120e8565b9150604084013590509250925092565b801515811461164f57600080fd5b600080604083850312156122bb57600080fd5b6122c4836120e8565b915060208301356122d48161229a565b809150509250929050565b6000602082840312156122f157600080fd5b813567ffffffffffffffff81111561230857600080fd5b61152a848285016121d5565b6000806000806080858703121561232a57600080fd5b612333856120e8565b9350612341602086016120e8565b925060408501359150606085013567ffffffffffffffff81111561236457600080fd5b8501601f8101871361237557600080fd5b6123848782356020840161215f565b91505092959194509250565b634e487b7160e01b600052602160045260246000fd5b60208101600183106123c857634e487b7160e01b600052602160045260246000fd5b91905290565b600080604083850312156123e157600080fd5b6123ea836120e8565b91506123f8602084016120e8565b90509250929050565b600181811c9082168061241557607f821691505b60208210810361243557634e487b7160e01b600052602260045260246000fd5b50919050565b634e487b7160e01b600052601260045260246000fd5b6000826124605761246061243b565b500690565b634e487b7160e01b600052601160045260246000fd5b6000821982111561248e5761248e612465565b500190565b6020808252602d908201527f4552433732313a2063616c6c6572206973206e6f7420746f6b656e206f776e6560408201526c1c881bdc88185c1c1c9bdd9959609a1b606082015260800190565b6000826124ef576124ef61243b565b500490565b60006020828403121561250657600080fd5b8151611ad18161229a565b60006001820161252357612523612465565b5060010190565b60006020828403121561253c57600080fd5b5051919050565b600081600019048311821515161561255d5761255d612465565b500290565b634e487b7160e01b600052603260045260246000fd5b60008282101561258a5761258a612465565b500390565b600083516125a1818460208801612064565b8351908301906125b5818360208801612064565b01949350505050565b60208082526025908201527f4552433732313a207472616e736665722066726f6d20696e636f72726563742060408201526437bbb732b960d91b606082015260800190565b60208082526032908201527f4552433732313a207472616e7366657220746f206e6f6e20455243373231526560408201527131b2b4bb32b91034b6b83632b6b2b73a32b960711b606082015260800190565b6001600160a01b038581168252841660208201526040810183905260806060820181905260009061268890830184612090565b9695505050505050565b6000602082840312156126a457600080fd5b8151611ad18161203156fea264697066735822122077ffa9be0d3215a50071e25b66b5c75f1afaa9bb4492352b1e38c6ddce7342ba64736f6c634300080e0033","bytecodeSha1":"c9b0c6e9ff49a70fe0a900b1e6d45ff49cafdb68","compiler":{"evm_version":"istanbul","optimizer":{"enabled":true,"runs":200},"version":"0.8.14+commit.80d49f37"},"contractName":"AdvancedCollectible","language":"Solidity","natspec":{"kind":"dev","methods":{"approve(address,uint256)":{"details":"See {IERC721-approve}."},"balanceOf(address)":{"details":"See {IERC721-balanceOf}."},"claim()":{"notice":"NFt holder claims there drexTokens to stable coins using this function"},"create_nft(string)":{"notice":"Creates the nft","params":{"tokenURI":"-> the token uri of the each nft, it can be empty also"}},"getApproved(uint256)":{"details":"See {IERC721-getApproved}."},"isApprovedForAll(address,address)":{"details":"See {IERC721-isApprovedForAll}."},"mint(uint256,uint256)":{"notice":"Helper fucntion called by create_nft, calls the 'safemint fucntion'","params":{"RandomNumber":"-->  a uint256 number for each of the nft","requestId":"-->a uint256 number unique for each nft"}},"name()":{"details":"See {IERC721Metadata-name}."},"ownerOf(uint256)":{"details":"See {IERC721-ownerOf}."},"safeTransferFrom(address,address,uint256)":{"details":"See {IERC721-safeTransferFrom}."},"safeTransferFrom(address,address,uint256,bytes)":{"details":"See {IERC721-safeTransferFrom}."},"setApprovalForAll(address,bool)":{"details":"See {IERC721-setApprovalForAll}."},"setTokenURI(uint256,string)":{"notice":"Sets tokenURI for each nft minted","params":{"_tokenURI":"--> string which refers the tokenuri for the nft","tokenId":"--> a tokenId of each of the nft"}},"setWallet(address)":{"notice":"Used to set each of the user who have bought the nft","params":{"_wallet":"-> address of tge nft holder"}},"supportsInterface(bytes4)":{"details":"See {IERC165-supportsInterface}."},"symbol()":{"details":"See {IERC721Metadata-symbol}."},"tokenURI(uint256)":{"details":"See {IERC721Metadata-tokenURI}."},"transferFrom(address,address,uint256)":{"details":"See {IERC721-transferFrom}."},"update_nft_balance(uint256)":{"notice":"Divides the amount generated in each of the nft holders","params":{"amount":"--> amount generated and transfered to the contract"}}},"version":1},"opcodes":"PUSH1 0x80 PUSH1 0x40 MSTORE PUSH1 0x4 CALLDATASIZE LT PUSH2 0x225 JUMPI PUSH1 0x0 CALLDATALOAD PUSH1 0xE0 SHR DUP1 PUSH4 0x8E2DE4D3 GT PUSH2 0x123 JUMPI DUP1 PUSH4 0xC87B56DD GT PUSH2 0xAB JUMPI DUP1 PUSH4 0xE7FEFAFE GT PUSH2 0x6F JUMPI DUP1 PUSH4 0xE7FEFAFE EQ PUSH2 0x695 JUMPI DUP1 PUSH4 0xE985E9C5 EQ PUSH2 0x6B5 JUMPI DUP1 PUSH4 0xF136D197 EQ PUSH2 0x6FE JUMPI DUP1 PUSH4 0xFB96E649 EQ PUSH2 0x72B JUMPI DUP1 PUSH4 0xFF1B636D EQ PUSH2 0x741 JUMPI PUSH1 0x0 DUP1 REVERT JUMPDEST DUP1 PUSH4 0xC87B56DD EQ PUSH2 0x5EC JUMPI DUP1 PUSH4 0xCBBC3C28 EQ PUSH2 0x60C JUMPI DUP1 PUSH4 0xCCBAC9F5 EQ PUSH2 0x649 JUMPI DUP1 PUSH4 0xD082E381 EQ PUSH2 0x65F JUMPI DUP1 PUSH4 0xDEAA59DF EQ PUSH2 0x675 JUMPI PUSH1 0x0 DUP1 REVERT JUMPDEST DUP1 PUSH4 0xA22CB465 GT PUSH2 0xF2 JUMPI DUP1 PUSH4 0xA22CB465 EQ PUSH2 0x554 JUMPI DUP1 PUSH4 0xA3BAB286 EQ PUSH2 0x574 JUMPI DUP1 PUSH4 0xAF154011 EQ PUSH2 0x587 JUMPI DUP1 PUSH4 0xB88D4FDE EQ PUSH2 0x5B7 JUMPI DUP1 PUSH4 0xC6CE3BCD EQ PUSH2 0x5D7 JUMPI PUSH1 0x0 DUP1 REVERT JUMPDEST DUP1 PUSH4 0x8E2DE4D3 EQ PUSH2 0x4DE JUMPI DUP1 PUSH4 0x95D89B41 EQ PUSH2 0x514 JUMPI DUP1 PUSH4 0x977284F9 EQ PUSH2 0x529 JUMPI DUP1 PUSH4 0x9A232072 EQ PUSH2 0x53E JUMPI PUSH1 0x0 DUP1 REVERT JUMPDEST DUP1 PUSH4 0x24E71743 GT PUSH2 0x1B1 JUMPI DUP1 PUSH4 0x56CFFECB GT PUSH2 0x175 JUMPI DUP1 PUSH4 0x56CFFECB EQ PUSH2 0x452 JUMPI DUP1 PUSH4 0x6352211E EQ PUSH2 0x468 JUMPI DUP1 PUSH4 0x70A08231 EQ PUSH2 0x488 JUMPI DUP1 PUSH4 0x73B0745F EQ PUSH2 0x4A8 JUMPI DUP1 PUSH4 0x8A774091 EQ PUSH2 0x4BE JUMPI PUSH1 0x0 DUP1 REVERT JUMPDEST DUP1 PUSH4 0x24E71743 EQ PUSH2 0x3A3 JUMPI DUP1 PUSH4 0x42842E0E EQ PUSH2 0x3D0 JUMPI DUP1 PUSH4 0x45AFC81F EQ PUSH2 0x3F0 JUMPI DUP1 PUSH4 0x4DFB4C53 EQ PUSH2 0x410 JUMPI DUP1 PUSH4 0x4E71D92D EQ PUSH2 0x43D JUMPI PUSH1 0x0 DUP1 REVERT JUMPDEST DUP1 PUSH4 0x95EA7B3 GT PUSH2 0x1F8 JUMPI DUP1 PUSH4 0x95EA7B3 EQ PUSH2 0x2F4 JUMPI DUP1 PUSH4 0x15A9F7A5 EQ PUSH2 0x316 JUMPI DUP1 PUSH4 0x162094C4 EQ PUSH2 0x343 JUMPI DUP1 PUSH4 0x1B2EF1CA EQ PUSH2 0x363 JUMPI DUP1 PUSH4 0x23B872DD EQ PUSH2 0x383 JUMPI PUSH1 0x0 DUP1 REVERT JUMPDEST DUP1 PUSH4 0x1FFC9A7 EQ PUSH2 0x22A JUMPI DUP1 PUSH4 0x6FDDE03 EQ PUSH2 0x25F JUMPI DUP1 PUSH4 0x750B163 EQ PUSH2 0x281 JUMPI DUP1 PUSH4 0x81812FC EQ PUSH2 0x2BC JUMPI JUMPDEST PUSH1 0x0 DUP1 REVERT JUMPDEST CALLVALUE DUP1 ISZERO PUSH2 0x236 JUMPI PUSH1 0x0 DUP1 REVERT JUMPDEST POP PUSH2 0x24A PUSH2 0x245 CALLDATASIZE PUSH1 0x4 PUSH2 0x2047 JUMP JUMPDEST PUSH2 0x761 JUMP JUMPDEST PUSH1 0x40 MLOAD SWAP1 ISZERO ISZERO DUP2 MSTORE PUSH1 0x20 ADD JUMPDEST PUSH1 0x40 MLOAD DUP1 SWAP2 SUB SWAP1 RETURN JUMPDEST CALLVALUE DUP1 ISZERO PUSH2 0x26B JUMPI PUSH1 0x0 DUP1 REVERT JUMPDEST POP PUSH2 0x274 PUSH2 0x7B3 JUMP JUMPDEST PUSH1 0x40 MLOAD PUSH2 0x256 SWAP2 SWAP1 PUSH2 0x20BC JUMP JUMPDEST CALLVALUE DUP1 ISZERO PUSH2 0x28D JUMPI PUSH1 0x0 DUP1 REVERT JUMPDEST POP PUSH2 0x2AE PUSH2 0x29C CALLDATASIZE PUSH1 0x4 PUSH2 0x20CF JUMP JUMPDEST PUSH1 0xC PUSH1 0x20 MSTORE PUSH1 0x0 SWAP1 DUP2 MSTORE PUSH1 0x40 SWAP1 KECCAK256 SLOAD DUP2 JUMP JUMPDEST PUSH1 0x40 MLOAD SWAP1 DUP2 MSTORE PUSH1 0x20 ADD PUSH2 0x256 JUMP JUMPDEST CALLVALUE DUP1 ISZERO PUSH2 0x2C8 JUMPI PUSH1 0x0 DUP1 REVERT JUMPDEST POP PUSH2 0x2DC PUSH2 0x2D7 CALLDATASIZE PUSH1 0x4 PUSH2 0x20CF JUMP JUMPDEST PUSH2 0x845 JUMP JUMPDEST PUSH1 0x40 MLOAD PUSH1 0x1 PUSH1 0x1 PUSH1 0xA0 SHL SUB SWAP1 SWAP2 AND DUP2 MSTORE PUSH1 0x20 ADD PUSH2 0x256 JUMP JUMPDEST CALLVALUE DUP1 ISZERO PUSH2 0x300 JUMPI PUSH1 0x0 DUP1 REVERT JUMPDEST POP PUSH2 0x314 PUSH2 0x30F CALLDATASIZE PUSH1 0x4 PUSH2 0x2104 JUMP JUMPDEST PUSH2 0x86C JUMP JUMPDEST STOP JUMPDEST CALLVALUE DUP1 ISZERO PUSH2 0x322 JUMPI PUSH1 0x0 DUP1 REVERT JUMPDEST POP PUSH2 0x2AE PUSH2 0x331 CALLDATASIZE PUSH1 0x4 PUSH2 0x212E JUMP JUMPDEST PUSH1 0xF PUSH1 0x20 MSTORE PUSH1 0x0 SWAP1 DUP2 MSTORE PUSH1 0x40 SWAP1 KECCAK256 SLOAD DUP2 JUMP JUMPDEST CALLVALUE DUP1 ISZERO PUSH2 0x34F JUMPI PUSH1 0x0 DUP1 REVERT JUMPDEST POP PUSH2 0x314 PUSH2 0x35E CALLDATASIZE PUSH1 0x4 PUSH2 0x21F5 JUMP JUMPDEST PUSH2 0x986 JUMP JUMPDEST CALLVALUE DUP1 ISZERO PUSH2 0x36F JUMPI PUSH1 0x0 DUP1 REVERT JUMPDEST POP PUSH2 0x314 PUSH2 0x37E CALLDATASIZE PUSH1 0x4 PUSH2 0x223C JUMP JUMPDEST PUSH2 0xA05 JUMP JUMPDEST CALLVALUE DUP1 ISZERO PUSH2 0x38F JUMPI PUSH1 0x0 DUP1 REVERT JUMPDEST POP PUSH2 0x314 PUSH2 0x39E CALLDATASIZE PUSH1 0x4 PUSH2 0x225E JUMP JUMPDEST PUSH2 0xBA8 JUMP JUMPDEST CALLVALUE DUP1 ISZERO PUSH2 0x3AF JUMPI PUSH1 0x0 DUP1 REVERT JUMPDEST POP PUSH2 0x2AE PUSH2 0x3BE CALLDATASIZE PUSH1 0x4 PUSH2 0x20CF JUMP JUMPDEST PUSH1 0x10 PUSH1 0x20 MSTORE PUSH1 0x0 SWAP1 DUP2 MSTORE PUSH1 0x40 SWAP1 KECCAK256 SLOAD DUP2 JUMP JUMPDEST CALLVALUE DUP1 ISZERO PUSH2 0x3DC JUMPI PUSH1 0x0 DUP1 REVERT JUMPDEST POP PUSH2 0x314 PUSH2 0x3EB CALLDATASIZE PUSH1 0x4 PUSH2 0x225E JUMP JUMPDEST PUSH2 0xBD9 JUMP JUMPDEST CALLVALUE DUP1 ISZERO PUSH2 0x3FC JUMPI PUSH1 0x0 DUP1 REVERT JUMPDEST POP PUSH2 0x2DC PUSH2 0x40B CALLDATASIZE PUSH1 0x4 PUSH2 0x20CF JUMP JUMPDEST PUSH2 0xBF4 JUMP JUMPDEST CALLVALUE DUP1 ISZERO PUSH2 0x41C JUMPI PUSH1 0x0 DUP1 REVERT JUMPDEST POP PUSH2 0x2AE PUSH2 0x42B CALLDATASIZE PUSH1 0x4 PUSH2 0x212E JUMP JUMPDEST PUSH1 0xD PUSH1 0x20 MSTORE PUSH1 0x0 SWAP1 DUP2 MSTORE PUSH1 0x40 SWAP1 KECCAK256 SLOAD DUP2 JUMP JUMPDEST CALLVALUE DUP1 ISZERO PUSH2 0x449 JUMPI PUSH1 0x0 DUP1 REVERT JUMPDEST POP PUSH2 0x314 PUSH2 0xC1E JUMP JUMPDEST CALLVALUE DUP1 ISZERO PUSH2 0x45E JUMPI PUSH1 0x0 DUP1 REVERT JUMPDEST POP PUSH2 0x2AE PUSH1 0x13 SLOAD DUP2 JUMP JUMPDEST CALLVALUE DUP1 ISZERO PUSH2 0x474 JUMPI PUSH1 0x0 DUP1 REVERT JUMPDEST POP PUSH2 0x2DC PUSH2 0x483 CALLDATASIZE PUSH1 0x4 PUSH2 0x20CF JUMP JUMPDEST PUSH2 0xD94 JUMP JUMPDEST CALLVALUE DUP1 ISZERO PUSH2 0x494 JUMPI PUSH1 0x0 DUP1 REVERT JUMPDEST POP PUSH2 0x2AE PUSH2 0x4A3 CALLDATASIZE PUSH1 0x4 PUSH2 0x212E JUMP JUMPDEST PUSH2 0xDF4 JUMP JUMPDEST CALLVALUE DUP1 ISZERO PUSH2 0x4B4 JUMPI PUSH1 0x0 DUP1 REVERT JUMPDEST POP PUSH2 0x2AE PUSH1 0x19 SLOAD DUP2 JUMP JUMPDEST CALLVALUE DUP1 ISZERO PUSH2 0x4CA JUMPI PUSH1 0x0 DUP1 REVERT JUMPDEST POP PUSH2 0x314 PUSH2 0x4D9 CALLDATASIZE PUSH1 0x4 PUSH2 0x20CF JUMP JUMPDEST PUSH2 0xE7A JUMP JUMPDEST CALLVALUE DUP1 ISZERO PUSH2 0x4EA JUMPI PUSH1 0x0 DUP1 REVERT JUMPDEST POP PUSH2 0x2DC PUSH2 0x4F9 CALLDATASIZE PUSH1 0x4 PUSH2 0x20CF JUMP JUMPDEST PUSH1 0x9 PUSH1 0x20 MSTORE PUSH1 0x0 SWAP1 DUP2 MSTORE PUSH1 0x40 SWAP1 KECCAK256 SLOAD PUSH1 0x1 PUSH1 0x1 PUSH1 0xA0 SHL SUB AND DUP2 JUMP JUMPDEST CALLVALUE DUP1 ISZERO PUSH2 0x520 JUMPI PUSH1 0x0 DUP1 REVERT JUMPDEST POP PUSH2 0x274 PUSH2 0xF00 JUMP JUMPDEST CALLVALUE DUP1 ISZERO PUSH2 0x535 JUMPI PUSH1 0x0 DUP1 REVERT JUMPDEST POP PUSH2 0x314 PUSH2 0xF0F JUMP JUMPDEST CALLVALUE DUP1 ISZERO PUSH2 0x54A JUMPI PUSH1 0x0 DUP1 REVERT JUMPDEST POP PUSH2 0x2AE PUSH1 0x15 SLOAD DUP2 JUMP JUMPDEST CALLVALUE DUP1 ISZERO PUSH2 0x560 JUMPI PUSH1 0x0 DUP1 REVERT JUMPDEST POP PUSH2 0x314 PUSH2 0x56F CALLDATASIZE PUSH1 0x4 PUSH2 0x22A8 JUMP JUMPDEST PUSH2 0x115D JUMP JUMPDEST PUSH2 0x314 PUSH2 0x582 CALLDATASIZE PUSH1 0x4 PUSH2 0x22DF JUMP JUMPDEST PUSH2 0x1168 JUMP JUMPDEST CALLVALUE DUP1 ISZERO PUSH2 0x593 JUMPI PUSH1 0x0 DUP1 REVERT JUMPDEST POP PUSH2 0x24A PUSH2 0x5A2 CALLDATASIZE PUSH1 0x4 PUSH2 0x212E JUMP JUMPDEST PUSH1 0x11 PUSH1 0x20 MSTORE PUSH1 0x0 SWAP1 DUP2 MSTORE PUSH1 0x40 SWAP1 KECCAK256 SLOAD PUSH1 0xFF AND DUP2 JUMP JUMPDEST CALLVALUE DUP1 ISZERO PUSH2 0x5C3 JUMPI PUSH1 0x0 DUP1 REVERT JUMPDEST POP PUSH2 0x314 PUSH2 0x5D2 CALLDATASIZE PUSH1 0x4 PUSH2 0x2314 JUMP JUMPDEST PUSH2 0x1337 JUMP JUMPDEST CALLVALUE DUP1 ISZERO PUSH2 0x5E3 JUMPI PUSH1 0x0 DUP1 REVERT JUMPDEST POP PUSH2 0x314 PUSH2 0x136E JUMP JUMPDEST CALLVALUE DUP1 ISZERO PUSH2 0x5F8 JUMPI PUSH1 0x0 DUP1 REVERT JUMPDEST POP PUSH2 0x274 PUSH2 0x607 CALLDATASIZE PUSH1 0x4 PUSH2 0x20CF JUMP JUMPDEST PUSH2 0x1422 JUMP JUMPDEST CALLVALUE DUP1 ISZERO PUSH2 0x618 JUMPI PUSH1 0x0 DUP1 REVERT JUMPDEST POP PUSH2 0x63C PUSH2 0x627 CALLDATASIZE PUSH1 0x4 PUSH2 0x20CF JUMP JUMPDEST PUSH1 0xB PUSH1 0x20 MSTORE PUSH1 0x0 SWAP1 DUP2 MSTORE PUSH1 0x40 SWAP1 KECCAK256 SLOAD PUSH1 0xFF AND DUP2 JUMP JUMPDEST PUSH1 0x40 MLOAD PUSH2 0x256 SWAP2 SWAP1 PUSH2 0x23A6 JUMP JUMPDEST CALLVALUE DUP1 ISZERO PUSH2 0x655 JUMPI PUSH1 0x0 DUP1 REVERT JUMPDEST POP PUSH2 0x2AE PUSH1 0x17 SLOAD DUP2 JUMP JUMPDEST CALLVALUE DUP1 ISZERO PUSH2 0x66B JUMPI PUSH1 0x0 DUP1 REVERT JUMPDEST POP PUSH2 0x2AE PUSH1 0x14 SLOAD DUP2 JUMP JUMPDEST CALLVALUE DUP1 ISZERO PUSH2 0x681 JUMPI PUSH1 0x0 DUP1 REVERT JUMPDEST POP PUSH2 0x314 PUSH2 0x690 CALLDATASIZE PUSH1 0x4 PUSH2 0x212E JUMP JUMPDEST PUSH2 0x1532 JUMP JUMPDEST CALLVALUE DUP1 ISZERO PUSH2 0x6A1 JUMPI PUSH1 0x0 DUP1 REVERT JUMPDEST POP PUSH2 0x274 PUSH2 0x6B0 CALLDATASIZE PUSH1 0x4 PUSH2 0x20CF JUMP JUMPDEST PUSH2 0x1556 JUMP JUMPDEST CALLVALUE DUP1 ISZERO PUSH2 0x6C1 JUMPI PUSH1 0x0 DUP1 REVERT JUMPDEST POP PUSH2 0x24A PUSH2 0x6D0 CALLDATASIZE PUSH1 0x4 PUSH2 0x23CE JUMP JUMPDEST PUSH1 0x1 PUSH1 0x1 PUSH1 0xA0 SHL SUB SWAP2 DUP3 AND PUSH1 0x0 SWAP1 DUP2 MSTORE PUSH1 0x5 PUSH1 0x20 SWAP1 DUP2 MSTORE PUSH1 0x40 DUP1 DUP4 KECCAK256 SWAP4 SWAP1 SWAP5 AND DUP3 MSTORE SWAP2 SWAP1 SWAP2 MSTORE KECCAK256 SLOAD PUSH1 0xFF AND SWAP1 JUMP JUMPDEST CALLVALUE DUP1 ISZERO PUSH2 0x70A JUMPI PUSH1 0x0 DUP1 REVERT JUMPDEST POP PUSH2 0x2AE PUSH2 0x719 CALLDATASIZE PUSH1 0x4 PUSH2 0x20CF JUMP JUMPDEST PUSH1 0xE PUSH1 0x20 MSTORE PUSH1 0x0 SWAP1 DUP2 MSTORE PUSH1 0x40 SWAP1 KECCAK256 SLOAD DUP2 JUMP JUMPDEST CALLVALUE DUP1 ISZERO PUSH2 0x737 JUMPI PUSH1 0x0 DUP1 REVERT JUMPDEST POP PUSH2 0x2AE PUSH1 0x16 SLOAD DUP2 JUMP JUMPDEST CALLVALUE DUP1 ISZERO PUSH2 0x74D JUMPI PUSH1 0x0 DUP1 REVERT JUMPDEST POP PUSH1 0x18 SLOAD PUSH2 0x2DC SWAP1 PUSH1 0x1 PUSH1 0x1 PUSH1 0xA0 SHL SUB AND DUP2 JUMP JUMPDEST PUSH1 0x0 PUSH1 0x1 PUSH1 0x1 PUSH1 0xE0 SHL SUB NOT DUP3 AND PUSH4 0x80AC58CD PUSH1 0xE0 SHL EQ DUP1 PUSH2 0x792 JUMPI POP PUSH1 0x1 PUSH1 0x1 PUSH1 0xE0 SHL SUB NOT DUP3 AND PUSH4 0x5B5E139F PUSH1 0xE0 SHL EQ JUMPDEST DUP1 PUSH2 0x7AD JUMPI POP PUSH4 0x1FFC9A7 PUSH1 0xE0 SHL PUSH1 0x1 PUSH1 0x1 PUSH1 0xE0 SHL SUB NOT DUP4 AND EQ JUMPDEST SWAP3 SWAP2 POP POP JUMP JUMPDEST PUSH1 0x60 PUSH1 0x0 DUP1 SLOAD PUSH2 0x7C2 SWAP1 PUSH2 0x2401 JUMP JUMPDEST DUP1 PUSH1 0x1F ADD PUSH1 0x20 DUP1 SWAP2 DIV MUL PUSH1 0x20 ADD PUSH1 0x40 MLOAD SWAP1 DUP2 ADD PUSH1 0x40 MSTORE DUP1 SWAP3 SWAP2 SWAP1 DUP2 DUP2 MSTORE PUSH1 0x20 ADD DUP3 DUP1 SLOAD PUSH2 0x7EE SWAP1 PUSH2 0x2401 JUMP JUMPDEST DUP1 ISZERO PUSH2 0x83B JUMPI DUP1 PUSH1 0x1F LT PUSH2 0x810 JUMPI PUSH2 0x100 DUP1 DUP4 SLOAD DIV MUL DUP4 MSTORE SWAP2 PUSH1 0x20 ADD SWAP2 PUSH2 0x83B JUMP JUMPDEST DUP3 ADD SWAP2 SWAP1 PUSH1 0x0 MSTORE PUSH1 0x20 PUSH1 0x0 KECCAK256 SWAP1 JUMPDEST DUP2 SLOAD DUP2 MSTORE SWAP1 PUSH1 0x1 ADD SWAP1 PUSH1 0x20 ADD DUP1 DUP4 GT PUSH2 0x81E JUMPI DUP3 SWAP1 SUB PUSH1 0x1F AND DUP3 ADD SWAP2 JUMPDEST POP POP POP POP POP SWAP1 POP SWAP1 JUMP JUMPDEST PUSH1 0x0 PUSH2 0x850 DUP3 PUSH2 0x15F0 JUMP JUMPDEST POP PUSH1 0x0 SWAP1 DUP2 MSTORE PUSH1 0x4 PUSH1 0x20 MSTORE PUSH1 0x40 SWAP1 KECCAK256 SLOAD PUSH1 0x1 PUSH1 0x1 PUSH1 0xA0 SHL SUB AND SWAP1 JUMP JUMPDEST PUSH1 0x0 PUSH2 0x877 DUP3 PUSH2 0xD94 JUMP JUMPDEST SWAP1 POP DUP1 PUSH1 0x1 PUSH1 0x1 PUSH1 0xA0 SHL SUB AND DUP4 PUSH1 0x1 PUSH1 0x1 PUSH1 0xA0 SHL SUB AND SUB PUSH2 0x8E9 JUMPI PUSH1 0x40 MLOAD PUSH3 0x461BCD PUSH1 0xE5 SHL DUP2 MSTORE PUSH1 0x20 PUSH1 0x4 DUP3 ADD MSTORE PUSH1 0x21 PUSH1 0x24 DUP3 ADD MSTORE PUSH32 0x4552433732313A20617070726F76616C20746F2063757272656E74206F776E65 PUSH1 0x44 DUP3 ADD MSTORE PUSH1 0x39 PUSH1 0xF9 SHL PUSH1 0x64 DUP3 ADD MSTORE PUSH1 0x84 ADD JUMPDEST PUSH1 0x40 MLOAD DUP1 SWAP2 SUB SWAP1 REVERT JUMPDEST CALLER PUSH1 0x1 PUSH1 0x1 PUSH1 0xA0 SHL SUB DUP3 AND EQ DUP1 PUSH2 0x905 JUMPI POP PUSH2 0x905 DUP2 CALLER PUSH2 0x6D0 JUMP JUMPDEST PUSH2 0x977 JUMPI PUSH1 0x40 MLOAD PUSH3 0x461BCD PUSH1 0xE5 SHL DUP2 MSTORE PUSH1 0x20 PUSH1 0x4 DUP3 ADD MSTORE PUSH1 0x3D PUSH1 0x24 DUP3 ADD MSTORE PUSH32 0x4552433732313A20617070726F76652063616C6C6572206973206E6F7420746F PUSH1 0x44 DUP3 ADD MSTORE PUSH32 0x6B656E206F776E6572206F7220617070726F76656420666F7220616C6C000000 PUSH1 0x64 DUP3 ADD MSTORE PUSH1 0x84 ADD PUSH2 0x8E0 JUMP JUMPDEST PUSH2 0x981 DUP4 DUP4 PUSH2 0x1652 JUMP JUMPDEST POP POP POP JUMP JUMPDEST PUSH2 0x991 CALLER JUMPDEST DUP4 PUSH2 0x16C0 JUMP JUMPDEST PUSH2 0x9F7 JUMPI PUSH1 0x40 MLOAD PUSH3 0x461BCD PUSH1 0xE5 SHL DUP2 MSTORE PUSH1 0x20 PUSH1 0x4 DUP3 ADD MSTORE PUSH1 0x31 PUSH1 0x24 DUP3 ADD MSTORE PUSH32 0x4552433732313A207472616E736665722063616C6C6572206973206E6F74206F PUSH1 0x44 DUP3 ADD MSTORE PUSH17 0x1DDB995C881B9BDC88185C1C1C9BDD9959 PUSH1 0x7A SHL PUSH1 0x64 DUP3 ADD MSTORE PUSH1 0x84 ADD PUSH2 0x8E0 JUMP JUMPDEST PUSH2 0xA01 DUP3 DUP3 PUSH2 0x173E JUMP JUMPDEST POP POP JUMP JUMPDEST PUSH1 0x0 DUP3 DUP2 MSTORE PUSH1 0x9 PUSH1 0x20 SWAP1 DUP2 MSTORE PUSH1 0x40 DUP1 DUP4 KECCAK256 SLOAD PUSH1 0xA SWAP1 SWAP3 MSTORE DUP3 KECCAK256 DUP1 SLOAD PUSH1 0x1 PUSH1 0x1 PUSH1 0xA0 SHL SUB SWAP1 SWAP3 AND SWAP3 SWAP2 PUSH2 0xA36 SWAP1 PUSH2 0x2401 JUMP JUMPDEST DUP1 PUSH1 0x1F ADD PUSH1 0x20 DUP1 SWAP2 DIV MUL PUSH1 0x20 ADD PUSH1 0x40 MLOAD SWAP1 DUP2 ADD PUSH1 0x40 MSTORE DUP1 SWAP3 SWAP2 SWAP1 DUP2 DUP2 MSTORE PUSH1 0x20 ADD DUP3 DUP1 SLOAD PUSH2 0xA62 SWAP1 PUSH2 0x2401 JUMP JUMPDEST DUP1 ISZERO PUSH2 0xAAF JUMPI DUP1 PUSH1 0x1F LT PUSH2 0xA84 JUMPI PUSH2 0x100 DUP1 DUP4 SLOAD DIV MUL DUP4 MSTORE SWAP2 PUSH1 0x20 ADD SWAP2 PUSH2 0xAAF JUMP JUMPDEST DUP3 ADD SWAP2 SWAP1 PUSH1 0x0 MSTORE PUSH1 0x20 PUSH1 0x0 KECCAK256 SWAP1 JUMPDEST DUP2 SLOAD DUP2 MSTORE SWAP1 PUSH1 0x1 ADD SWAP1 PUSH1 0x20 ADD DUP1 DUP4 GT PUSH2 0xA92 JUMPI DUP3 SWAP1 SUB PUSH1 0x1F AND DUP3 ADD SWAP2 JUMPDEST POP POP PUSH1 0x14 SLOAD PUSH1 0x18 SLOAD SWAP5 SWAP6 POP SWAP4 PUSH2 0xAD3 SWAP4 POP PUSH1 0x1 PUSH1 0x1 PUSH1 0xA0 SHL SUB AND SWAP2 POP DUP4 SWAP1 POP PUSH2 0x17D8 JUMP JUMPDEST PUSH2 0xADD DUP2 DUP4 PUSH2 0x173E JUMP JUMPDEST PUSH2 0xAE6 DUP4 PUSH2 0x1532 JUMP JUMPDEST PUSH1 0x0 PUSH2 0xAF3 PUSH1 0x1 DUP7 PUSH2 0x2451 JUMP JUMPDEST DUP1 ISZERO PUSH2 0xB01 JUMPI PUSH2 0xB01 PUSH2 0x2390 JUMP JUMPDEST PUSH1 0x0 DUP4 DUP2 MSTORE PUSH1 0xB PUSH1 0x20 MSTORE PUSH1 0x40 SWAP1 KECCAK256 DUP1 SLOAD SWAP2 SWAP3 POP DUP3 SWAP2 PUSH1 0xFF NOT AND PUSH1 0x1 DUP4 DUP1 ISZERO PUSH2 0xB2B JUMPI PUSH2 0xB2B PUSH2 0x2390 JUMP JUMPDEST MUL OR SWAP1 SSTORE POP PUSH1 0x0 DUP7 DUP2 MSTORE PUSH1 0xC PUSH1 0x20 SWAP1 DUP2 MSTORE PUSH1 0x40 DUP1 DUP4 KECCAK256 DUP6 SWAP1 SSTORE PUSH1 0x1 PUSH1 0x1 PUSH1 0xA0 SHL SUB DUP8 AND DUP4 MSTORE PUSH1 0xD SWAP1 SWAP2 MSTORE SWAP1 KECCAK256 DUP3 SWAP1 SSTORE PUSH1 0x14 SLOAD PUSH2 0xB68 SWAP1 PUSH1 0x1 PUSH2 0x247B JUMP JUMPDEST PUSH1 0x14 SSTORE PUSH1 0x40 MLOAD DUP6 DUP2 MSTORE DUP7 SWAP1 PUSH32 0xD996551A703BF267A3068BB00CE0D5967B05FBAB9B7091219D8E95226E9E0E3D SWAP1 PUSH1 0x20 ADD PUSH1 0x40 MLOAD DUP1 SWAP2 SUB SWAP1 LOG2 POP POP POP POP POP POP JUMP JUMPDEST PUSH2 0xBB2 CALLER DUP3 PUSH2 0x16C0 JUMP JUMPDEST PUSH2 0xBCE JUMPI PUSH1 0x40 MLOAD PUSH3 0x461BCD PUSH1 0xE5 SHL DUP2 MSTORE PUSH1 0x4 ADD PUSH2 0x8E0 SWAP1 PUSH2 0x2493 JUMP JUMPDEST PUSH2 0x981 DUP4 DUP4 DUP4 PUSH2 0x17F2 JUMP JUMPDEST PUSH2 0x981 DUP4 DUP4 DUP4 PUSH1 0x40 MLOAD DUP1 PUSH1 0x20 ADD PUSH1 0x40 MSTORE DUP1 PUSH1 0x0 DUP2 MSTORE POP PUSH2 0x1337 JUMP JUMPDEST PUSH1 0x12 DUP2 DUP2 SLOAD DUP2 LT PUSH2 0xC04 JUMPI PUSH1 0x0 DUP1 REVERT JUMPDEST PUSH1 0x0 SWAP2 DUP3 MSTORE PUSH1 0x20 SWAP1 SWAP2 KECCAK256 ADD SLOAD PUSH1 0x1 PUSH1 0x1 PUSH1 0xA0 SHL SUB AND SWAP1 POP DUP2 JUMP JUMPDEST CALLER PUSH1 0x0 SWAP1 DUP2 MSTORE PUSH1 0x11 PUSH1 0x20 MSTORE PUSH1 0x40 SWAP1 KECCAK256 SLOAD PUSH1 0xFF AND ISZERO ISZERO PUSH1 0x1 EQ PUSH2 0xC7B JUMPI PUSH1 0x40 MLOAD PUSH3 0x461BCD PUSH1 0xE5 SHL DUP2 MSTORE PUSH1 0x20 PUSH1 0x4 DUP3 ADD MSTORE PUSH1 0x16 PUSH1 0x24 DUP3 ADD MSTORE PUSH22 0x1CD95B99195C88191BDB9D081A1BDB190818481B999D PUSH1 0x52 SHL PUSH1 0x44 DUP3 ADD MSTORE PUSH1 0x64 ADD PUSH2 0x8E0 JUMP JUMPDEST CALLER PUSH1 0x0 SWAP1 DUP2 MSTORE PUSH1 0xD PUSH1 0x20 SWAP1 DUP2 MSTORE PUSH1 0x40 DUP1 DUP4 KECCAK256 SLOAD DUP1 DUP5 MSTORE PUSH1 0x10 SWAP1 SWAP3 MSTORE DUP3 KECCAK256 SLOAD SWAP1 SWAP2 SWAP1 PUSH2 0xCAF SWAP1 PUSH8 0xDE0B6B3A7640000 SWAP1 PUSH2 0x24E0 JUMP JUMPDEST SWAP1 POP DUP1 PUSH1 0x13 PUSH1 0x0 DUP3 DUP3 SLOAD PUSH2 0xCC3 SWAP2 SWAP1 PUSH2 0x247B JUMP JUMPDEST SWAP1 SWAP2 SSTORE POP POP PUSH1 0x7 SLOAD PUSH1 0x40 MLOAD PUSH4 0x23B872DD PUSH1 0xE0 SHL DUP2 MSTORE ADDRESS PUSH1 0x4 DUP3 ADD MSTORE CALLER PUSH1 0x24 DUP3 ADD MSTORE PUSH1 0x44 DUP2 ADD DUP4 SWAP1 MSTORE PUSH1 0x1 PUSH1 0x1 PUSH1 0xA0 SHL SUB SWAP1 SWAP2 AND SWAP1 PUSH4 0x23B872DD SWAP1 PUSH1 0x64 ADD PUSH1 0x20 PUSH1 0x40 MLOAD DUP1 DUP4 SUB DUP2 PUSH1 0x0 DUP8 GAS CALL ISZERO DUP1 ISZERO PUSH2 0xD1F JUMPI RETURNDATASIZE PUSH1 0x0 DUP1 RETURNDATACOPY RETURNDATASIZE PUSH1 0x0 REVERT JUMPDEST POP POP POP POP PUSH1 0x40 MLOAD RETURNDATASIZE PUSH1 0x1F NOT PUSH1 0x1F DUP3 ADD AND DUP3 ADD DUP1 PUSH1 0x40 MSTORE POP DUP2 ADD SWAP1 PUSH2 0xD43 SWAP2 SWAP1 PUSH2 0x24F4 JUMP JUMPDEST POP PUSH1 0x0 DUP3 DUP2 MSTORE PUSH1 0x10 PUSH1 0x20 SWAP1 DUP2 MSTORE PUSH1 0x40 DUP1 DUP4 KECCAK256 SWAP3 SWAP1 SWAP3 SSTORE DUP2 MLOAD CALLER DUP2 MSTORE SWAP1 DUP2 ADD DUP4 SWAP1 MSTORE PUSH32 0xCEA16A2D83554574DEF1EDF3EC1FB53F1373F7EBB1FA98FECDAA4268588793CC SWAP2 ADD JUMPDEST PUSH1 0x40 MLOAD DUP1 SWAP2 SUB SWAP1 LOG1 POP POP JUMP JUMPDEST PUSH1 0x0 DUP2 DUP2 MSTORE PUSH1 0x2 PUSH1 0x20 MSTORE PUSH1 0x40 DUP2 KECCAK256 SLOAD PUSH1 0x1 PUSH1 0x1 PUSH1 0xA0 SHL SUB AND DUP1 PUSH2 0x7AD JUMPI PUSH1 0x40 MLOAD PUSH3 0x461BCD PUSH1 0xE5 SHL DUP2 MSTORE PUSH1 0x20 PUSH1 0x4 DUP3 ADD MSTORE PUSH1 0x18 PUSH1 0x24 DUP3 ADD MSTORE PUSH24 0x115490CDCC8C4E881A5B9D985B1A59081D1BDAD95B881251 PUSH1 0x42 SHL PUSH1 0x44 DUP3 ADD MSTORE PUSH1 0x64 ADD PUSH2 0x8E0 JUMP JUMPDEST PUSH1 0x0 PUSH1 0x1 PUSH1 0x1 PUSH1 0xA0 SHL SUB DUP3 AND PUSH2 0xE5E JUMPI PUSH1 0x40 MLOAD PUSH3 0x461BCD PUSH1 0xE5 SHL DUP2 MSTORE PUSH1 0x20 PUSH1 0x4 DUP3 ADD MSTORE PUSH1 0x29 PUSH1 0x24 DUP3 ADD MSTORE PUSH32 0x4552433732313A2061646472657373207A65726F206973206E6F742061207661 PUSH1 0x44 DUP3 ADD MSTORE PUSH9 0x3634B21037BBB732B9 PUSH1 0xB9 SHL PUSH1 0x64 DUP3 ADD MSTORE PUSH1 0x84 ADD PUSH2 0x8E0 JUMP JUMPDEST POP PUSH1 0x1 PUSH1 0x1 PUSH1 0xA0 SHL SUB AND PUSH1 0x0 SWAP1 DUP2 MSTORE PUSH1 0x3 PUSH1 0x20 MSTORE PUSH1 0x40 SWAP1 KECCAK256 SLOAD SWAP1 JUMP JUMPDEST PUSH1 0x0 PUSH1 0x19 SLOAD DUP3 PUSH2 0xE8A SWAP2 SWAP1 PUSH2 0x24E0 JUMP JUMPDEST SWAP1 POP PUSH1 0x0 JUMPDEST PUSH1 0x19 SLOAD DUP2 LT ISZERO PUSH2 0xECF JUMPI PUSH1 0x0 DUP2 DUP2 MSTORE PUSH1 0x10 PUSH1 0x20 MSTORE PUSH1 0x40 DUP2 KECCAK256 DUP1 SLOAD DUP5 SWAP3 SWAP1 PUSH2 0xEB7 SWAP1 DUP5 SWAP1 PUSH2 0x247B JUMP JUMPDEST SWAP1 SWAP2 SSTORE POP DUP2 SWAP1 POP PUSH2 0xEC7 DUP2 PUSH2 0x2511 JUMP JUMPDEST SWAP2 POP POP PUSH2 0xE8F JUMP JUMPDEST POP PUSH1 0x40 MLOAD DUP3 DUP2 MSTORE PUSH32 0x22712B798AE7934EC355D80DA68E214E1ADA67AA7C0AB551450DFFEB27F10D2E SWAP1 PUSH1 0x20 ADD PUSH2 0xD88 JUMP JUMPDEST PUSH1 0x60 PUSH1 0x1 DUP1 SLOAD PUSH2 0x7C2 SWAP1 PUSH2 0x2401 JUMP JUMPDEST PUSH1 0x7 SLOAD PUSH1 0x40 MLOAD PUSH4 0x70A08231 PUSH1 0xE0 SHL DUP2 MSTORE ADDRESS PUSH1 0x4 DUP3 ADD MSTORE PUSH1 0x0 SWAP2 PUSH1 0x1 PUSH1 0x1 PUSH1 0xA0 SHL SUB AND SWAP1 PUSH4 0x70A08231 SWAP1 PUSH1 0x24 ADD PUSH1 0x20 PUSH1 0x40 MLOAD DUP1 DUP4 SUB DUP2 DUP7 GAS STATICCALL ISZERO DUP1 ISZERO PUSH2 0xF58 JUMPI RETURNDATASIZE PUSH1 0x0 DUP1 RETURNDATACOPY RETURNDATASIZE PUSH1 0x0 REVERT JUMPDEST POP POP POP POP PUSH1 0x40 MLOAD RETURNDATASIZE PUSH1 0x1F NOT PUSH1 0x1F DUP3 ADD AND DUP3 ADD DUP1 PUSH1 0x40 MSTORE POP DUP2 ADD SWAP1 PUSH2 0xF7C SWAP2 SWAP1 PUSH2 0x252A JUMP JUMPDEST PUSH1 0x7 SLOAD PUSH1 0x40 MLOAD PUSH4 0x70A08231 PUSH1 0xE0 SHL DUP2 MSTORE ADDRESS PUSH1 0x4 DUP3 ADD MSTORE SWAP2 SWAP3 POP PUSH1 0x64 SWAP2 PUSH1 0x1 PUSH1 0x1 PUSH1 0xA0 SHL SUB SWAP1 SWAP2 AND SWAP1 PUSH4 0x70A08231 SWAP1 PUSH1 0x24 ADD PUSH1 0x20 PUSH1 0x40 MLOAD DUP1 DUP4 SUB DUP2 DUP7 GAS STATICCALL ISZERO DUP1 ISZERO PUSH2 0xFCA JUMPI RETURNDATASIZE PUSH1 0x0 DUP1 RETURNDATACOPY RETURNDATASIZE PUSH1 0x0 REVERT JUMPDEST POP POP POP POP PUSH1 0x40 MLOAD RETURNDATASIZE PUSH1 0x1F NOT PUSH1 0x1F DUP3 ADD AND DUP3 ADD DUP1 PUSH1 0x40 MSTORE POP DUP2 ADD SWAP1 PUSH2 0xFEE SWAP2 SWAP1 PUSH2 0x252A JUMP JUMPDEST GT PUSH2 0x1034 JUMPI PUSH1 0x40 MLOAD PUSH3 0x461BCD PUSH1 0xE5 SHL DUP2 MSTORE PUSH1 0x20 PUSH1 0x4 DUP3 ADD MSTORE PUSH1 0x16 PUSH1 0x24 DUP3 ADD MSTORE PUSH22 0x18985B185B98D9481B9BDD081CDD59999A58DA595B9D PUSH1 0x52 SHL PUSH1 0x44 DUP3 ADD MSTORE PUSH1 0x64 ADD PUSH2 0x8E0 JUMP JUMPDEST PUSH1 0x0 PUSH1 0x64 PUSH1 0x15 SLOAD DUP4 PUSH2 0x1046 SWAP2 SWAP1 PUSH2 0x2543 JUMP JUMPDEST PUSH2 0x1050 SWAP2 SWAP1 PUSH2 0x24E0 JUMP JUMPDEST SWAP1 POP PUSH1 0x0 JUMPDEST PUSH1 0x12 SLOAD DUP2 LT ISZERO PUSH2 0x981 JUMPI PUSH1 0x0 PUSH1 0x12 DUP3 DUP2 SLOAD DUP2 LT PUSH2 0x1074 JUMPI PUSH2 0x1074 PUSH2 0x2562 JUMP JUMPDEST PUSH1 0x0 SWAP2 DUP3 MSTORE PUSH1 0x20 SWAP1 SWAP2 KECCAK256 ADD SLOAD PUSH1 0x7 SLOAD PUSH1 0x40 MLOAD PUSH4 0xA9059CBB PUSH1 0xE0 SHL DUP2 MSTORE PUSH1 0x1 PUSH1 0x1 PUSH1 0xA0 SHL SUB SWAP3 DUP4 AND PUSH1 0x4 DUP3 ADD DUP2 SWAP1 MSTORE PUSH1 0x24 DUP3 ADD DUP8 SWAP1 MSTORE SWAP4 POP SWAP2 AND SWAP1 PUSH4 0xA9059CBB SWAP1 PUSH1 0x44 ADD PUSH1 0x20 PUSH1 0x40 MLOAD DUP1 DUP4 SUB DUP2 PUSH1 0x0 DUP8 GAS CALL ISZERO DUP1 ISZERO PUSH2 0x10D6 JUMPI RETURNDATASIZE PUSH1 0x0 DUP1 RETURNDATACOPY RETURNDATASIZE PUSH1 0x0 REVERT JUMPDEST POP POP POP POP PUSH1 0x40 MLOAD RETURNDATASIZE PUSH1 0x1F NOT PUSH1 0x1F DUP3 ADD AND DUP3 ADD DUP1 PUSH1 0x40 MSTORE POP DUP2 ADD SWAP1 PUSH2 0x10FA SWAP2 SWAP1 PUSH2 0x24F4 JUMP JUMPDEST POP PUSH2 0x1105 DUP4 DUP6 PUSH2 0x2578 JUMP JUMPDEST PUSH1 0x40 DUP1 MLOAD PUSH1 0x1 PUSH1 0x1 PUSH1 0xA0 SHL SUB DUP5 AND DUP2 MSTORE PUSH1 0x20 DUP2 ADD DUP7 SWAP1 MSTORE SWAP2 SWAP6 POP PUSH32 0xCEA16A2D83554574DEF1EDF3EC1FB53F1373F7EBB1FA98FECDAA4268588793CC SWAP2 ADD PUSH1 0x40 MLOAD DUP1 SWAP2 SUB SWAP1 LOG1 POP DUP1 PUSH2 0x1155 DUP2 PUSH2 0x2511 JUMP JUMPDEST SWAP2 POP POP PUSH2 0x1055 JUMP JUMPDEST PUSH2 0xA01 CALLER DUP4 DUP4 PUSH2 0x1963 JUMP JUMPDEST PUSH1 0x8 SLOAD PUSH1 0x40 MLOAD PUSH4 0x70A08231 PUSH1 0xE0 SHL DUP2 MSTORE CALLER PUSH1 0x4 DUP3 ADD MSTORE PUSH2 0xC350 SWAP2 PUSH1 0x1 PUSH1 0x1 PUSH1 0xA0 SHL SUB AND SWAP1 PUSH4 0x70A08231 SWAP1 PUSH1 0x24 ADD PUSH1 0x20 PUSH1 0x40 MLOAD DUP1 DUP4 SUB DUP2 DUP7 GAS STATICCALL ISZERO DUP1 ISZERO PUSH2 0x11B2 JUMPI RETURNDATASIZE PUSH1 0x0 DUP1 RETURNDATACOPY RETURNDATASIZE PUSH1 0x0 REVERT JUMPDEST POP POP POP POP PUSH1 0x40 MLOAD RETURNDATASIZE PUSH1 0x1F NOT PUSH1 0x1F DUP3 ADD AND DUP3 ADD DUP1 PUSH1 0x40 MSTORE POP DUP2 ADD SWAP1 PUSH2 0x11D6 SWAP2 SWAP1 PUSH2 0x252A JUMP JUMPDEST GT PUSH2 0x1223 JUMPI PUSH1 0x40 MLOAD PUSH3 0x461BCD PUSH1 0xE5 SHL DUP2 MSTORE PUSH1 0x20 PUSH1 0x4 DUP3 ADD MSTORE PUSH1 0x1F PUSH1 0x24 DUP3 ADD MSTORE PUSH32 0x62616C616E6365206E6F7420656E6F7567687420746F206D696E74206E667400 PUSH1 0x44 DUP3 ADD MSTORE PUSH1 0x64 ADD PUSH2 0x8E0 JUMP JUMPDEST PUSH1 0x8 SLOAD PUSH1 0x40 MLOAD PUSH4 0x23B872DD PUSH1 0xE0 SHL DUP2 MSTORE CALLER PUSH1 0x4 DUP3 ADD MSTORE ADDRESS PUSH1 0x24 DUP3 ADD MSTORE PUSH2 0xC350 PUSH1 0x44 DUP3 ADD MSTORE PUSH1 0x1 PUSH1 0x1 PUSH1 0xA0 SHL SUB SWAP1 SWAP2 AND SWAP1 PUSH4 0x23B872DD SWAP1 PUSH1 0x64 ADD PUSH1 0x20 PUSH1 0x40 MLOAD DUP1 DUP4 SUB DUP2 PUSH1 0x0 DUP8 GAS CALL ISZERO DUP1 ISZERO PUSH2 0x127B JUMPI RETURNDATASIZE PUSH1 0x0 DUP1 RETURNDATACOPY RETURNDATASIZE PUSH1 0x0 REVERT JUMPDEST POP POP POP POP PUSH1 0x40 MLOAD RETURNDATASIZE PUSH1 0x1F NOT PUSH1 0x1F DUP3 ADD AND DUP3 ADD DUP1 PUSH1 0x40 MSTORE POP DUP2 ADD SWAP1 PUSH2 0x129F SWAP2 SWAP1 PUSH2 0x24F4 JUMP JUMPDEST POP PUSH1 0x16 SLOAD PUSH1 0x0 DUP2 DUP2 MSTORE PUSH1 0x9 PUSH1 0x20 SWAP1 DUP2 MSTORE PUSH1 0x40 DUP1 DUP4 KECCAK256 DUP1 SLOAD PUSH1 0x1 PUSH1 0x1 PUSH1 0xA0 SHL SUB NOT AND CALLER OR SWAP1 SSTORE PUSH1 0xA DUP3 MSTORE SWAP1 SWAP2 KECCAK256 DUP4 MLOAD PUSH2 0x12D9 SWAP3 DUP6 ADD SWAP1 PUSH2 0x1F98 JUMP JUMPDEST POP PUSH2 0x12E6 DUP2 PUSH1 0x17 SLOAD PUSH2 0xA05 JUMP JUMPDEST PUSH1 0x16 SLOAD PUSH2 0x12F4 SWAP1 PUSH1 0x1 PUSH2 0x247B JUMP JUMPDEST PUSH1 0x16 SSTORE PUSH1 0x17 SLOAD PUSH2 0x1305 SWAP1 PUSH1 0x1 PUSH2 0x247B JUMP JUMPDEST PUSH1 0x17 SSTORE PUSH1 0x40 MLOAD DUP2 SWAP1 PUSH32 0x29F8474DEE2F5F19AB0C7B6F5136824047CD822E5C7BB7526DF99D7C9258B075 SWAP1 PUSH1 0x0 SWAP1 LOG2 POP POP JUMP JUMPDEST PUSH2 0x1340 CALLER PUSH2 0x98B JUMP JUMPDEST PUSH2 0x135C JUMPI PUSH1 0x40 MLOAD PUSH3 0x461BCD PUSH1 0xE5 SHL DUP2 MSTORE PUSH1 0x4 ADD PUSH2 0x8E0 SWAP1 PUSH2 0x2493 JUMP JUMPDEST PUSH2 0x1368 DUP5 DUP5 DUP5 DUP5 PUSH2 0x1A31 JUMP JUMPDEST POP POP POP POP JUMP JUMPDEST PUSH1 0x12 SLOAD PUSH2 0x13BD JUMPI PUSH1 0x40 MLOAD PUSH3 0x461BCD PUSH1 0xE5 SHL DUP2 MSTORE PUSH1 0x20 PUSH1 0x4 DUP3 ADD MSTORE PUSH1 0x1A PUSH1 0x24 DUP3 ADD MSTORE PUSH32 0x746869732069732074686520666972737420636F6E7472616374000000000000 PUSH1 0x44 DUP3 ADD MSTORE PUSH1 0x64 ADD PUSH2 0x8E0 JUMP JUMPDEST PUSH1 0x12 SLOAD PUSH1 0x0 SWAP1 PUSH2 0x13CE SWAP1 PUSH1 0x1 PUSH2 0x247B JUMP JUMPDEST SWAP1 POP PUSH1 0x0 PUSH1 0x19 SLOAD DUP3 PUSH2 0x13E0 SWAP2 SWAP1 PUSH2 0x2543 JUMP JUMPDEST SWAP1 POP PUSH1 0x0 DUP2 PUSH1 0x19 SLOAD PUSH2 0x13F2 SWAP2 SWAP1 PUSH2 0x24E0 JUMP JUMPDEST SWAP1 POP PUSH1 0x0 PUSH2 0x1401 DUP5 PUSH1 0x1 PUSH2 0x24E0 JUMP JUMPDEST SWAP1 POP PUSH1 0x2 PUSH2 0x140F DUP3 DUP5 PUSH2 0x247B JUMP JUMPDEST PUSH2 0x1419 SWAP2 SWAP1 PUSH2 0x24E0 JUMP JUMPDEST PUSH1 0x15 SSTORE POP POP POP POP JUMP JUMPDEST PUSH1 0x60 PUSH2 0x142D DUP3 PUSH2 0x15F0 JUMP JUMPDEST PUSH1 0x0 DUP3 DUP2 MSTORE PUSH1 0x6 PUSH1 0x20 MSTORE PUSH1 0x40 DUP2 KECCAK256 DUP1 SLOAD PUSH2 0x1446 SWAP1 PUSH2 0x2401 JUMP JUMPDEST DUP1 PUSH1 0x1F ADD PUSH1 0x20 DUP1 SWAP2 DIV MUL PUSH1 0x20 ADD PUSH1 0x40 MLOAD SWAP1 DUP2 ADD PUSH1 0x40 MSTORE DUP1 SWAP3 SWAP2 SWAP1 DUP2 DUP2 MSTORE PUSH1 0x20 ADD DUP3 DUP1 SLOAD PUSH2 0x1472 SWAP1 PUSH2 0x2401 JUMP JUMPDEST DUP1 ISZERO PUSH2 0x14BF JUMPI DUP1 PUSH1 0x1F LT PUSH2 0x1494 JUMPI PUSH2 0x100 DUP1 DUP4 SLOAD DIV MUL DUP4 MSTORE SWAP2 PUSH1 0x20 ADD SWAP2 PUSH2 0x14BF JUMP JUMPDEST DUP3 ADD SWAP2 SWAP1 PUSH1 0x0 MSTORE PUSH1 0x20 PUSH1 0x0 KECCAK256 SWAP1 JUMPDEST DUP2 SLOAD DUP2 MSTORE SWAP1 PUSH1 0x1 ADD SWAP1 PUSH1 0x20 ADD DUP1 DUP4 GT PUSH2 0x14A2 JUMPI DUP3 SWAP1 SUB PUSH1 0x1F AND DUP3 ADD SWAP2 JUMPDEST POP POP POP POP POP SWAP1 POP PUSH1 0x0 PUSH2 0x14DD PUSH1 0x40 DUP1 MLOAD PUSH1 0x20 DUP2 ADD SWAP1 SWAP2 MSTORE PUSH1 0x0 DUP2 MSTORE SWAP1 JUMP JUMPDEST SWAP1 POP DUP1 MLOAD PUSH1 0x0 SUB PUSH2 0x14EF JUMPI POP SWAP3 SWAP2 POP POP JUMP JUMPDEST DUP2 MLOAD ISZERO PUSH2 0x1521 JUMPI DUP1 DUP3 PUSH1 0x40 MLOAD PUSH1 0x20 ADD PUSH2 0x1509 SWAP3 SWAP2 SWAP1 PUSH2 0x258F JUMP JUMPDEST PUSH1 0x40 MLOAD PUSH1 0x20 DUP2 DUP4 SUB SUB DUP2 MSTORE SWAP1 PUSH1 0x40 MSTORE SWAP3 POP POP POP SWAP2 SWAP1 POP JUMP JUMPDEST PUSH2 0x152A DUP5 PUSH2 0x1A64 JUMP JUMPDEST SWAP5 SWAP4 POP POP POP POP JUMP JUMPDEST PUSH1 0x1 PUSH1 0x1 PUSH1 0xA0 SHL SUB AND PUSH1 0x0 SWAP1 DUP2 MSTORE PUSH1 0x11 PUSH1 0x20 MSTORE PUSH1 0x40 SWAP1 KECCAK256 DUP1 SLOAD PUSH1 0xFF NOT AND PUSH1 0x1 OR SWAP1 SSTORE JUMP JUMPDEST PUSH1 0xA PUSH1 0x20 MSTORE PUSH1 0x0 SWAP1 DUP2 MSTORE PUSH1 0x40 SWAP1 KECCAK256 DUP1 SLOAD PUSH2 0x156F SWAP1 PUSH2 0x2401 JUMP JUMPDEST DUP1 PUSH1 0x1F ADD PUSH1 0x20 DUP1 SWAP2 DIV MUL PUSH1 0x20 ADD PUSH1 0x40 MLOAD SWAP1 DUP2 ADD PUSH1 0x40 MSTORE DUP1 SWAP3 SWAP2 SWAP1 DUP2 DUP2 MSTORE PUSH1 0x20 ADD DUP3 DUP1 SLOAD PUSH2 0x159B SWAP1 PUSH2 0x2401 JUMP JUMPDEST DUP1 ISZERO PUSH2 0x15E8 JUMPI DUP1 PUSH1 0x1F LT PUSH2 0x15BD JUMPI PUSH2 0x100 DUP1 DUP4 SLOAD DIV MUL DUP4 MSTORE SWAP2 PUSH1 0x20 ADD SWAP2 PUSH2 0x15E8 JUMP JUMPDEST DUP3 ADD SWAP2 SWAP1 PUSH1 0x0 MSTORE PUSH1 0x20 PUSH1 0x0 KECCAK256 SWAP1 JUMPDEST DUP2 SLOAD DUP2 MSTORE SWAP1 PUSH1 0x1 ADD SWAP1 PUSH1 0x20 ADD DUP1 DUP4 GT PUSH2 0x15CB JUMPI DUP3 SWAP1 SUB PUSH1 0x1F AND DUP3 ADD SWAP2 JUMPDEST POP POP POP POP POP DUP2 JUMP JUMPDEST PUSH1 0x0 DUP2 DUP2 MSTORE PUSH1 0x2 PUSH1 0x20 MSTORE PUSH1 0x40 SWAP1 KECCAK256 SLOAD PUSH1 0x1 PUSH1 0x1 PUSH1 0xA0 SHL SUB AND PUSH2 0x164F JUMPI PUSH1 0x40 MLOAD PUSH3 0x461BCD PUSH1 0xE5 SHL DUP2 MSTORE PUSH1 0x20 PUSH1 0x4 DUP3 ADD MSTORE PUSH1 0x18 PUSH1 0x24 DUP3 ADD MSTORE PUSH24 0x115490CDCC8C4E881A5B9D985B1A59081D1BDAD95B881251 PUSH1 0x42 SHL PUSH1 0x44 DUP3 ADD MSTORE PUSH1 0x64 ADD PUSH2 0x8E0 JUMP JUMPDEST POP JUMP JUMPDEST PUSH1 0x0 DUP2 DUP2 MSTORE PUSH1 0x4 PUSH1 0x20 MSTORE PUSH1 0x40 SWAP1 KECCAK256 DUP1 SLOAD PUSH1 0x1 PUSH1 0x1 PUSH1 0xA0 SHL SUB NOT AND PUSH1 0x1 PUSH1 0x1 PUSH1 0xA0 SHL SUB DUP5 AND SWAP1 DUP2 OR SWAP1 SWAP2 SSTORE DUP2 SWAP1 PUSH2 0x1687 DUP3 PUSH2 0xD94 JUMP JUMPDEST PUSH1 0x1 PUSH1 0x1 PUSH1 0xA0 SHL SUB AND PUSH32 0x8C5BE1E5EBEC7D5BD14F71427D1E84F3DD0314C0F7B2291E5B200AC8C7C3B925 PUSH1 0x40 MLOAD PUSH1 0x40 MLOAD DUP1 SWAP2 SUB SWAP1 LOG4 POP POP JUMP JUMPDEST PUSH1 0x0 DUP1 PUSH2 0x16CC DUP4 PUSH2 0xD94 JUMP JUMPDEST SWAP1 POP DUP1 PUSH1 0x1 PUSH1 0x1 PUSH1 0xA0 SHL SUB AND DUP5 PUSH1 0x1 PUSH1 0x1 PUSH1 0xA0 SHL SUB AND EQ DUP1 PUSH2 0x1713 JUMPI POP PUSH1 0x1 PUSH1 0x1 PUSH1 0xA0 SHL SUB DUP1 DUP3 AND PUSH1 0x0 SWAP1 DUP2 MSTORE PUSH1 0x5 PUSH1 0x20 SWAP1 DUP2 MSTORE PUSH1 0x40 DUP1 DUP4 KECCAK256 SWAP4 DUP9 AND DUP4 MSTORE SWAP3 SWAP1 MSTORE KECCAK256 SLOAD PUSH1 0xFF AND JUMPDEST DUP1 PUSH2 0x152A JUMPI POP DUP4 PUSH1 0x1 PUSH1 0x1 PUSH1 0xA0 SHL SUB AND PUSH2 0x172C DUP5 PUSH2 0x845 JUMP JUMPDEST PUSH1 0x1 PUSH1 0x1 PUSH1 0xA0 SHL SUB AND EQ SWAP5 SWAP4 POP POP POP POP JUMP JUMPDEST PUSH1 0x0 DUP3 DUP2 MSTORE PUSH1 0x2 PUSH1 0x20 MSTORE PUSH1 0x40 SWAP1 KECCAK256 SLOAD PUSH1 0x1 PUSH1 0x1 PUSH1 0xA0 SHL SUB AND PUSH2 0x17B9 JUMPI PUSH1 0x40 MLOAD PUSH3 0x461BCD PUSH1 0xE5 SHL DUP2 MSTORE PUSH1 0x20 PUSH1 0x4 DUP3 ADD MSTORE PUSH1 0x2E PUSH1 0x24 DUP3 ADD MSTORE PUSH32 0x45524337323155524953746F726167653A2055524920736574206F66206E6F6E PUSH1 0x44 DUP3 ADD MSTORE PUSH14 0x32BC34B9BA32B73A103A37B5B2B7 PUSH1 0x91 SHL PUSH1 0x64 DUP3 ADD MSTORE PUSH1 0x84 ADD PUSH2 0x8E0 JUMP JUMPDEST PUSH1 0x0 DUP3 DUP2 MSTORE PUSH1 0x6 PUSH1 0x20 SWAP1 DUP2 MSTORE PUSH1 0x40 SWAP1 SWAP2 KECCAK256 DUP3 MLOAD PUSH2 0x981 SWAP3 DUP5 ADD SWAP1 PUSH2 0x1F98 JUMP JUMPDEST PUSH2 0xA01 DUP3 DUP3 PUSH1 0x40 MLOAD DUP1 PUSH1 0x20 ADD PUSH1 0x40 MSTORE DUP1 PUSH1 0x0 DUP2 MSTORE POP PUSH2 0x1AD8 JUMP JUMPDEST DUP3 PUSH1 0x1 PUSH1 0x1 PUSH1 0xA0 SHL SUB AND PUSH2 0x1805 DUP3 PUSH2 0xD94 JUMP JUMPDEST PUSH1 0x1 PUSH1 0x1 PUSH1 0xA0 SHL SUB AND EQ PUSH2 0x182B JUMPI PUSH1 0x40 MLOAD PUSH3 0x461BCD PUSH1 0xE5 SHL DUP2 MSTORE PUSH1 0x4 ADD PUSH2 0x8E0 SWAP1 PUSH2 0x25BE JUMP JUMPDEST PUSH1 0x1 PUSH1 0x1 PUSH1 0xA0 SHL SUB DUP3 AND PUSH2 0x188D JUMPI PUSH1 0x40 MLOAD PUSH3 0x461BCD PUSH1 0xE5 SHL DUP2 MSTORE PUSH1 0x20 PUSH1 0x4 DUP3 ADD MSTORE PUSH1 0x24 DUP1 DUP3 ADD MSTORE PUSH32 0x4552433732313A207472616E7366657220746F20746865207A65726F20616464 PUSH1 0x44 DUP3 ADD MSTORE PUSH4 0x72657373 PUSH1 0xE0 SHL PUSH1 0x64 DUP3 ADD MSTORE PUSH1 0x84 ADD PUSH2 0x8E0 JUMP JUMPDEST PUSH2 0x189A DUP4 DUP4 DUP4 PUSH1 0x1 PUSH2 0x1B0B JUMP JUMPDEST DUP3 PUSH1 0x1 PUSH1 0x1 PUSH1 0xA0 SHL SUB AND PUSH2 0x18AD DUP3 PUSH2 0xD94 JUMP JUMPDEST PUSH1 0x1 PUSH1 0x1 PUSH1 0xA0 SHL SUB AND EQ PUSH2 0x18D3 JUMPI PUSH1 0x40 MLOAD PUSH3 0x461BCD PUSH1 0xE5 SHL DUP2 MSTORE PUSH1 0x4 ADD PUSH2 0x8E0 SWAP1 PUSH2 0x25BE JUMP JUMPDEST PUSH1 0x0 DUP2 DUP2 MSTORE PUSH1 0x4 PUSH1 0x20 SWAP1 DUP2 MSTORE PUSH1 0x40 DUP1 DUP4 KECCAK256 DUP1 SLOAD PUSH1 0x1 PUSH1 0x1 PUSH1 0xA0 SHL SUB NOT SWAP1 DUP2 AND SWAP1 SWAP2 SSTORE PUSH1 0x1 PUSH1 0x1 PUSH1 0xA0 SHL SUB DUP8 DUP2 AND DUP1 DUP7 MSTORE PUSH1 0x3 DUP6 MSTORE DUP4 DUP7 KECCAK256 DUP1 SLOAD PUSH1 0x0 NOT ADD SWAP1 SSTORE SWAP1 DUP8 AND DUP1 DUP7 MSTORE DUP4 DUP7 KECCAK256 DUP1 SLOAD PUSH1 0x1 ADD SWAP1 SSTORE DUP7 DUP7 MSTORE PUSH1 0x2 SWAP1 SWAP5 MSTORE DUP3 DUP6 KECCAK256 DUP1 SLOAD SWAP1 SWAP3 AND DUP5 OR SWAP1 SWAP2 SSTORE SWAP1 MLOAD DUP5 SWAP4 PUSH32 0xDDF252AD1BE2C89B69C2B068FC378DAA952BA7F163C4A11628F55A4DF523B3EF SWAP2 LOG4 POP POP POP JUMP JUMPDEST DUP2 PUSH1 0x1 PUSH1 0x1 PUSH1 0xA0 SHL SUB AND DUP4 PUSH1 0x1 PUSH1 0x1 PUSH1 0xA0 SHL SUB AND SUB PUSH2 0x19C4 JUMPI PUSH1 0x40 MLOAD PUSH3 0x461BCD PUSH1 0xE5 SHL DUP2 MSTORE PUSH1 0x20 PUSH1 0x4 DUP3 ADD MSTORE PUSH1 0x19 PUSH1 0x24 DUP3 ADD MSTORE PUSH32 0x4552433732313A20617070726F766520746F2063616C6C657200000000000000 PUSH1 0x44 DUP3 ADD MSTORE PUSH1 0x64 ADD PUSH2 0x8E0 JUMP JUMPDEST PUSH1 0x1 PUSH1 0x1 PUSH1 0xA0 SHL SUB DUP4 DUP2 AND PUSH1 0x0 DUP2 DUP2 MSTORE PUSH1 0x5 PUSH1 0x20 SWAP1 DUP2 MSTORE PUSH1 0x40 DUP1 DUP4 KECCAK256 SWAP5 DUP8 AND DUP1 DUP5 MSTORE SWAP5 DUP3 MSTORE SWAP2 DUP3 SWAP1 KECCAK256 DUP1 SLOAD PUSH1 0xFF NOT AND DUP7 ISZERO ISZERO SWAP1 DUP2 OR SWAP1 SWAP2 SSTORE SWAP2 MLOAD SWAP2 DUP3 MSTORE PUSH32 0x17307EAB39AB6107E8899845AD3D59BD9653F200F220920489CA2B5937696C31 SWAP2 ADD PUSH1 0x40 MLOAD DUP1 SWAP2 SUB SWAP1 LOG3 POP POP POP JUMP JUMPDEST PUSH2 0x1A3C DUP5 DUP5 DUP5 PUSH2 0x17F2 JUMP JUMPDEST PUSH2 0x1A48 DUP5 DUP5 DUP5 DUP5 PUSH2 0x1B93 JUMP JUMPDEST PUSH2 0x1368 JUMPI PUSH1 0x40 MLOAD PUSH3 0x461BCD PUSH1 0xE5 SHL DUP2 MSTORE PUSH1 0x4 ADD PUSH2 0x8E0 SWAP1 PUSH2 0x2603 JUMP JUMPDEST PUSH1 0x60 PUSH2 0x1A6F DUP3 PUSH2 0x15F0 JUMP JUMPDEST PUSH1 0x0 PUSH2 0x1A86 PUSH1 0x40 DUP1 MLOAD PUSH1 0x20 DUP2 ADD SWAP1 SWAP2 MSTORE PUSH1 0x0 DUP2 MSTORE SWAP1 JUMP JUMPDEST SWAP1 POP PUSH1 0x0 DUP2 MLOAD GT PUSH2 0x1AA6 JUMPI PUSH1 0x40 MLOAD DUP1 PUSH1 0x20 ADD PUSH1 0x40 MSTORE DUP1 PUSH1 0x0 DUP2 MSTORE POP PUSH2 0x1AD1 JUMP JUMPDEST DUP1 PUSH2 0x1AB0 DUP5 PUSH2 0x1C94 JUMP JUMPDEST PUSH1 0x40 MLOAD PUSH1 0x20 ADD PUSH2 0x1AC1 SWAP3 SWAP2 SWAP1 PUSH2 0x258F JUMP JUMPDEST PUSH1 0x40 MLOAD PUSH1 0x20 DUP2 DUP4 SUB SUB DUP2 MSTORE SWAP1 PUSH1 0x40 MSTORE JUMPDEST SWAP4 SWAP3 POP POP POP JUMP JUMPDEST PUSH2 0x1AE2 DUP4 DUP4 PUSH2 0x1D27 JUMP JUMPDEST PUSH2 0x1AEF PUSH1 0x0 DUP5 DUP5 DUP5 PUSH2 0x1B93 JUMP JUMPDEST PUSH2 0x981 JUMPI PUSH1 0x40 MLOAD PUSH3 0x461BCD PUSH1 0xE5 SHL DUP2 MSTORE PUSH1 0x4 ADD PUSH2 0x8E0 SWAP1 PUSH2 0x2603 JUMP JUMPDEST PUSH1 0x1 DUP2 GT ISZERO PUSH2 0x1368 JUMPI PUSH1 0x1 PUSH1 0x1 PUSH1 0xA0 SHL SUB DUP5 AND ISZERO PUSH2 0x1B51 JUMPI PUSH1 0x1 PUSH1 0x1 PUSH1 0xA0 SHL SUB DUP5 AND PUSH1 0x0 SWAP1 DUP2 MSTORE PUSH1 0x3 PUSH1 0x20 MSTORE PUSH1 0x40 DUP2 KECCAK256 DUP1 SLOAD DUP4 SWAP3 SWAP1 PUSH2 0x1B4B SWAP1 DUP5 SWAP1 PUSH2 0x2578 JUMP JUMPDEST SWAP1 SWAP2 SSTORE POP POP JUMPDEST PUSH1 0x1 PUSH1 0x1 PUSH1 0xA0 SHL SUB DUP4 AND ISZERO PUSH2 0x1368 JUMPI PUSH1 0x1 PUSH1 0x1 PUSH1 0xA0 SHL SUB DUP4 AND PUSH1 0x0 SWAP1 DUP2 MSTORE PUSH1 0x3 PUSH1 0x20 MSTORE PUSH1 0x40 DUP2 KECCAK256 DUP1 SLOAD DUP4 SWAP3 SWAP1 PUSH2 0x1B88 SWAP1 DUP5 SWAP1 PUSH2 0x247B JUMP JUMPDEST SWAP1 SWAP2 SSTORE POP POP POP POP POP POP JUMP JUMPDEST PUSH1 0x0 PUSH1 0x1 PUSH1 0x1 PUSH1 0xA0 SHL SUB DUP5 AND EXTCODESIZE ISZERO PUSH2 0x1C89 JUMPI PUSH1 0x40 MLOAD PUSH4 0xA85BD01 PUSH1 0xE1 SHL DUP2 MSTORE PUSH1 0x1 PUSH1 0x1 PUSH1 0xA0 SHL SUB DUP6 AND SWAP1 PUSH4 0x150B7A02 SWAP1 PUSH2 0x1BD7 SWAP1 CALLER SWAP1 DUP10 SWAP1 DUP9 SWAP1 DUP9 SWAP1 PUSH1 0x4 ADD PUSH2 0x2655 JUMP JUMPDEST PUSH1 0x20 PUSH1 0x40 MLOAD DUP1 DUP4 SUB DUP2 PUSH1 0x0 DUP8 GAS CALL SWAP3 POP POP POP DUP1 ISZERO PUSH2 0x1C12 JUMPI POP PUSH1 0x40 DUP1 MLOAD PUSH1 0x1F RETURNDATASIZE SWAP1 DUP2 ADD PUSH1 0x1F NOT AND DUP3 ADD SWAP1 SWAP3 MSTORE PUSH2 0x1C0F SWAP2 DUP2 ADD SWAP1 PUSH2 0x2692 JUMP JUMPDEST PUSH1 0x1 JUMPDEST PUSH2 0x1C6F JUMPI RETURNDATASIZE DUP1 DUP1 ISZERO PUSH2 0x1C40 JUMPI PUSH1 0x40 MLOAD SWAP2 POP PUSH1 0x1F NOT PUSH1 0x3F RETURNDATASIZE ADD AND DUP3 ADD PUSH1 0x40 MSTORE RETURNDATASIZE DUP3 MSTORE RETURNDATASIZE PUSH1 0x0 PUSH1 0x20 DUP5 ADD RETURNDATACOPY PUSH2 0x1C45 JUMP JUMPDEST PUSH1 0x60 SWAP2 POP JUMPDEST POP DUP1 MLOAD PUSH1 0x0 SUB PUSH2 0x1C67 JUMPI PUSH1 0x40 MLOAD PUSH3 0x461BCD PUSH1 0xE5 SHL DUP2 MSTORE PUSH1 0x4 ADD PUSH2 0x8E0 SWAP1 PUSH2 0x2603 JUMP JUMPDEST DUP1 MLOAD DUP2 PUSH1 0x20 ADD REVERT JUMPDEST PUSH1 0x1 PUSH1 0x1 PUSH1 0xE0 SHL SUB NOT AND PUSH4 0xA85BD01 PUSH1 0xE1 SHL EQ SWAP1 POP PUSH2 0x152A JUMP JUMPDEST POP PUSH1 0x1 SWAP5 SWAP4 POP POP POP POP JUMP JUMPDEST PUSH1 0x60 PUSH1 0x0 PUSH2 0x1CA1 DUP4 PUSH2 0x1EC0 JUMP JUMPDEST PUSH1 0x1 ADD SWAP1 POP PUSH1 0x0 DUP2 PUSH8 0xFFFFFFFFFFFFFFFF DUP2 GT ISZERO PUSH2 0x1CC1 JUMPI PUSH2 0x1CC1 PUSH2 0x2149 JUMP JUMPDEST PUSH1 0x40 MLOAD SWAP1 DUP1 DUP3 MSTORE DUP1 PUSH1 0x1F ADD PUSH1 0x1F NOT AND PUSH1 0x20 ADD DUP3 ADD PUSH1 0x40 MSTORE DUP1 ISZERO PUSH2 0x1CEB JUMPI PUSH1 0x20 DUP3 ADD DUP2 DUP1 CALLDATASIZE DUP4 CALLDATACOPY ADD SWAP1 POP JUMPDEST POP SWAP1 POP DUP2 DUP2 ADD PUSH1 0x20 ADD JUMPDEST PUSH1 0x0 NOT ADD PUSH16 0x181899199A1A9B1B9C1CB0B131B232B3 PUSH1 0x81 SHL PUSH1 0xA DUP7 MOD BYTE DUP2 MSTORE8 PUSH1 0xA DUP6 DIV SWAP5 POP DUP5 PUSH2 0x1CF5 JUMPI POP SWAP4 SWAP3 POP POP POP JUMP JUMPDEST PUSH1 0x1 PUSH1 0x1 PUSH1 0xA0 SHL SUB DUP3 AND PUSH2 0x1D7D JUMPI PUSH1 0x40 MLOAD PUSH3 0x461BCD PUSH1 0xE5 SHL DUP2 MSTORE PUSH1 0x20 PUSH1 0x4 DUP3 ADD DUP2 SWAP1 MSTORE PUSH1 0x24 DUP3 ADD MSTORE PUSH32 0x4552433732313A206D696E7420746F20746865207A65726F2061646472657373 PUSH1 0x44 DUP3 ADD MSTORE PUSH1 0x64 ADD PUSH2 0x8E0 JUMP JUMPDEST PUSH1 0x0 DUP2 DUP2 MSTORE PUSH1 0x2 PUSH1 0x20 MSTORE PUSH1 0x40 SWAP1 KECCAK256 SLOAD PUSH1 0x1 PUSH1 0x1 PUSH1 0xA0 SHL SUB AND ISZERO PUSH2 0x1DE2 JUMPI PUSH1 0x40 MLOAD PUSH3 0x461BCD PUSH1 0xE5 SHL DUP2 MSTORE PUSH1 0x20 PUSH1 0x4 DUP3 ADD MSTORE PUSH1 0x1C PUSH1 0x24 DUP3 ADD MSTORE PUSH32 0x4552433732313A20746F6B656E20616C7265616479206D696E74656400000000 PUSH1 0x44 DUP3 ADD MSTORE PUSH1 0x64 ADD PUSH2 0x8E0 JUMP JUMPDEST PUSH2 0x1DF0 PUSH1 0x0 DUP4 DUP4 PUSH1 0x1 PUSH2 0x1B0B JUMP JUMPDEST PUSH1 0x0 DUP2 DUP2 MSTORE PUSH1 0x2 PUSH1 0x20 MSTORE PUSH1 0x40 SWAP1 KECCAK256 SLOAD PUSH1 0x1 PUSH1 0x1 PUSH1 0xA0 SHL SUB AND ISZERO PUSH2 0x1E55 JUMPI PUSH1 0x40 MLOAD PUSH3 0x461BCD PUSH1 0xE5 SHL DUP2 MSTORE PUSH1 0x20 PUSH1 0x4 DUP3 ADD MSTORE PUSH1 0x1C PUSH1 0x24 DUP3 ADD MSTORE PUSH32 0x4552433732313A20746F6B656E20616C7265616479206D696E74656400000000 PUSH1 0x44 DUP3 ADD MSTORE PUSH1 0x64 ADD PUSH2 0x8E0 JUMP JUMPDEST PUSH1 0x1 PUSH1 0x1 PUSH1 0xA0 SHL SUB DUP3 AND PUSH1 0x0 DUP2 DUP2 MSTORE PUSH1 0x3 PUSH1 0x20 SWAP1 DUP2 MSTORE PUSH1 0x40 DUP1 DUP4 KECCAK256 DUP1 SLOAD PUSH1 0x1 ADD SWAP1 SSTORE DUP5 DUP4 MSTORE PUSH1 0x2 SWAP1 SWAP2 MSTORE DUP1 DUP3 KECCAK256 DUP1 SLOAD PUSH1 0x1 PUSH1 0x1 PUSH1 0xA0 SHL SUB NOT AND DUP5 OR SWAP1 SSTORE MLOAD DUP4 SWAP3 SWAP2 SWAP1 PUSH32 0xDDF252AD1BE2C89B69C2B068FC378DAA952BA7F163C4A11628F55A4DF523B3EF SWAP1 DUP3 SWAP1 LOG4 POP POP JUMP JUMPDEST PUSH1 0x0 DUP1 PUSH19 0x184F03E93FF9F4DAA797ED6E38ED64BF6A1F01 PUSH1 0x40 SHL DUP4 LT PUSH2 0x1EFF JUMPI PUSH19 0x184F03E93FF9F4DAA797ED6E38ED64BF6A1F01 PUSH1 0x40 SHL DUP4 DIV SWAP3 POP PUSH1 0x40 ADD JUMPDEST PUSH14 0x4EE2D6D415B85ACEF8100000000 DUP4 LT PUSH2 0x1F2B JUMPI PUSH14 0x4EE2D6D415B85ACEF8100000000 DUP4 DIV SWAP3 POP PUSH1 0x20 ADD JUMPDEST PUSH7 0x2386F26FC10000 DUP4 LT PUSH2 0x1F49 JUMPI PUSH7 0x2386F26FC10000 DUP4 DIV SWAP3 POP PUSH1 0x10 ADD JUMPDEST PUSH4 0x5F5E100 DUP4 LT PUSH2 0x1F61 JUMPI PUSH4 0x5F5E100 DUP4 DIV SWAP3 POP PUSH1 0x8 ADD JUMPDEST PUSH2 0x2710 DUP4 LT PUSH2 0x1F75 JUMPI PUSH2 0x2710 DUP4 DIV SWAP3 POP PUSH1 0x4 ADD JUMPDEST PUSH1 0x64 DUP4 LT PUSH2 0x1F87 JUMPI PUSH1 0x64 DUP4 DIV SWAP3 POP PUSH1 0x2 ADD JUMPDEST PUSH1 0xA DUP4 LT PUSH2 0x7AD JUMPI PUSH1 0x1 ADD SWAP3 SWAP2 POP POP JUMP JUMPDEST DUP3 DUP1 SLOAD PUSH2 0x1FA4 SWAP1 PUSH2 0x2401 JUMP JUMPDEST SWAP1 PUSH1 0x0 MSTORE PUSH1 0x20 PUSH1 0x0 KECCAK256 SWAP1 PUSH1 0x1F ADD PUSH1 0x20 SWAP1 DIV DUP2 ADD SWAP3 DUP3 PUSH2 0x1FC6 JUMPI PUSH1 0x0 DUP6 SSTORE PUSH2 0x200C JUMP JUMPDEST DUP3 PUSH1 0x1F LT PUSH2 0x1FDF JUMPI DUP1 MLOAD PUSH1 0xFF NOT AND DUP4 DUP1 ADD OR DUP6 SSTORE PUSH2 0x200C JUMP JUMPDEST DUP3 DUP1 ADD PUSH1 0x1 ADD DUP6 SSTORE DUP3 ISZERO PUSH2 0x200C JUMPI SWAP2 DUP3 ADD JUMPDEST DUP3 DUP2 GT ISZERO PUSH2 0x200C JUMPI DUP3 MLOAD DUP3 SSTORE SWAP2 PUSH1 0x20 ADD SWAP2 SWAP1 PUSH1 0x1 ADD SWAP1 PUSH2 0x1FF1 JUMP JUMPDEST POP PUSH2 0x2018 SWAP3 SWAP2 POP PUSH2 0x201C JUMP JUMPDEST POP SWAP1 JUMP JUMPDEST JUMPDEST DUP1 DUP3 GT ISZERO PUSH2 0x2018 JUMPI PUSH1 0x0 DUP2 SSTORE PUSH1 0x1 ADD PUSH2 0x201D JUMP JUMPDEST PUSH1 0x1 PUSH1 0x1 PUSH1 0xE0 SHL SUB NOT DUP2 AND DUP2 EQ PUSH2 0x164F JUMPI PUSH1 0x0 DUP1 REVERT JUMPDEST PUSH1 0x0 PUSH1 0x20 DUP3 DUP5 SUB SLT ISZERO PUSH2 0x2059 JUMPI PUSH1 0x0 DUP1 REVERT JUMPDEST DUP2 CALLDATALOAD PUSH2 0x1AD1 DUP2 PUSH2 0x2031 JUMP JUMPDEST PUSH1 0x0 JUMPDEST DUP4 DUP2 LT ISZERO PUSH2 0x207F JUMPI DUP2 DUP2 ADD MLOAD DUP4 DUP3 ADD MSTORE PUSH1 0x20 ADD PUSH2 0x2067 JUMP JUMPDEST DUP4 DUP2 GT ISZERO PUSH2 0x1368 JUMPI POP POP PUSH1 0x0 SWAP2 ADD MSTORE JUMP JUMPDEST PUSH1 0x0 DUP2 MLOAD DUP1 DUP5 MSTORE PUSH2 0x20A8 DUP2 PUSH1 0x20 DUP7 ADD PUSH1 0x20 DUP7 ADD PUSH2 0x2064 JUMP JUMPDEST PUSH1 0x1F ADD PUSH1 0x1F NOT AND SWAP3 SWAP1 SWAP3 ADD PUSH1 0x20 ADD SWAP3 SWAP2 POP POP JUMP JUMPDEST PUSH1 0x20 DUP2 MSTORE PUSH1 0x0 PUSH2 0x1AD1 PUSH1 0x20 DUP4 ADD DUP5 PUSH2 0x2090 JUMP JUMPDEST PUSH1 0x0 PUSH1 0x20 DUP3 DUP5 SUB SLT ISZERO PUSH2 0x20E1 JUMPI PUSH1 0x0 DUP1 REVERT JUMPDEST POP CALLDATALOAD SWAP2 SWAP1 POP JUMP JUMPDEST DUP1 CALLDATALOAD PUSH1 0x1 PUSH1 0x1 PUSH1 0xA0 SHL SUB DUP2 AND DUP2 EQ PUSH2 0x20FF JUMPI PUSH1 0x0 DUP1 REVERT JUMPDEST SWAP2 SWAP1 POP JUMP JUMPDEST PUSH1 0x0 DUP1 PUSH1 0x40 DUP4 DUP6 SUB SLT ISZERO PUSH2 0x2117 JUMPI PUSH1 0x0 DUP1 REVERT JUMPDEST PUSH2 0x2120 DUP4 PUSH2 0x20E8 JUMP JUMPDEST SWAP5 PUSH1 0x20 SWAP4 SWAP1 SWAP4 ADD CALLDATALOAD SWAP4 POP POP POP JUMP JUMPDEST PUSH1 0x0 PUSH1 0x20 DUP3 DUP5 SUB SLT ISZERO PUSH2 0x2140 JUMPI PUSH1 0x0 DUP1 REVERT JUMPDEST PUSH2 0x1AD1 DUP3 PUSH2 0x20E8 JUMP JUMPDEST PUSH4 0x4E487B71 PUSH1 0xE0 SHL PUSH1 0x0 MSTORE PUSH1 0x41 PUSH1 0x4 MSTORE PUSH1 0x24 PUSH1 0x0 REVERT JUMPDEST PUSH1 0x0 PUSH8 0xFFFFFFFFFFFFFFFF DUP1 DUP5 GT ISZERO PUSH2 0x217A JUMPI PUSH2 0x217A PUSH2 0x2149 JUMP JUMPDEST PUSH1 0x40 MLOAD PUSH1 0x1F DUP6 ADD PUSH1 0x1F NOT SWAP1 DUP2 AND PUSH1 0x3F ADD AND DUP2 ADD SWAP1 DUP3 DUP3 GT DUP2 DUP4 LT OR ISZERO PUSH2 0x21A2 JUMPI PUSH2 0x21A2 PUSH2 0x2149 JUMP JUMPDEST DUP2 PUSH1 0x40 MSTORE DUP1 SWAP4 POP DUP6 DUP2 MSTORE DUP7 DUP7 DUP7 ADD GT ISZERO PUSH2 0x21BB JUMPI PUSH1 0x0 DUP1 REVERT JUMPDEST DUP6 DUP6 PUSH1 0x20 DUP4 ADD CALLDATACOPY PUSH1 0x0 PUSH1 0x20 DUP8 DUP4 ADD ADD MSTORE POP POP POP SWAP4 SWAP3 POP POP POP JUMP JUMPDEST PUSH1 0x0 DUP3 PUSH1 0x1F DUP4 ADD SLT PUSH2 0x21E6 JUMPI PUSH1 0x0 DUP1 REVERT JUMPDEST PUSH2 0x1AD1 DUP4 DUP4 CALLDATALOAD PUSH1 0x20 DUP6 ADD PUSH2 0x215F JUMP JUMPDEST PUSH1 0x0 DUP1 PUSH1 0x40 DUP4 DUP6 SUB SLT ISZERO PUSH2 0x2208 JUMPI PUSH1 0x0 DUP1 REVERT JUMPDEST DUP3 CALLDATALOAD SWAP2 POP PUSH1 0x20 DUP4 ADD CALLDATALOAD PUSH8 0xFFFFFFFFFFFFFFFF DUP2 GT ISZERO PUSH2 0x2226 JUMPI PUSH1 0x0 DUP1 REVERT JUMPDEST PUSH2 0x2232 DUP6 DUP3 DUP7 ADD PUSH2 0x21D5 JUMP JUMPDEST SWAP2 POP POP SWAP3 POP SWAP3 SWAP1 POP JUMP JUMPDEST PUSH1 0x0 DUP1 PUSH1 0x40 DUP4 DUP6 SUB SLT ISZERO PUSH2 0x224F JUMPI PUSH1 0x0 DUP1 REVERT JUMPDEST POP POP DUP1 CALLDATALOAD SWAP3 PUSH1 0x20 SWAP1 SWAP2 ADD CALLDATALOAD SWAP2 POP JUMP JUMPDEST PUSH1 0x0 DUP1 PUSH1 0x0 PUSH1 0x60 DUP5 DUP7 SUB SLT ISZERO PUSH2 0x2273 JUMPI PUSH1 0x0 DUP1 REVERT JUMPDEST PUSH2 0x227C DUP5 PUSH2 0x20E8 JUMP JUMPDEST SWAP3 POP PUSH2 0x228A PUSH1 0x20 DUP6 ADD PUSH2 0x20E8 JUMP JUMPDEST SWAP2 POP PUSH1 0x40 DUP5 ADD CALLDATALOAD SWAP1 POP SWAP3 POP SWAP3 POP SWAP3 JUMP JUMPDEST DUP1 ISZERO ISZERO DUP2 EQ PUSH2 0x164F JUMPI PUSH1 0x0 DUP1 REVERT JUMPDEST PUSH1 0x0 DUP1 PUSH1 0x40 DUP4 DUP6 SUB SLT ISZERO PUSH2 0x22BB JUMPI PUSH1 0x0 DUP1 REVERT JUMPDEST PUSH2 0x22C4 DUP4 PUSH2 0x20E8 JUMP JUMPDEST SWAP2 POP PUSH1 0x20 DUP4 ADD CALLDATALOAD PUSH2 0x22D4 DUP2 PUSH2 0x229A JUMP JUMPDEST DUP1 SWAP2 POP POP SWAP3 POP SWAP3 SWAP1 POP JUMP JUMPDEST PUSH1 0x0 PUSH1 0x20 DUP3 DUP5 SUB SLT ISZERO PUSH2 0x22F1 JUMPI PUSH1 0x0 DUP1 REVERT JUMPDEST DUP2 CALLDATALOAD PUSH8 0xFFFFFFFFFFFFFFFF DUP2 GT ISZERO PUSH2 0x2308 JUMPI PUSH1 0x0 DUP1 REVERT JUMPDEST PUSH2 0x152A DUP5 DUP3 DUP6 ADD PUSH2 0x21D5 JUMP JUMPDEST PUSH1 0x0 DUP1 PUSH1 0x0 DUP1 PUSH1 0x80 DUP6 DUP8 SUB SLT ISZERO PUSH2 0x232A JUMPI PUSH1 0x0 DUP1 REVERT JUMPDEST PUSH2 0x2333 DUP6 PUSH2 0x20E8 JUMP JUMPDEST SWAP4 POP PUSH2 0x2341 PUSH1 0x20 DUP7 ADD PUSH2 0x20E8 JUMP JUMPDEST SWAP3 POP PUSH1 0x40 DUP6 ADD CALLDATALOAD SWAP2 POP PUSH1 0x60 DUP6 ADD CALLDATALOAD PUSH8 0xFFFFFFFFFFFFFFFF DUP2 GT ISZERO PUSH2 0x2364 JUMPI PUSH1 0x0 DUP1 REVERT JUMPDEST DUP6 ADD PUSH1 0x1F DUP2 ADD DUP8 SGT PUSH2 0x2375 JUMPI PUSH1 0x0 DUP1 REVERT JUMPDEST PUSH2 0x2384 DUP8 DUP3 CALLDATALOAD PUSH1 0x20 DUP5 ADD PUSH2 0x215F JUMP JUMPDEST SWAP2 POP POP SWAP3 SWAP6 SWAP2 SWAP5 POP SWAP3 POP JUMP JUMPDEST PUSH4 0x4E487B71 PUSH1 0xE0 SHL PUSH1 0x0 MSTORE PUSH1 0x21 PUSH1 0x4 MSTORE PUSH1 0x24 PUSH1 0x0 REVERT JUMPDEST PUSH1 0x20 DUP2 ADD PUSH1 0x1 DUP4 LT PUSH2 0x23C8 JUMPI PUSH4 0x4E487B71 PUSH1 0xE0 SHL PUSH1 0x0 MSTORE PUSH1 0x21 PUSH1 0x4 MSTORE PUSH1 0x24 PUSH1 0x0 REVERT JUMPDEST SWAP2 SWAP1 MSTORE SWAP1 JUMP JUMPDEST PUSH1 0x0 DUP1 PUSH1 0x40 DUP4 DUP6 SUB SLT ISZERO PUSH2 0x23E1 JUMPI PUSH1 0x0 DUP1 REVERT JUMPDEST PUSH2 0x23EA DUP4 PUSH2 0x20E8 JUMP JUMPDEST SWAP2 POP PUSH2 0x23F8 PUSH1 0x20 DUP5 ADD PUSH2 0x20E8 JUMP JUMPDEST SWAP1 POP SWAP3 POP SWAP3 SWAP1 POP JUMP JUMPDEST PUSH1 0x1 DUP2 DUP2 SHR SWAP1 DUP3 AND DUP1 PUSH2 0x2415 JUMPI PUSH1 0x7F DUP3 AND SWAP2 POP JUMPDEST PUSH1 0x20 DUP3 LT DUP2 SUB PUSH2 0x2435 JUMPI PUSH4 0x4E487B71 PUSH1 0xE0 SHL PUSH1 0x0 MSTORE PUSH1 0x22 PUSH1 0x4 MSTORE PUSH1 0x24 PUSH1 0x0 REVERT JUMPDEST POP SWAP2 SWAP1 POP JUMP JUMPDEST PUSH4 0x4E487B71 PUSH1 0xE0 SHL PUSH1 0x0 MSTORE PUSH1 0x12 PUSH1 0x4 MSTORE PUSH1 0x24 PUSH1 0x0 REVERT JUMPDEST PUSH1 0x0 DUP3 PUSH2 0x2460 JUMPI PUSH2 0x2460 PUSH2 0x243B JUMP JUMPDEST POP MOD SWAP1 JUMP JUMPDEST PUSH4 0x4E487B71 PUSH1 0xE0 SHL PUSH1 0x0 MSTORE PUSH1 0x11 PUSH1 0x4 MSTORE PUSH1 0x24 PUSH1 0x0 REVERT JUMPDEST PUSH1 0x0 DUP3 NOT DUP3 GT ISZERO PUSH2 0x248E JUMPI PUSH2 0x248E PUSH2 0x2465 JUMP JUMPDEST POP ADD SWAP1 JUMP JUMPDEST PUSH1 0x20 DUP1 DUP3 MSTORE PUSH1 0x2D SWAP1 DUP3 ADD MSTORE PUSH32 0x4552433732313A2063616C6C6572206973206E6F7420746F6B656E206F776E65 PUSH1 0x40 DUP3 ADD MSTORE PUSH13 0x1C881BDC88185C1C1C9BDD9959 PUSH1 0x9A SHL PUSH1 0x60 DUP3 ADD MSTORE PUSH1 0x80 ADD SWAP1 JUMP JUMPDEST PUSH1 0x0 DUP3 PUSH2 0x24EF JUMPI PUSH2 0x24EF PUSH2 0x243B JUMP JUMPDEST POP DIV SWAP1 JUMP JUMPDEST PUSH1 0x0 PUSH1 0x20 DUP3 DUP5 SUB SLT ISZERO PUSH2 0x2506 JUMPI PUSH1 0x0 DUP1 REVERT JUMPDEST DUP2 MLOAD PUSH2 0x1AD1 DUP2 PUSH2 0x229A JUMP JUMPDEST PUSH1 0x0 PUSH1 0x1 DUP3 ADD PUSH2 0x2523 JUMPI PUSH2 0x2523 PUSH2 0x2465 JUMP JUMPDEST POP PUSH1 0x1 ADD SWAP1 JUMP JUMPDEST PUSH1 0x0 PUSH1 0x20 DUP3 DUP5 SUB SLT ISZERO PUSH2 0x253C JUMPI PUSH1 0x0 DUP1 REVERT JUMPDEST POP MLOAD SWAP2 SWAP1 POP JUMP JUMPDEST PUSH1 0x0 DUP2 PUSH1 0x0 NOT DIV DUP4 GT DUP3 ISZERO ISZERO AND ISZERO PUSH2 0x255D JUMPI PUSH2 0x255D PUSH2 0x2465 JUMP JUMPDEST POP MUL SWAP1 JUMP JUMPDEST PUSH4 0x4E487B71 PUSH1 0xE0 SHL PUSH1 0x0 MSTORE PUSH1 0x32 PUSH1 0x4 MSTORE PUSH1 0x24 PUSH1 0x0 REVERT JUMPDEST PUSH1 0x0 DUP3 DUP3 LT ISZERO PUSH2 0x258A JUMPI PUSH2 0x258A PUSH2 0x2465 JUMP JUMPDEST POP SUB SWAP1 JUMP JUMPDEST PUSH1 0x0 DUP4 MLOAD PUSH2 0x25A1 DUP2 DUP5 PUSH1 0x20 DUP9 ADD PUSH2 0x2064 JUMP JUMPDEST DUP4 MLOAD SWAP1 DUP4 ADD SWAP1 PUSH2 0x25B5 DUP2 DUP4 PUSH1 0x20 DUP9 ADD PUSH2 0x2064 JUMP JUMPDEST ADD SWAP5 SWAP4 POP POP POP POP JUMP JUMPDEST PUSH1 0x20 DUP1 DUP3 MSTORE PUSH1 0x25 SWAP1 DUP3 ADD MSTORE PUSH32 0x4552433732313A207472616E736665722066726F6D20696E636F727265637420 PUSH1 0x40 DUP3 ADD MSTORE PUSH5 0x37BBB732B9 PUSH1 0xD9 SHL PUSH1 0x60 DUP3 ADD MSTORE PUSH1 0x80 ADD SWAP1 JUMP JUMPDEST PUSH1 0x20 DUP1 DUP3 MSTORE PUSH1 0x32 SWAP1 DUP3 ADD MSTORE PUSH32 0x4552433732313A207472616E7366657220746F206E6F6E204552433732315265 PUSH1 0x40 DUP3 ADD MSTORE PUSH18 0x31B2B4BB32B91034B6B83632B6B2B73A32B9 PUSH1 0x71 SHL PUSH1 0x60 DUP3 ADD MSTORE PUSH1 0x80 ADD SWAP1 JUMP JUMPDEST PUSH1 0x1 PUSH1 0x1 PUSH1 0xA0 SHL SUB DUP6 DUP2 AND DUP3 MSTORE DUP5 AND PUSH1 0x20 DUP3 ADD MSTORE PUSH1 0x40 DUP2 ADD DUP4 SWAP1 MSTORE PUSH1 0x80 PUSH1 0x60 DUP3 ADD DUP2 SWAP1 MSTORE PUSH1 0x0 SWAP1 PUSH2 0x2688 SWAP1 DUP4 ADD DUP5 PUSH2 0x2090 JUMP JUMPDEST SWAP7 SWAP6 POP POP POP POP POP POP JUMP JUMPDEST PUSH1 0x0 PUSH1 0x20 DUP3 DUP5 SUB SLT ISZERO PUSH2 0x26A4 JUMPI PUSH1 0x0 DUP1 REVERT JUMPDEST DUP2 MLOAD PUSH2 0x1AD1 DUP2 PUSH2 0x2031 JUMP INVALID LOG2 PUSH5 0x6970667358 0x22 SLT KECCAK256 PUSH24 0xFFA9BE0D3215A50071E25B66B5C75F1AFAA9BB4492352B1E CODESIZE 0xC6 0xDD 0xCE PUSH20 0x42BA64736F6C634300080E003300000000000000 ","sha1":"941d29e547974922fd04c6019a8f9501053fba10","source":"// SPDX-License-Identifier: MIT\npragma solidity ^0.8.1;\nimport \"@openzeppelin/contracts/token/ERC721/extensions/ERC721URIStorage.sol\";\nimport \"@openzeppelin/contracts/token/ERC20/IERC20.sol\";\n\ninterface Nft_interface {\n    function update_nft_balance(uint256 amount) external;\n}\n\ncontract AdvancedCollectible is ERC721URIStorage {\n    enum Breed {\n        DREX1\n    }\n    // add other things\n    IERC20 private _token;\n    IERC20 private _daiTokens;\n    mapping(uint256 => address) public requestIdToSender;\n    mapping(uint256 => string) public requestIdToTokenURI;\n    mapping(uint256 => Breed) public tokenIdToBreed;\n    mapping(uint256 => uint256) public requestIdToTokenId;\n    mapping(address => uint256) public tokenToOwner;\n    mapping(uint256 => uint256) public participationValue;\n    mapping(address => uint256) public ownerToValue;\n    mapping(uint256 => uint256) public tokenidToValue;\n    mapping(address => bool) public Wallets;\n    address[] public previousContracts;\n\n    //events\n    event CREATE_NFT(uint256 indexed requestId);\n    event CLAIM(address _destAddr, uint256 _amount);\n    event UPDATE_NFT_BALANCE(uint256 amount);\n    event MINT(uint256 indexed requestId, uint256 randomNumber);\n\n    uint256 public totalTokenTransfered; //amount of drex tokens transfered till date\n    uint256 public tokenCounter;\n    uint256 public fParticipation;\n    uint256 public RequestId; //hardcoded value\n    uint256 public randomNumber; //harcoded value\n    address public Admin;\n    uint256 public nft_count;\n\n    // uint256 public curr_balance_for_each_token;\n\n    constructor(\n        IERC20 erc_token_address,\n        IERC20 dai_token_address,\n        address[] memory prevContracts,\n        uint256 no_of_nfts\n    ) public ERC721(\"DREX\", \"DRx\") {\n        Admin = msg.sender;\n        previousContracts = prevContracts;\n        _token = erc_token_address;\n        _daiTokens = dai_token_address;\n        RequestId = 1;\n        randomNumber = 10;\n        tokenCounter = 0;\n        totalTokenTransfered = 0;\n        nft_count = no_of_nfts;\n        // curr_balance_for_each_token = 0;\n    }\n\n    /// @notice Creates the nft\n    /// @param  tokenURI -> the token uri of the each nft, it can be empty also\n    function create_nft(string memory tokenURI) public payable {\n        require(\n            _daiTokens.balanceOf(msg.sender) > 50000,\n            \"balance not enought to mint nft\"\n        );\n        _daiTokens.transferFrom(msg.sender, address(this), 50000);\n        uint256 requestId = RequestId; //requestRandomness(keyHash, fee);\n        requestIdToSender[requestId] = msg.sender;\n        requestIdToTokenURI[requestId] = tokenURI;\n        mint(requestId, randomNumber);\n        RequestId = RequestId + 1;\n        randomNumber = randomNumber + 1;\n        emit CREATE_NFT(requestId);\n    }\n\n    /// @notice Used to set each of the user who have bought the nft\n    /// @param _wallet -> address of tge nft holder\n    function setWallet(address _wallet) public {\n        Wallets[_wallet] = true;\n    }\n\n    /// @notice Helper fucntion called by create_nft, calls the 'safemint fucntion'\n    /// @param requestId -->a uint256 number unique for each nft\n    /// @param RandomNumber -->  a uint256 number for each of the nft\n    function mint(uint256 requestId, uint256 RandomNumber) public {\n        address DrexOwner = requestIdToSender[requestId];\n        string memory tokenURI = requestIdToTokenURI[requestId];\n        uint256 newItemId = tokenCounter;\n        _safeMint(Admin, newItemId);\n        _setTokenURI(newItemId, tokenURI);\n        setWallet(DrexOwner);\n        Breed breed = Breed(RandomNumber % 1);\n        tokenIdToBreed[newItemId] = breed;\n        requestIdToTokenId[requestId] = newItemId;\n        tokenToOwner[DrexOwner] = newItemId;\n        tokenCounter = tokenCounter + 1;\n        emit MINT(requestId, RandomNumber);\n    }\n\n    ///@notice Sets tokenURI for each nft minted\n    /// @param tokenId --> a tokenId of each of the nft\n    /// @param _tokenURI --> string which refers the tokenuri for the nft\n    function setTokenURI(uint256 tokenId, string memory _tokenURI) public {\n        require(\n            _isApprovedOrOwner(_msgSender(), tokenId),\n            \"ERC721: transfer caller is not owner nor approved\"\n        );\n        _setTokenURI(tokenId, _tokenURI);\n    }\n\n    //correct this functions --> find new function for each contract\n    function participationCalculation() public {\n        require(previousContracts.length > 0, \"this is the first contract\");\n\n        //needs another check to remove the first contract after 25 years or after 25 contracts have been created\n\n        uint256 totalContracts = previousContracts.length + 1;\n        uint256 totalNfts = totalContracts * nft_count; //no of nfts per collection is a variable and find a way to make it variable\n        uint256 fEmission = nft_count / totalNfts; //decide how to deal with floating points --> need to be different for each collection\n        uint256 fYear = 1 / totalContracts;\n        fParticipation = (fEmission + fYear) / 2;\n    }\n\n    function participationReturns() public {\n        uint256 erc20balance = _token.balanceOf(address(this));\n        require(\n            _token.balanceOf(address(this)) > 100,\n            \"balance not sufficient\"\n        );\n        uint256 costTosend = (erc20balance * fParticipation) / 100;\n        for (uint256 holder = 0; holder < previousContracts.length; holder++) {\n            address to = previousContracts[holder];\n            _token.transfer(to, costTosend);\n            erc20balance -= costTosend;\n            // event for transfering funds from token pool to particular contract\n            emit CLAIM(to, costTosend);\n        }\n    }\n\n    /// @notice Divides the amount generated in each of the nft holders\n    /// @param amount --> amount generated and transfered to the contract\n    function update_nft_balance(uint256 amount) external {\n        uint256 curr_balance_for_each_token = amount / (nft_count);\n        for (uint256 token_id = 0; token_id < nft_count; token_id++) {\n            tokenidToValue[token_id] += curr_balance_for_each_token;\n        }\n        emit UPDATE_NFT_BALANCE(amount);\n    }\n\n    /// @notice NFt holder claims there drexTokens to stable coins using this function\n    function claim() public {\n        require(Wallets[msg.sender] == true, \"sender dont hold a nft\");\n        uint256 tokenId = tokenToOwner[msg.sender];\n        uint256 amount_to_send = (tokenidToValue[tokenId]) / (10**18);\n        totalTokenTransfered += amount_to_send;\n        _token.transferFrom(address(this), msg.sender, amount_to_send);\n        tokenidToValue[tokenId] = 0;\n        emit CLAIM(msg.sender, amount_to_send);\n    }\n}\n","sourcePath":"contracts/AdvancedCollectible.sol","type":"contract","deployment":{"address":"0x041c5a9EA9DfbB7a1654dB6D450C392133f3da19","chainid":"1287","blockHeight":3397976}}