{"abi":[{"inputs":[],"stateMutability":"nonpayable","type":"constructor","name":"constructor"},{"anonymous":false,"inputs":[{"indexed":true,"internalType":"bytes32","name":"id","type":"bytes32"}],"name":"ChainlinkCancelled","type":"event"},{"anonymous":false,"inputs":[{"indexed":true,"internalType":"bytes32","name":"id","type":"bytes32"}],"name":"ChainlinkFulfilled","type":"event"},{"anonymous":false,"inputs":[{"indexed":true,"internalType":"bytes32","name":"id","type":"bytes32"}],"name":"ChainlinkRequested","type":"event"},{"inputs":[{"internalType":"bytes32","name":"_requestId","type":"bytes32"},{"internalType":"uint256","name":"_volume","type":"uint256"}],"name":"fulfill","outputs":[],"stateMutability":"nonpayable","type":"function"},{"inputs":[],"name":"requestVolumeData","outputs":[{"internalType":"bytes32","name":"requestId","type":"bytes32"}],"stateMutability":"nonpayable","type":"function"},{"inputs":[],"name":"volume","outputs":[{"internalType":"uint256","name":"","type":"uint256"}],"stateMutability":"view","type":"function"}],"bytecode":"6080604052600160045534801561001557600080fd5b50600280546001600160a01b03191673a36085f69e2889c224210f603d836748e7dc0088179055600680546001600160a01b031916735e609e1c258255ef9ee2022a519abf5b9fe1afe21790557f36343632303766616234366634343939613838616537633831636438623037336007556000600855610bd58061009a6000396000f3fe608060405234801561001057600080fd5b50600436106100415760003560e01c80634357855e146100465780636021abac1461005b578063c618a1e414610075575b600080fd5b6100596100543660046108d6565b61007e565b005b610063610146565b60405190815260200160405180910390f35b61006360095481565b60008281526005602052604090205482906001600160a01b031633146100fc5760405162461bcd60e51b815260206004820152602860248201527f536f75726365206d75737420626520746865206f7261636c65206f6620746865604482015267081c995c5d595cdd60c21b60648201526084015b60405180910390fd5b60008181526005602052604080822080546001600160a01b03191690555182917f7cc135e0cebb02c3480ae5d74d377283180a2601f8f644edf7987b009316c63a91a25060095550565b60008061015d60075430634357855e60e01b610218565b905061019f6040518060400160405280600381526020016219d95d60ea1b815250604051806060016040528060338152602001610b6d6033913983919061023d565b6101f7604051806040016040528060048152602001630e0c2e8d60e31b8152506040518060400160405280600f81526020016e646174612e656e657267796163756d60881b8152508361023d9092919063ffffffff16565b600654600854610212916001600160a01b0316908390610260565b91505090565b61022061089b565b61022861089b565b610234818686866102f3565b95945050505050565b608083015161024c9083610339565b608083015161025b9082610339565b505050565b60045460009061027181600161090e565b600455835160408086015160808701515191516000936320214ca360e11b936102a99386938493923092918a91600191602401610973565b60408051601f198184030181529190526020810180516001600160e01b03166001600160e01b03199093169290921790915290506102e986838684610350565b9695505050505050565b6102fb61089b565b61030b85608001516101006104ae565b50508284526001600160a01b03821660208501526001600160e01b031981166040850152835b949350505050565b6103468260038351610519565b61025b828261062e565b6040516bffffffffffffffffffffffff193060601b1660208201526034810184905260009060540160408051808303601f1901815282825280516020918201206000818152600590925291812080546001600160a01b0319166001600160a01b038a1617905590925082917fb5e6e01e79f91267dc17b4e6314d5d4d03593d2ceee0fbb452b750bd70ea5af99190a2600254604051630200057560e51b81526001600160a01b0390911690634000aea090610413908890879087906004016109db565b6020604051808303816000875af1158015610432573d6000803e3d6000fd5b505050506040513d601f19601f820116820180604052508101906104569190610a02565b6103315760405162461bcd60e51b815260206004820152602360248201527f756e61626c6520746f207472616e73666572416e6443616c6c20746f206f7261604482015262636c6560e81b60648201526084016100f3565b6040805180820190915260608152600060208201526104ce602083610a24565b156104f6576104de602083610a24565b6104e9906020610a46565b6104f3908361090e565b91505b506020808301829052604080518085526000815283019091019052815b92915050565b60178167ffffffffffffffff16116105445761053e8360e0600585901b16831761065c565b50505050565b60ff8167ffffffffffffffff16116105825761056b836018611fe0600586901b161761065c565b5061053e8367ffffffffffffffff83166001610681565b61ffff8167ffffffffffffffff16116105c1576105aa836019611fe0600586901b161761065c565b5061053e8367ffffffffffffffff83166002610681565b63ffffffff8167ffffffffffffffff1611610602576105eb83601a611fe0600586901b161761065c565b5061053e8367ffffffffffffffff83166004610681565b61061783601b611fe0600586901b161761065c565b5061053e8367ffffffffffffffff83166008610681565b604080518082019091526060815260006020820152610655838460000151518485516106a7565b9392505050565b6040805180820190915260608152600060208201526106558384600001515184610791565b6040805180820190915260608152600060208201526103318485600001515185856107ec565b60408051808201909152606081526000602082015282518211156106ca57600080fd5b60208501516106d9838661090e565b111561070c5761070c856106fc876020015187866106f7919061090e565b61086d565b610707906002610a5d565b610884565b60008086518051876020830101935080888701111561072b5787860182525b505050602084015b6020841061076b578051825261074a60208361090e565b915061075760208261090e565b9050610764602085610a46565b9350610733565b51815160001960208690036101000a019081169019919091161790525083949350505050565b604080518082019091526060815260006020820152836020015183106107c6576107c684856020015160026107079190610a5d565b83518051602085830101848153508085036107e2576001810182525b5093949350505050565b6040805180820190915260608152600060208201526020850151610810858461090e565b111561082457610824856106fc868561090e565b6000600161083484610100610b60565b61083e9190610a46565b90508551838682010185831982511617815250805184870111156108625783860181525b509495945050505050565b60008183111561087e575081610513565b50919050565b815161089083836104ae565b5061053e838261062e565b6040805160a0810182526000808252602080830182905282840182905260608084018390528451808601909552845283015290608082015290565b600080604083850312156108e957600080fd5b50508035926020909101359150565b634e487b7160e01b600052601160045260246000fd5b60008219821115610921576109216108f8565b500190565b6000815180845260005b8181101561094c57602081850181015186830182015201610930565b8181111561095e576000602083870101525b50601f01601f19169290920160200192915050565b6001600160a01b0389811682526020820189905260408201889052861660608201526001600160e01b03198516608082015260a0810184905260c0810183905261010060e082018190526000906109cc83820185610926565b9b9a5050505050505050505050565b60018060a01b03841681528260208201526060604082015260006102346060830184610926565b600060208284031215610a1457600080fd5b8151801515811461065557600080fd5b600082610a4157634e487b7160e01b600052601260045260246000fd5b500690565b600082821015610a5857610a586108f8565b500390565b6000816000190483118215151615610a7757610a776108f8565b500290565b600181815b80851115610ab7578160001904821115610a9d57610a9d6108f8565b80851615610aaa57918102915b93841c9390800290610a81565b509250929050565b600082610ace57506001610513565b81610adb57506000610513565b8160018114610af15760028114610afb57610b17565b6001915050610513565b60ff841115610b0c57610b0c6108f8565b50506001821b610513565b5060208310610133831016604e8410600b8410161715610b3a575081810a610513565b610b448383610a7c565b8060001904821115610b5857610b586108f8565b029392505050565b60006106558383610abf56fe68747470733a2f2f736166652d726574726561742d36393231362e6865726f6b756170702e636f6d2f726f626f6e6f6d696373a26469706673582212209fa77061e4f561f667925b87f318b9d26116dae2ddb8ac07a21ef1255501097864736f6c634300080e0033","bytecodeSha1":"9f2d7989690d86e80e9b047263e5bd4eb4fc7bc2","compiler":{"evm_version":"istanbul","optimizer":{"enabled":true,"runs":200},"version":"0.8.14+commit.80d49f37"},"contractName":"Client","language":"Solidity","natspec":{"kind":"dev","methods":{"constructor":{"notice":"This example uses the LINK token address on Moonbase Alpha. Make sure to update the oracle and jobId."},"fulfill(bytes32,uint256)":{"notice":"Receive the response in the form of uint256"},"requestVolumeData()":{"notice":"Create a Chainlink request to retrieve API response, find the target data, then multiply by 1000000000000000000 (to remove decimal places from data)."}},"version":1},"opcodes":"PUSH1 0x80 PUSH1 0x40 MSTORE CALLVALUE DUP1 ISZERO PUSH2 0x10 JUMPI PUSH1 0x0 DUP1 REVERT JUMPDEST POP PUSH1 0x4 CALLDATASIZE LT PUSH2 0x41 JUMPI PUSH1 0x0 CALLDATALOAD PUSH1 0xE0 SHR DUP1 PUSH4 0x4357855E EQ PUSH2 0x46 JUMPI DUP1 PUSH4 0x6021ABAC EQ PUSH2 0x5B JUMPI DUP1 PUSH4 0xC618A1E4 EQ PUSH2 0x75 JUMPI JUMPDEST PUSH1 0x0 DUP1 REVERT JUMPDEST PUSH2 0x59 PUSH2 0x54 CALLDATASIZE PUSH1 0x4 PUSH2 0x8D6 JUMP JUMPDEST PUSH2 0x7E JUMP JUMPDEST STOP JUMPDEST PUSH2 0x63 PUSH2 0x146 JUMP JUMPDEST PUSH1 0x40 MLOAD SWAP1 DUP2 MSTORE PUSH1 0x20 ADD PUSH1 0x40 MLOAD DUP1 SWAP2 SUB SWAP1 RETURN JUMPDEST PUSH2 0x63 PUSH1 0x9 SLOAD DUP2 JUMP JUMPDEST PUSH1 0x0 DUP3 DUP2 MSTORE PUSH1 0x5 PUSH1 0x20 MSTORE PUSH1 0x40 SWAP1 KECCAK256 SLOAD DUP3 SWAP1 PUSH1 0x1 PUSH1 0x1 PUSH1 0xA0 SHL SUB AND CALLER EQ PUSH2 0xFC JUMPI PUSH1 0x40 MLOAD PUSH3 0x461BCD PUSH1 0xE5 SHL DUP2 MSTORE PUSH1 0x20 PUSH1 0x4 DUP3 ADD MSTORE PUSH1 0x28 PUSH1 0x24 DUP3 ADD MSTORE PUSH32 0x536F75726365206D75737420626520746865206F7261636C65206F6620746865 PUSH1 0x44 DUP3 ADD MSTORE PUSH8 0x81C995C5D595CDD PUSH1 0xC2 SHL PUSH1 0x64 DUP3 ADD MSTORE PUSH1 0x84 ADD JUMPDEST PUSH1 0x40 MLOAD DUP1 SWAP2 SUB SWAP1 REVERT JUMPDEST PUSH1 0x0 DUP2 DUP2 MSTORE PUSH1 0x5 PUSH1 0x20 MSTORE PUSH1 0x40 DUP1 DUP3 KECCAK256 DUP1 SLOAD PUSH1 0x1 PUSH1 0x1 PUSH1 0xA0 SHL SUB NOT AND SWAP1 SSTORE MLOAD DUP3 SWAP2 PUSH32 0x7CC135E0CEBB02C3480AE5D74D377283180A2601F8F644EDF7987B009316C63A SWAP2 LOG2 POP PUSH1 0x9 SSTORE POP JUMP JUMPDEST PUSH1 0x0 DUP1 PUSH2 0x15D PUSH1 0x7 SLOAD ADDRESS PUSH4 0x4357855E PUSH1 0xE0 SHL PUSH2 0x218 JUMP JUMPDEST SWAP1 POP PUSH2 0x19F PUSH1 0x40 MLOAD DUP1 PUSH1 0x40 ADD PUSH1 0x40 MSTORE DUP1 PUSH1 0x3 DUP2 MSTORE PUSH1 0x20 ADD PUSH3 0x19D95D PUSH1 0xEA SHL DUP2 MSTORE POP PUSH1 0x40 MLOAD DUP1 PUSH1 0x60 ADD PUSH1 0x40 MSTORE DUP1 PUSH1 0x33 DUP2 MSTORE PUSH1 0x20 ADD PUSH2 0xB6D PUSH1 0x33 SWAP2 CODECOPY DUP4 SWAP2 SWAP1 PUSH2 0x23D JUMP JUMPDEST PUSH2 0x1F7 PUSH1 0x40 MLOAD DUP1 PUSH1 0x40 ADD PUSH1 0x40 MSTORE DUP1 PUSH1 0x4 DUP2 MSTORE PUSH1 0x20 ADD PUSH4 0xE0C2E8D PUSH1 0xE3 SHL DUP2 MSTORE POP PUSH1 0x40 MLOAD DUP1 PUSH1 0x40 ADD PUSH1 0x40 MSTORE DUP1 PUSH1 0xF DUP2 MSTORE PUSH1 0x20 ADD PUSH15 0x646174612E656E657267796163756D PUSH1 0x88 SHL DUP2 MSTORE POP DUP4 PUSH2 0x23D SWAP1 SWAP3 SWAP2 SWAP1 PUSH4 0xFFFFFFFF AND JUMP JUMPDEST PUSH1 0x6 SLOAD PUSH1 0x8 SLOAD PUSH2 0x212 SWAP2 PUSH1 0x1 PUSH1 0x1 PUSH1 0xA0 SHL SUB AND SWAP1 DUP4 SWAP1 PUSH2 0x260 JUMP JUMPDEST SWAP2 POP POP SWAP1 JUMP JUMPDEST PUSH2 0x220 PUSH2 0x89B JUMP JUMPDEST PUSH2 0x228 PUSH2 0x89B JUMP JUMPDEST PUSH2 0x234 DUP2 DUP7 DUP7 DUP7 PUSH2 0x2F3 JUMP JUMPDEST SWAP6 SWAP5 POP POP POP POP POP JUMP JUMPDEST PUSH1 0x80 DUP4 ADD MLOAD PUSH2 0x24C SWAP1 DUP4 PUSH2 0x339 JUMP JUMPDEST PUSH1 0x80 DUP4 ADD MLOAD PUSH2 0x25B SWAP1 DUP3 PUSH2 0x339 JUMP JUMPDEST POP POP POP JUMP JUMPDEST PUSH1 0x4 SLOAD PUSH1 0x0 SWAP1 PUSH2 0x271 DUP2 PUSH1 0x1 PUSH2 0x90E JUMP JUMPDEST PUSH1 0x4 SSTORE DUP4 MLOAD PUSH1 0x40 DUP1 DUP7 ADD MLOAD PUSH1 0x80 DUP8 ADD MLOAD MLOAD SWAP2 MLOAD PUSH1 0x0 SWAP4 PUSH4 0x20214CA3 PUSH1 0xE1 SHL SWAP4 PUSH2 0x2A9 SWAP4 DUP7 SWAP4 DUP5 SWAP4 SWAP3 ADDRESS SWAP3 SWAP2 DUP11 SWAP2 PUSH1 0x1 SWAP2 PUSH1 0x24 ADD PUSH2 0x973 JUMP JUMPDEST PUSH1 0x40 DUP1 MLOAD PUSH1 0x1F NOT DUP2 DUP5 SUB ADD DUP2 MSTORE SWAP2 SWAP1 MSTORE PUSH1 0x20 DUP2 ADD DUP1 MLOAD PUSH1 0x1 PUSH1 0x1 PUSH1 0xE0 SHL SUB AND PUSH1 0x1 PUSH1 0x1 PUSH1 0xE0 SHL SUB NOT SWAP1 SWAP4 AND SWAP3 SWAP1 SWAP3 OR SWAP1 SWAP2 MSTORE SWAP1 POP PUSH2 0x2E9 DUP7 DUP4 DUP7 DUP5 PUSH2 0x350 JUMP JUMPDEST SWAP7 SWAP6 POP POP POP POP POP POP JUMP JUMPDEST PUSH2 0x2FB PUSH2 0x89B JUMP JUMPDEST PUSH2 0x30B DUP6 PUSH1 0x80 ADD MLOAD PUSH2 0x100 PUSH2 0x4AE JUMP JUMPDEST POP POP DUP3 DUP5 MSTORE PUSH1 0x1 PUSH1 0x1 PUSH1 0xA0 SHL SUB DUP3 AND PUSH1 0x20 DUP6 ADD MSTORE PUSH1 0x1 PUSH1 0x1 PUSH1 0xE0 SHL SUB NOT DUP2 AND PUSH1 0x40 DUP6 ADD MSTORE DUP4 JUMPDEST SWAP5 SWAP4 POP POP POP POP JUMP JUMPDEST PUSH2 0x346 DUP3 PUSH1 0x3 DUP4 MLOAD PUSH2 0x519 JUMP JUMPDEST PUSH2 0x25B DUP3 DUP3 PUSH2 0x62E JUMP JUMPDEST PUSH1 0x40 MLOAD PUSH12 0xFFFFFFFFFFFFFFFFFFFFFFFF NOT ADDRESS PUSH1 0x60 SHL AND PUSH1 0x20 DUP3 ADD MSTORE PUSH1 0x34 DUP2 ADD DUP5 SWAP1 MSTORE PUSH1 0x0 SWAP1 PUSH1 0x54 ADD PUSH1 0x40 DUP1 MLOAD DUP1 DUP4 SUB PUSH1 0x1F NOT ADD DUP2 MSTORE DUP3 DUP3 MSTORE DUP1 MLOAD PUSH1 0x20 SWAP2 DUP3 ADD KECCAK256 PUSH1 0x0 DUP2 DUP2 MSTORE PUSH1 0x5 SWAP1 SWAP3 MSTORE SWAP2 DUP2 KECCAK256 DUP1 SLOAD PUSH1 0x1 PUSH1 0x1 PUSH1 0xA0 SHL SUB NOT AND PUSH1 0x1 PUSH1 0x1 PUSH1 0xA0 SHL SUB DUP11 AND OR SWAP1 SSTORE SWAP1 SWAP3 POP DUP3 SWAP2 PUSH32 0xB5E6E01E79F91267DC17B4E6314D5D4D03593D2CEEE0FBB452B750BD70EA5AF9 SWAP2 SWAP1 LOG2 PUSH1 0x2 SLOAD PUSH1 0x40 MLOAD PUSH4 0x2000575 PUSH1 0xE5 SHL DUP2 MSTORE PUSH1 0x1 PUSH1 0x1 PUSH1 0xA0 SHL SUB SWAP1 SWAP2 AND SWAP1 PUSH4 0x4000AEA0 SWAP1 PUSH2 0x413 SWAP1 DUP9 SWAP1 DUP8 SWAP1 DUP8 SWAP1 PUSH1 0x4 ADD PUSH2 0x9DB JUMP JUMPDEST PUSH1 0x20 PUSH1 0x40 MLOAD DUP1 DUP4 SUB DUP2 PUSH1 0x0 DUP8 GAS CALL ISZERO DUP1 ISZERO PUSH2 0x432 JUMPI RETURNDATASIZE PUSH1 0x0 DUP1 RETURNDATACOPY RETURNDATASIZE PUSH1 0x0 REVERT JUMPDEST POP POP POP POP PUSH1 0x40 MLOAD RETURNDATASIZE PUSH1 0x1F NOT PUSH1 0x1F DUP3 ADD AND DUP3 ADD DUP1 PUSH1 0x40 MSTORE POP DUP2 ADD SWAP1 PUSH2 0x456 SWAP2 SWAP1 PUSH2 0xA02 JUMP JUMPDEST PUSH2 0x331 JUMPI PUSH1 0x40 MLOAD PUSH3 0x461BCD PUSH1 0xE5 SHL DUP2 MSTORE PUSH1 0x20 PUSH1 0x4 DUP3 ADD MSTORE PUSH1 0x23 PUSH1 0x24 DUP3 ADD MSTORE PUSH32 0x756E61626C6520746F207472616E73666572416E6443616C6C20746F206F7261 PUSH1 0x44 DUP3 ADD MSTORE PUSH3 0x636C65 PUSH1 0xE8 SHL PUSH1 0x64 DUP3 ADD MSTORE PUSH1 0x84 ADD PUSH2 0xF3 JUMP JUMPDEST PUSH1 0x40 DUP1 MLOAD DUP1 DUP3 ADD SWAP1 SWAP2 MSTORE PUSH1 0x60 DUP2 MSTORE PUSH1 0x0 PUSH1 0x20 DUP3 ADD MSTORE PUSH2 0x4CE PUSH1 0x20 DUP4 PUSH2 0xA24 JUMP JUMPDEST ISZERO PUSH2 0x4F6 JUMPI PUSH2 0x4DE PUSH1 0x20 DUP4 PUSH2 0xA24 JUMP JUMPDEST PUSH2 0x4E9 SWAP1 PUSH1 0x20 PUSH2 0xA46 JUMP JUMPDEST PUSH2 0x4F3 SWAP1 DUP4 PUSH2 0x90E JUMP JUMPDEST SWAP2 POP JUMPDEST POP PUSH1 0x20 DUP1 DUP4 ADD DUP3 SWAP1 MSTORE PUSH1 0x40 DUP1 MLOAD DUP1 DUP6 MSTORE PUSH1 0x0 DUP2 MSTORE DUP4 ADD SWAP1 SWAP2 ADD SWAP1 MSTORE DUP2 JUMPDEST SWAP3 SWAP2 POP POP JUMP JUMPDEST PUSH1 0x17 DUP2 PUSH8 0xFFFFFFFFFFFFFFFF AND GT PUSH2 0x544 JUMPI PUSH2 0x53E DUP4 PUSH1 0xE0 PUSH1 0x5 DUP6 SWAP1 SHL AND DUP4 OR PUSH2 0x65C JUMP JUMPDEST POP POP POP POP JUMP JUMPDEST PUSH1 0xFF DUP2 PUSH8 0xFFFFFFFFFFFFFFFF AND GT PUSH2 0x582 JUMPI PUSH2 0x56B DUP4 PUSH1 0x18 PUSH2 0x1FE0 PUSH1 0x5 DUP7 SWAP1 SHL AND OR PUSH2 0x65C JUMP JUMPDEST POP PUSH2 0x53E DUP4 PUSH8 0xFFFFFFFFFFFFFFFF DUP4 AND PUSH1 0x1 PUSH2 0x681 JUMP JUMPDEST PUSH2 0xFFFF DUP2 PUSH8 0xFFFFFFFFFFFFFFFF AND GT PUSH2 0x5C1 JUMPI PUSH2 0x5AA DUP4 PUSH1 0x19 PUSH2 0x1FE0 PUSH1 0x5 DUP7 SWAP1 SHL AND OR PUSH2 0x65C JUMP JUMPDEST POP PUSH2 0x53E DUP4 PUSH8 0xFFFFFFFFFFFFFFFF DUP4 AND PUSH1 0x2 PUSH2 0x681 JUMP JUMPDEST PUSH4 0xFFFFFFFF DUP2 PUSH8 0xFFFFFFFFFFFFFFFF AND GT PUSH2 0x602 JUMPI PUSH2 0x5EB DUP4 PUSH1 0x1A PUSH2 0x1FE0 PUSH1 0x5 DUP7 SWAP1 SHL AND OR PUSH2 0x65C JUMP JUMPDEST POP PUSH2 0x53E DUP4 PUSH8 0xFFFFFFFFFFFFFFFF DUP4 AND PUSH1 0x4 PUSH2 0x681 JUMP JUMPDEST PUSH2 0x617 DUP4 PUSH1 0x1B PUSH2 0x1FE0 PUSH1 0x5 DUP7 SWAP1 SHL AND OR PUSH2 0x65C JUMP JUMPDEST POP PUSH2 0x53E DUP4 PUSH8 0xFFFFFFFFFFFFFFFF DUP4 AND PUSH1 0x8 PUSH2 0x681 JUMP JUMPDEST PUSH1 0x40 DUP1 MLOAD DUP1 DUP3 ADD SWAP1 SWAP2 MSTORE PUSH1 0x60 DUP2 MSTORE PUSH1 0x0 PUSH1 0x20 DUP3 ADD MSTORE PUSH2 0x655 DUP4 DUP5 PUSH1 0x0 ADD MLOAD MLOAD DUP5 DUP6 MLOAD PUSH2 0x6A7 JUMP JUMPDEST SWAP4 SWAP3 POP POP POP JUMP JUMPDEST PUSH1 0x40 DUP1 MLOAD DUP1 DUP3 ADD SWAP1 SWAP2 MSTORE PUSH1 0x60 DUP2 MSTORE PUSH1 0x0 PUSH1 0x20 DUP3 ADD MSTORE PUSH2 0x655 DUP4 DUP5 PUSH1 0x0 ADD MLOAD MLOAD DUP5 PUSH2 0x791 JUMP JUMPDEST PUSH1 0x40 DUP1 MLOAD DUP1 DUP3 ADD SWAP1 SWAP2 MSTORE PUSH1 0x60 DUP2 MSTORE PUSH1 0x0 PUSH1 0x20 DUP3 ADD MSTORE PUSH2 0x331 DUP5 DUP6 PUSH1 0x0 ADD MLOAD MLOAD DUP6 DUP6 PUSH2 0x7EC JUMP JUMPDEST PUSH1 0x40 DUP1 MLOAD DUP1 DUP3 ADD SWAP1 SWAP2 MSTORE PUSH1 0x60 DUP2 MSTORE PUSH1 0x0 PUSH1 0x20 DUP3 ADD MSTORE DUP3 MLOAD DUP3 GT ISZERO PUSH2 0x6CA JUMPI PUSH1 0x0 DUP1 REVERT JUMPDEST PUSH1 0x20 DUP6 ADD MLOAD PUSH2 0x6D9 DUP4 DUP7 PUSH2 0x90E JUMP JUMPDEST GT ISZERO PUSH2 0x70C JUMPI PUSH2 0x70C DUP6 PUSH2 0x6FC DUP8 PUSH1 0x20 ADD MLOAD DUP8 DUP7 PUSH2 0x6F7 SWAP2 SWAP1 PUSH2 0x90E JUMP JUMPDEST PUSH2 0x86D JUMP JUMPDEST PUSH2 0x707 SWAP1 PUSH1 0x2 PUSH2 0xA5D JUMP JUMPDEST PUSH2 0x884 JUMP JUMPDEST PUSH1 0x0 DUP1 DUP7 MLOAD DUP1 MLOAD DUP8 PUSH1 0x20 DUP4 ADD ADD SWAP4 POP DUP1 DUP9 DUP8 ADD GT ISZERO PUSH2 0x72B JUMPI DUP8 DUP7 ADD DUP3 MSTORE JUMPDEST POP POP POP PUSH1 0x20 DUP5 ADD JUMPDEST PUSH1 0x20 DUP5 LT PUSH2 0x76B JUMPI DUP1 MLOAD DUP3 MSTORE PUSH2 0x74A PUSH1 0x20 DUP4 PUSH2 0x90E JUMP JUMPDEST SWAP2 POP PUSH2 0x757 PUSH1 0x20 DUP3 PUSH2 0x90E JUMP JUMPDEST SWAP1 POP PUSH2 0x764 PUSH1 0x20 DUP6 PUSH2 0xA46 JUMP JUMPDEST SWAP4 POP PUSH2 0x733 JUMP JUMPDEST MLOAD DUP2 MLOAD PUSH1 0x0 NOT PUSH1 0x20 DUP7 SWAP1 SUB PUSH2 0x100 EXP ADD SWAP1 DUP2 AND SWAP1 NOT SWAP2 SWAP1 SWAP2 AND OR SWAP1 MSTORE POP DUP4 SWAP5 SWAP4 POP POP POP POP JUMP JUMPDEST PUSH1 0x40 DUP1 MLOAD DUP1 DUP3 ADD SWAP1 SWAP2 MSTORE PUSH1 0x60 DUP2 MSTORE PUSH1 0x0 PUSH1 0x20 DUP3 ADD MSTORE DUP4 PUSH1 0x20 ADD MLOAD DUP4 LT PUSH2 0x7C6 JUMPI PUSH2 0x7C6 DUP5 DUP6 PUSH1 0x20 ADD MLOAD PUSH1 0x2 PUSH2 0x707 SWAP2 SWAP1 PUSH2 0xA5D JUMP JUMPDEST DUP4 MLOAD DUP1 MLOAD PUSH1 0x20 DUP6 DUP4 ADD ADD DUP5 DUP2 MSTORE8 POP DUP1 DUP6 SUB PUSH2 0x7E2 JUMPI PUSH1 0x1 DUP2 ADD DUP3 MSTORE JUMPDEST POP SWAP4 SWAP5 SWAP4 POP POP POP POP JUMP JUMPDEST PUSH1 0x40 DUP1 MLOAD DUP1 DUP3 ADD SWAP1 SWAP2 MSTORE PUSH1 0x60 DUP2 MSTORE PUSH1 0x0 PUSH1 0x20 DUP3 ADD MSTORE PUSH1 0x20 DUP6 ADD MLOAD PUSH2 0x810 DUP6 DUP5 PUSH2 0x90E JUMP JUMPDEST GT ISZERO PUSH2 0x824 JUMPI PUSH2 0x824 DUP6 PUSH2 0x6FC DUP7 DUP6 PUSH2 0x90E JUMP JUMPDEST PUSH1 0x0 PUSH1 0x1 PUSH2 0x834 DUP5 PUSH2 0x100 PUSH2 0xB60 JUMP JUMPDEST PUSH2 0x83E SWAP2 SWAP1 PUSH2 0xA46 JUMP JUMPDEST SWAP1 POP DUP6 MLOAD DUP4 DUP7 DUP3 ADD ADD DUP6 DUP4 NOT DUP3 MLOAD AND OR DUP2 MSTORE POP DUP1 MLOAD DUP5 DUP8 ADD GT ISZERO PUSH2 0x862 JUMPI DUP4 DUP7 ADD DUP2 MSTORE JUMPDEST POP SWAP5 SWAP6 SWAP5 POP POP POP POP POP JUMP JUMPDEST PUSH1 0x0 DUP2 DUP4 GT ISZERO PUSH2 0x87E JUMPI POP DUP2 PUSH2 0x513 JUMP JUMPDEST POP SWAP2 SWAP1 POP JUMP JUMPDEST DUP2 MLOAD PUSH2 0x890 DUP4 DUP4 PUSH2 0x4AE JUMP JUMPDEST POP PUSH2 0x53E DUP4 DUP3 PUSH2 0x62E JUMP JUMPDEST PUSH1 0x40 DUP1 MLOAD PUSH1 0xA0 DUP2 ADD DUP3 MSTORE PUSH1 0x0 DUP1 DUP3 MSTORE PUSH1 0x20 DUP1 DUP4 ADD DUP3 SWAP1 MSTORE DUP3 DUP5 ADD DUP3 SWAP1 MSTORE PUSH1 0x60 DUP1 DUP5 ADD DUP4 SWAP1 MSTORE DUP5 MLOAD DUP1 DUP7 ADD SWAP1 SWAP6 MSTORE DUP5 MSTORE DUP4 ADD MSTORE SWAP1 PUSH1 0x80 DUP3 ADD MSTORE SWAP1 JUMP JUMPDEST PUSH1 0x0 DUP1 PUSH1 0x40 DUP4 DUP6 SUB SLT ISZERO PUSH2 0x8E9 JUMPI PUSH1 0x0 DUP1 REVERT JUMPDEST POP POP DUP1 CALLDATALOAD SWAP3 PUSH1 0x20 SWAP1 SWAP2 ADD CALLDATALOAD SWAP2 POP JUMP JUMPDEST PUSH4 0x4E487B71 PUSH1 0xE0 SHL PUSH1 0x0 MSTORE PUSH1 0x11 PUSH1 0x4 MSTORE PUSH1 0x24 PUSH1 0x0 REVERT JUMPDEST PUSH1 0x0 DUP3 NOT DUP3 GT ISZERO PUSH2 0x921 JUMPI PUSH2 0x921 PUSH2 0x8F8 JUMP JUMPDEST POP ADD SWAP1 JUMP JUMPDEST PUSH1 0x0 DUP2 MLOAD DUP1 DUP5 MSTORE PUSH1 0x0 JUMPDEST DUP2 DUP2 LT ISZERO PUSH2 0x94C JUMPI PUSH1 0x20 DUP2 DUP6 ADD DUP2 ADD MLOAD DUP7 DUP4 ADD DUP3 ADD MSTORE ADD PUSH2 0x930 JUMP JUMPDEST DUP2 DUP2 GT ISZERO PUSH2 0x95E JUMPI PUSH1 0x0 PUSH1 0x20 DUP4 DUP8 ADD ADD MSTORE JUMPDEST POP PUSH1 0x1F ADD PUSH1 0x1F NOT AND SWAP3 SWAP1 SWAP3 ADD PUSH1 0x20 ADD SWAP3 SWAP2 POP POP JUMP JUMPDEST PUSH1 0x1 PUSH1 0x1 PUSH1 0xA0 SHL SUB DUP10 DUP2 AND DUP3 MSTORE PUSH1 0x20 DUP3 ADD DUP10 SWAP1 MSTORE PUSH1 0x40 DUP3 ADD DUP9 SWAP1 MSTORE DUP7 AND PUSH1 0x60 DUP3 ADD MSTORE PUSH1 0x1 PUSH1 0x1 PUSH1 0xE0 SHL SUB NOT DUP6 AND PUSH1 0x80 DUP3 ADD MSTORE PUSH1 0xA0 DUP2 ADD DUP5 SWAP1 MSTORE PUSH1 0xC0 DUP2 ADD DUP4 SWAP1 MSTORE PUSH2 0x100 PUSH1 0xE0 DUP3 ADD DUP2 SWAP1 MSTORE PUSH1 0x0 SWAP1 PUSH2 0x9CC DUP4 DUP3 ADD DUP6 PUSH2 0x926 JUMP JUMPDEST SWAP12 SWAP11 POP POP POP POP POP POP POP POP POP POP POP JUMP JUMPDEST PUSH1 0x1 DUP1 PUSH1 0xA0 SHL SUB DUP5 AND DUP2 MSTORE DUP3 PUSH1 0x20 DUP3 ADD MSTORE PUSH1 0x60 PUSH1 0x40 DUP3 ADD MSTORE PUSH1 0x0 PUSH2 0x234 PUSH1 0x60 DUP4 ADD DUP5 PUSH2 0x926 JUMP JUMPDEST PUSH1 0x0 PUSH1 0x20 DUP3 DUP5 SUB SLT ISZERO PUSH2 0xA14 JUMPI PUSH1 0x0 DUP1 REVERT JUMPDEST DUP2 MLOAD DUP1 ISZERO ISZERO DUP2 EQ PUSH2 0x655 JUMPI PUSH1 0x0 DUP1 REVERT JUMPDEST PUSH1 0x0 DUP3 PUSH2 0xA41 JUMPI PUSH4 0x4E487B71 PUSH1 0xE0 SHL PUSH1 0x0 MSTORE PUSH1 0x12 PUSH1 0x4 MSTORE PUSH1 0x24 PUSH1 0x0 REVERT JUMPDEST POP MOD SWAP1 JUMP JUMPDEST PUSH1 0x0 DUP3 DUP3 LT ISZERO PUSH2 0xA58 JUMPI PUSH2 0xA58 PUSH2 0x8F8 JUMP JUMPDEST POP SUB SWAP1 JUMP JUMPDEST PUSH1 0x0 DUP2 PUSH1 0x0 NOT DIV DUP4 GT DUP3 ISZERO ISZERO AND ISZERO PUSH2 0xA77 JUMPI PUSH2 0xA77 PUSH2 0x8F8 JUMP JUMPDEST POP MUL SWAP1 JUMP JUMPDEST PUSH1 0x1 DUP2 DUP2 JUMPDEST DUP1 DUP6 GT ISZERO PUSH2 0xAB7 JUMPI DUP2 PUSH1 0x0 NOT DIV DUP3 GT ISZERO PUSH2 0xA9D JUMPI PUSH2 0xA9D PUSH2 0x8F8 JUMP JUMPDEST DUP1 DUP6 AND ISZERO PUSH2 0xAAA JUMPI SWAP2 DUP2 MUL SWAP2 JUMPDEST SWAP4 DUP5 SHR SWAP4 SWAP1 DUP1 MUL SWAP1 PUSH2 0xA81 JUMP JUMPDEST POP SWAP3 POP SWAP3 SWAP1 POP JUMP JUMPDEST PUSH1 0x0 DUP3 PUSH2 0xACE JUMPI POP PUSH1 0x1 PUSH2 0x513 JUMP JUMPDEST DUP2 PUSH2 0xADB JUMPI POP PUSH1 0x0 PUSH2 0x513 JUMP JUMPDEST DUP2 PUSH1 0x1 DUP2 EQ PUSH2 0xAF1 JUMPI PUSH1 0x2 DUP2 EQ PUSH2 0xAFB JUMPI PUSH2 0xB17 JUMP JUMPDEST PUSH1 0x1 SWAP2 POP POP PUSH2 0x513 JUMP JUMPDEST PUSH1 0xFF DUP5 GT ISZERO PUSH2 0xB0C JUMPI PUSH2 0xB0C PUSH2 0x8F8 JUMP JUMPDEST POP POP PUSH1 0x1 DUP3 SHL PUSH2 0x513 JUMP JUMPDEST POP PUSH1 0x20 DUP4 LT PUSH2 0x133 DUP4 LT AND PUSH1 0x4E DUP5 LT PUSH1 0xB DUP5 LT AND OR ISZERO PUSH2 0xB3A JUMPI POP DUP2 DUP2 EXP PUSH2 0x513 JUMP JUMPDEST PUSH2 0xB44 DUP4 DUP4 PUSH2 0xA7C JUMP JUMPDEST DUP1 PUSH1 0x0 NOT DIV DUP3 GT ISZERO PUSH2 0xB58 JUMPI PUSH2 0xB58 PUSH2 0x8F8 JUMP JUMPDEST MUL SWAP4 SWAP3 POP POP POP JUMP JUMPDEST PUSH1 0x0 PUSH2 0x655 DUP4 DUP4 PUSH2 0xABF JUMP INVALID PUSH9 0x747470733A2F2F7361 PUSH7 0x652D7265747265 PUSH2 0x742D CALLDATASIZE CODECOPY ORIGIN BALANCE CALLDATASIZE 0x2E PUSH9 0x65726F6B756170702E PUSH4 0x6F6D2F72 PUSH16 0x626F6E6F6D696373A264697066735822 SLT KECCAK256 SWAP16 0xA7 PUSH17 0x61E4F561F667925B87F318B9D26116DAE2 0xDD 0xB8 0xAC SMOD LOG2 0x1E CALL 0x25 SSTORE ADD MULMOD PUSH25 0x64736F6C634300080E00330000000000000000000000000000 ","sha1":"30b6ae630240a52d140a55632688273c4ca1ba06","source":"pragma solidity ^0.8.7;\n\nimport \"@Chainlink/contracts/src/v0.8/ChainlinkClient.sol\";\n\ncontract Client is ChainlinkClient {\n    using Chainlink for Chainlink.Request;\n\n    address private oracle;\n    bytes32 private jobId;\n    uint256 private fee;\n    uint256 public volume;\n\n    /**\n    This example uses the LINK token address on Moonbase Alpha.\n    Make sure to update the oracle and jobId.\n    */\n    constructor() {\n        setChainlinkToken(address(0xa36085F69e2889c224210F603D836748e7dC0088));\n        oracle = 0x5e609E1c258255ef9Ee2022a519aBf5b9Fe1afe2;\n        jobId = \"646207fab46f4499a88ae7c81cd8b073\";\n        fee = 0;\n    }\n\n    /**\n     * Create a Chainlink request to retrieve API response, find the target\n     * data, then multiply by 1000000000000000000 (to remove decimal places from data).\n     */\n    function requestVolumeData() public returns (bytes32 requestId) {\n        Chainlink.Request memory request = buildChainlinkRequest(\n            jobId,\n            address(this),\n            this.fulfill.selector\n        );\n\n        // Set the URL to perform the GET request on\n        request.add(\n            \"get\",\n            \"https://safe-retreat-69216.herokuapp.com/robonomics\"\n        );\n\n        // Set the path to find the desired data in the API response, where the response format is:\n        // {\"RAW\":\n        //   {\"ETH\":\n        //    {\"USD\":\n        //     {\n        //      \"VOLUME24HOUR\": xxx.xxx,\n        //     }\n        //    }\n        //   }\n        //  }\n        request.add(\"path\", \"data.energyacum\");\n\n        // Sends the request\n        return sendChainlinkRequestTo(oracle, request, fee);\n    }\n\n    /**\n     * Receive the response in the form of uint256\n     */\n    function fulfill(bytes32 _requestId, uint256 _volume)\n        public\n        recordChainlinkFulfillment(_requestId)\n    {\n        volume = _volume;\n    }\n}\n","sourcePath":"contracts/DrexApi.sol","type":"contract","deployment":{"address":"0x33A193539CA27A2007A5beeA354Ee11025E81f62","chainid":"1287","blockHeight":3154531}}