{"abi":[{"inputs":[],"stateMutability":"nonpayable","type":"constructor","name":"constructor"},{"anonymous":false,"inputs":[{"indexed":true,"internalType":"bytes32","name":"id","type":"bytes32"}],"name":"ChainlinkCancelled","type":"event"},{"anonymous":false,"inputs":[{"indexed":true,"internalType":"bytes32","name":"id","type":"bytes32"}],"name":"ChainlinkFulfilled","type":"event"},{"anonymous":false,"inputs":[{"indexed":true,"internalType":"bytes32","name":"id","type":"bytes32"}],"name":"ChainlinkRequested","type":"event"},{"inputs":[{"internalType":"bytes32","name":"_requestId","type":"bytes32"},{"internalType":"uint256","name":"_volume","type":"uint256"}],"name":"fulfill","outputs":[],"stateMutability":"nonpayable","type":"function"},{"inputs":[],"name":"requestVolumeData","outputs":[{"internalType":"bytes32","name":"requestId","type":"bytes32"}],"stateMutability":"nonpayable","type":"function"},{"inputs":[],"name":"volume","outputs":[{"internalType":"uint256","name":"","type":"uint256"}],"stateMutability":"view","type":"function"}],"bytecode":"6080604052600160045534801561001557600080fd5b50600280546001600160a01b03191673a36085f69e2889c224210f603d836748e7dc0088179055600680546001600160a01b031916735e609e1c258255ef9ee2022a519abf5b9fe1afe21790557f63646336393866383262623434373136616434653961353766313063363335376007556000600855610d498061009a6000396000f3fe608060405234801561001057600080fd5b50600436106100415760003560e01c80634357855e146100465780636021abac1461005b578063c618a1e414610075575b600080fd5b6100596100543660046109f9565b61007e565b005b610063610146565b60405190815260200160405180910390f35b61006360095481565b60008281526005602052604090205482906001600160a01b031633146100fc5760405162461bcd60e51b815260206004820152602860248201527f536f75726365206d75737420626520746865206f7261636c65206f6620746865604482015267081c995c5d595cdd60c21b60648201526084015b60405180910390fd5b60008181526005602052604080822080546001600160a01b03191690555182917f7cc135e0cebb02c3480ae5d74d377283180a2601f8f644edf7987b009316c63a91a25060095550565b60008061015d60075430634357855e60e01b610247565b905061019f6040518060400160405280600381526020016219d95d60ea1b815250604051806080016040528060458152602001610ccf6045913983919061026c565b6101f3604051806040016040528060048152602001630e0c2e8d60e31b8152506040518060400160405280600b81526020016a656e657267792d6163756d60a81b8152508361026c9092919063ffffffff16565b60408051808201909152600581526474696d657360d81b6020820152670de0b6b3a7640000906102259083908361028f565b600654600854610240916001600160a01b03169084906102ad565b9250505090565b61024f6109be565b6102576109be565b61026381868686610340565b95945050505050565b608083015161027b9083610386565b608083015161028a9082610386565b505050565b608083015161029e9083610386565b608083015161028a908261039d565b6004546000906102be816001610a31565b600455835160408086015160808701515191516000936320214ca360e11b936102f69386938493923092918a91600191602401610a96565b60408051601f198184030181529190526020810180516001600160e01b03166001600160e01b031990931692909217909152905061033686838684610401565b9695505050505050565b6103486109be565b610358856080015161010061055f565b50508284526001600160a01b03821660208501526001600160e01b031981166040850152835b949350505050565b61039382600383516105ca565b61028a82826106df565b67ffffffffffffffff198112156103bc576103b8828261070d565b5050565b67ffffffffffffffff8113156103d6576103b8828261074f565b600081126103ea576103b8826000836105ca565b6103b88260016103fc84600019610afe565b6105ca565b6040516bffffffffffffffffffffffff193060601b1660208201526034810184905260009060540160408051808303601f1901815282825280516020918201206000818152600590925291812080546001600160a01b0319166001600160a01b038a1617905590925082917fb5e6e01e79f91267dc17b4e6314d5d4d03593d2ceee0fbb452b750bd70ea5af99190a2600254604051630200057560e51b81526001600160a01b0390911690634000aea0906104c490889087908790600401610b3d565b6020604051808303816000875af11580156104e3573d6000803e3d6000fd5b505050506040513d601f19601f820116820180604052508101906105079190610b64565b61037e5760405162461bcd60e51b815260206004820152602360248201527f756e61626c6520746f207472616e73666572416e6443616c6c20746f206f7261604482015262636c6560e81b60648201526084016100f3565b60408051808201909152606081526000602082015261057f602083610b86565b156105a75761058f602083610b86565b61059a906020610ba8565b6105a49083610a31565b91505b506020808301829052604080518085526000815283019091019052815b92915050565b60178167ffffffffffffffff16116105f5576105ef8360e0600585901b168317610772565b50505050565b60ff8167ffffffffffffffff16116106335761061c836018611fe0600586901b1617610772565b506105ef8367ffffffffffffffff83166001610797565b61ffff8167ffffffffffffffff16116106725761065b836019611fe0600586901b1617610772565b506105ef8367ffffffffffffffff83166002610797565b63ffffffff8167ffffffffffffffff16116106b35761069c83601a611fe0600586901b1617610772565b506105ef8367ffffffffffffffff83166004610797565b6106c883601b611fe0600586901b1617610772565b506105ef8367ffffffffffffffff83166008610797565b604080518082019091526060815260006020820152610706838460000151518485516107bd565b9392505050565b6107188260c3610772565b506103b88261072983600019610afe565b60405160200161073b91815260200190565b6040516020818303038152906040526108a7565b61075a8260c2610772565b506103b8828260405160200161073b91815260200190565b60408051808201909152606081526000602082015261070683846000015151846108b4565b60408051808201909152606081526000602082015261037e84856000015151858561090f565b60408051808201909152606081526000602082015282518211156107e057600080fd5b60208501516107ef8386610a31565b111561082257610822856108128760200151878661080d9190610a31565b610990565b61081d906002610bbf565b6109a7565b6000808651805187602083010193508088870111156108415787860182525b505050602084015b602084106108815780518252610860602083610a31565b915061086d602082610a31565b905061087a602085610ba8565b9350610849565b51815160001960208690036101000a019081169019919091161790525083949350505050565b61039382600283516105ca565b604080518082019091526060815260006020820152836020015183106108e9576108e9848560200151600261081d9190610bbf565b8351805160208583010184815350808503610905576001810182525b5093949350505050565b60408051808201909152606081526000602082015260208501516109338584610a31565b111561094757610947856108128685610a31565b6000600161095784610100610cc2565b6109619190610ba8565b90508551838682010185831982511617815250805184870111156109855783860181525b509495945050505050565b6000818311156109a15750816105c4565b50919050565b81516109b3838361055f565b506105ef83826106df565b6040805160a0810182526000808252602080830182905282840182905260608084018390528451808601909552845283015290608082015290565b60008060408385031215610a0c57600080fd5b50508035926020909101359150565b634e487b7160e01b600052601160045260246000fd5b60008219821115610a4457610a44610a1b565b500190565b6000815180845260005b81811015610a6f57602081850181015186830182015201610a53565b81811115610a81576000602083870101525b50601f01601f19169290920160200192915050565b6001600160a01b0389811682526020820189905260408201889052861660608201526001600160e01b03198516608082015260a0810184905260c0810183905261010060e08201819052600090610aef83820185610a49565b9b9a5050505050505050505050565b60008083128015600160ff1b850184121615610b1c57610b1c610a1b565b6001600160ff1b0384018313811615610b3757610b37610a1b565b50500390565b60018060a01b03841681528260208201526060604082015260006102636060830184610a49565b600060208284031215610b7657600080fd5b8151801515811461070657600080fd5b600082610ba357634e487b7160e01b600052601260045260246000fd5b500690565b600082821015610bba57610bba610a1b565b500390565b6000816000190483118215151615610bd957610bd9610a1b565b500290565b600181815b80851115610c19578160001904821115610bff57610bff610a1b565b80851615610c0c57918102915b93841c9390800290610be3565b509250929050565b600082610c30575060016105c4565b81610c3d575060006105c4565b8160018114610c535760028114610c5d57610c79565b60019150506105c4565b60ff841115610c6e57610c6e610a1b565b50506001821b6105c4565b5060208310610133831016604e8410600b8410161715610c9c575081810a6105c4565b610ca68383610bde565b8060001904821115610cba57610cba610a1b565b029392505050565b60006107068383610c2156fe687474703a2f2f647265782d656e762e6562612d6a6b7875797162712e75732d656173742d312e656c61737469636265616e7374616c6b2e636f6d2f677269642f6c617374a2646970667358221220bcaf1d5719e5cf141799819539147c07a365672a9c3a4d0e988a070ec160747e64736f6c634300080e0033","bytecodeSha1":"e7723d26245c31e83b1a8d6a4a0d2d280c4998df","compiler":{"evm_version":"istanbul","optimizer":{"enabled":true,"runs":200},"version":"0.8.14+commit.80d49f37"},"contractName":"Client","language":"Solidity","natspec":{"kind":"dev","methods":{"constructor":{"notice":"This example uses the LINK token address on Moonbase Alpha. Make sure to update the oracle and jobId."},"fulfill(bytes32,uint256)":{"notice":"Receive the response in the form of uint256"},"requestVolumeData()":{"notice":"Create a Chainlink request to retrieve API response, find the target data, then multiply by 1000000000000000000 (to remove decimal places from data)."}},"version":1},"opcodes":"PUSH1 0x80 PUSH1 0x40 MSTORE CALLVALUE DUP1 ISZERO PUSH2 0x10 JUMPI PUSH1 0x0 DUP1 REVERT JUMPDEST POP PUSH1 0x4 CALLDATASIZE LT PUSH2 0x41 JUMPI PUSH1 0x0 CALLDATALOAD PUSH1 0xE0 SHR DUP1 PUSH4 0x4357855E EQ PUSH2 0x46 JUMPI DUP1 PUSH4 0x6021ABAC EQ PUSH2 0x5B JUMPI DUP1 PUSH4 0xC618A1E4 EQ PUSH2 0x75 JUMPI JUMPDEST PUSH1 0x0 DUP1 REVERT JUMPDEST PUSH2 0x59 PUSH2 0x54 CALLDATASIZE PUSH1 0x4 PUSH2 0x9F9 JUMP JUMPDEST PUSH2 0x7E JUMP JUMPDEST STOP JUMPDEST PUSH2 0x63 PUSH2 0x146 JUMP JUMPDEST PUSH1 0x40 MLOAD SWAP1 DUP2 MSTORE PUSH1 0x20 ADD PUSH1 0x40 MLOAD DUP1 SWAP2 SUB SWAP1 RETURN JUMPDEST PUSH2 0x63 PUSH1 0x9 SLOAD DUP2 JUMP JUMPDEST PUSH1 0x0 DUP3 DUP2 MSTORE PUSH1 0x5 PUSH1 0x20 MSTORE PUSH1 0x40 SWAP1 KECCAK256 SLOAD DUP3 SWAP1 PUSH1 0x1 PUSH1 0x1 PUSH1 0xA0 SHL SUB AND CALLER EQ PUSH2 0xFC JUMPI PUSH1 0x40 MLOAD PUSH3 0x461BCD PUSH1 0xE5 SHL DUP2 MSTORE PUSH1 0x20 PUSH1 0x4 DUP3 ADD MSTORE PUSH1 0x28 PUSH1 0x24 DUP3 ADD MSTORE PUSH32 0x536F75726365206D75737420626520746865206F7261636C65206F6620746865 PUSH1 0x44 DUP3 ADD MSTORE PUSH8 0x81C995C5D595CDD PUSH1 0xC2 SHL PUSH1 0x64 DUP3 ADD MSTORE PUSH1 0x84 ADD JUMPDEST PUSH1 0x40 MLOAD DUP1 SWAP2 SUB SWAP1 REVERT JUMPDEST PUSH1 0x0 DUP2 DUP2 MSTORE PUSH1 0x5 PUSH1 0x20 MSTORE PUSH1 0x40 DUP1 DUP3 KECCAK256 DUP1 SLOAD PUSH1 0x1 PUSH1 0x1 PUSH1 0xA0 SHL SUB NOT AND SWAP1 SSTORE MLOAD DUP3 SWAP2 PUSH32 0x7CC135E0CEBB02C3480AE5D74D377283180A2601F8F644EDF7987B009316C63A SWAP2 LOG2 POP PUSH1 0x9 SSTORE POP JUMP JUMPDEST PUSH1 0x0 DUP1 PUSH2 0x15D PUSH1 0x7 SLOAD ADDRESS PUSH4 0x4357855E PUSH1 0xE0 SHL PUSH2 0x247 JUMP JUMPDEST SWAP1 POP PUSH2 0x19F PUSH1 0x40 MLOAD DUP1 PUSH1 0x40 ADD PUSH1 0x40 MSTORE DUP1 PUSH1 0x3 DUP2 MSTORE PUSH1 0x20 ADD PUSH3 0x19D95D PUSH1 0xEA SHL DUP2 MSTORE POP PUSH1 0x40 MLOAD DUP1 PUSH1 0x80 ADD PUSH1 0x40 MSTORE DUP1 PUSH1 0x45 DUP2 MSTORE PUSH1 0x20 ADD PUSH2 0xCCF PUSH1 0x45 SWAP2 CODECOPY DUP4 SWAP2 SWAP1 PUSH2 0x26C JUMP JUMPDEST PUSH2 0x1F3 PUSH1 0x40 MLOAD DUP1 PUSH1 0x40 ADD PUSH1 0x40 MSTORE DUP1 PUSH1 0x4 DUP2 MSTORE PUSH1 0x20 ADD PUSH4 0xE0C2E8D PUSH1 0xE3 SHL DUP2 MSTORE POP PUSH1 0x40 MLOAD DUP1 PUSH1 0x40 ADD PUSH1 0x40 MSTORE DUP1 PUSH1 0xB DUP2 MSTORE PUSH1 0x20 ADD PUSH11 0x656E657267792D6163756D PUSH1 0xA8 SHL DUP2 MSTORE POP DUP4 PUSH2 0x26C SWAP1 SWAP3 SWAP2 SWAP1 PUSH4 0xFFFFFFFF AND JUMP JUMPDEST PUSH1 0x40 DUP1 MLOAD DUP1 DUP3 ADD SWAP1 SWAP2 MSTORE PUSH1 0x5 DUP2 MSTORE PUSH5 0x74696D6573 PUSH1 0xD8 SHL PUSH1 0x20 DUP3 ADD MSTORE PUSH8 0xDE0B6B3A7640000 SWAP1 PUSH2 0x225 SWAP1 DUP4 SWAP1 DUP4 PUSH2 0x28F JUMP JUMPDEST PUSH1 0x6 SLOAD PUSH1 0x8 SLOAD PUSH2 0x240 SWAP2 PUSH1 0x1 PUSH1 0x1 PUSH1 0xA0 SHL SUB AND SWAP1 DUP5 SWAP1 PUSH2 0x2AD JUMP JUMPDEST SWAP3 POP POP POP SWAP1 JUMP JUMPDEST PUSH2 0x24F PUSH2 0x9BE JUMP JUMPDEST PUSH2 0x257 PUSH2 0x9BE JUMP JUMPDEST PUSH2 0x263 DUP2 DUP7 DUP7 DUP7 PUSH2 0x340 JUMP JUMPDEST SWAP6 SWAP5 POP POP POP POP POP JUMP JUMPDEST PUSH1 0x80 DUP4 ADD MLOAD PUSH2 0x27B SWAP1 DUP4 PUSH2 0x386 JUMP JUMPDEST PUSH1 0x80 DUP4 ADD MLOAD PUSH2 0x28A SWAP1 DUP3 PUSH2 0x386 JUMP JUMPDEST POP POP POP JUMP JUMPDEST PUSH1 0x80 DUP4 ADD MLOAD PUSH2 0x29E SWAP1 DUP4 PUSH2 0x386 JUMP JUMPDEST PUSH1 0x80 DUP4 ADD MLOAD PUSH2 0x28A SWAP1 DUP3 PUSH2 0x39D JUMP JUMPDEST PUSH1 0x4 SLOAD PUSH1 0x0 SWAP1 PUSH2 0x2BE DUP2 PUSH1 0x1 PUSH2 0xA31 JUMP JUMPDEST PUSH1 0x4 SSTORE DUP4 MLOAD PUSH1 0x40 DUP1 DUP7 ADD MLOAD PUSH1 0x80 DUP8 ADD MLOAD MLOAD SWAP2 MLOAD PUSH1 0x0 SWAP4 PUSH4 0x20214CA3 PUSH1 0xE1 SHL SWAP4 PUSH2 0x2F6 SWAP4 DUP7 SWAP4 DUP5 SWAP4 SWAP3 ADDRESS SWAP3 SWAP2 DUP11 SWAP2 PUSH1 0x1 SWAP2 PUSH1 0x24 ADD PUSH2 0xA96 JUMP JUMPDEST PUSH1 0x40 DUP1 MLOAD PUSH1 0x1F NOT DUP2 DUP5 SUB ADD DUP2 MSTORE SWAP2 SWAP1 MSTORE PUSH1 0x20 DUP2 ADD DUP1 MLOAD PUSH1 0x1 PUSH1 0x1 PUSH1 0xE0 SHL SUB AND PUSH1 0x1 PUSH1 0x1 PUSH1 0xE0 SHL SUB NOT SWAP1 SWAP4 AND SWAP3 SWAP1 SWAP3 OR SWAP1 SWAP2 MSTORE SWAP1 POP PUSH2 0x336 DUP7 DUP4 DUP7 DUP5 PUSH2 0x401 JUMP JUMPDEST SWAP7 SWAP6 POP POP POP POP POP POP JUMP JUMPDEST PUSH2 0x348 PUSH2 0x9BE JUMP JUMPDEST PUSH2 0x358 DUP6 PUSH1 0x80 ADD MLOAD PUSH2 0x100 PUSH2 0x55F JUMP JUMPDEST POP POP DUP3 DUP5 MSTORE PUSH1 0x1 PUSH1 0x1 PUSH1 0xA0 SHL SUB DUP3 AND PUSH1 0x20 DUP6 ADD MSTORE PUSH1 0x1 PUSH1 0x1 PUSH1 0xE0 SHL SUB NOT DUP2 AND PUSH1 0x40 DUP6 ADD MSTORE DUP4 JUMPDEST SWAP5 SWAP4 POP POP POP POP JUMP JUMPDEST PUSH2 0x393 DUP3 PUSH1 0x3 DUP4 MLOAD PUSH2 0x5CA JUMP JUMPDEST PUSH2 0x28A DUP3 DUP3 PUSH2 0x6DF JUMP JUMPDEST PUSH8 0xFFFFFFFFFFFFFFFF NOT DUP2 SLT ISZERO PUSH2 0x3BC JUMPI PUSH2 0x3B8 DUP3 DUP3 PUSH2 0x70D JUMP JUMPDEST POP POP JUMP JUMPDEST PUSH8 0xFFFFFFFFFFFFFFFF DUP2 SGT ISZERO PUSH2 0x3D6 JUMPI PUSH2 0x3B8 DUP3 DUP3 PUSH2 0x74F JUMP JUMPDEST PUSH1 0x0 DUP2 SLT PUSH2 0x3EA JUMPI PUSH2 0x3B8 DUP3 PUSH1 0x0 DUP4 PUSH2 0x5CA JUMP JUMPDEST PUSH2 0x3B8 DUP3 PUSH1 0x1 PUSH2 0x3FC DUP5 PUSH1 0x0 NOT PUSH2 0xAFE JUMP JUMPDEST PUSH2 0x5CA JUMP JUMPDEST PUSH1 0x40 MLOAD PUSH12 0xFFFFFFFFFFFFFFFFFFFFFFFF NOT ADDRESS PUSH1 0x60 SHL AND PUSH1 0x20 DUP3 ADD MSTORE PUSH1 0x34 DUP2 ADD DUP5 SWAP1 MSTORE PUSH1 0x0 SWAP1 PUSH1 0x54 ADD PUSH1 0x40 DUP1 MLOAD DUP1 DUP4 SUB PUSH1 0x1F NOT ADD DUP2 MSTORE DUP3 DUP3 MSTORE DUP1 MLOAD PUSH1 0x20 SWAP2 DUP3 ADD KECCAK256 PUSH1 0x0 DUP2 DUP2 MSTORE PUSH1 0x5 SWAP1 SWAP3 MSTORE SWAP2 DUP2 KECCAK256 DUP1 SLOAD PUSH1 0x1 PUSH1 0x1 PUSH1 0xA0 SHL SUB NOT AND PUSH1 0x1 PUSH1 0x1 PUSH1 0xA0 SHL SUB DUP11 AND OR SWAP1 SSTORE SWAP1 SWAP3 POP DUP3 SWAP2 PUSH32 0xB5E6E01E79F91267DC17B4E6314D5D4D03593D2CEEE0FBB452B750BD70EA5AF9 SWAP2 SWAP1 LOG2 PUSH1 0x2 SLOAD PUSH1 0x40 MLOAD PUSH4 0x2000575 PUSH1 0xE5 SHL DUP2 MSTORE PUSH1 0x1 PUSH1 0x1 PUSH1 0xA0 SHL SUB SWAP1 SWAP2 AND SWAP1 PUSH4 0x4000AEA0 SWAP1 PUSH2 0x4C4 SWAP1 DUP9 SWAP1 DUP8 SWAP1 DUP8 SWAP1 PUSH1 0x4 ADD PUSH2 0xB3D JUMP JUMPDEST PUSH1 0x20 PUSH1 0x40 MLOAD DUP1 DUP4 SUB DUP2 PUSH1 0x0 DUP8 GAS CALL ISZERO DUP1 ISZERO PUSH2 0x4E3 JUMPI RETURNDATASIZE PUSH1 0x0 DUP1 RETURNDATACOPY RETURNDATASIZE PUSH1 0x0 REVERT JUMPDEST POP POP POP POP PUSH1 0x40 MLOAD RETURNDATASIZE PUSH1 0x1F NOT PUSH1 0x1F DUP3 ADD AND DUP3 ADD DUP1 PUSH1 0x40 MSTORE POP DUP2 ADD SWAP1 PUSH2 0x507 SWAP2 SWAP1 PUSH2 0xB64 JUMP JUMPDEST PUSH2 0x37E JUMPI PUSH1 0x40 MLOAD PUSH3 0x461BCD PUSH1 0xE5 SHL DUP2 MSTORE PUSH1 0x20 PUSH1 0x4 DUP3 ADD MSTORE PUSH1 0x23 PUSH1 0x24 DUP3 ADD MSTORE PUSH32 0x756E61626C6520746F207472616E73666572416E6443616C6C20746F206F7261 PUSH1 0x44 DUP3 ADD MSTORE PUSH3 0x636C65 PUSH1 0xE8 SHL PUSH1 0x64 DUP3 ADD MSTORE PUSH1 0x84 ADD PUSH2 0xF3 JUMP JUMPDEST PUSH1 0x40 DUP1 MLOAD DUP1 DUP3 ADD SWAP1 SWAP2 MSTORE PUSH1 0x60 DUP2 MSTORE PUSH1 0x0 PUSH1 0x20 DUP3 ADD MSTORE PUSH2 0x57F PUSH1 0x20 DUP4 PUSH2 0xB86 JUMP JUMPDEST ISZERO PUSH2 0x5A7 JUMPI PUSH2 0x58F PUSH1 0x20 DUP4 PUSH2 0xB86 JUMP JUMPDEST PUSH2 0x59A SWAP1 PUSH1 0x20 PUSH2 0xBA8 JUMP JUMPDEST PUSH2 0x5A4 SWAP1 DUP4 PUSH2 0xA31 JUMP JUMPDEST SWAP2 POP JUMPDEST POP PUSH1 0x20 DUP1 DUP4 ADD DUP3 SWAP1 MSTORE PUSH1 0x40 DUP1 MLOAD DUP1 DUP6 MSTORE PUSH1 0x0 DUP2 MSTORE DUP4 ADD SWAP1 SWAP2 ADD SWAP1 MSTORE DUP2 JUMPDEST SWAP3 SWAP2 POP POP JUMP JUMPDEST PUSH1 0x17 DUP2 PUSH8 0xFFFFFFFFFFFFFFFF AND GT PUSH2 0x5F5 JUMPI PUSH2 0x5EF DUP4 PUSH1 0xE0 PUSH1 0x5 DUP6 SWAP1 SHL AND DUP4 OR PUSH2 0x772 JUMP JUMPDEST POP POP POP POP JUMP JUMPDEST PUSH1 0xFF DUP2 PUSH8 0xFFFFFFFFFFFFFFFF AND GT PUSH2 0x633 JUMPI PUSH2 0x61C DUP4 PUSH1 0x18 PUSH2 0x1FE0 PUSH1 0x5 DUP7 SWAP1 SHL AND OR PUSH2 0x772 JUMP JUMPDEST POP PUSH2 0x5EF DUP4 PUSH8 0xFFFFFFFFFFFFFFFF DUP4 AND PUSH1 0x1 PUSH2 0x797 JUMP JUMPDEST PUSH2 0xFFFF DUP2 PUSH8 0xFFFFFFFFFFFFFFFF AND GT PUSH2 0x672 JUMPI PUSH2 0x65B DUP4 PUSH1 0x19 PUSH2 0x1FE0 PUSH1 0x5 DUP7 SWAP1 SHL AND OR PUSH2 0x772 JUMP JUMPDEST POP PUSH2 0x5EF DUP4 PUSH8 0xFFFFFFFFFFFFFFFF DUP4 AND PUSH1 0x2 PUSH2 0x797 JUMP JUMPDEST PUSH4 0xFFFFFFFF DUP2 PUSH8 0xFFFFFFFFFFFFFFFF AND GT PUSH2 0x6B3 JUMPI PUSH2 0x69C DUP4 PUSH1 0x1A PUSH2 0x1FE0 PUSH1 0x5 DUP7 SWAP1 SHL AND OR PUSH2 0x772 JUMP JUMPDEST POP PUSH2 0x5EF DUP4 PUSH8 0xFFFFFFFFFFFFFFFF DUP4 AND PUSH1 0x4 PUSH2 0x797 JUMP JUMPDEST PUSH2 0x6C8 DUP4 PUSH1 0x1B PUSH2 0x1FE0 PUSH1 0x5 DUP7 SWAP1 SHL AND OR PUSH2 0x772 JUMP JUMPDEST POP PUSH2 0x5EF DUP4 PUSH8 0xFFFFFFFFFFFFFFFF DUP4 AND PUSH1 0x8 PUSH2 0x797 JUMP JUMPDEST PUSH1 0x40 DUP1 MLOAD DUP1 DUP3 ADD SWAP1 SWAP2 MSTORE PUSH1 0x60 DUP2 MSTORE PUSH1 0x0 PUSH1 0x20 DUP3 ADD MSTORE PUSH2 0x706 DUP4 DUP5 PUSH1 0x0 ADD MLOAD MLOAD DUP5 DUP6 MLOAD PUSH2 0x7BD JUMP JUMPDEST SWAP4 SWAP3 POP POP POP JUMP JUMPDEST PUSH2 0x718 DUP3 PUSH1 0xC3 PUSH2 0x772 JUMP JUMPDEST POP PUSH2 0x3B8 DUP3 PUSH2 0x729 DUP4 PUSH1 0x0 NOT PUSH2 0xAFE JUMP JUMPDEST PUSH1 0x40 MLOAD PUSH1 0x20 ADD PUSH2 0x73B SWAP2 DUP2 MSTORE PUSH1 0x20 ADD SWAP1 JUMP JUMPDEST PUSH1 0x40 MLOAD PUSH1 0x20 DUP2 DUP4 SUB SUB DUP2 MSTORE SWAP1 PUSH1 0x40 MSTORE PUSH2 0x8A7 JUMP JUMPDEST PUSH2 0x75A DUP3 PUSH1 0xC2 PUSH2 0x772 JUMP JUMPDEST POP PUSH2 0x3B8 DUP3 DUP3 PUSH1 0x40 MLOAD PUSH1 0x20 ADD PUSH2 0x73B SWAP2 DUP2 MSTORE PUSH1 0x20 ADD SWAP1 JUMP JUMPDEST PUSH1 0x40 DUP1 MLOAD DUP1 DUP3 ADD SWAP1 SWAP2 MSTORE PUSH1 0x60 DUP2 MSTORE PUSH1 0x0 PUSH1 0x20 DUP3 ADD MSTORE PUSH2 0x706 DUP4 DUP5 PUSH1 0x0 ADD MLOAD MLOAD DUP5 PUSH2 0x8B4 JUMP JUMPDEST PUSH1 0x40 DUP1 MLOAD DUP1 DUP3 ADD SWAP1 SWAP2 MSTORE PUSH1 0x60 DUP2 MSTORE PUSH1 0x0 PUSH1 0x20 DUP3 ADD MSTORE PUSH2 0x37E DUP5 DUP6 PUSH1 0x0 ADD MLOAD MLOAD DUP6 DUP6 PUSH2 0x90F JUMP JUMPDEST PUSH1 0x40 DUP1 MLOAD DUP1 DUP3 ADD SWAP1 SWAP2 MSTORE PUSH1 0x60 DUP2 MSTORE PUSH1 0x0 PUSH1 0x20 DUP3 ADD MSTORE DUP3 MLOAD DUP3 GT ISZERO PUSH2 0x7E0 JUMPI PUSH1 0x0 DUP1 REVERT JUMPDEST PUSH1 0x20 DUP6 ADD MLOAD PUSH2 0x7EF DUP4 DUP7 PUSH2 0xA31 JUMP JUMPDEST GT ISZERO PUSH2 0x822 JUMPI PUSH2 0x822 DUP6 PUSH2 0x812 DUP8 PUSH1 0x20 ADD MLOAD DUP8 DUP7 PUSH2 0x80D SWAP2 SWAP1 PUSH2 0xA31 JUMP JUMPDEST PUSH2 0x990 JUMP JUMPDEST PUSH2 0x81D SWAP1 PUSH1 0x2 PUSH2 0xBBF JUMP JUMPDEST PUSH2 0x9A7 JUMP JUMPDEST PUSH1 0x0 DUP1 DUP7 MLOAD DUP1 MLOAD DUP8 PUSH1 0x20 DUP4 ADD ADD SWAP4 POP DUP1 DUP9 DUP8 ADD GT ISZERO PUSH2 0x841 JUMPI DUP8 DUP7 ADD DUP3 MSTORE JUMPDEST POP POP POP PUSH1 0x20 DUP5 ADD JUMPDEST PUSH1 0x20 DUP5 LT PUSH2 0x881 JUMPI DUP1 MLOAD DUP3 MSTORE PUSH2 0x860 PUSH1 0x20 DUP4 PUSH2 0xA31 JUMP JUMPDEST SWAP2 POP PUSH2 0x86D PUSH1 0x20 DUP3 PUSH2 0xA31 JUMP JUMPDEST SWAP1 POP PUSH2 0x87A PUSH1 0x20 DUP6 PUSH2 0xBA8 JUMP JUMPDEST SWAP4 POP PUSH2 0x849 JUMP JUMPDEST MLOAD DUP2 MLOAD PUSH1 0x0 NOT PUSH1 0x20 DUP7 SWAP1 SUB PUSH2 0x100 EXP ADD SWAP1 DUP2 AND SWAP1 NOT SWAP2 SWAP1 SWAP2 AND OR SWAP1 MSTORE POP DUP4 SWAP5 SWAP4 POP POP POP POP JUMP JUMPDEST PUSH2 0x393 DUP3 PUSH1 0x2 DUP4 MLOAD PUSH2 0x5CA JUMP JUMPDEST PUSH1 0x40 DUP1 MLOAD DUP1 DUP3 ADD SWAP1 SWAP2 MSTORE PUSH1 0x60 DUP2 MSTORE PUSH1 0x0 PUSH1 0x20 DUP3 ADD MSTORE DUP4 PUSH1 0x20 ADD MLOAD DUP4 LT PUSH2 0x8E9 JUMPI PUSH2 0x8E9 DUP5 DUP6 PUSH1 0x20 ADD MLOAD PUSH1 0x2 PUSH2 0x81D SWAP2 SWAP1 PUSH2 0xBBF JUMP JUMPDEST DUP4 MLOAD DUP1 MLOAD PUSH1 0x20 DUP6 DUP4 ADD ADD DUP5 DUP2 MSTORE8 POP DUP1 DUP6 SUB PUSH2 0x905 JUMPI PUSH1 0x1 DUP2 ADD DUP3 MSTORE JUMPDEST POP SWAP4 SWAP5 SWAP4 POP POP POP POP JUMP JUMPDEST PUSH1 0x40 DUP1 MLOAD DUP1 DUP3 ADD SWAP1 SWAP2 MSTORE PUSH1 0x60 DUP2 MSTORE PUSH1 0x0 PUSH1 0x20 DUP3 ADD MSTORE PUSH1 0x20 DUP6 ADD MLOAD PUSH2 0x933 DUP6 DUP5 PUSH2 0xA31 JUMP JUMPDEST GT ISZERO PUSH2 0x947 JUMPI PUSH2 0x947 DUP6 PUSH2 0x812 DUP7 DUP6 PUSH2 0xA31 JUMP JUMPDEST PUSH1 0x0 PUSH1 0x1 PUSH2 0x957 DUP5 PUSH2 0x100 PUSH2 0xCC2 JUMP JUMPDEST PUSH2 0x961 SWAP2 SWAP1 PUSH2 0xBA8 JUMP JUMPDEST SWAP1 POP DUP6 MLOAD DUP4 DUP7 DUP3 ADD ADD DUP6 DUP4 NOT DUP3 MLOAD AND OR DUP2 MSTORE POP DUP1 MLOAD DUP5 DUP8 ADD GT ISZERO PUSH2 0x985 JUMPI DUP4 DUP7 ADD DUP2 MSTORE JUMPDEST POP SWAP5 SWAP6 SWAP5 POP POP POP POP POP JUMP JUMPDEST PUSH1 0x0 DUP2 DUP4 GT ISZERO PUSH2 0x9A1 JUMPI POP DUP2 PUSH2 0x5C4 JUMP JUMPDEST POP SWAP2 SWAP1 POP JUMP JUMPDEST DUP2 MLOAD PUSH2 0x9B3 DUP4 DUP4 PUSH2 0x55F JUMP JUMPDEST POP PUSH2 0x5EF DUP4 DUP3 PUSH2 0x6DF JUMP JUMPDEST PUSH1 0x40 DUP1 MLOAD PUSH1 0xA0 DUP2 ADD DUP3 MSTORE PUSH1 0x0 DUP1 DUP3 MSTORE PUSH1 0x20 DUP1 DUP4 ADD DUP3 SWAP1 MSTORE DUP3 DUP5 ADD DUP3 SWAP1 MSTORE PUSH1 0x60 DUP1 DUP5 ADD DUP4 SWAP1 MSTORE DUP5 MLOAD DUP1 DUP7 ADD SWAP1 SWAP6 MSTORE DUP5 MSTORE DUP4 ADD MSTORE SWAP1 PUSH1 0x80 DUP3 ADD MSTORE SWAP1 JUMP JUMPDEST PUSH1 0x0 DUP1 PUSH1 0x40 DUP4 DUP6 SUB SLT ISZERO PUSH2 0xA0C JUMPI PUSH1 0x0 DUP1 REVERT JUMPDEST POP POP DUP1 CALLDATALOAD SWAP3 PUSH1 0x20 SWAP1 SWAP2 ADD CALLDATALOAD SWAP2 POP JUMP JUMPDEST PUSH4 0x4E487B71 PUSH1 0xE0 SHL PUSH1 0x0 MSTORE PUSH1 0x11 PUSH1 0x4 MSTORE PUSH1 0x24 PUSH1 0x0 REVERT JUMPDEST PUSH1 0x0 DUP3 NOT DUP3 GT ISZERO PUSH2 0xA44 JUMPI PUSH2 0xA44 PUSH2 0xA1B JUMP JUMPDEST POP ADD SWAP1 JUMP JUMPDEST PUSH1 0x0 DUP2 MLOAD DUP1 DUP5 MSTORE PUSH1 0x0 JUMPDEST DUP2 DUP2 LT ISZERO PUSH2 0xA6F JUMPI PUSH1 0x20 DUP2 DUP6 ADD DUP2 ADD MLOAD DUP7 DUP4 ADD DUP3 ADD MSTORE ADD PUSH2 0xA53 JUMP JUMPDEST DUP2 DUP2 GT ISZERO PUSH2 0xA81 JUMPI PUSH1 0x0 PUSH1 0x20 DUP4 DUP8 ADD ADD MSTORE JUMPDEST POP PUSH1 0x1F ADD PUSH1 0x1F NOT AND SWAP3 SWAP1 SWAP3 ADD PUSH1 0x20 ADD SWAP3 SWAP2 POP POP JUMP JUMPDEST PUSH1 0x1 PUSH1 0x1 PUSH1 0xA0 SHL SUB DUP10 DUP2 AND DUP3 MSTORE PUSH1 0x20 DUP3 ADD DUP10 SWAP1 MSTORE PUSH1 0x40 DUP3 ADD DUP9 SWAP1 MSTORE DUP7 AND PUSH1 0x60 DUP3 ADD MSTORE PUSH1 0x1 PUSH1 0x1 PUSH1 0xE0 SHL SUB NOT DUP6 AND PUSH1 0x80 DUP3 ADD MSTORE PUSH1 0xA0 DUP2 ADD DUP5 SWAP1 MSTORE PUSH1 0xC0 DUP2 ADD DUP4 SWAP1 MSTORE PUSH2 0x100 PUSH1 0xE0 DUP3 ADD DUP2 SWAP1 MSTORE PUSH1 0x0 SWAP1 PUSH2 0xAEF DUP4 DUP3 ADD DUP6 PUSH2 0xA49 JUMP JUMPDEST SWAP12 SWAP11 POP POP POP POP POP POP POP POP POP POP POP JUMP JUMPDEST PUSH1 0x0 DUP1 DUP4 SLT DUP1 ISZERO PUSH1 0x1 PUSH1 0xFF SHL DUP6 ADD DUP5 SLT AND ISZERO PUSH2 0xB1C JUMPI PUSH2 0xB1C PUSH2 0xA1B JUMP JUMPDEST PUSH1 0x1 PUSH1 0x1 PUSH1 0xFF SHL SUB DUP5 ADD DUP4 SGT DUP2 AND ISZERO PUSH2 0xB37 JUMPI PUSH2 0xB37 PUSH2 0xA1B JUMP JUMPDEST POP POP SUB SWAP1 JUMP JUMPDEST PUSH1 0x1 DUP1 PUSH1 0xA0 SHL SUB DUP5 AND DUP2 MSTORE DUP3 PUSH1 0x20 DUP3 ADD MSTORE PUSH1 0x60 PUSH1 0x40 DUP3 ADD MSTORE PUSH1 0x0 PUSH2 0x263 PUSH1 0x60 DUP4 ADD DUP5 PUSH2 0xA49 JUMP JUMPDEST PUSH1 0x0 PUSH1 0x20 DUP3 DUP5 SUB SLT ISZERO PUSH2 0xB76 JUMPI PUSH1 0x0 DUP1 REVERT JUMPDEST DUP2 MLOAD DUP1 ISZERO ISZERO DUP2 EQ PUSH2 0x706 JUMPI PUSH1 0x0 DUP1 REVERT JUMPDEST PUSH1 0x0 DUP3 PUSH2 0xBA3 JUMPI PUSH4 0x4E487B71 PUSH1 0xE0 SHL PUSH1 0x0 MSTORE PUSH1 0x12 PUSH1 0x4 MSTORE PUSH1 0x24 PUSH1 0x0 REVERT JUMPDEST POP MOD SWAP1 JUMP JUMPDEST PUSH1 0x0 DUP3 DUP3 LT ISZERO PUSH2 0xBBA JUMPI PUSH2 0xBBA PUSH2 0xA1B JUMP JUMPDEST POP SUB SWAP1 JUMP JUMPDEST PUSH1 0x0 DUP2 PUSH1 0x0 NOT DIV DUP4 GT DUP3 ISZERO ISZERO AND ISZERO PUSH2 0xBD9 JUMPI PUSH2 0xBD9 PUSH2 0xA1B JUMP JUMPDEST POP MUL SWAP1 JUMP JUMPDEST PUSH1 0x1 DUP2 DUP2 JUMPDEST DUP1 DUP6 GT ISZERO PUSH2 0xC19 JUMPI DUP2 PUSH1 0x0 NOT DIV DUP3 GT ISZERO PUSH2 0xBFF JUMPI PUSH2 0xBFF PUSH2 0xA1B JUMP JUMPDEST DUP1 DUP6 AND ISZERO PUSH2 0xC0C JUMPI SWAP2 DUP2 MUL SWAP2 JUMPDEST SWAP4 DUP5 SHR SWAP4 SWAP1 DUP1 MUL SWAP1 PUSH2 0xBE3 JUMP JUMPDEST POP SWAP3 POP SWAP3 SWAP1 POP JUMP JUMPDEST PUSH1 0x0 DUP3 PUSH2 0xC30 JUMPI POP PUSH1 0x1 PUSH2 0x5C4 JUMP JUMPDEST DUP2 PUSH2 0xC3D JUMPI POP PUSH1 0x0 PUSH2 0x5C4 JUMP JUMPDEST DUP2 PUSH1 0x1 DUP2 EQ PUSH2 0xC53 JUMPI PUSH1 0x2 DUP2 EQ PUSH2 0xC5D JUMPI PUSH2 0xC79 JUMP JUMPDEST PUSH1 0x1 SWAP2 POP POP PUSH2 0x5C4 JUMP JUMPDEST PUSH1 0xFF DUP5 GT ISZERO PUSH2 0xC6E JUMPI PUSH2 0xC6E PUSH2 0xA1B JUMP JUMPDEST POP POP PUSH1 0x1 DUP3 SHL PUSH2 0x5C4 JUMP JUMPDEST POP PUSH1 0x20 DUP4 LT PUSH2 0x133 DUP4 LT AND PUSH1 0x4E DUP5 LT PUSH1 0xB DUP5 LT AND OR ISZERO PUSH2 0xC9C JUMPI POP DUP2 DUP2 EXP PUSH2 0x5C4 JUMP JUMPDEST PUSH2 0xCA6 DUP4 DUP4 PUSH2 0xBDE JUMP JUMPDEST DUP1 PUSH1 0x0 NOT DIV DUP3 GT ISZERO PUSH2 0xCBA JUMPI PUSH2 0xCBA PUSH2 0xA1B JUMP JUMPDEST MUL SWAP4 SWAP3 POP POP POP JUMP JUMPDEST PUSH1 0x0 PUSH2 0x706 DUP4 DUP4 PUSH2 0xC21 JUMP INVALID PUSH9 0x7474703A2F2F647265 PUSH25 0x2D656E762E6562612D6A6B7875797162712E75732D65617374 0x2D BALANCE 0x2E PUSH6 0x6C6173746963 PUSH3 0x65616E PUSH20 0x74616C6B2E636F6D2F677269642F6C617374A264 PUSH10 0x70667358221220BCAF1D JUMPI NOT 0xE5 0xCF EQ OR SWAP10 DUP2 SWAP6 CODECOPY EQ PUSH29 0x7A365672A9C3A4D0E988A070EC160747E64736F6C634300080E003300 ","sha1":"5220b14514167b8d8850608fd191ac4cb714b943","source":"// SPDX-License-Identifier: GPL-3.0\n\npragma solidity ^0.8.7;\n\nimport \"@Chainlink/contracts/src/v0.8/ChainlinkClient.sol\";\n\ncontract Client is ChainlinkClient {\n    using Chainlink for Chainlink.Request;\n\n    address private oracle;\n    bytes32 private jobId;\n    uint256 private fee;\n    uint256 public volume;\n\n    /**\n    This example uses the LINK token address on Moonbase Alpha.\n    Make sure to update the oracle and jobId.\n    */\n    constructor() {\n        setChainlinkToken(address(0xa36085F69e2889c224210F603D836748e7dC0088));\n        oracle = 0x5e609E1c258255ef9Ee2022a519aBf5b9Fe1afe2;\n        jobId = \"cdc698f82bb44716ad4e9a57f10c6357\";\n        fee = 0;\n    }\n\n    /**\n     * Create a Chainlink request to retrieve API response, find the target\n     * data, then multiply by 1000000000000000000 (to remove decimal places from data).\n     */\n    function requestVolumeData() public returns (bytes32 requestId) {\n        Chainlink.Request memory request = buildChainlinkRequest(\n            jobId,\n            address(this),\n            this.fulfill.selector\n        );\n\n        // Set the URL to perform the GET request on\n        request.add(\n            \"get\",\n            \"http://drex-env.eba-jkxuyqbq.us-east-1.elasticbeanstalk.com/grid/last\"\n        );\n\n        // Set the path to find the desired data in the API response, where the response format is:\n        request.add(\"path\", \"energy-acum\");\n\n        // Multiply the result by 1000000000000000000 to remove decimals\n        int256 timesAmount = 10**18;\n        request.addInt(\"times\", timesAmount);\n\n        // Sends the request\n        return sendChainlinkRequestTo(oracle, request, fee);\n    }\n\n    /**\n     * Receive the response in the form of uint256\n     */\n    function fulfill(bytes32 _requestId, uint256 _volume)\n        public\n        recordChainlinkFulfillment(_requestId)\n    {\n        volume = _volume;\n    }\n}\n","sourcePath":"contracts/DrexApi.sol","type":"contract","deployment":{"address":"0x5045d0381355aa33eBd374BfaDdD44d6B2e4D6f8","chainid":"1287","blockHeight":3166348}}