{"bytecode":"6080604052600160045534801561001557600080fd5b50604051610fe6380380610fe6833981016040819052610034916100f3565b600280546001600160a01b03191673a36085f69e2889c224210f603d836748e7dc00881790556006805473d4d9ac4ecf5ddf18056ce6a91d0a8e7b0c910cce6001600160a01b0319918216179091557f373961626331653336626533343061363937653262343964643264383637393860075560006008819055600a805483166001600160a01b03958616179055600b805490921692909316919091179055600c5561012d565b6001600160a01b03811681146100f057600080fd5b50565b6000806040838503121561010657600080fd5b8251610111816100db565b6020840151909250610122816100db565b809150509250929050565b610eaa8061013c6000396000f3fe608060405234801561001057600080fd5b50600436106100625760003560e01c80634357855e14610067578063483566311461007c578063a14aa51114610097578063c618a1e4146100a0578063c8c92ea6146100a9578063fcdcdeee146100d4575b600080fd5b61007a610075366004610b4e565b6100e7565b005b610084610294565b6040519081526020015b60405180910390f35b610084600c5481565b61008460095481565b600b546100bc906001600160a01b031681565b6040516001600160a01b03909116815260200161008e565b600a546100bc906001600160a01b031681565b60008281526005602052604090205482906001600160a01b031633146101655760405162461bcd60e51b815260206004820152602860248201527f536f75726365206d75737420626520746865206f7261636c65206f6620746865604482015267081c995c5d595cdd60c21b60648201526084015b60405180910390fd5b60008181526005602052604080822080546001600160a01b03191690555182917f7cc135e0cebb02c3480ae5d74d377283180a2601f8f644edf7987b009316c63a91a26009829055600c546000906101bd9084610b86565b600954600c55600a54600b54604051635bf6fa8960e01b81526001600160a01b0392831660048201819052602482018590529394509116908190635bf6fa8990604401600060405180830381600087803b15801561021a57600080fd5b505af115801561022e573d6000803e3d6000fd5b5050604051638a77409160e01b8152600481018690526001600160a01b0385169250638a7740919150602401600060405180830381600087803b15801561027457600080fd5b505af1158015610288573d6000803e3d6000fd5b50505050505050505050565b6000806102ab60075430634357855e60e01b61039c565b90506102ed6040518060400160405280600381526020016219d95d60ea1b815250604051806080016040528060518152602001610e24605191398391906103c1565b610348604051806040016040528060048152602001630e0c2e8d60e31b81525060405180604001604052806012815260200171195b995c99de4b5858d8dd5b5d5b185d195960721b815250836103c19092919063ffffffff16565b60408051808201909152600581526474696d657360d81b6020820152670de0b6b3a76400009061037a908390836103e4565b600654600854610395916001600160a01b0316908490610402565b9250505090565b6103a4610b13565b6103ac610b13565b6103b881868686610495565b95945050505050565b60808301516103d090836104db565b60808301516103df90826104db565b505050565b60808301516103f390836104db565b60808301516103df90826104f2565b600454600090610413816001610b9d565b600455835160408086015160808701515191516000936320214ca360e11b9361044b9386938493923092918a91600191602401610c02565b60408051601f198184030181529190526020810180516001600160e01b03166001600160e01b031990931692909217909152905061048b86838684610556565b9695505050505050565b61049d610b13565b6104ad85608001516101006106b4565b50508284526001600160a01b03821660208501526001600160e01b031981166040850152835b949350505050565b6104e8826003835161071f565b6103df8282610834565b67ffffffffffffffff198112156105115761050d8282610862565b5050565b67ffffffffffffffff81131561052b5761050d82826108a4565b6000811261053f5761050d8260008361071f565b61050d82600161055184600019610c6a565b61071f565b6040516bffffffffffffffffffffffff193060601b1660208201526034810184905260009060540160408051808303601f1901815282825280516020918201206000818152600590925291812080546001600160a01b0319166001600160a01b038a1617905590925082917fb5e6e01e79f91267dc17b4e6314d5d4d03593d2ceee0fbb452b750bd70ea5af99190a2600254604051630200057560e51b81526001600160a01b0390911690634000aea09061061990889087908790600401610ca9565b6020604051808303816000875af1158015610638573d6000803e3d6000fd5b505050506040513d601f19601f8201168201806040525081019061065c9190610cd0565b6104d35760405162461bcd60e51b815260206004820152602360248201527f756e61626c6520746f207472616e73666572416e6443616c6c20746f206f7261604482015262636c6560e81b606482015260840161015c565b6040805180820190915260608152600060208201526106d4602083610cf2565b156106fc576106e4602083610cf2565b6106ef906020610b86565b6106f99083610b9d565b91505b506020808301829052604080518085526000815283019091019052815b92915050565b60178167ffffffffffffffff161161074a576107448360e0600585901b1683176108c7565b50505050565b60ff8167ffffffffffffffff161161078857610771836018611fe0600586901b16176108c7565b506107448367ffffffffffffffff831660016108ec565b61ffff8167ffffffffffffffff16116107c7576107b0836019611fe0600586901b16176108c7565b506107448367ffffffffffffffff831660026108ec565b63ffffffff8167ffffffffffffffff1611610808576107f183601a611fe0600586901b16176108c7565b506107448367ffffffffffffffff831660046108ec565b61081d83601b611fe0600586901b16176108c7565b506107448367ffffffffffffffff831660086108ec565b60408051808201909152606081526000602082015261085b83846000015151848551610912565b9392505050565b61086d8260c36108c7565b5061050d8261087e83600019610c6a565b60405160200161089091815260200190565b6040516020818303038152906040526109fc565b6108af8260c26108c7565b5061050d828260405160200161089091815260200190565b60408051808201909152606081526000602082015261085b8384600001515184610a09565b6040805180820190915260608152600060208201526104d3848560000151518585610a64565b604080518082019091526060815260006020820152825182111561093557600080fd5b60208501516109448386610b9d565b11156109775761097785610967876020015187866109629190610b9d565b610ae5565b610972906002610d14565b610afc565b6000808651805187602083010193508088870111156109965787860182525b505050602084015b602084106109d657805182526109b5602083610b9d565b91506109c2602082610b9d565b90506109cf602085610b86565b935061099e565b51815160001960208690036101000a019081169019919091161790525083949350505050565b6104e8826002835161071f565b60408051808201909152606081526000602082015283602001518310610a3e57610a3e84856020015160026109729190610d14565b8351805160208583010184815350808503610a5a576001810182525b5093949350505050565b6040805180820190915260608152600060208201526020850151610a888584610b9d565b1115610a9c57610a9c856109678685610b9d565b60006001610aac84610100610e17565b610ab69190610b86565b9050855183868201018583198251161781525080518487011115610ada5783860181525b509495945050505050565b600081831115610af6575081610719565b50919050565b8151610b0883836106b4565b506107448382610834565b6040805160a0810182526000808252602080830182905282840182905260608084018390528451808601909552845283015290608082015290565b60008060408385031215610b6157600080fd5b50508035926020909101359150565b634e487b7160e01b600052601160045260246000fd5b600082821015610b9857610b98610b70565b500390565b60008219821115610bb057610bb0610b70565b500190565b6000815180845260005b81811015610bdb57602081850181015186830182015201610bbf565b81811115610bed576000602083870101525b50601f01601f19169290920160200192915050565b6001600160a01b0389811682526020820189905260408201889052861660608201526001600160e01b03198516608082015260a0810184905260c0810183905261010060e08201819052600090610c5b83820185610bb5565b9b9a5050505050505050505050565b60008083128015600160ff1b850184121615610c8857610c88610b70565b6001600160ff1b0384018313811615610ca357610ca3610b70565b50500390565b60018060a01b03841681528260208201526060604082015260006103b86060830184610bb5565b600060208284031215610ce257600080fd5b8151801515811461085b57600080fd5b600082610d0f57634e487b7160e01b600052601260045260246000fd5b500690565b6000816000190483118215151615610d2e57610d2e610b70565b500290565b600181815b80851115610d6e578160001904821115610d5457610d54610b70565b80851615610d6157918102915b93841c9390800290610d38565b509250929050565b600082610d8557506001610719565b81610d9257506000610719565b8160018114610da85760028114610db257610dce565b6001915050610719565b60ff841115610dc357610dc3610b70565b50506001821b610719565b5060208310610133831016604e8410600b8410161715610df1575081810a610719565b610dfb8383610d33565b8060001904821115610e0f57610e0f610b70565b029392505050565b600061085b8383610d7656fe687474703a2f2f64726578616c6c2d656e762e6562612d65336d6e6e6d36392e75732d656173742d312e656c61737469636265616e7374616c6b2e636f6d2f677269642f6c6173743f636f64653d4c494da26469706673582212205af5dba2fa84c0c65c10434d7dc521e08070ea81a4b05c3e8d724fa162de741064736f6c634300080e0033","bytecodeSha1":"9155dad23862af55fdb52446eccb20b0b5fb4cd8","type":"contract","abi":[{"inputs":[{"internalType":"address payable","name":"nft_address","type":"address"},{"internalType":"address","name":"erc20_address","type":"address"}],"stateMutability":"nonpayable","type":"constructor","name":"constructor"},{"anonymous":false,"inputs":[{"indexed":true,"internalType":"bytes32","name":"id","type":"bytes32"}],"name":"ChainlinkCancelled","type":"event"},{"anonymous":false,"inputs":[{"indexed":true,"internalType":"bytes32","name":"id","type":"bytes32"}],"name":"ChainlinkFulfilled","type":"event"},{"anonymous":false,"inputs":[{"indexed":true,"internalType":"bytes32","name":"id","type":"bytes32"}],"name":"ChainlinkRequested","type":"event"},{"inputs":[],"name":"curr_volume","outputs":[{"internalType":"uint256","name":"","type":"uint256"}],"stateMutability":"view","type":"function"},{"inputs":[],"name":"drex_token_contract","outputs":[{"internalType":"address","name":"","type":"address"}],"stateMutability":"view","type":"function"},{"inputs":[{"internalType":"bytes32","name":"_requestId","type":"bytes32"},{"internalType":"uint256","name":"_volume","type":"uint256"}],"name":"fulfill","outputs":[],"stateMutability":"nonpayable","type":"function"},{"inputs":[],"name":"nft_contract","outputs":[{"internalType":"address payable","name":"","type":"address"}],"stateMutability":"view","type":"function"},{"inputs":[],"name":"request_sensor_data","outputs":[{"internalType":"bytes32","name":"requestId","type":"bytes32"}],"stateMutability":"nonpayable","type":"function"},{"inputs":[],"name":"volume","outputs":[{"internalType":"uint256","name":"","type":"uint256"}],"stateMutability":"view","type":"function"}],"compiler":{"version":"0.8.14+commit.80d49f37","evm_version":"istanbul","optimizer":{"enabled":true,"runs":200}},"contractName":"Client","language":"Solidity","natspec":{"methods":{"request_sensor_data()":{"notice":"Create a Chainlink request to retrieve API response, find the target data, then multiply by 1000000000000000000 (to remove decimal places from data)."},"constructor":{"notice":"This example uses the LINK token address on Moonbase Alpha. Make sure to update the oracle and jobId."},"fulfill(bytes32,uint256)":{"notice":"Receive the response in the form of uint256"}},"kind":"dev","version":1},"opcodes":"PUSH1 0x80 PUSH1 0x40 MSTORE CALLVALUE DUP1 ISZERO PUSH2 0x10 JUMPI PUSH1 0x0 DUP1 REVERT JUMPDEST POP PUSH1 0x4 CALLDATASIZE LT PUSH2 0x62 JUMPI PUSH1 0x0 CALLDATALOAD PUSH1 0xE0 SHR DUP1 PUSH4 0x4357855E EQ PUSH2 0x67 JUMPI DUP1 PUSH4 0x48356631 EQ PUSH2 0x7C JUMPI DUP1 PUSH4 0xA14AA511 EQ PUSH2 0x97 JUMPI DUP1 PUSH4 0xC618A1E4 EQ PUSH2 0xA0 JUMPI DUP1 PUSH4 0xC8C92EA6 EQ PUSH2 0xA9 JUMPI DUP1 PUSH4 0xFCDCDEEE EQ PUSH2 0xD4 JUMPI JUMPDEST PUSH1 0x0 DUP1 REVERT JUMPDEST PUSH2 0x7A PUSH2 0x75 CALLDATASIZE PUSH1 0x4 PUSH2 0xB4E JUMP JUMPDEST PUSH2 0xE7 JUMP JUMPDEST STOP JUMPDEST PUSH2 0x84 PUSH2 0x294 JUMP JUMPDEST PUSH1 0x40 MLOAD SWAP1 DUP2 MSTORE PUSH1 0x20 ADD JUMPDEST PUSH1 0x40 MLOAD DUP1 SWAP2 SUB SWAP1 RETURN JUMPDEST PUSH2 0x84 PUSH1 0xC SLOAD DUP2 JUMP JUMPDEST PUSH2 0x84 PUSH1 0x9 SLOAD DUP2 JUMP JUMPDEST PUSH1 0xB SLOAD PUSH2 0xBC SWAP1 PUSH1 0x1 PUSH1 0x1 PUSH1 0xA0 SHL SUB AND DUP2 JUMP JUMPDEST PUSH1 0x40 MLOAD PUSH1 0x1 PUSH1 0x1 PUSH1 0xA0 SHL SUB SWAP1 SWAP2 AND DUP2 MSTORE PUSH1 0x20 ADD PUSH2 0x8E JUMP JUMPDEST PUSH1 0xA SLOAD PUSH2 0xBC SWAP1 PUSH1 0x1 PUSH1 0x1 PUSH1 0xA0 SHL SUB AND DUP2 JUMP JUMPDEST PUSH1 0x0 DUP3 DUP2 MSTORE PUSH1 0x5 PUSH1 0x20 MSTORE PUSH1 0x40 SWAP1 KECCAK256 SLOAD DUP3 SWAP1 PUSH1 0x1 PUSH1 0x1 PUSH1 0xA0 SHL SUB AND CALLER EQ PUSH2 0x165 JUMPI PUSH1 0x40 MLOAD PUSH3 0x461BCD PUSH1 0xE5 SHL DUP2 MSTORE PUSH1 0x20 PUSH1 0x4 DUP3 ADD MSTORE PUSH1 0x28 PUSH1 0x24 DUP3 ADD MSTORE PUSH32 0x536F75726365206D75737420626520746865206F7261636C65206F6620746865 PUSH1 0x44 DUP3 ADD MSTORE PUSH8 0x81C995C5D595CDD PUSH1 0xC2 SHL PUSH1 0x64 DUP3 ADD MSTORE PUSH1 0x84 ADD JUMPDEST PUSH1 0x40 MLOAD DUP1 SWAP2 SUB SWAP1 REVERT JUMPDEST PUSH1 0x0 DUP2 DUP2 MSTORE PUSH1 0x5 PUSH1 0x20 MSTORE PUSH1 0x40 DUP1 DUP3 KECCAK256 DUP1 SLOAD PUSH1 0x1 PUSH1 0x1 PUSH1 0xA0 SHL SUB NOT AND SWAP1 SSTORE MLOAD DUP3 SWAP2 PUSH32 0x7CC135E0CEBB02C3480AE5D74D377283180A2601F8F644EDF7987B009316C63A SWAP2 LOG2 PUSH1 0x9 DUP3 SWAP1 SSTORE PUSH1 0xC SLOAD PUSH1 0x0 SWAP1 PUSH2 0x1BD SWAP1 DUP5 PUSH2 0xB86 JUMP JUMPDEST PUSH1 0x9 SLOAD PUSH1 0xC SSTORE PUSH1 0xA SLOAD PUSH1 0xB SLOAD PUSH1 0x40 MLOAD PUSH4 0x5BF6FA89 PUSH1 0xE0 SHL DUP2 MSTORE PUSH1 0x1 PUSH1 0x1 PUSH1 0xA0 SHL SUB SWAP3 DUP4 AND PUSH1 0x4 DUP3 ADD DUP2 SWAP1 MSTORE PUSH1 0x24 DUP3 ADD DUP6 SWAP1 MSTORE SWAP4 SWAP5 POP SWAP2 AND SWAP1 DUP2 SWAP1 PUSH4 0x5BF6FA89 SWAP1 PUSH1 0x44 ADD PUSH1 0x0 PUSH1 0x40 MLOAD DUP1 DUP4 SUB DUP2 PUSH1 0x0 DUP8 DUP1 EXTCODESIZE ISZERO DUP1 ISZERO PUSH2 0x21A JUMPI PUSH1 0x0 DUP1 REVERT JUMPDEST POP GAS CALL ISZERO DUP1 ISZERO PUSH2 0x22E JUMPI RETURNDATASIZE PUSH1 0x0 DUP1 RETURNDATACOPY RETURNDATASIZE PUSH1 0x0 REVERT JUMPDEST POP POP PUSH1 0x40 MLOAD PUSH4 0x8A774091 PUSH1 0xE0 SHL DUP2 MSTORE PUSH1 0x4 DUP2 ADD DUP7 SWAP1 MSTORE PUSH1 0x1 PUSH1 0x1 PUSH1 0xA0 SHL SUB DUP6 AND SWAP3 POP PUSH4 0x8A774091 SWAP2 POP PUSH1 0x24 ADD PUSH1 0x0 PUSH1 0x40 MLOAD DUP1 DUP4 SUB DUP2 PUSH1 0x0 DUP8 DUP1 EXTCODESIZE ISZERO DUP1 ISZERO PUSH2 0x274 JUMPI PUSH1 0x0 DUP1 REVERT JUMPDEST POP GAS CALL ISZERO DUP1 ISZERO PUSH2 0x288 JUMPI RETURNDATASIZE PUSH1 0x0 DUP1 RETURNDATACOPY RETURNDATASIZE PUSH1 0x0 REVERT JUMPDEST POP POP POP POP POP POP POP POP POP POP JUMP JUMPDEST PUSH1 0x0 DUP1 PUSH2 0x2AB PUSH1 0x7 SLOAD ADDRESS PUSH4 0x4357855E PUSH1 0xE0 SHL PUSH2 0x39C JUMP JUMPDEST SWAP1 POP PUSH2 0x2ED PUSH1 0x40 MLOAD DUP1 PUSH1 0x40 ADD PUSH1 0x40 MSTORE DUP1 PUSH1 0x3 DUP2 MSTORE PUSH1 0x20 ADD PUSH3 0x19D95D PUSH1 0xEA SHL DUP2 MSTORE POP PUSH1 0x40 MLOAD DUP1 PUSH1 0x80 ADD PUSH1 0x40 MSTORE DUP1 PUSH1 0x51 DUP2 MSTORE PUSH1 0x20 ADD PUSH2 0xE24 PUSH1 0x51 SWAP2 CODECOPY DUP4 SWAP2 SWAP1 PUSH2 0x3C1 JUMP JUMPDEST PUSH2 0x348 PUSH1 0x40 MLOAD DUP1 PUSH1 0x40 ADD PUSH1 0x40 MSTORE DUP1 PUSH1 0x4 DUP2 MSTORE PUSH1 0x20 ADD PUSH4 0xE0C2E8D PUSH1 0xE3 SHL DUP2 MSTORE POP PUSH1 0x40 MLOAD DUP1 PUSH1 0x40 ADD PUSH1 0x40 MSTORE DUP1 PUSH1 0x12 DUP2 MSTORE PUSH1 0x20 ADD PUSH18 0x195B995C99DE4B5858D8DD5B5D5B185D1959 PUSH1 0x72 SHL DUP2 MSTORE POP DUP4 PUSH2 0x3C1 SWAP1 SWAP3 SWAP2 SWAP1 PUSH4 0xFFFFFFFF AND JUMP JUMPDEST PUSH1 0x40 DUP1 MLOAD DUP1 DUP3 ADD SWAP1 SWAP2 MSTORE PUSH1 0x5 DUP2 MSTORE PUSH5 0x74696D6573 PUSH1 0xD8 SHL PUSH1 0x20 DUP3 ADD MSTORE PUSH8 0xDE0B6B3A7640000 SWAP1 PUSH2 0x37A SWAP1 DUP4 SWAP1 DUP4 PUSH2 0x3E4 JUMP JUMPDEST PUSH1 0x6 SLOAD PUSH1 0x8 SLOAD PUSH2 0x395 SWAP2 PUSH1 0x1 PUSH1 0x1 PUSH1 0xA0 SHL SUB AND SWAP1 DUP5 SWAP1 PUSH2 0x402 JUMP JUMPDEST SWAP3 POP POP POP SWAP1 JUMP JUMPDEST PUSH2 0x3A4 PUSH2 0xB13 JUMP JUMPDEST PUSH2 0x3AC PUSH2 0xB13 JUMP JUMPDEST PUSH2 0x3B8 DUP2 DUP7 DUP7 DUP7 PUSH2 0x495 JUMP JUMPDEST SWAP6 SWAP5 POP POP POP POP POP JUMP JUMPDEST PUSH1 0x80 DUP4 ADD MLOAD PUSH2 0x3D0 SWAP1 DUP4 PUSH2 0x4DB JUMP JUMPDEST PUSH1 0x80 DUP4 ADD MLOAD PUSH2 0x3DF SWAP1 DUP3 PUSH2 0x4DB JUMP JUMPDEST POP POP POP JUMP JUMPDEST PUSH1 0x80 DUP4 ADD MLOAD PUSH2 0x3F3 SWAP1 DUP4 PUSH2 0x4DB JUMP JUMPDEST PUSH1 0x80 DUP4 ADD MLOAD PUSH2 0x3DF SWAP1 DUP3 PUSH2 0x4F2 JUMP JUMPDEST PUSH1 0x4 SLOAD PUSH1 0x0 SWAP1 PUSH2 0x413 DUP2 PUSH1 0x1 PUSH2 0xB9D JUMP JUMPDEST PUSH1 0x4 SSTORE DUP4 MLOAD PUSH1 0x40 DUP1 DUP7 ADD MLOAD PUSH1 0x80 DUP8 ADD MLOAD MLOAD SWAP2 MLOAD PUSH1 0x0 SWAP4 PUSH4 0x20214CA3 PUSH1 0xE1 SHL SWAP4 PUSH2 0x44B SWAP4 DUP7 SWAP4 DUP5 SWAP4 SWAP3 ADDRESS SWAP3 SWAP2 DUP11 SWAP2 PUSH1 0x1 SWAP2 PUSH1 0x24 ADD PUSH2 0xC02 JUMP JUMPDEST PUSH1 0x40 DUP1 MLOAD PUSH1 0x1F NOT DUP2 DUP5 SUB ADD DUP2 MSTORE SWAP2 SWAP1 MSTORE PUSH1 0x20 DUP2 ADD DUP1 MLOAD PUSH1 0x1 PUSH1 0x1 PUSH1 0xE0 SHL SUB AND PUSH1 0x1 PUSH1 0x1 PUSH1 0xE0 SHL SUB NOT SWAP1 SWAP4 AND SWAP3 SWAP1 SWAP3 OR SWAP1 SWAP2 MSTORE SWAP1 POP PUSH2 0x48B DUP7 DUP4 DUP7 DUP5 PUSH2 0x556 JUMP JUMPDEST SWAP7 SWAP6 POP POP POP POP POP POP JUMP JUMPDEST PUSH2 0x49D PUSH2 0xB13 JUMP JUMPDEST PUSH2 0x4AD DUP6 PUSH1 0x80 ADD MLOAD PUSH2 0x100 PUSH2 0x6B4 JUMP JUMPDEST POP POP DUP3 DUP5 MSTORE PUSH1 0x1 PUSH1 0x1 PUSH1 0xA0 SHL SUB DUP3 AND PUSH1 0x20 DUP6 ADD MSTORE PUSH1 0x1 PUSH1 0x1 PUSH1 0xE0 SHL SUB NOT DUP2 AND PUSH1 0x40 DUP6 ADD MSTORE DUP4 JUMPDEST SWAP5 SWAP4 POP POP POP POP JUMP JUMPDEST PUSH2 0x4E8 DUP3 PUSH1 0x3 DUP4 MLOAD PUSH2 0x71F JUMP JUMPDEST PUSH2 0x3DF DUP3 DUP3 PUSH2 0x834 JUMP JUMPDEST PUSH8 0xFFFFFFFFFFFFFFFF NOT DUP2 SLT ISZERO PUSH2 0x511 JUMPI PUSH2 0x50D DUP3 DUP3 PUSH2 0x862 JUMP JUMPDEST POP POP JUMP JUMPDEST PUSH8 0xFFFFFFFFFFFFFFFF DUP2 SGT ISZERO PUSH2 0x52B JUMPI PUSH2 0x50D DUP3 DUP3 PUSH2 0x8A4 JUMP JUMPDEST PUSH1 0x0 DUP2 SLT PUSH2 0x53F JUMPI PUSH2 0x50D DUP3 PUSH1 0x0 DUP4 PUSH2 0x71F JUMP JUMPDEST PUSH2 0x50D DUP3 PUSH1 0x1 PUSH2 0x551 DUP5 PUSH1 0x0 NOT PUSH2 0xC6A JUMP JUMPDEST PUSH2 0x71F JUMP JUMPDEST PUSH1 0x40 MLOAD PUSH12 0xFFFFFFFFFFFFFFFFFFFFFFFF NOT ADDRESS PUSH1 0x60 SHL AND PUSH1 0x20 DUP3 ADD MSTORE PUSH1 0x34 DUP2 ADD DUP5 SWAP1 MSTORE PUSH1 0x0 SWAP1 PUSH1 0x54 ADD PUSH1 0x40 DUP1 MLOAD DUP1 DUP4 SUB PUSH1 0x1F NOT ADD DUP2 MSTORE DUP3 DUP3 MSTORE DUP1 MLOAD PUSH1 0x20 SWAP2 DUP3 ADD KECCAK256 PUSH1 0x0 DUP2 DUP2 MSTORE PUSH1 0x5 SWAP1 SWAP3 MSTORE SWAP2 DUP2 KECCAK256 DUP1 SLOAD PUSH1 0x1 PUSH1 0x1 PUSH1 0xA0 SHL SUB NOT AND PUSH1 0x1 PUSH1 0x1 PUSH1 0xA0 SHL SUB DUP11 AND OR SWAP1 SSTORE SWAP1 SWAP3 POP DUP3 SWAP2 PUSH32 0xB5E6E01E79F91267DC17B4E6314D5D4D03593D2CEEE0FBB452B750BD70EA5AF9 SWAP2 SWAP1 LOG2 PUSH1 0x2 SLOAD PUSH1 0x40 MLOAD PUSH4 0x2000575 PUSH1 0xE5 SHL DUP2 MSTORE PUSH1 0x1 PUSH1 0x1 PUSH1 0xA0 SHL SUB SWAP1 SWAP2 AND SWAP1 PUSH4 0x4000AEA0 SWAP1 PUSH2 0x619 SWAP1 DUP9 SWAP1 DUP8 SWAP1 DUP8 SWAP1 PUSH1 0x4 ADD PUSH2 0xCA9 JUMP JUMPDEST PUSH1 0x20 PUSH1 0x40 MLOAD DUP1 DUP4 SUB DUP2 PUSH1 0x0 DUP8 GAS CALL ISZERO DUP1 ISZERO PUSH2 0x638 JUMPI RETURNDATASIZE PUSH1 0x0 DUP1 RETURNDATACOPY RETURNDATASIZE PUSH1 0x0 REVERT JUMPDEST POP POP POP POP PUSH1 0x40 MLOAD RETURNDATASIZE PUSH1 0x1F NOT PUSH1 0x1F DUP3 ADD AND DUP3 ADD DUP1 PUSH1 0x40 MSTORE POP DUP2 ADD SWAP1 PUSH2 0x65C SWAP2 SWAP1 PUSH2 0xCD0 JUMP JUMPDEST PUSH2 0x4D3 JUMPI PUSH1 0x40 MLOAD PUSH3 0x461BCD PUSH1 0xE5 SHL DUP2 MSTORE PUSH1 0x20 PUSH1 0x4 DUP3 ADD MSTORE PUSH1 0x23 PUSH1 0x24 DUP3 ADD MSTORE PUSH32 0x756E61626C6520746F207472616E73666572416E6443616C6C20746F206F7261 PUSH1 0x44 DUP3 ADD MSTORE PUSH3 0x636C65 PUSH1 0xE8 SHL PUSH1 0x64 DUP3 ADD MSTORE PUSH1 0x84 ADD PUSH2 0x15C JUMP JUMPDEST PUSH1 0x40 DUP1 MLOAD DUP1 DUP3 ADD SWAP1 SWAP2 MSTORE PUSH1 0x60 DUP2 MSTORE PUSH1 0x0 PUSH1 0x20 DUP3 ADD MSTORE PUSH2 0x6D4 PUSH1 0x20 DUP4 PUSH2 0xCF2 JUMP JUMPDEST ISZERO PUSH2 0x6FC JUMPI PUSH2 0x6E4 PUSH1 0x20 DUP4 PUSH2 0xCF2 JUMP JUMPDEST PUSH2 0x6EF SWAP1 PUSH1 0x20 PUSH2 0xB86 JUMP JUMPDEST PUSH2 0x6F9 SWAP1 DUP4 PUSH2 0xB9D JUMP JUMPDEST SWAP2 POP JUMPDEST POP PUSH1 0x20 DUP1 DUP4 ADD DUP3 SWAP1 MSTORE PUSH1 0x40 DUP1 MLOAD DUP1 DUP6 MSTORE PUSH1 0x0 DUP2 MSTORE DUP4 ADD SWAP1 SWAP2 ADD SWAP1 MSTORE DUP2 JUMPDEST SWAP3 SWAP2 POP POP JUMP JUMPDEST PUSH1 0x17 DUP2 PUSH8 0xFFFFFFFFFFFFFFFF AND GT PUSH2 0x74A JUMPI PUSH2 0x744 DUP4 PUSH1 0xE0 PUSH1 0x5 DUP6 SWAP1 SHL AND DUP4 OR PUSH2 0x8C7 JUMP JUMPDEST POP POP POP POP JUMP JUMPDEST PUSH1 0xFF DUP2 PUSH8 0xFFFFFFFFFFFFFFFF AND GT PUSH2 0x788 JUMPI PUSH2 0x771 DUP4 PUSH1 0x18 PUSH2 0x1FE0 PUSH1 0x5 DUP7 SWAP1 SHL AND OR PUSH2 0x8C7 JUMP JUMPDEST POP PUSH2 0x744 DUP4 PUSH8 0xFFFFFFFFFFFFFFFF DUP4 AND PUSH1 0x1 PUSH2 0x8EC JUMP JUMPDEST PUSH2 0xFFFF DUP2 PUSH8 0xFFFFFFFFFFFFFFFF AND GT PUSH2 0x7C7 JUMPI PUSH2 0x7B0 DUP4 PUSH1 0x19 PUSH2 0x1FE0 PUSH1 0x5 DUP7 SWAP1 SHL AND OR PUSH2 0x8C7 JUMP JUMPDEST POP PUSH2 0x744 DUP4 PUSH8 0xFFFFFFFFFFFFFFFF DUP4 AND PUSH1 0x2 PUSH2 0x8EC JUMP JUMPDEST PUSH4 0xFFFFFFFF DUP2 PUSH8 0xFFFFFFFFFFFFFFFF AND GT PUSH2 0x808 JUMPI PUSH2 0x7F1 DUP4 PUSH1 0x1A PUSH2 0x1FE0 PUSH1 0x5 DUP7 SWAP1 SHL AND OR PUSH2 0x8C7 JUMP JUMPDEST POP PUSH2 0x744 DUP4 PUSH8 0xFFFFFFFFFFFFFFFF DUP4 AND PUSH1 0x4 PUSH2 0x8EC JUMP JUMPDEST PUSH2 0x81D DUP4 PUSH1 0x1B PUSH2 0x1FE0 PUSH1 0x5 DUP7 SWAP1 SHL AND OR PUSH2 0x8C7 JUMP JUMPDEST POP PUSH2 0x744 DUP4 PUSH8 0xFFFFFFFFFFFFFFFF DUP4 AND PUSH1 0x8 PUSH2 0x8EC JUMP JUMPDEST PUSH1 0x40 DUP1 MLOAD DUP1 DUP3 ADD SWAP1 SWAP2 MSTORE PUSH1 0x60 DUP2 MSTORE PUSH1 0x0 PUSH1 0x20 DUP3 ADD MSTORE PUSH2 0x85B DUP4 DUP5 PUSH1 0x0 ADD MLOAD MLOAD DUP5 DUP6 MLOAD PUSH2 0x912 JUMP JUMPDEST SWAP4 SWAP3 POP POP POP JUMP JUMPDEST PUSH2 0x86D DUP3 PUSH1 0xC3 PUSH2 0x8C7 JUMP JUMPDEST POP PUSH2 0x50D DUP3 PUSH2 0x87E DUP4 PUSH1 0x0 NOT PUSH2 0xC6A JUMP JUMPDEST PUSH1 0x40 MLOAD PUSH1 0x20 ADD PUSH2 0x890 SWAP2 DUP2 MSTORE PUSH1 0x20 ADD SWAP1 JUMP JUMPDEST PUSH1 0x40 MLOAD PUSH1 0x20 DUP2 DUP4 SUB SUB DUP2 MSTORE SWAP1 PUSH1 0x40 MSTORE PUSH2 0x9FC JUMP JUMPDEST PUSH2 0x8AF DUP3 PUSH1 0xC2 PUSH2 0x8C7 JUMP JUMPDEST POP PUSH2 0x50D DUP3 DUP3 PUSH1 0x40 MLOAD PUSH1 0x20 ADD PUSH2 0x890 SWAP2 DUP2 MSTORE PUSH1 0x20 ADD SWAP1 JUMP JUMPDEST PUSH1 0x40 DUP1 MLOAD DUP1 DUP3 ADD SWAP1 SWAP2 MSTORE PUSH1 0x60 DUP2 MSTORE PUSH1 0x0 PUSH1 0x20 DUP3 ADD MSTORE PUSH2 0x85B DUP4 DUP5 PUSH1 0x0 ADD MLOAD MLOAD DUP5 PUSH2 0xA09 JUMP JUMPDEST PUSH1 0x40 DUP1 MLOAD DUP1 DUP3 ADD SWAP1 SWAP2 MSTORE PUSH1 0x60 DUP2 MSTORE PUSH1 0x0 PUSH1 0x20 DUP3 ADD MSTORE PUSH2 0x4D3 DUP5 DUP6 PUSH1 0x0 ADD MLOAD MLOAD DUP6 DUP6 PUSH2 0xA64 JUMP JUMPDEST PUSH1 0x40 DUP1 MLOAD DUP1 DUP3 ADD SWAP1 SWAP2 MSTORE PUSH1 0x60 DUP2 MSTORE PUSH1 0x0 PUSH1 0x20 DUP3 ADD MSTORE DUP3 MLOAD DUP3 GT ISZERO PUSH2 0x935 JUMPI PUSH1 0x0 DUP1 REVERT JUMPDEST PUSH1 0x20 DUP6 ADD MLOAD PUSH2 0x944 DUP4 DUP7 PUSH2 0xB9D JUMP JUMPDEST GT ISZERO PUSH2 0x977 JUMPI PUSH2 0x977 DUP6 PUSH2 0x967 DUP8 PUSH1 0x20 ADD MLOAD DUP8 DUP7 PUSH2 0x962 SWAP2 SWAP1 PUSH2 0xB9D JUMP JUMPDEST PUSH2 0xAE5 JUMP JUMPDEST PUSH2 0x972 SWAP1 PUSH1 0x2 PUSH2 0xD14 JUMP JUMPDEST PUSH2 0xAFC JUMP JUMPDEST PUSH1 0x0 DUP1 DUP7 MLOAD DUP1 MLOAD DUP8 PUSH1 0x20 DUP4 ADD ADD SWAP4 POP DUP1 DUP9 DUP8 ADD GT ISZERO PUSH2 0x996 JUMPI DUP8 DUP7 ADD DUP3 MSTORE JUMPDEST POP POP POP PUSH1 0x20 DUP5 ADD JUMPDEST PUSH1 0x20 DUP5 LT PUSH2 0x9D6 JUMPI DUP1 MLOAD DUP3 MSTORE PUSH2 0x9B5 PUSH1 0x20 DUP4 PUSH2 0xB9D JUMP JUMPDEST SWAP2 POP PUSH2 0x9C2 PUSH1 0x20 DUP3 PUSH2 0xB9D JUMP JUMPDEST SWAP1 POP PUSH2 0x9CF PUSH1 0x20 DUP6 PUSH2 0xB86 JUMP JUMPDEST SWAP4 POP PUSH2 0x99E JUMP JUMPDEST MLOAD DUP2 MLOAD PUSH1 0x0 NOT PUSH1 0x20 DUP7 SWAP1 SUB PUSH2 0x100 EXP ADD SWAP1 DUP2 AND SWAP1 NOT SWAP2 SWAP1 SWAP2 AND OR SWAP1 MSTORE POP DUP4 SWAP5 SWAP4 POP POP POP POP JUMP JUMPDEST PUSH2 0x4E8 DUP3 PUSH1 0x2 DUP4 MLOAD PUSH2 0x71F JUMP JUMPDEST PUSH1 0x40 DUP1 MLOAD DUP1 DUP3 ADD SWAP1 SWAP2 MSTORE PUSH1 0x60 DUP2 MSTORE PUSH1 0x0 PUSH1 0x20 DUP3 ADD MSTORE DUP4 PUSH1 0x20 ADD MLOAD DUP4 LT PUSH2 0xA3E JUMPI PUSH2 0xA3E DUP5 DUP6 PUSH1 0x20 ADD MLOAD PUSH1 0x2 PUSH2 0x972 SWAP2 SWAP1 PUSH2 0xD14 JUMP JUMPDEST DUP4 MLOAD DUP1 MLOAD PUSH1 0x20 DUP6 DUP4 ADD ADD DUP5 DUP2 MSTORE8 POP DUP1 DUP6 SUB PUSH2 0xA5A JUMPI PUSH1 0x1 DUP2 ADD DUP3 MSTORE JUMPDEST POP SWAP4 SWAP5 SWAP4 POP POP POP POP JUMP JUMPDEST PUSH1 0x40 DUP1 MLOAD DUP1 DUP3 ADD SWAP1 SWAP2 MSTORE PUSH1 0x60 DUP2 MSTORE PUSH1 0x0 PUSH1 0x20 DUP3 ADD MSTORE PUSH1 0x20 DUP6 ADD MLOAD PUSH2 0xA88 DUP6 DUP5 PUSH2 0xB9D JUMP JUMPDEST GT ISZERO PUSH2 0xA9C JUMPI PUSH2 0xA9C DUP6 PUSH2 0x967 DUP7 DUP6 PUSH2 0xB9D JUMP JUMPDEST PUSH1 0x0 PUSH1 0x1 PUSH2 0xAAC DUP5 PUSH2 0x100 PUSH2 0xE17 JUMP JUMPDEST PUSH2 0xAB6 SWAP2 SWAP1 PUSH2 0xB86 JUMP JUMPDEST SWAP1 POP DUP6 MLOAD DUP4 DUP7 DUP3 ADD ADD DUP6 DUP4 NOT DUP3 MLOAD AND OR DUP2 MSTORE POP DUP1 MLOAD DUP5 DUP8 ADD GT ISZERO PUSH2 0xADA JUMPI DUP4 DUP7 ADD DUP2 MSTORE JUMPDEST POP SWAP5 SWAP6 SWAP5 POP POP POP POP POP JUMP JUMPDEST PUSH1 0x0 DUP2 DUP4 GT ISZERO PUSH2 0xAF6 JUMPI POP DUP2 PUSH2 0x719 JUMP JUMPDEST POP SWAP2 SWAP1 POP JUMP JUMPDEST DUP2 MLOAD PUSH2 0xB08 DUP4 DUP4 PUSH2 0x6B4 JUMP JUMPDEST POP PUSH2 0x744 DUP4 DUP3 PUSH2 0x834 JUMP JUMPDEST PUSH1 0x40 DUP1 MLOAD PUSH1 0xA0 DUP2 ADD DUP3 MSTORE PUSH1 0x0 DUP1 DUP3 MSTORE PUSH1 0x20 DUP1 DUP4 ADD DUP3 SWAP1 MSTORE DUP3 DUP5 ADD DUP3 SWAP1 MSTORE PUSH1 0x60 DUP1 DUP5 ADD DUP4 SWAP1 MSTORE DUP5 MLOAD DUP1 DUP7 ADD SWAP1 SWAP6 MSTORE DUP5 MSTORE DUP4 ADD MSTORE SWAP1 PUSH1 0x80 DUP3 ADD MSTORE SWAP1 JUMP JUMPDEST PUSH1 0x0 DUP1 PUSH1 0x40 DUP4 DUP6 SUB SLT ISZERO PUSH2 0xB61 JUMPI PUSH1 0x0 DUP1 REVERT JUMPDEST POP POP DUP1 CALLDATALOAD SWAP3 PUSH1 0x20 SWAP1 SWAP2 ADD CALLDATALOAD SWAP2 POP JUMP JUMPDEST PUSH4 0x4E487B71 PUSH1 0xE0 SHL PUSH1 0x0 MSTORE PUSH1 0x11 PUSH1 0x4 MSTORE PUSH1 0x24 PUSH1 0x0 REVERT JUMPDEST PUSH1 0x0 DUP3 DUP3 LT ISZERO PUSH2 0xB98 JUMPI PUSH2 0xB98 PUSH2 0xB70 JUMP JUMPDEST POP SUB SWAP1 JUMP JUMPDEST PUSH1 0x0 DUP3 NOT DUP3 GT ISZERO PUSH2 0xBB0 JUMPI PUSH2 0xBB0 PUSH2 0xB70 JUMP JUMPDEST POP ADD SWAP1 JUMP JUMPDEST PUSH1 0x0 DUP2 MLOAD DUP1 DUP5 MSTORE PUSH1 0x0 JUMPDEST DUP2 DUP2 LT ISZERO PUSH2 0xBDB JUMPI PUSH1 0x20 DUP2 DUP6 ADD DUP2 ADD MLOAD DUP7 DUP4 ADD DUP3 ADD MSTORE ADD PUSH2 0xBBF JUMP JUMPDEST DUP2 DUP2 GT ISZERO PUSH2 0xBED JUMPI PUSH1 0x0 PUSH1 0x20 DUP4 DUP8 ADD ADD MSTORE JUMPDEST POP PUSH1 0x1F ADD PUSH1 0x1F NOT AND SWAP3 SWAP1 SWAP3 ADD PUSH1 0x20 ADD SWAP3 SWAP2 POP POP JUMP JUMPDEST PUSH1 0x1 PUSH1 0x1 PUSH1 0xA0 SHL SUB DUP10 DUP2 AND DUP3 MSTORE PUSH1 0x20 DUP3 ADD DUP10 SWAP1 MSTORE PUSH1 0x40 DUP3 ADD DUP9 SWAP1 MSTORE DUP7 AND PUSH1 0x60 DUP3 ADD MSTORE PUSH1 0x1 PUSH1 0x1 PUSH1 0xE0 SHL SUB NOT DUP6 AND PUSH1 0x80 DUP3 ADD MSTORE PUSH1 0xA0 DUP2 ADD DUP5 SWAP1 MSTORE PUSH1 0xC0 DUP2 ADD DUP4 SWAP1 MSTORE PUSH2 0x100 PUSH1 0xE0 DUP3 ADD DUP2 SWAP1 MSTORE PUSH1 0x0 SWAP1 PUSH2 0xC5B DUP4 DUP3 ADD DUP6 PUSH2 0xBB5 JUMP JUMPDEST SWAP12 SWAP11 POP POP POP POP POP POP POP POP POP POP POP JUMP JUMPDEST PUSH1 0x0 DUP1 DUP4 SLT DUP1 ISZERO PUSH1 0x1 PUSH1 0xFF SHL DUP6 ADD DUP5 SLT AND ISZERO PUSH2 0xC88 JUMPI PUSH2 0xC88 PUSH2 0xB70 JUMP JUMPDEST PUSH1 0x1 PUSH1 0x1 PUSH1 0xFF SHL SUB DUP5 ADD DUP4 SGT DUP2 AND ISZERO PUSH2 0xCA3 JUMPI PUSH2 0xCA3 PUSH2 0xB70 JUMP JUMPDEST POP POP SUB SWAP1 JUMP JUMPDEST PUSH1 0x1 DUP1 PUSH1 0xA0 SHL SUB DUP5 AND DUP2 MSTORE DUP3 PUSH1 0x20 DUP3 ADD MSTORE PUSH1 0x60 PUSH1 0x40 DUP3 ADD MSTORE PUSH1 0x0 PUSH2 0x3B8 PUSH1 0x60 DUP4 ADD DUP5 PUSH2 0xBB5 JUMP JUMPDEST PUSH1 0x0 PUSH1 0x20 DUP3 DUP5 SUB SLT ISZERO PUSH2 0xCE2 JUMPI PUSH1 0x0 DUP1 REVERT JUMPDEST DUP2 MLOAD DUP1 ISZERO ISZERO DUP2 EQ PUSH2 0x85B JUMPI PUSH1 0x0 DUP1 REVERT JUMPDEST PUSH1 0x0 DUP3 PUSH2 0xD0F JUMPI PUSH4 0x4E487B71 PUSH1 0xE0 SHL PUSH1 0x0 MSTORE PUSH1 0x12 PUSH1 0x4 MSTORE PUSH1 0x24 PUSH1 0x0 REVERT JUMPDEST POP MOD SWAP1 JUMP JUMPDEST PUSH1 0x0 DUP2 PUSH1 0x0 NOT DIV DUP4 GT DUP3 ISZERO ISZERO AND ISZERO PUSH2 0xD2E JUMPI PUSH2 0xD2E PUSH2 0xB70 JUMP JUMPDEST POP MUL SWAP1 JUMP JUMPDEST PUSH1 0x1 DUP2 DUP2 JUMPDEST DUP1 DUP6 GT ISZERO PUSH2 0xD6E JUMPI DUP2 PUSH1 0x0 NOT DIV DUP3 GT ISZERO PUSH2 0xD54 JUMPI PUSH2 0xD54 PUSH2 0xB70 JUMP JUMPDEST DUP1 DUP6 AND ISZERO PUSH2 0xD61 JUMPI SWAP2 DUP2 MUL SWAP2 JUMPDEST SWAP4 DUP5 SHR SWAP4 SWAP1 DUP1 MUL SWAP1 PUSH2 0xD38 JUMP JUMPDEST POP SWAP3 POP SWAP3 SWAP1 POP JUMP JUMPDEST PUSH1 0x0 DUP3 PUSH2 0xD85 JUMPI POP PUSH1 0x1 PUSH2 0x719 JUMP JUMPDEST DUP2 PUSH2 0xD92 JUMPI POP PUSH1 0x0 PUSH2 0x719 JUMP JUMPDEST DUP2 PUSH1 0x1 DUP2 EQ PUSH2 0xDA8 JUMPI PUSH1 0x2 DUP2 EQ PUSH2 0xDB2 JUMPI PUSH2 0xDCE JUMP JUMPDEST PUSH1 0x1 SWAP2 POP POP PUSH2 0x719 JUMP JUMPDEST PUSH1 0xFF DUP5 GT ISZERO PUSH2 0xDC3 JUMPI PUSH2 0xDC3 PUSH2 0xB70 JUMP JUMPDEST POP POP PUSH1 0x1 DUP3 SHL PUSH2 0x719 JUMP JUMPDEST POP PUSH1 0x20 DUP4 LT PUSH2 0x133 DUP4 LT AND PUSH1 0x4E DUP5 LT PUSH1 0xB DUP5 LT AND OR ISZERO PUSH2 0xDF1 JUMPI POP DUP2 DUP2 EXP PUSH2 0x719 JUMP JUMPDEST PUSH2 0xDFB DUP4 DUP4 PUSH2 0xD33 JUMP JUMPDEST DUP1 PUSH1 0x0 NOT DIV DUP3 GT ISZERO PUSH2 0xE0F JUMPI PUSH2 0xE0F PUSH2 0xB70 JUMP JUMPDEST MUL SWAP4 SWAP3 POP POP POP JUMP JUMPDEST PUSH1 0x0 PUSH2 0x85B DUP4 DUP4 PUSH2 0xD76 JUMP INVALID PUSH9 0x7474703A2F2F647265 PUSH25 0x616C6C2D656E762E6562612D65336D6E6E6D36392E75732D65 PUSH2 0x7374 0x2D BALANCE 0x2E PUSH6 0x6C6173746963 PUSH3 0x65616E PUSH20 0x74616C6B2E636F6D2F677269642F6C6173743F63 PUSH16 0x64653D4C494DA2646970667358221220 GAS CREATE2 0xDB LOG2 STATICCALL DUP5 0xC0 0xC6 0x5C LT NUMBER 0x4D PUSH30 0xC521E08070EA81A4B05C3E8D724FA162DE741064736F6C634300080E0033 ","sha1":"9f6a08361b431badcba61faecf164b304e9fc336","source":"// SPDX-License-Identifier: GPL-3.0\n\npragma solidity ^0.8.1;\n\nimport \"@chainlink/contracts/src/v0.8/ChainlinkClient.sol\";\nimport \"./AdvancedCollectible.sol\";\nimport \"./Our_ERC20.sol\";\n\ncontract Client is ChainlinkClient {\n    using Chainlink for Chainlink.Request;\n\n    address private oracle;\n    bytes32 private jobId;\n    uint256 private fee;\n    uint256 public volume;\n    address payable public nft_contract;\n    address public drex_token_contract;\n    uint256 public curr_volume;\n\n    /**\n    This example uses the LINK token address on Moonbase Alpha.\n    Make sure to update the oracle and jobId.\n    */\n    constructor(address payable nft_address, address erc20_address) {\n        setChainlinkToken(address(0xa36085F69e2889c224210F603D836748e7dC0088));\n        oracle = 0xD4D9ac4ecF5dDf18056ce6A91d0a8E7B0c910ccE;\n        jobId = \"79abc1e36be340a697e2b49dd2d86798\";\n        fee = 0;\n        nft_contract = nft_address;\n        drex_token_contract = erc20_address;\n        curr_volume = 0;\n    }\n\n    /**\n     * Create a Chainlink request to retrieve API response, find the target\n     * data, then multiply by 1000000000000000000 (to remove decimal places from data).\n     */\n    function request_sensor_data() public returns (bytes32 requestId) {\n        Chainlink.Request memory request = buildChainlinkRequest(\n            jobId,\n            address(this),\n            this.fulfill.selector\n        );\n\n        // Set the URL to perform the GET request on\n        request.add(\n            \"get\",\n            \"http://drexall-env.eba-e3mnnm69.us-east-1.elasticbeanstalk.com/grid/last?code=LIM\"\n        );\n\n        // Set the path to find the desired data in the API response, where the response format is:\n\n        request.add(\"path\", \"energy-accumulated\");\n\n        // Multiply the result by 1000000000000000000 to remove decimals\n        int256 timesAmount = 10**18;\n        request.addInt(\"times\", timesAmount);\n\n        // Sends the request\n        return sendChainlinkRequestTo(oracle, request, fee);\n    }\n\n    /**\n     * Receive the response in the form of uint256\n     */\n    function fulfill(bytes32 _requestId, uint256 _volume)\n        public\n        recordChainlinkFulfillment(_requestId)\n    {\n        volume = _volume;\n        uint256 amt_generated = volume - curr_volume;\n        curr_volume = volume;\n        Nft_interface nfti = Nft_interface(nft_contract);\n        drex_token_interface erc20 = drex_token_interface(drex_token_contract);\n        erc20.tranferingfunds(nft_contract, amt_generated);\n        nfti.update_nft_balance(amt_generated);\n    }\n}\n","sourcePath":"contracts/DrexApi.sol","deployment":{"address":"0x6e354792c41d60Aa6D00aa06e1B36C14d4fA525a","chainid":"1287","blockHeight":3361936}}