{"bytecode":"608060405234801561001057600080fd5b50604051610a55380380610a5583398101604081905261002f9161008c565b600180546001600160a01b039384166001600160a01b03199182161790915560008054929093169181169190911790915560028054909116331790556100be565b80516001600160a01b038116811461008757600080fd5b919050565b6000806040838503121561009e578182fd5b6100a783610070565b91506100b560208401610070565b90509250929050565b610988806100cd6000396000f3fe6080604052600436106100555760003560e01c806325046e681461005a578063364c6ab8146100855780633ffaf5c61461009a578063a3d0b404146100af578063be040fb0146100c4578063fdfecf8a146100d9575b600080fd5b34801561006657600080fd5b5061006f6100f9565b60405161007c91906107f1565b60405180910390f35b34801561009157600080fd5b5061006f610108565b6100ad6100a83660046107c1565b610117565b005b3480156100bb57600080fd5b506100ad610282565b3480156100d057600080fd5b506100ad6103ab565b3480156100e557600080fd5b5061006f6100f43660046107c1565b61077f565b6000546001600160a01b031681565b6001546001600160a01b031681565b6001546040516370a0823160e01b815282916001600160a01b0316906370a08231906101479033906004016107f1565b60206040518083038186803b15801561015f57600080fd5b505afa158015610173573d6000803e3d6000fd5b505050506040513d601f19601f8201168201806040525081019061019791906107d9565b116101bd5760405162461bcd60e51b81526004016101b490610910565b60405180910390fd5b6001546040516323b872dd60e01b81526001600160a01b03909116906323b872dd906101f190339030908690600401610805565b602060405180830381600087803b15801561020b57600080fd5b505af115801561021f573d6000803e3d6000fd5b505050506040513d601f19601f82011682018060405250810190610243919061079a565b507f8aa89c45e00b1dc8befa3736e4d341042a1cd0021a629920526985a6028f752530600454604051610277929190610829565b60405180910390a150565b6002546001600160a01b031633146102ac5760405162461bcd60e51b81526004016101b490610842565b6000546002546040516370a0823160e01b81526001600160a01b039283169263095ea7b392169083906370a08231906102e99030906004016107f1565b60206040518083038186803b15801561030157600080fd5b505afa158015610315573d6000803e3d6000fd5b505050506040513d601f19601f8201168201806040525081019061033991906107d9565b6040518363ffffffff1660e01b8152600401610356929190610829565b602060405180830381600087803b15801561037057600080fd5b505af1158015610384573d6000803e3d6000fd5b505050506040513d601f19601f820116820180604052508101906103a8919061079a565b50565b600080546040516370a0823160e01b81526001600160a01b03909116906370a08231906103dc9033906004016107f1565b60206040518083038186803b1580156103f457600080fd5b505afa158015610408573d6000803e3d6000fd5b505050506040513d601f19601f8201168201806040525081019061042c91906107d9565b116104495760405162461bcd60e51b81526004016101b49061086f565b6000546040516370a0823160e01b81526001600160a01b03909116906370a08231906104799033906004016107f1565b60206040518083038186803b15801561049157600080fd5b505afa1580156104a5573d6000803e3d6000fd5b505050506040513d601f19601f820116820180604052508101906104c991906107d9565b6001546040516370a0823160e01b81526001600160a01b03909116906370a08231906104f99030906004016107f1565b60206040518083038186803b15801561051157600080fd5b505afa158015610525573d6000803e3d6000fd5b505050506040513d601f19601f8201168201806040525081019061054991906107d9565b116105665760405162461bcd60e51b81526004016101b4906108d9565b600080546040516370a0823160e01b81526001600160a01b03909116906370a08231906105979033906004016107f1565b60206040518083038186803b1580156105af57600080fd5b505afa1580156105c3573d6000803e3d6000fd5b505050506040513d601f19601f820116820180604052508101906105e791906107d9565b6000546040516323b872dd60e01b81529192506001600160a01b0316906323b872dd9061061c90339030908690600401610805565b602060405180830381600087803b15801561063657600080fd5b505af115801561064a573d6000803e3d6000fd5b505050506040513d601f19601f8201168201806040525081019061066e919061079a565b5060015460405163095ea7b360e01b81526001600160a01b039091169063095ea7b3906106a19033908590600401610829565b602060405180830381600087803b1580156106bb57600080fd5b505af11580156106cf573d6000803e3d6000fd5b505050506040513d601f19601f820116820180604052508101906106f3919061079a565b506001546040516323b872dd60e01b81526001600160a01b03909116906323b872dd906107299030903390600a90600401610805565b602060405180830381600087803b15801561074357600080fd5b505af1158015610757573d6000803e3d6000fd5b505050506040513d601f19601f8201168201806040525081019061077b919061079a565b5050565b6003602052600090815260409020546001600160a01b031681565b6000602082840312156107ab578081fd5b815180151581146107ba578182fd5b9392505050565b6000602082840312156107d2578081fd5b5035919050565b6000602082840312156107ea578081fd5b5051919050565b6001600160a01b0391909116815260200190565b6001600160a01b039384168152919092166020820152604081019190915260600190565b6001600160a01b03929092168252602082015260400190565b60208082526013908201527221b0b63632b91034b9903737ba1037bbb732b960691b604082015260600190565b60208082526044908201527f4f776e65722073686f756c64206861766520736f6d65206472657820746f6b6560408201527f6e7320746f20636f6e76657274207468656d20696e746f20737461626c6520636060820152636f696e7360e01b608082015260a00190565b60208082526017908201527f6e6f7420656e6f75676820737461626c6520636f696e73000000000000000000604082015260600190565b60208082526022908201527f42616c616e6365206e6f7420656e6f7567682c706c6561736520726563686172604082015261676560f01b60608201526080019056fea2646970667358221220c452b618e3dc60849ba2715453f6d63d5c388a3f40bccc77e146f58106ce143964736f6c63430008010033","bytecodeSha1":"75a82d93765d198e26f26121b2fbc734d24fda50","type":"contract","abi":[{"inputs":[{"internalType":"address","name":"stable_coin_address","type":"address"},{"internalType":"address","name":"drex_token_address","type":"address"}],"stateMutability":"nonpayable","type":"constructor","name":"constructor"},{"anonymous":false,"inputs":[{"indexed":false,"internalType":"address","name":"_destAddr","type":"address"},{"indexed":false,"internalType":"uint256","name":"_amount","type":"uint256"}],"name":"TransferSent","type":"event"},{"inputs":[],"name":"drex_stable","outputs":[{"internalType":"contract DRExStable","name":"","type":"address"}],"stateMutability":"view","type":"function"},{"inputs":[],"name":"drex_token","outputs":[{"internalType":"contract DRExToken","name":"","type":"address"}],"stateMutability":"view","type":"function"},{"inputs":[{"internalType":"uint256","name":"amount","type":"uint256"}],"name":"pay_fees","outputs":[],"stateMutability":"payable","type":"function"},{"inputs":[],"name":"redeem","outputs":[],"stateMutability":"nonpayable","type":"function"},{"inputs":[{"internalType":"bytes32","name":"","type":"bytes32"}],"name":"reqTosender","outputs":[{"internalType":"address","name":"","type":"address"}],"stateMutability":"view","type":"function"},{"inputs":[],"name":"transfer_to_owner","outputs":[],"stateMutability":"nonpayable","type":"function"}],"compiler":{"version":"0.8.1+commit.df193b15","evm_version":"istanbul","optimizer":{"enabled":true,"runs":200}},"contractName":"DrexTreasury","language":"Solidity","natspec":{"methods":{"pay_fees(uint256)":{"notice":"This function is used to by the smes to send payments for the gas they have used","params":{"amount":"--> the amount smes will be paying"}},"redeem()":{"notice":"This function is used by nft owner to convert their drexTokens to drexStable coins"}},"kind":"dev","version":1},"opcodes":"PUSH1 0x80 PUSH1 0x40 MSTORE PUSH1 0x4 CALLDATASIZE LT PUSH2 0x55 JUMPI PUSH1 0x0 CALLDATALOAD PUSH1 0xE0 SHR DUP1 PUSH4 0x25046E68 EQ PUSH2 0x5A JUMPI DUP1 PUSH4 0x364C6AB8 EQ PUSH2 0x85 JUMPI DUP1 PUSH4 0x3FFAF5C6 EQ PUSH2 0x9A JUMPI DUP1 PUSH4 0xA3D0B404 EQ PUSH2 0xAF JUMPI DUP1 PUSH4 0xBE040FB0 EQ PUSH2 0xC4 JUMPI DUP1 PUSH4 0xFDFECF8A EQ PUSH2 0xD9 JUMPI JUMPDEST PUSH1 0x0 DUP1 REVERT JUMPDEST CALLVALUE DUP1 ISZERO PUSH2 0x66 JUMPI PUSH1 0x0 DUP1 REVERT JUMPDEST POP PUSH2 0x6F PUSH2 0xF9 JUMP JUMPDEST PUSH1 0x40 MLOAD PUSH2 0x7C SWAP2 SWAP1 PUSH2 0x7F1 JUMP JUMPDEST PUSH1 0x40 MLOAD DUP1 SWAP2 SUB SWAP1 RETURN JUMPDEST CALLVALUE DUP1 ISZERO PUSH2 0x91 JUMPI PUSH1 0x0 DUP1 REVERT JUMPDEST POP PUSH2 0x6F PUSH2 0x108 JUMP JUMPDEST PUSH2 0xAD PUSH2 0xA8 CALLDATASIZE PUSH1 0x4 PUSH2 0x7C1 JUMP JUMPDEST PUSH2 0x117 JUMP JUMPDEST STOP JUMPDEST CALLVALUE DUP1 ISZERO PUSH2 0xBB JUMPI PUSH1 0x0 DUP1 REVERT JUMPDEST POP PUSH2 0xAD PUSH2 0x282 JUMP JUMPDEST CALLVALUE DUP1 ISZERO PUSH2 0xD0 JUMPI PUSH1 0x0 DUP1 REVERT JUMPDEST POP PUSH2 0xAD PUSH2 0x3AB JUMP JUMPDEST CALLVALUE DUP1 ISZERO PUSH2 0xE5 JUMPI PUSH1 0x0 DUP1 REVERT JUMPDEST POP PUSH2 0x6F PUSH2 0xF4 CALLDATASIZE PUSH1 0x4 PUSH2 0x7C1 JUMP JUMPDEST PUSH2 0x77F JUMP JUMPDEST PUSH1 0x0 SLOAD PUSH1 0x1 PUSH1 0x1 PUSH1 0xA0 SHL SUB AND DUP2 JUMP JUMPDEST PUSH1 0x1 SLOAD PUSH1 0x1 PUSH1 0x1 PUSH1 0xA0 SHL SUB AND DUP2 JUMP JUMPDEST PUSH1 0x1 SLOAD PUSH1 0x40 MLOAD PUSH4 0x70A08231 PUSH1 0xE0 SHL DUP2 MSTORE DUP3 SWAP2 PUSH1 0x1 PUSH1 0x1 PUSH1 0xA0 SHL SUB AND SWAP1 PUSH4 0x70A08231 SWAP1 PUSH2 0x147 SWAP1 CALLER SWAP1 PUSH1 0x4 ADD PUSH2 0x7F1 JUMP JUMPDEST PUSH1 0x20 PUSH1 0x40 MLOAD DUP1 DUP4 SUB DUP2 DUP7 DUP1 EXTCODESIZE ISZERO DUP1 ISZERO PUSH2 0x15F JUMPI PUSH1 0x0 DUP1 REVERT JUMPDEST POP GAS STATICCALL ISZERO DUP1 ISZERO PUSH2 0x173 JUMPI RETURNDATASIZE PUSH1 0x0 DUP1 RETURNDATACOPY RETURNDATASIZE PUSH1 0x0 REVERT JUMPDEST POP POP POP POP PUSH1 0x40 MLOAD RETURNDATASIZE PUSH1 0x1F NOT PUSH1 0x1F DUP3 ADD AND DUP3 ADD DUP1 PUSH1 0x40 MSTORE POP DUP2 ADD SWAP1 PUSH2 0x197 SWAP2 SWAP1 PUSH2 0x7D9 JUMP JUMPDEST GT PUSH2 0x1BD JUMPI PUSH1 0x40 MLOAD PUSH3 0x461BCD PUSH1 0xE5 SHL DUP2 MSTORE PUSH1 0x4 ADD PUSH2 0x1B4 SWAP1 PUSH2 0x910 JUMP JUMPDEST PUSH1 0x40 MLOAD DUP1 SWAP2 SUB SWAP1 REVERT JUMPDEST PUSH1 0x1 SLOAD PUSH1 0x40 MLOAD PUSH4 0x23B872DD PUSH1 0xE0 SHL DUP2 MSTORE PUSH1 0x1 PUSH1 0x1 PUSH1 0xA0 SHL SUB SWAP1 SWAP2 AND SWAP1 PUSH4 0x23B872DD SWAP1 PUSH2 0x1F1 SWAP1 CALLER SWAP1 ADDRESS SWAP1 DUP7 SWAP1 PUSH1 0x4 ADD PUSH2 0x805 JUMP JUMPDEST PUSH1 0x20 PUSH1 0x40 MLOAD DUP1 DUP4 SUB DUP2 PUSH1 0x0 DUP8 DUP1 EXTCODESIZE ISZERO DUP1 ISZERO PUSH2 0x20B JUMPI PUSH1 0x0 DUP1 REVERT JUMPDEST POP GAS CALL ISZERO DUP1 ISZERO PUSH2 0x21F JUMPI RETURNDATASIZE PUSH1 0x0 DUP1 RETURNDATACOPY RETURNDATASIZE PUSH1 0x0 REVERT JUMPDEST POP POP POP POP PUSH1 0x40 MLOAD RETURNDATASIZE PUSH1 0x1F NOT PUSH1 0x1F DUP3 ADD AND DUP3 ADD DUP1 PUSH1 0x40 MSTORE POP DUP2 ADD SWAP1 PUSH2 0x243 SWAP2 SWAP1 PUSH2 0x79A JUMP JUMPDEST POP PUSH32 0x8AA89C45E00B1DC8BEFA3736E4D341042A1CD0021A629920526985A6028F7525 ADDRESS PUSH1 0x4 SLOAD PUSH1 0x40 MLOAD PUSH2 0x277 SWAP3 SWAP2 SWAP1 PUSH2 0x829 JUMP JUMPDEST PUSH1 0x40 MLOAD DUP1 SWAP2 SUB SWAP1 LOG1 POP JUMP JUMPDEST PUSH1 0x2 SLOAD PUSH1 0x1 PUSH1 0x1 PUSH1 0xA0 SHL SUB AND CALLER EQ PUSH2 0x2AC JUMPI PUSH1 0x40 MLOAD PUSH3 0x461BCD PUSH1 0xE5 SHL DUP2 MSTORE PUSH1 0x4 ADD PUSH2 0x1B4 SWAP1 PUSH2 0x842 JUMP JUMPDEST PUSH1 0x0 SLOAD PUSH1 0x2 SLOAD PUSH1 0x40 MLOAD PUSH4 0x70A08231 PUSH1 0xE0 SHL DUP2 MSTORE PUSH1 0x1 PUSH1 0x1 PUSH1 0xA0 SHL SUB SWAP3 DUP4 AND SWAP3 PUSH4 0x95EA7B3 SWAP3 AND SWAP1 DUP4 SWAP1 PUSH4 0x70A08231 SWAP1 PUSH2 0x2E9 SWAP1 ADDRESS SWAP1 PUSH1 0x4 ADD PUSH2 0x7F1 JUMP JUMPDEST PUSH1 0x20 PUSH1 0x40 MLOAD DUP1 DUP4 SUB DUP2 DUP7 DUP1 EXTCODESIZE ISZERO DUP1 ISZERO PUSH2 0x301 JUMPI PUSH1 0x0 DUP1 REVERT JUMPDEST POP GAS STATICCALL ISZERO DUP1 ISZERO PUSH2 0x315 JUMPI RETURNDATASIZE PUSH1 0x0 DUP1 RETURNDATACOPY RETURNDATASIZE PUSH1 0x0 REVERT JUMPDEST POP POP POP POP PUSH1 0x40 MLOAD RETURNDATASIZE PUSH1 0x1F NOT PUSH1 0x1F DUP3 ADD AND DUP3 ADD DUP1 PUSH1 0x40 MSTORE POP DUP2 ADD SWAP1 PUSH2 0x339 SWAP2 SWAP1 PUSH2 0x7D9 JUMP JUMPDEST PUSH1 0x40 MLOAD DUP4 PUSH4 0xFFFFFFFF AND PUSH1 0xE0 SHL DUP2 MSTORE PUSH1 0x4 ADD PUSH2 0x356 SWAP3 SWAP2 SWAP1 PUSH2 0x829 JUMP JUMPDEST PUSH1 0x20 PUSH1 0x40 MLOAD DUP1 DUP4 SUB DUP2 PUSH1 0x0 DUP8 DUP1 EXTCODESIZE ISZERO DUP1 ISZERO PUSH2 0x370 JUMPI PUSH1 0x0 DUP1 REVERT JUMPDEST POP GAS CALL ISZERO DUP1 ISZERO PUSH2 0x384 JUMPI RETURNDATASIZE PUSH1 0x0 DUP1 RETURNDATACOPY RETURNDATASIZE PUSH1 0x0 REVERT JUMPDEST POP POP POP POP PUSH1 0x40 MLOAD RETURNDATASIZE PUSH1 0x1F NOT PUSH1 0x1F DUP3 ADD AND DUP3 ADD DUP1 PUSH1 0x40 MSTORE POP DUP2 ADD SWAP1 PUSH2 0x3A8 SWAP2 SWAP1 PUSH2 0x79A JUMP JUMPDEST POP JUMP JUMPDEST PUSH1 0x0 DUP1 SLOAD PUSH1 0x40 MLOAD PUSH4 0x70A08231 PUSH1 0xE0 SHL DUP2 MSTORE PUSH1 0x1 PUSH1 0x1 PUSH1 0xA0 SHL SUB SWAP1 SWAP2 AND SWAP1 PUSH4 0x70A08231 SWAP1 PUSH2 0x3DC SWAP1 CALLER SWAP1 PUSH1 0x4 ADD PUSH2 0x7F1 JUMP JUMPDEST PUSH1 0x20 PUSH1 0x40 MLOAD DUP1 DUP4 SUB DUP2 DUP7 DUP1 EXTCODESIZE ISZERO DUP1 ISZERO PUSH2 0x3F4 JUMPI PUSH1 0x0 DUP1 REVERT JUMPDEST POP GAS STATICCALL ISZERO DUP1 ISZERO PUSH2 0x408 JUMPI RETURNDATASIZE PUSH1 0x0 DUP1 RETURNDATACOPY RETURNDATASIZE PUSH1 0x0 REVERT JUMPDEST POP POP POP POP PUSH1 0x40 MLOAD RETURNDATASIZE PUSH1 0x1F NOT PUSH1 0x1F DUP3 ADD AND DUP3 ADD DUP1 PUSH1 0x40 MSTORE POP DUP2 ADD SWAP1 PUSH2 0x42C SWAP2 SWAP1 PUSH2 0x7D9 JUMP JUMPDEST GT PUSH2 0x449 JUMPI PUSH1 0x40 MLOAD PUSH3 0x461BCD PUSH1 0xE5 SHL DUP2 MSTORE PUSH1 0x4 ADD PUSH2 0x1B4 SWAP1 PUSH2 0x86F JUMP JUMPDEST PUSH1 0x0 SLOAD PUSH1 0x40 MLOAD PUSH4 0x70A08231 PUSH1 0xE0 SHL DUP2 MSTORE PUSH1 0x1 PUSH1 0x1 PUSH1 0xA0 SHL SUB SWAP1 SWAP2 AND SWAP1 PUSH4 0x70A08231 SWAP1 PUSH2 0x479 SWAP1 CALLER SWAP1 PUSH1 0x4 ADD PUSH2 0x7F1 JUMP JUMPDEST PUSH1 0x20 PUSH1 0x40 MLOAD DUP1 DUP4 SUB DUP2 DUP7 DUP1 EXTCODESIZE ISZERO DUP1 ISZERO PUSH2 0x491 JUMPI PUSH1 0x0 DUP1 REVERT JUMPDEST POP GAS STATICCALL ISZERO DUP1 ISZERO PUSH2 0x4A5 JUMPI RETURNDATASIZE PUSH1 0x0 DUP1 RETURNDATACOPY RETURNDATASIZE PUSH1 0x0 REVERT JUMPDEST POP POP POP POP PUSH1 0x40 MLOAD RETURNDATASIZE PUSH1 0x1F NOT PUSH1 0x1F DUP3 ADD AND DUP3 ADD DUP1 PUSH1 0x40 MSTORE POP DUP2 ADD SWAP1 PUSH2 0x4C9 SWAP2 SWAP1 PUSH2 0x7D9 JUMP JUMPDEST PUSH1 0x1 SLOAD PUSH1 0x40 MLOAD PUSH4 0x70A08231 PUSH1 0xE0 SHL DUP2 MSTORE PUSH1 0x1 PUSH1 0x1 PUSH1 0xA0 SHL SUB SWAP1 SWAP2 AND SWAP1 PUSH4 0x70A08231 SWAP1 PUSH2 0x4F9 SWAP1 ADDRESS SWAP1 PUSH1 0x4 ADD PUSH2 0x7F1 JUMP JUMPDEST PUSH1 0x20 PUSH1 0x40 MLOAD DUP1 DUP4 SUB DUP2 DUP7 DUP1 EXTCODESIZE ISZERO DUP1 ISZERO PUSH2 0x511 JUMPI PUSH1 0x0 DUP1 REVERT JUMPDEST POP GAS STATICCALL ISZERO DUP1 ISZERO PUSH2 0x525 JUMPI RETURNDATASIZE PUSH1 0x0 DUP1 RETURNDATACOPY RETURNDATASIZE PUSH1 0x0 REVERT JUMPDEST POP POP POP POP PUSH1 0x40 MLOAD RETURNDATASIZE PUSH1 0x1F NOT PUSH1 0x1F DUP3 ADD AND DUP3 ADD DUP1 PUSH1 0x40 MSTORE POP DUP2 ADD SWAP1 PUSH2 0x549 SWAP2 SWAP1 PUSH2 0x7D9 JUMP JUMPDEST GT PUSH2 0x566 JUMPI PUSH1 0x40 MLOAD PUSH3 0x461BCD PUSH1 0xE5 SHL DUP2 MSTORE PUSH1 0x4 ADD PUSH2 0x1B4 SWAP1 PUSH2 0x8D9 JUMP JUMPDEST PUSH1 0x0 DUP1 SLOAD PUSH1 0x40 MLOAD PUSH4 0x70A08231 PUSH1 0xE0 SHL DUP2 MSTORE PUSH1 0x1 PUSH1 0x1 PUSH1 0xA0 SHL SUB SWAP1 SWAP2 AND SWAP1 PUSH4 0x70A08231 SWAP1 PUSH2 0x597 SWAP1 CALLER SWAP1 PUSH1 0x4 ADD PUSH2 0x7F1 JUMP JUMPDEST PUSH1 0x20 PUSH1 0x40 MLOAD DUP1 DUP4 SUB DUP2 DUP7 DUP1 EXTCODESIZE ISZERO DUP1 ISZERO PUSH2 0x5AF JUMPI PUSH1 0x0 DUP1 REVERT JUMPDEST POP GAS STATICCALL ISZERO DUP1 ISZERO PUSH2 0x5C3 JUMPI RETURNDATASIZE PUSH1 0x0 DUP1 RETURNDATACOPY RETURNDATASIZE PUSH1 0x0 REVERT JUMPDEST POP POP POP POP PUSH1 0x40 MLOAD RETURNDATASIZE PUSH1 0x1F NOT PUSH1 0x1F DUP3 ADD AND DUP3 ADD DUP1 PUSH1 0x40 MSTORE POP DUP2 ADD SWAP1 PUSH2 0x5E7 SWAP2 SWAP1 PUSH2 0x7D9 JUMP JUMPDEST PUSH1 0x0 SLOAD PUSH1 0x40 MLOAD PUSH4 0x23B872DD PUSH1 0xE0 SHL DUP2 MSTORE SWAP2 SWAP3 POP PUSH1 0x1 PUSH1 0x1 PUSH1 0xA0 SHL SUB AND SWAP1 PUSH4 0x23B872DD SWAP1 PUSH2 0x61C SWAP1 CALLER SWAP1 ADDRESS SWAP1 DUP7 SWAP1 PUSH1 0x4 ADD PUSH2 0x805 JUMP JUMPDEST PUSH1 0x20 PUSH1 0x40 MLOAD DUP1 DUP4 SUB DUP2 PUSH1 0x0 DUP8 DUP1 EXTCODESIZE ISZERO DUP1 ISZERO PUSH2 0x636 JUMPI PUSH1 0x0 DUP1 REVERT JUMPDEST POP GAS CALL ISZERO DUP1 ISZERO PUSH2 0x64A JUMPI RETURNDATASIZE PUSH1 0x0 DUP1 RETURNDATACOPY RETURNDATASIZE PUSH1 0x0 REVERT JUMPDEST POP POP POP POP PUSH1 0x40 MLOAD RETURNDATASIZE PUSH1 0x1F NOT PUSH1 0x1F DUP3 ADD AND DUP3 ADD DUP1 PUSH1 0x40 MSTORE POP DUP2 ADD SWAP1 PUSH2 0x66E SWAP2 SWAP1 PUSH2 0x79A JUMP JUMPDEST POP PUSH1 0x1 SLOAD PUSH1 0x40 MLOAD PUSH4 0x95EA7B3 PUSH1 0xE0 SHL DUP2 MSTORE PUSH1 0x1 PUSH1 0x1 PUSH1 0xA0 SHL SUB SWAP1 SWAP2 AND SWAP1 PUSH4 0x95EA7B3 SWAP1 PUSH2 0x6A1 SWAP1 CALLER SWAP1 DUP6 SWAP1 PUSH1 0x4 ADD PUSH2 0x829 JUMP JUMPDEST PUSH1 0x20 PUSH1 0x40 MLOAD DUP1 DUP4 SUB DUP2 PUSH1 0x0 DUP8 DUP1 EXTCODESIZE ISZERO DUP1 ISZERO PUSH2 0x6BB JUMPI PUSH1 0x0 DUP1 REVERT JUMPDEST POP GAS CALL ISZERO DUP1 ISZERO PUSH2 0x6CF JUMPI RETURNDATASIZE PUSH1 0x0 DUP1 RETURNDATACOPY RETURNDATASIZE PUSH1 0x0 REVERT JUMPDEST POP POP POP POP PUSH1 0x40 MLOAD RETURNDATASIZE PUSH1 0x1F NOT PUSH1 0x1F DUP3 ADD AND DUP3 ADD DUP1 PUSH1 0x40 MSTORE POP DUP2 ADD SWAP1 PUSH2 0x6F3 SWAP2 SWAP1 PUSH2 0x79A JUMP JUMPDEST POP PUSH1 0x1 SLOAD PUSH1 0x40 MLOAD PUSH4 0x23B872DD PUSH1 0xE0 SHL DUP2 MSTORE PUSH1 0x1 PUSH1 0x1 PUSH1 0xA0 SHL SUB SWAP1 SWAP2 AND SWAP1 PUSH4 0x23B872DD SWAP1 PUSH2 0x729 SWAP1 ADDRESS SWAP1 CALLER SWAP1 PUSH1 0xA SWAP1 PUSH1 0x4 ADD PUSH2 0x805 JUMP JUMPDEST PUSH1 0x20 PUSH1 0x40 MLOAD DUP1 DUP4 SUB DUP2 PUSH1 0x0 DUP8 DUP1 EXTCODESIZE ISZERO DUP1 ISZERO PUSH2 0x743 JUMPI PUSH1 0x0 DUP1 REVERT JUMPDEST POP GAS CALL ISZERO DUP1 ISZERO PUSH2 0x757 JUMPI RETURNDATASIZE PUSH1 0x0 DUP1 RETURNDATACOPY RETURNDATASIZE PUSH1 0x0 REVERT JUMPDEST POP POP POP POP PUSH1 0x40 MLOAD RETURNDATASIZE PUSH1 0x1F NOT PUSH1 0x1F DUP3 ADD AND DUP3 ADD DUP1 PUSH1 0x40 MSTORE POP DUP2 ADD SWAP1 PUSH2 0x77B SWAP2 SWAP1 PUSH2 0x79A JUMP JUMPDEST POP POP JUMP JUMPDEST PUSH1 0x3 PUSH1 0x20 MSTORE PUSH1 0x0 SWAP1 DUP2 MSTORE PUSH1 0x40 SWAP1 KECCAK256 SLOAD PUSH1 0x1 PUSH1 0x1 PUSH1 0xA0 SHL SUB AND DUP2 JUMP JUMPDEST PUSH1 0x0 PUSH1 0x20 DUP3 DUP5 SUB SLT ISZERO PUSH2 0x7AB JUMPI DUP1 DUP2 REVERT JUMPDEST DUP2 MLOAD DUP1 ISZERO ISZERO DUP2 EQ PUSH2 0x7BA JUMPI DUP2 DUP3 REVERT JUMPDEST SWAP4 SWAP3 POP POP POP JUMP JUMPDEST PUSH1 0x0 PUSH1 0x20 DUP3 DUP5 SUB SLT ISZERO PUSH2 0x7D2 JUMPI DUP1 DUP2 REVERT JUMPDEST POP CALLDATALOAD SWAP2 SWAP1 POP JUMP JUMPDEST PUSH1 0x0 PUSH1 0x20 DUP3 DUP5 SUB SLT ISZERO PUSH2 0x7EA JUMPI DUP1 DUP2 REVERT JUMPDEST POP MLOAD SWAP2 SWAP1 POP JUMP JUMPDEST PUSH1 0x1 PUSH1 0x1 PUSH1 0xA0 SHL SUB SWAP2 SWAP1 SWAP2 AND DUP2 MSTORE PUSH1 0x20 ADD SWAP1 JUMP JUMPDEST PUSH1 0x1 PUSH1 0x1 PUSH1 0xA0 SHL SUB SWAP4 DUP5 AND DUP2 MSTORE SWAP2 SWAP1 SWAP3 AND PUSH1 0x20 DUP3 ADD MSTORE PUSH1 0x40 DUP2 ADD SWAP2 SWAP1 SWAP2 MSTORE PUSH1 0x60 ADD SWAP1 JUMP JUMPDEST PUSH1 0x1 PUSH1 0x1 PUSH1 0xA0 SHL SUB SWAP3 SWAP1 SWAP3 AND DUP3 MSTORE PUSH1 0x20 DUP3 ADD MSTORE PUSH1 0x40 ADD SWAP1 JUMP JUMPDEST PUSH1 0x20 DUP1 DUP3 MSTORE PUSH1 0x13 SWAP1 DUP3 ADD MSTORE PUSH19 0x21B0B63632B91034B9903737BA1037BBB732B9 PUSH1 0x69 SHL PUSH1 0x40 DUP3 ADD MSTORE PUSH1 0x60 ADD SWAP1 JUMP JUMPDEST PUSH1 0x20 DUP1 DUP3 MSTORE PUSH1 0x44 SWAP1 DUP3 ADD MSTORE PUSH32 0x4F776E65722073686F756C64206861766520736F6D65206472657820746F6B65 PUSH1 0x40 DUP3 ADD MSTORE PUSH32 0x6E7320746F20636F6E76657274207468656D20696E746F20737461626C652063 PUSH1 0x60 DUP3 ADD MSTORE PUSH4 0x6F696E73 PUSH1 0xE0 SHL PUSH1 0x80 DUP3 ADD MSTORE PUSH1 0xA0 ADD SWAP1 JUMP JUMPDEST PUSH1 0x20 DUP1 DUP3 MSTORE PUSH1 0x17 SWAP1 DUP3 ADD MSTORE PUSH32 0x6E6F7420656E6F75676820737461626C6520636F696E73000000000000000000 PUSH1 0x40 DUP3 ADD MSTORE PUSH1 0x60 ADD SWAP1 JUMP JUMPDEST PUSH1 0x20 DUP1 DUP3 MSTORE PUSH1 0x22 SWAP1 DUP3 ADD MSTORE PUSH32 0x42616C616E6365206E6F7420656E6F7567682C706C6561736520726563686172 PUSH1 0x40 DUP3 ADD MSTORE PUSH2 0x6765 PUSH1 0xF0 SHL PUSH1 0x60 DUP3 ADD MSTORE PUSH1 0x80 ADD SWAP1 JUMP INVALID LOG2 PUSH5 0x6970667358 0x22 SLT KECCAK256 0xC4 MSTORE 0xB6 XOR 0xE3 0xDC PUSH1 0x84 SWAP12 LOG2 PUSH18 0x5453F6D63D5C388A3F40BCCC77E146F58106 0xCE EQ CODECOPY PUSH5 0x736F6C6343 STOP ADDMOD ADD STOP CALLER ","sha1":"68ea79195981ef4b13d78ceb30db05d28be0581b","source":"// SPDX-License-Identifier: MIT\npragma solidity 0.8.1;\nimport \"@openzeppelin/contracts/token/ERC20/IERC20.sol\";\nimport \"./Our_ERC20.sol\";\nimport \"./Drex_stableCoin.sol\";\n\ncontract DrexTreasury {\n    //varibales required in smart contract\n    // IERC20 private drex_stable;\n    // IERC20 private drex_tokens;\n    DRExToken public drex_token;\n    DRExStable public drex_stable;\n    address private owner;\n    mapping(bytes32 => address) public reqTosender;\n    uint256 random_amount;\n\n    // events\n    event TransferSent(address _destAddr, uint256 _amount);\n\n    constructor(address stable_coin_address, address drex_token_address)\n        public\n    {\n        drex_stable = DRExStable(stable_coin_address);\n        drex_token = DRExToken(drex_token_address);\n        owner = msg.sender;\n    }\n\n    modifier isOwner() {\n        require(msg.sender == owner, \"Caller is not owner\");\n        _;\n    }\n\n    /// @notice  This function is used to by the smes to send payments for the gas they have used\n    /// @param amount --> the amount smes will be paying\n    function pay_fees(uint256 amount) public payable {\n        require(\n            drex_stable.balanceOf(msg.sender) > amount,\n            \"Balance not enough,please recharge\"\n        );\n\n        drex_stable.transferFrom(msg.sender, address(this), amount);\n        emit TransferSent(address(this), random_amount);\n    }\n\n    //wallet of owener --> 100 drexCoins ---> 100drexCoins and in return they will  get 100drexStablecoins\n\n    /// @notice This function is used by nft owner to convert their drexTokens to drexStable coins\n\n    function redeem() public {\n        require(\n            drex_token.balanceOf(msg.sender) > 0,\n            \"Owner should have some drex tokens to convert them into stable coins\"\n        );\n        require(\n            drex_stable.balanceOf(address(this)) >\n                drex_token.balanceOf(msg.sender),\n            \"not enough stable coins\"\n        );\n        uint256 total_transfer = drex_token.balanceOf(msg.sender);\n        drex_token.transferFrom(msg.sender, address(this), total_transfer);\n\n        //approving the user to take the drex_token\n        drex_stable.approve(msg.sender, total_transfer);\n        drex_stable.transferFrom(address(this), address(msg.sender), 10);\n        //call the tranferfrom contract to the user from outside this fucntion\n    }\n\n    function transfer_to_owner() public isOwner {\n        drex_token.approve(owner, drex_token.balanceOf(address(this)));\n    }\n}\n","sourcePath":"contracts/Drex_treasury.sol","deployment":{"address":"0x70Dbe0B865555449D65Bb917810AB43186A5c3eC","chainid":"1287","blockHeight":3411640}}