{"abi":[{"inputs":[{"internalType":"address","name":"erc_token_address","type":"address"},{"internalType":"contract IERC20","name":"dai_token_address","type":"address"},{"internalType":"address[]","name":"prevContracts","type":"address[]"},{"internalType":"uint256","name":"no_of_nfts","type":"uint256"}],"stateMutability":"nonpayable","type":"constructor","name":"constructor"},{"anonymous":false,"inputs":[{"indexed":true,"internalType":"address","name":"owner","type":"address"},{"indexed":true,"internalType":"address","name":"approved","type":"address"},{"indexed":true,"internalType":"uint256","name":"tokenId","type":"uint256"}],"name":"Approval","type":"event"},{"anonymous":false,"inputs":[{"indexed":true,"internalType":"address","name":"owner","type":"address"},{"indexed":true,"internalType":"address","name":"operator","type":"address"},{"indexed":false,"internalType":"bool","name":"approved","type":"bool"}],"name":"ApprovalForAll","type":"event"},{"anonymous":false,"inputs":[{"indexed":false,"internalType":"address","name":"_destAddr","type":"address"},{"indexed":false,"internalType":"uint256","name":"_amount","type":"uint256"}],"name":"CLAIM","type":"event"},{"anonymous":false,"inputs":[{"indexed":true,"internalType":"uint256","name":"requestId","type":"uint256"}],"name":"CREATE_NFT","type":"event"},{"anonymous":false,"inputs":[{"indexed":true,"internalType":"uint256","name":"requestId","type":"uint256"},{"indexed":false,"internalType":"uint256","name":"randomNumber","type":"uint256"}],"name":"MINT","type":"event"},{"anonymous":false,"inputs":[{"indexed":true,"internalType":"address","name":"from","type":"address"},{"indexed":true,"internalType":"address","name":"to","type":"address"},{"indexed":true,"internalType":"uint256","name":"tokenId","type":"uint256"}],"name":"Transfer","type":"event"},{"anonymous":false,"inputs":[{"indexed":false,"internalType":"uint256","name":"amount","type":"uint256"}],"name":"UPDATE_NFT_BALANCE","type":"event"},{"inputs":[],"name":"Admin","outputs":[{"internalType":"address","name":"","type":"address"}],"stateMutability":"view","type":"function"},{"inputs":[],"name":"RequestId","outputs":[{"internalType":"uint256","name":"","type":"uint256"}],"stateMutability":"view","type":"function"},{"inputs":[{"internalType":"address","name":"","type":"address"}],"name":"Wallets","outputs":[{"internalType":"bool","name":"","type":"bool"}],"stateMutability":"view","type":"function"},{"inputs":[],"name":"_token","outputs":[{"internalType":"address","name":"","type":"address"}],"stateMutability":"view","type":"function"},{"inputs":[],"name":"amount_to_send","outputs":[{"internalType":"uint256","name":"","type":"uint256"}],"stateMutability":"view","type":"function"},{"inputs":[{"internalType":"address","name":"to","type":"address"},{"internalType":"uint256","name":"tokenId","type":"uint256"}],"name":"approve","outputs":[],"stateMutability":"nonpayable","type":"function"},{"inputs":[{"internalType":"address","name":"owner","type":"address"}],"name":"balanceOf","outputs":[{"internalType":"uint256","name":"","type":"uint256"}],"stateMutability":"view","type":"function"},{"inputs":[],"name":"claim","outputs":[],"stateMutability":"nonpayable","type":"function"},{"inputs":[{"internalType":"string","name":"tokenURI","type":"string"}],"name":"create_nft","outputs":[],"stateMutability":"payable","type":"function"},{"inputs":[],"name":"fParticipation","outputs":[{"internalType":"uint256","name":"","type":"uint256"}],"stateMutability":"view","type":"function"},{"inputs":[{"internalType":"uint256","name":"tokenId","type":"uint256"}],"name":"getApproved","outputs":[{"internalType":"address","name":"","type":"address"}],"stateMutability":"view","type":"function"},{"inputs":[{"internalType":"address","name":"owner","type":"address"},{"internalType":"address","name":"operator","type":"address"}],"name":"isApprovedForAll","outputs":[{"internalType":"bool","name":"","type":"bool"}],"stateMutability":"view","type":"function"},{"inputs":[{"internalType":"uint256","name":"requestId","type":"uint256"},{"internalType":"uint256","name":"RandomNumber","type":"uint256"}],"name":"mint","outputs":[],"stateMutability":"nonpayable","type":"function"},{"inputs":[],"name":"name","outputs":[{"internalType":"string","name":"","type":"string"}],"stateMutability":"view","type":"function"},{"inputs":[],"name":"nft_count","outputs":[{"internalType":"uint256","name":"","type":"uint256"}],"stateMutability":"view","type":"function"},{"inputs":[{"internalType":"uint256","name":"tokenId","type":"uint256"}],"name":"ownerOf","outputs":[{"internalType":"address","name":"","type":"address"}],"stateMutability":"view","type":"function"},{"inputs":[{"internalType":"address","name":"","type":"address"}],"name":"ownerToValue","outputs":[{"internalType":"uint256","name":"","type":"uint256"}],"stateMutability":"view","type":"function"},{"inputs":[],"name":"participationCalculation","outputs":[],"stateMutability":"nonpayable","type":"function"},{"inputs":[{"internalType":"uint256","name":"","type":"uint256"}],"name":"participationValue","outputs":[{"internalType":"uint256","name":"","type":"uint256"}],"stateMutability":"view","type":"function"},{"inputs":[{"internalType":"uint256","name":"","type":"uint256"}],"name":"previousContracts","outputs":[{"internalType":"address","name":"","type":"address"}],"stateMutability":"view","type":"function"},{"inputs":[],"name":"randomNumber","outputs":[{"internalType":"uint256","name":"","type":"uint256"}],"stateMutability":"view","type":"function"},{"inputs":[{"internalType":"uint256","name":"","type":"uint256"}],"name":"requestIdToSender","outputs":[{"internalType":"address","name":"","type":"address"}],"stateMutability":"view","type":"function"},{"inputs":[{"internalType":"uint256","name":"","type":"uint256"}],"name":"requestIdToTokenId","outputs":[{"internalType":"uint256","name":"","type":"uint256"}],"stateMutability":"view","type":"function"},{"inputs":[{"internalType":"uint256","name":"","type":"uint256"}],"name":"requestIdToTokenURI","outputs":[{"internalType":"string","name":"","type":"string"}],"stateMutability":"view","type":"function"},{"inputs":[{"internalType":"address","name":"from","type":"address"},{"internalType":"address","name":"to","type":"address"},{"internalType":"uint256","name":"tokenId","type":"uint256"}],"name":"safeTransferFrom","outputs":[],"stateMutability":"nonpayable","type":"function"},{"inputs":[{"internalType":"address","name":"from","type":"address"},{"internalType":"address","name":"to","type":"address"},{"internalType":"uint256","name":"tokenId","type":"uint256"},{"internalType":"bytes","name":"data","type":"bytes"}],"name":"safeTransferFrom","outputs":[],"stateMutability":"nonpayable","type":"function"},{"inputs":[{"internalType":"address","name":"operator","type":"address"},{"internalType":"bool","name":"approved","type":"bool"}],"name":"setApprovalForAll","outputs":[],"stateMutability":"nonpayable","type":"function"},{"inputs":[{"internalType":"uint256","name":"tokenId","type":"uint256"},{"internalType":"string","name":"_tokenURI","type":"string"}],"name":"setTokenURI","outputs":[],"stateMutability":"nonpayable","type":"function"},{"inputs":[{"internalType":"address","name":"_wallet","type":"address"}],"name":"setWallet","outputs":[],"stateMutability":"nonpayable","type":"function"},{"inputs":[{"internalType":"bytes4","name":"interfaceId","type":"bytes4"}],"name":"supportsInterface","outputs":[{"internalType":"bool","name":"","type":"bool"}],"stateMutability":"view","type":"function"},{"inputs":[],"name":"symbol","outputs":[{"internalType":"string","name":"","type":"string"}],"stateMutability":"view","type":"function"},{"inputs":[],"name":"tokenCounter","outputs":[{"internalType":"uint256","name":"","type":"uint256"}],"stateMutability":"view","type":"function"},{"inputs":[{"internalType":"uint256","name":"","type":"uint256"}],"name":"tokenIdToBreed","outputs":[{"internalType":"enum AdvancedCollectible.Breed","name":"","type":"uint8"}],"stateMutability":"view","type":"function"},{"inputs":[{"internalType":"address","name":"","type":"address"}],"name":"tokenToOwner","outputs":[{"internalType":"uint256","name":"","type":"uint256"}],"stateMutability":"view","type":"function"},{"inputs":[{"internalType":"uint256","name":"tokenId","type":"uint256"}],"name":"tokenURI","outputs":[{"internalType":"string","name":"","type":"string"}],"stateMutability":"view","type":"function"},{"inputs":[],"name":"token_Id","outputs":[{"internalType":"uint256","name":"","type":"uint256"}],"stateMutability":"view","type":"function"},{"inputs":[{"internalType":"uint256","name":"","type":"uint256"}],"name":"tokenidToValue","outputs":[{"internalType":"uint256","name":"","type":"uint256"}],"stateMutability":"view","type":"function"},{"inputs":[],"name":"totalTokenTransfered","outputs":[{"internalType":"uint256","name":"","type":"uint256"}],"stateMutability":"view","type":"function"},{"inputs":[{"internalType":"address","name":"from","type":"address"},{"internalType":"address","name":"to","type":"address"},{"internalType":"uint256","name":"tokenId","type":"uint256"}],"name":"transferFrom","outputs":[],"stateMutability":"nonpayable","type":"function"},{"inputs":[{"internalType":"uint256","name":"amount","type":"uint256"}],"name":"update_nft_balance","outputs":[],"stateMutability":"nonpayable","type":"function"}],"bytecode":"60806040523480156200001157600080fd5b506040516200282a3803806200282a833981016040819052620000349162000251565b6040805180820182526004815263088a48ab60e31b602080830191825283518085019094526003845262088a4f60eb1b9084015281519192916200007b9160009162000112565b5080516200009190600190602084019062000112565b5050601880546001600160a01b03191633179055508151620000bb906012906020850190620001a1565b50600780546001600160a01b039586166001600160a01b03199182161790915560088054949095169316929092179092556001601655600a601755600060148190556013819055601991909155601a555062000393565b828054620001209062000357565b90600052602060002090601f0160209004810192826200014457600085556200018f565b82601f106200015f57805160ff19168380011785556200018f565b828001600101855582156200018f579182015b828111156200018f57825182559160200191906001019062000172565b506200019d929150620001f9565b5090565b8280548282559060005260206000209081019282156200018f579160200282015b828111156200018f57825182546001600160a01b0319166001600160a01b03909116178255602090920191600190910190620001c2565b5b808211156200019d5760008155600101620001fa565b6001600160a01b03811681146200022657600080fd5b50565b8051620002368162000210565b919050565b634e487b7160e01b600052604160045260246000fd5b600080600080608085870312156200026857600080fd5b8451620002758162000210565b809450506020808601516200028a8162000210565b60408701519094506001600160401b0380821115620002a857600080fd5b818801915088601f830112620002bd57600080fd5b815181811115620002d257620002d26200023b565b8060051b604051601f19603f83011681018181108582111715620002fa57620002fa6200023b565b60405291825284820192508381018501918b8311156200031957600080fd5b938501935b828510156200034257620003328562000229565b845293850193928501926200031e565b60609a909a0151989b979a5050505050505050565b600181811c908216806200036c57607f821691505b6020821081036200038d57634e487b7160e01b600052602260045260246000fd5b50919050565b61248780620003a36000396000f3fe60806040526004361061023a5760003560e01c80638e2de4d31161012e578063cbbc3c28116100ab578063e985e9c51161006f578063e985e9c5146106e1578063ecd0c0c31461072a578063f136d1971461074a578063fb96e64914610777578063ff1b636d1461078d57600080fd5b8063cbbc3c2814610638578063ccbac9f514610675578063d082e3811461068b578063deaa59df146106a1578063e7fefafe146106c157600080fd5b8063af154011116100f2578063af1540111461059d578063b38eb18c146105cd578063b88d4fde146105e3578063c6ce3bcd14610603578063c87b56dd1461061857600080fd5b80638e2de4d31461050957806395d89b411461053f5780639a23207214610554578063a22cb4651461056a578063a3bab2861461058a57600080fd5b806324e71743116101bc57806356cffecb1161018057806356cffecb1461047d5780636352211e1461049357806370a08231146104b357806373b0745f146104d35780638a774091146104e957600080fd5b806324e71743146103ce57806342842e0e146103fb57806345afc81f1461041b5780634dfb4c531461043b5780634e71d92d1461046857600080fd5b8063095ea7b311610203578063095ea7b31461031f57806315a9f7a514610341578063162094c41461036e5780631b2ef1ca1461038e57806323b872dd146103ae57600080fd5b806204586c1461023f57806301ffc9a71461026857806306fdde03146102985780630750b163146102ba578063081812fc146102e7575b600080fd5b34801561024b57600080fd5b50610255601b5481565b6040519081526020015b60405180910390f35b34801561027457600080fd5b50610288610283366004611dff565b6107ad565b604051901515815260200161025f565b3480156102a457600080fd5b506102ad6107ff565b60405161025f9190611e74565b3480156102c657600080fd5b506102556102d5366004611e87565b600c6020526000908152604090205481565b3480156102f357600080fd5b50610307610302366004611e87565b610891565b6040516001600160a01b03909116815260200161025f565b34801561032b57600080fd5b5061033f61033a366004611ebc565b6108b8565b005b34801561034d57600080fd5b5061025561035c366004611ee6565b600f6020526000908152604090205481565b34801561037a57600080fd5b5061033f610389366004611fad565b6109d2565b34801561039a57600080fd5b5061033f6103a9366004611ff4565b610a51565b3480156103ba57600080fd5b5061033f6103c9366004612016565b610bf4565b3480156103da57600080fd5b506102556103e9366004611e87565b60106020526000908152604090205481565b34801561040757600080fd5b5061033f610416366004612016565b610c25565b34801561042757600080fd5b50610307610436366004611e87565b610c40565b34801561044757600080fd5b50610255610456366004611ee6565b600d6020526000908152604090205481565b34801561047457600080fd5b5061033f610c6a565b34801561048957600080fd5b5061025560135481565b34801561049f57600080fd5b506103076104ae366004611e87565b610d9a565b3480156104bf57600080fd5b506102556104ce366004611ee6565b610dfa565b3480156104df57600080fd5b5061025560195481565b3480156104f557600080fd5b5061033f610504366004611e87565b610e80565b34801561051557600080fd5b50610307610524366004611e87565b6009602052600090815260409020546001600160a01b031681565b34801561054b57600080fd5b506102ad610f06565b34801561056057600080fd5b5061025560155481565b34801561057657600080fd5b5061033f610585366004612060565b610f15565b61033f610598366004612097565b610f20565b3480156105a957600080fd5b506102886105b8366004611ee6565b60116020526000908152604090205460ff1681565b3480156105d957600080fd5b50610255601a5481565b3480156105ef57600080fd5b5061033f6105fe3660046120cc565b6110ef565b34801561060f57600080fd5b5061033f611126565b34801561062457600080fd5b506102ad610633366004611e87565b6111da565b34801561064457600080fd5b50610668610653366004611e87565b600b6020526000908152604090205460ff1681565b60405161025f919061215e565b34801561068157600080fd5b5061025560175481565b34801561069757600080fd5b5061025560145481565b3480156106ad57600080fd5b5061033f6106bc366004611ee6565b6112ea565b3480156106cd57600080fd5b506102ad6106dc366004611e87565b61130e565b3480156106ed57600080fd5b506102886106fc366004612186565b6001600160a01b03918216600090815260056020908152604080832093909416825291909152205460ff1690565b34801561073657600080fd5b50600754610307906001600160a01b031681565b34801561075657600080fd5b50610255610765366004611e87565b600e6020526000908152604090205481565b34801561078357600080fd5b5061025560165481565b34801561079957600080fd5b50601854610307906001600160a01b031681565b60006001600160e01b031982166380ac58cd60e01b14806107de57506001600160e01b03198216635b5e139f60e01b145b806107f957506301ffc9a760e01b6001600160e01b03198316145b92915050565b60606000805461080e906121b9565b80601f016020809104026020016040519081016040528092919081815260200182805461083a906121b9565b80156108875780601f1061085c57610100808354040283529160200191610887565b820191906000526020600020905b81548152906001019060200180831161086a57829003601f168201915b5050505050905090565b600061089c826113a8565b506000908152600460205260409020546001600160a01b031690565b60006108c382610d9a565b9050806001600160a01b0316836001600160a01b0316036109355760405162461bcd60e51b815260206004820152602160248201527f4552433732313a20617070726f76616c20746f2063757272656e74206f776e656044820152603960f91b60648201526084015b60405180910390fd5b336001600160a01b0382161480610951575061095181336106fc565b6109c35760405162461bcd60e51b815260206004820152603d60248201527f4552433732313a20617070726f76652063616c6c6572206973206e6f7420746f60448201527f6b656e206f776e6572206f7220617070726f76656420666f7220616c6c000000606482015260840161092c565b6109cd838361140a565b505050565b6109dd335b83611478565b610a435760405162461bcd60e51b815260206004820152603160248201527f4552433732313a207472616e736665722063616c6c6572206973206e6f74206f6044820152701ddb995c881b9bdc88185c1c1c9bdd9959607a1b606482015260840161092c565b610a4d82826114f6565b5050565b600082815260096020908152604080832054600a909252822080546001600160a01b039092169291610a82906121b9565b80601f0160208091040260200160405190810160405280929190818152602001828054610aae906121b9565b8015610afb5780601f10610ad057610100808354040283529160200191610afb565b820191906000526020600020905b815481529060010190602001808311610ade57829003601f168201915b505060145460185494955093610b1f93506001600160a01b03169150839050611590565b610b2981836114f6565b610b32836112ea565b6000610b3f600186612209565b8015610b4d57610b4d612148565b6000838152600b602052604090208054919250829160ff19166001838015610b7757610b77612148565b02179055506000868152600c602090815260408083208590556001600160a01b0387168352600d9091529020829055601454610bb4906001612233565b60145560405185815286907fd996551a703bf267a3068bb00ce0d5967b05fbab9b7091219d8e95226e9e0e3d9060200160405180910390a2505050505050565b610bfe3382611478565b610c1a5760405162461bcd60e51b815260040161092c9061224b565b6109cd8383836115aa565b6109cd838383604051806020016040528060008152506110ef565b60128181548110610c5057600080fd5b6000918252602090912001546001600160a01b0316905081565b3360009081526011602052604090205460ff161515600114610cc75760405162461bcd60e51b81526020600482015260166024820152751cd95b99195c88191bdb9d081a1bdb190818481b999d60521b604482015260640161092c565b336000818152600d6020908152604080832054601b819055835260109091529081902054601a8190556007549151635bf6fa8960e01b81526004810184905260248101919091526001600160a01b03909116908190635bf6fa8990604401600060405180830381600087803b158015610d3f57600080fd5b505af1158015610d53573d6000803e3d6000fd5b5050601a546040805133815260208101929092527fcea16a2d83554574def1edf3ec1fb53f1373f7ebb1fa98fecdaa4268588793cc93500190505b60405180910390a15050565b6000818152600260205260408120546001600160a01b0316806107f95760405162461bcd60e51b8152602060048201526018602482015277115490cdcc8c4e881a5b9d985b1a59081d1bdad95b88125160421b604482015260640161092c565b60006001600160a01b038216610e645760405162461bcd60e51b815260206004820152602960248201527f4552433732313a2061646472657373207a65726f206973206e6f7420612076616044820152683634b21037bbb732b960b91b606482015260840161092c565b506001600160a01b031660009081526003602052604090205490565b600060195482610e909190612298565b905060005b601954811015610ed55760008181526010602052604081208054849290610ebd908490612233565b90915550819050610ecd816122ac565b915050610e95565b506040518281527f22712b798ae7934ec355d80da68e214e1ada67aa7c0ab551450dffeb27f10d2e90602001610d8e565b60606001805461080e906121b9565b610a4d33838361171b565b6008546040516370a0823160e01b815233600482015261c350916001600160a01b0316906370a0823190602401602060405180830381865afa158015610f6a573d6000803e3d6000fd5b505050506040513d601f19601f82011682018060405250810190610f8e91906122c5565b11610fdb5760405162461bcd60e51b815260206004820152601f60248201527f62616c616e6365206e6f7420656e6f7567687420746f206d696e74206e667400604482015260640161092c565b6008546040516323b872dd60e01b815233600482015230602482015261c35060448201526001600160a01b03909116906323b872dd906064016020604051808303816000875af1158015611033573d6000803e3d6000fd5b505050506040513d601f19601f8201168201806040525081019061105791906122de565b50601654600081815260096020908152604080832080546001600160a01b03191633179055600a8252909120835161109192850190611d50565b5061109e81601754610a51565b6016546110ac906001612233565b6016556017546110bd906001612233565b60175560405181907f29f8474dee2f5f19ab0c7b6f5136824047cd822e5c7bb7526df99d7c9258b07590600090a25050565b6110f8336109d7565b6111145760405162461bcd60e51b815260040161092c9061224b565b611120848484846117e9565b50505050565b6012546111755760405162461bcd60e51b815260206004820152601a60248201527f746869732069732074686520666972737420636f6e7472616374000000000000604482015260640161092c565b601254600090611186906001612233565b905060006019548261119891906122fb565b90506000816019546111aa9190612298565b905060006111b9846001612298565b905060026111c78284612233565b6111d19190612298565b60155550505050565b60606111e5826113a8565b600082815260066020526040812080546111fe906121b9565b80601f016020809104026020016040519081016040528092919081815260200182805461122a906121b9565b80156112775780601f1061124c57610100808354040283529160200191611277565b820191906000526020600020905b81548152906001019060200180831161125a57829003601f168201915b50505050509050600061129560408051602081019091526000815290565b905080516000036112a7575092915050565b8151156112d95780826040516020016112c192919061231a565b60405160208183030381529060405292505050919050565b6112e28461181c565b949350505050565b6001600160a01b03166000908152601160205260409020805460ff19166001179055565b600a6020526000908152604090208054611327906121b9565b80601f0160208091040260200160405190810160405280929190818152602001828054611353906121b9565b80156113a05780601f10611375576101008083540402835291602001916113a0565b820191906000526020600020905b81548152906001019060200180831161138357829003601f168201915b505050505081565b6000818152600260205260409020546001600160a01b03166114075760405162461bcd60e51b8152602060048201526018602482015277115490cdcc8c4e881a5b9d985b1a59081d1bdad95b88125160421b604482015260640161092c565b50565b600081815260046020526040902080546001600160a01b0319166001600160a01b038416908117909155819061143f82610d9a565b6001600160a01b03167f8c5be1e5ebec7d5bd14f71427d1e84f3dd0314c0f7b2291e5b200ac8c7c3b92560405160405180910390a45050565b60008061148483610d9a565b9050806001600160a01b0316846001600160a01b031614806114cb57506001600160a01b0380821660009081526005602090815260408083209388168352929052205460ff165b806112e25750836001600160a01b03166114e484610891565b6001600160a01b031614949350505050565b6000828152600260205260409020546001600160a01b03166115715760405162461bcd60e51b815260206004820152602e60248201527f45524337323155524953746f726167653a2055524920736574206f66206e6f6e60448201526d32bc34b9ba32b73a103a37b5b2b760911b606482015260840161092c565b600082815260066020908152604090912082516109cd92840190611d50565b610a4d828260405180602001604052806000815250611890565b826001600160a01b03166115bd82610d9a565b6001600160a01b0316146115e35760405162461bcd60e51b815260040161092c90612349565b6001600160a01b0382166116455760405162461bcd60e51b8152602060048201526024808201527f4552433732313a207472616e7366657220746f20746865207a65726f206164646044820152637265737360e01b606482015260840161092c565b61165283838360016118c3565b826001600160a01b031661166582610d9a565b6001600160a01b03161461168b5760405162461bcd60e51b815260040161092c90612349565b600081815260046020908152604080832080546001600160a01b03199081169091556001600160a01b0387811680865260038552838620805460001901905590871680865283862080546001019055868652600290945282852080549092168417909155905184937fddf252ad1be2c89b69c2b068fc378daa952ba7f163c4a11628f55a4df523b3ef91a4505050565b816001600160a01b0316836001600160a01b03160361177c5760405162461bcd60e51b815260206004820152601960248201527f4552433732313a20617070726f766520746f2063616c6c657200000000000000604482015260640161092c565b6001600160a01b03838116600081815260056020908152604080832094871680845294825291829020805460ff191686151590811790915591519182527f17307eab39ab6107e8899845ad3d59bd9653f200f220920489ca2b5937696c31910160405180910390a3505050565b6117f48484846115aa565b6118008484848461194b565b6111205760405162461bcd60e51b815260040161092c9061238e565b6060611827826113a8565b600061183e60408051602081019091526000815290565b9050600081511161185e5760405180602001604052806000815250611889565b8061186884611a4c565b60405160200161187992919061231a565b6040516020818303038152906040525b9392505050565b61189a8383611adf565b6118a7600084848461194b565b6109cd5760405162461bcd60e51b815260040161092c9061238e565b6001811115611120576001600160a01b03841615611909576001600160a01b038416600090815260036020526040812080548392906119039084906123e0565b90915550505b6001600160a01b03831615611120576001600160a01b03831660009081526003602052604081208054839290611940908490612233565b909155505050505050565b60006001600160a01b0384163b15611a4157604051630a85bd0160e11b81526001600160a01b0385169063150b7a029061198f9033908990889088906004016123f7565b6020604051808303816000875af19250505080156119ca575060408051601f3d908101601f191682019092526119c791810190612434565b60015b611a27573d8080156119f8576040519150601f19603f3d011682016040523d82523d6000602084013e6119fd565b606091505b508051600003611a1f5760405162461bcd60e51b815260040161092c9061238e565b805181602001fd5b6001600160e01b031916630a85bd0160e11b1490506112e2565b506001949350505050565b60606000611a5983611c78565b600101905060008167ffffffffffffffff811115611a7957611a79611f01565b6040519080825280601f01601f191660200182016040528015611aa3576020820181803683370190505b5090508181016020015b600019016f181899199a1a9b1b9c1cb0b131b232b360811b600a86061a8153600a8504945084611aad57509392505050565b6001600160a01b038216611b355760405162461bcd60e51b815260206004820181905260248201527f4552433732313a206d696e7420746f20746865207a65726f2061646472657373604482015260640161092c565b6000818152600260205260409020546001600160a01b031615611b9a5760405162461bcd60e51b815260206004820152601c60248201527f4552433732313a20746f6b656e20616c7265616479206d696e74656400000000604482015260640161092c565b611ba86000838360016118c3565b6000818152600260205260409020546001600160a01b031615611c0d5760405162461bcd60e51b815260206004820152601c60248201527f4552433732313a20746f6b656e20616c7265616479206d696e74656400000000604482015260640161092c565b6001600160a01b038216600081815260036020908152604080832080546001019055848352600290915280822080546001600160a01b0319168417905551839291907fddf252ad1be2c89b69c2b068fc378daa952ba7f163c4a11628f55a4df523b3ef908290a45050565b60008072184f03e93ff9f4daa797ed6e38ed64bf6a1f0160401b8310611cb75772184f03e93ff9f4daa797ed6e38ed64bf6a1f0160401b830492506040015b6d04ee2d6d415b85acef81000000008310611ce3576d04ee2d6d415b85acef8100000000830492506020015b662386f26fc100008310611d0157662386f26fc10000830492506010015b6305f5e1008310611d19576305f5e100830492506008015b6127108310611d2d57612710830492506004015b60648310611d3f576064830492506002015b600a83106107f95760010192915050565b828054611d5c906121b9565b90600052602060002090601f016020900481019282611d7e5760008555611dc4565b82601f10611d9757805160ff1916838001178555611dc4565b82800160010185558215611dc4579182015b82811115611dc4578251825591602001919060010190611da9565b50611dd0929150611dd4565b5090565b5b80821115611dd05760008155600101611dd5565b6001600160e01b03198116811461140757600080fd5b600060208284031215611e1157600080fd5b813561188981611de9565b60005b83811015611e37578181015183820152602001611e1f565b838111156111205750506000910152565b60008151808452611e60816020860160208601611e1c565b601f01601f19169290920160200192915050565b6020815260006118896020830184611e48565b600060208284031215611e9957600080fd5b5035919050565b80356001600160a01b0381168114611eb757600080fd5b919050565b60008060408385031215611ecf57600080fd5b611ed883611ea0565b946020939093013593505050565b600060208284031215611ef857600080fd5b61188982611ea0565b634e487b7160e01b600052604160045260246000fd5b600067ffffffffffffffff80841115611f3257611f32611f01565b604051601f8501601f19908116603f01168101908282118183101715611f5a57611f5a611f01565b81604052809350858152868686011115611f7357600080fd5b858560208301376000602087830101525050509392505050565b600082601f830112611f9e57600080fd5b61188983833560208501611f17565b60008060408385031215611fc057600080fd5b82359150602083013567ffffffffffffffff811115611fde57600080fd5b611fea85828601611f8d565b9150509250929050565b6000806040838503121561200757600080fd5b50508035926020909101359150565b60008060006060848603121561202b57600080fd5b61203484611ea0565b925061204260208501611ea0565b9150604084013590509250925092565b801515811461140757600080fd5b6000806040838503121561207357600080fd5b61207c83611ea0565b9150602083013561208c81612052565b809150509250929050565b6000602082840312156120a957600080fd5b813567ffffffffffffffff8111156120c057600080fd5b6112e284828501611f8d565b600080600080608085870312156120e257600080fd5b6120eb85611ea0565b93506120f960208601611ea0565b925060408501359150606085013567ffffffffffffffff81111561211c57600080fd5b8501601f8101871361212d57600080fd5b61213c87823560208401611f17565b91505092959194509250565b634e487b7160e01b600052602160045260246000fd5b602081016001831061218057634e487b7160e01b600052602160045260246000fd5b91905290565b6000806040838503121561219957600080fd5b6121a283611ea0565b91506121b060208401611ea0565b90509250929050565b600181811c908216806121cd57607f821691505b6020821081036121ed57634e487b7160e01b600052602260045260246000fd5b50919050565b634e487b7160e01b600052601260045260246000fd5b600082612218576122186121f3565b500690565b634e487b7160e01b600052601160045260246000fd5b600082198211156122465761224661221d565b500190565b6020808252602d908201527f4552433732313a2063616c6c6572206973206e6f7420746f6b656e206f776e6560408201526c1c881bdc88185c1c1c9bdd9959609a1b606082015260800190565b6000826122a7576122a76121f3565b500490565b6000600182016122be576122be61221d565b5060010190565b6000602082840312156122d757600080fd5b5051919050565b6000602082840312156122f057600080fd5b815161188981612052565b60008160001904831182151516156123155761231561221d565b500290565b6000835161232c818460208801611e1c565b835190830190612340818360208801611e1c565b01949350505050565b60208082526025908201527f4552433732313a207472616e736665722066726f6d20696e636f72726563742060408201526437bbb732b960d91b606082015260800190565b60208082526032908201527f4552433732313a207472616e7366657220746f206e6f6e20455243373231526560408201527131b2b4bb32b91034b6b83632b6b2b73a32b960711b606082015260800190565b6000828210156123f2576123f261221d565b500390565b6001600160a01b038581168252841660208201526040810183905260806060820181905260009061242a90830184611e48565b9695505050505050565b60006020828403121561244657600080fd5b815161188981611de956fea26469706673582212201ac0c6faadccac159166b9ba22d702848a12962eb34ca573a89c92528d197bb164736f6c634300080e0033","bytecodeSha1":"615f02142f000daedc412fdab1a47cb7aace2989","compiler":{"evm_version":"istanbul","optimizer":{"enabled":true,"runs":200},"version":"0.8.14+commit.80d49f37"},"contractName":"AdvancedCollectible","language":"Solidity","natspec":{"kind":"dev","methods":{"approve(address,uint256)":{"details":"See {IERC721-approve}."},"balanceOf(address)":{"details":"See {IERC721-balanceOf}."},"claim()":{"notice":"NFt holder claims there drexTokens to stable coins using this function"},"create_nft(string)":{"notice":"Creates the nft","params":{"tokenURI":"-> the token uri of the each nft, it can be empty also"}},"getApproved(uint256)":{"details":"See {IERC721-getApproved}."},"isApprovedForAll(address,address)":{"details":"See {IERC721-isApprovedForAll}."},"mint(uint256,uint256)":{"notice":"Helper fucntion called by create_nft, calls the 'safemint fucntion'","params":{"RandomNumber":"-->  a uint256 number for each of the nft","requestId":"-->a uint256 number unique for each nft"}},"name()":{"details":"See {IERC721Metadata-name}."},"ownerOf(uint256)":{"details":"See {IERC721-ownerOf}."},"safeTransferFrom(address,address,uint256)":{"details":"See {IERC721-safeTransferFrom}."},"safeTransferFrom(address,address,uint256,bytes)":{"details":"See {IERC721-safeTransferFrom}."},"setApprovalForAll(address,bool)":{"details":"See {IERC721-setApprovalForAll}."},"setTokenURI(uint256,string)":{"notice":"Sets tokenURI for each nft minted","params":{"_tokenURI":"--> string which refers the tokenuri for the nft","tokenId":"--> a tokenId of each of the nft"}},"setWallet(address)":{"notice":"Used to set each of the user who have bought the nft","params":{"_wallet":"-> address of tge nft holder"}},"supportsInterface(bytes4)":{"details":"See {IERC165-supportsInterface}."},"symbol()":{"details":"See {IERC721Metadata-symbol}."},"tokenURI(uint256)":{"details":"See {IERC721Metadata-tokenURI}."},"transferFrom(address,address,uint256)":{"details":"See {IERC721-transferFrom}."},"update_nft_balance(uint256)":{"notice":"Divides the amount generated in each of the nft holders","params":{"amount":"--> amount generated and transfered to the contract"}}},"version":1},"opcodes":"PUSH1 0x80 PUSH1 0x40 MSTORE PUSH1 0x4 CALLDATASIZE LT PUSH2 0x23A JUMPI PUSH1 0x0 CALLDATALOAD PUSH1 0xE0 SHR DUP1 PUSH4 0x8E2DE4D3 GT PUSH2 0x12E JUMPI DUP1 PUSH4 0xCBBC3C28 GT PUSH2 0xAB JUMPI DUP1 PUSH4 0xE985E9C5 GT PUSH2 0x6F JUMPI DUP1 PUSH4 0xE985E9C5 EQ PUSH2 0x6E1 JUMPI DUP1 PUSH4 0xECD0C0C3 EQ PUSH2 0x72A JUMPI DUP1 PUSH4 0xF136D197 EQ PUSH2 0x74A JUMPI DUP1 PUSH4 0xFB96E649 EQ PUSH2 0x777 JUMPI DUP1 PUSH4 0xFF1B636D EQ PUSH2 0x78D JUMPI PUSH1 0x0 DUP1 REVERT JUMPDEST DUP1 PUSH4 0xCBBC3C28 EQ PUSH2 0x638 JUMPI DUP1 PUSH4 0xCCBAC9F5 EQ PUSH2 0x675 JUMPI DUP1 PUSH4 0xD082E381 EQ PUSH2 0x68B JUMPI DUP1 PUSH4 0xDEAA59DF EQ PUSH2 0x6A1 JUMPI DUP1 PUSH4 0xE7FEFAFE EQ PUSH2 0x6C1 JUMPI PUSH1 0x0 DUP1 REVERT JUMPDEST DUP1 PUSH4 0xAF154011 GT PUSH2 0xF2 JUMPI DUP1 PUSH4 0xAF154011 EQ PUSH2 0x59D JUMPI DUP1 PUSH4 0xB38EB18C EQ PUSH2 0x5CD JUMPI DUP1 PUSH4 0xB88D4FDE EQ PUSH2 0x5E3 JUMPI DUP1 PUSH4 0xC6CE3BCD EQ PUSH2 0x603 JUMPI DUP1 PUSH4 0xC87B56DD EQ PUSH2 0x618 JUMPI PUSH1 0x0 DUP1 REVERT JUMPDEST DUP1 PUSH4 0x8E2DE4D3 EQ PUSH2 0x509 JUMPI DUP1 PUSH4 0x95D89B41 EQ PUSH2 0x53F JUMPI DUP1 PUSH4 0x9A232072 EQ PUSH2 0x554 JUMPI DUP1 PUSH4 0xA22CB465 EQ PUSH2 0x56A JUMPI DUP1 PUSH4 0xA3BAB286 EQ PUSH2 0x58A JUMPI PUSH1 0x0 DUP1 REVERT JUMPDEST DUP1 PUSH4 0x24E71743 GT PUSH2 0x1BC JUMPI DUP1 PUSH4 0x56CFFECB GT PUSH2 0x180 JUMPI DUP1 PUSH4 0x56CFFECB EQ PUSH2 0x47D JUMPI DUP1 PUSH4 0x6352211E EQ PUSH2 0x493 JUMPI DUP1 PUSH4 0x70A08231 EQ PUSH2 0x4B3 JUMPI DUP1 PUSH4 0x73B0745F EQ PUSH2 0x4D3 JUMPI DUP1 PUSH4 0x8A774091 EQ PUSH2 0x4E9 JUMPI PUSH1 0x0 DUP1 REVERT JUMPDEST DUP1 PUSH4 0x24E71743 EQ PUSH2 0x3CE JUMPI DUP1 PUSH4 0x42842E0E EQ PUSH2 0x3FB JUMPI DUP1 PUSH4 0x45AFC81F EQ PUSH2 0x41B JUMPI DUP1 PUSH4 0x4DFB4C53 EQ PUSH2 0x43B JUMPI DUP1 PUSH4 0x4E71D92D EQ PUSH2 0x468 JUMPI PUSH1 0x0 DUP1 REVERT JUMPDEST DUP1 PUSH4 0x95EA7B3 GT PUSH2 0x203 JUMPI DUP1 PUSH4 0x95EA7B3 EQ PUSH2 0x31F JUMPI DUP1 PUSH4 0x15A9F7A5 EQ PUSH2 0x341 JUMPI DUP1 PUSH4 0x162094C4 EQ PUSH2 0x36E JUMPI DUP1 PUSH4 0x1B2EF1CA EQ PUSH2 0x38E JUMPI DUP1 PUSH4 0x23B872DD EQ PUSH2 0x3AE JUMPI PUSH1 0x0 DUP1 REVERT JUMPDEST DUP1 PUSH3 0x4586C EQ PUSH2 0x23F JUMPI DUP1 PUSH4 0x1FFC9A7 EQ PUSH2 0x268 JUMPI DUP1 PUSH4 0x6FDDE03 EQ PUSH2 0x298 JUMPI DUP1 PUSH4 0x750B163 EQ PUSH2 0x2BA JUMPI DUP1 PUSH4 0x81812FC EQ PUSH2 0x2E7 JUMPI JUMPDEST PUSH1 0x0 DUP1 REVERT JUMPDEST CALLVALUE DUP1 ISZERO PUSH2 0x24B JUMPI PUSH1 0x0 DUP1 REVERT JUMPDEST POP PUSH2 0x255 PUSH1 0x1B SLOAD DUP2 JUMP JUMPDEST PUSH1 0x40 MLOAD SWAP1 DUP2 MSTORE PUSH1 0x20 ADD JUMPDEST PUSH1 0x40 MLOAD DUP1 SWAP2 SUB SWAP1 RETURN JUMPDEST CALLVALUE DUP1 ISZERO PUSH2 0x274 JUMPI PUSH1 0x0 DUP1 REVERT JUMPDEST POP PUSH2 0x288 PUSH2 0x283 CALLDATASIZE PUSH1 0x4 PUSH2 0x1DFF JUMP JUMPDEST PUSH2 0x7AD JUMP JUMPDEST PUSH1 0x40 MLOAD SWAP1 ISZERO ISZERO DUP2 MSTORE PUSH1 0x20 ADD PUSH2 0x25F JUMP JUMPDEST CALLVALUE DUP1 ISZERO PUSH2 0x2A4 JUMPI PUSH1 0x0 DUP1 REVERT JUMPDEST POP PUSH2 0x2AD PUSH2 0x7FF JUMP JUMPDEST PUSH1 0x40 MLOAD PUSH2 0x25F SWAP2 SWAP1 PUSH2 0x1E74 JUMP JUMPDEST CALLVALUE DUP1 ISZERO PUSH2 0x2C6 JUMPI PUSH1 0x0 DUP1 REVERT JUMPDEST POP PUSH2 0x255 PUSH2 0x2D5 CALLDATASIZE PUSH1 0x4 PUSH2 0x1E87 JUMP JUMPDEST PUSH1 0xC PUSH1 0x20 MSTORE PUSH1 0x0 SWAP1 DUP2 MSTORE PUSH1 0x40 SWAP1 KECCAK256 SLOAD DUP2 JUMP JUMPDEST CALLVALUE DUP1 ISZERO PUSH2 0x2F3 JUMPI PUSH1 0x0 DUP1 REVERT JUMPDEST POP PUSH2 0x307 PUSH2 0x302 CALLDATASIZE PUSH1 0x4 PUSH2 0x1E87 JUMP JUMPDEST PUSH2 0x891 JUMP JUMPDEST PUSH1 0x40 MLOAD PUSH1 0x1 PUSH1 0x1 PUSH1 0xA0 SHL SUB SWAP1 SWAP2 AND DUP2 MSTORE PUSH1 0x20 ADD PUSH2 0x25F JUMP JUMPDEST CALLVALUE DUP1 ISZERO PUSH2 0x32B JUMPI PUSH1 0x0 DUP1 REVERT JUMPDEST POP PUSH2 0x33F PUSH2 0x33A CALLDATASIZE PUSH1 0x4 PUSH2 0x1EBC JUMP JUMPDEST PUSH2 0x8B8 JUMP JUMPDEST STOP JUMPDEST CALLVALUE DUP1 ISZERO PUSH2 0x34D JUMPI PUSH1 0x0 DUP1 REVERT JUMPDEST POP PUSH2 0x255 PUSH2 0x35C CALLDATASIZE PUSH1 0x4 PUSH2 0x1EE6 JUMP JUMPDEST PUSH1 0xF PUSH1 0x20 MSTORE PUSH1 0x0 SWAP1 DUP2 MSTORE PUSH1 0x40 SWAP1 KECCAK256 SLOAD DUP2 JUMP JUMPDEST CALLVALUE DUP1 ISZERO PUSH2 0x37A JUMPI PUSH1 0x0 DUP1 REVERT JUMPDEST POP PUSH2 0x33F PUSH2 0x389 CALLDATASIZE PUSH1 0x4 PUSH2 0x1FAD JUMP JUMPDEST PUSH2 0x9D2 JUMP JUMPDEST CALLVALUE DUP1 ISZERO PUSH2 0x39A JUMPI PUSH1 0x0 DUP1 REVERT JUMPDEST POP PUSH2 0x33F PUSH2 0x3A9 CALLDATASIZE PUSH1 0x4 PUSH2 0x1FF4 JUMP JUMPDEST PUSH2 0xA51 JUMP JUMPDEST CALLVALUE DUP1 ISZERO PUSH2 0x3BA JUMPI PUSH1 0x0 DUP1 REVERT JUMPDEST POP PUSH2 0x33F PUSH2 0x3C9 CALLDATASIZE PUSH1 0x4 PUSH2 0x2016 JUMP JUMPDEST PUSH2 0xBF4 JUMP JUMPDEST CALLVALUE DUP1 ISZERO PUSH2 0x3DA JUMPI PUSH1 0x0 DUP1 REVERT JUMPDEST POP PUSH2 0x255 PUSH2 0x3E9 CALLDATASIZE PUSH1 0x4 PUSH2 0x1E87 JUMP JUMPDEST PUSH1 0x10 PUSH1 0x20 MSTORE PUSH1 0x0 SWAP1 DUP2 MSTORE PUSH1 0x40 SWAP1 KECCAK256 SLOAD DUP2 JUMP JUMPDEST CALLVALUE DUP1 ISZERO PUSH2 0x407 JUMPI PUSH1 0x0 DUP1 REVERT JUMPDEST POP PUSH2 0x33F PUSH2 0x416 CALLDATASIZE PUSH1 0x4 PUSH2 0x2016 JUMP JUMPDEST PUSH2 0xC25 JUMP JUMPDEST CALLVALUE DUP1 ISZERO PUSH2 0x427 JUMPI PUSH1 0x0 DUP1 REVERT JUMPDEST POP PUSH2 0x307 PUSH2 0x436 CALLDATASIZE PUSH1 0x4 PUSH2 0x1E87 JUMP JUMPDEST PUSH2 0xC40 JUMP JUMPDEST CALLVALUE DUP1 ISZERO PUSH2 0x447 JUMPI PUSH1 0x0 DUP1 REVERT JUMPDEST POP PUSH2 0x255 PUSH2 0x456 CALLDATASIZE PUSH1 0x4 PUSH2 0x1EE6 JUMP JUMPDEST PUSH1 0xD PUSH1 0x20 MSTORE PUSH1 0x0 SWAP1 DUP2 MSTORE PUSH1 0x40 SWAP1 KECCAK256 SLOAD DUP2 JUMP JUMPDEST CALLVALUE DUP1 ISZERO PUSH2 0x474 JUMPI PUSH1 0x0 DUP1 REVERT JUMPDEST POP PUSH2 0x33F PUSH2 0xC6A JUMP JUMPDEST CALLVALUE DUP1 ISZERO PUSH2 0x489 JUMPI PUSH1 0x0 DUP1 REVERT JUMPDEST POP PUSH2 0x255 PUSH1 0x13 SLOAD DUP2 JUMP JUMPDEST CALLVALUE DUP1 ISZERO PUSH2 0x49F JUMPI PUSH1 0x0 DUP1 REVERT JUMPDEST POP PUSH2 0x307 PUSH2 0x4AE CALLDATASIZE PUSH1 0x4 PUSH2 0x1E87 JUMP JUMPDEST PUSH2 0xD9A JUMP JUMPDEST CALLVALUE DUP1 ISZERO PUSH2 0x4BF JUMPI PUSH1 0x0 DUP1 REVERT JUMPDEST POP PUSH2 0x255 PUSH2 0x4CE CALLDATASIZE PUSH1 0x4 PUSH2 0x1EE6 JUMP JUMPDEST PUSH2 0xDFA JUMP JUMPDEST CALLVALUE DUP1 ISZERO PUSH2 0x4DF JUMPI PUSH1 0x0 DUP1 REVERT JUMPDEST POP PUSH2 0x255 PUSH1 0x19 SLOAD DUP2 JUMP JUMPDEST CALLVALUE DUP1 ISZERO PUSH2 0x4F5 JUMPI PUSH1 0x0 DUP1 REVERT JUMPDEST POP PUSH2 0x33F PUSH2 0x504 CALLDATASIZE PUSH1 0x4 PUSH2 0x1E87 JUMP JUMPDEST PUSH2 0xE80 JUMP JUMPDEST CALLVALUE DUP1 ISZERO PUSH2 0x515 JUMPI PUSH1 0x0 DUP1 REVERT JUMPDEST POP PUSH2 0x307 PUSH2 0x524 CALLDATASIZE PUSH1 0x4 PUSH2 0x1E87 JUMP JUMPDEST PUSH1 0x9 PUSH1 0x20 MSTORE PUSH1 0x0 SWAP1 DUP2 MSTORE PUSH1 0x40 SWAP1 KECCAK256 SLOAD PUSH1 0x1 PUSH1 0x1 PUSH1 0xA0 SHL SUB AND DUP2 JUMP JUMPDEST CALLVALUE DUP1 ISZERO PUSH2 0x54B JUMPI PUSH1 0x0 DUP1 REVERT JUMPDEST POP PUSH2 0x2AD PUSH2 0xF06 JUMP JUMPDEST CALLVALUE DUP1 ISZERO PUSH2 0x560 JUMPI PUSH1 0x0 DUP1 REVERT JUMPDEST POP PUSH2 0x255 PUSH1 0x15 SLOAD DUP2 JUMP JUMPDEST CALLVALUE DUP1 ISZERO PUSH2 0x576 JUMPI PUSH1 0x0 DUP1 REVERT JUMPDEST POP PUSH2 0x33F PUSH2 0x585 CALLDATASIZE PUSH1 0x4 PUSH2 0x2060 JUMP JUMPDEST PUSH2 0xF15 JUMP JUMPDEST PUSH2 0x33F PUSH2 0x598 CALLDATASIZE PUSH1 0x4 PUSH2 0x2097 JUMP JUMPDEST PUSH2 0xF20 JUMP JUMPDEST CALLVALUE DUP1 ISZERO PUSH2 0x5A9 JUMPI PUSH1 0x0 DUP1 REVERT JUMPDEST POP PUSH2 0x288 PUSH2 0x5B8 CALLDATASIZE PUSH1 0x4 PUSH2 0x1EE6 JUMP JUMPDEST PUSH1 0x11 PUSH1 0x20 MSTORE PUSH1 0x0 SWAP1 DUP2 MSTORE PUSH1 0x40 SWAP1 KECCAK256 SLOAD PUSH1 0xFF AND DUP2 JUMP JUMPDEST CALLVALUE DUP1 ISZERO PUSH2 0x5D9 JUMPI PUSH1 0x0 DUP1 REVERT JUMPDEST POP PUSH2 0x255 PUSH1 0x1A SLOAD DUP2 JUMP JUMPDEST CALLVALUE DUP1 ISZERO PUSH2 0x5EF JUMPI PUSH1 0x0 DUP1 REVERT JUMPDEST POP PUSH2 0x33F PUSH2 0x5FE CALLDATASIZE PUSH1 0x4 PUSH2 0x20CC JUMP JUMPDEST PUSH2 0x10EF JUMP JUMPDEST CALLVALUE DUP1 ISZERO PUSH2 0x60F JUMPI PUSH1 0x0 DUP1 REVERT JUMPDEST POP PUSH2 0x33F PUSH2 0x1126 JUMP JUMPDEST CALLVALUE DUP1 ISZERO PUSH2 0x624 JUMPI PUSH1 0x0 DUP1 REVERT JUMPDEST POP PUSH2 0x2AD PUSH2 0x633 CALLDATASIZE PUSH1 0x4 PUSH2 0x1E87 JUMP JUMPDEST PUSH2 0x11DA JUMP JUMPDEST CALLVALUE DUP1 ISZERO PUSH2 0x644 JUMPI PUSH1 0x0 DUP1 REVERT JUMPDEST POP PUSH2 0x668 PUSH2 0x653 CALLDATASIZE PUSH1 0x4 PUSH2 0x1E87 JUMP JUMPDEST PUSH1 0xB PUSH1 0x20 MSTORE PUSH1 0x0 SWAP1 DUP2 MSTORE PUSH1 0x40 SWAP1 KECCAK256 SLOAD PUSH1 0xFF AND DUP2 JUMP JUMPDEST PUSH1 0x40 MLOAD PUSH2 0x25F SWAP2 SWAP1 PUSH2 0x215E JUMP JUMPDEST CALLVALUE DUP1 ISZERO PUSH2 0x681 JUMPI PUSH1 0x0 DUP1 REVERT JUMPDEST POP PUSH2 0x255 PUSH1 0x17 SLOAD DUP2 JUMP JUMPDEST CALLVALUE DUP1 ISZERO PUSH2 0x697 JUMPI PUSH1 0x0 DUP1 REVERT JUMPDEST POP PUSH2 0x255 PUSH1 0x14 SLOAD DUP2 JUMP JUMPDEST CALLVALUE DUP1 ISZERO PUSH2 0x6AD JUMPI PUSH1 0x0 DUP1 REVERT JUMPDEST POP PUSH2 0x33F PUSH2 0x6BC CALLDATASIZE PUSH1 0x4 PUSH2 0x1EE6 JUMP JUMPDEST PUSH2 0x12EA JUMP JUMPDEST CALLVALUE DUP1 ISZERO PUSH2 0x6CD JUMPI PUSH1 0x0 DUP1 REVERT JUMPDEST POP PUSH2 0x2AD PUSH2 0x6DC CALLDATASIZE PUSH1 0x4 PUSH2 0x1E87 JUMP JUMPDEST PUSH2 0x130E JUMP JUMPDEST CALLVALUE DUP1 ISZERO PUSH2 0x6ED JUMPI PUSH1 0x0 DUP1 REVERT JUMPDEST POP PUSH2 0x288 PUSH2 0x6FC CALLDATASIZE PUSH1 0x4 PUSH2 0x2186 JUMP JUMPDEST PUSH1 0x1 PUSH1 0x1 PUSH1 0xA0 SHL SUB SWAP2 DUP3 AND PUSH1 0x0 SWAP1 DUP2 MSTORE PUSH1 0x5 PUSH1 0x20 SWAP1 DUP2 MSTORE PUSH1 0x40 DUP1 DUP4 KECCAK256 SWAP4 SWAP1 SWAP5 AND DUP3 MSTORE SWAP2 SWAP1 SWAP2 MSTORE KECCAK256 SLOAD PUSH1 0xFF AND SWAP1 JUMP JUMPDEST CALLVALUE DUP1 ISZERO PUSH2 0x736 JUMPI PUSH1 0x0 DUP1 REVERT JUMPDEST POP PUSH1 0x7 SLOAD PUSH2 0x307 SWAP1 PUSH1 0x1 PUSH1 0x1 PUSH1 0xA0 SHL SUB AND DUP2 JUMP JUMPDEST CALLVALUE DUP1 ISZERO PUSH2 0x756 JUMPI PUSH1 0x0 DUP1 REVERT JUMPDEST POP PUSH2 0x255 PUSH2 0x765 CALLDATASIZE PUSH1 0x4 PUSH2 0x1E87 JUMP JUMPDEST PUSH1 0xE PUSH1 0x20 MSTORE PUSH1 0x0 SWAP1 DUP2 MSTORE PUSH1 0x40 SWAP1 KECCAK256 SLOAD DUP2 JUMP JUMPDEST CALLVALUE DUP1 ISZERO PUSH2 0x783 JUMPI PUSH1 0x0 DUP1 REVERT JUMPDEST POP PUSH2 0x255 PUSH1 0x16 SLOAD DUP2 JUMP JUMPDEST CALLVALUE DUP1 ISZERO PUSH2 0x799 JUMPI PUSH1 0x0 DUP1 REVERT JUMPDEST POP PUSH1 0x18 SLOAD PUSH2 0x307 SWAP1 PUSH1 0x1 PUSH1 0x1 PUSH1 0xA0 SHL SUB AND DUP2 JUMP JUMPDEST PUSH1 0x0 PUSH1 0x1 PUSH1 0x1 PUSH1 0xE0 SHL SUB NOT DUP3 AND PUSH4 0x80AC58CD PUSH1 0xE0 SHL EQ DUP1 PUSH2 0x7DE JUMPI POP PUSH1 0x1 PUSH1 0x1 PUSH1 0xE0 SHL SUB NOT DUP3 AND PUSH4 0x5B5E139F PUSH1 0xE0 SHL EQ JUMPDEST DUP1 PUSH2 0x7F9 JUMPI POP PUSH4 0x1FFC9A7 PUSH1 0xE0 SHL PUSH1 0x1 PUSH1 0x1 PUSH1 0xE0 SHL SUB NOT DUP4 AND EQ JUMPDEST SWAP3 SWAP2 POP POP JUMP JUMPDEST PUSH1 0x60 PUSH1 0x0 DUP1 SLOAD PUSH2 0x80E SWAP1 PUSH2 0x21B9 JUMP JUMPDEST DUP1 PUSH1 0x1F ADD PUSH1 0x20 DUP1 SWAP2 DIV MUL PUSH1 0x20 ADD PUSH1 0x40 MLOAD SWAP1 DUP2 ADD PUSH1 0x40 MSTORE DUP1 SWAP3 SWAP2 SWAP1 DUP2 DUP2 MSTORE PUSH1 0x20 ADD DUP3 DUP1 SLOAD PUSH2 0x83A SWAP1 PUSH2 0x21B9 JUMP JUMPDEST DUP1 ISZERO PUSH2 0x887 JUMPI DUP1 PUSH1 0x1F LT PUSH2 0x85C JUMPI PUSH2 0x100 DUP1 DUP4 SLOAD DIV MUL DUP4 MSTORE SWAP2 PUSH1 0x20 ADD SWAP2 PUSH2 0x887 JUMP JUMPDEST DUP3 ADD SWAP2 SWAP1 PUSH1 0x0 MSTORE PUSH1 0x20 PUSH1 0x0 KECCAK256 SWAP1 JUMPDEST DUP2 SLOAD DUP2 MSTORE SWAP1 PUSH1 0x1 ADD SWAP1 PUSH1 0x20 ADD DUP1 DUP4 GT PUSH2 0x86A JUMPI DUP3 SWAP1 SUB PUSH1 0x1F AND DUP3 ADD SWAP2 JUMPDEST POP POP POP POP POP SWAP1 POP SWAP1 JUMP JUMPDEST PUSH1 0x0 PUSH2 0x89C DUP3 PUSH2 0x13A8 JUMP JUMPDEST POP PUSH1 0x0 SWAP1 DUP2 MSTORE PUSH1 0x4 PUSH1 0x20 MSTORE PUSH1 0x40 SWAP1 KECCAK256 SLOAD PUSH1 0x1 PUSH1 0x1 PUSH1 0xA0 SHL SUB AND SWAP1 JUMP JUMPDEST PUSH1 0x0 PUSH2 0x8C3 DUP3 PUSH2 0xD9A JUMP JUMPDEST SWAP1 POP DUP1 PUSH1 0x1 PUSH1 0x1 PUSH1 0xA0 SHL SUB AND DUP4 PUSH1 0x1 PUSH1 0x1 PUSH1 0xA0 SHL SUB AND SUB PUSH2 0x935 JUMPI PUSH1 0x40 MLOAD PUSH3 0x461BCD PUSH1 0xE5 SHL DUP2 MSTORE PUSH1 0x20 PUSH1 0x4 DUP3 ADD MSTORE PUSH1 0x21 PUSH1 0x24 DUP3 ADD MSTORE PUSH32 0x4552433732313A20617070726F76616C20746F2063757272656E74206F776E65 PUSH1 0x44 DUP3 ADD MSTORE PUSH1 0x39 PUSH1 0xF9 SHL PUSH1 0x64 DUP3 ADD MSTORE PUSH1 0x84 ADD JUMPDEST PUSH1 0x40 MLOAD DUP1 SWAP2 SUB SWAP1 REVERT JUMPDEST CALLER PUSH1 0x1 PUSH1 0x1 PUSH1 0xA0 SHL SUB DUP3 AND EQ DUP1 PUSH2 0x951 JUMPI POP PUSH2 0x951 DUP2 CALLER PUSH2 0x6FC JUMP JUMPDEST PUSH2 0x9C3 JUMPI PUSH1 0x40 MLOAD PUSH3 0x461BCD PUSH1 0xE5 SHL DUP2 MSTORE PUSH1 0x20 PUSH1 0x4 DUP3 ADD MSTORE PUSH1 0x3D PUSH1 0x24 DUP3 ADD MSTORE PUSH32 0x4552433732313A20617070726F76652063616C6C6572206973206E6F7420746F PUSH1 0x44 DUP3 ADD MSTORE PUSH32 0x6B656E206F776E6572206F7220617070726F76656420666F7220616C6C000000 PUSH1 0x64 DUP3 ADD MSTORE PUSH1 0x84 ADD PUSH2 0x92C JUMP JUMPDEST PUSH2 0x9CD DUP4 DUP4 PUSH2 0x140A JUMP JUMPDEST POP POP POP JUMP JUMPDEST PUSH2 0x9DD CALLER JUMPDEST DUP4 PUSH2 0x1478 JUMP JUMPDEST PUSH2 0xA43 JUMPI PUSH1 0x40 MLOAD PUSH3 0x461BCD PUSH1 0xE5 SHL DUP2 MSTORE PUSH1 0x20 PUSH1 0x4 DUP3 ADD MSTORE PUSH1 0x31 PUSH1 0x24 DUP3 ADD MSTORE PUSH32 0x4552433732313A207472616E736665722063616C6C6572206973206E6F74206F PUSH1 0x44 DUP3 ADD MSTORE PUSH17 0x1DDB995C881B9BDC88185C1C1C9BDD9959 PUSH1 0x7A SHL PUSH1 0x64 DUP3 ADD MSTORE PUSH1 0x84 ADD PUSH2 0x92C JUMP JUMPDEST PUSH2 0xA4D DUP3 DUP3 PUSH2 0x14F6 JUMP JUMPDEST POP POP JUMP JUMPDEST PUSH1 0x0 DUP3 DUP2 MSTORE PUSH1 0x9 PUSH1 0x20 SWAP1 DUP2 MSTORE PUSH1 0x40 DUP1 DUP4 KECCAK256 SLOAD PUSH1 0xA SWAP1 SWAP3 MSTORE DUP3 KECCAK256 DUP1 SLOAD PUSH1 0x1 PUSH1 0x1 PUSH1 0xA0 SHL SUB SWAP1 SWAP3 AND SWAP3 SWAP2 PUSH2 0xA82 SWAP1 PUSH2 0x21B9 JUMP JUMPDEST DUP1 PUSH1 0x1F ADD PUSH1 0x20 DUP1 SWAP2 DIV MUL PUSH1 0x20 ADD PUSH1 0x40 MLOAD SWAP1 DUP2 ADD PUSH1 0x40 MSTORE DUP1 SWAP3 SWAP2 SWAP1 DUP2 DUP2 MSTORE PUSH1 0x20 ADD DUP3 DUP1 SLOAD PUSH2 0xAAE SWAP1 PUSH2 0x21B9 JUMP JUMPDEST DUP1 ISZERO PUSH2 0xAFB JUMPI DUP1 PUSH1 0x1F LT PUSH2 0xAD0 JUMPI PUSH2 0x100 DUP1 DUP4 SLOAD DIV MUL DUP4 MSTORE SWAP2 PUSH1 0x20 ADD SWAP2 PUSH2 0xAFB JUMP JUMPDEST DUP3 ADD SWAP2 SWAP1 PUSH1 0x0 MSTORE PUSH1 0x20 PUSH1 0x0 KECCAK256 SWAP1 JUMPDEST DUP2 SLOAD DUP2 MSTORE SWAP1 PUSH1 0x1 ADD SWAP1 PUSH1 0x20 ADD DUP1 DUP4 GT PUSH2 0xADE JUMPI DUP3 SWAP1 SUB PUSH1 0x1F AND DUP3 ADD SWAP2 JUMPDEST POP POP PUSH1 0x14 SLOAD PUSH1 0x18 SLOAD SWAP5 SWAP6 POP SWAP4 PUSH2 0xB1F SWAP4 POP PUSH1 0x1 PUSH1 0x1 PUSH1 0xA0 SHL SUB AND SWAP2 POP DUP4 SWAP1 POP PUSH2 0x1590 JUMP JUMPDEST PUSH2 0xB29 DUP2 DUP4 PUSH2 0x14F6 JUMP JUMPDEST PUSH2 0xB32 DUP4 PUSH2 0x12EA JUMP JUMPDEST PUSH1 0x0 PUSH2 0xB3F PUSH1 0x1 DUP7 PUSH2 0x2209 JUMP JUMPDEST DUP1 ISZERO PUSH2 0xB4D JUMPI PUSH2 0xB4D PUSH2 0x2148 JUMP JUMPDEST PUSH1 0x0 DUP4 DUP2 MSTORE PUSH1 0xB PUSH1 0x20 MSTORE PUSH1 0x40 SWAP1 KECCAK256 DUP1 SLOAD SWAP2 SWAP3 POP DUP3 SWAP2 PUSH1 0xFF NOT AND PUSH1 0x1 DUP4 DUP1 ISZERO PUSH2 0xB77 JUMPI PUSH2 0xB77 PUSH2 0x2148 JUMP JUMPDEST MUL OR SWAP1 SSTORE POP PUSH1 0x0 DUP7 DUP2 MSTORE PUSH1 0xC PUSH1 0x20 SWAP1 DUP2 MSTORE PUSH1 0x40 DUP1 DUP4 KECCAK256 DUP6 SWAP1 SSTORE PUSH1 0x1 PUSH1 0x1 PUSH1 0xA0 SHL SUB DUP8 AND DUP4 MSTORE PUSH1 0xD SWAP1 SWAP2 MSTORE SWAP1 KECCAK256 DUP3 SWAP1 SSTORE PUSH1 0x14 SLOAD PUSH2 0xBB4 SWAP1 PUSH1 0x1 PUSH2 0x2233 JUMP JUMPDEST PUSH1 0x14 SSTORE PUSH1 0x40 MLOAD DUP6 DUP2 MSTORE DUP7 SWAP1 PUSH32 0xD996551A703BF267A3068BB00CE0D5967B05FBAB9B7091219D8E95226E9E0E3D SWAP1 PUSH1 0x20 ADD PUSH1 0x40 MLOAD DUP1 SWAP2 SUB SWAP1 LOG2 POP POP POP POP POP POP JUMP JUMPDEST PUSH2 0xBFE CALLER DUP3 PUSH2 0x1478 JUMP JUMPDEST PUSH2 0xC1A JUMPI PUSH1 0x40 MLOAD PUSH3 0x461BCD PUSH1 0xE5 SHL DUP2 MSTORE PUSH1 0x4 ADD PUSH2 0x92C SWAP1 PUSH2 0x224B JUMP JUMPDEST PUSH2 0x9CD DUP4 DUP4 DUP4 PUSH2 0x15AA JUMP JUMPDEST PUSH2 0x9CD DUP4 DUP4 DUP4 PUSH1 0x40 MLOAD DUP1 PUSH1 0x20 ADD PUSH1 0x40 MSTORE DUP1 PUSH1 0x0 DUP2 MSTORE POP PUSH2 0x10EF JUMP JUMPDEST PUSH1 0x12 DUP2 DUP2 SLOAD DUP2 LT PUSH2 0xC50 JUMPI PUSH1 0x0 DUP1 REVERT JUMPDEST PUSH1 0x0 SWAP2 DUP3 MSTORE PUSH1 0x20 SWAP1 SWAP2 KECCAK256 ADD SLOAD PUSH1 0x1 PUSH1 0x1 PUSH1 0xA0 SHL SUB AND SWAP1 POP DUP2 JUMP JUMPDEST CALLER PUSH1 0x0 SWAP1 DUP2 MSTORE PUSH1 0x11 PUSH1 0x20 MSTORE PUSH1 0x40 SWAP1 KECCAK256 SLOAD PUSH1 0xFF AND ISZERO ISZERO PUSH1 0x1 EQ PUSH2 0xCC7 JUMPI PUSH1 0x40 MLOAD PUSH3 0x461BCD PUSH1 0xE5 SHL DUP2 MSTORE PUSH1 0x20 PUSH1 0x4 DUP3 ADD MSTORE PUSH1 0x16 PUSH1 0x24 DUP3 ADD MSTORE PUSH22 0x1CD95B99195C88191BDB9D081A1BDB190818481B999D PUSH1 0x52 SHL PUSH1 0x44 DUP3 ADD MSTORE PUSH1 0x64 ADD PUSH2 0x92C JUMP JUMPDEST CALLER PUSH1 0x0 DUP2 DUP2 MSTORE PUSH1 0xD PUSH1 0x20 SWAP1 DUP2 MSTORE PUSH1 0x40 DUP1 DUP4 KECCAK256 SLOAD PUSH1 0x1B DUP2 SWAP1 SSTORE DUP4 MSTORE PUSH1 0x10 SWAP1 SWAP2 MSTORE SWAP1 DUP2 SWAP1 KECCAK256 SLOAD PUSH1 0x1A DUP2 SWAP1 SSTORE PUSH1 0x7 SLOAD SWAP2 MLOAD PUSH4 0x5BF6FA89 PUSH1 0xE0 SHL DUP2 MSTORE PUSH1 0x4 DUP2 ADD DUP5 SWAP1 MSTORE PUSH1 0x24 DUP2 ADD SWAP2 SWAP1 SWAP2 MSTORE PUSH1 0x1 PUSH1 0x1 PUSH1 0xA0 SHL SUB SWAP1 SWAP2 AND SWAP1 DUP2 SWAP1 PUSH4 0x5BF6FA89 SWAP1 PUSH1 0x44 ADD PUSH1 0x0 PUSH1 0x40 MLOAD DUP1 DUP4 SUB DUP2 PUSH1 0x0 DUP8 DUP1 EXTCODESIZE ISZERO DUP1 ISZERO PUSH2 0xD3F JUMPI PUSH1 0x0 DUP1 REVERT JUMPDEST POP GAS CALL ISZERO DUP1 ISZERO PUSH2 0xD53 JUMPI RETURNDATASIZE PUSH1 0x0 DUP1 RETURNDATACOPY RETURNDATASIZE PUSH1 0x0 REVERT JUMPDEST POP POP PUSH1 0x1A SLOAD PUSH1 0x40 DUP1 MLOAD CALLER DUP2 MSTORE PUSH1 0x20 DUP2 ADD SWAP3 SWAP1 SWAP3 MSTORE PUSH32 0xCEA16A2D83554574DEF1EDF3EC1FB53F1373F7EBB1FA98FECDAA4268588793CC SWAP4 POP ADD SWAP1 POP JUMPDEST PUSH1 0x40 MLOAD DUP1 SWAP2 SUB SWAP1 LOG1 POP POP JUMP JUMPDEST PUSH1 0x0 DUP2 DUP2 MSTORE PUSH1 0x2 PUSH1 0x20 MSTORE PUSH1 0x40 DUP2 KECCAK256 SLOAD PUSH1 0x1 PUSH1 0x1 PUSH1 0xA0 SHL SUB AND DUP1 PUSH2 0x7F9 JUMPI PUSH1 0x40 MLOAD PUSH3 0x461BCD PUSH1 0xE5 SHL DUP2 MSTORE PUSH1 0x20 PUSH1 0x4 DUP3 ADD MSTORE PUSH1 0x18 PUSH1 0x24 DUP3 ADD MSTORE PUSH24 0x115490CDCC8C4E881A5B9D985B1A59081D1BDAD95B881251 PUSH1 0x42 SHL PUSH1 0x44 DUP3 ADD MSTORE PUSH1 0x64 ADD PUSH2 0x92C JUMP JUMPDEST PUSH1 0x0 PUSH1 0x1 PUSH1 0x1 PUSH1 0xA0 SHL SUB DUP3 AND PUSH2 0xE64 JUMPI PUSH1 0x40 MLOAD PUSH3 0x461BCD PUSH1 0xE5 SHL DUP2 MSTORE PUSH1 0x20 PUSH1 0x4 DUP3 ADD MSTORE PUSH1 0x29 PUSH1 0x24 DUP3 ADD MSTORE PUSH32 0x4552433732313A2061646472657373207A65726F206973206E6F742061207661 PUSH1 0x44 DUP3 ADD MSTORE PUSH9 0x3634B21037BBB732B9 PUSH1 0xB9 SHL PUSH1 0x64 DUP3 ADD MSTORE PUSH1 0x84 ADD PUSH2 0x92C JUMP JUMPDEST POP PUSH1 0x1 PUSH1 0x1 PUSH1 0xA0 SHL SUB AND PUSH1 0x0 SWAP1 DUP2 MSTORE PUSH1 0x3 PUSH1 0x20 MSTORE PUSH1 0x40 SWAP1 KECCAK256 SLOAD SWAP1 JUMP JUMPDEST PUSH1 0x0 PUSH1 0x19 SLOAD DUP3 PUSH2 0xE90 SWAP2 SWAP1 PUSH2 0x2298 JUMP JUMPDEST SWAP1 POP PUSH1 0x0 JUMPDEST PUSH1 0x19 SLOAD DUP2 LT ISZERO PUSH2 0xED5 JUMPI PUSH1 0x0 DUP2 DUP2 MSTORE PUSH1 0x10 PUSH1 0x20 MSTORE PUSH1 0x40 DUP2 KECCAK256 DUP1 SLOAD DUP5 SWAP3 SWAP1 PUSH2 0xEBD SWAP1 DUP5 SWAP1 PUSH2 0x2233 JUMP JUMPDEST SWAP1 SWAP2 SSTORE POP DUP2 SWAP1 POP PUSH2 0xECD DUP2 PUSH2 0x22AC JUMP JUMPDEST SWAP2 POP POP PUSH2 0xE95 JUMP JUMPDEST POP PUSH1 0x40 MLOAD DUP3 DUP2 MSTORE PUSH32 0x22712B798AE7934EC355D80DA68E214E1ADA67AA7C0AB551450DFFEB27F10D2E SWAP1 PUSH1 0x20 ADD PUSH2 0xD8E JUMP JUMPDEST PUSH1 0x60 PUSH1 0x1 DUP1 SLOAD PUSH2 0x80E SWAP1 PUSH2 0x21B9 JUMP JUMPDEST PUSH2 0xA4D CALLER DUP4 DUP4 PUSH2 0x171B JUMP JUMPDEST PUSH1 0x8 SLOAD PUSH1 0x40 MLOAD PUSH4 0x70A08231 PUSH1 0xE0 SHL DUP2 MSTORE CALLER PUSH1 0x4 DUP3 ADD MSTORE PUSH2 0xC350 SWAP2 PUSH1 0x1 PUSH1 0x1 PUSH1 0xA0 SHL SUB AND SWAP1 PUSH4 0x70A08231 SWAP1 PUSH1 0x24 ADD PUSH1 0x20 PUSH1 0x40 MLOAD DUP1 DUP4 SUB DUP2 DUP7 GAS STATICCALL ISZERO DUP1 ISZERO PUSH2 0xF6A JUMPI RETURNDATASIZE PUSH1 0x0 DUP1 RETURNDATACOPY RETURNDATASIZE PUSH1 0x0 REVERT JUMPDEST POP POP POP POP PUSH1 0x40 MLOAD RETURNDATASIZE PUSH1 0x1F NOT PUSH1 0x1F DUP3 ADD AND DUP3 ADD DUP1 PUSH1 0x40 MSTORE POP DUP2 ADD SWAP1 PUSH2 0xF8E SWAP2 SWAP1 PUSH2 0x22C5 JUMP JUMPDEST GT PUSH2 0xFDB JUMPI PUSH1 0x40 MLOAD PUSH3 0x461BCD PUSH1 0xE5 SHL DUP2 MSTORE PUSH1 0x20 PUSH1 0x4 DUP3 ADD MSTORE PUSH1 0x1F PUSH1 0x24 DUP3 ADD MSTORE PUSH32 0x62616C616E6365206E6F7420656E6F7567687420746F206D696E74206E667400 PUSH1 0x44 DUP3 ADD MSTORE PUSH1 0x64 ADD PUSH2 0x92C JUMP JUMPDEST PUSH1 0x8 SLOAD PUSH1 0x40 MLOAD PUSH4 0x23B872DD PUSH1 0xE0 SHL DUP2 MSTORE CALLER PUSH1 0x4 DUP3 ADD MSTORE ADDRESS PUSH1 0x24 DUP3 ADD MSTORE PUSH2 0xC350 PUSH1 0x44 DUP3 ADD MSTORE PUSH1 0x1 PUSH1 0x1 PUSH1 0xA0 SHL SUB SWAP1 SWAP2 AND SWAP1 PUSH4 0x23B872DD SWAP1 PUSH1 0x64 ADD PUSH1 0x20 PUSH1 0x40 MLOAD DUP1 DUP4 SUB DUP2 PUSH1 0x0 DUP8 GAS CALL ISZERO DUP1 ISZERO PUSH2 0x1033 JUMPI RETURNDATASIZE PUSH1 0x0 DUP1 RETURNDATACOPY RETURNDATASIZE PUSH1 0x0 REVERT JUMPDEST POP POP POP POP PUSH1 0x40 MLOAD RETURNDATASIZE PUSH1 0x1F NOT PUSH1 0x1F DUP3 ADD AND DUP3 ADD DUP1 PUSH1 0x40 MSTORE POP DUP2 ADD SWAP1 PUSH2 0x1057 SWAP2 SWAP1 PUSH2 0x22DE JUMP JUMPDEST POP PUSH1 0x16 SLOAD PUSH1 0x0 DUP2 DUP2 MSTORE PUSH1 0x9 PUSH1 0x20 SWAP1 DUP2 MSTORE PUSH1 0x40 DUP1 DUP4 KECCAK256 DUP1 SLOAD PUSH1 0x1 PUSH1 0x1 PUSH1 0xA0 SHL SUB NOT AND CALLER OR SWAP1 SSTORE PUSH1 0xA DUP3 MSTORE SWAP1 SWAP2 KECCAK256 DUP4 MLOAD PUSH2 0x1091 SWAP3 DUP6 ADD SWAP1 PUSH2 0x1D50 JUMP JUMPDEST POP PUSH2 0x109E DUP2 PUSH1 0x17 SLOAD PUSH2 0xA51 JUMP JUMPDEST PUSH1 0x16 SLOAD PUSH2 0x10AC SWAP1 PUSH1 0x1 PUSH2 0x2233 JUMP JUMPDEST PUSH1 0x16 SSTORE PUSH1 0x17 SLOAD PUSH2 0x10BD SWAP1 PUSH1 0x1 PUSH2 0x2233 JUMP JUMPDEST PUSH1 0x17 SSTORE PUSH1 0x40 MLOAD DUP2 SWAP1 PUSH32 0x29F8474DEE2F5F19AB0C7B6F5136824047CD822E5C7BB7526DF99D7C9258B075 SWAP1 PUSH1 0x0 SWAP1 LOG2 POP POP JUMP JUMPDEST PUSH2 0x10F8 CALLER PUSH2 0x9D7 JUMP JUMPDEST PUSH2 0x1114 JUMPI PUSH1 0x40 MLOAD PUSH3 0x461BCD PUSH1 0xE5 SHL DUP2 MSTORE PUSH1 0x4 ADD PUSH2 0x92C SWAP1 PUSH2 0x224B JUMP JUMPDEST PUSH2 0x1120 DUP5 DUP5 DUP5 DUP5 PUSH2 0x17E9 JUMP JUMPDEST POP POP POP POP JUMP JUMPDEST PUSH1 0x12 SLOAD PUSH2 0x1175 JUMPI PUSH1 0x40 MLOAD PUSH3 0x461BCD PUSH1 0xE5 SHL DUP2 MSTORE PUSH1 0x20 PUSH1 0x4 DUP3 ADD MSTORE PUSH1 0x1A PUSH1 0x24 DUP3 ADD MSTORE PUSH32 0x746869732069732074686520666972737420636F6E7472616374000000000000 PUSH1 0x44 DUP3 ADD MSTORE PUSH1 0x64 ADD PUSH2 0x92C JUMP JUMPDEST PUSH1 0x12 SLOAD PUSH1 0x0 SWAP1 PUSH2 0x1186 SWAP1 PUSH1 0x1 PUSH2 0x2233 JUMP JUMPDEST SWAP1 POP PUSH1 0x0 PUSH1 0x19 SLOAD DUP3 PUSH2 0x1198 SWAP2 SWAP1 PUSH2 0x22FB JUMP JUMPDEST SWAP1 POP PUSH1 0x0 DUP2 PUSH1 0x19 SLOAD PUSH2 0x11AA SWAP2 SWAP1 PUSH2 0x2298 JUMP JUMPDEST SWAP1 POP PUSH1 0x0 PUSH2 0x11B9 DUP5 PUSH1 0x1 PUSH2 0x2298 JUMP JUMPDEST SWAP1 POP PUSH1 0x2 PUSH2 0x11C7 DUP3 DUP5 PUSH2 0x2233 JUMP JUMPDEST PUSH2 0x11D1 SWAP2 SWAP1 PUSH2 0x2298 JUMP JUMPDEST PUSH1 0x15 SSTORE POP POP POP POP JUMP JUMPDEST PUSH1 0x60 PUSH2 0x11E5 DUP3 PUSH2 0x13A8 JUMP JUMPDEST PUSH1 0x0 DUP3 DUP2 MSTORE PUSH1 0x6 PUSH1 0x20 MSTORE PUSH1 0x40 DUP2 KECCAK256 DUP1 SLOAD PUSH2 0x11FE SWAP1 PUSH2 0x21B9 JUMP JUMPDEST DUP1 PUSH1 0x1F ADD PUSH1 0x20 DUP1 SWAP2 DIV MUL PUSH1 0x20 ADD PUSH1 0x40 MLOAD SWAP1 DUP2 ADD PUSH1 0x40 MSTORE DUP1 SWAP3 SWAP2 SWAP1 DUP2 DUP2 MSTORE PUSH1 0x20 ADD DUP3 DUP1 SLOAD PUSH2 0x122A SWAP1 PUSH2 0x21B9 JUMP JUMPDEST DUP1 ISZERO PUSH2 0x1277 JUMPI DUP1 PUSH1 0x1F LT PUSH2 0x124C JUMPI PUSH2 0x100 DUP1 DUP4 SLOAD DIV MUL DUP4 MSTORE SWAP2 PUSH1 0x20 ADD SWAP2 PUSH2 0x1277 JUMP JUMPDEST DUP3 ADD SWAP2 SWAP1 PUSH1 0x0 MSTORE PUSH1 0x20 PUSH1 0x0 KECCAK256 SWAP1 JUMPDEST DUP2 SLOAD DUP2 MSTORE SWAP1 PUSH1 0x1 ADD SWAP1 PUSH1 0x20 ADD DUP1 DUP4 GT PUSH2 0x125A JUMPI DUP3 SWAP1 SUB PUSH1 0x1F AND DUP3 ADD SWAP2 JUMPDEST POP POP POP POP POP SWAP1 POP PUSH1 0x0 PUSH2 0x1295 PUSH1 0x40 DUP1 MLOAD PUSH1 0x20 DUP2 ADD SWAP1 SWAP2 MSTORE PUSH1 0x0 DUP2 MSTORE SWAP1 JUMP JUMPDEST SWAP1 POP DUP1 MLOAD PUSH1 0x0 SUB PUSH2 0x12A7 JUMPI POP SWAP3 SWAP2 POP POP JUMP JUMPDEST DUP2 MLOAD ISZERO PUSH2 0x12D9 JUMPI DUP1 DUP3 PUSH1 0x40 MLOAD PUSH1 0x20 ADD PUSH2 0x12C1 SWAP3 SWAP2 SWAP1 PUSH2 0x231A JUMP JUMPDEST PUSH1 0x40 MLOAD PUSH1 0x20 DUP2 DUP4 SUB SUB DUP2 MSTORE SWAP1 PUSH1 0x40 MSTORE SWAP3 POP POP POP SWAP2 SWAP1 POP JUMP JUMPDEST PUSH2 0x12E2 DUP5 PUSH2 0x181C JUMP JUMPDEST SWAP5 SWAP4 POP POP POP POP JUMP JUMPDEST PUSH1 0x1 PUSH1 0x1 PUSH1 0xA0 SHL SUB AND PUSH1 0x0 SWAP1 DUP2 MSTORE PUSH1 0x11 PUSH1 0x20 MSTORE PUSH1 0x40 SWAP1 KECCAK256 DUP1 SLOAD PUSH1 0xFF NOT AND PUSH1 0x1 OR SWAP1 SSTORE JUMP JUMPDEST PUSH1 0xA PUSH1 0x20 MSTORE PUSH1 0x0 SWAP1 DUP2 MSTORE PUSH1 0x40 SWAP1 KECCAK256 DUP1 SLOAD PUSH2 0x1327 SWAP1 PUSH2 0x21B9 JUMP JUMPDEST DUP1 PUSH1 0x1F ADD PUSH1 0x20 DUP1 SWAP2 DIV MUL PUSH1 0x20 ADD PUSH1 0x40 MLOAD SWAP1 DUP2 ADD PUSH1 0x40 MSTORE DUP1 SWAP3 SWAP2 SWAP1 DUP2 DUP2 MSTORE PUSH1 0x20 ADD DUP3 DUP1 SLOAD PUSH2 0x1353 SWAP1 PUSH2 0x21B9 JUMP JUMPDEST DUP1 ISZERO PUSH2 0x13A0 JUMPI DUP1 PUSH1 0x1F LT PUSH2 0x1375 JUMPI PUSH2 0x100 DUP1 DUP4 SLOAD DIV MUL DUP4 MSTORE SWAP2 PUSH1 0x20 ADD SWAP2 PUSH2 0x13A0 JUMP JUMPDEST DUP3 ADD SWAP2 SWAP1 PUSH1 0x0 MSTORE PUSH1 0x20 PUSH1 0x0 KECCAK256 SWAP1 JUMPDEST DUP2 SLOAD DUP2 MSTORE SWAP1 PUSH1 0x1 ADD SWAP1 PUSH1 0x20 ADD DUP1 DUP4 GT PUSH2 0x1383 JUMPI DUP3 SWAP1 SUB PUSH1 0x1F AND DUP3 ADD SWAP2 JUMPDEST POP POP POP POP POP DUP2 JUMP JUMPDEST PUSH1 0x0 DUP2 DUP2 MSTORE PUSH1 0x2 PUSH1 0x20 MSTORE PUSH1 0x40 SWAP1 KECCAK256 SLOAD PUSH1 0x1 PUSH1 0x1 PUSH1 0xA0 SHL SUB AND PUSH2 0x1407 JUMPI PUSH1 0x40 MLOAD PUSH3 0x461BCD PUSH1 0xE5 SHL DUP2 MSTORE PUSH1 0x20 PUSH1 0x4 DUP3 ADD MSTORE PUSH1 0x18 PUSH1 0x24 DUP3 ADD MSTORE PUSH24 0x115490CDCC8C4E881A5B9D985B1A59081D1BDAD95B881251 PUSH1 0x42 SHL PUSH1 0x44 DUP3 ADD MSTORE PUSH1 0x64 ADD PUSH2 0x92C JUMP JUMPDEST POP JUMP JUMPDEST PUSH1 0x0 DUP2 DUP2 MSTORE PUSH1 0x4 PUSH1 0x20 MSTORE PUSH1 0x40 SWAP1 KECCAK256 DUP1 SLOAD PUSH1 0x1 PUSH1 0x1 PUSH1 0xA0 SHL SUB NOT AND PUSH1 0x1 PUSH1 0x1 PUSH1 0xA0 SHL SUB DUP5 AND SWAP1 DUP2 OR SWAP1 SWAP2 SSTORE DUP2 SWAP1 PUSH2 0x143F DUP3 PUSH2 0xD9A JUMP JUMPDEST PUSH1 0x1 PUSH1 0x1 PUSH1 0xA0 SHL SUB AND PUSH32 0x8C5BE1E5EBEC7D5BD14F71427D1E84F3DD0314C0F7B2291E5B200AC8C7C3B925 PUSH1 0x40 MLOAD PUSH1 0x40 MLOAD DUP1 SWAP2 SUB SWAP1 LOG4 POP POP JUMP JUMPDEST PUSH1 0x0 DUP1 PUSH2 0x1484 DUP4 PUSH2 0xD9A JUMP JUMPDEST SWAP1 POP DUP1 PUSH1 0x1 PUSH1 0x1 PUSH1 0xA0 SHL SUB AND DUP5 PUSH1 0x1 PUSH1 0x1 PUSH1 0xA0 SHL SUB AND EQ DUP1 PUSH2 0x14CB JUMPI POP PUSH1 0x1 PUSH1 0x1 PUSH1 0xA0 SHL SUB DUP1 DUP3 AND PUSH1 0x0 SWAP1 DUP2 MSTORE PUSH1 0x5 PUSH1 0x20 SWAP1 DUP2 MSTORE PUSH1 0x40 DUP1 DUP4 KECCAK256 SWAP4 DUP9 AND DUP4 MSTORE SWAP3 SWAP1 MSTORE KECCAK256 SLOAD PUSH1 0xFF AND JUMPDEST DUP1 PUSH2 0x12E2 JUMPI POP DUP4 PUSH1 0x1 PUSH1 0x1 PUSH1 0xA0 SHL SUB AND PUSH2 0x14E4 DUP5 PUSH2 0x891 JUMP JUMPDEST PUSH1 0x1 PUSH1 0x1 PUSH1 0xA0 SHL SUB AND EQ SWAP5 SWAP4 POP POP POP POP JUMP JUMPDEST PUSH1 0x0 DUP3 DUP2 MSTORE PUSH1 0x2 PUSH1 0x20 MSTORE PUSH1 0x40 SWAP1 KECCAK256 SLOAD PUSH1 0x1 PUSH1 0x1 PUSH1 0xA0 SHL SUB AND PUSH2 0x1571 JUMPI PUSH1 0x40 MLOAD PUSH3 0x461BCD PUSH1 0xE5 SHL DUP2 MSTORE PUSH1 0x20 PUSH1 0x4 DUP3 ADD MSTORE PUSH1 0x2E PUSH1 0x24 DUP3 ADD MSTORE PUSH32 0x45524337323155524953746F726167653A2055524920736574206F66206E6F6E PUSH1 0x44 DUP3 ADD MSTORE PUSH14 0x32BC34B9BA32B73A103A37B5B2B7 PUSH1 0x91 SHL PUSH1 0x64 DUP3 ADD MSTORE PUSH1 0x84 ADD PUSH2 0x92C JUMP JUMPDEST PUSH1 0x0 DUP3 DUP2 MSTORE PUSH1 0x6 PUSH1 0x20 SWAP1 DUP2 MSTORE PUSH1 0x40 SWAP1 SWAP2 KECCAK256 DUP3 MLOAD PUSH2 0x9CD SWAP3 DUP5 ADD SWAP1 PUSH2 0x1D50 JUMP JUMPDEST PUSH2 0xA4D DUP3 DUP3 PUSH1 0x40 MLOAD DUP1 PUSH1 0x20 ADD PUSH1 0x40 MSTORE DUP1 PUSH1 0x0 DUP2 MSTORE POP PUSH2 0x1890 JUMP JUMPDEST DUP3 PUSH1 0x1 PUSH1 0x1 PUSH1 0xA0 SHL SUB AND PUSH2 0x15BD DUP3 PUSH2 0xD9A JUMP JUMPDEST PUSH1 0x1 PUSH1 0x1 PUSH1 0xA0 SHL SUB AND EQ PUSH2 0x15E3 JUMPI PUSH1 0x40 MLOAD PUSH3 0x461BCD PUSH1 0xE5 SHL DUP2 MSTORE PUSH1 0x4 ADD PUSH2 0x92C SWAP1 PUSH2 0x2349 JUMP JUMPDEST PUSH1 0x1 PUSH1 0x1 PUSH1 0xA0 SHL SUB DUP3 AND PUSH2 0x1645 JUMPI PUSH1 0x40 MLOAD PUSH3 0x461BCD PUSH1 0xE5 SHL DUP2 MSTORE PUSH1 0x20 PUSH1 0x4 DUP3 ADD MSTORE PUSH1 0x24 DUP1 DUP3 ADD MSTORE PUSH32 0x4552433732313A207472616E7366657220746F20746865207A65726F20616464 PUSH1 0x44 DUP3 ADD MSTORE PUSH4 0x72657373 PUSH1 0xE0 SHL PUSH1 0x64 DUP3 ADD MSTORE PUSH1 0x84 ADD PUSH2 0x92C JUMP JUMPDEST PUSH2 0x1652 DUP4 DUP4 DUP4 PUSH1 0x1 PUSH2 0x18C3 JUMP JUMPDEST DUP3 PUSH1 0x1 PUSH1 0x1 PUSH1 0xA0 SHL SUB AND PUSH2 0x1665 DUP3 PUSH2 0xD9A JUMP JUMPDEST PUSH1 0x1 PUSH1 0x1 PUSH1 0xA0 SHL SUB AND EQ PUSH2 0x168B JUMPI PUSH1 0x40 MLOAD PUSH3 0x461BCD PUSH1 0xE5 SHL DUP2 MSTORE PUSH1 0x4 ADD PUSH2 0x92C SWAP1 PUSH2 0x2349 JUMP JUMPDEST PUSH1 0x0 DUP2 DUP2 MSTORE PUSH1 0x4 PUSH1 0x20 SWAP1 DUP2 MSTORE PUSH1 0x40 DUP1 DUP4 KECCAK256 DUP1 SLOAD PUSH1 0x1 PUSH1 0x1 PUSH1 0xA0 SHL SUB NOT SWAP1 DUP2 AND SWAP1 SWAP2 SSTORE PUSH1 0x1 PUSH1 0x1 PUSH1 0xA0 SHL SUB DUP8 DUP2 AND DUP1 DUP7 MSTORE PUSH1 0x3 DUP6 MSTORE DUP4 DUP7 KECCAK256 DUP1 SLOAD PUSH1 0x0 NOT ADD SWAP1 SSTORE SWAP1 DUP8 AND DUP1 DUP7 MSTORE DUP4 DUP7 KECCAK256 DUP1 SLOAD PUSH1 0x1 ADD SWAP1 SSTORE DUP7 DUP7 MSTORE PUSH1 0x2 SWAP1 SWAP5 MSTORE DUP3 DUP6 KECCAK256 DUP1 SLOAD SWAP1 SWAP3 AND DUP5 OR SWAP1 SWAP2 SSTORE SWAP1 MLOAD DUP5 SWAP4 PUSH32 0xDDF252AD1BE2C89B69C2B068FC378DAA952BA7F163C4A11628F55A4DF523B3EF SWAP2 LOG4 POP POP POP JUMP JUMPDEST DUP2 PUSH1 0x1 PUSH1 0x1 PUSH1 0xA0 SHL SUB AND DUP4 PUSH1 0x1 PUSH1 0x1 PUSH1 0xA0 SHL SUB AND SUB PUSH2 0x177C JUMPI PUSH1 0x40 MLOAD PUSH3 0x461BCD PUSH1 0xE5 SHL DUP2 MSTORE PUSH1 0x20 PUSH1 0x4 DUP3 ADD MSTORE PUSH1 0x19 PUSH1 0x24 DUP3 ADD MSTORE PUSH32 0x4552433732313A20617070726F766520746F2063616C6C657200000000000000 PUSH1 0x44 DUP3 ADD MSTORE PUSH1 0x64 ADD PUSH2 0x92C JUMP JUMPDEST PUSH1 0x1 PUSH1 0x1 PUSH1 0xA0 SHL SUB DUP4 DUP2 AND PUSH1 0x0 DUP2 DUP2 MSTORE PUSH1 0x5 PUSH1 0x20 SWAP1 DUP2 MSTORE PUSH1 0x40 DUP1 DUP4 KECCAK256 SWAP5 DUP8 AND DUP1 DUP5 MSTORE SWAP5 DUP3 MSTORE SWAP2 DUP3 SWAP1 KECCAK256 DUP1 SLOAD PUSH1 0xFF NOT AND DUP7 ISZERO ISZERO SWAP1 DUP2 OR SWAP1 SWAP2 SSTORE SWAP2 MLOAD SWAP2 DUP3 MSTORE PUSH32 0x17307EAB39AB6107E8899845AD3D59BD9653F200F220920489CA2B5937696C31 SWAP2 ADD PUSH1 0x40 MLOAD DUP1 SWAP2 SUB SWAP1 LOG3 POP POP POP JUMP JUMPDEST PUSH2 0x17F4 DUP5 DUP5 DUP5 PUSH2 0x15AA JUMP JUMPDEST PUSH2 0x1800 DUP5 DUP5 DUP5 DUP5 PUSH2 0x194B JUMP JUMPDEST PUSH2 0x1120 JUMPI PUSH1 0x40 MLOAD PUSH3 0x461BCD PUSH1 0xE5 SHL DUP2 MSTORE PUSH1 0x4 ADD PUSH2 0x92C SWAP1 PUSH2 0x238E JUMP JUMPDEST PUSH1 0x60 PUSH2 0x1827 DUP3 PUSH2 0x13A8 JUMP JUMPDEST PUSH1 0x0 PUSH2 0x183E PUSH1 0x40 DUP1 MLOAD PUSH1 0x20 DUP2 ADD SWAP1 SWAP2 MSTORE PUSH1 0x0 DUP2 MSTORE SWAP1 JUMP JUMPDEST SWAP1 POP PUSH1 0x0 DUP2 MLOAD GT PUSH2 0x185E JUMPI PUSH1 0x40 MLOAD DUP1 PUSH1 0x20 ADD PUSH1 0x40 MSTORE DUP1 PUSH1 0x0 DUP2 MSTORE POP PUSH2 0x1889 JUMP JUMPDEST DUP1 PUSH2 0x1868 DUP5 PUSH2 0x1A4C JUMP JUMPDEST PUSH1 0x40 MLOAD PUSH1 0x20 ADD PUSH2 0x1879 SWAP3 SWAP2 SWAP1 PUSH2 0x231A JUMP JUMPDEST PUSH1 0x40 MLOAD PUSH1 0x20 DUP2 DUP4 SUB SUB DUP2 MSTORE SWAP1 PUSH1 0x40 MSTORE JUMPDEST SWAP4 SWAP3 POP POP POP JUMP JUMPDEST PUSH2 0x189A DUP4 DUP4 PUSH2 0x1ADF JUMP JUMPDEST PUSH2 0x18A7 PUSH1 0x0 DUP5 DUP5 DUP5 PUSH2 0x194B JUMP JUMPDEST PUSH2 0x9CD JUMPI PUSH1 0x40 MLOAD PUSH3 0x461BCD PUSH1 0xE5 SHL DUP2 MSTORE PUSH1 0x4 ADD PUSH2 0x92C SWAP1 PUSH2 0x238E JUMP JUMPDEST PUSH1 0x1 DUP2 GT ISZERO PUSH2 0x1120 JUMPI PUSH1 0x1 PUSH1 0x1 PUSH1 0xA0 SHL SUB DUP5 AND ISZERO PUSH2 0x1909 JUMPI PUSH1 0x1 PUSH1 0x1 PUSH1 0xA0 SHL SUB DUP5 AND PUSH1 0x0 SWAP1 DUP2 MSTORE PUSH1 0x3 PUSH1 0x20 MSTORE PUSH1 0x40 DUP2 KECCAK256 DUP1 SLOAD DUP4 SWAP3 SWAP1 PUSH2 0x1903 SWAP1 DUP5 SWAP1 PUSH2 0x23E0 JUMP JUMPDEST SWAP1 SWAP2 SSTORE POP POP JUMPDEST PUSH1 0x1 PUSH1 0x1 PUSH1 0xA0 SHL SUB DUP4 AND ISZERO PUSH2 0x1120 JUMPI PUSH1 0x1 PUSH1 0x1 PUSH1 0xA0 SHL SUB DUP4 AND PUSH1 0x0 SWAP1 DUP2 MSTORE PUSH1 0x3 PUSH1 0x20 MSTORE PUSH1 0x40 DUP2 KECCAK256 DUP1 SLOAD DUP4 SWAP3 SWAP1 PUSH2 0x1940 SWAP1 DUP5 SWAP1 PUSH2 0x2233 JUMP JUMPDEST SWAP1 SWAP2 SSTORE POP POP POP POP POP POP JUMP JUMPDEST PUSH1 0x0 PUSH1 0x1 PUSH1 0x1 PUSH1 0xA0 SHL SUB DUP5 AND EXTCODESIZE ISZERO PUSH2 0x1A41 JUMPI PUSH1 0x40 MLOAD PUSH4 0xA85BD01 PUSH1 0xE1 SHL DUP2 MSTORE PUSH1 0x1 PUSH1 0x1 PUSH1 0xA0 SHL SUB DUP6 AND SWAP1 PUSH4 0x150B7A02 SWAP1 PUSH2 0x198F SWAP1 CALLER SWAP1 DUP10 SWAP1 DUP9 SWAP1 DUP9 SWAP1 PUSH1 0x4 ADD PUSH2 0x23F7 JUMP JUMPDEST PUSH1 0x20 PUSH1 0x40 MLOAD DUP1 DUP4 SUB DUP2 PUSH1 0x0 DUP8 GAS CALL SWAP3 POP POP POP DUP1 ISZERO PUSH2 0x19CA JUMPI POP PUSH1 0x40 DUP1 MLOAD PUSH1 0x1F RETURNDATASIZE SWAP1 DUP2 ADD PUSH1 0x1F NOT AND DUP3 ADD SWAP1 SWAP3 MSTORE PUSH2 0x19C7 SWAP2 DUP2 ADD SWAP1 PUSH2 0x2434 JUMP JUMPDEST PUSH1 0x1 JUMPDEST PUSH2 0x1A27 JUMPI RETURNDATASIZE DUP1 DUP1 ISZERO PUSH2 0x19F8 JUMPI PUSH1 0x40 MLOAD SWAP2 POP PUSH1 0x1F NOT PUSH1 0x3F RETURNDATASIZE ADD AND DUP3 ADD PUSH1 0x40 MSTORE RETURNDATASIZE DUP3 MSTORE RETURNDATASIZE PUSH1 0x0 PUSH1 0x20 DUP5 ADD RETURNDATACOPY PUSH2 0x19FD JUMP JUMPDEST PUSH1 0x60 SWAP2 POP JUMPDEST POP DUP1 MLOAD PUSH1 0x0 SUB PUSH2 0x1A1F JUMPI PUSH1 0x40 MLOAD PUSH3 0x461BCD PUSH1 0xE5 SHL DUP2 MSTORE PUSH1 0x4 ADD PUSH2 0x92C SWAP1 PUSH2 0x238E JUMP JUMPDEST DUP1 MLOAD DUP2 PUSH1 0x20 ADD REVERT JUMPDEST PUSH1 0x1 PUSH1 0x1 PUSH1 0xE0 SHL SUB NOT AND PUSH4 0xA85BD01 PUSH1 0xE1 SHL EQ SWAP1 POP PUSH2 0x12E2 JUMP JUMPDEST POP PUSH1 0x1 SWAP5 SWAP4 POP POP POP POP JUMP JUMPDEST PUSH1 0x60 PUSH1 0x0 PUSH2 0x1A59 DUP4 PUSH2 0x1C78 JUMP JUMPDEST PUSH1 0x1 ADD SWAP1 POP PUSH1 0x0 DUP2 PUSH8 0xFFFFFFFFFFFFFFFF DUP2 GT ISZERO PUSH2 0x1A79 JUMPI PUSH2 0x1A79 PUSH2 0x1F01 JUMP JUMPDEST PUSH1 0x40 MLOAD SWAP1 DUP1 DUP3 MSTORE DUP1 PUSH1 0x1F ADD PUSH1 0x1F NOT AND PUSH1 0x20 ADD DUP3 ADD PUSH1 0x40 MSTORE DUP1 ISZERO PUSH2 0x1AA3 JUMPI PUSH1 0x20 DUP3 ADD DUP2 DUP1 CALLDATASIZE DUP4 CALLDATACOPY ADD SWAP1 POP JUMPDEST POP SWAP1 POP DUP2 DUP2 ADD PUSH1 0x20 ADD JUMPDEST PUSH1 0x0 NOT ADD PUSH16 0x181899199A1A9B1B9C1CB0B131B232B3 PUSH1 0x81 SHL PUSH1 0xA DUP7 MOD BYTE DUP2 MSTORE8 PUSH1 0xA DUP6 DIV SWAP5 POP DUP5 PUSH2 0x1AAD JUMPI POP SWAP4 SWAP3 POP POP POP JUMP JUMPDEST PUSH1 0x1 PUSH1 0x1 PUSH1 0xA0 SHL SUB DUP3 AND PUSH2 0x1B35 JUMPI PUSH1 0x40 MLOAD PUSH3 0x461BCD PUSH1 0xE5 SHL DUP2 MSTORE PUSH1 0x20 PUSH1 0x4 DUP3 ADD DUP2 SWAP1 MSTORE PUSH1 0x24 DUP3 ADD MSTORE PUSH32 0x4552433732313A206D696E7420746F20746865207A65726F2061646472657373 PUSH1 0x44 DUP3 ADD MSTORE PUSH1 0x64 ADD PUSH2 0x92C JUMP JUMPDEST PUSH1 0x0 DUP2 DUP2 MSTORE PUSH1 0x2 PUSH1 0x20 MSTORE PUSH1 0x40 SWAP1 KECCAK256 SLOAD PUSH1 0x1 PUSH1 0x1 PUSH1 0xA0 SHL SUB AND ISZERO PUSH2 0x1B9A JUMPI PUSH1 0x40 MLOAD PUSH3 0x461BCD PUSH1 0xE5 SHL DUP2 MSTORE PUSH1 0x20 PUSH1 0x4 DUP3 ADD MSTORE PUSH1 0x1C PUSH1 0x24 DUP3 ADD MSTORE PUSH32 0x4552433732313A20746F6B656E20616C7265616479206D696E74656400000000 PUSH1 0x44 DUP3 ADD MSTORE PUSH1 0x64 ADD PUSH2 0x92C JUMP JUMPDEST PUSH2 0x1BA8 PUSH1 0x0 DUP4 DUP4 PUSH1 0x1 PUSH2 0x18C3 JUMP JUMPDEST PUSH1 0x0 DUP2 DUP2 MSTORE PUSH1 0x2 PUSH1 0x20 MSTORE PUSH1 0x40 SWAP1 KECCAK256 SLOAD PUSH1 0x1 PUSH1 0x1 PUSH1 0xA0 SHL SUB AND ISZERO PUSH2 0x1C0D JUMPI PUSH1 0x40 MLOAD PUSH3 0x461BCD PUSH1 0xE5 SHL DUP2 MSTORE PUSH1 0x20 PUSH1 0x4 DUP3 ADD MSTORE PUSH1 0x1C PUSH1 0x24 DUP3 ADD MSTORE PUSH32 0x4552433732313A20746F6B656E20616C7265616479206D696E74656400000000 PUSH1 0x44 DUP3 ADD MSTORE PUSH1 0x64 ADD PUSH2 0x92C JUMP JUMPDEST PUSH1 0x1 PUSH1 0x1 PUSH1 0xA0 SHL SUB DUP3 AND PUSH1 0x0 DUP2 DUP2 MSTORE PUSH1 0x3 PUSH1 0x20 SWAP1 DUP2 MSTORE PUSH1 0x40 DUP1 DUP4 KECCAK256 DUP1 SLOAD PUSH1 0x1 ADD SWAP1 SSTORE DUP5 DUP4 MSTORE PUSH1 0x2 SWAP1 SWAP2 MSTORE DUP1 DUP3 KECCAK256 DUP1 SLOAD PUSH1 0x1 PUSH1 0x1 PUSH1 0xA0 SHL SUB NOT AND DUP5 OR SWAP1 SSTORE MLOAD DUP4 SWAP3 SWAP2 SWAP1 PUSH32 0xDDF252AD1BE2C89B69C2B068FC378DAA952BA7F163C4A11628F55A4DF523B3EF SWAP1 DUP3 SWAP1 LOG4 POP POP JUMP JUMPDEST PUSH1 0x0 DUP1 PUSH19 0x184F03E93FF9F4DAA797ED6E38ED64BF6A1F01 PUSH1 0x40 SHL DUP4 LT PUSH2 0x1CB7 JUMPI PUSH19 0x184F03E93FF9F4DAA797ED6E38ED64BF6A1F01 PUSH1 0x40 SHL DUP4 DIV SWAP3 POP PUSH1 0x40 ADD JUMPDEST PUSH14 0x4EE2D6D415B85ACEF8100000000 DUP4 LT PUSH2 0x1CE3 JUMPI PUSH14 0x4EE2D6D415B85ACEF8100000000 DUP4 DIV SWAP3 POP PUSH1 0x20 ADD JUMPDEST PUSH7 0x2386F26FC10000 DUP4 LT PUSH2 0x1D01 JUMPI PUSH7 0x2386F26FC10000 DUP4 DIV SWAP3 POP PUSH1 0x10 ADD JUMPDEST PUSH4 0x5F5E100 DUP4 LT PUSH2 0x1D19 JUMPI PUSH4 0x5F5E100 DUP4 DIV SWAP3 POP PUSH1 0x8 ADD JUMPDEST PUSH2 0x2710 DUP4 LT PUSH2 0x1D2D JUMPI PUSH2 0x2710 DUP4 DIV SWAP3 POP PUSH1 0x4 ADD JUMPDEST PUSH1 0x64 DUP4 LT PUSH2 0x1D3F JUMPI PUSH1 0x64 DUP4 DIV SWAP3 POP PUSH1 0x2 ADD JUMPDEST PUSH1 0xA DUP4 LT PUSH2 0x7F9 JUMPI PUSH1 0x1 ADD SWAP3 SWAP2 POP POP JUMP JUMPDEST DUP3 DUP1 SLOAD PUSH2 0x1D5C SWAP1 PUSH2 0x21B9 JUMP JUMPDEST SWAP1 PUSH1 0x0 MSTORE PUSH1 0x20 PUSH1 0x0 KECCAK256 SWAP1 PUSH1 0x1F ADD PUSH1 0x20 SWAP1 DIV DUP2 ADD SWAP3 DUP3 PUSH2 0x1D7E JUMPI PUSH1 0x0 DUP6 SSTORE PUSH2 0x1DC4 JUMP JUMPDEST DUP3 PUSH1 0x1F LT PUSH2 0x1D97 JUMPI DUP1 MLOAD PUSH1 0xFF NOT AND DUP4 DUP1 ADD OR DUP6 SSTORE PUSH2 0x1DC4 JUMP JUMPDEST DUP3 DUP1 ADD PUSH1 0x1 ADD DUP6 SSTORE DUP3 ISZERO PUSH2 0x1DC4 JUMPI SWAP2 DUP3 ADD JUMPDEST DUP3 DUP2 GT ISZERO PUSH2 0x1DC4 JUMPI DUP3 MLOAD DUP3 SSTORE SWAP2 PUSH1 0x20 ADD SWAP2 SWAP1 PUSH1 0x1 ADD SWAP1 PUSH2 0x1DA9 JUMP JUMPDEST POP PUSH2 0x1DD0 SWAP3 SWAP2 POP PUSH2 0x1DD4 JUMP JUMPDEST POP SWAP1 JUMP JUMPDEST JUMPDEST DUP1 DUP3 GT ISZERO PUSH2 0x1DD0 JUMPI PUSH1 0x0 DUP2 SSTORE PUSH1 0x1 ADD PUSH2 0x1DD5 JUMP JUMPDEST PUSH1 0x1 PUSH1 0x1 PUSH1 0xE0 SHL SUB NOT DUP2 AND DUP2 EQ PUSH2 0x1407 JUMPI PUSH1 0x0 DUP1 REVERT JUMPDEST PUSH1 0x0 PUSH1 0x20 DUP3 DUP5 SUB SLT ISZERO PUSH2 0x1E11 JUMPI PUSH1 0x0 DUP1 REVERT JUMPDEST DUP2 CALLDATALOAD PUSH2 0x1889 DUP2 PUSH2 0x1DE9 JUMP JUMPDEST PUSH1 0x0 JUMPDEST DUP4 DUP2 LT ISZERO PUSH2 0x1E37 JUMPI DUP2 DUP2 ADD MLOAD DUP4 DUP3 ADD MSTORE PUSH1 0x20 ADD PUSH2 0x1E1F JUMP JUMPDEST DUP4 DUP2 GT ISZERO PUSH2 0x1120 JUMPI POP POP PUSH1 0x0 SWAP2 ADD MSTORE JUMP JUMPDEST PUSH1 0x0 DUP2 MLOAD DUP1 DUP5 MSTORE PUSH2 0x1E60 DUP2 PUSH1 0x20 DUP7 ADD PUSH1 0x20 DUP7 ADD PUSH2 0x1E1C JUMP JUMPDEST PUSH1 0x1F ADD PUSH1 0x1F NOT AND SWAP3 SWAP1 SWAP3 ADD PUSH1 0x20 ADD SWAP3 SWAP2 POP POP JUMP JUMPDEST PUSH1 0x20 DUP2 MSTORE PUSH1 0x0 PUSH2 0x1889 PUSH1 0x20 DUP4 ADD DUP5 PUSH2 0x1E48 JUMP JUMPDEST PUSH1 0x0 PUSH1 0x20 DUP3 DUP5 SUB SLT ISZERO PUSH2 0x1E99 JUMPI PUSH1 0x0 DUP1 REVERT JUMPDEST POP CALLDATALOAD SWAP2 SWAP1 POP JUMP JUMPDEST DUP1 CALLDATALOAD PUSH1 0x1 PUSH1 0x1 PUSH1 0xA0 SHL SUB DUP2 AND DUP2 EQ PUSH2 0x1EB7 JUMPI PUSH1 0x0 DUP1 REVERT JUMPDEST SWAP2 SWAP1 POP JUMP JUMPDEST PUSH1 0x0 DUP1 PUSH1 0x40 DUP4 DUP6 SUB SLT ISZERO PUSH2 0x1ECF JUMPI PUSH1 0x0 DUP1 REVERT JUMPDEST PUSH2 0x1ED8 DUP4 PUSH2 0x1EA0 JUMP JUMPDEST SWAP5 PUSH1 0x20 SWAP4 SWAP1 SWAP4 ADD CALLDATALOAD SWAP4 POP POP POP JUMP JUMPDEST PUSH1 0x0 PUSH1 0x20 DUP3 DUP5 SUB SLT ISZERO PUSH2 0x1EF8 JUMPI PUSH1 0x0 DUP1 REVERT JUMPDEST PUSH2 0x1889 DUP3 PUSH2 0x1EA0 JUMP JUMPDEST PUSH4 0x4E487B71 PUSH1 0xE0 SHL PUSH1 0x0 MSTORE PUSH1 0x41 PUSH1 0x4 MSTORE PUSH1 0x24 PUSH1 0x0 REVERT JUMPDEST PUSH1 0x0 PUSH8 0xFFFFFFFFFFFFFFFF DUP1 DUP5 GT ISZERO PUSH2 0x1F32 JUMPI PUSH2 0x1F32 PUSH2 0x1F01 JUMP JUMPDEST PUSH1 0x40 MLOAD PUSH1 0x1F DUP6 ADD PUSH1 0x1F NOT SWAP1 DUP2 AND PUSH1 0x3F ADD AND DUP2 ADD SWAP1 DUP3 DUP3 GT DUP2 DUP4 LT OR ISZERO PUSH2 0x1F5A JUMPI PUSH2 0x1F5A PUSH2 0x1F01 JUMP JUMPDEST DUP2 PUSH1 0x40 MSTORE DUP1 SWAP4 POP DUP6 DUP2 MSTORE DUP7 DUP7 DUP7 ADD GT ISZERO PUSH2 0x1F73 JUMPI PUSH1 0x0 DUP1 REVERT JUMPDEST DUP6 DUP6 PUSH1 0x20 DUP4 ADD CALLDATACOPY PUSH1 0x0 PUSH1 0x20 DUP8 DUP4 ADD ADD MSTORE POP POP POP SWAP4 SWAP3 POP POP POP JUMP JUMPDEST PUSH1 0x0 DUP3 PUSH1 0x1F DUP4 ADD SLT PUSH2 0x1F9E JUMPI PUSH1 0x0 DUP1 REVERT JUMPDEST PUSH2 0x1889 DUP4 DUP4 CALLDATALOAD PUSH1 0x20 DUP6 ADD PUSH2 0x1F17 JUMP JUMPDEST PUSH1 0x0 DUP1 PUSH1 0x40 DUP4 DUP6 SUB SLT ISZERO PUSH2 0x1FC0 JUMPI PUSH1 0x0 DUP1 REVERT JUMPDEST DUP3 CALLDATALOAD SWAP2 POP PUSH1 0x20 DUP4 ADD CALLDATALOAD PUSH8 0xFFFFFFFFFFFFFFFF DUP2 GT ISZERO PUSH2 0x1FDE JUMPI PUSH1 0x0 DUP1 REVERT JUMPDEST PUSH2 0x1FEA DUP6 DUP3 DUP7 ADD PUSH2 0x1F8D JUMP JUMPDEST SWAP2 POP POP SWAP3 POP SWAP3 SWAP1 POP JUMP JUMPDEST PUSH1 0x0 DUP1 PUSH1 0x40 DUP4 DUP6 SUB SLT ISZERO PUSH2 0x2007 JUMPI PUSH1 0x0 DUP1 REVERT JUMPDEST POP POP DUP1 CALLDATALOAD SWAP3 PUSH1 0x20 SWAP1 SWAP2 ADD CALLDATALOAD SWAP2 POP JUMP JUMPDEST PUSH1 0x0 DUP1 PUSH1 0x0 PUSH1 0x60 DUP5 DUP7 SUB SLT ISZERO PUSH2 0x202B JUMPI PUSH1 0x0 DUP1 REVERT JUMPDEST PUSH2 0x2034 DUP5 PUSH2 0x1EA0 JUMP JUMPDEST SWAP3 POP PUSH2 0x2042 PUSH1 0x20 DUP6 ADD PUSH2 0x1EA0 JUMP JUMPDEST SWAP2 POP PUSH1 0x40 DUP5 ADD CALLDATALOAD SWAP1 POP SWAP3 POP SWAP3 POP SWAP3 JUMP JUMPDEST DUP1 ISZERO ISZERO DUP2 EQ PUSH2 0x1407 JUMPI PUSH1 0x0 DUP1 REVERT JUMPDEST PUSH1 0x0 DUP1 PUSH1 0x40 DUP4 DUP6 SUB SLT ISZERO PUSH2 0x2073 JUMPI PUSH1 0x0 DUP1 REVERT JUMPDEST PUSH2 0x207C DUP4 PUSH2 0x1EA0 JUMP JUMPDEST SWAP2 POP PUSH1 0x20 DUP4 ADD CALLDATALOAD PUSH2 0x208C DUP2 PUSH2 0x2052 JUMP JUMPDEST DUP1 SWAP2 POP POP SWAP3 POP SWAP3 SWAP1 POP JUMP JUMPDEST PUSH1 0x0 PUSH1 0x20 DUP3 DUP5 SUB SLT ISZERO PUSH2 0x20A9 JUMPI PUSH1 0x0 DUP1 REVERT JUMPDEST DUP2 CALLDATALOAD PUSH8 0xFFFFFFFFFFFFFFFF DUP2 GT ISZERO PUSH2 0x20C0 JUMPI PUSH1 0x0 DUP1 REVERT JUMPDEST PUSH2 0x12E2 DUP5 DUP3 DUP6 ADD PUSH2 0x1F8D JUMP JUMPDEST PUSH1 0x0 DUP1 PUSH1 0x0 DUP1 PUSH1 0x80 DUP6 DUP8 SUB SLT ISZERO PUSH2 0x20E2 JUMPI PUSH1 0x0 DUP1 REVERT JUMPDEST PUSH2 0x20EB DUP6 PUSH2 0x1EA0 JUMP JUMPDEST SWAP4 POP PUSH2 0x20F9 PUSH1 0x20 DUP7 ADD PUSH2 0x1EA0 JUMP JUMPDEST SWAP3 POP PUSH1 0x40 DUP6 ADD CALLDATALOAD SWAP2 POP PUSH1 0x60 DUP6 ADD CALLDATALOAD PUSH8 0xFFFFFFFFFFFFFFFF DUP2 GT ISZERO PUSH2 0x211C JUMPI PUSH1 0x0 DUP1 REVERT JUMPDEST DUP6 ADD PUSH1 0x1F DUP2 ADD DUP8 SGT PUSH2 0x212D JUMPI PUSH1 0x0 DUP1 REVERT JUMPDEST PUSH2 0x213C DUP8 DUP3 CALLDATALOAD PUSH1 0x20 DUP5 ADD PUSH2 0x1F17 JUMP JUMPDEST SWAP2 POP POP SWAP3 SWAP6 SWAP2 SWAP5 POP SWAP3 POP JUMP JUMPDEST PUSH4 0x4E487B71 PUSH1 0xE0 SHL PUSH1 0x0 MSTORE PUSH1 0x21 PUSH1 0x4 MSTORE PUSH1 0x24 PUSH1 0x0 REVERT JUMPDEST PUSH1 0x20 DUP2 ADD PUSH1 0x1 DUP4 LT PUSH2 0x2180 JUMPI PUSH4 0x4E487B71 PUSH1 0xE0 SHL PUSH1 0x0 MSTORE PUSH1 0x21 PUSH1 0x4 MSTORE PUSH1 0x24 PUSH1 0x0 REVERT JUMPDEST SWAP2 SWAP1 MSTORE SWAP1 JUMP JUMPDEST PUSH1 0x0 DUP1 PUSH1 0x40 DUP4 DUP6 SUB SLT ISZERO PUSH2 0x2199 JUMPI PUSH1 0x0 DUP1 REVERT JUMPDEST PUSH2 0x21A2 DUP4 PUSH2 0x1EA0 JUMP JUMPDEST SWAP2 POP PUSH2 0x21B0 PUSH1 0x20 DUP5 ADD PUSH2 0x1EA0 JUMP JUMPDEST SWAP1 POP SWAP3 POP SWAP3 SWAP1 POP JUMP JUMPDEST PUSH1 0x1 DUP2 DUP2 SHR SWAP1 DUP3 AND DUP1 PUSH2 0x21CD JUMPI PUSH1 0x7F DUP3 AND SWAP2 POP JUMPDEST PUSH1 0x20 DUP3 LT DUP2 SUB PUSH2 0x21ED JUMPI PUSH4 0x4E487B71 PUSH1 0xE0 SHL PUSH1 0x0 MSTORE PUSH1 0x22 PUSH1 0x4 MSTORE PUSH1 0x24 PUSH1 0x0 REVERT JUMPDEST POP SWAP2 SWAP1 POP JUMP JUMPDEST PUSH4 0x4E487B71 PUSH1 0xE0 SHL PUSH1 0x0 MSTORE PUSH1 0x12 PUSH1 0x4 MSTORE PUSH1 0x24 PUSH1 0x0 REVERT JUMPDEST PUSH1 0x0 DUP3 PUSH2 0x2218 JUMPI PUSH2 0x2218 PUSH2 0x21F3 JUMP JUMPDEST POP MOD SWAP1 JUMP JUMPDEST PUSH4 0x4E487B71 PUSH1 0xE0 SHL PUSH1 0x0 MSTORE PUSH1 0x11 PUSH1 0x4 MSTORE PUSH1 0x24 PUSH1 0x0 REVERT JUMPDEST PUSH1 0x0 DUP3 NOT DUP3 GT ISZERO PUSH2 0x2246 JUMPI PUSH2 0x2246 PUSH2 0x221D JUMP JUMPDEST POP ADD SWAP1 JUMP JUMPDEST PUSH1 0x20 DUP1 DUP3 MSTORE PUSH1 0x2D SWAP1 DUP3 ADD MSTORE PUSH32 0x4552433732313A2063616C6C6572206973206E6F7420746F6B656E206F776E65 PUSH1 0x40 DUP3 ADD MSTORE PUSH13 0x1C881BDC88185C1C1C9BDD9959 PUSH1 0x9A SHL PUSH1 0x60 DUP3 ADD MSTORE PUSH1 0x80 ADD SWAP1 JUMP JUMPDEST PUSH1 0x0 DUP3 PUSH2 0x22A7 JUMPI PUSH2 0x22A7 PUSH2 0x21F3 JUMP JUMPDEST POP DIV SWAP1 JUMP JUMPDEST PUSH1 0x0 PUSH1 0x1 DUP3 ADD PUSH2 0x22BE JUMPI PUSH2 0x22BE PUSH2 0x221D JUMP JUMPDEST POP PUSH1 0x1 ADD SWAP1 JUMP JUMPDEST PUSH1 0x0 PUSH1 0x20 DUP3 DUP5 SUB SLT ISZERO PUSH2 0x22D7 JUMPI PUSH1 0x0 DUP1 REVERT JUMPDEST POP MLOAD SWAP2 SWAP1 POP JUMP JUMPDEST PUSH1 0x0 PUSH1 0x20 DUP3 DUP5 SUB SLT ISZERO PUSH2 0x22F0 JUMPI PUSH1 0x0 DUP1 REVERT JUMPDEST DUP2 MLOAD PUSH2 0x1889 DUP2 PUSH2 0x2052 JUMP JUMPDEST PUSH1 0x0 DUP2 PUSH1 0x0 NOT DIV DUP4 GT DUP3 ISZERO ISZERO AND ISZERO PUSH2 0x2315 JUMPI PUSH2 0x2315 PUSH2 0x221D JUMP JUMPDEST POP MUL SWAP1 JUMP JUMPDEST PUSH1 0x0 DUP4 MLOAD PUSH2 0x232C DUP2 DUP5 PUSH1 0x20 DUP9 ADD PUSH2 0x1E1C JUMP JUMPDEST DUP4 MLOAD SWAP1 DUP4 ADD SWAP1 PUSH2 0x2340 DUP2 DUP4 PUSH1 0x20 DUP9 ADD PUSH2 0x1E1C JUMP JUMPDEST ADD SWAP5 SWAP4 POP POP POP POP JUMP JUMPDEST PUSH1 0x20 DUP1 DUP3 MSTORE PUSH1 0x25 SWAP1 DUP3 ADD MSTORE PUSH32 0x4552433732313A207472616E736665722066726F6D20696E636F727265637420 PUSH1 0x40 DUP3 ADD MSTORE PUSH5 0x37BBB732B9 PUSH1 0xD9 SHL PUSH1 0x60 DUP3 ADD MSTORE PUSH1 0x80 ADD SWAP1 JUMP JUMPDEST PUSH1 0x20 DUP1 DUP3 MSTORE PUSH1 0x32 SWAP1 DUP3 ADD MSTORE PUSH32 0x4552433732313A207472616E7366657220746F206E6F6E204552433732315265 PUSH1 0x40 DUP3 ADD MSTORE PUSH18 0x31B2B4BB32B91034B6B83632B6B2B73A32B9 PUSH1 0x71 SHL PUSH1 0x60 DUP3 ADD MSTORE PUSH1 0x80 ADD SWAP1 JUMP JUMPDEST PUSH1 0x0 DUP3 DUP3 LT ISZERO PUSH2 0x23F2 JUMPI PUSH2 0x23F2 PUSH2 0x221D JUMP JUMPDEST POP SUB SWAP1 JUMP JUMPDEST PUSH1 0x1 PUSH1 0x1 PUSH1 0xA0 SHL SUB DUP6 DUP2 AND DUP3 MSTORE DUP5 AND PUSH1 0x20 DUP3 ADD MSTORE PUSH1 0x40 DUP2 ADD DUP4 SWAP1 MSTORE PUSH1 0x80 PUSH1 0x60 DUP3 ADD DUP2 SWAP1 MSTORE PUSH1 0x0 SWAP1 PUSH2 0x242A SWAP1 DUP4 ADD DUP5 PUSH2 0x1E48 JUMP JUMPDEST SWAP7 SWAP6 POP POP POP POP POP POP JUMP JUMPDEST PUSH1 0x0 PUSH1 0x20 DUP3 DUP5 SUB SLT ISZERO PUSH2 0x2446 JUMPI PUSH1 0x0 DUP1 REVERT JUMPDEST DUP2 MLOAD PUSH2 0x1889 DUP2 PUSH2 0x1DE9 JUMP INVALID LOG2 PUSH5 0x6970667358 0x22 SLT KECCAK256 BYTE 0xC0 0xC6 STATICCALL 0xAD 0xCC 0xAC ISZERO SWAP2 PUSH7 0xB9BA22D702848A SLT SWAP7 0x2E 0xB3 0x4C 0xA5 PUSH20 0xA89C92528D197BB164736F6C634300080E003300 ","sha1":"429bbb411bd355f0f89144d43f9c6194af806b3c","source":"// SPDX-License-Identifier: MIT\npragma solidity ^0.8.1;\nimport \"@openzeppelin/contracts/token/ERC721/extensions/ERC721URIStorage.sol\";\nimport \"@openzeppelin/contracts/token/ERC20/IERC20.sol\";\nimport \"./Our_ERC20.sol\";\n\ninterface Nft_interface {\n    function update_nft_balance(uint256 amount) external;\n}\n\ncontract AdvancedCollectible is ERC721URIStorage {\n    enum Breed {\n        DREX1\n    }\n    // add other things\n    address public _token;\n    IERC20 private _daiTokens;\n    mapping(uint256 => address) public requestIdToSender;\n    mapping(uint256 => string) public requestIdToTokenURI;\n    mapping(uint256 => Breed) public tokenIdToBreed;\n    mapping(uint256 => uint256) public requestIdToTokenId;\n    mapping(address => uint256) public tokenToOwner;\n    mapping(uint256 => uint256) public participationValue;\n    mapping(address => uint256) public ownerToValue;\n    mapping(uint256 => uint256) public tokenidToValue;\n    mapping(address => bool) public Wallets;\n    address[] public previousContracts;\n\n    //events\n    event CREATE_NFT(uint256 indexed requestId);\n    event CLAIM(address _destAddr, uint256 _amount);\n    event UPDATE_NFT_BALANCE(uint256 amount);\n    event MINT(uint256 indexed requestId, uint256 randomNumber);\n\n    uint256 public totalTokenTransfered; //amount of drex tokens transfered till date\n    uint256 public tokenCounter;\n    uint256 public fParticipation;\n    uint256 public RequestId; //hardcoded value\n    uint256 public randomNumber; //harcoded value\n    address public Admin;\n    uint256 public nft_count;\n    uint256 public amount_to_send;\n    uint256 public token_Id;\n\n    // uint256 public curr_balance_for_each_token;\n\n    constructor(\n        address erc_token_address,\n        IERC20 dai_token_address,\n        address[] memory prevContracts,\n        uint256 no_of_nfts\n    ) public ERC721(\"DREX\", \"DRx\") {\n        Admin = msg.sender;\n        previousContracts = prevContracts;\n        _token = erc_token_address;\n        _daiTokens = dai_token_address;\n        RequestId = 1;\n        randomNumber = 10;\n        tokenCounter = 0;\n        totalTokenTransfered = 0;\n        nft_count = no_of_nfts;\n        amount_to_send = 0;\n        // curr_balance_for_each_token = 0;\n    }\n\n    /// @notice Creates the nft\n    /// @param  tokenURI -> the token uri of the each nft, it can be empty also\n    function create_nft(string memory tokenURI) public payable {\n        require(\n            _daiTokens.balanceOf(msg.sender) > 50000,\n            \"balance not enought to mint nft\"\n        );\n        _daiTokens.transferFrom(msg.sender, address(this), 50000);\n        uint256 requestId = RequestId; //requestRandomness(keyHash, fee);\n        requestIdToSender[requestId] = msg.sender;\n        requestIdToTokenURI[requestId] = tokenURI;\n        mint(requestId, randomNumber);\n        RequestId = RequestId + 1;\n        randomNumber = randomNumber + 1;\n        emit CREATE_NFT(requestId);\n    }\n\n    /// @notice Used to set each of the user who have bought the nft\n    /// @param _wallet -> address of tge nft holder\n    function setWallet(address _wallet) public {\n        Wallets[_wallet] = true;\n    }\n\n    /// @notice Helper fucntion called by create_nft, calls the 'safemint fucntion'\n    /// @param requestId -->a uint256 number unique for each nft\n    /// @param RandomNumber -->  a uint256 number for each of the nft\n    function mint(uint256 requestId, uint256 RandomNumber) public {\n        address DrexOwner = requestIdToSender[requestId];\n        string memory tokenURI = requestIdToTokenURI[requestId];\n        uint256 newItemId = tokenCounter;\n        _safeMint(Admin, newItemId);\n        _setTokenURI(newItemId, tokenURI);\n        setWallet(DrexOwner);\n        Breed breed = Breed(RandomNumber % 1);\n        tokenIdToBreed[newItemId] = breed;\n        requestIdToTokenId[requestId] = newItemId;\n\n        // bug in the tokenToowner Mapping , have to fix it\n\n        tokenToOwner[DrexOwner] = newItemId;\n        tokenCounter = tokenCounter + 1;\n        emit MINT(requestId, RandomNumber);\n    }\n\n    ///@notice Sets tokenURI for each nft minted\n    /// @param tokenId --> a tokenId of each of the nft\n    /// @param _tokenURI --> string which refers the tokenuri for the nft\n    function setTokenURI(uint256 tokenId, string memory _tokenURI) public {\n        require(\n            _isApprovedOrOwner(_msgSender(), tokenId),\n            \"ERC721: transfer caller is not owner nor approved\"\n        );\n        _setTokenURI(tokenId, _tokenURI);\n    }\n\n    //correct this functions --> find new function for each contract\n    function participationCalculation() public {\n        require(previousContracts.length > 0, \"this is the first contract\");\n\n        //needs another check to remove the first contract after 25 years or after 25 contracts have been created\n\n        uint256 totalContracts = previousContracts.length + 1;\n        uint256 totalNfts = totalContracts * nft_count; //no of nfts per collection is a variable and find a way to make it variable\n        uint256 fEmission = nft_count / totalNfts; //decide how to deal with floating points --> need to be different for each collection\n        uint256 fYear = 1 / totalContracts;\n        fParticipation = (fEmission + fYear) / 2;\n    }\n\n    // function participationReturns() public {\n    //     uint256 erc20balance = _token.balanceOf(address(this));\n    //     require(\n    //         _token.balanceOf(address(this)) > 100,\n    //         \"balance not sufficient\"\n    //     );\n    //     uint256 costTosend = (erc20balance * fParticipation) / 100;\n    //     for (uint256 holder = 0; holder < previousContracts.length; holder++) {\n    //         address to = previousContracts[holder];\n    //         _token.transfer(to, costTosend);\n    //         erc20balance -= costTosend;\n    //         // event for transfering funds from token pool to particular contract\n    //         emit CLAIM(to, costTosend);\n    //     }\n    // }\n\n    /// @notice Divides the amount generated in each of the nft holders\n    /// @param amount --> amount generated and transfered to the contract\n    function update_nft_balance(uint256 amount) external {\n        uint256 curr_balance_for_each_token = amount / (nft_count);\n        for (uint256 token_id = 0; token_id < nft_count; token_id++) {\n            tokenidToValue[token_id] += curr_balance_for_each_token;\n        }\n        emit UPDATE_NFT_BALANCE(amount);\n    }\n\n    /// @notice NFt holder claims there drexTokens to stable coins using this function\n    function claim() public {\n        require(Wallets[msg.sender] == true, \"sender dont hold a nft\");\n        token_Id = tokenToOwner[msg.sender];\n        address rec = payable(msg.sender);\n        amount_to_send = (tokenidToValue[token_Id]);\n        drex_token_interface erc20 = drex_token_interface(_token);\n        erc20.tranferingfunds(payable(rec), amount_to_send);\n        emit CLAIM(msg.sender, amount_to_send);\n    }\n}\n","sourcePath":"contracts/AdvancedCollectible.sol","type":"contract","deployment":{"address":"0x7621005DD5Db3073968Df0Ee469e6f148960D6b0","chainid":"1287","blockHeight":3405727}}