{"abi":[{"inputs":[{"internalType":"address payable","name":"nft_address","type":"address"},{"internalType":"address","name":"erc20_address","type":"address"}],"stateMutability":"nonpayable","type":"constructor","name":"constructor"},{"anonymous":false,"inputs":[{"indexed":true,"internalType":"bytes32","name":"id","type":"bytes32"}],"name":"ChainlinkCancelled","type":"event"},{"anonymous":false,"inputs":[{"indexed":true,"internalType":"bytes32","name":"id","type":"bytes32"}],"name":"ChainlinkFulfilled","type":"event"},{"anonymous":false,"inputs":[{"indexed":true,"internalType":"bytes32","name":"id","type":"bytes32"}],"name":"ChainlinkRequested","type":"event"},{"inputs":[],"name":"curr_volume","outputs":[{"internalType":"uint256","name":"","type":"uint256"}],"stateMutability":"view","type":"function"},{"inputs":[],"name":"drex_token_contract","outputs":[{"internalType":"address","name":"","type":"address"}],"stateMutability":"view","type":"function"},{"inputs":[{"internalType":"bytes32","name":"_requestId","type":"bytes32"},{"internalType":"uint256","name":"_volume","type":"uint256"}],"name":"fulfill","outputs":[],"stateMutability":"nonpayable","type":"function"},{"inputs":[],"name":"nft_contract","outputs":[{"internalType":"address payable","name":"","type":"address"}],"stateMutability":"view","type":"function"},{"inputs":[],"name":"request_sensor_data","outputs":[{"internalType":"bytes32","name":"requestId","type":"bytes32"}],"stateMutability":"nonpayable","type":"function"},{"inputs":[],"name":"token_transfer","outputs":[],"stateMutability":"nonpayable","type":"function"},{"inputs":[],"name":"volume","outputs":[{"internalType":"uint256","name":"","type":"uint256"}],"stateMutability":"view","type":"function"}],"bytecode":"6080604052600160045534801561001557600080fd5b5060405161100a38038061100a833981016040819052610034916100f3565b600280546001600160a01b03191673a36085f69e2889c224210f603d836748e7dc00881790556006805473d4d9ac4ecf5ddf18056ce6a91d0a8e7b0c910cce6001600160a01b0319918216179091557f373961626331653336626533343061363937653262343964643264383637393860075560006008819055600a805483166001600160a01b03958616179055600b805490921692909316919091179055600c5561012d565b6001600160a01b03811681146100f057600080fd5b50565b6000806040838503121561010657600080fd5b8251610111816100db565b6020840151909250610122816100db565b809150509250929050565b610ece8061013c6000396000f3fe608060405234801561001057600080fd5b506004361061007d5760003560e01c8063a14aa5111161005b578063a14aa511146100ba578063c618a1e4146100c3578063c8c92ea6146100cc578063fcdcdeee146100f757600080fd5b806323a98bd7146100825780634357855e1461008c578063483566311461009f575b600080fd5b61008a61010a565b005b61008a61009a366004610b72565b6101f0565b6100a76102b8565b6040519081526020015b60405180910390f35b6100a7600c5481565b6100a760095481565b600b546100df906001600160a01b031681565b6040516001600160a01b0390911681526020016100b1565b600a546100df906001600160a01b031681565b6000600c5460095461011c9190610baa565b600954600c55600a54600b54604051635bf6fa8960e01b81526001600160a01b0392831660048201819052602482018590529394509116908190635bf6fa8990604401600060405180830381600087803b15801561017957600080fd5b505af115801561018d573d6000803e3d6000fd5b5050604051638a77409160e01b8152600481018690526001600160a01b0385169250638a7740919150602401600060405180830381600087803b1580156101d357600080fd5b505af11580156101e7573d6000803e3d6000fd5b50505050505050565b60008281526005602052604090205482906001600160a01b0316331461026e5760405162461bcd60e51b815260206004820152602860248201527f536f75726365206d75737420626520746865206f7261636c65206f6620746865604482015267081c995c5d595cdd60c21b60648201526084015b60405180910390fd5b60008181526005602052604080822080546001600160a01b03191690555182917f7cc135e0cebb02c3480ae5d74d377283180a2601f8f644edf7987b009316c63a91a25060095550565b6000806102cf60075430634357855e60e01b6103c0565b90506103116040518060400160405280600381526020016219d95d60ea1b815250604051806080016040528060518152602001610e48605191398391906103e5565b61036c604051806040016040528060048152602001630e0c2e8d60e31b81525060405180604001604052806012815260200171195b995c99de4b5858d8dd5b5d5b185d195960721b815250836103e59092919063ffffffff16565b60408051808201909152600581526474696d657360d81b6020820152670de0b6b3a76400009061039e90839083610408565b6006546008546103b9916001600160a01b0316908490610426565b9250505090565b6103c8610b37565b6103d0610b37565b6103dc818686866104b9565b95945050505050565b60808301516103f490836104ff565b608083015161040390826104ff565b505050565b608083015161041790836104ff565b60808301516104039082610516565b600454600090610437816001610bc1565b600455835160408086015160808701515191516000936320214ca360e11b9361046f9386938493923092918a91600191602401610c26565b60408051601f198184030181529190526020810180516001600160e01b03166001600160e01b03199093169290921790915290506104af8683868461057a565b9695505050505050565b6104c1610b37565b6104d185608001516101006106d8565b50508284526001600160a01b03821660208501526001600160e01b031981166040850152835b949350505050565b61050c8260038351610743565b6104038282610858565b67ffffffffffffffff19811215610535576105318282610886565b5050565b67ffffffffffffffff81131561054f5761053182826108c8565b600081126105635761053182600083610743565b61053182600161057584600019610c8e565b610743565b6040516bffffffffffffffffffffffff193060601b1660208201526034810184905260009060540160408051808303601f1901815282825280516020918201206000818152600590925291812080546001600160a01b0319166001600160a01b038a1617905590925082917fb5e6e01e79f91267dc17b4e6314d5d4d03593d2ceee0fbb452b750bd70ea5af99190a2600254604051630200057560e51b81526001600160a01b0390911690634000aea09061063d90889087908790600401610ccd565b6020604051808303816000875af115801561065c573d6000803e3d6000fd5b505050506040513d601f19601f820116820180604052508101906106809190610cf4565b6104f75760405162461bcd60e51b815260206004820152602360248201527f756e61626c6520746f207472616e73666572416e6443616c6c20746f206f7261604482015262636c6560e81b6064820152608401610265565b6040805180820190915260608152600060208201526106f8602083610d16565b1561072057610708602083610d16565b610713906020610baa565b61071d9083610bc1565b91505b506020808301829052604080518085526000815283019091019052815b92915050565b60178167ffffffffffffffff161161076e576107688360e0600585901b1683176108eb565b50505050565b60ff8167ffffffffffffffff16116107ac57610795836018611fe0600586901b16176108eb565b506107688367ffffffffffffffff83166001610910565b61ffff8167ffffffffffffffff16116107eb576107d4836019611fe0600586901b16176108eb565b506107688367ffffffffffffffff83166002610910565b63ffffffff8167ffffffffffffffff161161082c5761081583601a611fe0600586901b16176108eb565b506107688367ffffffffffffffff83166004610910565b61084183601b611fe0600586901b16176108eb565b506107688367ffffffffffffffff83166008610910565b60408051808201909152606081526000602082015261087f83846000015151848551610936565b9392505050565b6108918260c36108eb565b50610531826108a283600019610c8e565b6040516020016108b491815260200190565b604051602081830303815290604052610a20565b6108d38260c26108eb565b5061053182826040516020016108b491815260200190565b60408051808201909152606081526000602082015261087f8384600001515184610a2d565b6040805180820190915260608152600060208201526104f7848560000151518585610a88565b604080518082019091526060815260006020820152825182111561095957600080fd5b60208501516109688386610bc1565b111561099b5761099b8561098b876020015187866109869190610bc1565b610b09565b610996906002610d38565b610b20565b6000808651805187602083010193508088870111156109ba5787860182525b505050602084015b602084106109fa57805182526109d9602083610bc1565b91506109e6602082610bc1565b90506109f3602085610baa565b93506109c2565b51815160001960208690036101000a019081169019919091161790525083949350505050565b61050c8260028351610743565b60408051808201909152606081526000602082015283602001518310610a6257610a6284856020015160026109969190610d38565b8351805160208583010184815350808503610a7e576001810182525b5093949350505050565b6040805180820190915260608152600060208201526020850151610aac8584610bc1565b1115610ac057610ac08561098b8685610bc1565b60006001610ad084610100610e3b565b610ada9190610baa565b9050855183868201018583198251161781525080518487011115610afe5783860181525b509495945050505050565b600081831115610b1a57508161073d565b50919050565b8151610b2c83836106d8565b506107688382610858565b6040805160a0810182526000808252602080830182905282840182905260608084018390528451808601909552845283015290608082015290565b60008060408385031215610b8557600080fd5b50508035926020909101359150565b634e487b7160e01b600052601160045260246000fd5b600082821015610bbc57610bbc610b94565b500390565b60008219821115610bd457610bd4610b94565b500190565b6000815180845260005b81811015610bff57602081850181015186830182015201610be3565b81811115610c11576000602083870101525b50601f01601f19169290920160200192915050565b6001600160a01b0389811682526020820189905260408201889052861660608201526001600160e01b03198516608082015260a0810184905260c0810183905261010060e08201819052600090610c7f83820185610bd9565b9b9a5050505050505050505050565b60008083128015600160ff1b850184121615610cac57610cac610b94565b6001600160ff1b0384018313811615610cc757610cc7610b94565b50500390565b60018060a01b03841681528260208201526060604082015260006103dc6060830184610bd9565b600060208284031215610d0657600080fd5b8151801515811461087f57600080fd5b600082610d3357634e487b7160e01b600052601260045260246000fd5b500690565b6000816000190483118215151615610d5257610d52610b94565b500290565b600181815b80851115610d92578160001904821115610d7857610d78610b94565b80851615610d8557918102915b93841c9390800290610d5c565b509250929050565b600082610da95750600161073d565b81610db65750600061073d565b8160018114610dcc5760028114610dd657610df2565b600191505061073d565b60ff841115610de757610de7610b94565b50506001821b61073d565b5060208310610133831016604e8410600b8410161715610e15575081810a61073d565b610e1f8383610d57565b8060001904821115610e3357610e33610b94565b029392505050565b600061087f8383610d9a56fe687474703a2f2f64726578616c6c2d656e762e6562612d65336d6e6e6d36392e75732d656173742d312e656c61737469636265616e7374616c6b2e636f6d2f677269642f6c6173743f636f64653d4c494da2646970667358221220d973723befaf190d11a0936d8b01aac48382089f994d4d3f7cfa3ebc5658e69464736f6c634300080e0033","bytecodeSha1":"cbc982243acd28c16e3b042adee734b6717b55d7","compiler":{"evm_version":"istanbul","optimizer":{"enabled":true,"runs":200},"version":"0.8.14+commit.80d49f37"},"contractName":"Client","language":"Solidity","natspec":{"kind":"dev","methods":{"constructor":{"notice":"This example uses the LINK token address on Moonbase Alpha. Make sure to update the oracle and jobId."},"fulfill(bytes32,uint256)":{"notice":"Receive the response in the form of uint256"},"request_sensor_data()":{"notice":"Create a Chainlink request to retrieve API response, find the target data, then multiply by 1000000000000000000 (to remove decimal places from data)."}},"version":1},"opcodes":"PUSH1 0x80 PUSH1 0x40 MSTORE CALLVALUE DUP1 ISZERO PUSH2 0x10 JUMPI PUSH1 0x0 DUP1 REVERT JUMPDEST POP PUSH1 0x4 CALLDATASIZE LT PUSH2 0x7D JUMPI PUSH1 0x0 CALLDATALOAD PUSH1 0xE0 SHR DUP1 PUSH4 0xA14AA511 GT PUSH2 0x5B JUMPI DUP1 PUSH4 0xA14AA511 EQ PUSH2 0xBA JUMPI DUP1 PUSH4 0xC618A1E4 EQ PUSH2 0xC3 JUMPI DUP1 PUSH4 0xC8C92EA6 EQ PUSH2 0xCC JUMPI DUP1 PUSH4 0xFCDCDEEE EQ PUSH2 0xF7 JUMPI PUSH1 0x0 DUP1 REVERT JUMPDEST DUP1 PUSH4 0x23A98BD7 EQ PUSH2 0x82 JUMPI DUP1 PUSH4 0x4357855E EQ PUSH2 0x8C JUMPI DUP1 PUSH4 0x48356631 EQ PUSH2 0x9F JUMPI JUMPDEST PUSH1 0x0 DUP1 REVERT JUMPDEST PUSH2 0x8A PUSH2 0x10A JUMP JUMPDEST STOP JUMPDEST PUSH2 0x8A PUSH2 0x9A CALLDATASIZE PUSH1 0x4 PUSH2 0xB72 JUMP JUMPDEST PUSH2 0x1F0 JUMP JUMPDEST PUSH2 0xA7 PUSH2 0x2B8 JUMP JUMPDEST PUSH1 0x40 MLOAD SWAP1 DUP2 MSTORE PUSH1 0x20 ADD JUMPDEST PUSH1 0x40 MLOAD DUP1 SWAP2 SUB SWAP1 RETURN JUMPDEST PUSH2 0xA7 PUSH1 0xC SLOAD DUP2 JUMP JUMPDEST PUSH2 0xA7 PUSH1 0x9 SLOAD DUP2 JUMP JUMPDEST PUSH1 0xB SLOAD PUSH2 0xDF SWAP1 PUSH1 0x1 PUSH1 0x1 PUSH1 0xA0 SHL SUB AND DUP2 JUMP JUMPDEST PUSH1 0x40 MLOAD PUSH1 0x1 PUSH1 0x1 PUSH1 0xA0 SHL SUB SWAP1 SWAP2 AND DUP2 MSTORE PUSH1 0x20 ADD PUSH2 0xB1 JUMP JUMPDEST PUSH1 0xA SLOAD PUSH2 0xDF SWAP1 PUSH1 0x1 PUSH1 0x1 PUSH1 0xA0 SHL SUB AND DUP2 JUMP JUMPDEST PUSH1 0x0 PUSH1 0xC SLOAD PUSH1 0x9 SLOAD PUSH2 0x11C SWAP2 SWAP1 PUSH2 0xBAA JUMP JUMPDEST PUSH1 0x9 SLOAD PUSH1 0xC SSTORE PUSH1 0xA SLOAD PUSH1 0xB SLOAD PUSH1 0x40 MLOAD PUSH4 0x5BF6FA89 PUSH1 0xE0 SHL DUP2 MSTORE PUSH1 0x1 PUSH1 0x1 PUSH1 0xA0 SHL SUB SWAP3 DUP4 AND PUSH1 0x4 DUP3 ADD DUP2 SWAP1 MSTORE PUSH1 0x24 DUP3 ADD DUP6 SWAP1 MSTORE SWAP4 SWAP5 POP SWAP2 AND SWAP1 DUP2 SWAP1 PUSH4 0x5BF6FA89 SWAP1 PUSH1 0x44 ADD PUSH1 0x0 PUSH1 0x40 MLOAD DUP1 DUP4 SUB DUP2 PUSH1 0x0 DUP8 DUP1 EXTCODESIZE ISZERO DUP1 ISZERO PUSH2 0x179 JUMPI PUSH1 0x0 DUP1 REVERT JUMPDEST POP GAS CALL ISZERO DUP1 ISZERO PUSH2 0x18D JUMPI RETURNDATASIZE PUSH1 0x0 DUP1 RETURNDATACOPY RETURNDATASIZE PUSH1 0x0 REVERT JUMPDEST POP POP PUSH1 0x40 MLOAD PUSH4 0x8A774091 PUSH1 0xE0 SHL DUP2 MSTORE PUSH1 0x4 DUP2 ADD DUP7 SWAP1 MSTORE PUSH1 0x1 PUSH1 0x1 PUSH1 0xA0 SHL SUB DUP6 AND SWAP3 POP PUSH4 0x8A774091 SWAP2 POP PUSH1 0x24 ADD PUSH1 0x0 PUSH1 0x40 MLOAD DUP1 DUP4 SUB DUP2 PUSH1 0x0 DUP8 DUP1 EXTCODESIZE ISZERO DUP1 ISZERO PUSH2 0x1D3 JUMPI PUSH1 0x0 DUP1 REVERT JUMPDEST POP GAS CALL ISZERO DUP1 ISZERO PUSH2 0x1E7 JUMPI RETURNDATASIZE PUSH1 0x0 DUP1 RETURNDATACOPY RETURNDATASIZE PUSH1 0x0 REVERT JUMPDEST POP POP POP POP POP POP POP JUMP JUMPDEST PUSH1 0x0 DUP3 DUP2 MSTORE PUSH1 0x5 PUSH1 0x20 MSTORE PUSH1 0x40 SWAP1 KECCAK256 SLOAD DUP3 SWAP1 PUSH1 0x1 PUSH1 0x1 PUSH1 0xA0 SHL SUB AND CALLER EQ PUSH2 0x26E JUMPI PUSH1 0x40 MLOAD PUSH3 0x461BCD PUSH1 0xE5 SHL DUP2 MSTORE PUSH1 0x20 PUSH1 0x4 DUP3 ADD MSTORE PUSH1 0x28 PUSH1 0x24 DUP3 ADD MSTORE PUSH32 0x536F75726365206D75737420626520746865206F7261636C65206F6620746865 PUSH1 0x44 DUP3 ADD MSTORE PUSH8 0x81C995C5D595CDD PUSH1 0xC2 SHL PUSH1 0x64 DUP3 ADD MSTORE PUSH1 0x84 ADD JUMPDEST PUSH1 0x40 MLOAD DUP1 SWAP2 SUB SWAP1 REVERT JUMPDEST PUSH1 0x0 DUP2 DUP2 MSTORE PUSH1 0x5 PUSH1 0x20 MSTORE PUSH1 0x40 DUP1 DUP3 KECCAK256 DUP1 SLOAD PUSH1 0x1 PUSH1 0x1 PUSH1 0xA0 SHL SUB NOT AND SWAP1 SSTORE MLOAD DUP3 SWAP2 PUSH32 0x7CC135E0CEBB02C3480AE5D74D377283180A2601F8F644EDF7987B009316C63A SWAP2 LOG2 POP PUSH1 0x9 SSTORE POP JUMP JUMPDEST PUSH1 0x0 DUP1 PUSH2 0x2CF PUSH1 0x7 SLOAD ADDRESS PUSH4 0x4357855E PUSH1 0xE0 SHL PUSH2 0x3C0 JUMP JUMPDEST SWAP1 POP PUSH2 0x311 PUSH1 0x40 MLOAD DUP1 PUSH1 0x40 ADD PUSH1 0x40 MSTORE DUP1 PUSH1 0x3 DUP2 MSTORE PUSH1 0x20 ADD PUSH3 0x19D95D PUSH1 0xEA SHL DUP2 MSTORE POP PUSH1 0x40 MLOAD DUP1 PUSH1 0x80 ADD PUSH1 0x40 MSTORE DUP1 PUSH1 0x51 DUP2 MSTORE PUSH1 0x20 ADD PUSH2 0xE48 PUSH1 0x51 SWAP2 CODECOPY DUP4 SWAP2 SWAP1 PUSH2 0x3E5 JUMP JUMPDEST PUSH2 0x36C PUSH1 0x40 MLOAD DUP1 PUSH1 0x40 ADD PUSH1 0x40 MSTORE DUP1 PUSH1 0x4 DUP2 MSTORE PUSH1 0x20 ADD PUSH4 0xE0C2E8D PUSH1 0xE3 SHL DUP2 MSTORE POP PUSH1 0x40 MLOAD DUP1 PUSH1 0x40 ADD PUSH1 0x40 MSTORE DUP1 PUSH1 0x12 DUP2 MSTORE PUSH1 0x20 ADD PUSH18 0x195B995C99DE4B5858D8DD5B5D5B185D1959 PUSH1 0x72 SHL DUP2 MSTORE POP DUP4 PUSH2 0x3E5 SWAP1 SWAP3 SWAP2 SWAP1 PUSH4 0xFFFFFFFF AND JUMP JUMPDEST PUSH1 0x40 DUP1 MLOAD DUP1 DUP3 ADD SWAP1 SWAP2 MSTORE PUSH1 0x5 DUP2 MSTORE PUSH5 0x74696D6573 PUSH1 0xD8 SHL PUSH1 0x20 DUP3 ADD MSTORE PUSH8 0xDE0B6B3A7640000 SWAP1 PUSH2 0x39E SWAP1 DUP4 SWAP1 DUP4 PUSH2 0x408 JUMP JUMPDEST PUSH1 0x6 SLOAD PUSH1 0x8 SLOAD PUSH2 0x3B9 SWAP2 PUSH1 0x1 PUSH1 0x1 PUSH1 0xA0 SHL SUB AND SWAP1 DUP5 SWAP1 PUSH2 0x426 JUMP JUMPDEST SWAP3 POP POP POP SWAP1 JUMP JUMPDEST PUSH2 0x3C8 PUSH2 0xB37 JUMP JUMPDEST PUSH2 0x3D0 PUSH2 0xB37 JUMP JUMPDEST PUSH2 0x3DC DUP2 DUP7 DUP7 DUP7 PUSH2 0x4B9 JUMP JUMPDEST SWAP6 SWAP5 POP POP POP POP POP JUMP JUMPDEST PUSH1 0x80 DUP4 ADD MLOAD PUSH2 0x3F4 SWAP1 DUP4 PUSH2 0x4FF JUMP JUMPDEST PUSH1 0x80 DUP4 ADD MLOAD PUSH2 0x403 SWAP1 DUP3 PUSH2 0x4FF JUMP JUMPDEST POP POP POP JUMP JUMPDEST PUSH1 0x80 DUP4 ADD MLOAD PUSH2 0x417 SWAP1 DUP4 PUSH2 0x4FF JUMP JUMPDEST PUSH1 0x80 DUP4 ADD MLOAD PUSH2 0x403 SWAP1 DUP3 PUSH2 0x516 JUMP JUMPDEST PUSH1 0x4 SLOAD PUSH1 0x0 SWAP1 PUSH2 0x437 DUP2 PUSH1 0x1 PUSH2 0xBC1 JUMP JUMPDEST PUSH1 0x4 SSTORE DUP4 MLOAD PUSH1 0x40 DUP1 DUP7 ADD MLOAD PUSH1 0x80 DUP8 ADD MLOAD MLOAD SWAP2 MLOAD PUSH1 0x0 SWAP4 PUSH4 0x20214CA3 PUSH1 0xE1 SHL SWAP4 PUSH2 0x46F SWAP4 DUP7 SWAP4 DUP5 SWAP4 SWAP3 ADDRESS SWAP3 SWAP2 DUP11 SWAP2 PUSH1 0x1 SWAP2 PUSH1 0x24 ADD PUSH2 0xC26 JUMP JUMPDEST PUSH1 0x40 DUP1 MLOAD PUSH1 0x1F NOT DUP2 DUP5 SUB ADD DUP2 MSTORE SWAP2 SWAP1 MSTORE PUSH1 0x20 DUP2 ADD DUP1 MLOAD PUSH1 0x1 PUSH1 0x1 PUSH1 0xE0 SHL SUB AND PUSH1 0x1 PUSH1 0x1 PUSH1 0xE0 SHL SUB NOT SWAP1 SWAP4 AND SWAP3 SWAP1 SWAP3 OR SWAP1 SWAP2 MSTORE SWAP1 POP PUSH2 0x4AF DUP7 DUP4 DUP7 DUP5 PUSH2 0x57A JUMP JUMPDEST SWAP7 SWAP6 POP POP POP POP POP POP JUMP JUMPDEST PUSH2 0x4C1 PUSH2 0xB37 JUMP JUMPDEST PUSH2 0x4D1 DUP6 PUSH1 0x80 ADD MLOAD PUSH2 0x100 PUSH2 0x6D8 JUMP JUMPDEST POP POP DUP3 DUP5 MSTORE PUSH1 0x1 PUSH1 0x1 PUSH1 0xA0 SHL SUB DUP3 AND PUSH1 0x20 DUP6 ADD MSTORE PUSH1 0x1 PUSH1 0x1 PUSH1 0xE0 SHL SUB NOT DUP2 AND PUSH1 0x40 DUP6 ADD MSTORE DUP4 JUMPDEST SWAP5 SWAP4 POP POP POP POP JUMP JUMPDEST PUSH2 0x50C DUP3 PUSH1 0x3 DUP4 MLOAD PUSH2 0x743 JUMP JUMPDEST PUSH2 0x403 DUP3 DUP3 PUSH2 0x858 JUMP JUMPDEST PUSH8 0xFFFFFFFFFFFFFFFF NOT DUP2 SLT ISZERO PUSH2 0x535 JUMPI PUSH2 0x531 DUP3 DUP3 PUSH2 0x886 JUMP JUMPDEST POP POP JUMP JUMPDEST PUSH8 0xFFFFFFFFFFFFFFFF DUP2 SGT ISZERO PUSH2 0x54F JUMPI PUSH2 0x531 DUP3 DUP3 PUSH2 0x8C8 JUMP JUMPDEST PUSH1 0x0 DUP2 SLT PUSH2 0x563 JUMPI PUSH2 0x531 DUP3 PUSH1 0x0 DUP4 PUSH2 0x743 JUMP JUMPDEST PUSH2 0x531 DUP3 PUSH1 0x1 PUSH2 0x575 DUP5 PUSH1 0x0 NOT PUSH2 0xC8E JUMP JUMPDEST PUSH2 0x743 JUMP JUMPDEST PUSH1 0x40 MLOAD PUSH12 0xFFFFFFFFFFFFFFFFFFFFFFFF NOT ADDRESS PUSH1 0x60 SHL AND PUSH1 0x20 DUP3 ADD MSTORE PUSH1 0x34 DUP2 ADD DUP5 SWAP1 MSTORE PUSH1 0x0 SWAP1 PUSH1 0x54 ADD PUSH1 0x40 DUP1 MLOAD DUP1 DUP4 SUB PUSH1 0x1F NOT ADD DUP2 MSTORE DUP3 DUP3 MSTORE DUP1 MLOAD PUSH1 0x20 SWAP2 DUP3 ADD KECCAK256 PUSH1 0x0 DUP2 DUP2 MSTORE PUSH1 0x5 SWAP1 SWAP3 MSTORE SWAP2 DUP2 KECCAK256 DUP1 SLOAD PUSH1 0x1 PUSH1 0x1 PUSH1 0xA0 SHL SUB NOT AND PUSH1 0x1 PUSH1 0x1 PUSH1 0xA0 SHL SUB DUP11 AND OR SWAP1 SSTORE SWAP1 SWAP3 POP DUP3 SWAP2 PUSH32 0xB5E6E01E79F91267DC17B4E6314D5D4D03593D2CEEE0FBB452B750BD70EA5AF9 SWAP2 SWAP1 LOG2 PUSH1 0x2 SLOAD PUSH1 0x40 MLOAD PUSH4 0x2000575 PUSH1 0xE5 SHL DUP2 MSTORE PUSH1 0x1 PUSH1 0x1 PUSH1 0xA0 SHL SUB SWAP1 SWAP2 AND SWAP1 PUSH4 0x4000AEA0 SWAP1 PUSH2 0x63D SWAP1 DUP9 SWAP1 DUP8 SWAP1 DUP8 SWAP1 PUSH1 0x4 ADD PUSH2 0xCCD JUMP JUMPDEST PUSH1 0x20 PUSH1 0x40 MLOAD DUP1 DUP4 SUB DUP2 PUSH1 0x0 DUP8 GAS CALL ISZERO DUP1 ISZERO PUSH2 0x65C JUMPI RETURNDATASIZE PUSH1 0x0 DUP1 RETURNDATACOPY RETURNDATASIZE PUSH1 0x0 REVERT JUMPDEST POP POP POP POP PUSH1 0x40 MLOAD RETURNDATASIZE PUSH1 0x1F NOT PUSH1 0x1F DUP3 ADD AND DUP3 ADD DUP1 PUSH1 0x40 MSTORE POP DUP2 ADD SWAP1 PUSH2 0x680 SWAP2 SWAP1 PUSH2 0xCF4 JUMP JUMPDEST PUSH2 0x4F7 JUMPI PUSH1 0x40 MLOAD PUSH3 0x461BCD PUSH1 0xE5 SHL DUP2 MSTORE PUSH1 0x20 PUSH1 0x4 DUP3 ADD MSTORE PUSH1 0x23 PUSH1 0x24 DUP3 ADD MSTORE PUSH32 0x756E61626C6520746F207472616E73666572416E6443616C6C20746F206F7261 PUSH1 0x44 DUP3 ADD MSTORE PUSH3 0x636C65 PUSH1 0xE8 SHL PUSH1 0x64 DUP3 ADD MSTORE PUSH1 0x84 ADD PUSH2 0x265 JUMP JUMPDEST PUSH1 0x40 DUP1 MLOAD DUP1 DUP3 ADD SWAP1 SWAP2 MSTORE PUSH1 0x60 DUP2 MSTORE PUSH1 0x0 PUSH1 0x20 DUP3 ADD MSTORE PUSH2 0x6F8 PUSH1 0x20 DUP4 PUSH2 0xD16 JUMP JUMPDEST ISZERO PUSH2 0x720 JUMPI PUSH2 0x708 PUSH1 0x20 DUP4 PUSH2 0xD16 JUMP JUMPDEST PUSH2 0x713 SWAP1 PUSH1 0x20 PUSH2 0xBAA JUMP JUMPDEST PUSH2 0x71D SWAP1 DUP4 PUSH2 0xBC1 JUMP JUMPDEST SWAP2 POP JUMPDEST POP PUSH1 0x20 DUP1 DUP4 ADD DUP3 SWAP1 MSTORE PUSH1 0x40 DUP1 MLOAD DUP1 DUP6 MSTORE PUSH1 0x0 DUP2 MSTORE DUP4 ADD SWAP1 SWAP2 ADD SWAP1 MSTORE DUP2 JUMPDEST SWAP3 SWAP2 POP POP JUMP JUMPDEST PUSH1 0x17 DUP2 PUSH8 0xFFFFFFFFFFFFFFFF AND GT PUSH2 0x76E JUMPI PUSH2 0x768 DUP4 PUSH1 0xE0 PUSH1 0x5 DUP6 SWAP1 SHL AND DUP4 OR PUSH2 0x8EB JUMP JUMPDEST POP POP POP POP JUMP JUMPDEST PUSH1 0xFF DUP2 PUSH8 0xFFFFFFFFFFFFFFFF AND GT PUSH2 0x7AC JUMPI PUSH2 0x795 DUP4 PUSH1 0x18 PUSH2 0x1FE0 PUSH1 0x5 DUP7 SWAP1 SHL AND OR PUSH2 0x8EB JUMP JUMPDEST POP PUSH2 0x768 DUP4 PUSH8 0xFFFFFFFFFFFFFFFF DUP4 AND PUSH1 0x1 PUSH2 0x910 JUMP JUMPDEST PUSH2 0xFFFF DUP2 PUSH8 0xFFFFFFFFFFFFFFFF AND GT PUSH2 0x7EB JUMPI PUSH2 0x7D4 DUP4 PUSH1 0x19 PUSH2 0x1FE0 PUSH1 0x5 DUP7 SWAP1 SHL AND OR PUSH2 0x8EB JUMP JUMPDEST POP PUSH2 0x768 DUP4 PUSH8 0xFFFFFFFFFFFFFFFF DUP4 AND PUSH1 0x2 PUSH2 0x910 JUMP JUMPDEST PUSH4 0xFFFFFFFF DUP2 PUSH8 0xFFFFFFFFFFFFFFFF AND GT PUSH2 0x82C JUMPI PUSH2 0x815 DUP4 PUSH1 0x1A PUSH2 0x1FE0 PUSH1 0x5 DUP7 SWAP1 SHL AND OR PUSH2 0x8EB JUMP JUMPDEST POP PUSH2 0x768 DUP4 PUSH8 0xFFFFFFFFFFFFFFFF DUP4 AND PUSH1 0x4 PUSH2 0x910 JUMP JUMPDEST PUSH2 0x841 DUP4 PUSH1 0x1B PUSH2 0x1FE0 PUSH1 0x5 DUP7 SWAP1 SHL AND OR PUSH2 0x8EB JUMP JUMPDEST POP PUSH2 0x768 DUP4 PUSH8 0xFFFFFFFFFFFFFFFF DUP4 AND PUSH1 0x8 PUSH2 0x910 JUMP JUMPDEST PUSH1 0x40 DUP1 MLOAD DUP1 DUP3 ADD SWAP1 SWAP2 MSTORE PUSH1 0x60 DUP2 MSTORE PUSH1 0x0 PUSH1 0x20 DUP3 ADD MSTORE PUSH2 0x87F DUP4 DUP5 PUSH1 0x0 ADD MLOAD MLOAD DUP5 DUP6 MLOAD PUSH2 0x936 JUMP JUMPDEST SWAP4 SWAP3 POP POP POP JUMP JUMPDEST PUSH2 0x891 DUP3 PUSH1 0xC3 PUSH2 0x8EB JUMP JUMPDEST POP PUSH2 0x531 DUP3 PUSH2 0x8A2 DUP4 PUSH1 0x0 NOT PUSH2 0xC8E JUMP JUMPDEST PUSH1 0x40 MLOAD PUSH1 0x20 ADD PUSH2 0x8B4 SWAP2 DUP2 MSTORE PUSH1 0x20 ADD SWAP1 JUMP JUMPDEST PUSH1 0x40 MLOAD PUSH1 0x20 DUP2 DUP4 SUB SUB DUP2 MSTORE SWAP1 PUSH1 0x40 MSTORE PUSH2 0xA20 JUMP JUMPDEST PUSH2 0x8D3 DUP3 PUSH1 0xC2 PUSH2 0x8EB JUMP JUMPDEST POP PUSH2 0x531 DUP3 DUP3 PUSH1 0x40 MLOAD PUSH1 0x20 ADD PUSH2 0x8B4 SWAP2 DUP2 MSTORE PUSH1 0x20 ADD SWAP1 JUMP JUMPDEST PUSH1 0x40 DUP1 MLOAD DUP1 DUP3 ADD SWAP1 SWAP2 MSTORE PUSH1 0x60 DUP2 MSTORE PUSH1 0x0 PUSH1 0x20 DUP3 ADD MSTORE PUSH2 0x87F DUP4 DUP5 PUSH1 0x0 ADD MLOAD MLOAD DUP5 PUSH2 0xA2D JUMP JUMPDEST PUSH1 0x40 DUP1 MLOAD DUP1 DUP3 ADD SWAP1 SWAP2 MSTORE PUSH1 0x60 DUP2 MSTORE PUSH1 0x0 PUSH1 0x20 DUP3 ADD MSTORE PUSH2 0x4F7 DUP5 DUP6 PUSH1 0x0 ADD MLOAD MLOAD DUP6 DUP6 PUSH2 0xA88 JUMP JUMPDEST PUSH1 0x40 DUP1 MLOAD DUP1 DUP3 ADD SWAP1 SWAP2 MSTORE PUSH1 0x60 DUP2 MSTORE PUSH1 0x0 PUSH1 0x20 DUP3 ADD MSTORE DUP3 MLOAD DUP3 GT ISZERO PUSH2 0x959 JUMPI PUSH1 0x0 DUP1 REVERT JUMPDEST PUSH1 0x20 DUP6 ADD MLOAD PUSH2 0x968 DUP4 DUP7 PUSH2 0xBC1 JUMP JUMPDEST GT ISZERO PUSH2 0x99B JUMPI PUSH2 0x99B DUP6 PUSH2 0x98B DUP8 PUSH1 0x20 ADD MLOAD DUP8 DUP7 PUSH2 0x986 SWAP2 SWAP1 PUSH2 0xBC1 JUMP JUMPDEST PUSH2 0xB09 JUMP JUMPDEST PUSH2 0x996 SWAP1 PUSH1 0x2 PUSH2 0xD38 JUMP JUMPDEST PUSH2 0xB20 JUMP JUMPDEST PUSH1 0x0 DUP1 DUP7 MLOAD DUP1 MLOAD DUP8 PUSH1 0x20 DUP4 ADD ADD SWAP4 POP DUP1 DUP9 DUP8 ADD GT ISZERO PUSH2 0x9BA JUMPI DUP8 DUP7 ADD DUP3 MSTORE JUMPDEST POP POP POP PUSH1 0x20 DUP5 ADD JUMPDEST PUSH1 0x20 DUP5 LT PUSH2 0x9FA JUMPI DUP1 MLOAD DUP3 MSTORE PUSH2 0x9D9 PUSH1 0x20 DUP4 PUSH2 0xBC1 JUMP JUMPDEST SWAP2 POP PUSH2 0x9E6 PUSH1 0x20 DUP3 PUSH2 0xBC1 JUMP JUMPDEST SWAP1 POP PUSH2 0x9F3 PUSH1 0x20 DUP6 PUSH2 0xBAA JUMP JUMPDEST SWAP4 POP PUSH2 0x9C2 JUMP JUMPDEST MLOAD DUP2 MLOAD PUSH1 0x0 NOT PUSH1 0x20 DUP7 SWAP1 SUB PUSH2 0x100 EXP ADD SWAP1 DUP2 AND SWAP1 NOT SWAP2 SWAP1 SWAP2 AND OR SWAP1 MSTORE POP DUP4 SWAP5 SWAP4 POP POP POP POP JUMP JUMPDEST PUSH2 0x50C DUP3 PUSH1 0x2 DUP4 MLOAD PUSH2 0x743 JUMP JUMPDEST PUSH1 0x40 DUP1 MLOAD DUP1 DUP3 ADD SWAP1 SWAP2 MSTORE PUSH1 0x60 DUP2 MSTORE PUSH1 0x0 PUSH1 0x20 DUP3 ADD MSTORE DUP4 PUSH1 0x20 ADD MLOAD DUP4 LT PUSH2 0xA62 JUMPI PUSH2 0xA62 DUP5 DUP6 PUSH1 0x20 ADD MLOAD PUSH1 0x2 PUSH2 0x996 SWAP2 SWAP1 PUSH2 0xD38 JUMP JUMPDEST DUP4 MLOAD DUP1 MLOAD PUSH1 0x20 DUP6 DUP4 ADD ADD DUP5 DUP2 MSTORE8 POP DUP1 DUP6 SUB PUSH2 0xA7E JUMPI PUSH1 0x1 DUP2 ADD DUP3 MSTORE JUMPDEST POP SWAP4 SWAP5 SWAP4 POP POP POP POP JUMP JUMPDEST PUSH1 0x40 DUP1 MLOAD DUP1 DUP3 ADD SWAP1 SWAP2 MSTORE PUSH1 0x60 DUP2 MSTORE PUSH1 0x0 PUSH1 0x20 DUP3 ADD MSTORE PUSH1 0x20 DUP6 ADD MLOAD PUSH2 0xAAC DUP6 DUP5 PUSH2 0xBC1 JUMP JUMPDEST GT ISZERO PUSH2 0xAC0 JUMPI PUSH2 0xAC0 DUP6 PUSH2 0x98B DUP7 DUP6 PUSH2 0xBC1 JUMP JUMPDEST PUSH1 0x0 PUSH1 0x1 PUSH2 0xAD0 DUP5 PUSH2 0x100 PUSH2 0xE3B JUMP JUMPDEST PUSH2 0xADA SWAP2 SWAP1 PUSH2 0xBAA JUMP JUMPDEST SWAP1 POP DUP6 MLOAD DUP4 DUP7 DUP3 ADD ADD DUP6 DUP4 NOT DUP3 MLOAD AND OR DUP2 MSTORE POP DUP1 MLOAD DUP5 DUP8 ADD GT ISZERO PUSH2 0xAFE JUMPI DUP4 DUP7 ADD DUP2 MSTORE JUMPDEST POP SWAP5 SWAP6 SWAP5 POP POP POP POP POP JUMP JUMPDEST PUSH1 0x0 DUP2 DUP4 GT ISZERO PUSH2 0xB1A JUMPI POP DUP2 PUSH2 0x73D JUMP JUMPDEST POP SWAP2 SWAP1 POP JUMP JUMPDEST DUP2 MLOAD PUSH2 0xB2C DUP4 DUP4 PUSH2 0x6D8 JUMP JUMPDEST POP PUSH2 0x768 DUP4 DUP3 PUSH2 0x858 JUMP JUMPDEST PUSH1 0x40 DUP1 MLOAD PUSH1 0xA0 DUP2 ADD DUP3 MSTORE PUSH1 0x0 DUP1 DUP3 MSTORE PUSH1 0x20 DUP1 DUP4 ADD DUP3 SWAP1 MSTORE DUP3 DUP5 ADD DUP3 SWAP1 MSTORE PUSH1 0x60 DUP1 DUP5 ADD DUP4 SWAP1 MSTORE DUP5 MLOAD DUP1 DUP7 ADD SWAP1 SWAP6 MSTORE DUP5 MSTORE DUP4 ADD MSTORE SWAP1 PUSH1 0x80 DUP3 ADD MSTORE SWAP1 JUMP JUMPDEST PUSH1 0x0 DUP1 PUSH1 0x40 DUP4 DUP6 SUB SLT ISZERO PUSH2 0xB85 JUMPI PUSH1 0x0 DUP1 REVERT JUMPDEST POP POP DUP1 CALLDATALOAD SWAP3 PUSH1 0x20 SWAP1 SWAP2 ADD CALLDATALOAD SWAP2 POP JUMP JUMPDEST PUSH4 0x4E487B71 PUSH1 0xE0 SHL PUSH1 0x0 MSTORE PUSH1 0x11 PUSH1 0x4 MSTORE PUSH1 0x24 PUSH1 0x0 REVERT JUMPDEST PUSH1 0x0 DUP3 DUP3 LT ISZERO PUSH2 0xBBC JUMPI PUSH2 0xBBC PUSH2 0xB94 JUMP JUMPDEST POP SUB SWAP1 JUMP JUMPDEST PUSH1 0x0 DUP3 NOT DUP3 GT ISZERO PUSH2 0xBD4 JUMPI PUSH2 0xBD4 PUSH2 0xB94 JUMP JUMPDEST POP ADD SWAP1 JUMP JUMPDEST PUSH1 0x0 DUP2 MLOAD DUP1 DUP5 MSTORE PUSH1 0x0 JUMPDEST DUP2 DUP2 LT ISZERO PUSH2 0xBFF JUMPI PUSH1 0x20 DUP2 DUP6 ADD DUP2 ADD MLOAD DUP7 DUP4 ADD DUP3 ADD MSTORE ADD PUSH2 0xBE3 JUMP JUMPDEST DUP2 DUP2 GT ISZERO PUSH2 0xC11 JUMPI PUSH1 0x0 PUSH1 0x20 DUP4 DUP8 ADD ADD MSTORE JUMPDEST POP PUSH1 0x1F ADD PUSH1 0x1F NOT AND SWAP3 SWAP1 SWAP3 ADD PUSH1 0x20 ADD SWAP3 SWAP2 POP POP JUMP JUMPDEST PUSH1 0x1 PUSH1 0x1 PUSH1 0xA0 SHL SUB DUP10 DUP2 AND DUP3 MSTORE PUSH1 0x20 DUP3 ADD DUP10 SWAP1 MSTORE PUSH1 0x40 DUP3 ADD DUP9 SWAP1 MSTORE DUP7 AND PUSH1 0x60 DUP3 ADD MSTORE PUSH1 0x1 PUSH1 0x1 PUSH1 0xE0 SHL SUB NOT DUP6 AND PUSH1 0x80 DUP3 ADD MSTORE PUSH1 0xA0 DUP2 ADD DUP5 SWAP1 MSTORE PUSH1 0xC0 DUP2 ADD DUP4 SWAP1 MSTORE PUSH2 0x100 PUSH1 0xE0 DUP3 ADD DUP2 SWAP1 MSTORE PUSH1 0x0 SWAP1 PUSH2 0xC7F DUP4 DUP3 ADD DUP6 PUSH2 0xBD9 JUMP JUMPDEST SWAP12 SWAP11 POP POP POP POP POP POP POP POP POP POP POP JUMP JUMPDEST PUSH1 0x0 DUP1 DUP4 SLT DUP1 ISZERO PUSH1 0x1 PUSH1 0xFF SHL DUP6 ADD DUP5 SLT AND ISZERO PUSH2 0xCAC JUMPI PUSH2 0xCAC PUSH2 0xB94 JUMP JUMPDEST PUSH1 0x1 PUSH1 0x1 PUSH1 0xFF SHL SUB DUP5 ADD DUP4 SGT DUP2 AND ISZERO PUSH2 0xCC7 JUMPI PUSH2 0xCC7 PUSH2 0xB94 JUMP JUMPDEST POP POP SUB SWAP1 JUMP JUMPDEST PUSH1 0x1 DUP1 PUSH1 0xA0 SHL SUB DUP5 AND DUP2 MSTORE DUP3 PUSH1 0x20 DUP3 ADD MSTORE PUSH1 0x60 PUSH1 0x40 DUP3 ADD MSTORE PUSH1 0x0 PUSH2 0x3DC PUSH1 0x60 DUP4 ADD DUP5 PUSH2 0xBD9 JUMP JUMPDEST PUSH1 0x0 PUSH1 0x20 DUP3 DUP5 SUB SLT ISZERO PUSH2 0xD06 JUMPI PUSH1 0x0 DUP1 REVERT JUMPDEST DUP2 MLOAD DUP1 ISZERO ISZERO DUP2 EQ PUSH2 0x87F JUMPI PUSH1 0x0 DUP1 REVERT JUMPDEST PUSH1 0x0 DUP3 PUSH2 0xD33 JUMPI PUSH4 0x4E487B71 PUSH1 0xE0 SHL PUSH1 0x0 MSTORE PUSH1 0x12 PUSH1 0x4 MSTORE PUSH1 0x24 PUSH1 0x0 REVERT JUMPDEST POP MOD SWAP1 JUMP JUMPDEST PUSH1 0x0 DUP2 PUSH1 0x0 NOT DIV DUP4 GT DUP3 ISZERO ISZERO AND ISZERO PUSH2 0xD52 JUMPI PUSH2 0xD52 PUSH2 0xB94 JUMP JUMPDEST POP MUL SWAP1 JUMP JUMPDEST PUSH1 0x1 DUP2 DUP2 JUMPDEST DUP1 DUP6 GT ISZERO PUSH2 0xD92 JUMPI DUP2 PUSH1 0x0 NOT DIV DUP3 GT ISZERO PUSH2 0xD78 JUMPI PUSH2 0xD78 PUSH2 0xB94 JUMP JUMPDEST DUP1 DUP6 AND ISZERO PUSH2 0xD85 JUMPI SWAP2 DUP2 MUL SWAP2 JUMPDEST SWAP4 DUP5 SHR SWAP4 SWAP1 DUP1 MUL SWAP1 PUSH2 0xD5C JUMP JUMPDEST POP SWAP3 POP SWAP3 SWAP1 POP JUMP JUMPDEST PUSH1 0x0 DUP3 PUSH2 0xDA9 JUMPI POP PUSH1 0x1 PUSH2 0x73D JUMP JUMPDEST DUP2 PUSH2 0xDB6 JUMPI POP PUSH1 0x0 PUSH2 0x73D JUMP JUMPDEST DUP2 PUSH1 0x1 DUP2 EQ PUSH2 0xDCC JUMPI PUSH1 0x2 DUP2 EQ PUSH2 0xDD6 JUMPI PUSH2 0xDF2 JUMP JUMPDEST PUSH1 0x1 SWAP2 POP POP PUSH2 0x73D JUMP JUMPDEST PUSH1 0xFF DUP5 GT ISZERO PUSH2 0xDE7 JUMPI PUSH2 0xDE7 PUSH2 0xB94 JUMP JUMPDEST POP POP PUSH1 0x1 DUP3 SHL PUSH2 0x73D JUMP JUMPDEST POP PUSH1 0x20 DUP4 LT PUSH2 0x133 DUP4 LT AND PUSH1 0x4E DUP5 LT PUSH1 0xB DUP5 LT AND OR ISZERO PUSH2 0xE15 JUMPI POP DUP2 DUP2 EXP PUSH2 0x73D JUMP JUMPDEST PUSH2 0xE1F DUP4 DUP4 PUSH2 0xD57 JUMP JUMPDEST DUP1 PUSH1 0x0 NOT DIV DUP3 GT ISZERO PUSH2 0xE33 JUMPI PUSH2 0xE33 PUSH2 0xB94 JUMP JUMPDEST MUL SWAP4 SWAP3 POP POP POP JUMP JUMPDEST PUSH1 0x0 PUSH2 0x87F DUP4 DUP4 PUSH2 0xD9A JUMP INVALID PUSH9 0x7474703A2F2F647265 PUSH25 0x616C6C2D656E762E6562612D65336D6E6E6D36392E75732D65 PUSH2 0x7374 0x2D BALANCE 0x2E PUSH6 0x6C6173746963 PUSH3 0x65616E PUSH20 0x74616C6B2E636F6D2F677269642F6C6173743F63 PUSH16 0x64653D4C494DA2646970667358221220 0xD9 PUSH20 0x723BEFAF190D11A0936D8B01AAC48382089F994D 0x4D EXTCODEHASH PUSH29 0xFA3EBC5658E69464736F6C634300080E00330000000000000000000000 ","sha1":"f8bbdb95d7a5cff12d75b8074a76ed370cb026fe","source":"// SPDX-License-Identifier: GPL-3.0\n\npragma solidity ^0.8.1;\n\nimport \"@chainlink/contracts/src/v0.8/ChainlinkClient.sol\";\nimport \"./AdvancedCollectible.sol\";\nimport \"./Our_ERC20.sol\";\n\ncontract Client is ChainlinkClient {\n    using Chainlink for Chainlink.Request;\n\n    address private oracle;\n    bytes32 private jobId;\n    uint256 private fee;\n    uint256 public volume;\n    address payable public nft_contract;\n    address public drex_token_contract;\n    uint256 public curr_volume;\n\n    /**\n    This example uses the LINK token address on Moonbase Alpha.\n    Make sure to update the oracle and jobId.\n    */\n    constructor(address payable nft_address, address erc20_address) {\n        setChainlinkToken(address(0xa36085F69e2889c224210F603D836748e7dC0088));\n        oracle = 0xD4D9ac4ecF5dDf18056ce6A91d0a8E7B0c910ccE;\n        jobId = \"79abc1e36be340a697e2b49dd2d86798\";\n        fee = 0;\n        nft_contract = nft_address;\n        drex_token_contract = erc20_address;\n        curr_volume = 0;\n    }\n\n    /**\n     * Create a Chainlink request to retrieve API response, find the target\n     * data, then multiply by 1000000000000000000 (to remove decimal places from data).\n     */\n    function request_sensor_data() public returns (bytes32 requestId) {\n        Chainlink.Request memory request = buildChainlinkRequest(\n            jobId,\n            address(this),\n            this.fulfill.selector\n        );\n\n        // Set the URL to perform the GET request on\n        request.add(\n            \"get\",\n            \"http://drexall-env.eba-e3mnnm69.us-east-1.elasticbeanstalk.com/grid/last?code=LIM\"\n        );\n\n        // Set the path to find the desired data in the API response, where the response format is:\n\n        request.add(\"path\", \"energy-accumulated\");\n\n        // Multiply the result by 1000000000000000000 to remove decimals\n        int256 timesAmount = 10**18;\n        request.addInt(\"times\", timesAmount);\n\n        // Sends the request\n        return sendChainlinkRequestTo(oracle, request, fee);\n    }\n\n    /**\n     * Receive the response in the form of uint256\n     */\n    function fulfill(bytes32 _requestId, uint256 _volume)\n        public\n        recordChainlinkFulfillment(_requestId)\n    {\n        volume = _volume;\n    }\n\n    function token_transfer() public {\n        uint256 amt_generated = volume - curr_volume;\n        curr_volume = volume;\n        Nft_interface nfti = Nft_interface(nft_contract);\n        drex_token_interface erc20 = drex_token_interface(drex_token_contract);\n        erc20.tranferingfunds(nft_contract, amt_generated);\n        nfti.update_nft_balance(amt_generated);\n    }\n}\n","sourcePath":"contracts/DrexApi.sol","type":"contract","deployment":{"address":"0x8Ccc25B6E246b33f28d6cC83395b40EE9Ccb81B6","chainid":"1287","blockHeight":3363753}}