{"bytecode":"608060405234801561001057600080fd5b5060405161097138038061097183398101604081905261002f9161008c565b600080546001600160a01b039384166001600160a01b03199182161790915560018054929093169181169190911790915560028054909116331790556100be565b80516001600160a01b038116811461008757600080fd5b919050565b6000806040838503121561009e578182fd5b6100a783610070565b91506100b560208401610070565b90509250929050565b6108a4806100cd6000396000f3fe60806040526004361061003f5760003560e01c80633ffaf5c614610044578063a3d0b40414610059578063be040fb01461006e578063fdfecf8a14610083575b600080fd5b6100576100523660046106dd565b6100b9565b005b34801561006557600080fd5b50610057610224565b34801561007a57600080fd5b5061005761034d565b34801561008f57600080fd5b506100a361009e3660046106dd565b61069b565b6040516100b0919061070d565b60405180910390f35b6000546040516370a0823160e01b815282916001600160a01b0316906370a08231906100e990339060040161070d565b60206040518083038186803b15801561010157600080fd5b505afa158015610115573d6000803e3d6000fd5b505050506040513d601f19601f8201168201806040525081019061013991906106f5565b1161015f5760405162461bcd60e51b81526004016101569061082c565b60405180910390fd5b6000546040516323b872dd60e01b81526001600160a01b03909116906323b872dd9061019390339030908690600401610721565b602060405180830381600087803b1580156101ad57600080fd5b505af11580156101c1573d6000803e3d6000fd5b505050506040513d601f19601f820116820180604052508101906101e591906106b6565b507f8aa89c45e00b1dc8befa3736e4d341042a1cd0021a629920526985a6028f752530600454604051610219929190610745565b60405180910390a150565b6002546001600160a01b0316331461024e5760405162461bcd60e51b81526004016101569061075e565b6001546002546040516370a0823160e01b81526001600160a01b039283169263a9059cbb92169083906370a082319061028b90309060040161070d565b60206040518083038186803b1580156102a357600080fd5b505afa1580156102b7573d6000803e3d6000fd5b505050506040513d601f19601f820116820180604052508101906102db91906106f5565b6040518363ffffffff1660e01b81526004016102f8929190610745565b602060405180830381600087803b15801561031257600080fd5b505af1158015610326573d6000803e3d6000fd5b505050506040513d601f19601f8201168201806040525081019061034a91906106b6565b50565b6001546040516370a0823160e01b81526000916001600160a01b0316906370a082319061037e90339060040161070d565b60206040518083038186803b15801561039657600080fd5b505afa1580156103aa573d6000803e3d6000fd5b505050506040513d601f19601f820116820180604052508101906103ce91906106f5565b116103eb5760405162461bcd60e51b81526004016101569061078b565b6001546040516370a0823160e01b81526001600160a01b03909116906370a082319061041b90339060040161070d565b60206040518083038186803b15801561043357600080fd5b505afa158015610447573d6000803e3d6000fd5b505050506040513d601f19601f8201168201806040525081019061046b91906106f5565b6000546040516370a0823160e01b81526001600160a01b03909116906370a082319061049b90309060040161070d565b60206040518083038186803b1580156104b357600080fd5b505afa1580156104c7573d6000803e3d6000fd5b505050506040513d601f19601f820116820180604052508101906104eb91906106f5565b116105085760405162461bcd60e51b8152600401610156906107f5565b6001546040516370a0823160e01b81526000916001600160a01b0316906370a082319061053990339060040161070d565b60206040518083038186803b15801561055157600080fd5b505afa158015610565573d6000803e3d6000fd5b505050506040513d601f19601f8201168201806040525081019061058991906106f5565b6001546040516323b872dd60e01b81529192506001600160a01b0316906323b872dd906105be90339030908690600401610721565b602060405180830381600087803b1580156105d857600080fd5b505af11580156105ec573d6000803e3d6000fd5b505050506040513d601f19601f8201168201806040525081019061061091906106b6565b5060005460405163a9059cbb60e01b81526001600160a01b039091169063a9059cbb9061064590339061271090600401610745565b602060405180830381600087803b15801561065f57600080fd5b505af1158015610673573d6000803e3d6000fd5b505050506040513d601f19601f8201168201806040525081019061069791906106b6565b5050565b6003602052600090815260409020546001600160a01b031681565b6000602082840312156106c7578081fd5b815180151581146106d6578182fd5b9392505050565b6000602082840312156106ee578081fd5b5035919050565b600060208284031215610706578081fd5b5051919050565b6001600160a01b0391909116815260200190565b6001600160a01b039384168152919092166020820152604081019190915260600190565b6001600160a01b03929092168252602082015260400190565b60208082526013908201527221b0b63632b91034b9903737ba1037bbb732b960691b604082015260600190565b60208082526044908201527f4f776e65722073686f756c64206861766520736f6d65206472657820746f6b6560408201527f6e7320746f20636f6e76657274207468656d20696e746f20737461626c6520636060820152636f696e7360e01b608082015260a00190565b60208082526017908201527f6e6f7420656e6f75676820737461626c6520636f696e73000000000000000000604082015260600190565b60208082526022908201527f42616c616e6365206e6f7420656e6f7567682c706c6561736520726563686172604082015261676560f01b60608201526080019056fea26469706673582212206a249024c9d7401710b2325a4734140a3d87c26fca83709d02673f3fa0860f8964736f6c63430008010033","bytecodeSha1":"95dbf641a97befb87a4f3e11a793a99acad3ad67","type":"contract","abi":[{"inputs":[{"internalType":"contract IERC20","name":"stable_coin_address","type":"address"},{"internalType":"contract IERC20","name":"drex_token_address","type":"address"}],"stateMutability":"nonpayable","type":"constructor","name":"constructor"},{"anonymous":false,"inputs":[{"indexed":false,"internalType":"address","name":"_destAddr","type":"address"},{"indexed":false,"internalType":"uint256","name":"_amount","type":"uint256"}],"name":"TransferSent","type":"event"},{"inputs":[{"internalType":"uint256","name":"amount","type":"uint256"}],"name":"pay_fees","outputs":[],"stateMutability":"payable","type":"function"},{"inputs":[],"name":"redeem","outputs":[],"stateMutability":"nonpayable","type":"function"},{"inputs":[{"internalType":"bytes32","name":"","type":"bytes32"}],"name":"reqTosender","outputs":[{"internalType":"address","name":"","type":"address"}],"stateMutability":"view","type":"function"},{"inputs":[],"name":"transfer_to_owner","outputs":[],"stateMutability":"nonpayable","type":"function"}],"compiler":{"version":"0.8.1+commit.df193b15","evm_version":"istanbul","optimizer":{"enabled":true,"runs":200}},"contractName":"DrexTreasury","language":"Solidity","natspec":{"methods":{"pay_fees(uint256)":{"notice":"This function is used to by the smes to send payments for the gas they have used","params":{"amount":"--> the amount smes will be paying"}},"redeem()":{"notice":"This function is used by nft owner to convert their drexTokens to drexStable coins"}},"kind":"dev","version":1},"opcodes":"PUSH1 0x80 PUSH1 0x40 MSTORE PUSH1 0x4 CALLDATASIZE LT PUSH2 0x3F JUMPI PUSH1 0x0 CALLDATALOAD PUSH1 0xE0 SHR DUP1 PUSH4 0x3FFAF5C6 EQ PUSH2 0x44 JUMPI DUP1 PUSH4 0xA3D0B404 EQ PUSH2 0x59 JUMPI DUP1 PUSH4 0xBE040FB0 EQ PUSH2 0x6E JUMPI DUP1 PUSH4 0xFDFECF8A EQ PUSH2 0x83 JUMPI JUMPDEST PUSH1 0x0 DUP1 REVERT JUMPDEST PUSH2 0x57 PUSH2 0x52 CALLDATASIZE PUSH1 0x4 PUSH2 0x6DD JUMP JUMPDEST PUSH2 0xB9 JUMP JUMPDEST STOP JUMPDEST CALLVALUE DUP1 ISZERO PUSH2 0x65 JUMPI PUSH1 0x0 DUP1 REVERT JUMPDEST POP PUSH2 0x57 PUSH2 0x224 JUMP JUMPDEST CALLVALUE DUP1 ISZERO PUSH2 0x7A JUMPI PUSH1 0x0 DUP1 REVERT JUMPDEST POP PUSH2 0x57 PUSH2 0x34D JUMP JUMPDEST CALLVALUE DUP1 ISZERO PUSH2 0x8F JUMPI PUSH1 0x0 DUP1 REVERT JUMPDEST POP PUSH2 0xA3 PUSH2 0x9E CALLDATASIZE PUSH1 0x4 PUSH2 0x6DD JUMP JUMPDEST PUSH2 0x69B JUMP JUMPDEST PUSH1 0x40 MLOAD PUSH2 0xB0 SWAP2 SWAP1 PUSH2 0x70D JUMP JUMPDEST PUSH1 0x40 MLOAD DUP1 SWAP2 SUB SWAP1 RETURN JUMPDEST PUSH1 0x0 SLOAD PUSH1 0x40 MLOAD PUSH4 0x70A08231 PUSH1 0xE0 SHL DUP2 MSTORE DUP3 SWAP2 PUSH1 0x1 PUSH1 0x1 PUSH1 0xA0 SHL SUB AND SWAP1 PUSH4 0x70A08231 SWAP1 PUSH2 0xE9 SWAP1 CALLER SWAP1 PUSH1 0x4 ADD PUSH2 0x70D JUMP JUMPDEST PUSH1 0x20 PUSH1 0x40 MLOAD DUP1 DUP4 SUB DUP2 DUP7 DUP1 EXTCODESIZE ISZERO DUP1 ISZERO PUSH2 0x101 JUMPI PUSH1 0x0 DUP1 REVERT JUMPDEST POP GAS STATICCALL ISZERO DUP1 ISZERO PUSH2 0x115 JUMPI RETURNDATASIZE PUSH1 0x0 DUP1 RETURNDATACOPY RETURNDATASIZE PUSH1 0x0 REVERT JUMPDEST POP POP POP POP PUSH1 0x40 MLOAD RETURNDATASIZE PUSH1 0x1F NOT PUSH1 0x1F DUP3 ADD AND DUP3 ADD DUP1 PUSH1 0x40 MSTORE POP DUP2 ADD SWAP1 PUSH2 0x139 SWAP2 SWAP1 PUSH2 0x6F5 JUMP JUMPDEST GT PUSH2 0x15F JUMPI PUSH1 0x40 MLOAD PUSH3 0x461BCD PUSH1 0xE5 SHL DUP2 MSTORE PUSH1 0x4 ADD PUSH2 0x156 SWAP1 PUSH2 0x82C JUMP JUMPDEST PUSH1 0x40 MLOAD DUP1 SWAP2 SUB SWAP1 REVERT JUMPDEST PUSH1 0x0 SLOAD PUSH1 0x40 MLOAD PUSH4 0x23B872DD PUSH1 0xE0 SHL DUP2 MSTORE PUSH1 0x1 PUSH1 0x1 PUSH1 0xA0 SHL SUB SWAP1 SWAP2 AND SWAP1 PUSH4 0x23B872DD SWAP1 PUSH2 0x193 SWAP1 CALLER SWAP1 ADDRESS SWAP1 DUP7 SWAP1 PUSH1 0x4 ADD PUSH2 0x721 JUMP JUMPDEST PUSH1 0x20 PUSH1 0x40 MLOAD DUP1 DUP4 SUB DUP2 PUSH1 0x0 DUP8 DUP1 EXTCODESIZE ISZERO DUP1 ISZERO PUSH2 0x1AD JUMPI PUSH1 0x0 DUP1 REVERT JUMPDEST POP GAS CALL ISZERO DUP1 ISZERO PUSH2 0x1C1 JUMPI RETURNDATASIZE PUSH1 0x0 DUP1 RETURNDATACOPY RETURNDATASIZE PUSH1 0x0 REVERT JUMPDEST POP POP POP POP PUSH1 0x40 MLOAD RETURNDATASIZE PUSH1 0x1F NOT PUSH1 0x1F DUP3 ADD AND DUP3 ADD DUP1 PUSH1 0x40 MSTORE POP DUP2 ADD SWAP1 PUSH2 0x1E5 SWAP2 SWAP1 PUSH2 0x6B6 JUMP JUMPDEST POP PUSH32 0x8AA89C45E00B1DC8BEFA3736E4D341042A1CD0021A629920526985A6028F7525 ADDRESS PUSH1 0x4 SLOAD PUSH1 0x40 MLOAD PUSH2 0x219 SWAP3 SWAP2 SWAP1 PUSH2 0x745 JUMP JUMPDEST PUSH1 0x40 MLOAD DUP1 SWAP2 SUB SWAP1 LOG1 POP JUMP JUMPDEST PUSH1 0x2 SLOAD PUSH1 0x1 PUSH1 0x1 PUSH1 0xA0 SHL SUB AND CALLER EQ PUSH2 0x24E JUMPI PUSH1 0x40 MLOAD PUSH3 0x461BCD PUSH1 0xE5 SHL DUP2 MSTORE PUSH1 0x4 ADD PUSH2 0x156 SWAP1 PUSH2 0x75E JUMP JUMPDEST PUSH1 0x1 SLOAD PUSH1 0x2 SLOAD PUSH1 0x40 MLOAD PUSH4 0x70A08231 PUSH1 0xE0 SHL DUP2 MSTORE PUSH1 0x1 PUSH1 0x1 PUSH1 0xA0 SHL SUB SWAP3 DUP4 AND SWAP3 PUSH4 0xA9059CBB SWAP3 AND SWAP1 DUP4 SWAP1 PUSH4 0x70A08231 SWAP1 PUSH2 0x28B SWAP1 ADDRESS SWAP1 PUSH1 0x4 ADD PUSH2 0x70D JUMP JUMPDEST PUSH1 0x20 PUSH1 0x40 MLOAD DUP1 DUP4 SUB DUP2 DUP7 DUP1 EXTCODESIZE ISZERO DUP1 ISZERO PUSH2 0x2A3 JUMPI PUSH1 0x0 DUP1 REVERT JUMPDEST POP GAS STATICCALL ISZERO DUP1 ISZERO PUSH2 0x2B7 JUMPI RETURNDATASIZE PUSH1 0x0 DUP1 RETURNDATACOPY RETURNDATASIZE PUSH1 0x0 REVERT JUMPDEST POP POP POP POP PUSH1 0x40 MLOAD RETURNDATASIZE PUSH1 0x1F NOT PUSH1 0x1F DUP3 ADD AND DUP3 ADD DUP1 PUSH1 0x40 MSTORE POP DUP2 ADD SWAP1 PUSH2 0x2DB SWAP2 SWAP1 PUSH2 0x6F5 JUMP JUMPDEST PUSH1 0x40 MLOAD DUP4 PUSH4 0xFFFFFFFF AND PUSH1 0xE0 SHL DUP2 MSTORE PUSH1 0x4 ADD PUSH2 0x2F8 SWAP3 SWAP2 SWAP1 PUSH2 0x745 JUMP JUMPDEST PUSH1 0x20 PUSH1 0x40 MLOAD DUP1 DUP4 SUB DUP2 PUSH1 0x0 DUP8 DUP1 EXTCODESIZE ISZERO DUP1 ISZERO PUSH2 0x312 JUMPI PUSH1 0x0 DUP1 REVERT JUMPDEST POP GAS CALL ISZERO DUP1 ISZERO PUSH2 0x326 JUMPI RETURNDATASIZE PUSH1 0x0 DUP1 RETURNDATACOPY RETURNDATASIZE PUSH1 0x0 REVERT JUMPDEST POP POP POP POP PUSH1 0x40 MLOAD RETURNDATASIZE PUSH1 0x1F NOT PUSH1 0x1F DUP3 ADD AND DUP3 ADD DUP1 PUSH1 0x40 MSTORE POP DUP2 ADD SWAP1 PUSH2 0x34A SWAP2 SWAP1 PUSH2 0x6B6 JUMP JUMPDEST POP JUMP JUMPDEST PUSH1 0x1 SLOAD PUSH1 0x40 MLOAD PUSH4 0x70A08231 PUSH1 0xE0 SHL DUP2 MSTORE PUSH1 0x0 SWAP2 PUSH1 0x1 PUSH1 0x1 PUSH1 0xA0 SHL SUB AND SWAP1 PUSH4 0x70A08231 SWAP1 PUSH2 0x37E SWAP1 CALLER SWAP1 PUSH1 0x4 ADD PUSH2 0x70D JUMP JUMPDEST PUSH1 0x20 PUSH1 0x40 MLOAD DUP1 DUP4 SUB DUP2 DUP7 DUP1 EXTCODESIZE ISZERO DUP1 ISZERO PUSH2 0x396 JUMPI PUSH1 0x0 DUP1 REVERT JUMPDEST POP GAS STATICCALL ISZERO DUP1 ISZERO PUSH2 0x3AA JUMPI RETURNDATASIZE PUSH1 0x0 DUP1 RETURNDATACOPY RETURNDATASIZE PUSH1 0x0 REVERT JUMPDEST POP POP POP POP PUSH1 0x40 MLOAD RETURNDATASIZE PUSH1 0x1F NOT PUSH1 0x1F DUP3 ADD AND DUP3 ADD DUP1 PUSH1 0x40 MSTORE POP DUP2 ADD SWAP1 PUSH2 0x3CE SWAP2 SWAP1 PUSH2 0x6F5 JUMP JUMPDEST GT PUSH2 0x3EB JUMPI PUSH1 0x40 MLOAD PUSH3 0x461BCD PUSH1 0xE5 SHL DUP2 MSTORE PUSH1 0x4 ADD PUSH2 0x156 SWAP1 PUSH2 0x78B JUMP JUMPDEST PUSH1 0x1 SLOAD PUSH1 0x40 MLOAD PUSH4 0x70A08231 PUSH1 0xE0 SHL DUP2 MSTORE PUSH1 0x1 PUSH1 0x1 PUSH1 0xA0 SHL SUB SWAP1 SWAP2 AND SWAP1 PUSH4 0x70A08231 SWAP1 PUSH2 0x41B SWAP1 CALLER SWAP1 PUSH1 0x4 ADD PUSH2 0x70D JUMP JUMPDEST PUSH1 0x20 PUSH1 0x40 MLOAD DUP1 DUP4 SUB DUP2 DUP7 DUP1 EXTCODESIZE ISZERO DUP1 ISZERO PUSH2 0x433 JUMPI PUSH1 0x0 DUP1 REVERT JUMPDEST POP GAS STATICCALL ISZERO DUP1 ISZERO PUSH2 0x447 JUMPI RETURNDATASIZE PUSH1 0x0 DUP1 RETURNDATACOPY RETURNDATASIZE PUSH1 0x0 REVERT JUMPDEST POP POP POP POP PUSH1 0x40 MLOAD RETURNDATASIZE PUSH1 0x1F NOT PUSH1 0x1F DUP3 ADD AND DUP3 ADD DUP1 PUSH1 0x40 MSTORE POP DUP2 ADD SWAP1 PUSH2 0x46B SWAP2 SWAP1 PUSH2 0x6F5 JUMP JUMPDEST PUSH1 0x0 SLOAD PUSH1 0x40 MLOAD PUSH4 0x70A08231 PUSH1 0xE0 SHL DUP2 MSTORE PUSH1 0x1 PUSH1 0x1 PUSH1 0xA0 SHL SUB SWAP1 SWAP2 AND SWAP1 PUSH4 0x70A08231 SWAP1 PUSH2 0x49B SWAP1 ADDRESS SWAP1 PUSH1 0x4 ADD PUSH2 0x70D JUMP JUMPDEST PUSH1 0x20 PUSH1 0x40 MLOAD DUP1 DUP4 SUB DUP2 DUP7 DUP1 EXTCODESIZE ISZERO DUP1 ISZERO PUSH2 0x4B3 JUMPI PUSH1 0x0 DUP1 REVERT JUMPDEST POP GAS STATICCALL ISZERO DUP1 ISZERO PUSH2 0x4C7 JUMPI RETURNDATASIZE PUSH1 0x0 DUP1 RETURNDATACOPY RETURNDATASIZE PUSH1 0x0 REVERT JUMPDEST POP POP POP POP PUSH1 0x40 MLOAD RETURNDATASIZE PUSH1 0x1F NOT PUSH1 0x1F DUP3 ADD AND DUP3 ADD DUP1 PUSH1 0x40 MSTORE POP DUP2 ADD SWAP1 PUSH2 0x4EB SWAP2 SWAP1 PUSH2 0x6F5 JUMP JUMPDEST GT PUSH2 0x508 JUMPI PUSH1 0x40 MLOAD PUSH3 0x461BCD PUSH1 0xE5 SHL DUP2 MSTORE PUSH1 0x4 ADD PUSH2 0x156 SWAP1 PUSH2 0x7F5 JUMP JUMPDEST PUSH1 0x1 SLOAD PUSH1 0x40 MLOAD PUSH4 0x70A08231 PUSH1 0xE0 SHL DUP2 MSTORE PUSH1 0x0 SWAP2 PUSH1 0x1 PUSH1 0x1 PUSH1 0xA0 SHL SUB AND SWAP1 PUSH4 0x70A08231 SWAP1 PUSH2 0x539 SWAP1 CALLER SWAP1 PUSH1 0x4 ADD PUSH2 0x70D JUMP JUMPDEST PUSH1 0x20 PUSH1 0x40 MLOAD DUP1 DUP4 SUB DUP2 DUP7 DUP1 EXTCODESIZE ISZERO DUP1 ISZERO PUSH2 0x551 JUMPI PUSH1 0x0 DUP1 REVERT JUMPDEST POP GAS STATICCALL ISZERO DUP1 ISZERO PUSH2 0x565 JUMPI RETURNDATASIZE PUSH1 0x0 DUP1 RETURNDATACOPY RETURNDATASIZE PUSH1 0x0 REVERT JUMPDEST POP POP POP POP PUSH1 0x40 MLOAD RETURNDATASIZE PUSH1 0x1F NOT PUSH1 0x1F DUP3 ADD AND DUP3 ADD DUP1 PUSH1 0x40 MSTORE POP DUP2 ADD SWAP1 PUSH2 0x589 SWAP2 SWAP1 PUSH2 0x6F5 JUMP JUMPDEST PUSH1 0x1 SLOAD PUSH1 0x40 MLOAD PUSH4 0x23B872DD PUSH1 0xE0 SHL DUP2 MSTORE SWAP2 SWAP3 POP PUSH1 0x1 PUSH1 0x1 PUSH1 0xA0 SHL SUB AND SWAP1 PUSH4 0x23B872DD SWAP1 PUSH2 0x5BE SWAP1 CALLER SWAP1 ADDRESS SWAP1 DUP7 SWAP1 PUSH1 0x4 ADD PUSH2 0x721 JUMP JUMPDEST PUSH1 0x20 PUSH1 0x40 MLOAD DUP1 DUP4 SUB DUP2 PUSH1 0x0 DUP8 DUP1 EXTCODESIZE ISZERO DUP1 ISZERO PUSH2 0x5D8 JUMPI PUSH1 0x0 DUP1 REVERT JUMPDEST POP GAS CALL ISZERO DUP1 ISZERO PUSH2 0x5EC JUMPI RETURNDATASIZE PUSH1 0x0 DUP1 RETURNDATACOPY RETURNDATASIZE PUSH1 0x0 REVERT JUMPDEST POP POP POP POP PUSH1 0x40 MLOAD RETURNDATASIZE PUSH1 0x1F NOT PUSH1 0x1F DUP3 ADD AND DUP3 ADD DUP1 PUSH1 0x40 MSTORE POP DUP2 ADD SWAP1 PUSH2 0x610 SWAP2 SWAP1 PUSH2 0x6B6 JUMP JUMPDEST POP PUSH1 0x0 SLOAD PUSH1 0x40 MLOAD PUSH4 0xA9059CBB PUSH1 0xE0 SHL DUP2 MSTORE PUSH1 0x1 PUSH1 0x1 PUSH1 0xA0 SHL SUB SWAP1 SWAP2 AND SWAP1 PUSH4 0xA9059CBB SWAP1 PUSH2 0x645 SWAP1 CALLER SWAP1 PUSH2 0x2710 SWAP1 PUSH1 0x4 ADD PUSH2 0x745 JUMP JUMPDEST PUSH1 0x20 PUSH1 0x40 MLOAD DUP1 DUP4 SUB DUP2 PUSH1 0x0 DUP8 DUP1 EXTCODESIZE ISZERO DUP1 ISZERO PUSH2 0x65F JUMPI PUSH1 0x0 DUP1 REVERT JUMPDEST POP GAS CALL ISZERO DUP1 ISZERO PUSH2 0x673 JUMPI RETURNDATASIZE PUSH1 0x0 DUP1 RETURNDATACOPY RETURNDATASIZE PUSH1 0x0 REVERT JUMPDEST POP POP POP POP PUSH1 0x40 MLOAD RETURNDATASIZE PUSH1 0x1F NOT PUSH1 0x1F DUP3 ADD AND DUP3 ADD DUP1 PUSH1 0x40 MSTORE POP DUP2 ADD SWAP1 PUSH2 0x697 SWAP2 SWAP1 PUSH2 0x6B6 JUMP JUMPDEST POP POP JUMP JUMPDEST PUSH1 0x3 PUSH1 0x20 MSTORE PUSH1 0x0 SWAP1 DUP2 MSTORE PUSH1 0x40 SWAP1 KECCAK256 SLOAD PUSH1 0x1 PUSH1 0x1 PUSH1 0xA0 SHL SUB AND DUP2 JUMP JUMPDEST PUSH1 0x0 PUSH1 0x20 DUP3 DUP5 SUB SLT ISZERO PUSH2 0x6C7 JUMPI DUP1 DUP2 REVERT JUMPDEST DUP2 MLOAD DUP1 ISZERO ISZERO DUP2 EQ PUSH2 0x6D6 JUMPI DUP2 DUP3 REVERT JUMPDEST SWAP4 SWAP3 POP POP POP JUMP JUMPDEST PUSH1 0x0 PUSH1 0x20 DUP3 DUP5 SUB SLT ISZERO PUSH2 0x6EE JUMPI DUP1 DUP2 REVERT JUMPDEST POP CALLDATALOAD SWAP2 SWAP1 POP JUMP JUMPDEST PUSH1 0x0 PUSH1 0x20 DUP3 DUP5 SUB SLT ISZERO PUSH2 0x706 JUMPI DUP1 DUP2 REVERT JUMPDEST POP MLOAD SWAP2 SWAP1 POP JUMP JUMPDEST PUSH1 0x1 PUSH1 0x1 PUSH1 0xA0 SHL SUB SWAP2 SWAP1 SWAP2 AND DUP2 MSTORE PUSH1 0x20 ADD SWAP1 JUMP JUMPDEST PUSH1 0x1 PUSH1 0x1 PUSH1 0xA0 SHL SUB SWAP4 DUP5 AND DUP2 MSTORE SWAP2 SWAP1 SWAP3 AND PUSH1 0x20 DUP3 ADD MSTORE PUSH1 0x40 DUP2 ADD SWAP2 SWAP1 SWAP2 MSTORE PUSH1 0x60 ADD SWAP1 JUMP JUMPDEST PUSH1 0x1 PUSH1 0x1 PUSH1 0xA0 SHL SUB SWAP3 SWAP1 SWAP3 AND DUP3 MSTORE PUSH1 0x20 DUP3 ADD MSTORE PUSH1 0x40 ADD SWAP1 JUMP JUMPDEST PUSH1 0x20 DUP1 DUP3 MSTORE PUSH1 0x13 SWAP1 DUP3 ADD MSTORE PUSH19 0x21B0B63632B91034B9903737BA1037BBB732B9 PUSH1 0x69 SHL PUSH1 0x40 DUP3 ADD MSTORE PUSH1 0x60 ADD SWAP1 JUMP JUMPDEST PUSH1 0x20 DUP1 DUP3 MSTORE PUSH1 0x44 SWAP1 DUP3 ADD MSTORE PUSH32 0x4F776E65722073686F756C64206861766520736F6D65206472657820746F6B65 PUSH1 0x40 DUP3 ADD MSTORE PUSH32 0x6E7320746F20636F6E76657274207468656D20696E746F20737461626C652063 PUSH1 0x60 DUP3 ADD MSTORE PUSH4 0x6F696E73 PUSH1 0xE0 SHL PUSH1 0x80 DUP3 ADD MSTORE PUSH1 0xA0 ADD SWAP1 JUMP JUMPDEST PUSH1 0x20 DUP1 DUP3 MSTORE PUSH1 0x17 SWAP1 DUP3 ADD MSTORE PUSH32 0x6E6F7420656E6F75676820737461626C6520636F696E73000000000000000000 PUSH1 0x40 DUP3 ADD MSTORE PUSH1 0x60 ADD SWAP1 JUMP JUMPDEST PUSH1 0x20 DUP1 DUP3 MSTORE PUSH1 0x22 SWAP1 DUP3 ADD MSTORE PUSH32 0x42616C616E6365206E6F7420656E6F7567682C706C6561736520726563686172 PUSH1 0x40 DUP3 ADD MSTORE PUSH2 0x6765 PUSH1 0xF0 SHL PUSH1 0x60 DUP3 ADD MSTORE PUSH1 0x80 ADD SWAP1 JUMP INVALID LOG2 PUSH5 0x6970667358 0x22 SLT KECCAK256 PUSH11 0x249024C9D7401710B2325A SELFBALANCE CALLVALUE EQ EXP RETURNDATASIZE DUP8 0xC2 PUSH16 0xCA83709D02673F3FA0860F8964736F6C PUSH4 0x43000801 STOP CALLER ","sha1":"347a974e594c53563ac87d0287c8d0668028bd16","source":"// SPDX-License-Identifier: MIT\npragma solidity 0.8.1;\nimport \"@openzeppelin/contracts/token/ERC20/IERC20.sol\";\n\ncontract DrexTreasury {\n    //varibales required in smart contract\n    IERC20 private drex_stable_coin;\n    IERC20 private drex_tokens;\n    address private owner;\n    mapping(bytes32 => address) public reqTosender;\n    uint256 random_amount;\n\n    // events\n    event TransferSent(address _destAddr, uint256 _amount);\n\n    constructor(IERC20 stable_coin_address, IERC20 drex_token_address) public {\n        drex_stable_coin = stable_coin_address;\n        drex_tokens = drex_token_address;\n        owner = msg.sender;\n    }\n\n    modifier isOwner() {\n        require(msg.sender == owner, \"Caller is not owner\");\n        _;\n    }\n\n    /// @notice  This function is used to by the smes to send payments for the gas they have used\n    /// @param amount --> the amount smes will be paying\n    function pay_fees(uint256 amount) public payable {\n        require(\n            drex_stable_coin.balanceOf(msg.sender) > amount,\n            \"Balance not enough,please recharge\"\n        );\n\n        drex_stable_coin.transferFrom(msg.sender, address(this), amount);\n        emit TransferSent(address(this), random_amount);\n    }\n\n    //wallet of owener --> 100 drexCoins ---> 100drexCoins and in return they will  get 100drexStablecoins\n\n    /// @notice This function is used by nft owner to convert their drexTokens to drexStable coins\n\n    function redeem() public {\n        require(\n            drex_tokens.balanceOf(msg.sender) > 0,\n            \"Owner should have some drex tokens to convert them into stable coins\"\n        );\n        require(\n            drex_stable_coin.balanceOf(address(this)) >\n                drex_tokens.balanceOf(msg.sender),\n            \"not enough stable coins\"\n        );\n        uint256 total_transfer = drex_tokens.balanceOf(msg.sender);\n        drex_tokens.transferFrom(msg.sender, address(this), total_transfer);\n        drex_stable_coin.transfer(msg.sender, 10000);\n    }\n\n    function transfer_to_owner() public isOwner {\n        drex_tokens.transfer(owner, drex_tokens.balanceOf(address(this)));\n    }\n}\n","sourcePath":"contracts/Drex_treasury.sol","deployment":{"address":"0x9C4611bF1f8D1e8DEC4B8Ec75D75D84f648d0D3d","chainid":"1287","blockHeight":3370705}}