{"abi":[{"inputs":[{"internalType":"address payable","name":"nft_address","type":"address"},{"internalType":"address","name":"erc20_address","type":"address"}],"stateMutability":"nonpayable","type":"constructor","name":"constructor"},{"anonymous":false,"inputs":[{"indexed":true,"internalType":"bytes32","name":"id","type":"bytes32"}],"name":"ChainlinkCancelled","type":"event"},{"anonymous":false,"inputs":[{"indexed":true,"internalType":"bytes32","name":"id","type":"bytes32"}],"name":"ChainlinkFulfilled","type":"event"},{"anonymous":false,"inputs":[{"indexed":true,"internalType":"bytes32","name":"id","type":"bytes32"}],"name":"ChainlinkRequested","type":"event"},{"inputs":[{"internalType":"bytes32","name":"_requestId","type":"bytes32"},{"internalType":"uint256","name":"_volume","type":"uint256"}],"name":"fulfill","outputs":[],"stateMutability":"nonpayable","type":"function"},{"inputs":[],"name":"request_sensor_data","outputs":[{"internalType":"bytes32","name":"requestId","type":"bytes32"}],"stateMutability":"nonpayable","type":"function"},{"inputs":[],"name":"volume","outputs":[{"internalType":"uint256","name":"","type":"uint256"}],"stateMutability":"view","type":"function"}],"bytecode":"6080604052600160045534801561001557600080fd5b50604051610f7d380380610f7d833981016040819052610034916100f3565b600280546001600160a01b03191673a36085f69e2889c224210f603d836748e7dc00881790556006805473d4d9ac4ecf5ddf18056ce6a91d0a8e7b0c910cce6001600160a01b0319918216179091557f373961626331653336626533343061363937653262343964643264383637393860075560006008819055600a805483166001600160a01b03958616179055600b805490921692909316919091179055600c5561012d565b6001600160a01b03811681146100f057600080fd5b50565b6000806040838503121561010657600080fd5b8251610111816100db565b6020840151909250610122816100db565b809150509250929050565b610e418061013c6000396000f3fe608060405234801561001057600080fd5b50600436106100415760003560e01c80634357855e14610046578063483566311461005b578063c618a1e414610075575b600080fd5b610059610054366004610ae5565b61007e565b005b61006361022b565b60405190815260200160405180910390f35b61006360095481565b60008281526005602052604090205482906001600160a01b031633146100fc5760405162461bcd60e51b815260206004820152602860248201527f536f75726365206d75737420626520746865206f7261636c65206f6620746865604482015267081c995c5d595cdd60c21b60648201526084015b60405180910390fd5b60008181526005602052604080822080546001600160a01b03191690555182917f7cc135e0cebb02c3480ae5d74d377283180a2601f8f644edf7987b009316c63a91a26009829055600c546000906101549084610b1d565b600954600c55600a54600b54604051635bf6fa8960e01b81526001600160a01b0392831660048201819052602482018590529394509116908190635bf6fa8990604401600060405180830381600087803b1580156101b157600080fd5b505af11580156101c5573d6000803e3d6000fd5b5050604051638a77409160e01b8152600481018690526001600160a01b0385169250638a7740919150602401600060405180830381600087803b15801561020b57600080fd5b505af115801561021f573d6000803e3d6000fd5b50505050505050505050565b60008061024260075430634357855e60e01b610333565b90506102846040518060400160405280600381526020016219d95d60ea1b815250604051806080016040528060518152602001610dbb60519139839190610358565b6102df604051806040016040528060048152602001630e0c2e8d60e31b81525060405180604001604052806012815260200171195b995c99de4b5858d8dd5b5d5b185d195960721b815250836103589092919063ffffffff16565b60408051808201909152600581526474696d657360d81b6020820152670de0b6b3a7640000906103119083908361037b565b60065460085461032c916001600160a01b0316908490610399565b9250505090565b61033b610aaa565b610343610aaa565b61034f8186868661042c565b95945050505050565b60808301516103679083610472565b60808301516103769082610472565b505050565b608083015161038a9083610472565b60808301516103769082610489565b6004546000906103aa816001610b34565b600455835160408086015160808701515191516000936320214ca360e11b936103e29386938493923092918a91600191602401610b99565b60408051601f198184030181529190526020810180516001600160e01b03166001600160e01b0319909316929092179091529050610422868386846104ed565b9695505050505050565b610434610aaa565b610444856080015161010061064b565b50508284526001600160a01b03821660208501526001600160e01b031981166040850152835b949350505050565b61047f82600383516106b6565b61037682826107cb565b67ffffffffffffffff198112156104a8576104a482826107f9565b5050565b67ffffffffffffffff8113156104c2576104a4828261083b565b600081126104d6576104a4826000836106b6565b6104a48260016104e884600019610c01565b6106b6565b6040516bffffffffffffffffffffffff193060601b1660208201526034810184905260009060540160408051808303601f1901815282825280516020918201206000818152600590925291812080546001600160a01b0319166001600160a01b038a1617905590925082917fb5e6e01e79f91267dc17b4e6314d5d4d03593d2ceee0fbb452b750bd70ea5af99190a2600254604051630200057560e51b81526001600160a01b0390911690634000aea0906105b090889087908790600401610c40565b6020604051808303816000875af11580156105cf573d6000803e3d6000fd5b505050506040513d601f19601f820116820180604052508101906105f39190610c67565b61046a5760405162461bcd60e51b815260206004820152602360248201527f756e61626c6520746f207472616e73666572416e6443616c6c20746f206f7261604482015262636c6560e81b60648201526084016100f3565b60408051808201909152606081526000602082015261066b602083610c89565b156106935761067b602083610c89565b610686906020610b1d565b6106909083610b34565b91505b506020808301829052604080518085526000815283019091019052815b92915050565b60178167ffffffffffffffff16116106e1576106db8360e0600585901b16831761085e565b50505050565b60ff8167ffffffffffffffff161161071f57610708836018611fe0600586901b161761085e565b506106db8367ffffffffffffffff83166001610883565b61ffff8167ffffffffffffffff161161075e57610747836019611fe0600586901b161761085e565b506106db8367ffffffffffffffff83166002610883565b63ffffffff8167ffffffffffffffff161161079f5761078883601a611fe0600586901b161761085e565b506106db8367ffffffffffffffff83166004610883565b6107b483601b611fe0600586901b161761085e565b506106db8367ffffffffffffffff83166008610883565b6040805180820190915260608152600060208201526107f2838460000151518485516108a9565b9392505050565b6108048260c361085e565b506104a48261081583600019610c01565b60405160200161082791815260200190565b604051602081830303815290604052610993565b6108468260c261085e565b506104a4828260405160200161082791815260200190565b6040805180820190915260608152600060208201526107f283846000015151846109a0565b60408051808201909152606081526000602082015261046a8485600001515185856109fb565b60408051808201909152606081526000602082015282518211156108cc57600080fd5b60208501516108db8386610b34565b111561090e5761090e856108fe876020015187866108f99190610b34565b610a7c565b610909906002610cab565b610a93565b60008086518051876020830101935080888701111561092d5787860182525b505050602084015b6020841061096d578051825261094c602083610b34565b9150610959602082610b34565b9050610966602085610b1d565b9350610935565b51815160001960208690036101000a019081169019919091161790525083949350505050565b61047f82600283516106b6565b604080518082019091526060815260006020820152836020015183106109d5576109d584856020015160026109099190610cab565b83518051602085830101848153508085036109f1576001810182525b5093949350505050565b6040805180820190915260608152600060208201526020850151610a1f8584610b34565b1115610a3357610a33856108fe8685610b34565b60006001610a4384610100610dae565b610a4d9190610b1d565b9050855183868201018583198251161781525080518487011115610a715783860181525b509495945050505050565b600081831115610a8d5750816106b0565b50919050565b8151610a9f838361064b565b506106db83826107cb565b6040805160a0810182526000808252602080830182905282840182905260608084018390528451808601909552845283015290608082015290565b60008060408385031215610af857600080fd5b50508035926020909101359150565b634e487b7160e01b600052601160045260246000fd5b600082821015610b2f57610b2f610b07565b500390565b60008219821115610b4757610b47610b07565b500190565b6000815180845260005b81811015610b7257602081850181015186830182015201610b56565b81811115610b84576000602083870101525b50601f01601f19169290920160200192915050565b6001600160a01b0389811682526020820189905260408201889052861660608201526001600160e01b03198516608082015260a0810184905260c0810183905261010060e08201819052600090610bf283820185610b4c565b9b9a5050505050505050505050565b60008083128015600160ff1b850184121615610c1f57610c1f610b07565b6001600160ff1b0384018313811615610c3a57610c3a610b07565b50500390565b60018060a01b038416815282602082015260606040820152600061034f6060830184610b4c565b600060208284031215610c7957600080fd5b815180151581146107f257600080fd5b600082610ca657634e487b7160e01b600052601260045260246000fd5b500690565b6000816000190483118215151615610cc557610cc5610b07565b500290565b600181815b80851115610d05578160001904821115610ceb57610ceb610b07565b80851615610cf857918102915b93841c9390800290610ccf565b509250929050565b600082610d1c575060016106b0565b81610d29575060006106b0565b8160018114610d3f5760028114610d4957610d65565b60019150506106b0565b60ff841115610d5a57610d5a610b07565b50506001821b6106b0565b5060208310610133831016604e8410600b8410161715610d88575081810a6106b0565b610d928383610cca565b8060001904821115610da657610da6610b07565b029392505050565b60006107f28383610d0d56fe687474703a2f2f64726578616c6c2d656e762e6562612d65336d6e6e6d36392e75732d656173742d312e656c61737469636265616e7374616c6b2e636f6d2f677269642f6c6173743f636f64653d4c494da2646970667358221220aa3e3d88465f98be52a157254890c99f25de5fe883c2a20da2f5ecce6ebafa4164736f6c634300080e0033","bytecodeSha1":"fdc4921535fda3ca30a6001113a112249bcf887b","compiler":{"evm_version":"istanbul","optimizer":{"enabled":true,"runs":200},"version":"0.8.14+commit.80d49f37"},"contractName":"Client","language":"Solidity","natspec":{"kind":"dev","methods":{"constructor":{"notice":"This example uses the LINK token address on Moonbase Alpha. Make sure to update the oracle and jobId."},"fulfill(bytes32,uint256)":{"notice":"Receive the response in the form of uint256"},"request_sensor_data()":{"notice":"Create a Chainlink request to retrieve API response, find the target data, then multiply by 1000000000000000000 (to remove decimal places from data)."}},"version":1},"opcodes":"PUSH1 0x80 PUSH1 0x40 MSTORE CALLVALUE DUP1 ISZERO PUSH2 0x10 JUMPI PUSH1 0x0 DUP1 REVERT JUMPDEST POP PUSH1 0x4 CALLDATASIZE LT PUSH2 0x41 JUMPI PUSH1 0x0 CALLDATALOAD PUSH1 0xE0 SHR DUP1 PUSH4 0x4357855E EQ PUSH2 0x46 JUMPI DUP1 PUSH4 0x48356631 EQ PUSH2 0x5B JUMPI DUP1 PUSH4 0xC618A1E4 EQ PUSH2 0x75 JUMPI JUMPDEST PUSH1 0x0 DUP1 REVERT JUMPDEST PUSH2 0x59 PUSH2 0x54 CALLDATASIZE PUSH1 0x4 PUSH2 0xAE5 JUMP JUMPDEST PUSH2 0x7E JUMP JUMPDEST STOP JUMPDEST PUSH2 0x63 PUSH2 0x22B JUMP JUMPDEST PUSH1 0x40 MLOAD SWAP1 DUP2 MSTORE PUSH1 0x20 ADD PUSH1 0x40 MLOAD DUP1 SWAP2 SUB SWAP1 RETURN JUMPDEST PUSH2 0x63 PUSH1 0x9 SLOAD DUP2 JUMP JUMPDEST PUSH1 0x0 DUP3 DUP2 MSTORE PUSH1 0x5 PUSH1 0x20 MSTORE PUSH1 0x40 SWAP1 KECCAK256 SLOAD DUP3 SWAP1 PUSH1 0x1 PUSH1 0x1 PUSH1 0xA0 SHL SUB AND CALLER EQ PUSH2 0xFC JUMPI PUSH1 0x40 MLOAD PUSH3 0x461BCD PUSH1 0xE5 SHL DUP2 MSTORE PUSH1 0x20 PUSH1 0x4 DUP3 ADD MSTORE PUSH1 0x28 PUSH1 0x24 DUP3 ADD MSTORE PUSH32 0x536F75726365206D75737420626520746865206F7261636C65206F6620746865 PUSH1 0x44 DUP3 ADD MSTORE PUSH8 0x81C995C5D595CDD PUSH1 0xC2 SHL PUSH1 0x64 DUP3 ADD MSTORE PUSH1 0x84 ADD JUMPDEST PUSH1 0x40 MLOAD DUP1 SWAP2 SUB SWAP1 REVERT JUMPDEST PUSH1 0x0 DUP2 DUP2 MSTORE PUSH1 0x5 PUSH1 0x20 MSTORE PUSH1 0x40 DUP1 DUP3 KECCAK256 DUP1 SLOAD PUSH1 0x1 PUSH1 0x1 PUSH1 0xA0 SHL SUB NOT AND SWAP1 SSTORE MLOAD DUP3 SWAP2 PUSH32 0x7CC135E0CEBB02C3480AE5D74D377283180A2601F8F644EDF7987B009316C63A SWAP2 LOG2 PUSH1 0x9 DUP3 SWAP1 SSTORE PUSH1 0xC SLOAD PUSH1 0x0 SWAP1 PUSH2 0x154 SWAP1 DUP5 PUSH2 0xB1D JUMP JUMPDEST PUSH1 0x9 SLOAD PUSH1 0xC SSTORE PUSH1 0xA SLOAD PUSH1 0xB SLOAD PUSH1 0x40 MLOAD PUSH4 0x5BF6FA89 PUSH1 0xE0 SHL DUP2 MSTORE PUSH1 0x1 PUSH1 0x1 PUSH1 0xA0 SHL SUB SWAP3 DUP4 AND PUSH1 0x4 DUP3 ADD DUP2 SWAP1 MSTORE PUSH1 0x24 DUP3 ADD DUP6 SWAP1 MSTORE SWAP4 SWAP5 POP SWAP2 AND SWAP1 DUP2 SWAP1 PUSH4 0x5BF6FA89 SWAP1 PUSH1 0x44 ADD PUSH1 0x0 PUSH1 0x40 MLOAD DUP1 DUP4 SUB DUP2 PUSH1 0x0 DUP8 DUP1 EXTCODESIZE ISZERO DUP1 ISZERO PUSH2 0x1B1 JUMPI PUSH1 0x0 DUP1 REVERT JUMPDEST POP GAS CALL ISZERO DUP1 ISZERO PUSH2 0x1C5 JUMPI RETURNDATASIZE PUSH1 0x0 DUP1 RETURNDATACOPY RETURNDATASIZE PUSH1 0x0 REVERT JUMPDEST POP POP PUSH1 0x40 MLOAD PUSH4 0x8A774091 PUSH1 0xE0 SHL DUP2 MSTORE PUSH1 0x4 DUP2 ADD DUP7 SWAP1 MSTORE PUSH1 0x1 PUSH1 0x1 PUSH1 0xA0 SHL SUB DUP6 AND SWAP3 POP PUSH4 0x8A774091 SWAP2 POP PUSH1 0x24 ADD PUSH1 0x0 PUSH1 0x40 MLOAD DUP1 DUP4 SUB DUP2 PUSH1 0x0 DUP8 DUP1 EXTCODESIZE ISZERO DUP1 ISZERO PUSH2 0x20B JUMPI PUSH1 0x0 DUP1 REVERT JUMPDEST POP GAS CALL ISZERO DUP1 ISZERO PUSH2 0x21F JUMPI RETURNDATASIZE PUSH1 0x0 DUP1 RETURNDATACOPY RETURNDATASIZE PUSH1 0x0 REVERT JUMPDEST POP POP POP POP POP POP POP POP POP POP JUMP JUMPDEST PUSH1 0x0 DUP1 PUSH2 0x242 PUSH1 0x7 SLOAD ADDRESS PUSH4 0x4357855E PUSH1 0xE0 SHL PUSH2 0x333 JUMP JUMPDEST SWAP1 POP PUSH2 0x284 PUSH1 0x40 MLOAD DUP1 PUSH1 0x40 ADD PUSH1 0x40 MSTORE DUP1 PUSH1 0x3 DUP2 MSTORE PUSH1 0x20 ADD PUSH3 0x19D95D PUSH1 0xEA SHL DUP2 MSTORE POP PUSH1 0x40 MLOAD DUP1 PUSH1 0x80 ADD PUSH1 0x40 MSTORE DUP1 PUSH1 0x51 DUP2 MSTORE PUSH1 0x20 ADD PUSH2 0xDBB PUSH1 0x51 SWAP2 CODECOPY DUP4 SWAP2 SWAP1 PUSH2 0x358 JUMP JUMPDEST PUSH2 0x2DF PUSH1 0x40 MLOAD DUP1 PUSH1 0x40 ADD PUSH1 0x40 MSTORE DUP1 PUSH1 0x4 DUP2 MSTORE PUSH1 0x20 ADD PUSH4 0xE0C2E8D PUSH1 0xE3 SHL DUP2 MSTORE POP PUSH1 0x40 MLOAD DUP1 PUSH1 0x40 ADD PUSH1 0x40 MSTORE DUP1 PUSH1 0x12 DUP2 MSTORE PUSH1 0x20 ADD PUSH18 0x195B995C99DE4B5858D8DD5B5D5B185D1959 PUSH1 0x72 SHL DUP2 MSTORE POP DUP4 PUSH2 0x358 SWAP1 SWAP3 SWAP2 SWAP1 PUSH4 0xFFFFFFFF AND JUMP JUMPDEST PUSH1 0x40 DUP1 MLOAD DUP1 DUP3 ADD SWAP1 SWAP2 MSTORE PUSH1 0x5 DUP2 MSTORE PUSH5 0x74696D6573 PUSH1 0xD8 SHL PUSH1 0x20 DUP3 ADD MSTORE PUSH8 0xDE0B6B3A7640000 SWAP1 PUSH2 0x311 SWAP1 DUP4 SWAP1 DUP4 PUSH2 0x37B JUMP JUMPDEST PUSH1 0x6 SLOAD PUSH1 0x8 SLOAD PUSH2 0x32C SWAP2 PUSH1 0x1 PUSH1 0x1 PUSH1 0xA0 SHL SUB AND SWAP1 DUP5 SWAP1 PUSH2 0x399 JUMP JUMPDEST SWAP3 POP POP POP SWAP1 JUMP JUMPDEST PUSH2 0x33B PUSH2 0xAAA JUMP JUMPDEST PUSH2 0x343 PUSH2 0xAAA JUMP JUMPDEST PUSH2 0x34F DUP2 DUP7 DUP7 DUP7 PUSH2 0x42C JUMP JUMPDEST SWAP6 SWAP5 POP POP POP POP POP JUMP JUMPDEST PUSH1 0x80 DUP4 ADD MLOAD PUSH2 0x367 SWAP1 DUP4 PUSH2 0x472 JUMP JUMPDEST PUSH1 0x80 DUP4 ADD MLOAD PUSH2 0x376 SWAP1 DUP3 PUSH2 0x472 JUMP JUMPDEST POP POP POP JUMP JUMPDEST PUSH1 0x80 DUP4 ADD MLOAD PUSH2 0x38A SWAP1 DUP4 PUSH2 0x472 JUMP JUMPDEST PUSH1 0x80 DUP4 ADD MLOAD PUSH2 0x376 SWAP1 DUP3 PUSH2 0x489 JUMP JUMPDEST PUSH1 0x4 SLOAD PUSH1 0x0 SWAP1 PUSH2 0x3AA DUP2 PUSH1 0x1 PUSH2 0xB34 JUMP JUMPDEST PUSH1 0x4 SSTORE DUP4 MLOAD PUSH1 0x40 DUP1 DUP7 ADD MLOAD PUSH1 0x80 DUP8 ADD MLOAD MLOAD SWAP2 MLOAD PUSH1 0x0 SWAP4 PUSH4 0x20214CA3 PUSH1 0xE1 SHL SWAP4 PUSH2 0x3E2 SWAP4 DUP7 SWAP4 DUP5 SWAP4 SWAP3 ADDRESS SWAP3 SWAP2 DUP11 SWAP2 PUSH1 0x1 SWAP2 PUSH1 0x24 ADD PUSH2 0xB99 JUMP JUMPDEST PUSH1 0x40 DUP1 MLOAD PUSH1 0x1F NOT DUP2 DUP5 SUB ADD DUP2 MSTORE SWAP2 SWAP1 MSTORE PUSH1 0x20 DUP2 ADD DUP1 MLOAD PUSH1 0x1 PUSH1 0x1 PUSH1 0xE0 SHL SUB AND PUSH1 0x1 PUSH1 0x1 PUSH1 0xE0 SHL SUB NOT SWAP1 SWAP4 AND SWAP3 SWAP1 SWAP3 OR SWAP1 SWAP2 MSTORE SWAP1 POP PUSH2 0x422 DUP7 DUP4 DUP7 DUP5 PUSH2 0x4ED JUMP JUMPDEST SWAP7 SWAP6 POP POP POP POP POP POP JUMP JUMPDEST PUSH2 0x434 PUSH2 0xAAA JUMP JUMPDEST PUSH2 0x444 DUP6 PUSH1 0x80 ADD MLOAD PUSH2 0x100 PUSH2 0x64B JUMP JUMPDEST POP POP DUP3 DUP5 MSTORE PUSH1 0x1 PUSH1 0x1 PUSH1 0xA0 SHL SUB DUP3 AND PUSH1 0x20 DUP6 ADD MSTORE PUSH1 0x1 PUSH1 0x1 PUSH1 0xE0 SHL SUB NOT DUP2 AND PUSH1 0x40 DUP6 ADD MSTORE DUP4 JUMPDEST SWAP5 SWAP4 POP POP POP POP JUMP JUMPDEST PUSH2 0x47F DUP3 PUSH1 0x3 DUP4 MLOAD PUSH2 0x6B6 JUMP JUMPDEST PUSH2 0x376 DUP3 DUP3 PUSH2 0x7CB JUMP JUMPDEST PUSH8 0xFFFFFFFFFFFFFFFF NOT DUP2 SLT ISZERO PUSH2 0x4A8 JUMPI PUSH2 0x4A4 DUP3 DUP3 PUSH2 0x7F9 JUMP JUMPDEST POP POP JUMP JUMPDEST PUSH8 0xFFFFFFFFFFFFFFFF DUP2 SGT ISZERO PUSH2 0x4C2 JUMPI PUSH2 0x4A4 DUP3 DUP3 PUSH2 0x83B JUMP JUMPDEST PUSH1 0x0 DUP2 SLT PUSH2 0x4D6 JUMPI PUSH2 0x4A4 DUP3 PUSH1 0x0 DUP4 PUSH2 0x6B6 JUMP JUMPDEST PUSH2 0x4A4 DUP3 PUSH1 0x1 PUSH2 0x4E8 DUP5 PUSH1 0x0 NOT PUSH2 0xC01 JUMP JUMPDEST PUSH2 0x6B6 JUMP JUMPDEST PUSH1 0x40 MLOAD PUSH12 0xFFFFFFFFFFFFFFFFFFFFFFFF NOT ADDRESS PUSH1 0x60 SHL AND PUSH1 0x20 DUP3 ADD MSTORE PUSH1 0x34 DUP2 ADD DUP5 SWAP1 MSTORE PUSH1 0x0 SWAP1 PUSH1 0x54 ADD PUSH1 0x40 DUP1 MLOAD DUP1 DUP4 SUB PUSH1 0x1F NOT ADD DUP2 MSTORE DUP3 DUP3 MSTORE DUP1 MLOAD PUSH1 0x20 SWAP2 DUP3 ADD KECCAK256 PUSH1 0x0 DUP2 DUP2 MSTORE PUSH1 0x5 SWAP1 SWAP3 MSTORE SWAP2 DUP2 KECCAK256 DUP1 SLOAD PUSH1 0x1 PUSH1 0x1 PUSH1 0xA0 SHL SUB NOT AND PUSH1 0x1 PUSH1 0x1 PUSH1 0xA0 SHL SUB DUP11 AND OR SWAP1 SSTORE SWAP1 SWAP3 POP DUP3 SWAP2 PUSH32 0xB5E6E01E79F91267DC17B4E6314D5D4D03593D2CEEE0FBB452B750BD70EA5AF9 SWAP2 SWAP1 LOG2 PUSH1 0x2 SLOAD PUSH1 0x40 MLOAD PUSH4 0x2000575 PUSH1 0xE5 SHL DUP2 MSTORE PUSH1 0x1 PUSH1 0x1 PUSH1 0xA0 SHL SUB SWAP1 SWAP2 AND SWAP1 PUSH4 0x4000AEA0 SWAP1 PUSH2 0x5B0 SWAP1 DUP9 SWAP1 DUP8 SWAP1 DUP8 SWAP1 PUSH1 0x4 ADD PUSH2 0xC40 JUMP JUMPDEST PUSH1 0x20 PUSH1 0x40 MLOAD DUP1 DUP4 SUB DUP2 PUSH1 0x0 DUP8 GAS CALL ISZERO DUP1 ISZERO PUSH2 0x5CF JUMPI RETURNDATASIZE PUSH1 0x0 DUP1 RETURNDATACOPY RETURNDATASIZE PUSH1 0x0 REVERT JUMPDEST POP POP POP POP PUSH1 0x40 MLOAD RETURNDATASIZE PUSH1 0x1F NOT PUSH1 0x1F DUP3 ADD AND DUP3 ADD DUP1 PUSH1 0x40 MSTORE POP DUP2 ADD SWAP1 PUSH2 0x5F3 SWAP2 SWAP1 PUSH2 0xC67 JUMP JUMPDEST PUSH2 0x46A JUMPI PUSH1 0x40 MLOAD PUSH3 0x461BCD PUSH1 0xE5 SHL DUP2 MSTORE PUSH1 0x20 PUSH1 0x4 DUP3 ADD MSTORE PUSH1 0x23 PUSH1 0x24 DUP3 ADD MSTORE PUSH32 0x756E61626C6520746F207472616E73666572416E6443616C6C20746F206F7261 PUSH1 0x44 DUP3 ADD MSTORE PUSH3 0x636C65 PUSH1 0xE8 SHL PUSH1 0x64 DUP3 ADD MSTORE PUSH1 0x84 ADD PUSH2 0xF3 JUMP JUMPDEST PUSH1 0x40 DUP1 MLOAD DUP1 DUP3 ADD SWAP1 SWAP2 MSTORE PUSH1 0x60 DUP2 MSTORE PUSH1 0x0 PUSH1 0x20 DUP3 ADD MSTORE PUSH2 0x66B PUSH1 0x20 DUP4 PUSH2 0xC89 JUMP JUMPDEST ISZERO PUSH2 0x693 JUMPI PUSH2 0x67B PUSH1 0x20 DUP4 PUSH2 0xC89 JUMP JUMPDEST PUSH2 0x686 SWAP1 PUSH1 0x20 PUSH2 0xB1D JUMP JUMPDEST PUSH2 0x690 SWAP1 DUP4 PUSH2 0xB34 JUMP JUMPDEST SWAP2 POP JUMPDEST POP PUSH1 0x20 DUP1 DUP4 ADD DUP3 SWAP1 MSTORE PUSH1 0x40 DUP1 MLOAD DUP1 DUP6 MSTORE PUSH1 0x0 DUP2 MSTORE DUP4 ADD SWAP1 SWAP2 ADD SWAP1 MSTORE DUP2 JUMPDEST SWAP3 SWAP2 POP POP JUMP JUMPDEST PUSH1 0x17 DUP2 PUSH8 0xFFFFFFFFFFFFFFFF AND GT PUSH2 0x6E1 JUMPI PUSH2 0x6DB DUP4 PUSH1 0xE0 PUSH1 0x5 DUP6 SWAP1 SHL AND DUP4 OR PUSH2 0x85E JUMP JUMPDEST POP POP POP POP JUMP JUMPDEST PUSH1 0xFF DUP2 PUSH8 0xFFFFFFFFFFFFFFFF AND GT PUSH2 0x71F JUMPI PUSH2 0x708 DUP4 PUSH1 0x18 PUSH2 0x1FE0 PUSH1 0x5 DUP7 SWAP1 SHL AND OR PUSH2 0x85E JUMP JUMPDEST POP PUSH2 0x6DB DUP4 PUSH8 0xFFFFFFFFFFFFFFFF DUP4 AND PUSH1 0x1 PUSH2 0x883 JUMP JUMPDEST PUSH2 0xFFFF DUP2 PUSH8 0xFFFFFFFFFFFFFFFF AND GT PUSH2 0x75E JUMPI PUSH2 0x747 DUP4 PUSH1 0x19 PUSH2 0x1FE0 PUSH1 0x5 DUP7 SWAP1 SHL AND OR PUSH2 0x85E JUMP JUMPDEST POP PUSH2 0x6DB DUP4 PUSH8 0xFFFFFFFFFFFFFFFF DUP4 AND PUSH1 0x2 PUSH2 0x883 JUMP JUMPDEST PUSH4 0xFFFFFFFF DUP2 PUSH8 0xFFFFFFFFFFFFFFFF AND GT PUSH2 0x79F JUMPI PUSH2 0x788 DUP4 PUSH1 0x1A PUSH2 0x1FE0 PUSH1 0x5 DUP7 SWAP1 SHL AND OR PUSH2 0x85E JUMP JUMPDEST POP PUSH2 0x6DB DUP4 PUSH8 0xFFFFFFFFFFFFFFFF DUP4 AND PUSH1 0x4 PUSH2 0x883 JUMP JUMPDEST PUSH2 0x7B4 DUP4 PUSH1 0x1B PUSH2 0x1FE0 PUSH1 0x5 DUP7 SWAP1 SHL AND OR PUSH2 0x85E JUMP JUMPDEST POP PUSH2 0x6DB DUP4 PUSH8 0xFFFFFFFFFFFFFFFF DUP4 AND PUSH1 0x8 PUSH2 0x883 JUMP JUMPDEST PUSH1 0x40 DUP1 MLOAD DUP1 DUP3 ADD SWAP1 SWAP2 MSTORE PUSH1 0x60 DUP2 MSTORE PUSH1 0x0 PUSH1 0x20 DUP3 ADD MSTORE PUSH2 0x7F2 DUP4 DUP5 PUSH1 0x0 ADD MLOAD MLOAD DUP5 DUP6 MLOAD PUSH2 0x8A9 JUMP JUMPDEST SWAP4 SWAP3 POP POP POP JUMP JUMPDEST PUSH2 0x804 DUP3 PUSH1 0xC3 PUSH2 0x85E JUMP JUMPDEST POP PUSH2 0x4A4 DUP3 PUSH2 0x815 DUP4 PUSH1 0x0 NOT PUSH2 0xC01 JUMP JUMPDEST PUSH1 0x40 MLOAD PUSH1 0x20 ADD PUSH2 0x827 SWAP2 DUP2 MSTORE PUSH1 0x20 ADD SWAP1 JUMP JUMPDEST PUSH1 0x40 MLOAD PUSH1 0x20 DUP2 DUP4 SUB SUB DUP2 MSTORE SWAP1 PUSH1 0x40 MSTORE PUSH2 0x993 JUMP JUMPDEST PUSH2 0x846 DUP3 PUSH1 0xC2 PUSH2 0x85E JUMP JUMPDEST POP PUSH2 0x4A4 DUP3 DUP3 PUSH1 0x40 MLOAD PUSH1 0x20 ADD PUSH2 0x827 SWAP2 DUP2 MSTORE PUSH1 0x20 ADD SWAP1 JUMP JUMPDEST PUSH1 0x40 DUP1 MLOAD DUP1 DUP3 ADD SWAP1 SWAP2 MSTORE PUSH1 0x60 DUP2 MSTORE PUSH1 0x0 PUSH1 0x20 DUP3 ADD MSTORE PUSH2 0x7F2 DUP4 DUP5 PUSH1 0x0 ADD MLOAD MLOAD DUP5 PUSH2 0x9A0 JUMP JUMPDEST PUSH1 0x40 DUP1 MLOAD DUP1 DUP3 ADD SWAP1 SWAP2 MSTORE PUSH1 0x60 DUP2 MSTORE PUSH1 0x0 PUSH1 0x20 DUP3 ADD MSTORE PUSH2 0x46A DUP5 DUP6 PUSH1 0x0 ADD MLOAD MLOAD DUP6 DUP6 PUSH2 0x9FB JUMP JUMPDEST PUSH1 0x40 DUP1 MLOAD DUP1 DUP3 ADD SWAP1 SWAP2 MSTORE PUSH1 0x60 DUP2 MSTORE PUSH1 0x0 PUSH1 0x20 DUP3 ADD MSTORE DUP3 MLOAD DUP3 GT ISZERO PUSH2 0x8CC JUMPI PUSH1 0x0 DUP1 REVERT JUMPDEST PUSH1 0x20 DUP6 ADD MLOAD PUSH2 0x8DB DUP4 DUP7 PUSH2 0xB34 JUMP JUMPDEST GT ISZERO PUSH2 0x90E JUMPI PUSH2 0x90E DUP6 PUSH2 0x8FE DUP8 PUSH1 0x20 ADD MLOAD DUP8 DUP7 PUSH2 0x8F9 SWAP2 SWAP1 PUSH2 0xB34 JUMP JUMPDEST PUSH2 0xA7C JUMP JUMPDEST PUSH2 0x909 SWAP1 PUSH1 0x2 PUSH2 0xCAB JUMP JUMPDEST PUSH2 0xA93 JUMP JUMPDEST PUSH1 0x0 DUP1 DUP7 MLOAD DUP1 MLOAD DUP8 PUSH1 0x20 DUP4 ADD ADD SWAP4 POP DUP1 DUP9 DUP8 ADD GT ISZERO PUSH2 0x92D JUMPI DUP8 DUP7 ADD DUP3 MSTORE JUMPDEST POP POP POP PUSH1 0x20 DUP5 ADD JUMPDEST PUSH1 0x20 DUP5 LT PUSH2 0x96D JUMPI DUP1 MLOAD DUP3 MSTORE PUSH2 0x94C PUSH1 0x20 DUP4 PUSH2 0xB34 JUMP JUMPDEST SWAP2 POP PUSH2 0x959 PUSH1 0x20 DUP3 PUSH2 0xB34 JUMP JUMPDEST SWAP1 POP PUSH2 0x966 PUSH1 0x20 DUP6 PUSH2 0xB1D JUMP JUMPDEST SWAP4 POP PUSH2 0x935 JUMP JUMPDEST MLOAD DUP2 MLOAD PUSH1 0x0 NOT PUSH1 0x20 DUP7 SWAP1 SUB PUSH2 0x100 EXP ADD SWAP1 DUP2 AND SWAP1 NOT SWAP2 SWAP1 SWAP2 AND OR SWAP1 MSTORE POP DUP4 SWAP5 SWAP4 POP POP POP POP JUMP JUMPDEST PUSH2 0x47F DUP3 PUSH1 0x2 DUP4 MLOAD PUSH2 0x6B6 JUMP JUMPDEST PUSH1 0x40 DUP1 MLOAD DUP1 DUP3 ADD SWAP1 SWAP2 MSTORE PUSH1 0x60 DUP2 MSTORE PUSH1 0x0 PUSH1 0x20 DUP3 ADD MSTORE DUP4 PUSH1 0x20 ADD MLOAD DUP4 LT PUSH2 0x9D5 JUMPI PUSH2 0x9D5 DUP5 DUP6 PUSH1 0x20 ADD MLOAD PUSH1 0x2 PUSH2 0x909 SWAP2 SWAP1 PUSH2 0xCAB JUMP JUMPDEST DUP4 MLOAD DUP1 MLOAD PUSH1 0x20 DUP6 DUP4 ADD ADD DUP5 DUP2 MSTORE8 POP DUP1 DUP6 SUB PUSH2 0x9F1 JUMPI PUSH1 0x1 DUP2 ADD DUP3 MSTORE JUMPDEST POP SWAP4 SWAP5 SWAP4 POP POP POP POP JUMP JUMPDEST PUSH1 0x40 DUP1 MLOAD DUP1 DUP3 ADD SWAP1 SWAP2 MSTORE PUSH1 0x60 DUP2 MSTORE PUSH1 0x0 PUSH1 0x20 DUP3 ADD MSTORE PUSH1 0x20 DUP6 ADD MLOAD PUSH2 0xA1F DUP6 DUP5 PUSH2 0xB34 JUMP JUMPDEST GT ISZERO PUSH2 0xA33 JUMPI PUSH2 0xA33 DUP6 PUSH2 0x8FE DUP7 DUP6 PUSH2 0xB34 JUMP JUMPDEST PUSH1 0x0 PUSH1 0x1 PUSH2 0xA43 DUP5 PUSH2 0x100 PUSH2 0xDAE JUMP JUMPDEST PUSH2 0xA4D SWAP2 SWAP1 PUSH2 0xB1D JUMP JUMPDEST SWAP1 POP DUP6 MLOAD DUP4 DUP7 DUP3 ADD ADD DUP6 DUP4 NOT DUP3 MLOAD AND OR DUP2 MSTORE POP DUP1 MLOAD DUP5 DUP8 ADD GT ISZERO PUSH2 0xA71 JUMPI DUP4 DUP7 ADD DUP2 MSTORE JUMPDEST POP SWAP5 SWAP6 SWAP5 POP POP POP POP POP JUMP JUMPDEST PUSH1 0x0 DUP2 DUP4 GT ISZERO PUSH2 0xA8D JUMPI POP DUP2 PUSH2 0x6B0 JUMP JUMPDEST POP SWAP2 SWAP1 POP JUMP JUMPDEST DUP2 MLOAD PUSH2 0xA9F DUP4 DUP4 PUSH2 0x64B JUMP JUMPDEST POP PUSH2 0x6DB DUP4 DUP3 PUSH2 0x7CB JUMP JUMPDEST PUSH1 0x40 DUP1 MLOAD PUSH1 0xA0 DUP2 ADD DUP3 MSTORE PUSH1 0x0 DUP1 DUP3 MSTORE PUSH1 0x20 DUP1 DUP4 ADD DUP3 SWAP1 MSTORE DUP3 DUP5 ADD DUP3 SWAP1 MSTORE PUSH1 0x60 DUP1 DUP5 ADD DUP4 SWAP1 MSTORE DUP5 MLOAD DUP1 DUP7 ADD SWAP1 SWAP6 MSTORE DUP5 MSTORE DUP4 ADD MSTORE SWAP1 PUSH1 0x80 DUP3 ADD MSTORE SWAP1 JUMP JUMPDEST PUSH1 0x0 DUP1 PUSH1 0x40 DUP4 DUP6 SUB SLT ISZERO PUSH2 0xAF8 JUMPI PUSH1 0x0 DUP1 REVERT JUMPDEST POP POP DUP1 CALLDATALOAD SWAP3 PUSH1 0x20 SWAP1 SWAP2 ADD CALLDATALOAD SWAP2 POP JUMP JUMPDEST PUSH4 0x4E487B71 PUSH1 0xE0 SHL PUSH1 0x0 MSTORE PUSH1 0x11 PUSH1 0x4 MSTORE PUSH1 0x24 PUSH1 0x0 REVERT JUMPDEST PUSH1 0x0 DUP3 DUP3 LT ISZERO PUSH2 0xB2F JUMPI PUSH2 0xB2F PUSH2 0xB07 JUMP JUMPDEST POP SUB SWAP1 JUMP JUMPDEST PUSH1 0x0 DUP3 NOT DUP3 GT ISZERO PUSH2 0xB47 JUMPI PUSH2 0xB47 PUSH2 0xB07 JUMP JUMPDEST POP ADD SWAP1 JUMP JUMPDEST PUSH1 0x0 DUP2 MLOAD DUP1 DUP5 MSTORE PUSH1 0x0 JUMPDEST DUP2 DUP2 LT ISZERO PUSH2 0xB72 JUMPI PUSH1 0x20 DUP2 DUP6 ADD DUP2 ADD MLOAD DUP7 DUP4 ADD DUP3 ADD MSTORE ADD PUSH2 0xB56 JUMP JUMPDEST DUP2 DUP2 GT ISZERO PUSH2 0xB84 JUMPI PUSH1 0x0 PUSH1 0x20 DUP4 DUP8 ADD ADD MSTORE JUMPDEST POP PUSH1 0x1F ADD PUSH1 0x1F NOT AND SWAP3 SWAP1 SWAP3 ADD PUSH1 0x20 ADD SWAP3 SWAP2 POP POP JUMP JUMPDEST PUSH1 0x1 PUSH1 0x1 PUSH1 0xA0 SHL SUB DUP10 DUP2 AND DUP3 MSTORE PUSH1 0x20 DUP3 ADD DUP10 SWAP1 MSTORE PUSH1 0x40 DUP3 ADD DUP9 SWAP1 MSTORE DUP7 AND PUSH1 0x60 DUP3 ADD MSTORE PUSH1 0x1 PUSH1 0x1 PUSH1 0xE0 SHL SUB NOT DUP6 AND PUSH1 0x80 DUP3 ADD MSTORE PUSH1 0xA0 DUP2 ADD DUP5 SWAP1 MSTORE PUSH1 0xC0 DUP2 ADD DUP4 SWAP1 MSTORE PUSH2 0x100 PUSH1 0xE0 DUP3 ADD DUP2 SWAP1 MSTORE PUSH1 0x0 SWAP1 PUSH2 0xBF2 DUP4 DUP3 ADD DUP6 PUSH2 0xB4C JUMP JUMPDEST SWAP12 SWAP11 POP POP POP POP POP POP POP POP POP POP POP JUMP JUMPDEST PUSH1 0x0 DUP1 DUP4 SLT DUP1 ISZERO PUSH1 0x1 PUSH1 0xFF SHL DUP6 ADD DUP5 SLT AND ISZERO PUSH2 0xC1F JUMPI PUSH2 0xC1F PUSH2 0xB07 JUMP JUMPDEST PUSH1 0x1 PUSH1 0x1 PUSH1 0xFF SHL SUB DUP5 ADD DUP4 SGT DUP2 AND ISZERO PUSH2 0xC3A JUMPI PUSH2 0xC3A PUSH2 0xB07 JUMP JUMPDEST POP POP SUB SWAP1 JUMP JUMPDEST PUSH1 0x1 DUP1 PUSH1 0xA0 SHL SUB DUP5 AND DUP2 MSTORE DUP3 PUSH1 0x20 DUP3 ADD MSTORE PUSH1 0x60 PUSH1 0x40 DUP3 ADD MSTORE PUSH1 0x0 PUSH2 0x34F PUSH1 0x60 DUP4 ADD DUP5 PUSH2 0xB4C JUMP JUMPDEST PUSH1 0x0 PUSH1 0x20 DUP3 DUP5 SUB SLT ISZERO PUSH2 0xC79 JUMPI PUSH1 0x0 DUP1 REVERT JUMPDEST DUP2 MLOAD DUP1 ISZERO ISZERO DUP2 EQ PUSH2 0x7F2 JUMPI PUSH1 0x0 DUP1 REVERT JUMPDEST PUSH1 0x0 DUP3 PUSH2 0xCA6 JUMPI PUSH4 0x4E487B71 PUSH1 0xE0 SHL PUSH1 0x0 MSTORE PUSH1 0x12 PUSH1 0x4 MSTORE PUSH1 0x24 PUSH1 0x0 REVERT JUMPDEST POP MOD SWAP1 JUMP JUMPDEST PUSH1 0x0 DUP2 PUSH1 0x0 NOT DIV DUP4 GT DUP3 ISZERO ISZERO AND ISZERO PUSH2 0xCC5 JUMPI PUSH2 0xCC5 PUSH2 0xB07 JUMP JUMPDEST POP MUL SWAP1 JUMP JUMPDEST PUSH1 0x1 DUP2 DUP2 JUMPDEST DUP1 DUP6 GT ISZERO PUSH2 0xD05 JUMPI DUP2 PUSH1 0x0 NOT DIV DUP3 GT ISZERO PUSH2 0xCEB JUMPI PUSH2 0xCEB PUSH2 0xB07 JUMP JUMPDEST DUP1 DUP6 AND ISZERO PUSH2 0xCF8 JUMPI SWAP2 DUP2 MUL SWAP2 JUMPDEST SWAP4 DUP5 SHR SWAP4 SWAP1 DUP1 MUL SWAP1 PUSH2 0xCCF JUMP JUMPDEST POP SWAP3 POP SWAP3 SWAP1 POP JUMP JUMPDEST PUSH1 0x0 DUP3 PUSH2 0xD1C JUMPI POP PUSH1 0x1 PUSH2 0x6B0 JUMP JUMPDEST DUP2 PUSH2 0xD29 JUMPI POP PUSH1 0x0 PUSH2 0x6B0 JUMP JUMPDEST DUP2 PUSH1 0x1 DUP2 EQ PUSH2 0xD3F JUMPI PUSH1 0x2 DUP2 EQ PUSH2 0xD49 JUMPI PUSH2 0xD65 JUMP JUMPDEST PUSH1 0x1 SWAP2 POP POP PUSH2 0x6B0 JUMP JUMPDEST PUSH1 0xFF DUP5 GT ISZERO PUSH2 0xD5A JUMPI PUSH2 0xD5A PUSH2 0xB07 JUMP JUMPDEST POP POP PUSH1 0x1 DUP3 SHL PUSH2 0x6B0 JUMP JUMPDEST POP PUSH1 0x20 DUP4 LT PUSH2 0x133 DUP4 LT AND PUSH1 0x4E DUP5 LT PUSH1 0xB DUP5 LT AND OR ISZERO PUSH2 0xD88 JUMPI POP DUP2 DUP2 EXP PUSH2 0x6B0 JUMP JUMPDEST PUSH2 0xD92 DUP4 DUP4 PUSH2 0xCCA JUMP JUMPDEST DUP1 PUSH1 0x0 NOT DIV DUP3 GT ISZERO PUSH2 0xDA6 JUMPI PUSH2 0xDA6 PUSH2 0xB07 JUMP JUMPDEST MUL SWAP4 SWAP3 POP POP POP JUMP JUMPDEST PUSH1 0x0 PUSH2 0x7F2 DUP4 DUP4 PUSH2 0xD0D JUMP INVALID PUSH9 0x7474703A2F2F647265 PUSH25 0x616C6C2D656E762E6562612D65336D6E6E6D36392E75732D65 PUSH2 0x7374 0x2D BALANCE 0x2E PUSH6 0x6C6173746963 PUSH3 0x65616E PUSH20 0x74616C6B2E636F6D2F677269642F6C6173743F63 PUSH16 0x64653D4C494DA2646970667358221220 0xAA RETURNDATACOPY RETURNDATASIZE DUP9 CHAINID 0x5F SWAP9 0xBE MSTORE LOG1 JUMPI 0x25 BASEFEE SWAP1 0xC9 SWAP16 0x25 0xDE 0x5F 0xE8 DUP4 0xC2 LOG2 0xD LOG2 CREATE2 0xEC 0xCE PUSH15 0xBAFA4164736F6C634300080E003300 ","sha1":"2e687aebc1ae215e7bf0cbd72b1efd4e2ebc414a","source":"// SPDX-License-Identifier: GPL-3.0\n\npragma solidity ^0.8.1;\n\nimport \"@chainlink/contracts/src/v0.8/ChainlinkClient.sol\";\nimport \"./AdvancedCollectible.sol\";\nimport \"./Our_ERC20.sol\";\n\ncontract Client is ChainlinkClient {\n    using Chainlink for Chainlink.Request;\n\n    address private oracle;\n    bytes32 private jobId;\n    uint256 private fee;\n    uint256 public volume;\n    address payable nft_contract;\n    address drex_token_contract;\n    uint256 curr_volume;\n\n    /**\n    This example uses the LINK token address on Moonbase Alpha.\n    Make sure to update the oracle and jobId.\n    */\n    constructor(address payable nft_address, address erc20_address) {\n        setChainlinkToken(address(0xa36085F69e2889c224210F603D836748e7dC0088));\n        oracle = 0xD4D9ac4ecF5dDf18056ce6A91d0a8E7B0c910ccE;\n        jobId = \"79abc1e36be340a697e2b49dd2d86798\";\n        fee = 0;\n        nft_contract = nft_address;\n        drex_token_contract = erc20_address;\n        curr_volume = 0;\n    }\n\n    /**\n     * Create a Chainlink request to retrieve API response, find the target\n     * data, then multiply by 1000000000000000000 (to remove decimal places from data).\n     */\n    function request_sensor_data() public returns (bytes32 requestId) {\n        Chainlink.Request memory request = buildChainlinkRequest(\n            jobId,\n            address(this),\n            this.fulfill.selector\n        );\n\n        // Set the URL to perform the GET request on\n        request.add(\n            \"get\",\n            \"http://drexall-env.eba-e3mnnm69.us-east-1.elasticbeanstalk.com/grid/last?code=LIM\"\n        );\n\n        // Set the path to find the desired data in the API response, where the response format is:\n\n        request.add(\"path\", \"energy-accumulated\");\n\n        // Multiply the result by 1000000000000000000 to remove decimals\n        int256 timesAmount = 10**18;\n        request.addInt(\"times\", timesAmount);\n\n        // Sends the request\n        return sendChainlinkRequestTo(oracle, request, fee);\n    }\n\n    /**\n     * Receive the response in the form of uint256\n     */\n    function fulfill(bytes32 _requestId, uint256 _volume)\n        public\n        recordChainlinkFulfillment(_requestId)\n    {\n        volume = _volume;\n        uint256 amt_generated = volume - curr_volume;\n        curr_volume = volume;\n        Nft_interface nfti = Nft_interface(nft_contract);\n        drex_token_interface erc20 = drex_token_interface(drex_token_contract);\n        erc20.tranferingfunds(nft_contract, amt_generated);\n        nfti.update_nft_balance(amt_generated);\n    }\n}\n","sourcePath":"contracts/DrexApi.sol","type":"contract","deployment":{"address":"0xa302191f278436d5A0c577Df6858f803e2CDcA6A","chainid":"1287","blockHeight":3361834}}