{"bytecode":"60806040523480156200001157600080fd5b5060405162002b7c38038062002b7c833981016040819052620000349162000251565b6040805180820182526004815263088a48ab60e31b602080830191825283518085019094526003845262088a4f60eb1b9084015281519192916200007b9160009162000112565b5080516200009190600190602084019062000112565b5050601880546001600160a01b03191633179055508151620000bb906012906020850190620001a1565b50600780546001600160a01b039586166001600160a01b03199182161790915560088054949095169316929092179092556001601655600a601755600060148190556013819055601991909155601a555062000393565b828054620001209062000357565b90600052602060002090601f0160209004810192826200014457600085556200018f565b82601f106200015f57805160ff19168380011785556200018f565b828001600101855582156200018f579182015b828111156200018f57825182559160200191906001019062000172565b506200019d929150620001f9565b5090565b8280548282559060005260206000209081019282156200018f579160200282015b828111156200018f57825182546001600160a01b0319166001600160a01b03909116178255602090920191600190910190620001c2565b5b808211156200019d5760008155600101620001fa565b6001600160a01b03811681146200022657600080fd5b50565b634e487b7160e01b600052604160045260246000fd5b80516200024c8162000210565b919050565b600080600080608085870312156200026857600080fd5b8451620002758162000210565b809450506020808601516200028a8162000210565b60408701519094506001600160401b0380821115620002a857600080fd5b818801915088601f830112620002bd57600080fd5b815181811115620002d257620002d262000229565b8060051b604051601f19603f83011681018181108582111715620002fa57620002fa62000229565b60405291825284820192508381018501918b8311156200031957600080fd5b938501935b82851015620003425762000332856200023f565b845293850193928501926200031e565b60609a909a0151989b979a5050505050505050565b600181811c908216806200036c57607f821691505b6020821081036200038d57634e487b7160e01b600052602260045260246000fd5b50919050565b6127d980620003a36000396000f3fe6080604052600436106102465760003560e01c80638a77409111610139578063c6ce3bcd116100b6578063deaa59df1161007a578063deaa59df146106e2578063e7fefafe14610702578063e985e9c514610722578063f136d1971461076b578063fb96e64914610798578063ff1b636d146107ae57600080fd5b8063c6ce3bcd14610644578063c87b56dd14610659578063cbbc3c2814610679578063ccbac9f5146106b6578063d082e381146106cc57600080fd5b8063a22cb465116100fd578063a22cb465146105ab578063a3bab286146105cb578063af154011146105de578063b38eb18c1461060e578063b88d4fde1461062457600080fd5b80638a774091146105155780638e2de4d31461053557806395d89b411461056b578063977284f9146105805780639a2320721461059557600080fd5b806324e71743116101c75780634e71d92d1161018b5780634e71d92d1461049457806356cffecb146104a95780636352211e146104bf57806370a08231146104df57806373b0745f146104ff57600080fd5b806324e71743146103da57806332f904fd1461040757806342842e0e1461042757806345afc81f146104475780634dfb4c531461046757600080fd5b806315a9f7a51161020e57806315a9f7a514610337578063162094c41461036457806317d70f7c146103845780631b2ef1ca1461039a57806323b872dd146103ba57600080fd5b806301ffc9a71461024b57806306fdde03146102805780630750b163146102a2578063081812fc146102dd578063095ea7b314610315575b600080fd5b34801561025757600080fd5b5061026b61026636600461213b565b6107ce565b60405190151581526020015b60405180910390f35b34801561028c57600080fd5b50610295610820565b60405161027791906121b0565b3480156102ae57600080fd5b506102cf6102bd3660046121c3565b600c6020526000908152604090205481565b604051908152602001610277565b3480156102e957600080fd5b506102fd6102f83660046121c3565b6108b2565b6040516001600160a01b039091168152602001610277565b34801561032157600080fd5b506103356103303660046121f8565b6108d9565b005b34801561034357600080fd5b506102cf610352366004612222565b600f6020526000908152604090205481565b34801561037057600080fd5b5061033561037f3660046122e9565b6109f3565b34801561039057600080fd5b506102cf601b5481565b3480156103a657600080fd5b506103356103b5366004612330565b610a72565b3480156103c657600080fd5b506103356103d5366004612352565b610c15565b3480156103e657600080fd5b506102cf6103f53660046121c3565b60106020526000908152604090205481565b34801561041357600080fd5b506103356104223660046121f8565b610c46565b34801561043357600080fd5b50610335610442366004612352565b610cbd565b34801561045357600080fd5b506102fd6104623660046121c3565b610cd8565b34801561047357600080fd5b506102cf610482366004612222565b600d6020526000908152604090205481565b3480156104a057600080fd5b50610335610d02565b3480156104b557600080fd5b506102cf60135481565b3480156104cb57600080fd5b506102fd6104da3660046121c3565b610e81565b3480156104eb57600080fd5b506102cf6104fa366004612222565b610ee1565b34801561050b57600080fd5b506102cf60195481565b34801561052157600080fd5b506103356105303660046121c3565b610f67565b34801561054157600080fd5b506102fd6105503660046121c3565b6009602052600090815260409020546001600160a01b031681565b34801561057757600080fd5b50610295610ff4565b34801561058c57600080fd5b50610335611003565b3480156105a157600080fd5b506102cf60155481565b3480156105b757600080fd5b506103356105c636600461239c565b611251565b6103356105d93660046123d3565b61125c565b3480156105ea57600080fd5b5061026b6105f9366004612222565b60116020526000908152604090205460ff1681565b34801561061a57600080fd5b506102cf601a5481565b34801561063057600080fd5b5061033561063f366004612408565b61142b565b34801561065057600080fd5b50610335611462565b34801561066557600080fd5b506102956106743660046121c3565b611516565b34801561068557600080fd5b506106a96106943660046121c3565b600b6020526000908152604090205460ff1681565b604051610277919061249a565b3480156106c257600080fd5b506102cf60175481565b3480156106d857600080fd5b506102cf60145481565b3480156106ee57600080fd5b506103356106fd366004612222565b611626565b34801561070e57600080fd5b5061029561071d3660046121c3565b61164a565b34801561072e57600080fd5b5061026b61073d3660046124c2565b6001600160a01b03918216600090815260056020908152604080832093909416825291909152205460ff1690565b34801561077757600080fd5b506102cf6107863660046121c3565b600e6020526000908152604090205481565b3480156107a457600080fd5b506102cf60165481565b3480156107ba57600080fd5b506018546102fd906001600160a01b031681565b60006001600160e01b031982166380ac58cd60e01b14806107ff57506001600160e01b03198216635b5e139f60e01b145b8061081a57506301ffc9a760e01b6001600160e01b03198316145b92915050565b60606000805461082f906124f5565b80601f016020809104026020016040519081016040528092919081815260200182805461085b906124f5565b80156108a85780601f1061087d576101008083540402835291602001916108a8565b820191906000526020600020905b81548152906001019060200180831161088b57829003601f168201915b5050505050905090565b60006108bd826116e4565b506000908152600460205260409020546001600160a01b031690565b60006108e482610e81565b9050806001600160a01b0316836001600160a01b0316036109565760405162461bcd60e51b815260206004820152602160248201527f4552433732313a20617070726f76616c20746f2063757272656e74206f776e656044820152603960f91b60648201526084015b60405180910390fd5b336001600160a01b03821614806109725750610972813361073d565b6109e45760405162461bcd60e51b815260206004820152603d60248201527f4552433732313a20617070726f76652063616c6c6572206973206e6f7420746f60448201527f6b656e206f776e6572206f7220617070726f76656420666f7220616c6c000000606482015260840161094d565b6109ee8383611746565b505050565b6109fe335b836117b4565b610a645760405162461bcd60e51b815260206004820152603160248201527f4552433732313a207472616e736665722063616c6c6572206973206e6f74206f6044820152701ddb995c881b9bdc88185c1c1c9bdd9959607a1b606482015260840161094d565b610a6e8282611832565b5050565b600082815260096020908152604080832054600a909252822080546001600160a01b039092169291610aa3906124f5565b80601f0160208091040260200160405190810160405280929190818152602001828054610acf906124f5565b8015610b1c5780601f10610af157610100808354040283529160200191610b1c565b820191906000526020600020905b815481529060010190602001808311610aff57829003601f168201915b505060145460185494955093610b4093506001600160a01b031691508390506118cc565b610b4a8183611832565b610b5383611626565b6000610b60600186612545565b8015610b6e57610b6e612484565b6000838152600b602052604090208054919250829160ff19166001838015610b9857610b98612484565b02179055506000868152600c602090815260408083208590556001600160a01b0387168352600d9091529020829055601454610bd590600161256f565b60145560405185815286907fd996551a703bf267a3068bb00ce0d5967b05fbab9b7091219d8e95226e9e0e3d9060200160405180910390a2505050505050565b610c1f33826117b4565b610c3b5760405162461bcd60e51b815260040161094d90612587565b6109ee8383836118e6565b60075460405163095ea7b360e01b81526001600160a01b038481166004830152602482018490529091169063095ea7b3906044016020604051808303816000875af1158015610c99573d6000803e3d6000fd5b505050506040513d601f19601f820116820180604052508101906109ee91906125d4565b6109ee8383836040518060200160405280600081525061142b565b60128181548110610ce857600080fd5b6000918252602090912001546001600160a01b0316905081565b3360009081526011602052604090205460ff161515600114610d5f5760405162461bcd60e51b81526020600482015260166024820152751cd95b99195c88191bdb9d081a1bdb190818481b999d60521b604482015260640161094d565b336000908152600d6020908152604080832054601b81905583526010909152902054610d9490670de0b6b3a7640000906125f1565b601a81905560138054600090610dab90849061256f565b9091555050600754601a546040516323b872dd60e01b815230600482015233602482015260448101919091526001600160a01b03909116906323b872dd906064016020604051808303816000875af1158015610e0b573d6000803e3d6000fd5b505050506040513d601f19601f82011682018060405250810190610e2f91906125d4565b50601b54600090815260106020908152604080832092909255601a548251338152918201527fcea16a2d83554574def1edf3ec1fb53f1373f7ebb1fa98fecdaa4268588793cc910160405180910390a1565b6000818152600260205260408120546001600160a01b03168061081a5760405162461bcd60e51b8152602060048201526018602482015277115490cdcc8c4e881a5b9d985b1a59081d1bdad95b88125160421b604482015260640161094d565b60006001600160a01b038216610f4b5760405162461bcd60e51b815260206004820152602960248201527f4552433732313a2061646472657373207a65726f206973206e6f7420612076616044820152683634b21037bbb732b960b91b606482015260840161094d565b506001600160a01b031660009081526003602052604090205490565b600060195482610f7791906125f1565b905060005b601954811015610fbc5760008181526010602052604081208054849290610fa490849061256f565b90915550819050610fb481612605565b915050610f7c565b506040518281527f22712b798ae7934ec355d80da68e214e1ada67aa7c0ab551450dffeb27f10d2e9060200160405180910390a15050565b60606001805461082f906124f5565b6007546040516370a0823160e01b81523060048201526000916001600160a01b0316906370a0823190602401602060405180830381865afa15801561104c573d6000803e3d6000fd5b505050506040513d601f19601f82011682018060405250810190611070919061261e565b6007546040516370a0823160e01b81523060048201529192506064916001600160a01b03909116906370a0823190602401602060405180830381865afa1580156110be573d6000803e3d6000fd5b505050506040513d601f19601f820116820180604052508101906110e2919061261e565b116111285760405162461bcd60e51b815260206004820152601660248201527518985b185b98d9481b9bdd081cdd59999a58da595b9d60521b604482015260640161094d565b600060646015548361113a9190612637565b61114491906125f1565b905060005b6012548110156109ee5760006012828154811061116857611168612656565b60009182526020909120015460075460405163a9059cbb60e01b81526001600160a01b039283166004820181905260248201879052935091169063a9059cbb906044016020604051808303816000875af11580156111ca573d6000803e3d6000fd5b505050506040513d601f19601f820116820180604052508101906111ee91906125d4565b506111f9838561266c565b604080516001600160a01b0384168152602081018690529195507fcea16a2d83554574def1edf3ec1fb53f1373f7ebb1fa98fecdaa4268588793cc910160405180910390a1508061124981612605565b915050611149565b610a6e338383611a57565b6008546040516370a0823160e01b815233600482015261c350916001600160a01b0316906370a0823190602401602060405180830381865afa1580156112a6573d6000803e3d6000fd5b505050506040513d601f19601f820116820180604052508101906112ca919061261e565b116113175760405162461bcd60e51b815260206004820152601f60248201527f62616c616e6365206e6f7420656e6f7567687420746f206d696e74206e667400604482015260640161094d565b6008546040516323b872dd60e01b815233600482015230602482015261c35060448201526001600160a01b03909116906323b872dd906064016020604051808303816000875af115801561136f573d6000803e3d6000fd5b505050506040513d601f19601f8201168201806040525081019061139391906125d4565b50601654600081815260096020908152604080832080546001600160a01b03191633179055600a825290912083516113cd9285019061208c565b506113da81601754610a72565b6016546113e890600161256f565b6016556017546113f990600161256f565b60175560405181907f29f8474dee2f5f19ab0c7b6f5136824047cd822e5c7bb7526df99d7c9258b07590600090a25050565b611434336109f8565b6114505760405162461bcd60e51b815260040161094d90612587565b61145c84848484611b25565b50505050565b6012546114b15760405162461bcd60e51b815260206004820152601a60248201527f746869732069732074686520666972737420636f6e7472616374000000000000604482015260640161094d565b6012546000906114c290600161256f565b90506000601954826114d49190612637565b90506000816019546114e691906125f1565b905060006114f58460016125f1565b90506002611503828461256f565b61150d91906125f1565b60155550505050565b6060611521826116e4565b6000828152600660205260408120805461153a906124f5565b80601f0160208091040260200160405190810160405280929190818152602001828054611566906124f5565b80156115b35780601f10611588576101008083540402835291602001916115b3565b820191906000526020600020905b81548152906001019060200180831161159657829003601f168201915b5050505050905060006115d160408051602081019091526000815290565b905080516000036115e3575092915050565b8151156116155780826040516020016115fd929190612683565b60405160208183030381529060405292505050919050565b61161e84611b58565b949350505050565b6001600160a01b03166000908152601160205260409020805460ff19166001179055565b600a6020526000908152604090208054611663906124f5565b80601f016020809104026020016040519081016040528092919081815260200182805461168f906124f5565b80156116dc5780601f106116b1576101008083540402835291602001916116dc565b820191906000526020600020905b8154815290600101906020018083116116bf57829003601f168201915b505050505081565b6000818152600260205260409020546001600160a01b03166117435760405162461bcd60e51b8152602060048201526018602482015277115490cdcc8c4e881a5b9d985b1a59081d1bdad95b88125160421b604482015260640161094d565b50565b600081815260046020526040902080546001600160a01b0319166001600160a01b038416908117909155819061177b82610e81565b6001600160a01b03167f8c5be1e5ebec7d5bd14f71427d1e84f3dd0314c0f7b2291e5b200ac8c7c3b92560405160405180910390a45050565b6000806117c083610e81565b9050806001600160a01b0316846001600160a01b0316148061180757506001600160a01b0380821660009081526005602090815260408083209388168352929052205460ff165b8061161e5750836001600160a01b0316611820846108b2565b6001600160a01b031614949350505050565b6000828152600260205260409020546001600160a01b03166118ad5760405162461bcd60e51b815260206004820152602e60248201527f45524337323155524953746f726167653a2055524920736574206f66206e6f6e60448201526d32bc34b9ba32b73a103a37b5b2b760911b606482015260840161094d565b600082815260066020908152604090912082516109ee9284019061208c565b610a6e828260405180602001604052806000815250611bcc565b826001600160a01b03166118f982610e81565b6001600160a01b03161461191f5760405162461bcd60e51b815260040161094d906126b2565b6001600160a01b0382166119815760405162461bcd60e51b8152602060048201526024808201527f4552433732313a207472616e7366657220746f20746865207a65726f206164646044820152637265737360e01b606482015260840161094d565b61198e8383836001611bff565b826001600160a01b03166119a182610e81565b6001600160a01b0316146119c75760405162461bcd60e51b815260040161094d906126b2565b600081815260046020908152604080832080546001600160a01b03199081169091556001600160a01b0387811680865260038552838620805460001901905590871680865283862080546001019055868652600290945282852080549092168417909155905184937fddf252ad1be2c89b69c2b068fc378daa952ba7f163c4a11628f55a4df523b3ef91a4505050565b816001600160a01b0316836001600160a01b031603611ab85760405162461bcd60e51b815260206004820152601960248201527f4552433732313a20617070726f766520746f2063616c6c657200000000000000604482015260640161094d565b6001600160a01b03838116600081815260056020908152604080832094871680845294825291829020805460ff191686151590811790915591519182527f17307eab39ab6107e8899845ad3d59bd9653f200f220920489ca2b5937696c31910160405180910390a3505050565b611b308484846118e6565b611b3c84848484611c87565b61145c5760405162461bcd60e51b815260040161094d906126f7565b6060611b63826116e4565b6000611b7a60408051602081019091526000815290565b90506000815111611b9a5760405180602001604052806000815250611bc5565b80611ba484611d88565b604051602001611bb5929190612683565b6040516020818303038152906040525b9392505050565b611bd68383611e1b565b611be36000848484611c87565b6109ee5760405162461bcd60e51b815260040161094d906126f7565b600181111561145c576001600160a01b03841615611c45576001600160a01b03841660009081526003602052604081208054839290611c3f90849061266c565b90915550505b6001600160a01b0383161561145c576001600160a01b03831660009081526003602052604081208054839290611c7c90849061256f565b909155505050505050565b60006001600160a01b0384163b15611d7d57604051630a85bd0160e11b81526001600160a01b0385169063150b7a0290611ccb903390899088908890600401612749565b6020604051808303816000875af1925050508015611d06575060408051601f3d908101601f19168201909252611d0391810190612786565b60015b611d63573d808015611d34576040519150601f19603f3d011682016040523d82523d6000602084013e611d39565b606091505b508051600003611d5b5760405162461bcd60e51b815260040161094d906126f7565b805181602001fd5b6001600160e01b031916630a85bd0160e11b14905061161e565b506001949350505050565b60606000611d9583611fb4565b600101905060008167ffffffffffffffff811115611db557611db561223d565b6040519080825280601f01601f191660200182016040528015611ddf576020820181803683370190505b5090508181016020015b600019016f181899199a1a9b1b9c1cb0b131b232b360811b600a86061a8153600a8504945084611de957509392505050565b6001600160a01b038216611e715760405162461bcd60e51b815260206004820181905260248201527f4552433732313a206d696e7420746f20746865207a65726f2061646472657373604482015260640161094d565b6000818152600260205260409020546001600160a01b031615611ed65760405162461bcd60e51b815260206004820152601c60248201527f4552433732313a20746f6b656e20616c7265616479206d696e74656400000000604482015260640161094d565b611ee4600083836001611bff565b6000818152600260205260409020546001600160a01b031615611f495760405162461bcd60e51b815260206004820152601c60248201527f4552433732313a20746f6b656e20616c7265616479206d696e74656400000000604482015260640161094d565b6001600160a01b038216600081815260036020908152604080832080546001019055848352600290915280822080546001600160a01b0319168417905551839291907fddf252ad1be2c89b69c2b068fc378daa952ba7f163c4a11628f55a4df523b3ef908290a45050565b60008072184f03e93ff9f4daa797ed6e38ed64bf6a1f0160401b8310611ff35772184f03e93ff9f4daa797ed6e38ed64bf6a1f0160401b830492506040015b6d04ee2d6d415b85acef8100000000831061201f576d04ee2d6d415b85acef8100000000830492506020015b662386f26fc10000831061203d57662386f26fc10000830492506010015b6305f5e1008310612055576305f5e100830492506008015b612710831061206957612710830492506004015b6064831061207b576064830492506002015b600a831061081a5760010192915050565b828054612098906124f5565b90600052602060002090601f0160209004810192826120ba5760008555612100565b82601f106120d357805160ff1916838001178555612100565b82800160010185558215612100579182015b828111156121005782518255916020019190600101906120e5565b5061210c929150612110565b5090565b5b8082111561210c5760008155600101612111565b6001600160e01b03198116811461174357600080fd5b60006020828403121561214d57600080fd5b8135611bc581612125565b60005b8381101561217357818101518382015260200161215b565b8381111561145c5750506000910152565b6000815180845261219c816020860160208601612158565b601f01601f19169290920160200192915050565b602081526000611bc56020830184612184565b6000602082840312156121d557600080fd5b5035919050565b80356001600160a01b03811681146121f357600080fd5b919050565b6000806040838503121561220b57600080fd5b612214836121dc565b946020939093013593505050565b60006020828403121561223457600080fd5b611bc5826121dc565b634e487b7160e01b600052604160045260246000fd5b600067ffffffffffffffff8084111561226e5761226e61223d565b604051601f8501601f19908116603f011681019082821181831017156122965761229661223d565b816040528093508581528686860111156122af57600080fd5b858560208301376000602087830101525050509392505050565b600082601f8301126122da57600080fd5b611bc583833560208501612253565b600080604083850312156122fc57600080fd5b82359150602083013567ffffffffffffffff81111561231a57600080fd5b612326858286016122c9565b9150509250929050565b6000806040838503121561234357600080fd5b50508035926020909101359150565b60008060006060848603121561236757600080fd5b612370846121dc565b925061237e602085016121dc565b9150604084013590509250925092565b801515811461174357600080fd5b600080604083850312156123af57600080fd5b6123b8836121dc565b915060208301356123c88161238e565b809150509250929050565b6000602082840312156123e557600080fd5b813567ffffffffffffffff8111156123fc57600080fd5b61161e848285016122c9565b6000806000806080858703121561241e57600080fd5b612427856121dc565b9350612435602086016121dc565b925060408501359150606085013567ffffffffffffffff81111561245857600080fd5b8501601f8101871361246957600080fd5b61247887823560208401612253565b91505092959194509250565b634e487b7160e01b600052602160045260246000fd5b60208101600183106124bc57634e487b7160e01b600052602160045260246000fd5b91905290565b600080604083850312156124d557600080fd5b6124de836121dc565b91506124ec602084016121dc565b90509250929050565b600181811c9082168061250957607f821691505b60208210810361252957634e487b7160e01b600052602260045260246000fd5b50919050565b634e487b7160e01b600052601260045260246000fd5b6000826125545761255461252f565b500690565b634e487b7160e01b600052601160045260246000fd5b6000821982111561258257612582612559565b500190565b6020808252602d908201527f4552433732313a2063616c6c6572206973206e6f7420746f6b656e206f776e6560408201526c1c881bdc88185c1c1c9bdd9959609a1b606082015260800190565b6000602082840312156125e657600080fd5b8151611bc58161238e565b6000826126005761260061252f565b500490565b60006001820161261757612617612559565b5060010190565b60006020828403121561263057600080fd5b5051919050565b600081600019048311821515161561265157612651612559565b500290565b634e487b7160e01b600052603260045260246000fd5b60008282101561267e5761267e612559565b500390565b60008351612695818460208801612158565b8351908301906126a9818360208801612158565b01949350505050565b60208082526025908201527f4552433732313a207472616e736665722066726f6d20696e636f72726563742060408201526437bbb732b960d91b606082015260800190565b60208082526032908201527f4552433732313a207472616e7366657220746f206e6f6e20455243373231526560408201527131b2b4bb32b91034b6b83632b6b2b73a32b960711b606082015260800190565b6001600160a01b038581168252841660208201526040810183905260806060820181905260009061277c90830184612184565b9695505050505050565b60006020828403121561279857600080fd5b8151611bc58161212556fea2646970667358221220ba06c82bbe958eef41373f22223e56fc75e2653b5ceaed27c401f89c6a4039a564736f6c634300080e0033","bytecodeSha1":"1d963e39705b43c852e3125f9aaa4d2c680de60c","type":"contract","abi":[{"inputs":[{"internalType":"contract IERC20","name":"erc_token_address","type":"address"},{"internalType":"contract IERC20","name":"dai_token_address","type":"address"},{"internalType":"address[]","name":"prevContracts","type":"address[]"},{"internalType":"uint256","name":"no_of_nfts","type":"uint256"}],"stateMutability":"nonpayable","type":"constructor","name":"constructor"},{"anonymous":false,"inputs":[{"indexed":true,"internalType":"address","name":"owner","type":"address"},{"indexed":true,"internalType":"address","name":"approved","type":"address"},{"indexed":true,"internalType":"uint256","name":"tokenId","type":"uint256"}],"name":"Approval","type":"event"},{"anonymous":false,"inputs":[{"indexed":true,"internalType":"address","name":"owner","type":"address"},{"indexed":true,"internalType":"address","name":"operator","type":"address"},{"indexed":false,"internalType":"bool","name":"approved","type":"bool"}],"name":"ApprovalForAll","type":"event"},{"anonymous":false,"inputs":[{"indexed":false,"internalType":"address","name":"_destAddr","type":"address"},{"indexed":false,"internalType":"uint256","name":"_amount","type":"uint256"}],"name":"CLAIM","type":"event"},{"anonymous":false,"inputs":[{"indexed":true,"internalType":"uint256","name":"requestId","type":"uint256"}],"name":"CREATE_NFT","type":"event"},{"anonymous":false,"inputs":[{"indexed":true,"internalType":"uint256","name":"requestId","type":"uint256"},{"indexed":false,"internalType":"uint256","name":"randomNumber","type":"uint256"}],"name":"MINT","type":"event"},{"anonymous":false,"inputs":[{"indexed":true,"internalType":"address","name":"from","type":"address"},{"indexed":true,"internalType":"address","name":"to","type":"address"},{"indexed":true,"internalType":"uint256","name":"tokenId","type":"uint256"}],"name":"Transfer","type":"event"},{"anonymous":false,"inputs":[{"indexed":false,"internalType":"uint256","name":"amount","type":"uint256"}],"name":"UPDATE_NFT_BALANCE","type":"event"},{"inputs":[],"name":"Admin","outputs":[{"internalType":"address","name":"","type":"address"}],"stateMutability":"view","type":"function"},{"inputs":[],"name":"RequestId","outputs":[{"internalType":"uint256","name":"","type":"uint256"}],"stateMutability":"view","type":"function"},{"inputs":[{"internalType":"address","name":"","type":"address"}],"name":"Wallets","outputs":[{"internalType":"bool","name":"","type":"bool"}],"stateMutability":"view","type":"function"},{"inputs":[],"name":"amount_to_send","outputs":[{"internalType":"uint256","name":"","type":"uint256"}],"stateMutability":"view","type":"function"},{"inputs":[{"internalType":"address","name":"to","type":"address"},{"internalType":"uint256","name":"tokenId","type":"uint256"}],"name":"approve","outputs":[],"stateMutability":"nonpayable","type":"function"},{"inputs":[{"internalType":"address","name":"rec","type":"address"},{"internalType":"uint256","name":"amount","type":"uint256"}],"name":"approve_erc_20","outputs":[],"stateMutability":"nonpayable","type":"function"},{"inputs":[{"internalType":"address","name":"owner","type":"address"}],"name":"balanceOf","outputs":[{"internalType":"uint256","name":"","type":"uint256"}],"stateMutability":"view","type":"function"},{"inputs":[],"name":"claim","outputs":[],"stateMutability":"nonpayable","type":"function"},{"inputs":[{"internalType":"string","name":"tokenURI","type":"string"}],"name":"create_nft","outputs":[],"stateMutability":"payable","type":"function"},{"inputs":[],"name":"fParticipation","outputs":[{"internalType":"uint256","name":"","type":"uint256"}],"stateMutability":"view","type":"function"},{"inputs":[{"internalType":"uint256","name":"tokenId","type":"uint256"}],"name":"getApproved","outputs":[{"internalType":"address","name":"","type":"address"}],"stateMutability":"view","type":"function"},{"inputs":[{"internalType":"address","name":"owner","type":"address"},{"internalType":"address","name":"operator","type":"address"}],"name":"isApprovedForAll","outputs":[{"internalType":"bool","name":"","type":"bool"}],"stateMutability":"view","type":"function"},{"inputs":[{"internalType":"uint256","name":"requestId","type":"uint256"},{"internalType":"uint256","name":"RandomNumber","type":"uint256"}],"name":"mint","outputs":[],"stateMutability":"nonpayable","type":"function"},{"inputs":[],"name":"name","outputs":[{"internalType":"string","name":"","type":"string"}],"stateMutability":"view","type":"function"},{"inputs":[],"name":"nft_count","outputs":[{"internalType":"uint256","name":"","type":"uint256"}],"stateMutability":"view","type":"function"},{"inputs":[{"internalType":"uint256","name":"tokenId","type":"uint256"}],"name":"ownerOf","outputs":[{"internalType":"address","name":"","type":"address"}],"stateMutability":"view","type":"function"},{"inputs":[{"internalType":"address","name":"","type":"address"}],"name":"ownerToValue","outputs":[{"internalType":"uint256","name":"","type":"uint256"}],"stateMutability":"view","type":"function"},{"inputs":[],"name":"participationCalculation","outputs":[],"stateMutability":"nonpayable","type":"function"},{"inputs":[],"name":"participationReturns","outputs":[],"stateMutability":"nonpayable","type":"function"},{"inputs":[{"internalType":"uint256","name":"","type":"uint256"}],"name":"participationValue","outputs":[{"internalType":"uint256","name":"","type":"uint256"}],"stateMutability":"view","type":"function"},{"inputs":[{"internalType":"uint256","name":"","type":"uint256"}],"name":"previousContracts","outputs":[{"internalType":"address","name":"","type":"address"}],"stateMutability":"view","type":"function"},{"inputs":[],"name":"randomNumber","outputs":[{"internalType":"uint256","name":"","type":"uint256"}],"stateMutability":"view","type":"function"},{"inputs":[{"internalType":"uint256","name":"","type":"uint256"}],"name":"requestIdToSender","outputs":[{"internalType":"address","name":"","type":"address"}],"stateMutability":"view","type":"function"},{"inputs":[{"internalType":"uint256","name":"","type":"uint256"}],"name":"requestIdToTokenId","outputs":[{"internalType":"uint256","name":"","type":"uint256"}],"stateMutability":"view","type":"function"},{"inputs":[{"internalType":"uint256","name":"","type":"uint256"}],"name":"requestIdToTokenURI","outputs":[{"internalType":"string","name":"","type":"string"}],"stateMutability":"view","type":"function"},{"inputs":[{"internalType":"address","name":"from","type":"address"},{"internalType":"address","name":"to","type":"address"},{"internalType":"uint256","name":"tokenId","type":"uint256"}],"name":"safeTransferFrom","outputs":[],"stateMutability":"nonpayable","type":"function"},{"inputs":[{"internalType":"address","name":"from","type":"address"},{"internalType":"address","name":"to","type":"address"},{"internalType":"uint256","name":"tokenId","type":"uint256"},{"internalType":"bytes","name":"data","type":"bytes"}],"name":"safeTransferFrom","outputs":[],"stateMutability":"nonpayable","type":"function"},{"inputs":[{"internalType":"address","name":"operator","type":"address"},{"internalType":"bool","name":"approved","type":"bool"}],"name":"setApprovalForAll","outputs":[],"stateMutability":"nonpayable","type":"function"},{"inputs":[{"internalType":"uint256","name":"tokenId","type":"uint256"},{"internalType":"string","name":"_tokenURI","type":"string"}],"name":"setTokenURI","outputs":[],"stateMutability":"nonpayable","type":"function"},{"inputs":[{"internalType":"address","name":"_wallet","type":"address"}],"name":"setWallet","outputs":[],"stateMutability":"nonpayable","type":"function"},{"inputs":[{"internalType":"bytes4","name":"interfaceId","type":"bytes4"}],"name":"supportsInterface","outputs":[{"internalType":"bool","name":"","type":"bool"}],"stateMutability":"view","type":"function"},{"inputs":[],"name":"symbol","outputs":[{"internalType":"string","name":"","type":"string"}],"stateMutability":"view","type":"function"},{"inputs":[],"name":"tokenCounter","outputs":[{"internalType":"uint256","name":"","type":"uint256"}],"stateMutability":"view","type":"function"},{"inputs":[],"name":"tokenId","outputs":[{"internalType":"uint256","name":"","type":"uint256"}],"stateMutability":"view","type":"function"},{"inputs":[{"internalType":"uint256","name":"","type":"uint256"}],"name":"tokenIdToBreed","outputs":[{"internalType":"enum AdvancedCollectible.Breed","name":"","type":"uint8"}],"stateMutability":"view","type":"function"},{"inputs":[{"internalType":"address","name":"","type":"address"}],"name":"tokenToOwner","outputs":[{"internalType":"uint256","name":"","type":"uint256"}],"stateMutability":"view","type":"function"},{"inputs":[{"internalType":"uint256","name":"tokenId","type":"uint256"}],"name":"tokenURI","outputs":[{"internalType":"string","name":"","type":"string"}],"stateMutability":"view","type":"function"},{"inputs":[{"internalType":"uint256","name":"","type":"uint256"}],"name":"tokenidToValue","outputs":[{"internalType":"uint256","name":"","type":"uint256"}],"stateMutability":"view","type":"function"},{"inputs":[],"name":"totalTokenTransfered","outputs":[{"internalType":"uint256","name":"","type":"uint256"}],"stateMutability":"view","type":"function"},{"inputs":[{"internalType":"address","name":"from","type":"address"},{"internalType":"address","name":"to","type":"address"},{"internalType":"uint256","name":"tokenId","type":"uint256"}],"name":"transferFrom","outputs":[],"stateMutability":"nonpayable","type":"function"},{"inputs":[{"internalType":"uint256","name":"amount","type":"uint256"}],"name":"update_nft_balance","outputs":[],"stateMutability":"nonpayable","type":"function"}],"compiler":{"version":"0.8.14+commit.80d49f37","evm_version":"istanbul","optimizer":{"enabled":true,"runs":200}},"contractName":"AdvancedCollectible","language":"Solidity","natspec":{"methods":{"approve(address,uint256)":{"details":"See {IERC721-approve}."},"balanceOf(address)":{"details":"See {IERC721-balanceOf}."},"create_nft(string)":{"notice":"Creates the nft","params":{"tokenURI":"-> the token uri of the each nft, it can be empty also"}},"getApproved(uint256)":{"details":"See {IERC721-getApproved}."},"isApprovedForAll(address,address)":{"details":"See {IERC721-isApprovedForAll}."},"mint(uint256,uint256)":{"notice":"Helper fucntion called by create_nft, calls the 'safemint fucntion'","params":{"RandomNumber":"-->  a uint256 number for each of the nft","requestId":"-->a uint256 number unique for each nft"}},"name()":{"details":"See {IERC721Metadata-name}."},"ownerOf(uint256)":{"details":"See {IERC721-ownerOf}."},"safeTransferFrom(address,address,uint256)":{"details":"See {IERC721-safeTransferFrom}."},"safeTransferFrom(address,address,uint256,bytes)":{"details":"See {IERC721-safeTransferFrom}."},"setApprovalForAll(address,bool)":{"details":"See {IERC721-setApprovalForAll}."},"setTokenURI(uint256,string)":{"notice":"Sets tokenURI for each nft minted","params":{"_tokenURI":"--> string which refers the tokenuri for the nft","tokenId":"--> a tokenId of each of the nft"}},"setWallet(address)":{"notice":"Used to set each of the user who have bought the nft","params":{"_wallet":"-> address of tge nft holder"}},"supportsInterface(bytes4)":{"details":"See {IERC165-supportsInterface}."},"symbol()":{"details":"See {IERC721Metadata-symbol}."},"tokenURI(uint256)":{"details":"See {IERC721Metadata-tokenURI}."},"transferFrom(address,address,uint256)":{"details":"See {IERC721-transferFrom}."},"update_nft_balance(uint256)":{"notice":"Divides the amount generated in each of the nft holders","params":{"amount":"--> amount generated and transfered to the contract"}},"claim()":{"notice":"NFt holder claims there drexTokens to stable coins using this function"}},"kind":"dev","version":1},"opcodes":"PUSH1 0x80 PUSH1 0x40 MSTORE PUSH1 0x4 CALLDATASIZE LT PUSH2 0x246 JUMPI PUSH1 0x0 CALLDATALOAD PUSH1 0xE0 SHR DUP1 PUSH4 0x8A774091 GT PUSH2 0x139 JUMPI DUP1 PUSH4 0xC6CE3BCD GT PUSH2 0xB6 JUMPI DUP1 PUSH4 0xDEAA59DF GT PUSH2 0x7A JUMPI DUP1 PUSH4 0xDEAA59DF EQ PUSH2 0x6E2 JUMPI DUP1 PUSH4 0xE7FEFAFE EQ PUSH2 0x702 JUMPI DUP1 PUSH4 0xE985E9C5 EQ PUSH2 0x722 JUMPI DUP1 PUSH4 0xF136D197 EQ PUSH2 0x76B JUMPI DUP1 PUSH4 0xFB96E649 EQ PUSH2 0x798 JUMPI DUP1 PUSH4 0xFF1B636D EQ PUSH2 0x7AE JUMPI PUSH1 0x0 DUP1 REVERT JUMPDEST DUP1 PUSH4 0xC6CE3BCD EQ PUSH2 0x644 JUMPI DUP1 PUSH4 0xC87B56DD EQ PUSH2 0x659 JUMPI DUP1 PUSH4 0xCBBC3C28 EQ PUSH2 0x679 JUMPI DUP1 PUSH4 0xCCBAC9F5 EQ PUSH2 0x6B6 JUMPI DUP1 PUSH4 0xD082E381 EQ PUSH2 0x6CC JUMPI PUSH1 0x0 DUP1 REVERT JUMPDEST DUP1 PUSH4 0xA22CB465 GT PUSH2 0xFD JUMPI DUP1 PUSH4 0xA22CB465 EQ PUSH2 0x5AB JUMPI DUP1 PUSH4 0xA3BAB286 EQ PUSH2 0x5CB JUMPI DUP1 PUSH4 0xAF154011 EQ PUSH2 0x5DE JUMPI DUP1 PUSH4 0xB38EB18C EQ PUSH2 0x60E JUMPI DUP1 PUSH4 0xB88D4FDE EQ PUSH2 0x624 JUMPI PUSH1 0x0 DUP1 REVERT JUMPDEST DUP1 PUSH4 0x8A774091 EQ PUSH2 0x515 JUMPI DUP1 PUSH4 0x8E2DE4D3 EQ PUSH2 0x535 JUMPI DUP1 PUSH4 0x95D89B41 EQ PUSH2 0x56B JUMPI DUP1 PUSH4 0x977284F9 EQ PUSH2 0x580 JUMPI DUP1 PUSH4 0x9A232072 EQ PUSH2 0x595 JUMPI PUSH1 0x0 DUP1 REVERT JUMPDEST DUP1 PUSH4 0x24E71743 GT PUSH2 0x1C7 JUMPI DUP1 PUSH4 0x4E71D92D GT PUSH2 0x18B JUMPI DUP1 PUSH4 0x4E71D92D EQ PUSH2 0x494 JUMPI DUP1 PUSH4 0x56CFFECB EQ PUSH2 0x4A9 JUMPI DUP1 PUSH4 0x6352211E EQ PUSH2 0x4BF JUMPI DUP1 PUSH4 0x70A08231 EQ PUSH2 0x4DF JUMPI DUP1 PUSH4 0x73B0745F EQ PUSH2 0x4FF JUMPI PUSH1 0x0 DUP1 REVERT JUMPDEST DUP1 PUSH4 0x24E71743 EQ PUSH2 0x3DA JUMPI DUP1 PUSH4 0x32F904FD EQ PUSH2 0x407 JUMPI DUP1 PUSH4 0x42842E0E EQ PUSH2 0x427 JUMPI DUP1 PUSH4 0x45AFC81F EQ PUSH2 0x447 JUMPI DUP1 PUSH4 0x4DFB4C53 EQ PUSH2 0x467 JUMPI PUSH1 0x0 DUP1 REVERT JUMPDEST DUP1 PUSH4 0x15A9F7A5 GT PUSH2 0x20E JUMPI DUP1 PUSH4 0x15A9F7A5 EQ PUSH2 0x337 JUMPI DUP1 PUSH4 0x162094C4 EQ PUSH2 0x364 JUMPI DUP1 PUSH4 0x17D70F7C EQ PUSH2 0x384 JUMPI DUP1 PUSH4 0x1B2EF1CA EQ PUSH2 0x39A JUMPI DUP1 PUSH4 0x23B872DD EQ PUSH2 0x3BA JUMPI PUSH1 0x0 DUP1 REVERT JUMPDEST DUP1 PUSH4 0x1FFC9A7 EQ PUSH2 0x24B JUMPI DUP1 PUSH4 0x6FDDE03 EQ PUSH2 0x280 JUMPI DUP1 PUSH4 0x750B163 EQ PUSH2 0x2A2 JUMPI DUP1 PUSH4 0x81812FC EQ PUSH2 0x2DD JUMPI DUP1 PUSH4 0x95EA7B3 EQ PUSH2 0x315 JUMPI JUMPDEST PUSH1 0x0 DUP1 REVERT JUMPDEST CALLVALUE DUP1 ISZERO PUSH2 0x257 JUMPI PUSH1 0x0 DUP1 REVERT JUMPDEST POP PUSH2 0x26B PUSH2 0x266 CALLDATASIZE PUSH1 0x4 PUSH2 0x213B JUMP JUMPDEST PUSH2 0x7CE JUMP JUMPDEST PUSH1 0x40 MLOAD SWAP1 ISZERO ISZERO DUP2 MSTORE PUSH1 0x20 ADD JUMPDEST PUSH1 0x40 MLOAD DUP1 SWAP2 SUB SWAP1 RETURN JUMPDEST CALLVALUE DUP1 ISZERO PUSH2 0x28C JUMPI PUSH1 0x0 DUP1 REVERT JUMPDEST POP PUSH2 0x295 PUSH2 0x820 JUMP JUMPDEST PUSH1 0x40 MLOAD PUSH2 0x277 SWAP2 SWAP1 PUSH2 0x21B0 JUMP JUMPDEST CALLVALUE DUP1 ISZERO PUSH2 0x2AE JUMPI PUSH1 0x0 DUP1 REVERT JUMPDEST POP PUSH2 0x2CF PUSH2 0x2BD CALLDATASIZE PUSH1 0x4 PUSH2 0x21C3 JUMP JUMPDEST PUSH1 0xC PUSH1 0x20 MSTORE PUSH1 0x0 SWAP1 DUP2 MSTORE PUSH1 0x40 SWAP1 KECCAK256 SLOAD DUP2 JUMP JUMPDEST PUSH1 0x40 MLOAD SWAP1 DUP2 MSTORE PUSH1 0x20 ADD PUSH2 0x277 JUMP JUMPDEST CALLVALUE DUP1 ISZERO PUSH2 0x2E9 JUMPI PUSH1 0x0 DUP1 REVERT JUMPDEST POP PUSH2 0x2FD PUSH2 0x2F8 CALLDATASIZE PUSH1 0x4 PUSH2 0x21C3 JUMP JUMPDEST PUSH2 0x8B2 JUMP JUMPDEST PUSH1 0x40 MLOAD PUSH1 0x1 PUSH1 0x1 PUSH1 0xA0 SHL SUB SWAP1 SWAP2 AND DUP2 MSTORE PUSH1 0x20 ADD PUSH2 0x277 JUMP JUMPDEST CALLVALUE DUP1 ISZERO PUSH2 0x321 JUMPI PUSH1 0x0 DUP1 REVERT JUMPDEST POP PUSH2 0x335 PUSH2 0x330 CALLDATASIZE PUSH1 0x4 PUSH2 0x21F8 JUMP JUMPDEST PUSH2 0x8D9 JUMP JUMPDEST STOP JUMPDEST CALLVALUE DUP1 ISZERO PUSH2 0x343 JUMPI PUSH1 0x0 DUP1 REVERT JUMPDEST POP PUSH2 0x2CF PUSH2 0x352 CALLDATASIZE PUSH1 0x4 PUSH2 0x2222 JUMP JUMPDEST PUSH1 0xF PUSH1 0x20 MSTORE PUSH1 0x0 SWAP1 DUP2 MSTORE PUSH1 0x40 SWAP1 KECCAK256 SLOAD DUP2 JUMP JUMPDEST CALLVALUE DUP1 ISZERO PUSH2 0x370 JUMPI PUSH1 0x0 DUP1 REVERT JUMPDEST POP PUSH2 0x335 PUSH2 0x37F CALLDATASIZE PUSH1 0x4 PUSH2 0x22E9 JUMP JUMPDEST PUSH2 0x9F3 JUMP JUMPDEST CALLVALUE DUP1 ISZERO PUSH2 0x390 JUMPI PUSH1 0x0 DUP1 REVERT JUMPDEST POP PUSH2 0x2CF PUSH1 0x1B SLOAD DUP2 JUMP JUMPDEST CALLVALUE DUP1 ISZERO PUSH2 0x3A6 JUMPI PUSH1 0x0 DUP1 REVERT JUMPDEST POP PUSH2 0x335 PUSH2 0x3B5 CALLDATASIZE PUSH1 0x4 PUSH2 0x2330 JUMP JUMPDEST PUSH2 0xA72 JUMP JUMPDEST CALLVALUE DUP1 ISZERO PUSH2 0x3C6 JUMPI PUSH1 0x0 DUP1 REVERT JUMPDEST POP PUSH2 0x335 PUSH2 0x3D5 CALLDATASIZE PUSH1 0x4 PUSH2 0x2352 JUMP JUMPDEST PUSH2 0xC15 JUMP JUMPDEST CALLVALUE DUP1 ISZERO PUSH2 0x3E6 JUMPI PUSH1 0x0 DUP1 REVERT JUMPDEST POP PUSH2 0x2CF PUSH2 0x3F5 CALLDATASIZE PUSH1 0x4 PUSH2 0x21C3 JUMP JUMPDEST PUSH1 0x10 PUSH1 0x20 MSTORE PUSH1 0x0 SWAP1 DUP2 MSTORE PUSH1 0x40 SWAP1 KECCAK256 SLOAD DUP2 JUMP JUMPDEST CALLVALUE DUP1 ISZERO PUSH2 0x413 JUMPI PUSH1 0x0 DUP1 REVERT JUMPDEST POP PUSH2 0x335 PUSH2 0x422 CALLDATASIZE PUSH1 0x4 PUSH2 0x21F8 JUMP JUMPDEST PUSH2 0xC46 JUMP JUMPDEST CALLVALUE DUP1 ISZERO PUSH2 0x433 JUMPI PUSH1 0x0 DUP1 REVERT JUMPDEST POP PUSH2 0x335 PUSH2 0x442 CALLDATASIZE PUSH1 0x4 PUSH2 0x2352 JUMP JUMPDEST PUSH2 0xCBD JUMP JUMPDEST CALLVALUE DUP1 ISZERO PUSH2 0x453 JUMPI PUSH1 0x0 DUP1 REVERT JUMPDEST POP PUSH2 0x2FD PUSH2 0x462 CALLDATASIZE PUSH1 0x4 PUSH2 0x21C3 JUMP JUMPDEST PUSH2 0xCD8 JUMP JUMPDEST CALLVALUE DUP1 ISZERO PUSH2 0x473 JUMPI PUSH1 0x0 DUP1 REVERT JUMPDEST POP PUSH2 0x2CF PUSH2 0x482 CALLDATASIZE PUSH1 0x4 PUSH2 0x2222 JUMP JUMPDEST PUSH1 0xD PUSH1 0x20 MSTORE PUSH1 0x0 SWAP1 DUP2 MSTORE PUSH1 0x40 SWAP1 KECCAK256 SLOAD DUP2 JUMP JUMPDEST CALLVALUE DUP1 ISZERO PUSH2 0x4A0 JUMPI PUSH1 0x0 DUP1 REVERT JUMPDEST POP PUSH2 0x335 PUSH2 0xD02 JUMP JUMPDEST CALLVALUE DUP1 ISZERO PUSH2 0x4B5 JUMPI PUSH1 0x0 DUP1 REVERT JUMPDEST POP PUSH2 0x2CF PUSH1 0x13 SLOAD DUP2 JUMP JUMPDEST CALLVALUE DUP1 ISZERO PUSH2 0x4CB JUMPI PUSH1 0x0 DUP1 REVERT JUMPDEST POP PUSH2 0x2FD PUSH2 0x4DA CALLDATASIZE PUSH1 0x4 PUSH2 0x21C3 JUMP JUMPDEST PUSH2 0xE81 JUMP JUMPDEST CALLVALUE DUP1 ISZERO PUSH2 0x4EB JUMPI PUSH1 0x0 DUP1 REVERT JUMPDEST POP PUSH2 0x2CF PUSH2 0x4FA CALLDATASIZE PUSH1 0x4 PUSH2 0x2222 JUMP JUMPDEST PUSH2 0xEE1 JUMP JUMPDEST CALLVALUE DUP1 ISZERO PUSH2 0x50B JUMPI PUSH1 0x0 DUP1 REVERT JUMPDEST POP PUSH2 0x2CF PUSH1 0x19 SLOAD DUP2 JUMP JUMPDEST CALLVALUE DUP1 ISZERO PUSH2 0x521 JUMPI PUSH1 0x0 DUP1 REVERT JUMPDEST POP PUSH2 0x335 PUSH2 0x530 CALLDATASIZE PUSH1 0x4 PUSH2 0x21C3 JUMP JUMPDEST PUSH2 0xF67 JUMP JUMPDEST CALLVALUE DUP1 ISZERO PUSH2 0x541 JUMPI PUSH1 0x0 DUP1 REVERT JUMPDEST POP PUSH2 0x2FD PUSH2 0x550 CALLDATASIZE PUSH1 0x4 PUSH2 0x21C3 JUMP JUMPDEST PUSH1 0x9 PUSH1 0x20 MSTORE PUSH1 0x0 SWAP1 DUP2 MSTORE PUSH1 0x40 SWAP1 KECCAK256 SLOAD PUSH1 0x1 PUSH1 0x1 PUSH1 0xA0 SHL SUB AND DUP2 JUMP JUMPDEST CALLVALUE DUP1 ISZERO PUSH2 0x577 JUMPI PUSH1 0x0 DUP1 REVERT JUMPDEST POP PUSH2 0x295 PUSH2 0xFF4 JUMP JUMPDEST CALLVALUE DUP1 ISZERO PUSH2 0x58C JUMPI PUSH1 0x0 DUP1 REVERT JUMPDEST POP PUSH2 0x335 PUSH2 0x1003 JUMP JUMPDEST CALLVALUE DUP1 ISZERO PUSH2 0x5A1 JUMPI PUSH1 0x0 DUP1 REVERT JUMPDEST POP PUSH2 0x2CF PUSH1 0x15 SLOAD DUP2 JUMP JUMPDEST CALLVALUE DUP1 ISZERO PUSH2 0x5B7 JUMPI PUSH1 0x0 DUP1 REVERT JUMPDEST POP PUSH2 0x335 PUSH2 0x5C6 CALLDATASIZE PUSH1 0x4 PUSH2 0x239C JUMP JUMPDEST PUSH2 0x1251 JUMP JUMPDEST PUSH2 0x335 PUSH2 0x5D9 CALLDATASIZE PUSH1 0x4 PUSH2 0x23D3 JUMP JUMPDEST PUSH2 0x125C JUMP JUMPDEST CALLVALUE DUP1 ISZERO PUSH2 0x5EA JUMPI PUSH1 0x0 DUP1 REVERT JUMPDEST POP PUSH2 0x26B PUSH2 0x5F9 CALLDATASIZE PUSH1 0x4 PUSH2 0x2222 JUMP JUMPDEST PUSH1 0x11 PUSH1 0x20 MSTORE PUSH1 0x0 SWAP1 DUP2 MSTORE PUSH1 0x40 SWAP1 KECCAK256 SLOAD PUSH1 0xFF AND DUP2 JUMP JUMPDEST CALLVALUE DUP1 ISZERO PUSH2 0x61A JUMPI PUSH1 0x0 DUP1 REVERT JUMPDEST POP PUSH2 0x2CF PUSH1 0x1A SLOAD DUP2 JUMP JUMPDEST CALLVALUE DUP1 ISZERO PUSH2 0x630 JUMPI PUSH1 0x0 DUP1 REVERT JUMPDEST POP PUSH2 0x335 PUSH2 0x63F CALLDATASIZE PUSH1 0x4 PUSH2 0x2408 JUMP JUMPDEST PUSH2 0x142B JUMP JUMPDEST CALLVALUE DUP1 ISZERO PUSH2 0x650 JUMPI PUSH1 0x0 DUP1 REVERT JUMPDEST POP PUSH2 0x335 PUSH2 0x1462 JUMP JUMPDEST CALLVALUE DUP1 ISZERO PUSH2 0x665 JUMPI PUSH1 0x0 DUP1 REVERT JUMPDEST POP PUSH2 0x295 PUSH2 0x674 CALLDATASIZE PUSH1 0x4 PUSH2 0x21C3 JUMP JUMPDEST PUSH2 0x1516 JUMP JUMPDEST CALLVALUE DUP1 ISZERO PUSH2 0x685 JUMPI PUSH1 0x0 DUP1 REVERT JUMPDEST POP PUSH2 0x6A9 PUSH2 0x694 CALLDATASIZE PUSH1 0x4 PUSH2 0x21C3 JUMP JUMPDEST PUSH1 0xB PUSH1 0x20 MSTORE PUSH1 0x0 SWAP1 DUP2 MSTORE PUSH1 0x40 SWAP1 KECCAK256 SLOAD PUSH1 0xFF AND DUP2 JUMP JUMPDEST PUSH1 0x40 MLOAD PUSH2 0x277 SWAP2 SWAP1 PUSH2 0x249A JUMP JUMPDEST CALLVALUE DUP1 ISZERO PUSH2 0x6C2 JUMPI PUSH1 0x0 DUP1 REVERT JUMPDEST POP PUSH2 0x2CF PUSH1 0x17 SLOAD DUP2 JUMP JUMPDEST CALLVALUE DUP1 ISZERO PUSH2 0x6D8 JUMPI PUSH1 0x0 DUP1 REVERT JUMPDEST POP PUSH2 0x2CF PUSH1 0x14 SLOAD DUP2 JUMP JUMPDEST CALLVALUE DUP1 ISZERO PUSH2 0x6EE JUMPI PUSH1 0x0 DUP1 REVERT JUMPDEST POP PUSH2 0x335 PUSH2 0x6FD CALLDATASIZE PUSH1 0x4 PUSH2 0x2222 JUMP JUMPDEST PUSH2 0x1626 JUMP JUMPDEST CALLVALUE DUP1 ISZERO PUSH2 0x70E JUMPI PUSH1 0x0 DUP1 REVERT JUMPDEST POP PUSH2 0x295 PUSH2 0x71D CALLDATASIZE PUSH1 0x4 PUSH2 0x21C3 JUMP JUMPDEST PUSH2 0x164A JUMP JUMPDEST CALLVALUE DUP1 ISZERO PUSH2 0x72E JUMPI PUSH1 0x0 DUP1 REVERT JUMPDEST POP PUSH2 0x26B PUSH2 0x73D CALLDATASIZE PUSH1 0x4 PUSH2 0x24C2 JUMP JUMPDEST PUSH1 0x1 PUSH1 0x1 PUSH1 0xA0 SHL SUB SWAP2 DUP3 AND PUSH1 0x0 SWAP1 DUP2 MSTORE PUSH1 0x5 PUSH1 0x20 SWAP1 DUP2 MSTORE PUSH1 0x40 DUP1 DUP4 KECCAK256 SWAP4 SWAP1 SWAP5 AND DUP3 MSTORE SWAP2 SWAP1 SWAP2 MSTORE KECCAK256 SLOAD PUSH1 0xFF AND SWAP1 JUMP JUMPDEST CALLVALUE DUP1 ISZERO PUSH2 0x777 JUMPI PUSH1 0x0 DUP1 REVERT JUMPDEST POP PUSH2 0x2CF PUSH2 0x786 CALLDATASIZE PUSH1 0x4 PUSH2 0x21C3 JUMP JUMPDEST PUSH1 0xE PUSH1 0x20 MSTORE PUSH1 0x0 SWAP1 DUP2 MSTORE PUSH1 0x40 SWAP1 KECCAK256 SLOAD DUP2 JUMP JUMPDEST CALLVALUE DUP1 ISZERO PUSH2 0x7A4 JUMPI PUSH1 0x0 DUP1 REVERT JUMPDEST POP PUSH2 0x2CF PUSH1 0x16 SLOAD DUP2 JUMP JUMPDEST CALLVALUE DUP1 ISZERO PUSH2 0x7BA JUMPI PUSH1 0x0 DUP1 REVERT JUMPDEST POP PUSH1 0x18 SLOAD PUSH2 0x2FD SWAP1 PUSH1 0x1 PUSH1 0x1 PUSH1 0xA0 SHL SUB AND DUP2 JUMP JUMPDEST PUSH1 0x0 PUSH1 0x1 PUSH1 0x1 PUSH1 0xE0 SHL SUB NOT DUP3 AND PUSH4 0x80AC58CD PUSH1 0xE0 SHL EQ DUP1 PUSH2 0x7FF JUMPI POP PUSH1 0x1 PUSH1 0x1 PUSH1 0xE0 SHL SUB NOT DUP3 AND PUSH4 0x5B5E139F PUSH1 0xE0 SHL EQ JUMPDEST DUP1 PUSH2 0x81A JUMPI POP PUSH4 0x1FFC9A7 PUSH1 0xE0 SHL PUSH1 0x1 PUSH1 0x1 PUSH1 0xE0 SHL SUB NOT DUP4 AND EQ JUMPDEST SWAP3 SWAP2 POP POP JUMP JUMPDEST PUSH1 0x60 PUSH1 0x0 DUP1 SLOAD PUSH2 0x82F SWAP1 PUSH2 0x24F5 JUMP JUMPDEST DUP1 PUSH1 0x1F ADD PUSH1 0x20 DUP1 SWAP2 DIV MUL PUSH1 0x20 ADD PUSH1 0x40 MLOAD SWAP1 DUP2 ADD PUSH1 0x40 MSTORE DUP1 SWAP3 SWAP2 SWAP1 DUP2 DUP2 MSTORE PUSH1 0x20 ADD DUP3 DUP1 SLOAD PUSH2 0x85B SWAP1 PUSH2 0x24F5 JUMP JUMPDEST DUP1 ISZERO PUSH2 0x8A8 JUMPI DUP1 PUSH1 0x1F LT PUSH2 0x87D JUMPI PUSH2 0x100 DUP1 DUP4 SLOAD DIV MUL DUP4 MSTORE SWAP2 PUSH1 0x20 ADD SWAP2 PUSH2 0x8A8 JUMP JUMPDEST DUP3 ADD SWAP2 SWAP1 PUSH1 0x0 MSTORE PUSH1 0x20 PUSH1 0x0 KECCAK256 SWAP1 JUMPDEST DUP2 SLOAD DUP2 MSTORE SWAP1 PUSH1 0x1 ADD SWAP1 PUSH1 0x20 ADD DUP1 DUP4 GT PUSH2 0x88B JUMPI DUP3 SWAP1 SUB PUSH1 0x1F AND DUP3 ADD SWAP2 JUMPDEST POP POP POP POP POP SWAP1 POP SWAP1 JUMP JUMPDEST PUSH1 0x0 PUSH2 0x8BD DUP3 PUSH2 0x16E4 JUMP JUMPDEST POP PUSH1 0x0 SWAP1 DUP2 MSTORE PUSH1 0x4 PUSH1 0x20 MSTORE PUSH1 0x40 SWAP1 KECCAK256 SLOAD PUSH1 0x1 PUSH1 0x1 PUSH1 0xA0 SHL SUB AND SWAP1 JUMP JUMPDEST PUSH1 0x0 PUSH2 0x8E4 DUP3 PUSH2 0xE81 JUMP JUMPDEST SWAP1 POP DUP1 PUSH1 0x1 PUSH1 0x1 PUSH1 0xA0 SHL SUB AND DUP4 PUSH1 0x1 PUSH1 0x1 PUSH1 0xA0 SHL SUB AND SUB PUSH2 0x956 JUMPI PUSH1 0x40 MLOAD PUSH3 0x461BCD PUSH1 0xE5 SHL DUP2 MSTORE PUSH1 0x20 PUSH1 0x4 DUP3 ADD MSTORE PUSH1 0x21 PUSH1 0x24 DUP3 ADD MSTORE PUSH32 0x4552433732313A20617070726F76616C20746F2063757272656E74206F776E65 PUSH1 0x44 DUP3 ADD MSTORE PUSH1 0x39 PUSH1 0xF9 SHL PUSH1 0x64 DUP3 ADD MSTORE PUSH1 0x84 ADD JUMPDEST PUSH1 0x40 MLOAD DUP1 SWAP2 SUB SWAP1 REVERT JUMPDEST CALLER PUSH1 0x1 PUSH1 0x1 PUSH1 0xA0 SHL SUB DUP3 AND EQ DUP1 PUSH2 0x972 JUMPI POP PUSH2 0x972 DUP2 CALLER PUSH2 0x73D JUMP JUMPDEST PUSH2 0x9E4 JUMPI PUSH1 0x40 MLOAD PUSH3 0x461BCD PUSH1 0xE5 SHL DUP2 MSTORE PUSH1 0x20 PUSH1 0x4 DUP3 ADD MSTORE PUSH1 0x3D PUSH1 0x24 DUP3 ADD MSTORE PUSH32 0x4552433732313A20617070726F76652063616C6C6572206973206E6F7420746F PUSH1 0x44 DUP3 ADD MSTORE PUSH32 0x6B656E206F776E6572206F7220617070726F76656420666F7220616C6C000000 PUSH1 0x64 DUP3 ADD MSTORE PUSH1 0x84 ADD PUSH2 0x94D JUMP JUMPDEST PUSH2 0x9EE DUP4 DUP4 PUSH2 0x1746 JUMP JUMPDEST POP POP POP JUMP JUMPDEST PUSH2 0x9FE CALLER JUMPDEST DUP4 PUSH2 0x17B4 JUMP JUMPDEST PUSH2 0xA64 JUMPI PUSH1 0x40 MLOAD PUSH3 0x461BCD PUSH1 0xE5 SHL DUP2 MSTORE PUSH1 0x20 PUSH1 0x4 DUP3 ADD MSTORE PUSH1 0x31 PUSH1 0x24 DUP3 ADD MSTORE PUSH32 0x4552433732313A207472616E736665722063616C6C6572206973206E6F74206F PUSH1 0x44 DUP3 ADD MSTORE PUSH17 0x1DDB995C881B9BDC88185C1C1C9BDD9959 PUSH1 0x7A SHL PUSH1 0x64 DUP3 ADD MSTORE PUSH1 0x84 ADD PUSH2 0x94D JUMP JUMPDEST PUSH2 0xA6E DUP3 DUP3 PUSH2 0x1832 JUMP JUMPDEST POP POP JUMP JUMPDEST PUSH1 0x0 DUP3 DUP2 MSTORE PUSH1 0x9 PUSH1 0x20 SWAP1 DUP2 MSTORE PUSH1 0x40 DUP1 DUP4 KECCAK256 SLOAD PUSH1 0xA SWAP1 SWAP3 MSTORE DUP3 KECCAK256 DUP1 SLOAD PUSH1 0x1 PUSH1 0x1 PUSH1 0xA0 SHL SUB SWAP1 SWAP3 AND SWAP3 SWAP2 PUSH2 0xAA3 SWAP1 PUSH2 0x24F5 JUMP JUMPDEST DUP1 PUSH1 0x1F ADD PUSH1 0x20 DUP1 SWAP2 DIV MUL PUSH1 0x20 ADD PUSH1 0x40 MLOAD SWAP1 DUP2 ADD PUSH1 0x40 MSTORE DUP1 SWAP3 SWAP2 SWAP1 DUP2 DUP2 MSTORE PUSH1 0x20 ADD DUP3 DUP1 SLOAD PUSH2 0xACF SWAP1 PUSH2 0x24F5 JUMP JUMPDEST DUP1 ISZERO PUSH2 0xB1C JUMPI DUP1 PUSH1 0x1F LT PUSH2 0xAF1 JUMPI PUSH2 0x100 DUP1 DUP4 SLOAD DIV MUL DUP4 MSTORE SWAP2 PUSH1 0x20 ADD SWAP2 PUSH2 0xB1C JUMP JUMPDEST DUP3 ADD SWAP2 SWAP1 PUSH1 0x0 MSTORE PUSH1 0x20 PUSH1 0x0 KECCAK256 SWAP1 JUMPDEST DUP2 SLOAD DUP2 MSTORE SWAP1 PUSH1 0x1 ADD SWAP1 PUSH1 0x20 ADD DUP1 DUP4 GT PUSH2 0xAFF JUMPI DUP3 SWAP1 SUB PUSH1 0x1F AND DUP3 ADD SWAP2 JUMPDEST POP POP PUSH1 0x14 SLOAD PUSH1 0x18 SLOAD SWAP5 SWAP6 POP SWAP4 PUSH2 0xB40 SWAP4 POP PUSH1 0x1 PUSH1 0x1 PUSH1 0xA0 SHL SUB AND SWAP2 POP DUP4 SWAP1 POP PUSH2 0x18CC JUMP JUMPDEST PUSH2 0xB4A DUP2 DUP4 PUSH2 0x1832 JUMP JUMPDEST PUSH2 0xB53 DUP4 PUSH2 0x1626 JUMP JUMPDEST PUSH1 0x0 PUSH2 0xB60 PUSH1 0x1 DUP7 PUSH2 0x2545 JUMP JUMPDEST DUP1 ISZERO PUSH2 0xB6E JUMPI PUSH2 0xB6E PUSH2 0x2484 JUMP JUMPDEST PUSH1 0x0 DUP4 DUP2 MSTORE PUSH1 0xB PUSH1 0x20 MSTORE PUSH1 0x40 SWAP1 KECCAK256 DUP1 SLOAD SWAP2 SWAP3 POP DUP3 SWAP2 PUSH1 0xFF NOT AND PUSH1 0x1 DUP4 DUP1 ISZERO PUSH2 0xB98 JUMPI PUSH2 0xB98 PUSH2 0x2484 JUMP JUMPDEST MUL OR SWAP1 SSTORE POP PUSH1 0x0 DUP7 DUP2 MSTORE PUSH1 0xC PUSH1 0x20 SWAP1 DUP2 MSTORE PUSH1 0x40 DUP1 DUP4 KECCAK256 DUP6 SWAP1 SSTORE PUSH1 0x1 PUSH1 0x1 PUSH1 0xA0 SHL SUB DUP8 AND DUP4 MSTORE PUSH1 0xD SWAP1 SWAP2 MSTORE SWAP1 KECCAK256 DUP3 SWAP1 SSTORE PUSH1 0x14 SLOAD PUSH2 0xBD5 SWAP1 PUSH1 0x1 PUSH2 0x256F JUMP JUMPDEST PUSH1 0x14 SSTORE PUSH1 0x40 MLOAD DUP6 DUP2 MSTORE DUP7 SWAP1 PUSH32 0xD996551A703BF267A3068BB00CE0D5967B05FBAB9B7091219D8E95226E9E0E3D SWAP1 PUSH1 0x20 ADD PUSH1 0x40 MLOAD DUP1 SWAP2 SUB SWAP1 LOG2 POP POP POP POP POP POP JUMP JUMPDEST PUSH2 0xC1F CALLER DUP3 PUSH2 0x17B4 JUMP JUMPDEST PUSH2 0xC3B JUMPI PUSH1 0x40 MLOAD PUSH3 0x461BCD PUSH1 0xE5 SHL DUP2 MSTORE PUSH1 0x4 ADD PUSH2 0x94D SWAP1 PUSH2 0x2587 JUMP JUMPDEST PUSH2 0x9EE DUP4 DUP4 DUP4 PUSH2 0x18E6 JUMP JUMPDEST PUSH1 0x7 SLOAD PUSH1 0x40 MLOAD PUSH4 0x95EA7B3 PUSH1 0xE0 SHL DUP2 MSTORE PUSH1 0x1 PUSH1 0x1 PUSH1 0xA0 SHL SUB DUP5 DUP2 AND PUSH1 0x4 DUP4 ADD MSTORE PUSH1 0x24 DUP3 ADD DUP5 SWAP1 MSTORE SWAP1 SWAP2 AND SWAP1 PUSH4 0x95EA7B3 SWAP1 PUSH1 0x44 ADD PUSH1 0x20 PUSH1 0x40 MLOAD DUP1 DUP4 SUB DUP2 PUSH1 0x0 DUP8 GAS CALL ISZERO DUP1 ISZERO PUSH2 0xC99 JUMPI RETURNDATASIZE PUSH1 0x0 DUP1 RETURNDATACOPY RETURNDATASIZE PUSH1 0x0 REVERT JUMPDEST POP POP POP POP PUSH1 0x40 MLOAD RETURNDATASIZE PUSH1 0x1F NOT PUSH1 0x1F DUP3 ADD AND DUP3 ADD DUP1 PUSH1 0x40 MSTORE POP DUP2 ADD SWAP1 PUSH2 0x9EE SWAP2 SWAP1 PUSH2 0x25D4 JUMP JUMPDEST PUSH2 0x9EE DUP4 DUP4 DUP4 PUSH1 0x40 MLOAD DUP1 PUSH1 0x20 ADD PUSH1 0x40 MSTORE DUP1 PUSH1 0x0 DUP2 MSTORE POP PUSH2 0x142B JUMP JUMPDEST PUSH1 0x12 DUP2 DUP2 SLOAD DUP2 LT PUSH2 0xCE8 JUMPI PUSH1 0x0 DUP1 REVERT JUMPDEST PUSH1 0x0 SWAP2 DUP3 MSTORE PUSH1 0x20 SWAP1 SWAP2 KECCAK256 ADD SLOAD PUSH1 0x1 PUSH1 0x1 PUSH1 0xA0 SHL SUB AND SWAP1 POP DUP2 JUMP JUMPDEST CALLER PUSH1 0x0 SWAP1 DUP2 MSTORE PUSH1 0x11 PUSH1 0x20 MSTORE PUSH1 0x40 SWAP1 KECCAK256 SLOAD PUSH1 0xFF AND ISZERO ISZERO PUSH1 0x1 EQ PUSH2 0xD5F JUMPI PUSH1 0x40 MLOAD PUSH3 0x461BCD PUSH1 0xE5 SHL DUP2 MSTORE PUSH1 0x20 PUSH1 0x4 DUP3 ADD MSTORE PUSH1 0x16 PUSH1 0x24 DUP3 ADD MSTORE PUSH22 0x1CD95B99195C88191BDB9D081A1BDB190818481B999D PUSH1 0x52 SHL PUSH1 0x44 DUP3 ADD MSTORE PUSH1 0x64 ADD PUSH2 0x94D JUMP JUMPDEST CALLER PUSH1 0x0 SWAP1 DUP2 MSTORE PUSH1 0xD PUSH1 0x20 SWAP1 DUP2 MSTORE PUSH1 0x40 DUP1 DUP4 KECCAK256 SLOAD PUSH1 0x1B DUP2 SWAP1 SSTORE DUP4 MSTORE PUSH1 0x10 SWAP1 SWAP2 MSTORE SWAP1 KECCAK256 SLOAD PUSH2 0xD94 SWAP1 PUSH8 0xDE0B6B3A7640000 SWAP1 PUSH2 0x25F1 JUMP JUMPDEST PUSH1 0x1A DUP2 SWAP1 SSTORE PUSH1 0x13 DUP1 SLOAD PUSH1 0x0 SWAP1 PUSH2 0xDAB SWAP1 DUP5 SWAP1 PUSH2 0x256F JUMP JUMPDEST SWAP1 SWAP2 SSTORE POP POP PUSH1 0x7 SLOAD PUSH1 0x1A SLOAD PUSH1 0x40 MLOAD PUSH4 0x23B872DD PUSH1 0xE0 SHL DUP2 MSTORE ADDRESS PUSH1 0x4 DUP3 ADD MSTORE CALLER PUSH1 0x24 DUP3 ADD MSTORE PUSH1 0x44 DUP2 ADD SWAP2 SWAP1 SWAP2 MSTORE PUSH1 0x1 PUSH1 0x1 PUSH1 0xA0 SHL SUB SWAP1 SWAP2 AND SWAP1 PUSH4 0x23B872DD SWAP1 PUSH1 0x64 ADD PUSH1 0x20 PUSH1 0x40 MLOAD DUP1 DUP4 SUB DUP2 PUSH1 0x0 DUP8 GAS CALL ISZERO DUP1 ISZERO PUSH2 0xE0B JUMPI RETURNDATASIZE PUSH1 0x0 DUP1 RETURNDATACOPY RETURNDATASIZE PUSH1 0x0 REVERT JUMPDEST POP POP POP POP PUSH1 0x40 MLOAD RETURNDATASIZE PUSH1 0x1F NOT PUSH1 0x1F DUP3 ADD AND DUP3 ADD DUP1 PUSH1 0x40 MSTORE POP DUP2 ADD SWAP1 PUSH2 0xE2F SWAP2 SWAP1 PUSH2 0x25D4 JUMP JUMPDEST POP PUSH1 0x1B SLOAD PUSH1 0x0 SWAP1 DUP2 MSTORE PUSH1 0x10 PUSH1 0x20 SWAP1 DUP2 MSTORE PUSH1 0x40 DUP1 DUP4 KECCAK256 SWAP3 SWAP1 SWAP3 SSTORE PUSH1 0x1A SLOAD DUP3 MLOAD CALLER DUP2 MSTORE SWAP2 DUP3 ADD MSTORE PUSH32 0xCEA16A2D83554574DEF1EDF3EC1FB53F1373F7EBB1FA98FECDAA4268588793CC SWAP2 ADD PUSH1 0x40 MLOAD DUP1 SWAP2 SUB SWAP1 LOG1 JUMP JUMPDEST PUSH1 0x0 DUP2 DUP2 MSTORE PUSH1 0x2 PUSH1 0x20 MSTORE PUSH1 0x40 DUP2 KECCAK256 SLOAD PUSH1 0x1 PUSH1 0x1 PUSH1 0xA0 SHL SUB AND DUP1 PUSH2 0x81A JUMPI PUSH1 0x40 MLOAD PUSH3 0x461BCD PUSH1 0xE5 SHL DUP2 MSTORE PUSH1 0x20 PUSH1 0x4 DUP3 ADD MSTORE PUSH1 0x18 PUSH1 0x24 DUP3 ADD MSTORE PUSH24 0x115490CDCC8C4E881A5B9D985B1A59081D1BDAD95B881251 PUSH1 0x42 SHL PUSH1 0x44 DUP3 ADD MSTORE PUSH1 0x64 ADD PUSH2 0x94D JUMP JUMPDEST PUSH1 0x0 PUSH1 0x1 PUSH1 0x1 PUSH1 0xA0 SHL SUB DUP3 AND PUSH2 0xF4B JUMPI PUSH1 0x40 MLOAD PUSH3 0x461BCD PUSH1 0xE5 SHL DUP2 MSTORE PUSH1 0x20 PUSH1 0x4 DUP3 ADD MSTORE PUSH1 0x29 PUSH1 0x24 DUP3 ADD MSTORE PUSH32 0x4552433732313A2061646472657373207A65726F206973206E6F742061207661 PUSH1 0x44 DUP3 ADD MSTORE PUSH9 0x3634B21037BBB732B9 PUSH1 0xB9 SHL PUSH1 0x64 DUP3 ADD MSTORE PUSH1 0x84 ADD PUSH2 0x94D JUMP JUMPDEST POP PUSH1 0x1 PUSH1 0x1 PUSH1 0xA0 SHL SUB AND PUSH1 0x0 SWAP1 DUP2 MSTORE PUSH1 0x3 PUSH1 0x20 MSTORE PUSH1 0x40 SWAP1 KECCAK256 SLOAD SWAP1 JUMP JUMPDEST PUSH1 0x0 PUSH1 0x19 SLOAD DUP3 PUSH2 0xF77 SWAP2 SWAP1 PUSH2 0x25F1 JUMP JUMPDEST SWAP1 POP PUSH1 0x0 JUMPDEST PUSH1 0x19 SLOAD DUP2 LT ISZERO PUSH2 0xFBC JUMPI PUSH1 0x0 DUP2 DUP2 MSTORE PUSH1 0x10 PUSH1 0x20 MSTORE PUSH1 0x40 DUP2 KECCAK256 DUP1 SLOAD DUP5 SWAP3 SWAP1 PUSH2 0xFA4 SWAP1 DUP5 SWAP1 PUSH2 0x256F JUMP JUMPDEST SWAP1 SWAP2 SSTORE POP DUP2 SWAP1 POP PUSH2 0xFB4 DUP2 PUSH2 0x2605 JUMP JUMPDEST SWAP2 POP POP PUSH2 0xF7C JUMP JUMPDEST POP PUSH1 0x40 MLOAD DUP3 DUP2 MSTORE PUSH32 0x22712B798AE7934EC355D80DA68E214E1ADA67AA7C0AB551450DFFEB27F10D2E SWAP1 PUSH1 0x20 ADD PUSH1 0x40 MLOAD DUP1 SWAP2 SUB SWAP1 LOG1 POP POP JUMP JUMPDEST PUSH1 0x60 PUSH1 0x1 DUP1 SLOAD PUSH2 0x82F SWAP1 PUSH2 0x24F5 JUMP JUMPDEST PUSH1 0x7 SLOAD PUSH1 0x40 MLOAD PUSH4 0x70A08231 PUSH1 0xE0 SHL DUP2 MSTORE ADDRESS PUSH1 0x4 DUP3 ADD MSTORE PUSH1 0x0 SWAP2 PUSH1 0x1 PUSH1 0x1 PUSH1 0xA0 SHL SUB AND SWAP1 PUSH4 0x70A08231 SWAP1 PUSH1 0x24 ADD PUSH1 0x20 PUSH1 0x40 MLOAD DUP1 DUP4 SUB DUP2 DUP7 GAS STATICCALL ISZERO DUP1 ISZERO PUSH2 0x104C JUMPI RETURNDATASIZE PUSH1 0x0 DUP1 RETURNDATACOPY RETURNDATASIZE PUSH1 0x0 REVERT JUMPDEST POP POP POP POP PUSH1 0x40 MLOAD RETURNDATASIZE PUSH1 0x1F NOT PUSH1 0x1F DUP3 ADD AND DUP3 ADD DUP1 PUSH1 0x40 MSTORE POP DUP2 ADD SWAP1 PUSH2 0x1070 SWAP2 SWAP1 PUSH2 0x261E JUMP JUMPDEST PUSH1 0x7 SLOAD PUSH1 0x40 MLOAD PUSH4 0x70A08231 PUSH1 0xE0 SHL DUP2 MSTORE ADDRESS PUSH1 0x4 DUP3 ADD MSTORE SWAP2 SWAP3 POP PUSH1 0x64 SWAP2 PUSH1 0x1 PUSH1 0x1 PUSH1 0xA0 SHL SUB SWAP1 SWAP2 AND SWAP1 PUSH4 0x70A08231 SWAP1 PUSH1 0x24 ADD PUSH1 0x20 PUSH1 0x40 MLOAD DUP1 DUP4 SUB DUP2 DUP7 GAS STATICCALL ISZERO DUP1 ISZERO PUSH2 0x10BE JUMPI RETURNDATASIZE PUSH1 0x0 DUP1 RETURNDATACOPY RETURNDATASIZE PUSH1 0x0 REVERT JUMPDEST POP POP POP POP PUSH1 0x40 MLOAD RETURNDATASIZE PUSH1 0x1F NOT PUSH1 0x1F DUP3 ADD AND DUP3 ADD DUP1 PUSH1 0x40 MSTORE POP DUP2 ADD SWAP1 PUSH2 0x10E2 SWAP2 SWAP1 PUSH2 0x261E JUMP JUMPDEST GT PUSH2 0x1128 JUMPI PUSH1 0x40 MLOAD PUSH3 0x461BCD PUSH1 0xE5 SHL DUP2 MSTORE PUSH1 0x20 PUSH1 0x4 DUP3 ADD MSTORE PUSH1 0x16 PUSH1 0x24 DUP3 ADD MSTORE PUSH22 0x18985B185B98D9481B9BDD081CDD59999A58DA595B9D PUSH1 0x52 SHL PUSH1 0x44 DUP3 ADD MSTORE PUSH1 0x64 ADD PUSH2 0x94D JUMP JUMPDEST PUSH1 0x0 PUSH1 0x64 PUSH1 0x15 SLOAD DUP4 PUSH2 0x113A SWAP2 SWAP1 PUSH2 0x2637 JUMP JUMPDEST PUSH2 0x1144 SWAP2 SWAP1 PUSH2 0x25F1 JUMP JUMPDEST SWAP1 POP PUSH1 0x0 JUMPDEST PUSH1 0x12 SLOAD DUP2 LT ISZERO PUSH2 0x9EE JUMPI PUSH1 0x0 PUSH1 0x12 DUP3 DUP2 SLOAD DUP2 LT PUSH2 0x1168 JUMPI PUSH2 0x1168 PUSH2 0x2656 JUMP JUMPDEST PUSH1 0x0 SWAP2 DUP3 MSTORE PUSH1 0x20 SWAP1 SWAP2 KECCAK256 ADD SLOAD PUSH1 0x7 SLOAD PUSH1 0x40 MLOAD PUSH4 0xA9059CBB PUSH1 0xE0 SHL DUP2 MSTORE PUSH1 0x1 PUSH1 0x1 PUSH1 0xA0 SHL SUB SWAP3 DUP4 AND PUSH1 0x4 DUP3 ADD DUP2 SWAP1 MSTORE PUSH1 0x24 DUP3 ADD DUP8 SWAP1 MSTORE SWAP4 POP SWAP2 AND SWAP1 PUSH4 0xA9059CBB SWAP1 PUSH1 0x44 ADD PUSH1 0x20 PUSH1 0x40 MLOAD DUP1 DUP4 SUB DUP2 PUSH1 0x0 DUP8 GAS CALL ISZERO DUP1 ISZERO PUSH2 0x11CA JUMPI RETURNDATASIZE PUSH1 0x0 DUP1 RETURNDATACOPY RETURNDATASIZE PUSH1 0x0 REVERT JUMPDEST POP POP POP POP PUSH1 0x40 MLOAD RETURNDATASIZE PUSH1 0x1F NOT PUSH1 0x1F DUP3 ADD AND DUP3 ADD DUP1 PUSH1 0x40 MSTORE POP DUP2 ADD SWAP1 PUSH2 0x11EE SWAP2 SWAP1 PUSH2 0x25D4 JUMP JUMPDEST POP PUSH2 0x11F9 DUP4 DUP6 PUSH2 0x266C JUMP JUMPDEST PUSH1 0x40 DUP1 MLOAD PUSH1 0x1 PUSH1 0x1 PUSH1 0xA0 SHL SUB DUP5 AND DUP2 MSTORE PUSH1 0x20 DUP2 ADD DUP7 SWAP1 MSTORE SWAP2 SWAP6 POP PUSH32 0xCEA16A2D83554574DEF1EDF3EC1FB53F1373F7EBB1FA98FECDAA4268588793CC SWAP2 ADD PUSH1 0x40 MLOAD DUP1 SWAP2 SUB SWAP1 LOG1 POP DUP1 PUSH2 0x1249 DUP2 PUSH2 0x2605 JUMP JUMPDEST SWAP2 POP POP PUSH2 0x1149 JUMP JUMPDEST PUSH2 0xA6E CALLER DUP4 DUP4 PUSH2 0x1A57 JUMP JUMPDEST PUSH1 0x8 SLOAD PUSH1 0x40 MLOAD PUSH4 0x70A08231 PUSH1 0xE0 SHL DUP2 MSTORE CALLER PUSH1 0x4 DUP3 ADD MSTORE PUSH2 0xC350 SWAP2 PUSH1 0x1 PUSH1 0x1 PUSH1 0xA0 SHL SUB AND SWAP1 PUSH4 0x70A08231 SWAP1 PUSH1 0x24 ADD PUSH1 0x20 PUSH1 0x40 MLOAD DUP1 DUP4 SUB DUP2 DUP7 GAS STATICCALL ISZERO DUP1 ISZERO PUSH2 0x12A6 JUMPI RETURNDATASIZE PUSH1 0x0 DUP1 RETURNDATACOPY RETURNDATASIZE PUSH1 0x0 REVERT JUMPDEST POP POP POP POP PUSH1 0x40 MLOAD RETURNDATASIZE PUSH1 0x1F NOT PUSH1 0x1F DUP3 ADD AND DUP3 ADD DUP1 PUSH1 0x40 MSTORE POP DUP2 ADD SWAP1 PUSH2 0x12CA SWAP2 SWAP1 PUSH2 0x261E JUMP JUMPDEST GT PUSH2 0x1317 JUMPI PUSH1 0x40 MLOAD PUSH3 0x461BCD PUSH1 0xE5 SHL DUP2 MSTORE PUSH1 0x20 PUSH1 0x4 DUP3 ADD MSTORE PUSH1 0x1F PUSH1 0x24 DUP3 ADD MSTORE PUSH32 0x62616C616E6365206E6F7420656E6F7567687420746F206D696E74206E667400 PUSH1 0x44 DUP3 ADD MSTORE PUSH1 0x64 ADD PUSH2 0x94D JUMP JUMPDEST PUSH1 0x8 SLOAD PUSH1 0x40 MLOAD PUSH4 0x23B872DD PUSH1 0xE0 SHL DUP2 MSTORE CALLER PUSH1 0x4 DUP3 ADD MSTORE ADDRESS PUSH1 0x24 DUP3 ADD MSTORE PUSH2 0xC350 PUSH1 0x44 DUP3 ADD MSTORE PUSH1 0x1 PUSH1 0x1 PUSH1 0xA0 SHL SUB SWAP1 SWAP2 AND SWAP1 PUSH4 0x23B872DD SWAP1 PUSH1 0x64 ADD PUSH1 0x20 PUSH1 0x40 MLOAD DUP1 DUP4 SUB DUP2 PUSH1 0x0 DUP8 GAS CALL ISZERO DUP1 ISZERO PUSH2 0x136F JUMPI RETURNDATASIZE PUSH1 0x0 DUP1 RETURNDATACOPY RETURNDATASIZE PUSH1 0x0 REVERT JUMPDEST POP POP POP POP PUSH1 0x40 MLOAD RETURNDATASIZE PUSH1 0x1F NOT PUSH1 0x1F DUP3 ADD AND DUP3 ADD DUP1 PUSH1 0x40 MSTORE POP DUP2 ADD SWAP1 PUSH2 0x1393 SWAP2 SWAP1 PUSH2 0x25D4 JUMP JUMPDEST POP PUSH1 0x16 SLOAD PUSH1 0x0 DUP2 DUP2 MSTORE PUSH1 0x9 PUSH1 0x20 SWAP1 DUP2 MSTORE PUSH1 0x40 DUP1 DUP4 KECCAK256 DUP1 SLOAD PUSH1 0x1 PUSH1 0x1 PUSH1 0xA0 SHL SUB NOT AND CALLER OR SWAP1 SSTORE PUSH1 0xA DUP3 MSTORE SWAP1 SWAP2 KECCAK256 DUP4 MLOAD PUSH2 0x13CD SWAP3 DUP6 ADD SWAP1 PUSH2 0x208C JUMP JUMPDEST POP PUSH2 0x13DA DUP2 PUSH1 0x17 SLOAD PUSH2 0xA72 JUMP JUMPDEST PUSH1 0x16 SLOAD PUSH2 0x13E8 SWAP1 PUSH1 0x1 PUSH2 0x256F JUMP JUMPDEST PUSH1 0x16 SSTORE PUSH1 0x17 SLOAD PUSH2 0x13F9 SWAP1 PUSH1 0x1 PUSH2 0x256F JUMP JUMPDEST PUSH1 0x17 SSTORE PUSH1 0x40 MLOAD DUP2 SWAP1 PUSH32 0x29F8474DEE2F5F19AB0C7B6F5136824047CD822E5C7BB7526DF99D7C9258B075 SWAP1 PUSH1 0x0 SWAP1 LOG2 POP POP JUMP JUMPDEST PUSH2 0x1434 CALLER PUSH2 0x9F8 JUMP JUMPDEST PUSH2 0x1450 JUMPI PUSH1 0x40 MLOAD PUSH3 0x461BCD PUSH1 0xE5 SHL DUP2 MSTORE PUSH1 0x4 ADD PUSH2 0x94D SWAP1 PUSH2 0x2587 JUMP JUMPDEST PUSH2 0x145C DUP5 DUP5 DUP5 DUP5 PUSH2 0x1B25 JUMP JUMPDEST POP POP POP POP JUMP JUMPDEST PUSH1 0x12 SLOAD PUSH2 0x14B1 JUMPI PUSH1 0x40 MLOAD PUSH3 0x461BCD PUSH1 0xE5 SHL DUP2 MSTORE PUSH1 0x20 PUSH1 0x4 DUP3 ADD MSTORE PUSH1 0x1A PUSH1 0x24 DUP3 ADD MSTORE PUSH32 0x746869732069732074686520666972737420636F6E7472616374000000000000 PUSH1 0x44 DUP3 ADD MSTORE PUSH1 0x64 ADD PUSH2 0x94D JUMP JUMPDEST PUSH1 0x12 SLOAD PUSH1 0x0 SWAP1 PUSH2 0x14C2 SWAP1 PUSH1 0x1 PUSH2 0x256F JUMP JUMPDEST SWAP1 POP PUSH1 0x0 PUSH1 0x19 SLOAD DUP3 PUSH2 0x14D4 SWAP2 SWAP1 PUSH2 0x2637 JUMP JUMPDEST SWAP1 POP PUSH1 0x0 DUP2 PUSH1 0x19 SLOAD PUSH2 0x14E6 SWAP2 SWAP1 PUSH2 0x25F1 JUMP JUMPDEST SWAP1 POP PUSH1 0x0 PUSH2 0x14F5 DUP5 PUSH1 0x1 PUSH2 0x25F1 JUMP JUMPDEST SWAP1 POP PUSH1 0x2 PUSH2 0x1503 DUP3 DUP5 PUSH2 0x256F JUMP JUMPDEST PUSH2 0x150D SWAP2 SWAP1 PUSH2 0x25F1 JUMP JUMPDEST PUSH1 0x15 SSTORE POP POP POP POP JUMP JUMPDEST PUSH1 0x60 PUSH2 0x1521 DUP3 PUSH2 0x16E4 JUMP JUMPDEST PUSH1 0x0 DUP3 DUP2 MSTORE PUSH1 0x6 PUSH1 0x20 MSTORE PUSH1 0x40 DUP2 KECCAK256 DUP1 SLOAD PUSH2 0x153A SWAP1 PUSH2 0x24F5 JUMP JUMPDEST DUP1 PUSH1 0x1F ADD PUSH1 0x20 DUP1 SWAP2 DIV MUL PUSH1 0x20 ADD PUSH1 0x40 MLOAD SWAP1 DUP2 ADD PUSH1 0x40 MSTORE DUP1 SWAP3 SWAP2 SWAP1 DUP2 DUP2 MSTORE PUSH1 0x20 ADD DUP3 DUP1 SLOAD PUSH2 0x1566 SWAP1 PUSH2 0x24F5 JUMP JUMPDEST DUP1 ISZERO PUSH2 0x15B3 JUMPI DUP1 PUSH1 0x1F LT PUSH2 0x1588 JUMPI PUSH2 0x100 DUP1 DUP4 SLOAD DIV MUL DUP4 MSTORE SWAP2 PUSH1 0x20 ADD SWAP2 PUSH2 0x15B3 JUMP JUMPDEST DUP3 ADD SWAP2 SWAP1 PUSH1 0x0 MSTORE PUSH1 0x20 PUSH1 0x0 KECCAK256 SWAP1 JUMPDEST DUP2 SLOAD DUP2 MSTORE SWAP1 PUSH1 0x1 ADD SWAP1 PUSH1 0x20 ADD DUP1 DUP4 GT PUSH2 0x1596 JUMPI DUP3 SWAP1 SUB PUSH1 0x1F AND DUP3 ADD SWAP2 JUMPDEST POP POP POP POP POP SWAP1 POP PUSH1 0x0 PUSH2 0x15D1 PUSH1 0x40 DUP1 MLOAD PUSH1 0x20 DUP2 ADD SWAP1 SWAP2 MSTORE PUSH1 0x0 DUP2 MSTORE SWAP1 JUMP JUMPDEST SWAP1 POP DUP1 MLOAD PUSH1 0x0 SUB PUSH2 0x15E3 JUMPI POP SWAP3 SWAP2 POP POP JUMP JUMPDEST DUP2 MLOAD ISZERO PUSH2 0x1615 JUMPI DUP1 DUP3 PUSH1 0x40 MLOAD PUSH1 0x20 ADD PUSH2 0x15FD SWAP3 SWAP2 SWAP1 PUSH2 0x2683 JUMP JUMPDEST PUSH1 0x40 MLOAD PUSH1 0x20 DUP2 DUP4 SUB SUB DUP2 MSTORE SWAP1 PUSH1 0x40 MSTORE SWAP3 POP POP POP SWAP2 SWAP1 POP JUMP JUMPDEST PUSH2 0x161E DUP5 PUSH2 0x1B58 JUMP JUMPDEST SWAP5 SWAP4 POP POP POP POP JUMP JUMPDEST PUSH1 0x1 PUSH1 0x1 PUSH1 0xA0 SHL SUB AND PUSH1 0x0 SWAP1 DUP2 MSTORE PUSH1 0x11 PUSH1 0x20 MSTORE PUSH1 0x40 SWAP1 KECCAK256 DUP1 SLOAD PUSH1 0xFF NOT AND PUSH1 0x1 OR SWAP1 SSTORE JUMP JUMPDEST PUSH1 0xA PUSH1 0x20 MSTORE PUSH1 0x0 SWAP1 DUP2 MSTORE PUSH1 0x40 SWAP1 KECCAK256 DUP1 SLOAD PUSH2 0x1663 SWAP1 PUSH2 0x24F5 JUMP JUMPDEST DUP1 PUSH1 0x1F ADD PUSH1 0x20 DUP1 SWAP2 DIV MUL PUSH1 0x20 ADD PUSH1 0x40 MLOAD SWAP1 DUP2 ADD PUSH1 0x40 MSTORE DUP1 SWAP3 SWAP2 SWAP1 DUP2 DUP2 MSTORE PUSH1 0x20 ADD DUP3 DUP1 SLOAD PUSH2 0x168F SWAP1 PUSH2 0x24F5 JUMP JUMPDEST DUP1 ISZERO PUSH2 0x16DC JUMPI DUP1 PUSH1 0x1F LT PUSH2 0x16B1 JUMPI PUSH2 0x100 DUP1 DUP4 SLOAD DIV MUL DUP4 MSTORE SWAP2 PUSH1 0x20 ADD SWAP2 PUSH2 0x16DC JUMP JUMPDEST DUP3 ADD SWAP2 SWAP1 PUSH1 0x0 MSTORE PUSH1 0x20 PUSH1 0x0 KECCAK256 SWAP1 JUMPDEST DUP2 SLOAD DUP2 MSTORE SWAP1 PUSH1 0x1 ADD SWAP1 PUSH1 0x20 ADD DUP1 DUP4 GT PUSH2 0x16BF JUMPI DUP3 SWAP1 SUB PUSH1 0x1F AND DUP3 ADD SWAP2 JUMPDEST POP POP POP POP POP DUP2 JUMP JUMPDEST PUSH1 0x0 DUP2 DUP2 MSTORE PUSH1 0x2 PUSH1 0x20 MSTORE PUSH1 0x40 SWAP1 KECCAK256 SLOAD PUSH1 0x1 PUSH1 0x1 PUSH1 0xA0 SHL SUB AND PUSH2 0x1743 JUMPI PUSH1 0x40 MLOAD PUSH3 0x461BCD PUSH1 0xE5 SHL DUP2 MSTORE PUSH1 0x20 PUSH1 0x4 DUP3 ADD MSTORE PUSH1 0x18 PUSH1 0x24 DUP3 ADD MSTORE PUSH24 0x115490CDCC8C4E881A5B9D985B1A59081D1BDAD95B881251 PUSH1 0x42 SHL PUSH1 0x44 DUP3 ADD MSTORE PUSH1 0x64 ADD PUSH2 0x94D JUMP JUMPDEST POP JUMP JUMPDEST PUSH1 0x0 DUP2 DUP2 MSTORE PUSH1 0x4 PUSH1 0x20 MSTORE PUSH1 0x40 SWAP1 KECCAK256 DUP1 SLOAD PUSH1 0x1 PUSH1 0x1 PUSH1 0xA0 SHL SUB NOT AND PUSH1 0x1 PUSH1 0x1 PUSH1 0xA0 SHL SUB DUP5 AND SWAP1 DUP2 OR SWAP1 SWAP2 SSTORE DUP2 SWAP1 PUSH2 0x177B DUP3 PUSH2 0xE81 JUMP JUMPDEST PUSH1 0x1 PUSH1 0x1 PUSH1 0xA0 SHL SUB AND PUSH32 0x8C5BE1E5EBEC7D5BD14F71427D1E84F3DD0314C0F7B2291E5B200AC8C7C3B925 PUSH1 0x40 MLOAD PUSH1 0x40 MLOAD DUP1 SWAP2 SUB SWAP1 LOG4 POP POP JUMP JUMPDEST PUSH1 0x0 DUP1 PUSH2 0x17C0 DUP4 PUSH2 0xE81 JUMP JUMPDEST SWAP1 POP DUP1 PUSH1 0x1 PUSH1 0x1 PUSH1 0xA0 SHL SUB AND DUP5 PUSH1 0x1 PUSH1 0x1 PUSH1 0xA0 SHL SUB AND EQ DUP1 PUSH2 0x1807 JUMPI POP PUSH1 0x1 PUSH1 0x1 PUSH1 0xA0 SHL SUB DUP1 DUP3 AND PUSH1 0x0 SWAP1 DUP2 MSTORE PUSH1 0x5 PUSH1 0x20 SWAP1 DUP2 MSTORE PUSH1 0x40 DUP1 DUP4 KECCAK256 SWAP4 DUP9 AND DUP4 MSTORE SWAP3 SWAP1 MSTORE KECCAK256 SLOAD PUSH1 0xFF AND JUMPDEST DUP1 PUSH2 0x161E JUMPI POP DUP4 PUSH1 0x1 PUSH1 0x1 PUSH1 0xA0 SHL SUB AND PUSH2 0x1820 DUP5 PUSH2 0x8B2 JUMP JUMPDEST PUSH1 0x1 PUSH1 0x1 PUSH1 0xA0 SHL SUB AND EQ SWAP5 SWAP4 POP POP POP POP JUMP JUMPDEST PUSH1 0x0 DUP3 DUP2 MSTORE PUSH1 0x2 PUSH1 0x20 MSTORE PUSH1 0x40 SWAP1 KECCAK256 SLOAD PUSH1 0x1 PUSH1 0x1 PUSH1 0xA0 SHL SUB AND PUSH2 0x18AD JUMPI PUSH1 0x40 MLOAD PUSH3 0x461BCD PUSH1 0xE5 SHL DUP2 MSTORE PUSH1 0x20 PUSH1 0x4 DUP3 ADD MSTORE PUSH1 0x2E PUSH1 0x24 DUP3 ADD MSTORE PUSH32 0x45524337323155524953746F726167653A2055524920736574206F66206E6F6E PUSH1 0x44 DUP3 ADD MSTORE PUSH14 0x32BC34B9BA32B73A103A37B5B2B7 PUSH1 0x91 SHL PUSH1 0x64 DUP3 ADD MSTORE PUSH1 0x84 ADD PUSH2 0x94D JUMP JUMPDEST PUSH1 0x0 DUP3 DUP2 MSTORE PUSH1 0x6 PUSH1 0x20 SWAP1 DUP2 MSTORE PUSH1 0x40 SWAP1 SWAP2 KECCAK256 DUP3 MLOAD PUSH2 0x9EE SWAP3 DUP5 ADD SWAP1 PUSH2 0x208C JUMP JUMPDEST PUSH2 0xA6E DUP3 DUP3 PUSH1 0x40 MLOAD DUP1 PUSH1 0x20 ADD PUSH1 0x40 MSTORE DUP1 PUSH1 0x0 DUP2 MSTORE POP PUSH2 0x1BCC JUMP JUMPDEST DUP3 PUSH1 0x1 PUSH1 0x1 PUSH1 0xA0 SHL SUB AND PUSH2 0x18F9 DUP3 PUSH2 0xE81 JUMP JUMPDEST PUSH1 0x1 PUSH1 0x1 PUSH1 0xA0 SHL SUB AND EQ PUSH2 0x191F JUMPI PUSH1 0x40 MLOAD PUSH3 0x461BCD PUSH1 0xE5 SHL DUP2 MSTORE PUSH1 0x4 ADD PUSH2 0x94D SWAP1 PUSH2 0x26B2 JUMP JUMPDEST PUSH1 0x1 PUSH1 0x1 PUSH1 0xA0 SHL SUB DUP3 AND PUSH2 0x1981 JUMPI PUSH1 0x40 MLOAD PUSH3 0x461BCD PUSH1 0xE5 SHL DUP2 MSTORE PUSH1 0x20 PUSH1 0x4 DUP3 ADD MSTORE PUSH1 0x24 DUP1 DUP3 ADD MSTORE PUSH32 0x4552433732313A207472616E7366657220746F20746865207A65726F20616464 PUSH1 0x44 DUP3 ADD MSTORE PUSH4 0x72657373 PUSH1 0xE0 SHL PUSH1 0x64 DUP3 ADD MSTORE PUSH1 0x84 ADD PUSH2 0x94D JUMP JUMPDEST PUSH2 0x198E DUP4 DUP4 DUP4 PUSH1 0x1 PUSH2 0x1BFF JUMP JUMPDEST DUP3 PUSH1 0x1 PUSH1 0x1 PUSH1 0xA0 SHL SUB AND PUSH2 0x19A1 DUP3 PUSH2 0xE81 JUMP JUMPDEST PUSH1 0x1 PUSH1 0x1 PUSH1 0xA0 SHL SUB AND EQ PUSH2 0x19C7 JUMPI PUSH1 0x40 MLOAD PUSH3 0x461BCD PUSH1 0xE5 SHL DUP2 MSTORE PUSH1 0x4 ADD PUSH2 0x94D SWAP1 PUSH2 0x26B2 JUMP JUMPDEST PUSH1 0x0 DUP2 DUP2 MSTORE PUSH1 0x4 PUSH1 0x20 SWAP1 DUP2 MSTORE PUSH1 0x40 DUP1 DUP4 KECCAK256 DUP1 SLOAD PUSH1 0x1 PUSH1 0x1 PUSH1 0xA0 SHL SUB NOT SWAP1 DUP2 AND SWAP1 SWAP2 SSTORE PUSH1 0x1 PUSH1 0x1 PUSH1 0xA0 SHL SUB DUP8 DUP2 AND DUP1 DUP7 MSTORE PUSH1 0x3 DUP6 MSTORE DUP4 DUP7 KECCAK256 DUP1 SLOAD PUSH1 0x0 NOT ADD SWAP1 SSTORE SWAP1 DUP8 AND DUP1 DUP7 MSTORE DUP4 DUP7 KECCAK256 DUP1 SLOAD PUSH1 0x1 ADD SWAP1 SSTORE DUP7 DUP7 MSTORE PUSH1 0x2 SWAP1 SWAP5 MSTORE DUP3 DUP6 KECCAK256 DUP1 SLOAD SWAP1 SWAP3 AND DUP5 OR SWAP1 SWAP2 SSTORE SWAP1 MLOAD DUP5 SWAP4 PUSH32 0xDDF252AD1BE2C89B69C2B068FC378DAA952BA7F163C4A11628F55A4DF523B3EF SWAP2 LOG4 POP POP POP JUMP JUMPDEST DUP2 PUSH1 0x1 PUSH1 0x1 PUSH1 0xA0 SHL SUB AND DUP4 PUSH1 0x1 PUSH1 0x1 PUSH1 0xA0 SHL SUB AND SUB PUSH2 0x1AB8 JUMPI PUSH1 0x40 MLOAD PUSH3 0x461BCD PUSH1 0xE5 SHL DUP2 MSTORE PUSH1 0x20 PUSH1 0x4 DUP3 ADD MSTORE PUSH1 0x19 PUSH1 0x24 DUP3 ADD MSTORE PUSH32 0x4552433732313A20617070726F766520746F2063616C6C657200000000000000 PUSH1 0x44 DUP3 ADD MSTORE PUSH1 0x64 ADD PUSH2 0x94D JUMP JUMPDEST PUSH1 0x1 PUSH1 0x1 PUSH1 0xA0 SHL SUB DUP4 DUP2 AND PUSH1 0x0 DUP2 DUP2 MSTORE PUSH1 0x5 PUSH1 0x20 SWAP1 DUP2 MSTORE PUSH1 0x40 DUP1 DUP4 KECCAK256 SWAP5 DUP8 AND DUP1 DUP5 MSTORE SWAP5 DUP3 MSTORE SWAP2 DUP3 SWAP1 KECCAK256 DUP1 SLOAD PUSH1 0xFF NOT AND DUP7 ISZERO ISZERO SWAP1 DUP2 OR SWAP1 SWAP2 SSTORE SWAP2 MLOAD SWAP2 DUP3 MSTORE PUSH32 0x17307EAB39AB6107E8899845AD3D59BD9653F200F220920489CA2B5937696C31 SWAP2 ADD PUSH1 0x40 MLOAD DUP1 SWAP2 SUB SWAP1 LOG3 POP POP POP JUMP JUMPDEST PUSH2 0x1B30 DUP5 DUP5 DUP5 PUSH2 0x18E6 JUMP JUMPDEST PUSH2 0x1B3C DUP5 DUP5 DUP5 DUP5 PUSH2 0x1C87 JUMP JUMPDEST PUSH2 0x145C JUMPI PUSH1 0x40 MLOAD PUSH3 0x461BCD PUSH1 0xE5 SHL DUP2 MSTORE PUSH1 0x4 ADD PUSH2 0x94D SWAP1 PUSH2 0x26F7 JUMP JUMPDEST PUSH1 0x60 PUSH2 0x1B63 DUP3 PUSH2 0x16E4 JUMP JUMPDEST PUSH1 0x0 PUSH2 0x1B7A PUSH1 0x40 DUP1 MLOAD PUSH1 0x20 DUP2 ADD SWAP1 SWAP2 MSTORE PUSH1 0x0 DUP2 MSTORE SWAP1 JUMP JUMPDEST SWAP1 POP PUSH1 0x0 DUP2 MLOAD GT PUSH2 0x1B9A JUMPI PUSH1 0x40 MLOAD DUP1 PUSH1 0x20 ADD PUSH1 0x40 MSTORE DUP1 PUSH1 0x0 DUP2 MSTORE POP PUSH2 0x1BC5 JUMP JUMPDEST DUP1 PUSH2 0x1BA4 DUP5 PUSH2 0x1D88 JUMP JUMPDEST PUSH1 0x40 MLOAD PUSH1 0x20 ADD PUSH2 0x1BB5 SWAP3 SWAP2 SWAP1 PUSH2 0x2683 JUMP JUMPDEST PUSH1 0x40 MLOAD PUSH1 0x20 DUP2 DUP4 SUB SUB DUP2 MSTORE SWAP1 PUSH1 0x40 MSTORE JUMPDEST SWAP4 SWAP3 POP POP POP JUMP JUMPDEST PUSH2 0x1BD6 DUP4 DUP4 PUSH2 0x1E1B JUMP JUMPDEST PUSH2 0x1BE3 PUSH1 0x0 DUP5 DUP5 DUP5 PUSH2 0x1C87 JUMP JUMPDEST PUSH2 0x9EE JUMPI PUSH1 0x40 MLOAD PUSH3 0x461BCD PUSH1 0xE5 SHL DUP2 MSTORE PUSH1 0x4 ADD PUSH2 0x94D SWAP1 PUSH2 0x26F7 JUMP JUMPDEST PUSH1 0x1 DUP2 GT ISZERO PUSH2 0x145C JUMPI PUSH1 0x1 PUSH1 0x1 PUSH1 0xA0 SHL SUB DUP5 AND ISZERO PUSH2 0x1C45 JUMPI PUSH1 0x1 PUSH1 0x1 PUSH1 0xA0 SHL SUB DUP5 AND PUSH1 0x0 SWAP1 DUP2 MSTORE PUSH1 0x3 PUSH1 0x20 MSTORE PUSH1 0x40 DUP2 KECCAK256 DUP1 SLOAD DUP4 SWAP3 SWAP1 PUSH2 0x1C3F SWAP1 DUP5 SWAP1 PUSH2 0x266C JUMP JUMPDEST SWAP1 SWAP2 SSTORE POP POP JUMPDEST PUSH1 0x1 PUSH1 0x1 PUSH1 0xA0 SHL SUB DUP4 AND ISZERO PUSH2 0x145C JUMPI PUSH1 0x1 PUSH1 0x1 PUSH1 0xA0 SHL SUB DUP4 AND PUSH1 0x0 SWAP1 DUP2 MSTORE PUSH1 0x3 PUSH1 0x20 MSTORE PUSH1 0x40 DUP2 KECCAK256 DUP1 SLOAD DUP4 SWAP3 SWAP1 PUSH2 0x1C7C SWAP1 DUP5 SWAP1 PUSH2 0x256F JUMP JUMPDEST SWAP1 SWAP2 SSTORE POP POP POP POP POP POP JUMP JUMPDEST PUSH1 0x0 PUSH1 0x1 PUSH1 0x1 PUSH1 0xA0 SHL SUB DUP5 AND EXTCODESIZE ISZERO PUSH2 0x1D7D JUMPI PUSH1 0x40 MLOAD PUSH4 0xA85BD01 PUSH1 0xE1 SHL DUP2 MSTORE PUSH1 0x1 PUSH1 0x1 PUSH1 0xA0 SHL SUB DUP6 AND SWAP1 PUSH4 0x150B7A02 SWAP1 PUSH2 0x1CCB SWAP1 CALLER SWAP1 DUP10 SWAP1 DUP9 SWAP1 DUP9 SWAP1 PUSH1 0x4 ADD PUSH2 0x2749 JUMP JUMPDEST PUSH1 0x20 PUSH1 0x40 MLOAD DUP1 DUP4 SUB DUP2 PUSH1 0x0 DUP8 GAS CALL SWAP3 POP POP POP DUP1 ISZERO PUSH2 0x1D06 JUMPI POP PUSH1 0x40 DUP1 MLOAD PUSH1 0x1F RETURNDATASIZE SWAP1 DUP2 ADD PUSH1 0x1F NOT AND DUP3 ADD SWAP1 SWAP3 MSTORE PUSH2 0x1D03 SWAP2 DUP2 ADD SWAP1 PUSH2 0x2786 JUMP JUMPDEST PUSH1 0x1 JUMPDEST PUSH2 0x1D63 JUMPI RETURNDATASIZE DUP1 DUP1 ISZERO PUSH2 0x1D34 JUMPI PUSH1 0x40 MLOAD SWAP2 POP PUSH1 0x1F NOT PUSH1 0x3F RETURNDATASIZE ADD AND DUP3 ADD PUSH1 0x40 MSTORE RETURNDATASIZE DUP3 MSTORE RETURNDATASIZE PUSH1 0x0 PUSH1 0x20 DUP5 ADD RETURNDATACOPY PUSH2 0x1D39 JUMP JUMPDEST PUSH1 0x60 SWAP2 POP JUMPDEST POP DUP1 MLOAD PUSH1 0x0 SUB PUSH2 0x1D5B JUMPI PUSH1 0x40 MLOAD PUSH3 0x461BCD PUSH1 0xE5 SHL DUP2 MSTORE PUSH1 0x4 ADD PUSH2 0x94D SWAP1 PUSH2 0x26F7 JUMP JUMPDEST DUP1 MLOAD DUP2 PUSH1 0x20 ADD REVERT JUMPDEST PUSH1 0x1 PUSH1 0x1 PUSH1 0xE0 SHL SUB NOT AND PUSH4 0xA85BD01 PUSH1 0xE1 SHL EQ SWAP1 POP PUSH2 0x161E JUMP JUMPDEST POP PUSH1 0x1 SWAP5 SWAP4 POP POP POP POP JUMP JUMPDEST PUSH1 0x60 PUSH1 0x0 PUSH2 0x1D95 DUP4 PUSH2 0x1FB4 JUMP JUMPDEST PUSH1 0x1 ADD SWAP1 POP PUSH1 0x0 DUP2 PUSH8 0xFFFFFFFFFFFFFFFF DUP2 GT ISZERO PUSH2 0x1DB5 JUMPI PUSH2 0x1DB5 PUSH2 0x223D JUMP JUMPDEST PUSH1 0x40 MLOAD SWAP1 DUP1 DUP3 MSTORE DUP1 PUSH1 0x1F ADD PUSH1 0x1F NOT AND PUSH1 0x20 ADD DUP3 ADD PUSH1 0x40 MSTORE DUP1 ISZERO PUSH2 0x1DDF JUMPI PUSH1 0x20 DUP3 ADD DUP2 DUP1 CALLDATASIZE DUP4 CALLDATACOPY ADD SWAP1 POP JUMPDEST POP SWAP1 POP DUP2 DUP2 ADD PUSH1 0x20 ADD JUMPDEST PUSH1 0x0 NOT ADD PUSH16 0x181899199A1A9B1B9C1CB0B131B232B3 PUSH1 0x81 SHL PUSH1 0xA DUP7 MOD BYTE DUP2 MSTORE8 PUSH1 0xA DUP6 DIV SWAP5 POP DUP5 PUSH2 0x1DE9 JUMPI POP SWAP4 SWAP3 POP POP POP JUMP JUMPDEST PUSH1 0x1 PUSH1 0x1 PUSH1 0xA0 SHL SUB DUP3 AND PUSH2 0x1E71 JUMPI PUSH1 0x40 MLOAD PUSH3 0x461BCD PUSH1 0xE5 SHL DUP2 MSTORE PUSH1 0x20 PUSH1 0x4 DUP3 ADD DUP2 SWAP1 MSTORE PUSH1 0x24 DUP3 ADD MSTORE PUSH32 0x4552433732313A206D696E7420746F20746865207A65726F2061646472657373 PUSH1 0x44 DUP3 ADD MSTORE PUSH1 0x64 ADD PUSH2 0x94D JUMP JUMPDEST PUSH1 0x0 DUP2 DUP2 MSTORE PUSH1 0x2 PUSH1 0x20 MSTORE PUSH1 0x40 SWAP1 KECCAK256 SLOAD PUSH1 0x1 PUSH1 0x1 PUSH1 0xA0 SHL SUB AND ISZERO PUSH2 0x1ED6 JUMPI PUSH1 0x40 MLOAD PUSH3 0x461BCD PUSH1 0xE5 SHL DUP2 MSTORE PUSH1 0x20 PUSH1 0x4 DUP3 ADD MSTORE PUSH1 0x1C PUSH1 0x24 DUP3 ADD MSTORE PUSH32 0x4552433732313A20746F6B656E20616C7265616479206D696E74656400000000 PUSH1 0x44 DUP3 ADD MSTORE PUSH1 0x64 ADD PUSH2 0x94D JUMP JUMPDEST PUSH2 0x1EE4 PUSH1 0x0 DUP4 DUP4 PUSH1 0x1 PUSH2 0x1BFF JUMP JUMPDEST PUSH1 0x0 DUP2 DUP2 MSTORE PUSH1 0x2 PUSH1 0x20 MSTORE PUSH1 0x40 SWAP1 KECCAK256 SLOAD PUSH1 0x1 PUSH1 0x1 PUSH1 0xA0 SHL SUB AND ISZERO PUSH2 0x1F49 JUMPI PUSH1 0x40 MLOAD PUSH3 0x461BCD PUSH1 0xE5 SHL DUP2 MSTORE PUSH1 0x20 PUSH1 0x4 DUP3 ADD MSTORE PUSH1 0x1C PUSH1 0x24 DUP3 ADD MSTORE PUSH32 0x4552433732313A20746F6B656E20616C7265616479206D696E74656400000000 PUSH1 0x44 DUP3 ADD MSTORE PUSH1 0x64 ADD PUSH2 0x94D JUMP JUMPDEST PUSH1 0x1 PUSH1 0x1 PUSH1 0xA0 SHL SUB DUP3 AND PUSH1 0x0 DUP2 DUP2 MSTORE PUSH1 0x3 PUSH1 0x20 SWAP1 DUP2 MSTORE PUSH1 0x40 DUP1 DUP4 KECCAK256 DUP1 SLOAD PUSH1 0x1 ADD SWAP1 SSTORE DUP5 DUP4 MSTORE PUSH1 0x2 SWAP1 SWAP2 MSTORE DUP1 DUP3 KECCAK256 DUP1 SLOAD PUSH1 0x1 PUSH1 0x1 PUSH1 0xA0 SHL SUB NOT AND DUP5 OR SWAP1 SSTORE MLOAD DUP4 SWAP3 SWAP2 SWAP1 PUSH32 0xDDF252AD1BE2C89B69C2B068FC378DAA952BA7F163C4A11628F55A4DF523B3EF SWAP1 DUP3 SWAP1 LOG4 POP POP JUMP JUMPDEST PUSH1 0x0 DUP1 PUSH19 0x184F03E93FF9F4DAA797ED6E38ED64BF6A1F01 PUSH1 0x40 SHL DUP4 LT PUSH2 0x1FF3 JUMPI PUSH19 0x184F03E93FF9F4DAA797ED6E38ED64BF6A1F01 PUSH1 0x40 SHL DUP4 DIV SWAP3 POP PUSH1 0x40 ADD JUMPDEST PUSH14 0x4EE2D6D415B85ACEF8100000000 DUP4 LT PUSH2 0x201F JUMPI PUSH14 0x4EE2D6D415B85ACEF8100000000 DUP4 DIV SWAP3 POP PUSH1 0x20 ADD JUMPDEST PUSH7 0x2386F26FC10000 DUP4 LT PUSH2 0x203D JUMPI PUSH7 0x2386F26FC10000 DUP4 DIV SWAP3 POP PUSH1 0x10 ADD JUMPDEST PUSH4 0x5F5E100 DUP4 LT PUSH2 0x2055 JUMPI PUSH4 0x5F5E100 DUP4 DIV SWAP3 POP PUSH1 0x8 ADD JUMPDEST PUSH2 0x2710 DUP4 LT PUSH2 0x2069 JUMPI PUSH2 0x2710 DUP4 DIV SWAP3 POP PUSH1 0x4 ADD JUMPDEST PUSH1 0x64 DUP4 LT PUSH2 0x207B JUMPI PUSH1 0x64 DUP4 DIV SWAP3 POP PUSH1 0x2 ADD JUMPDEST PUSH1 0xA DUP4 LT PUSH2 0x81A JUMPI PUSH1 0x1 ADD SWAP3 SWAP2 POP POP JUMP JUMPDEST DUP3 DUP1 SLOAD PUSH2 0x2098 SWAP1 PUSH2 0x24F5 JUMP JUMPDEST SWAP1 PUSH1 0x0 MSTORE PUSH1 0x20 PUSH1 0x0 KECCAK256 SWAP1 PUSH1 0x1F ADD PUSH1 0x20 SWAP1 DIV DUP2 ADD SWAP3 DUP3 PUSH2 0x20BA JUMPI PUSH1 0x0 DUP6 SSTORE PUSH2 0x2100 JUMP JUMPDEST DUP3 PUSH1 0x1F LT PUSH2 0x20D3 JUMPI DUP1 MLOAD PUSH1 0xFF NOT AND DUP4 DUP1 ADD OR DUP6 SSTORE PUSH2 0x2100 JUMP JUMPDEST DUP3 DUP1 ADD PUSH1 0x1 ADD DUP6 SSTORE DUP3 ISZERO PUSH2 0x2100 JUMPI SWAP2 DUP3 ADD JUMPDEST DUP3 DUP2 GT ISZERO PUSH2 0x2100 JUMPI DUP3 MLOAD DUP3 SSTORE SWAP2 PUSH1 0x20 ADD SWAP2 SWAP1 PUSH1 0x1 ADD SWAP1 PUSH2 0x20E5 JUMP JUMPDEST POP PUSH2 0x210C SWAP3 SWAP2 POP PUSH2 0x2110 JUMP JUMPDEST POP SWAP1 JUMP JUMPDEST JUMPDEST DUP1 DUP3 GT ISZERO PUSH2 0x210C JUMPI PUSH1 0x0 DUP2 SSTORE PUSH1 0x1 ADD PUSH2 0x2111 JUMP JUMPDEST PUSH1 0x1 PUSH1 0x1 PUSH1 0xE0 SHL SUB NOT DUP2 AND DUP2 EQ PUSH2 0x1743 JUMPI PUSH1 0x0 DUP1 REVERT JUMPDEST PUSH1 0x0 PUSH1 0x20 DUP3 DUP5 SUB SLT ISZERO PUSH2 0x214D JUMPI PUSH1 0x0 DUP1 REVERT JUMPDEST DUP2 CALLDATALOAD PUSH2 0x1BC5 DUP2 PUSH2 0x2125 JUMP JUMPDEST PUSH1 0x0 JUMPDEST DUP4 DUP2 LT ISZERO PUSH2 0x2173 JUMPI DUP2 DUP2 ADD MLOAD DUP4 DUP3 ADD MSTORE PUSH1 0x20 ADD PUSH2 0x215B JUMP JUMPDEST DUP4 DUP2 GT ISZERO PUSH2 0x145C JUMPI POP POP PUSH1 0x0 SWAP2 ADD MSTORE JUMP JUMPDEST PUSH1 0x0 DUP2 MLOAD DUP1 DUP5 MSTORE PUSH2 0x219C DUP2 PUSH1 0x20 DUP7 ADD PUSH1 0x20 DUP7 ADD PUSH2 0x2158 JUMP JUMPDEST PUSH1 0x1F ADD PUSH1 0x1F NOT AND SWAP3 SWAP1 SWAP3 ADD PUSH1 0x20 ADD SWAP3 SWAP2 POP POP JUMP JUMPDEST PUSH1 0x20 DUP2 MSTORE PUSH1 0x0 PUSH2 0x1BC5 PUSH1 0x20 DUP4 ADD DUP5 PUSH2 0x2184 JUMP JUMPDEST PUSH1 0x0 PUSH1 0x20 DUP3 DUP5 SUB SLT ISZERO PUSH2 0x21D5 JUMPI PUSH1 0x0 DUP1 REVERT JUMPDEST POP CALLDATALOAD SWAP2 SWAP1 POP JUMP JUMPDEST DUP1 CALLDATALOAD PUSH1 0x1 PUSH1 0x1 PUSH1 0xA0 SHL SUB DUP2 AND DUP2 EQ PUSH2 0x21F3 JUMPI PUSH1 0x0 DUP1 REVERT JUMPDEST SWAP2 SWAP1 POP JUMP JUMPDEST PUSH1 0x0 DUP1 PUSH1 0x40 DUP4 DUP6 SUB SLT ISZERO PUSH2 0x220B JUMPI PUSH1 0x0 DUP1 REVERT JUMPDEST PUSH2 0x2214 DUP4 PUSH2 0x21DC JUMP JUMPDEST SWAP5 PUSH1 0x20 SWAP4 SWAP1 SWAP4 ADD CALLDATALOAD SWAP4 POP POP POP JUMP JUMPDEST PUSH1 0x0 PUSH1 0x20 DUP3 DUP5 SUB SLT ISZERO PUSH2 0x2234 JUMPI PUSH1 0x0 DUP1 REVERT JUMPDEST PUSH2 0x1BC5 DUP3 PUSH2 0x21DC JUMP JUMPDEST PUSH4 0x4E487B71 PUSH1 0xE0 SHL PUSH1 0x0 MSTORE PUSH1 0x41 PUSH1 0x4 MSTORE PUSH1 0x24 PUSH1 0x0 REVERT JUMPDEST PUSH1 0x0 PUSH8 0xFFFFFFFFFFFFFFFF DUP1 DUP5 GT ISZERO PUSH2 0x226E JUMPI PUSH2 0x226E PUSH2 0x223D JUMP JUMPDEST PUSH1 0x40 MLOAD PUSH1 0x1F DUP6 ADD PUSH1 0x1F NOT SWAP1 DUP2 AND PUSH1 0x3F ADD AND DUP2 ADD SWAP1 DUP3 DUP3 GT DUP2 DUP4 LT OR ISZERO PUSH2 0x2296 JUMPI PUSH2 0x2296 PUSH2 0x223D JUMP JUMPDEST DUP2 PUSH1 0x40 MSTORE DUP1 SWAP4 POP DUP6 DUP2 MSTORE DUP7 DUP7 DUP7 ADD GT ISZERO PUSH2 0x22AF JUMPI PUSH1 0x0 DUP1 REVERT JUMPDEST DUP6 DUP6 PUSH1 0x20 DUP4 ADD CALLDATACOPY PUSH1 0x0 PUSH1 0x20 DUP8 DUP4 ADD ADD MSTORE POP POP POP SWAP4 SWAP3 POP POP POP JUMP JUMPDEST PUSH1 0x0 DUP3 PUSH1 0x1F DUP4 ADD SLT PUSH2 0x22DA JUMPI PUSH1 0x0 DUP1 REVERT JUMPDEST PUSH2 0x1BC5 DUP4 DUP4 CALLDATALOAD PUSH1 0x20 DUP6 ADD PUSH2 0x2253 JUMP JUMPDEST PUSH1 0x0 DUP1 PUSH1 0x40 DUP4 DUP6 SUB SLT ISZERO PUSH2 0x22FC JUMPI PUSH1 0x0 DUP1 REVERT JUMPDEST DUP3 CALLDATALOAD SWAP2 POP PUSH1 0x20 DUP4 ADD CALLDATALOAD PUSH8 0xFFFFFFFFFFFFFFFF DUP2 GT ISZERO PUSH2 0x231A JUMPI PUSH1 0x0 DUP1 REVERT JUMPDEST PUSH2 0x2326 DUP6 DUP3 DUP7 ADD PUSH2 0x22C9 JUMP JUMPDEST SWAP2 POP POP SWAP3 POP SWAP3 SWAP1 POP JUMP JUMPDEST PUSH1 0x0 DUP1 PUSH1 0x40 DUP4 DUP6 SUB SLT ISZERO PUSH2 0x2343 JUMPI PUSH1 0x0 DUP1 REVERT JUMPDEST POP POP DUP1 CALLDATALOAD SWAP3 PUSH1 0x20 SWAP1 SWAP2 ADD CALLDATALOAD SWAP2 POP JUMP JUMPDEST PUSH1 0x0 DUP1 PUSH1 0x0 PUSH1 0x60 DUP5 DUP7 SUB SLT ISZERO PUSH2 0x2367 JUMPI PUSH1 0x0 DUP1 REVERT JUMPDEST PUSH2 0x2370 DUP5 PUSH2 0x21DC JUMP JUMPDEST SWAP3 POP PUSH2 0x237E PUSH1 0x20 DUP6 ADD PUSH2 0x21DC JUMP JUMPDEST SWAP2 POP PUSH1 0x40 DUP5 ADD CALLDATALOAD SWAP1 POP SWAP3 POP SWAP3 POP SWAP3 JUMP JUMPDEST DUP1 ISZERO ISZERO DUP2 EQ PUSH2 0x1743 JUMPI PUSH1 0x0 DUP1 REVERT JUMPDEST PUSH1 0x0 DUP1 PUSH1 0x40 DUP4 DUP6 SUB SLT ISZERO PUSH2 0x23AF JUMPI PUSH1 0x0 DUP1 REVERT JUMPDEST PUSH2 0x23B8 DUP4 PUSH2 0x21DC JUMP JUMPDEST SWAP2 POP PUSH1 0x20 DUP4 ADD CALLDATALOAD PUSH2 0x23C8 DUP2 PUSH2 0x238E JUMP JUMPDEST DUP1 SWAP2 POP POP SWAP3 POP SWAP3 SWAP1 POP JUMP JUMPDEST PUSH1 0x0 PUSH1 0x20 DUP3 DUP5 SUB SLT ISZERO PUSH2 0x23E5 JUMPI PUSH1 0x0 DUP1 REVERT JUMPDEST DUP2 CALLDATALOAD PUSH8 0xFFFFFFFFFFFFFFFF DUP2 GT ISZERO PUSH2 0x23FC JUMPI PUSH1 0x0 DUP1 REVERT JUMPDEST PUSH2 0x161E DUP5 DUP3 DUP6 ADD PUSH2 0x22C9 JUMP JUMPDEST PUSH1 0x0 DUP1 PUSH1 0x0 DUP1 PUSH1 0x80 DUP6 DUP8 SUB SLT ISZERO PUSH2 0x241E JUMPI PUSH1 0x0 DUP1 REVERT JUMPDEST PUSH2 0x2427 DUP6 PUSH2 0x21DC JUMP JUMPDEST SWAP4 POP PUSH2 0x2435 PUSH1 0x20 DUP7 ADD PUSH2 0x21DC JUMP JUMPDEST SWAP3 POP PUSH1 0x40 DUP6 ADD CALLDATALOAD SWAP2 POP PUSH1 0x60 DUP6 ADD CALLDATALOAD PUSH8 0xFFFFFFFFFFFFFFFF DUP2 GT ISZERO PUSH2 0x2458 JUMPI PUSH1 0x0 DUP1 REVERT JUMPDEST DUP6 ADD PUSH1 0x1F DUP2 ADD DUP8 SGT PUSH2 0x2469 JUMPI PUSH1 0x0 DUP1 REVERT JUMPDEST PUSH2 0x2478 DUP8 DUP3 CALLDATALOAD PUSH1 0x20 DUP5 ADD PUSH2 0x2253 JUMP JUMPDEST SWAP2 POP POP SWAP3 SWAP6 SWAP2 SWAP5 POP SWAP3 POP JUMP JUMPDEST PUSH4 0x4E487B71 PUSH1 0xE0 SHL PUSH1 0x0 MSTORE PUSH1 0x21 PUSH1 0x4 MSTORE PUSH1 0x24 PUSH1 0x0 REVERT JUMPDEST PUSH1 0x20 DUP2 ADD PUSH1 0x1 DUP4 LT PUSH2 0x24BC JUMPI PUSH4 0x4E487B71 PUSH1 0xE0 SHL PUSH1 0x0 MSTORE PUSH1 0x21 PUSH1 0x4 MSTORE PUSH1 0x24 PUSH1 0x0 REVERT JUMPDEST SWAP2 SWAP1 MSTORE SWAP1 JUMP JUMPDEST PUSH1 0x0 DUP1 PUSH1 0x40 DUP4 DUP6 SUB SLT ISZERO PUSH2 0x24D5 JUMPI PUSH1 0x0 DUP1 REVERT JUMPDEST PUSH2 0x24DE DUP4 PUSH2 0x21DC JUMP JUMPDEST SWAP2 POP PUSH2 0x24EC PUSH1 0x20 DUP5 ADD PUSH2 0x21DC JUMP JUMPDEST SWAP1 POP SWAP3 POP SWAP3 SWAP1 POP JUMP JUMPDEST PUSH1 0x1 DUP2 DUP2 SHR SWAP1 DUP3 AND DUP1 PUSH2 0x2509 JUMPI PUSH1 0x7F DUP3 AND SWAP2 POP JUMPDEST PUSH1 0x20 DUP3 LT DUP2 SUB PUSH2 0x2529 JUMPI PUSH4 0x4E487B71 PUSH1 0xE0 SHL PUSH1 0x0 MSTORE PUSH1 0x22 PUSH1 0x4 MSTORE PUSH1 0x24 PUSH1 0x0 REVERT JUMPDEST POP SWAP2 SWAP1 POP JUMP JUMPDEST PUSH4 0x4E487B71 PUSH1 0xE0 SHL PUSH1 0x0 MSTORE PUSH1 0x12 PUSH1 0x4 MSTORE PUSH1 0x24 PUSH1 0x0 REVERT JUMPDEST PUSH1 0x0 DUP3 PUSH2 0x2554 JUMPI PUSH2 0x2554 PUSH2 0x252F JUMP JUMPDEST POP MOD SWAP1 JUMP JUMPDEST PUSH4 0x4E487B71 PUSH1 0xE0 SHL PUSH1 0x0 MSTORE PUSH1 0x11 PUSH1 0x4 MSTORE PUSH1 0x24 PUSH1 0x0 REVERT JUMPDEST PUSH1 0x0 DUP3 NOT DUP3 GT ISZERO PUSH2 0x2582 JUMPI PUSH2 0x2582 PUSH2 0x2559 JUMP JUMPDEST POP ADD SWAP1 JUMP JUMPDEST PUSH1 0x20 DUP1 DUP3 MSTORE PUSH1 0x2D SWAP1 DUP3 ADD MSTORE PUSH32 0x4552433732313A2063616C6C6572206973206E6F7420746F6B656E206F776E65 PUSH1 0x40 DUP3 ADD MSTORE PUSH13 0x1C881BDC88185C1C1C9BDD9959 PUSH1 0x9A SHL PUSH1 0x60 DUP3 ADD MSTORE PUSH1 0x80 ADD SWAP1 JUMP JUMPDEST PUSH1 0x0 PUSH1 0x20 DUP3 DUP5 SUB SLT ISZERO PUSH2 0x25E6 JUMPI PUSH1 0x0 DUP1 REVERT JUMPDEST DUP2 MLOAD PUSH2 0x1BC5 DUP2 PUSH2 0x238E JUMP JUMPDEST PUSH1 0x0 DUP3 PUSH2 0x2600 JUMPI PUSH2 0x2600 PUSH2 0x252F JUMP JUMPDEST POP DIV SWAP1 JUMP JUMPDEST PUSH1 0x0 PUSH1 0x1 DUP3 ADD PUSH2 0x2617 JUMPI PUSH2 0x2617 PUSH2 0x2559 JUMP JUMPDEST POP PUSH1 0x1 ADD SWAP1 JUMP JUMPDEST PUSH1 0x0 PUSH1 0x20 DUP3 DUP5 SUB SLT ISZERO PUSH2 0x2630 JUMPI PUSH1 0x0 DUP1 REVERT JUMPDEST POP MLOAD SWAP2 SWAP1 POP JUMP JUMPDEST PUSH1 0x0 DUP2 PUSH1 0x0 NOT DIV DUP4 GT DUP3 ISZERO ISZERO AND ISZERO PUSH2 0x2651 JUMPI PUSH2 0x2651 PUSH2 0x2559 JUMP JUMPDEST POP MUL SWAP1 JUMP JUMPDEST PUSH4 0x4E487B71 PUSH1 0xE0 SHL PUSH1 0x0 MSTORE PUSH1 0x32 PUSH1 0x4 MSTORE PUSH1 0x24 PUSH1 0x0 REVERT JUMPDEST PUSH1 0x0 DUP3 DUP3 LT ISZERO PUSH2 0x267E JUMPI PUSH2 0x267E PUSH2 0x2559 JUMP JUMPDEST POP SUB SWAP1 JUMP JUMPDEST PUSH1 0x0 DUP4 MLOAD PUSH2 0x2695 DUP2 DUP5 PUSH1 0x20 DUP9 ADD PUSH2 0x2158 JUMP JUMPDEST DUP4 MLOAD SWAP1 DUP4 ADD SWAP1 PUSH2 0x26A9 DUP2 DUP4 PUSH1 0x20 DUP9 ADD PUSH2 0x2158 JUMP JUMPDEST ADD SWAP5 SWAP4 POP POP POP POP JUMP JUMPDEST PUSH1 0x20 DUP1 DUP3 MSTORE PUSH1 0x25 SWAP1 DUP3 ADD MSTORE PUSH32 0x4552433732313A207472616E736665722066726F6D20696E636F727265637420 PUSH1 0x40 DUP3 ADD MSTORE PUSH5 0x37BBB732B9 PUSH1 0xD9 SHL PUSH1 0x60 DUP3 ADD MSTORE PUSH1 0x80 ADD SWAP1 JUMP JUMPDEST PUSH1 0x20 DUP1 DUP3 MSTORE PUSH1 0x32 SWAP1 DUP3 ADD MSTORE PUSH32 0x4552433732313A207472616E7366657220746F206E6F6E204552433732315265 PUSH1 0x40 DUP3 ADD MSTORE PUSH18 0x31B2B4BB32B91034B6B83632B6B2B73A32B9 PUSH1 0x71 SHL PUSH1 0x60 DUP3 ADD MSTORE PUSH1 0x80 ADD SWAP1 JUMP JUMPDEST PUSH1 0x1 PUSH1 0x1 PUSH1 0xA0 SHL SUB DUP6 DUP2 AND DUP3 MSTORE DUP5 AND PUSH1 0x20 DUP3 ADD MSTORE PUSH1 0x40 DUP2 ADD DUP4 SWAP1 MSTORE PUSH1 0x80 PUSH1 0x60 DUP3 ADD DUP2 SWAP1 MSTORE PUSH1 0x0 SWAP1 PUSH2 0x277C SWAP1 DUP4 ADD DUP5 PUSH2 0x2184 JUMP JUMPDEST SWAP7 SWAP6 POP POP POP POP POP POP JUMP JUMPDEST PUSH1 0x0 PUSH1 0x20 DUP3 DUP5 SUB SLT ISZERO PUSH2 0x2798 JUMPI PUSH1 0x0 DUP1 REVERT JUMPDEST DUP2 MLOAD PUSH2 0x1BC5 DUP2 PUSH2 0x2125 JUMP INVALID LOG2 PUSH5 0x6970667358 0x22 SLT KECCAK256 0xBA MOD 0xC8 0x2B 0xBE SWAP6 DUP15 0xEF COINBASE CALLDATACOPY EXTCODEHASH 0x22 0x22 RETURNDATACOPY JUMP 0xFC PUSH22 0xE2653B5CEAED27C401F89C6A4039A564736F6C634300 ADDMOD 0xE STOP CALLER ","sha1":"159776d2dea30e96bbb5c90f9e6517f26c20127d","source":"// SPDX-License-Identifier: MIT\npragma solidity ^0.8.1;\nimport \"@openzeppelin/contracts/token/ERC721/extensions/ERC721URIStorage.sol\";\nimport \"@openzeppelin/contracts/token/ERC20/IERC20.sol\";\n\ninterface Nft_interface {\n    function update_nft_balance(uint256 amount) external;\n}\n\ncontract AdvancedCollectible is ERC721URIStorage {\n    enum Breed {\n        DREX1\n    }\n    // add other things\n    IERC20 private _token;\n    IERC20 private _daiTokens;\n    mapping(uint256 => address) public requestIdToSender;\n    mapping(uint256 => string) public requestIdToTokenURI;\n    mapping(uint256 => Breed) public tokenIdToBreed;\n    mapping(uint256 => uint256) public requestIdToTokenId;\n    mapping(address => uint256) public tokenToOwner;\n    mapping(uint256 => uint256) public participationValue;\n    mapping(address => uint256) public ownerToValue;\n    mapping(uint256 => uint256) public tokenidToValue;\n    mapping(address => bool) public Wallets;\n    address[] public previousContracts;\n\n    //events\n    event CREATE_NFT(uint256 indexed requestId);\n    event CLAIM(address _destAddr, uint256 _amount);\n    event UPDATE_NFT_BALANCE(uint256 amount);\n    event MINT(uint256 indexed requestId, uint256 randomNumber);\n\n    uint256 public totalTokenTransfered; //amount of drex tokens transfered till date\n    uint256 public tokenCounter;\n    uint256 public fParticipation;\n    uint256 public RequestId; //hardcoded value\n    uint256 public randomNumber; //harcoded value\n    address public Admin;\n    uint256 public nft_count;\n    uint256 public amount_to_send;\n    uint256 public tokenId;\n\n    // uint256 public curr_balance_for_each_token;\n\n    constructor(\n        IERC20 erc_token_address,\n        IERC20 dai_token_address,\n        address[] memory prevContracts,\n        uint256 no_of_nfts\n    ) public ERC721(\"DREX\", \"DRx\") {\n        Admin = msg.sender;\n        previousContracts = prevContracts;\n        _token = erc_token_address;\n        _daiTokens = dai_token_address;\n        RequestId = 1;\n        randomNumber = 10;\n        tokenCounter = 0;\n        totalTokenTransfered = 0;\n        nft_count = no_of_nfts;\n        amount_to_send = 0;\n        // curr_balance_for_each_token = 0;\n    }\n\n    /// @notice Creates the nft\n    /// @param  tokenURI -> the token uri of the each nft, it can be empty also\n    function create_nft(string memory tokenURI) public payable {\n        require(\n            _daiTokens.balanceOf(msg.sender) > 50000,\n            \"balance not enought to mint nft\"\n        );\n        _daiTokens.transferFrom(msg.sender, address(this), 50000);\n        uint256 requestId = RequestId; //requestRandomness(keyHash, fee);\n        requestIdToSender[requestId] = msg.sender;\n        requestIdToTokenURI[requestId] = tokenURI;\n        mint(requestId, randomNumber);\n        RequestId = RequestId + 1;\n        randomNumber = randomNumber + 1;\n        emit CREATE_NFT(requestId);\n    }\n\n    /// @notice Used to set each of the user who have bought the nft\n    /// @param _wallet -> address of tge nft holder\n    function setWallet(address _wallet) public {\n        Wallets[_wallet] = true;\n    }\n\n    /// @notice Helper fucntion called by create_nft, calls the 'safemint fucntion'\n    /// @param requestId -->a uint256 number unique for each nft\n    /// @param RandomNumber -->  a uint256 number for each of the nft\n    function mint(uint256 requestId, uint256 RandomNumber) public {\n        address DrexOwner = requestIdToSender[requestId];\n        string memory tokenURI = requestIdToTokenURI[requestId];\n        uint256 newItemId = tokenCounter;\n        _safeMint(Admin, newItemId);\n        _setTokenURI(newItemId, tokenURI);\n        setWallet(DrexOwner);\n        Breed breed = Breed(RandomNumber % 1);\n        tokenIdToBreed[newItemId] = breed;\n        requestIdToTokenId[requestId] = newItemId;\n\n        // bug in the tokenToowner Mapping , have to fix it\n\n        tokenToOwner[DrexOwner] = newItemId;\n        tokenCounter = tokenCounter + 1;\n        emit MINT(requestId, RandomNumber);\n    }\n\n    ///@notice Sets tokenURI for each nft minted\n    /// @param tokenId --> a tokenId of each of the nft\n    /// @param _tokenURI --> string which refers the tokenuri for the nft\n    function setTokenURI(uint256 tokenId, string memory _tokenURI) public {\n        require(\n            _isApprovedOrOwner(_msgSender(), tokenId),\n            \"ERC721: transfer caller is not owner nor approved\"\n        );\n        _setTokenURI(tokenId, _tokenURI);\n    }\n\n    //correct this functions --> find new function for each contract\n    function participationCalculation() public {\n        require(previousContracts.length > 0, \"this is the first contract\");\n\n        //needs another check to remove the first contract after 25 years or after 25 contracts have been created\n\n        uint256 totalContracts = previousContracts.length + 1;\n        uint256 totalNfts = totalContracts * nft_count; //no of nfts per collection is a variable and find a way to make it variable\n        uint256 fEmission = nft_count / totalNfts; //decide how to deal with floating points --> need to be different for each collection\n        uint256 fYear = 1 / totalContracts;\n        fParticipation = (fEmission + fYear) / 2;\n    }\n\n    function participationReturns() public {\n        uint256 erc20balance = _token.balanceOf(address(this));\n        require(\n            _token.balanceOf(address(this)) > 100,\n            \"balance not sufficient\"\n        );\n        uint256 costTosend = (erc20balance * fParticipation) / 100;\n        for (uint256 holder = 0; holder < previousContracts.length; holder++) {\n            address to = previousContracts[holder];\n            _token.transfer(to, costTosend);\n            erc20balance -= costTosend;\n            // event for transfering funds from token pool to particular contract\n            emit CLAIM(to, costTosend);\n        }\n    }\n\n    /// @notice Divides the amount generated in each of the nft holders\n    /// @param amount --> amount generated and transfered to the contract\n    function update_nft_balance(uint256 amount) external {\n        uint256 curr_balance_for_each_token = amount / (nft_count);\n        for (uint256 token_id = 0; token_id < nft_count; token_id++) {\n            tokenidToValue[token_id] += curr_balance_for_each_token;\n        }\n        emit UPDATE_NFT_BALANCE(amount);\n    }\n\n    function approve_erc_20(address rec, uint256 amount) public {\n        _token.approve(rec, amount);\n    }\n\n    /// @notice NFt holder claims there drexTokens to stable coins using this function\n    function claim() public {\n        require(Wallets[msg.sender] == true, \"sender dont hold a nft\");\n        tokenId = tokenToOwner[msg.sender];\n        amount_to_send = (tokenidToValue[tokenId]) / (10**18);\n        totalTokenTransfered += amount_to_send;\n        _token.transferFrom(address(this), msg.sender, (amount_to_send));\n        tokenidToValue[tokenId] = 0;\n        emit CLAIM(msg.sender, amount_to_send);\n    }\n}\n","sourcePath":"contracts/AdvancedCollectible.sol","deployment":{"address":"0xf769b81b0Be5Ea1941154d8774E025F1bc0a8Fb7","chainid":"1287","blockHeight":3405387}}