{"abi":[{"inputs":[{"internalType":"contract IERC20","name":"erc_token_address","type":"address"},{"internalType":"contract IERC20","name":"dai_token_address","type":"address"},{"internalType":"address[]","name":"prevContracts","type":"address[]"},{"internalType":"uint256","name":"no_of_nfts","type":"uint256"}],"stateMutability":"nonpayable","type":"constructor","name":"constructor"},{"anonymous":false,"inputs":[{"indexed":true,"internalType":"address","name":"owner","type":"address"},{"indexed":true,"internalType":"address","name":"approved","type":"address"},{"indexed":true,"internalType":"uint256","name":"tokenId","type":"uint256"}],"name":"Approval","type":"event"},{"anonymous":false,"inputs":[{"indexed":true,"internalType":"address","name":"owner","type":"address"},{"indexed":true,"internalType":"address","name":"operator","type":"address"},{"indexed":false,"internalType":"bool","name":"approved","type":"bool"}],"name":"ApprovalForAll","type":"event"},{"anonymous":false,"inputs":[{"indexed":false,"internalType":"address","name":"_destAddr","type":"address"},{"indexed":false,"internalType":"uint256","name":"_amount","type":"uint256"}],"name":"CLAIM","type":"event"},{"anonymous":false,"inputs":[{"indexed":true,"internalType":"uint256","name":"requestId","type":"uint256"}],"name":"CREATE_NFT","type":"event"},{"anonymous":false,"inputs":[{"indexed":true,"internalType":"uint256","name":"requestId","type":"uint256"},{"indexed":false,"internalType":"uint256","name":"randomNumber","type":"uint256"}],"name":"MINT","type":"event"},{"anonymous":false,"inputs":[{"indexed":true,"internalType":"address","name":"from","type":"address"},{"indexed":true,"internalType":"address","name":"to","type":"address"},{"indexed":true,"internalType":"uint256","name":"tokenId","type":"uint256"}],"name":"Transfer","type":"event"},{"anonymous":false,"inputs":[{"indexed":false,"internalType":"uint256","name":"amount","type":"uint256"}],"name":"UPDATE_NFT_BALANCE","type":"event"},{"inputs":[],"name":"Admin","outputs":[{"internalType":"address","name":"","type":"address"}],"stateMutability":"view","type":"function"},{"inputs":[],"name":"RequestId","outputs":[{"internalType":"uint256","name":"","type":"uint256"}],"stateMutability":"view","type":"function"},{"inputs":[{"internalType":"address","name":"","type":"address"}],"name":"Wallets","outputs":[{"internalType":"bool","name":"","type":"bool"}],"stateMutability":"view","type":"function"},{"inputs":[{"internalType":"address","name":"to","type":"address"},{"internalType":"uint256","name":"tokenId","type":"uint256"}],"name":"approve","outputs":[],"stateMutability":"nonpayable","type":"function"},{"inputs":[{"internalType":"address","name":"rec","type":"address"},{"internalType":"uint256","name":"amount","type":"uint256"}],"name":"approve_erc_20","outputs":[],"stateMutability":"nonpayable","type":"function"},{"inputs":[{"internalType":"address","name":"owner","type":"address"}],"name":"balanceOf","outputs":[{"internalType":"uint256","name":"","type":"uint256"}],"stateMutability":"view","type":"function"},{"inputs":[],"name":"claim","outputs":[],"stateMutability":"nonpayable","type":"function"},{"inputs":[{"internalType":"string","name":"tokenURI","type":"string"}],"name":"create_nft","outputs":[],"stateMutability":"payable","type":"function"},{"inputs":[],"name":"fParticipation","outputs":[{"internalType":"uint256","name":"","type":"uint256"}],"stateMutability":"view","type":"function"},{"inputs":[{"internalType":"uint256","name":"tokenId","type":"uint256"}],"name":"getApproved","outputs":[{"internalType":"address","name":"","type":"address"}],"stateMutability":"view","type":"function"},{"inputs":[{"internalType":"address","name":"owner","type":"address"},{"internalType":"address","name":"operator","type":"address"}],"name":"isApprovedForAll","outputs":[{"internalType":"bool","name":"","type":"bool"}],"stateMutability":"view","type":"function"},{"inputs":[{"internalType":"uint256","name":"requestId","type":"uint256"},{"internalType":"uint256","name":"RandomNumber","type":"uint256"}],"name":"mint","outputs":[],"stateMutability":"nonpayable","type":"function"},{"inputs":[],"name":"name","outputs":[{"internalType":"string","name":"","type":"string"}],"stateMutability":"view","type":"function"},{"inputs":[],"name":"nft_count","outputs":[{"internalType":"uint256","name":"","type":"uint256"}],"stateMutability":"view","type":"function"},{"inputs":[{"internalType":"uint256","name":"tokenId","type":"uint256"}],"name":"ownerOf","outputs":[{"internalType":"address","name":"","type":"address"}],"stateMutability":"view","type":"function"},{"inputs":[{"internalType":"address","name":"","type":"address"}],"name":"ownerToValue","outputs":[{"internalType":"uint256","name":"","type":"uint256"}],"stateMutability":"view","type":"function"},{"inputs":[],"name":"participationCalculation","outputs":[],"stateMutability":"nonpayable","type":"function"},{"inputs":[],"name":"participationReturns","outputs":[],"stateMutability":"nonpayable","type":"function"},{"inputs":[{"internalType":"uint256","name":"","type":"uint256"}],"name":"participationValue","outputs":[{"internalType":"uint256","name":"","type":"uint256"}],"stateMutability":"view","type":"function"},{"inputs":[{"internalType":"uint256","name":"","type":"uint256"}],"name":"previousContracts","outputs":[{"internalType":"address","name":"","type":"address"}],"stateMutability":"view","type":"function"},{"inputs":[],"name":"randomNumber","outputs":[{"internalType":"uint256","name":"","type":"uint256"}],"stateMutability":"view","type":"function"},{"inputs":[{"internalType":"uint256","name":"","type":"uint256"}],"name":"requestIdToSender","outputs":[{"internalType":"address","name":"","type":"address"}],"stateMutability":"view","type":"function"},{"inputs":[{"internalType":"uint256","name":"","type":"uint256"}],"name":"requestIdToTokenId","outputs":[{"internalType":"uint256","name":"","type":"uint256"}],"stateMutability":"view","type":"function"},{"inputs":[{"internalType":"uint256","name":"","type":"uint256"}],"name":"requestIdToTokenURI","outputs":[{"internalType":"string","name":"","type":"string"}],"stateMutability":"view","type":"function"},{"inputs":[{"internalType":"address","name":"from","type":"address"},{"internalType":"address","name":"to","type":"address"},{"internalType":"uint256","name":"tokenId","type":"uint256"}],"name":"safeTransferFrom","outputs":[],"stateMutability":"nonpayable","type":"function"},{"inputs":[{"internalType":"address","name":"from","type":"address"},{"internalType":"address","name":"to","type":"address"},{"internalType":"uint256","name":"tokenId","type":"uint256"},{"internalType":"bytes","name":"data","type":"bytes"}],"name":"safeTransferFrom","outputs":[],"stateMutability":"nonpayable","type":"function"},{"inputs":[{"internalType":"address","name":"operator","type":"address"},{"internalType":"bool","name":"approved","type":"bool"}],"name":"setApprovalForAll","outputs":[],"stateMutability":"nonpayable","type":"function"},{"inputs":[{"internalType":"uint256","name":"tokenId","type":"uint256"},{"internalType":"string","name":"_tokenURI","type":"string"}],"name":"setTokenURI","outputs":[],"stateMutability":"nonpayable","type":"function"},{"inputs":[{"internalType":"address","name":"_wallet","type":"address"}],"name":"setWallet","outputs":[],"stateMutability":"nonpayable","type":"function"},{"inputs":[{"internalType":"bytes4","name":"interfaceId","type":"bytes4"}],"name":"supportsInterface","outputs":[{"internalType":"bool","name":"","type":"bool"}],"stateMutability":"view","type":"function"},{"inputs":[],"name":"symbol","outputs":[{"internalType":"string","name":"","type":"string"}],"stateMutability":"view","type":"function"},{"inputs":[],"name":"tokenCounter","outputs":[{"internalType":"uint256","name":"","type":"uint256"}],"stateMutability":"view","type":"function"},{"inputs":[{"internalType":"uint256","name":"","type":"uint256"}],"name":"tokenIdToBreed","outputs":[{"internalType":"enum AdvancedCollectible.Breed","name":"","type":"uint8"}],"stateMutability":"view","type":"function"},{"inputs":[{"internalType":"address","name":"","type":"address"}],"name":"tokenToOwner","outputs":[{"internalType":"uint256","name":"","type":"uint256"}],"stateMutability":"view","type":"function"},{"inputs":[{"internalType":"uint256","name":"tokenId","type":"uint256"}],"name":"tokenURI","outputs":[{"internalType":"string","name":"","type":"string"}],"stateMutability":"view","type":"function"},{"inputs":[{"internalType":"uint256","name":"","type":"uint256"}],"name":"tokenidToValue","outputs":[{"internalType":"uint256","name":"","type":"uint256"}],"stateMutability":"view","type":"function"},{"inputs":[],"name":"totalTokenTransfered","outputs":[{"internalType":"uint256","name":"","type":"uint256"}],"stateMutability":"view","type":"function"},{"inputs":[{"internalType":"address","name":"from","type":"address"},{"internalType":"address","name":"to","type":"address"},{"internalType":"uint256","name":"tokenId","type":"uint256"}],"name":"transferFrom","outputs":[],"stateMutability":"nonpayable","type":"function"},{"inputs":[{"internalType":"uint256","name":"amount","type":"uint256"}],"name":"update_nft_balance","outputs":[],"stateMutability":"nonpayable","type":"function"}],"bytecode":"60806040523480156200001157600080fd5b5060405162002b1938038062002b19833981016040819052620000349162000249565b6040805180820182526004815263088a48ab60e31b602080830191825283518085019094526003845262088a4f60eb1b9084015281519192916200007b916000916200010a565b508051620000919060019060208401906200010a565b5050601880546001600160a01b03191633179055508151620000bb90601290602085019062000199565b50600780546001600160a01b039586166001600160a01b03199182161790915560088054949095169316929092179092556001601655600a60175560006014819055601355601955506200038b565b82805462000118906200034f565b90600052602060002090601f0160209004810192826200013c576000855562000187565b82601f106200015757805160ff191683800117855562000187565b8280016001018555821562000187579182015b82811115620001875782518255916020019190600101906200016a565b5062000195929150620001f1565b5090565b82805482825590600052602060002090810192821562000187579160200282015b828111156200018757825182546001600160a01b0319166001600160a01b03909116178255602090920191600190910190620001ba565b5b80821115620001955760008155600101620001f2565b6001600160a01b03811681146200021e57600080fd5b50565b634e487b7160e01b600052604160045260246000fd5b8051620002448162000208565b919050565b600080600080608085870312156200026057600080fd5b84516200026d8162000208565b80945050602080860151620002828162000208565b60408701519094506001600160401b0380821115620002a057600080fd5b818801915088601f830112620002b557600080fd5b815181811115620002ca57620002ca62000221565b8060051b604051601f19603f83011681018181108582111715620002f257620002f262000221565b60405291825284820192508381018501918b8311156200031157600080fd5b938501935b828510156200033a576200032a8562000237565b8452938501939285019262000316565b60609a909a0151989b979a5050505050505050565b600181811c908216806200036457607f821691505b6020821081036200038557634e487b7160e01b600052602260045260246000fd5b50919050565b61277e806200039b6000396000f3fe6080604052600436106102305760003560e01c80638a7740911161012e578063c87b56dd116100ab578063e7fefafe1161006f578063e7fefafe146106c0578063e985e9c5146106e0578063f136d19714610729578063fb96e64914610756578063ff1b636d1461076c57600080fd5b8063c87b56dd14610617578063cbbc3c2814610637578063ccbac9f514610674578063d082e3811461068a578063deaa59df146106a057600080fd5b8063a22cb465116100f2578063a22cb4651461057f578063a3bab2861461059f578063af154011146105b2578063b88d4fde146105e2578063c6ce3bcd1461060257600080fd5b80638a774091146104e95780638e2de4d31461050957806395d89b411461053f578063977284f9146105545780639a2320721461056957600080fd5b806324e71743116101bc5780634e71d92d116101805780634e71d92d1461046857806356cffecb1461047d5780636352211e1461049357806370a08231146104b357806373b0745f146104d357600080fd5b806324e71743146103ae57806332f904fd146103db57806342842e0e146103fb57806345afc81f1461041b5780634dfb4c531461043b57600080fd5b8063095ea7b311610203578063095ea7b3146102ff57806315a9f7a514610321578063162094c41461034e5780631b2ef1ca1461036e57806323b872dd1461038e57600080fd5b806301ffc9a71461023557806306fdde031461026a5780630750b1631461028c578063081812fc146102c7575b600080fd5b34801561024157600080fd5b506102556102503660046120e0565b61078c565b60405190151581526020015b60405180910390f35b34801561027657600080fd5b5061027f6107de565b6040516102619190612155565b34801561029857600080fd5b506102b96102a7366004612168565b600c6020526000908152604090205481565b604051908152602001610261565b3480156102d357600080fd5b506102e76102e2366004612168565b610870565b6040516001600160a01b039091168152602001610261565b34801561030b57600080fd5b5061031f61031a36600461219d565b610897565b005b34801561032d57600080fd5b506102b961033c3660046121c7565b600f6020526000908152604090205481565b34801561035a57600080fd5b5061031f61036936600461228e565b6109b1565b34801561037a57600080fd5b5061031f6103893660046122d5565b610a30565b34801561039a57600080fd5b5061031f6103a93660046122f7565b610bd3565b3480156103ba57600080fd5b506102b96103c9366004612168565b60106020526000908152604090205481565b3480156103e757600080fd5b5061031f6103f636600461219d565b610c04565b34801561040757600080fd5b5061031f6104163660046122f7565b610c7b565b34801561042757600080fd5b506102e7610436366004612168565b610c96565b34801561044757600080fd5b506102b96104563660046121c7565b600d6020526000908152604090205481565b34801561047457600080fd5b5061031f610cc0565b34801561048957600080fd5b506102b960135481565b34801561049f57600080fd5b506102e76104ae366004612168565b610e2d565b3480156104bf57600080fd5b506102b96104ce3660046121c7565b610e8d565b3480156104df57600080fd5b506102b960195481565b3480156104f557600080fd5b5061031f610504366004612168565b610f13565b34801561051557600080fd5b506102e7610524366004612168565b6009602052600090815260409020546001600160a01b031681565b34801561054b57600080fd5b5061027f610f99565b34801561056057600080fd5b5061031f610fa8565b34801561057557600080fd5b506102b960155481565b34801561058b57600080fd5b5061031f61059a366004612341565b6111f6565b61031f6105ad366004612378565b611201565b3480156105be57600080fd5b506102556105cd3660046121c7565b60116020526000908152604090205460ff1681565b3480156105ee57600080fd5b5061031f6105fd3660046123ad565b6113d0565b34801561060e57600080fd5b5061031f611407565b34801561062357600080fd5b5061027f610632366004612168565b6114bb565b34801561064357600080fd5b50610667610652366004612168565b600b6020526000908152604090205460ff1681565b604051610261919061243f565b34801561068057600080fd5b506102b960175481565b34801561069657600080fd5b506102b960145481565b3480156106ac57600080fd5b5061031f6106bb3660046121c7565b6115cb565b3480156106cc57600080fd5b5061027f6106db366004612168565b6115ef565b3480156106ec57600080fd5b506102556106fb366004612467565b6001600160a01b03918216600090815260056020908152604080832093909416825291909152205460ff1690565b34801561073557600080fd5b506102b9610744366004612168565b600e6020526000908152604090205481565b34801561076257600080fd5b506102b960165481565b34801561077857600080fd5b506018546102e7906001600160a01b031681565b60006001600160e01b031982166380ac58cd60e01b14806107bd57506001600160e01b03198216635b5e139f60e01b145b806107d857506301ffc9a760e01b6001600160e01b03198316145b92915050565b6060600080546107ed9061249a565b80601f01602080910402602001604051908101604052809291908181526020018280546108199061249a565b80156108665780601f1061083b57610100808354040283529160200191610866565b820191906000526020600020905b81548152906001019060200180831161084957829003601f168201915b5050505050905090565b600061087b82611689565b506000908152600460205260409020546001600160a01b031690565b60006108a282610e2d565b9050806001600160a01b0316836001600160a01b0316036109145760405162461bcd60e51b815260206004820152602160248201527f4552433732313a20617070726f76616c20746f2063757272656e74206f776e656044820152603960f91b60648201526084015b60405180910390fd5b336001600160a01b0382161480610930575061093081336106fb565b6109a25760405162461bcd60e51b815260206004820152603d60248201527f4552433732313a20617070726f76652063616c6c6572206973206e6f7420746f60448201527f6b656e206f776e6572206f7220617070726f76656420666f7220616c6c000000606482015260840161090b565b6109ac83836116eb565b505050565b6109bc335b83611759565b610a225760405162461bcd60e51b815260206004820152603160248201527f4552433732313a207472616e736665722063616c6c6572206973206e6f74206f6044820152701ddb995c881b9bdc88185c1c1c9bdd9959607a1b606482015260840161090b565b610a2c82826117d7565b5050565b600082815260096020908152604080832054600a909252822080546001600160a01b039092169291610a619061249a565b80601f0160208091040260200160405190810160405280929190818152602001828054610a8d9061249a565b8015610ada5780601f10610aaf57610100808354040283529160200191610ada565b820191906000526020600020905b815481529060010190602001808311610abd57829003601f168201915b505060145460185494955093610afe93506001600160a01b03169150839050611871565b610b0881836117d7565b610b11836115cb565b6000610b1e6001866124ea565b8015610b2c57610b2c612429565b6000838152600b602052604090208054919250829160ff19166001838015610b5657610b56612429565b02179055506000868152600c602090815260408083208590556001600160a01b0387168352600d9091529020829055601454610b93906001612514565b60145560405185815286907fd996551a703bf267a3068bb00ce0d5967b05fbab9b7091219d8e95226e9e0e3d9060200160405180910390a2505050505050565b610bdd3382611759565b610bf95760405162461bcd60e51b815260040161090b9061252c565b6109ac83838361188b565b60075460405163095ea7b360e01b81526001600160a01b038481166004830152602482018490529091169063095ea7b3906044016020604051808303816000875af1158015610c57573d6000803e3d6000fd5b505050506040513d601f19601f820116820180604052508101906109ac9190612579565b6109ac838383604051806020016040528060008152506113d0565b60128181548110610ca657600080fd5b6000918252602090912001546001600160a01b0316905081565b3360009081526011602052604090205460ff161515600114610d1d5760405162461bcd60e51b81526020600482015260166024820152751cd95b99195c88191bdb9d081a1bdb190818481b999d60521b604482015260640161090b565b336000908152600d602090815260408083205480845260109092528220546013805492939192839290610d51908490612514565b90915550610d6190503382610c04565b6007546040516323b872dd60e01b8152306004820152336024820152604481018390526001600160a01b03909116906323b872dd906064016020604051808303816000875af1158015610db8573d6000803e3d6000fd5b505050506040513d601f19601f82011682018060405250810190610ddc9190612579565b5060008281526010602090815260408083209290925581513381529081018390527fcea16a2d83554574def1edf3ec1fb53f1373f7ebb1fa98fecdaa4268588793cc91015b60405180910390a15050565b6000818152600260205260408120546001600160a01b0316806107d85760405162461bcd60e51b8152602060048201526018602482015277115490cdcc8c4e881a5b9d985b1a59081d1bdad95b88125160421b604482015260640161090b565b60006001600160a01b038216610ef75760405162461bcd60e51b815260206004820152602960248201527f4552433732313a2061646472657373207a65726f206973206e6f7420612076616044820152683634b21037bbb732b960b91b606482015260840161090b565b506001600160a01b031660009081526003602052604090205490565b600060195482610f239190612596565b905060005b601954811015610f685760008181526010602052604081208054849290610f50908490612514565b90915550819050610f60816125aa565b915050610f28565b506040518281527f22712b798ae7934ec355d80da68e214e1ada67aa7c0ab551450dffeb27f10d2e90602001610e21565b6060600180546107ed9061249a565b6007546040516370a0823160e01b81523060048201526000916001600160a01b0316906370a0823190602401602060405180830381865afa158015610ff1573d6000803e3d6000fd5b505050506040513d601f19601f8201168201806040525081019061101591906125c3565b6007546040516370a0823160e01b81523060048201529192506064916001600160a01b03909116906370a0823190602401602060405180830381865afa158015611063573d6000803e3d6000fd5b505050506040513d601f19601f8201168201806040525081019061108791906125c3565b116110cd5760405162461bcd60e51b815260206004820152601660248201527518985b185b98d9481b9bdd081cdd59999a58da595b9d60521b604482015260640161090b565b60006064601554836110df91906125dc565b6110e99190612596565b905060005b6012548110156109ac5760006012828154811061110d5761110d6125fb565b60009182526020909120015460075460405163a9059cbb60e01b81526001600160a01b039283166004820181905260248201879052935091169063a9059cbb906044016020604051808303816000875af115801561116f573d6000803e3d6000fd5b505050506040513d601f19601f820116820180604052508101906111939190612579565b5061119e8385612611565b604080516001600160a01b0384168152602081018690529195507fcea16a2d83554574def1edf3ec1fb53f1373f7ebb1fa98fecdaa4268588793cc910160405180910390a150806111ee816125aa565b9150506110ee565b610a2c3383836119fc565b6008546040516370a0823160e01b815233600482015261c350916001600160a01b0316906370a0823190602401602060405180830381865afa15801561124b573d6000803e3d6000fd5b505050506040513d601f19601f8201168201806040525081019061126f91906125c3565b116112bc5760405162461bcd60e51b815260206004820152601f60248201527f62616c616e6365206e6f7420656e6f7567687420746f206d696e74206e667400604482015260640161090b565b6008546040516323b872dd60e01b815233600482015230602482015261c35060448201526001600160a01b03909116906323b872dd906064016020604051808303816000875af1158015611314573d6000803e3d6000fd5b505050506040513d601f19601f820116820180604052508101906113389190612579565b50601654600081815260096020908152604080832080546001600160a01b03191633179055600a8252909120835161137292850190612031565b5061137f81601754610a30565b60165461138d906001612514565b60165560175461139e906001612514565b60175560405181907f29f8474dee2f5f19ab0c7b6f5136824047cd822e5c7bb7526df99d7c9258b07590600090a25050565b6113d9336109b6565b6113f55760405162461bcd60e51b815260040161090b9061252c565b61140184848484611aca565b50505050565b6012546114565760405162461bcd60e51b815260206004820152601a60248201527f746869732069732074686520666972737420636f6e7472616374000000000000604482015260640161090b565b601254600090611467906001612514565b905060006019548261147991906125dc565b905060008160195461148b9190612596565b9050600061149a846001612596565b905060026114a88284612514565b6114b29190612596565b60155550505050565b60606114c682611689565b600082815260066020526040812080546114df9061249a565b80601f016020809104026020016040519081016040528092919081815260200182805461150b9061249a565b80156115585780601f1061152d57610100808354040283529160200191611558565b820191906000526020600020905b81548152906001019060200180831161153b57829003601f168201915b50505050509050600061157660408051602081019091526000815290565b90508051600003611588575092915050565b8151156115ba5780826040516020016115a2929190612628565b60405160208183030381529060405292505050919050565b6115c384611afd565b949350505050565b6001600160a01b03166000908152601160205260409020805460ff19166001179055565b600a60205260009081526040902080546116089061249a565b80601f01602080910402602001604051908101604052809291908181526020018280546116349061249a565b80156116815780601f1061165657610100808354040283529160200191611681565b820191906000526020600020905b81548152906001019060200180831161166457829003601f168201915b505050505081565b6000818152600260205260409020546001600160a01b03166116e85760405162461bcd60e51b8152602060048201526018602482015277115490cdcc8c4e881a5b9d985b1a59081d1bdad95b88125160421b604482015260640161090b565b50565b600081815260046020526040902080546001600160a01b0319166001600160a01b038416908117909155819061172082610e2d565b6001600160a01b03167f8c5be1e5ebec7d5bd14f71427d1e84f3dd0314c0f7b2291e5b200ac8c7c3b92560405160405180910390a45050565b60008061176583610e2d565b9050806001600160a01b0316846001600160a01b031614806117ac57506001600160a01b0380821660009081526005602090815260408083209388168352929052205460ff165b806115c35750836001600160a01b03166117c584610870565b6001600160a01b031614949350505050565b6000828152600260205260409020546001600160a01b03166118525760405162461bcd60e51b815260206004820152602e60248201527f45524337323155524953746f726167653a2055524920736574206f66206e6f6e60448201526d32bc34b9ba32b73a103a37b5b2b760911b606482015260840161090b565b600082815260066020908152604090912082516109ac92840190612031565b610a2c828260405180602001604052806000815250611b71565b826001600160a01b031661189e82610e2d565b6001600160a01b0316146118c45760405162461bcd60e51b815260040161090b90612657565b6001600160a01b0382166119265760405162461bcd60e51b8152602060048201526024808201527f4552433732313a207472616e7366657220746f20746865207a65726f206164646044820152637265737360e01b606482015260840161090b565b6119338383836001611ba4565b826001600160a01b031661194682610e2d565b6001600160a01b03161461196c5760405162461bcd60e51b815260040161090b90612657565b600081815260046020908152604080832080546001600160a01b03199081169091556001600160a01b0387811680865260038552838620805460001901905590871680865283862080546001019055868652600290945282852080549092168417909155905184937fddf252ad1be2c89b69c2b068fc378daa952ba7f163c4a11628f55a4df523b3ef91a4505050565b816001600160a01b0316836001600160a01b031603611a5d5760405162461bcd60e51b815260206004820152601960248201527f4552433732313a20617070726f766520746f2063616c6c657200000000000000604482015260640161090b565b6001600160a01b03838116600081815260056020908152604080832094871680845294825291829020805460ff191686151590811790915591519182527f17307eab39ab6107e8899845ad3d59bd9653f200f220920489ca2b5937696c31910160405180910390a3505050565b611ad584848461188b565b611ae184848484611c2c565b6114015760405162461bcd60e51b815260040161090b9061269c565b6060611b0882611689565b6000611b1f60408051602081019091526000815290565b90506000815111611b3f5760405180602001604052806000815250611b6a565b80611b4984611d2d565b604051602001611b5a929190612628565b6040516020818303038152906040525b9392505050565b611b7b8383611dc0565b611b886000848484611c2c565b6109ac5760405162461bcd60e51b815260040161090b9061269c565b6001811115611401576001600160a01b03841615611bea576001600160a01b03841660009081526003602052604081208054839290611be4908490612611565b90915550505b6001600160a01b03831615611401576001600160a01b03831660009081526003602052604081208054839290611c21908490612514565b909155505050505050565b60006001600160a01b0384163b15611d2257604051630a85bd0160e11b81526001600160a01b0385169063150b7a0290611c709033908990889088906004016126ee565b6020604051808303816000875af1925050508015611cab575060408051601f3d908101601f19168201909252611ca89181019061272b565b60015b611d08573d808015611cd9576040519150601f19603f3d011682016040523d82523d6000602084013e611cde565b606091505b508051600003611d005760405162461bcd60e51b815260040161090b9061269c565b805181602001fd5b6001600160e01b031916630a85bd0160e11b1490506115c3565b506001949350505050565b60606000611d3a83611f59565b600101905060008167ffffffffffffffff811115611d5a57611d5a6121e2565b6040519080825280601f01601f191660200182016040528015611d84576020820181803683370190505b5090508181016020015b600019016f181899199a1a9b1b9c1cb0b131b232b360811b600a86061a8153600a8504945084611d8e57509392505050565b6001600160a01b038216611e165760405162461bcd60e51b815260206004820181905260248201527f4552433732313a206d696e7420746f20746865207a65726f2061646472657373604482015260640161090b565b6000818152600260205260409020546001600160a01b031615611e7b5760405162461bcd60e51b815260206004820152601c60248201527f4552433732313a20746f6b656e20616c7265616479206d696e74656400000000604482015260640161090b565b611e89600083836001611ba4565b6000818152600260205260409020546001600160a01b031615611eee5760405162461bcd60e51b815260206004820152601c60248201527f4552433732313a20746f6b656e20616c7265616479206d696e74656400000000604482015260640161090b565b6001600160a01b038216600081815260036020908152604080832080546001019055848352600290915280822080546001600160a01b0319168417905551839291907fddf252ad1be2c89b69c2b068fc378daa952ba7f163c4a11628f55a4df523b3ef908290a45050565b60008072184f03e93ff9f4daa797ed6e38ed64bf6a1f0160401b8310611f985772184f03e93ff9f4daa797ed6e38ed64bf6a1f0160401b830492506040015b6d04ee2d6d415b85acef81000000008310611fc4576d04ee2d6d415b85acef8100000000830492506020015b662386f26fc100008310611fe257662386f26fc10000830492506010015b6305f5e1008310611ffa576305f5e100830492506008015b612710831061200e57612710830492506004015b60648310612020576064830492506002015b600a83106107d85760010192915050565b82805461203d9061249a565b90600052602060002090601f01602090048101928261205f57600085556120a5565b82601f1061207857805160ff19168380011785556120a5565b828001600101855582156120a5579182015b828111156120a557825182559160200191906001019061208a565b506120b19291506120b5565b5090565b5b808211156120b157600081556001016120b6565b6001600160e01b0319811681146116e857600080fd5b6000602082840312156120f257600080fd5b8135611b6a816120ca565b60005b83811015612118578181015183820152602001612100565b838111156114015750506000910152565b600081518084526121418160208601602086016120fd565b601f01601f19169290920160200192915050565b602081526000611b6a6020830184612129565b60006020828403121561217a57600080fd5b5035919050565b80356001600160a01b038116811461219857600080fd5b919050565b600080604083850312156121b057600080fd5b6121b983612181565b946020939093013593505050565b6000602082840312156121d957600080fd5b611b6a82612181565b634e487b7160e01b600052604160045260246000fd5b600067ffffffffffffffff80841115612213576122136121e2565b604051601f8501601f19908116603f0116810190828211818310171561223b5761223b6121e2565b8160405280935085815286868601111561225457600080fd5b858560208301376000602087830101525050509392505050565b600082601f83011261227f57600080fd5b611b6a838335602085016121f8565b600080604083850312156122a157600080fd5b82359150602083013567ffffffffffffffff8111156122bf57600080fd5b6122cb8582860161226e565b9150509250929050565b600080604083850312156122e857600080fd5b50508035926020909101359150565b60008060006060848603121561230c57600080fd5b61231584612181565b925061232360208501612181565b9150604084013590509250925092565b80151581146116e857600080fd5b6000806040838503121561235457600080fd5b61235d83612181565b9150602083013561236d81612333565b809150509250929050565b60006020828403121561238a57600080fd5b813567ffffffffffffffff8111156123a157600080fd5b6115c38482850161226e565b600080600080608085870312156123c357600080fd5b6123cc85612181565b93506123da60208601612181565b925060408501359150606085013567ffffffffffffffff8111156123fd57600080fd5b8501601f8101871361240e57600080fd5b61241d878235602084016121f8565b91505092959194509250565b634e487b7160e01b600052602160045260246000fd5b602081016001831061246157634e487b7160e01b600052602160045260246000fd5b91905290565b6000806040838503121561247a57600080fd5b61248383612181565b915061249160208401612181565b90509250929050565b600181811c908216806124ae57607f821691505b6020821081036124ce57634e487b7160e01b600052602260045260246000fd5b50919050565b634e487b7160e01b600052601260045260246000fd5b6000826124f9576124f96124d4565b500690565b634e487b7160e01b600052601160045260246000fd5b60008219821115612527576125276124fe565b500190565b6020808252602d908201527f4552433732313a2063616c6c6572206973206e6f7420746f6b656e206f776e6560408201526c1c881bdc88185c1c1c9bdd9959609a1b606082015260800190565b60006020828403121561258b57600080fd5b8151611b6a81612333565b6000826125a5576125a56124d4565b500490565b6000600182016125bc576125bc6124fe565b5060010190565b6000602082840312156125d557600080fd5b5051919050565b60008160001904831182151516156125f6576125f66124fe565b500290565b634e487b7160e01b600052603260045260246000fd5b600082821015612623576126236124fe565b500390565b6000835161263a8184602088016120fd565b83519083019061264e8183602088016120fd565b01949350505050565b60208082526025908201527f4552433732313a207472616e736665722066726f6d20696e636f72726563742060408201526437bbb732b960d91b606082015260800190565b60208082526032908201527f4552433732313a207472616e7366657220746f206e6f6e20455243373231526560408201527131b2b4bb32b91034b6b83632b6b2b73a32b960711b606082015260800190565b6001600160a01b038581168252841660208201526040810183905260806060820181905260009061272190830184612129565b9695505050505050565b60006020828403121561273d57600080fd5b8151611b6a816120ca56fea264697066735822122049e17e117fe444dcfddd8f0f5cdc7d6698187692d72bc8e2e9e4f6e2f65bbe4c64736f6c634300080e0033","bytecodeSha1":"e64838534fec9a8975d0cd44e1316eb55144b44b","compiler":{"evm_version":"istanbul","optimizer":{"enabled":true,"runs":200},"version":"0.8.14+commit.80d49f37"},"contractName":"AdvancedCollectible","language":"Solidity","natspec":{"kind":"dev","methods":{"approve(address,uint256)":{"details":"See {IERC721-approve}."},"balanceOf(address)":{"details":"See {IERC721-balanceOf}."},"claim()":{"notice":"NFt holder claims there drexTokens to stable coins using this function"},"create_nft(string)":{"notice":"Creates the nft","params":{"tokenURI":"-> the token uri of the each nft, it can be empty also"}},"getApproved(uint256)":{"details":"See {IERC721-getApproved}."},"isApprovedForAll(address,address)":{"details":"See {IERC721-isApprovedForAll}."},"mint(uint256,uint256)":{"notice":"Helper fucntion called by create_nft, calls the 'safemint fucntion'","params":{"RandomNumber":"-->  a uint256 number for each of the nft","requestId":"-->a uint256 number unique for each nft"}},"name()":{"details":"See {IERC721Metadata-name}."},"ownerOf(uint256)":{"details":"See {IERC721-ownerOf}."},"safeTransferFrom(address,address,uint256)":{"details":"See {IERC721-safeTransferFrom}."},"safeTransferFrom(address,address,uint256,bytes)":{"details":"See {IERC721-safeTransferFrom}."},"setApprovalForAll(address,bool)":{"details":"See {IERC721-setApprovalForAll}."},"setTokenURI(uint256,string)":{"notice":"Sets tokenURI for each nft minted","params":{"_tokenURI":"--> string which refers the tokenuri for the nft","tokenId":"--> a tokenId of each of the nft"}},"setWallet(address)":{"notice":"Used to set each of the user who have bought the nft","params":{"_wallet":"-> address of tge nft holder"}},"supportsInterface(bytes4)":{"details":"See {IERC165-supportsInterface}."},"symbol()":{"details":"See {IERC721Metadata-symbol}."},"tokenURI(uint256)":{"details":"See {IERC721Metadata-tokenURI}."},"transferFrom(address,address,uint256)":{"details":"See {IERC721-transferFrom}."},"update_nft_balance(uint256)":{"notice":"Divides the amount generated in each of the nft holders","params":{"amount":"--> amount generated and transfered to the contract"}}},"version":1},"opcodes":"PUSH1 0x80 PUSH1 0x40 MSTORE PUSH1 0x4 CALLDATASIZE LT PUSH2 0x230 JUMPI PUSH1 0x0 CALLDATALOAD PUSH1 0xE0 SHR DUP1 PUSH4 0x8A774091 GT PUSH2 0x12E JUMPI DUP1 PUSH4 0xC87B56DD GT PUSH2 0xAB JUMPI DUP1 PUSH4 0xE7FEFAFE GT PUSH2 0x6F JUMPI DUP1 PUSH4 0xE7FEFAFE EQ PUSH2 0x6C0 JUMPI DUP1 PUSH4 0xE985E9C5 EQ PUSH2 0x6E0 JUMPI DUP1 PUSH4 0xF136D197 EQ PUSH2 0x729 JUMPI DUP1 PUSH4 0xFB96E649 EQ PUSH2 0x756 JUMPI DUP1 PUSH4 0xFF1B636D EQ PUSH2 0x76C JUMPI PUSH1 0x0 DUP1 REVERT JUMPDEST DUP1 PUSH4 0xC87B56DD EQ PUSH2 0x617 JUMPI DUP1 PUSH4 0xCBBC3C28 EQ PUSH2 0x637 JUMPI DUP1 PUSH4 0xCCBAC9F5 EQ PUSH2 0x674 JUMPI DUP1 PUSH4 0xD082E381 EQ PUSH2 0x68A JUMPI DUP1 PUSH4 0xDEAA59DF EQ PUSH2 0x6A0 JUMPI PUSH1 0x0 DUP1 REVERT JUMPDEST DUP1 PUSH4 0xA22CB465 GT PUSH2 0xF2 JUMPI DUP1 PUSH4 0xA22CB465 EQ PUSH2 0x57F JUMPI DUP1 PUSH4 0xA3BAB286 EQ PUSH2 0x59F JUMPI DUP1 PUSH4 0xAF154011 EQ PUSH2 0x5B2 JUMPI DUP1 PUSH4 0xB88D4FDE EQ PUSH2 0x5E2 JUMPI DUP1 PUSH4 0xC6CE3BCD EQ PUSH2 0x602 JUMPI PUSH1 0x0 DUP1 REVERT JUMPDEST DUP1 PUSH4 0x8A774091 EQ PUSH2 0x4E9 JUMPI DUP1 PUSH4 0x8E2DE4D3 EQ PUSH2 0x509 JUMPI DUP1 PUSH4 0x95D89B41 EQ PUSH2 0x53F JUMPI DUP1 PUSH4 0x977284F9 EQ PUSH2 0x554 JUMPI DUP1 PUSH4 0x9A232072 EQ PUSH2 0x569 JUMPI PUSH1 0x0 DUP1 REVERT JUMPDEST DUP1 PUSH4 0x24E71743 GT PUSH2 0x1BC JUMPI DUP1 PUSH4 0x4E71D92D GT PUSH2 0x180 JUMPI DUP1 PUSH4 0x4E71D92D EQ PUSH2 0x468 JUMPI DUP1 PUSH4 0x56CFFECB EQ PUSH2 0x47D JUMPI DUP1 PUSH4 0x6352211E EQ PUSH2 0x493 JUMPI DUP1 PUSH4 0x70A08231 EQ PUSH2 0x4B3 JUMPI DUP1 PUSH4 0x73B0745F EQ PUSH2 0x4D3 JUMPI PUSH1 0x0 DUP1 REVERT JUMPDEST DUP1 PUSH4 0x24E71743 EQ PUSH2 0x3AE JUMPI DUP1 PUSH4 0x32F904FD EQ PUSH2 0x3DB JUMPI DUP1 PUSH4 0x42842E0E EQ PUSH2 0x3FB JUMPI DUP1 PUSH4 0x45AFC81F EQ PUSH2 0x41B JUMPI DUP1 PUSH4 0x4DFB4C53 EQ PUSH2 0x43B JUMPI PUSH1 0x0 DUP1 REVERT JUMPDEST DUP1 PUSH4 0x95EA7B3 GT PUSH2 0x203 JUMPI DUP1 PUSH4 0x95EA7B3 EQ PUSH2 0x2FF JUMPI DUP1 PUSH4 0x15A9F7A5 EQ PUSH2 0x321 JUMPI DUP1 PUSH4 0x162094C4 EQ PUSH2 0x34E JUMPI DUP1 PUSH4 0x1B2EF1CA EQ PUSH2 0x36E JUMPI DUP1 PUSH4 0x23B872DD EQ PUSH2 0x38E JUMPI PUSH1 0x0 DUP1 REVERT JUMPDEST DUP1 PUSH4 0x1FFC9A7 EQ PUSH2 0x235 JUMPI DUP1 PUSH4 0x6FDDE03 EQ PUSH2 0x26A JUMPI DUP1 PUSH4 0x750B163 EQ PUSH2 0x28C JUMPI DUP1 PUSH4 0x81812FC EQ PUSH2 0x2C7 JUMPI JUMPDEST PUSH1 0x0 DUP1 REVERT JUMPDEST CALLVALUE DUP1 ISZERO PUSH2 0x241 JUMPI PUSH1 0x0 DUP1 REVERT JUMPDEST POP PUSH2 0x255 PUSH2 0x250 CALLDATASIZE PUSH1 0x4 PUSH2 0x20E0 JUMP JUMPDEST PUSH2 0x78C JUMP JUMPDEST PUSH1 0x40 MLOAD SWAP1 ISZERO ISZERO DUP2 MSTORE PUSH1 0x20 ADD JUMPDEST PUSH1 0x40 MLOAD DUP1 SWAP2 SUB SWAP1 RETURN JUMPDEST CALLVALUE DUP1 ISZERO PUSH2 0x276 JUMPI PUSH1 0x0 DUP1 REVERT JUMPDEST POP PUSH2 0x27F PUSH2 0x7DE JUMP JUMPDEST PUSH1 0x40 MLOAD PUSH2 0x261 SWAP2 SWAP1 PUSH2 0x2155 JUMP JUMPDEST CALLVALUE DUP1 ISZERO PUSH2 0x298 JUMPI PUSH1 0x0 DUP1 REVERT JUMPDEST POP PUSH2 0x2B9 PUSH2 0x2A7 CALLDATASIZE PUSH1 0x4 PUSH2 0x2168 JUMP JUMPDEST PUSH1 0xC PUSH1 0x20 MSTORE PUSH1 0x0 SWAP1 DUP2 MSTORE PUSH1 0x40 SWAP1 KECCAK256 SLOAD DUP2 JUMP JUMPDEST PUSH1 0x40 MLOAD SWAP1 DUP2 MSTORE PUSH1 0x20 ADD PUSH2 0x261 JUMP JUMPDEST CALLVALUE DUP1 ISZERO PUSH2 0x2D3 JUMPI PUSH1 0x0 DUP1 REVERT JUMPDEST POP PUSH2 0x2E7 PUSH2 0x2E2 CALLDATASIZE PUSH1 0x4 PUSH2 0x2168 JUMP JUMPDEST PUSH2 0x870 JUMP JUMPDEST PUSH1 0x40 MLOAD PUSH1 0x1 PUSH1 0x1 PUSH1 0xA0 SHL SUB SWAP1 SWAP2 AND DUP2 MSTORE PUSH1 0x20 ADD PUSH2 0x261 JUMP JUMPDEST CALLVALUE DUP1 ISZERO PUSH2 0x30B JUMPI PUSH1 0x0 DUP1 REVERT JUMPDEST POP PUSH2 0x31F PUSH2 0x31A CALLDATASIZE PUSH1 0x4 PUSH2 0x219D JUMP JUMPDEST PUSH2 0x897 JUMP JUMPDEST STOP JUMPDEST CALLVALUE DUP1 ISZERO PUSH2 0x32D JUMPI PUSH1 0x0 DUP1 REVERT JUMPDEST POP PUSH2 0x2B9 PUSH2 0x33C CALLDATASIZE PUSH1 0x4 PUSH2 0x21C7 JUMP JUMPDEST PUSH1 0xF PUSH1 0x20 MSTORE PUSH1 0x0 SWAP1 DUP2 MSTORE PUSH1 0x40 SWAP1 KECCAK256 SLOAD DUP2 JUMP JUMPDEST CALLVALUE DUP1 ISZERO PUSH2 0x35A JUMPI PUSH1 0x0 DUP1 REVERT JUMPDEST POP PUSH2 0x31F PUSH2 0x369 CALLDATASIZE PUSH1 0x4 PUSH2 0x228E JUMP JUMPDEST PUSH2 0x9B1 JUMP JUMPDEST CALLVALUE DUP1 ISZERO PUSH2 0x37A JUMPI PUSH1 0x0 DUP1 REVERT JUMPDEST POP PUSH2 0x31F PUSH2 0x389 CALLDATASIZE PUSH1 0x4 PUSH2 0x22D5 JUMP JUMPDEST PUSH2 0xA30 JUMP JUMPDEST CALLVALUE DUP1 ISZERO PUSH2 0x39A JUMPI PUSH1 0x0 DUP1 REVERT JUMPDEST POP PUSH2 0x31F PUSH2 0x3A9 CALLDATASIZE PUSH1 0x4 PUSH2 0x22F7 JUMP JUMPDEST PUSH2 0xBD3 JUMP JUMPDEST CALLVALUE DUP1 ISZERO PUSH2 0x3BA JUMPI PUSH1 0x0 DUP1 REVERT JUMPDEST POP PUSH2 0x2B9 PUSH2 0x3C9 CALLDATASIZE PUSH1 0x4 PUSH2 0x2168 JUMP JUMPDEST PUSH1 0x10 PUSH1 0x20 MSTORE PUSH1 0x0 SWAP1 DUP2 MSTORE PUSH1 0x40 SWAP1 KECCAK256 SLOAD DUP2 JUMP JUMPDEST CALLVALUE DUP1 ISZERO PUSH2 0x3E7 JUMPI PUSH1 0x0 DUP1 REVERT JUMPDEST POP PUSH2 0x31F PUSH2 0x3F6 CALLDATASIZE PUSH1 0x4 PUSH2 0x219D JUMP JUMPDEST PUSH2 0xC04 JUMP JUMPDEST CALLVALUE DUP1 ISZERO PUSH2 0x407 JUMPI PUSH1 0x0 DUP1 REVERT JUMPDEST POP PUSH2 0x31F PUSH2 0x416 CALLDATASIZE PUSH1 0x4 PUSH2 0x22F7 JUMP JUMPDEST PUSH2 0xC7B JUMP JUMPDEST CALLVALUE DUP1 ISZERO PUSH2 0x427 JUMPI PUSH1 0x0 DUP1 REVERT JUMPDEST POP PUSH2 0x2E7 PUSH2 0x436 CALLDATASIZE PUSH1 0x4 PUSH2 0x2168 JUMP JUMPDEST PUSH2 0xC96 JUMP JUMPDEST CALLVALUE DUP1 ISZERO PUSH2 0x447 JUMPI PUSH1 0x0 DUP1 REVERT JUMPDEST POP PUSH2 0x2B9 PUSH2 0x456 CALLDATASIZE PUSH1 0x4 PUSH2 0x21C7 JUMP JUMPDEST PUSH1 0xD PUSH1 0x20 MSTORE PUSH1 0x0 SWAP1 DUP2 MSTORE PUSH1 0x40 SWAP1 KECCAK256 SLOAD DUP2 JUMP JUMPDEST CALLVALUE DUP1 ISZERO PUSH2 0x474 JUMPI PUSH1 0x0 DUP1 REVERT JUMPDEST POP PUSH2 0x31F PUSH2 0xCC0 JUMP JUMPDEST CALLVALUE DUP1 ISZERO PUSH2 0x489 JUMPI PUSH1 0x0 DUP1 REVERT JUMPDEST POP PUSH2 0x2B9 PUSH1 0x13 SLOAD DUP2 JUMP JUMPDEST CALLVALUE DUP1 ISZERO PUSH2 0x49F JUMPI PUSH1 0x0 DUP1 REVERT JUMPDEST POP PUSH2 0x2E7 PUSH2 0x4AE CALLDATASIZE PUSH1 0x4 PUSH2 0x2168 JUMP JUMPDEST PUSH2 0xE2D JUMP JUMPDEST CALLVALUE DUP1 ISZERO PUSH2 0x4BF JUMPI PUSH1 0x0 DUP1 REVERT JUMPDEST POP PUSH2 0x2B9 PUSH2 0x4CE CALLDATASIZE PUSH1 0x4 PUSH2 0x21C7 JUMP JUMPDEST PUSH2 0xE8D JUMP JUMPDEST CALLVALUE DUP1 ISZERO PUSH2 0x4DF JUMPI PUSH1 0x0 DUP1 REVERT JUMPDEST POP PUSH2 0x2B9 PUSH1 0x19 SLOAD DUP2 JUMP JUMPDEST CALLVALUE DUP1 ISZERO PUSH2 0x4F5 JUMPI PUSH1 0x0 DUP1 REVERT JUMPDEST POP PUSH2 0x31F PUSH2 0x504 CALLDATASIZE PUSH1 0x4 PUSH2 0x2168 JUMP JUMPDEST PUSH2 0xF13 JUMP JUMPDEST CALLVALUE DUP1 ISZERO PUSH2 0x515 JUMPI PUSH1 0x0 DUP1 REVERT JUMPDEST POP PUSH2 0x2E7 PUSH2 0x524 CALLDATASIZE PUSH1 0x4 PUSH2 0x2168 JUMP JUMPDEST PUSH1 0x9 PUSH1 0x20 MSTORE PUSH1 0x0 SWAP1 DUP2 MSTORE PUSH1 0x40 SWAP1 KECCAK256 SLOAD PUSH1 0x1 PUSH1 0x1 PUSH1 0xA0 SHL SUB AND DUP2 JUMP JUMPDEST CALLVALUE DUP1 ISZERO PUSH2 0x54B JUMPI PUSH1 0x0 DUP1 REVERT JUMPDEST POP PUSH2 0x27F PUSH2 0xF99 JUMP JUMPDEST CALLVALUE DUP1 ISZERO PUSH2 0x560 JUMPI PUSH1 0x0 DUP1 REVERT JUMPDEST POP PUSH2 0x31F PUSH2 0xFA8 JUMP JUMPDEST CALLVALUE DUP1 ISZERO PUSH2 0x575 JUMPI PUSH1 0x0 DUP1 REVERT JUMPDEST POP PUSH2 0x2B9 PUSH1 0x15 SLOAD DUP2 JUMP JUMPDEST CALLVALUE DUP1 ISZERO PUSH2 0x58B JUMPI PUSH1 0x0 DUP1 REVERT JUMPDEST POP PUSH2 0x31F PUSH2 0x59A CALLDATASIZE PUSH1 0x4 PUSH2 0x2341 JUMP JUMPDEST PUSH2 0x11F6 JUMP JUMPDEST PUSH2 0x31F PUSH2 0x5AD CALLDATASIZE PUSH1 0x4 PUSH2 0x2378 JUMP JUMPDEST PUSH2 0x1201 JUMP JUMPDEST CALLVALUE DUP1 ISZERO PUSH2 0x5BE JUMPI PUSH1 0x0 DUP1 REVERT JUMPDEST POP PUSH2 0x255 PUSH2 0x5CD CALLDATASIZE PUSH1 0x4 PUSH2 0x21C7 JUMP JUMPDEST PUSH1 0x11 PUSH1 0x20 MSTORE PUSH1 0x0 SWAP1 DUP2 MSTORE PUSH1 0x40 SWAP1 KECCAK256 SLOAD PUSH1 0xFF AND DUP2 JUMP JUMPDEST CALLVALUE DUP1 ISZERO PUSH2 0x5EE JUMPI PUSH1 0x0 DUP1 REVERT JUMPDEST POP PUSH2 0x31F PUSH2 0x5FD CALLDATASIZE PUSH1 0x4 PUSH2 0x23AD JUMP JUMPDEST PUSH2 0x13D0 JUMP JUMPDEST CALLVALUE DUP1 ISZERO PUSH2 0x60E JUMPI PUSH1 0x0 DUP1 REVERT JUMPDEST POP PUSH2 0x31F PUSH2 0x1407 JUMP JUMPDEST CALLVALUE DUP1 ISZERO PUSH2 0x623 JUMPI PUSH1 0x0 DUP1 REVERT JUMPDEST POP PUSH2 0x27F PUSH2 0x632 CALLDATASIZE PUSH1 0x4 PUSH2 0x2168 JUMP JUMPDEST PUSH2 0x14BB JUMP JUMPDEST CALLVALUE DUP1 ISZERO PUSH2 0x643 JUMPI PUSH1 0x0 DUP1 REVERT JUMPDEST POP PUSH2 0x667 PUSH2 0x652 CALLDATASIZE PUSH1 0x4 PUSH2 0x2168 JUMP JUMPDEST PUSH1 0xB PUSH1 0x20 MSTORE PUSH1 0x0 SWAP1 DUP2 MSTORE PUSH1 0x40 SWAP1 KECCAK256 SLOAD PUSH1 0xFF AND DUP2 JUMP JUMPDEST PUSH1 0x40 MLOAD PUSH2 0x261 SWAP2 SWAP1 PUSH2 0x243F JUMP JUMPDEST CALLVALUE DUP1 ISZERO PUSH2 0x680 JUMPI PUSH1 0x0 DUP1 REVERT JUMPDEST POP PUSH2 0x2B9 PUSH1 0x17 SLOAD DUP2 JUMP JUMPDEST CALLVALUE DUP1 ISZERO PUSH2 0x696 JUMPI PUSH1 0x0 DUP1 REVERT JUMPDEST POP PUSH2 0x2B9 PUSH1 0x14 SLOAD DUP2 JUMP JUMPDEST CALLVALUE DUP1 ISZERO PUSH2 0x6AC JUMPI PUSH1 0x0 DUP1 REVERT JUMPDEST POP PUSH2 0x31F PUSH2 0x6BB CALLDATASIZE PUSH1 0x4 PUSH2 0x21C7 JUMP JUMPDEST PUSH2 0x15CB JUMP JUMPDEST CALLVALUE DUP1 ISZERO PUSH2 0x6CC JUMPI PUSH1 0x0 DUP1 REVERT JUMPDEST POP PUSH2 0x27F PUSH2 0x6DB CALLDATASIZE PUSH1 0x4 PUSH2 0x2168 JUMP JUMPDEST PUSH2 0x15EF JUMP JUMPDEST CALLVALUE DUP1 ISZERO PUSH2 0x6EC JUMPI PUSH1 0x0 DUP1 REVERT JUMPDEST POP PUSH2 0x255 PUSH2 0x6FB CALLDATASIZE PUSH1 0x4 PUSH2 0x2467 JUMP JUMPDEST PUSH1 0x1 PUSH1 0x1 PUSH1 0xA0 SHL SUB SWAP2 DUP3 AND PUSH1 0x0 SWAP1 DUP2 MSTORE PUSH1 0x5 PUSH1 0x20 SWAP1 DUP2 MSTORE PUSH1 0x40 DUP1 DUP4 KECCAK256 SWAP4 SWAP1 SWAP5 AND DUP3 MSTORE SWAP2 SWAP1 SWAP2 MSTORE KECCAK256 SLOAD PUSH1 0xFF AND SWAP1 JUMP JUMPDEST CALLVALUE DUP1 ISZERO PUSH2 0x735 JUMPI PUSH1 0x0 DUP1 REVERT JUMPDEST POP PUSH2 0x2B9 PUSH2 0x744 CALLDATASIZE PUSH1 0x4 PUSH2 0x2168 JUMP JUMPDEST PUSH1 0xE PUSH1 0x20 MSTORE PUSH1 0x0 SWAP1 DUP2 MSTORE PUSH1 0x40 SWAP1 KECCAK256 SLOAD DUP2 JUMP JUMPDEST CALLVALUE DUP1 ISZERO PUSH2 0x762 JUMPI PUSH1 0x0 DUP1 REVERT JUMPDEST POP PUSH2 0x2B9 PUSH1 0x16 SLOAD DUP2 JUMP JUMPDEST CALLVALUE DUP1 ISZERO PUSH2 0x778 JUMPI PUSH1 0x0 DUP1 REVERT JUMPDEST POP PUSH1 0x18 SLOAD PUSH2 0x2E7 SWAP1 PUSH1 0x1 PUSH1 0x1 PUSH1 0xA0 SHL SUB AND DUP2 JUMP JUMPDEST PUSH1 0x0 PUSH1 0x1 PUSH1 0x1 PUSH1 0xE0 SHL SUB NOT DUP3 AND PUSH4 0x80AC58CD PUSH1 0xE0 SHL EQ DUP1 PUSH2 0x7BD JUMPI POP PUSH1 0x1 PUSH1 0x1 PUSH1 0xE0 SHL SUB NOT DUP3 AND PUSH4 0x5B5E139F PUSH1 0xE0 SHL EQ JUMPDEST DUP1 PUSH2 0x7D8 JUMPI POP PUSH4 0x1FFC9A7 PUSH1 0xE0 SHL PUSH1 0x1 PUSH1 0x1 PUSH1 0xE0 SHL SUB NOT DUP4 AND EQ JUMPDEST SWAP3 SWAP2 POP POP JUMP JUMPDEST PUSH1 0x60 PUSH1 0x0 DUP1 SLOAD PUSH2 0x7ED SWAP1 PUSH2 0x249A JUMP JUMPDEST DUP1 PUSH1 0x1F ADD PUSH1 0x20 DUP1 SWAP2 DIV MUL PUSH1 0x20 ADD PUSH1 0x40 MLOAD SWAP1 DUP2 ADD PUSH1 0x40 MSTORE DUP1 SWAP3 SWAP2 SWAP1 DUP2 DUP2 MSTORE PUSH1 0x20 ADD DUP3 DUP1 SLOAD PUSH2 0x819 SWAP1 PUSH2 0x249A JUMP JUMPDEST DUP1 ISZERO PUSH2 0x866 JUMPI DUP1 PUSH1 0x1F LT PUSH2 0x83B JUMPI PUSH2 0x100 DUP1 DUP4 SLOAD DIV MUL DUP4 MSTORE SWAP2 PUSH1 0x20 ADD SWAP2 PUSH2 0x866 JUMP JUMPDEST DUP3 ADD SWAP2 SWAP1 PUSH1 0x0 MSTORE PUSH1 0x20 PUSH1 0x0 KECCAK256 SWAP1 JUMPDEST DUP2 SLOAD DUP2 MSTORE SWAP1 PUSH1 0x1 ADD SWAP1 PUSH1 0x20 ADD DUP1 DUP4 GT PUSH2 0x849 JUMPI DUP3 SWAP1 SUB PUSH1 0x1F AND DUP3 ADD SWAP2 JUMPDEST POP POP POP POP POP SWAP1 POP SWAP1 JUMP JUMPDEST PUSH1 0x0 PUSH2 0x87B DUP3 PUSH2 0x1689 JUMP JUMPDEST POP PUSH1 0x0 SWAP1 DUP2 MSTORE PUSH1 0x4 PUSH1 0x20 MSTORE PUSH1 0x40 SWAP1 KECCAK256 SLOAD PUSH1 0x1 PUSH1 0x1 PUSH1 0xA0 SHL SUB AND SWAP1 JUMP JUMPDEST PUSH1 0x0 PUSH2 0x8A2 DUP3 PUSH2 0xE2D JUMP JUMPDEST SWAP1 POP DUP1 PUSH1 0x1 PUSH1 0x1 PUSH1 0xA0 SHL SUB AND DUP4 PUSH1 0x1 PUSH1 0x1 PUSH1 0xA0 SHL SUB AND SUB PUSH2 0x914 JUMPI PUSH1 0x40 MLOAD PUSH3 0x461BCD PUSH1 0xE5 SHL DUP2 MSTORE PUSH1 0x20 PUSH1 0x4 DUP3 ADD MSTORE PUSH1 0x21 PUSH1 0x24 DUP3 ADD MSTORE PUSH32 0x4552433732313A20617070726F76616C20746F2063757272656E74206F776E65 PUSH1 0x44 DUP3 ADD MSTORE PUSH1 0x39 PUSH1 0xF9 SHL PUSH1 0x64 DUP3 ADD MSTORE PUSH1 0x84 ADD JUMPDEST PUSH1 0x40 MLOAD DUP1 SWAP2 SUB SWAP1 REVERT JUMPDEST CALLER PUSH1 0x1 PUSH1 0x1 PUSH1 0xA0 SHL SUB DUP3 AND EQ DUP1 PUSH2 0x930 JUMPI POP PUSH2 0x930 DUP2 CALLER PUSH2 0x6FB JUMP JUMPDEST PUSH2 0x9A2 JUMPI PUSH1 0x40 MLOAD PUSH3 0x461BCD PUSH1 0xE5 SHL DUP2 MSTORE PUSH1 0x20 PUSH1 0x4 DUP3 ADD MSTORE PUSH1 0x3D PUSH1 0x24 DUP3 ADD MSTORE PUSH32 0x4552433732313A20617070726F76652063616C6C6572206973206E6F7420746F PUSH1 0x44 DUP3 ADD MSTORE PUSH32 0x6B656E206F776E6572206F7220617070726F76656420666F7220616C6C000000 PUSH1 0x64 DUP3 ADD MSTORE PUSH1 0x84 ADD PUSH2 0x90B JUMP JUMPDEST PUSH2 0x9AC DUP4 DUP4 PUSH2 0x16EB JUMP JUMPDEST POP POP POP JUMP JUMPDEST PUSH2 0x9BC CALLER JUMPDEST DUP4 PUSH2 0x1759 JUMP JUMPDEST PUSH2 0xA22 JUMPI PUSH1 0x40 MLOAD PUSH3 0x461BCD PUSH1 0xE5 SHL DUP2 MSTORE PUSH1 0x20 PUSH1 0x4 DUP3 ADD MSTORE PUSH1 0x31 PUSH1 0x24 DUP3 ADD MSTORE PUSH32 0x4552433732313A207472616E736665722063616C6C6572206973206E6F74206F PUSH1 0x44 DUP3 ADD MSTORE PUSH17 0x1DDB995C881B9BDC88185C1C1C9BDD9959 PUSH1 0x7A SHL PUSH1 0x64 DUP3 ADD MSTORE PUSH1 0x84 ADD PUSH2 0x90B JUMP JUMPDEST PUSH2 0xA2C DUP3 DUP3 PUSH2 0x17D7 JUMP JUMPDEST POP POP JUMP JUMPDEST PUSH1 0x0 DUP3 DUP2 MSTORE PUSH1 0x9 PUSH1 0x20 SWAP1 DUP2 MSTORE PUSH1 0x40 DUP1 DUP4 KECCAK256 SLOAD PUSH1 0xA SWAP1 SWAP3 MSTORE DUP3 KECCAK256 DUP1 SLOAD PUSH1 0x1 PUSH1 0x1 PUSH1 0xA0 SHL SUB SWAP1 SWAP3 AND SWAP3 SWAP2 PUSH2 0xA61 SWAP1 PUSH2 0x249A JUMP JUMPDEST DUP1 PUSH1 0x1F ADD PUSH1 0x20 DUP1 SWAP2 DIV MUL PUSH1 0x20 ADD PUSH1 0x40 MLOAD SWAP1 DUP2 ADD PUSH1 0x40 MSTORE DUP1 SWAP3 SWAP2 SWAP1 DUP2 DUP2 MSTORE PUSH1 0x20 ADD DUP3 DUP1 SLOAD PUSH2 0xA8D SWAP1 PUSH2 0x249A JUMP JUMPDEST DUP1 ISZERO PUSH2 0xADA JUMPI DUP1 PUSH1 0x1F LT PUSH2 0xAAF JUMPI PUSH2 0x100 DUP1 DUP4 SLOAD DIV MUL DUP4 MSTORE SWAP2 PUSH1 0x20 ADD SWAP2 PUSH2 0xADA JUMP JUMPDEST DUP3 ADD SWAP2 SWAP1 PUSH1 0x0 MSTORE PUSH1 0x20 PUSH1 0x0 KECCAK256 SWAP1 JUMPDEST DUP2 SLOAD DUP2 MSTORE SWAP1 PUSH1 0x1 ADD SWAP1 PUSH1 0x20 ADD DUP1 DUP4 GT PUSH2 0xABD JUMPI DUP3 SWAP1 SUB PUSH1 0x1F AND DUP3 ADD SWAP2 JUMPDEST POP POP PUSH1 0x14 SLOAD PUSH1 0x18 SLOAD SWAP5 SWAP6 POP SWAP4 PUSH2 0xAFE SWAP4 POP PUSH1 0x1 PUSH1 0x1 PUSH1 0xA0 SHL SUB AND SWAP2 POP DUP4 SWAP1 POP PUSH2 0x1871 JUMP JUMPDEST PUSH2 0xB08 DUP2 DUP4 PUSH2 0x17D7 JUMP JUMPDEST PUSH2 0xB11 DUP4 PUSH2 0x15CB JUMP JUMPDEST PUSH1 0x0 PUSH2 0xB1E PUSH1 0x1 DUP7 PUSH2 0x24EA JUMP JUMPDEST DUP1 ISZERO PUSH2 0xB2C JUMPI PUSH2 0xB2C PUSH2 0x2429 JUMP JUMPDEST PUSH1 0x0 DUP4 DUP2 MSTORE PUSH1 0xB PUSH1 0x20 MSTORE PUSH1 0x40 SWAP1 KECCAK256 DUP1 SLOAD SWAP2 SWAP3 POP DUP3 SWAP2 PUSH1 0xFF NOT AND PUSH1 0x1 DUP4 DUP1 ISZERO PUSH2 0xB56 JUMPI PUSH2 0xB56 PUSH2 0x2429 JUMP JUMPDEST MUL OR SWAP1 SSTORE POP PUSH1 0x0 DUP7 DUP2 MSTORE PUSH1 0xC PUSH1 0x20 SWAP1 DUP2 MSTORE PUSH1 0x40 DUP1 DUP4 KECCAK256 DUP6 SWAP1 SSTORE PUSH1 0x1 PUSH1 0x1 PUSH1 0xA0 SHL SUB DUP8 AND DUP4 MSTORE PUSH1 0xD SWAP1 SWAP2 MSTORE SWAP1 KECCAK256 DUP3 SWAP1 SSTORE PUSH1 0x14 SLOAD PUSH2 0xB93 SWAP1 PUSH1 0x1 PUSH2 0x2514 JUMP JUMPDEST PUSH1 0x14 SSTORE PUSH1 0x40 MLOAD DUP6 DUP2 MSTORE DUP7 SWAP1 PUSH32 0xD996551A703BF267A3068BB00CE0D5967B05FBAB9B7091219D8E95226E9E0E3D SWAP1 PUSH1 0x20 ADD PUSH1 0x40 MLOAD DUP1 SWAP2 SUB SWAP1 LOG2 POP POP POP POP POP POP JUMP JUMPDEST PUSH2 0xBDD CALLER DUP3 PUSH2 0x1759 JUMP JUMPDEST PUSH2 0xBF9 JUMPI PUSH1 0x40 MLOAD PUSH3 0x461BCD PUSH1 0xE5 SHL DUP2 MSTORE PUSH1 0x4 ADD PUSH2 0x90B SWAP1 PUSH2 0x252C JUMP JUMPDEST PUSH2 0x9AC DUP4 DUP4 DUP4 PUSH2 0x188B JUMP JUMPDEST PUSH1 0x7 SLOAD PUSH1 0x40 MLOAD PUSH4 0x95EA7B3 PUSH1 0xE0 SHL DUP2 MSTORE PUSH1 0x1 PUSH1 0x1 PUSH1 0xA0 SHL SUB DUP5 DUP2 AND PUSH1 0x4 DUP4 ADD MSTORE PUSH1 0x24 DUP3 ADD DUP5 SWAP1 MSTORE SWAP1 SWAP2 AND SWAP1 PUSH4 0x95EA7B3 SWAP1 PUSH1 0x44 ADD PUSH1 0x20 PUSH1 0x40 MLOAD DUP1 DUP4 SUB DUP2 PUSH1 0x0 DUP8 GAS CALL ISZERO DUP1 ISZERO PUSH2 0xC57 JUMPI RETURNDATASIZE PUSH1 0x0 DUP1 RETURNDATACOPY RETURNDATASIZE PUSH1 0x0 REVERT JUMPDEST POP POP POP POP PUSH1 0x40 MLOAD RETURNDATASIZE PUSH1 0x1F NOT PUSH1 0x1F DUP3 ADD AND DUP3 ADD DUP1 PUSH1 0x40 MSTORE POP DUP2 ADD SWAP1 PUSH2 0x9AC SWAP2 SWAP1 PUSH2 0x2579 JUMP JUMPDEST PUSH2 0x9AC DUP4 DUP4 DUP4 PUSH1 0x40 MLOAD DUP1 PUSH1 0x20 ADD PUSH1 0x40 MSTORE DUP1 PUSH1 0x0 DUP2 MSTORE POP PUSH2 0x13D0 JUMP JUMPDEST PUSH1 0x12 DUP2 DUP2 SLOAD DUP2 LT PUSH2 0xCA6 JUMPI PUSH1 0x0 DUP1 REVERT JUMPDEST PUSH1 0x0 SWAP2 DUP3 MSTORE PUSH1 0x20 SWAP1 SWAP2 KECCAK256 ADD SLOAD PUSH1 0x1 PUSH1 0x1 PUSH1 0xA0 SHL SUB AND SWAP1 POP DUP2 JUMP JUMPDEST CALLER PUSH1 0x0 SWAP1 DUP2 MSTORE PUSH1 0x11 PUSH1 0x20 MSTORE PUSH1 0x40 SWAP1 KECCAK256 SLOAD PUSH1 0xFF AND ISZERO ISZERO PUSH1 0x1 EQ PUSH2 0xD1D JUMPI PUSH1 0x40 MLOAD PUSH3 0x461BCD PUSH1 0xE5 SHL DUP2 MSTORE PUSH1 0x20 PUSH1 0x4 DUP3 ADD MSTORE PUSH1 0x16 PUSH1 0x24 DUP3 ADD MSTORE PUSH22 0x1CD95B99195C88191BDB9D081A1BDB190818481B999D PUSH1 0x52 SHL PUSH1 0x44 DUP3 ADD MSTORE PUSH1 0x64 ADD PUSH2 0x90B JUMP JUMPDEST CALLER PUSH1 0x0 SWAP1 DUP2 MSTORE PUSH1 0xD PUSH1 0x20 SWAP1 DUP2 MSTORE PUSH1 0x40 DUP1 DUP4 KECCAK256 SLOAD DUP1 DUP5 MSTORE PUSH1 0x10 SWAP1 SWAP3 MSTORE DUP3 KECCAK256 SLOAD PUSH1 0x13 DUP1 SLOAD SWAP3 SWAP4 SWAP2 SWAP3 DUP4 SWAP3 SWAP1 PUSH2 0xD51 SWAP1 DUP5 SWAP1 PUSH2 0x2514 JUMP JUMPDEST SWAP1 SWAP2 SSTORE POP PUSH2 0xD61 SWAP1 POP CALLER DUP3 PUSH2 0xC04 JUMP JUMPDEST PUSH1 0x7 SLOAD PUSH1 0x40 MLOAD PUSH4 0x23B872DD PUSH1 0xE0 SHL DUP2 MSTORE ADDRESS PUSH1 0x4 DUP3 ADD MSTORE CALLER PUSH1 0x24 DUP3 ADD MSTORE PUSH1 0x44 DUP2 ADD DUP4 SWAP1 MSTORE PUSH1 0x1 PUSH1 0x1 PUSH1 0xA0 SHL SUB SWAP1 SWAP2 AND SWAP1 PUSH4 0x23B872DD SWAP1 PUSH1 0x64 ADD PUSH1 0x20 PUSH1 0x40 MLOAD DUP1 DUP4 SUB DUP2 PUSH1 0x0 DUP8 GAS CALL ISZERO DUP1 ISZERO PUSH2 0xDB8 JUMPI RETURNDATASIZE PUSH1 0x0 DUP1 RETURNDATACOPY RETURNDATASIZE PUSH1 0x0 REVERT JUMPDEST POP POP POP POP PUSH1 0x40 MLOAD RETURNDATASIZE PUSH1 0x1F NOT PUSH1 0x1F DUP3 ADD AND DUP3 ADD DUP1 PUSH1 0x40 MSTORE POP DUP2 ADD SWAP1 PUSH2 0xDDC SWAP2 SWAP1 PUSH2 0x2579 JUMP JUMPDEST POP PUSH1 0x0 DUP3 DUP2 MSTORE PUSH1 0x10 PUSH1 0x20 SWAP1 DUP2 MSTORE PUSH1 0x40 DUP1 DUP4 KECCAK256 SWAP3 SWAP1 SWAP3 SSTORE DUP2 MLOAD CALLER DUP2 MSTORE SWAP1 DUP2 ADD DUP4 SWAP1 MSTORE PUSH32 0xCEA16A2D83554574DEF1EDF3EC1FB53F1373F7EBB1FA98FECDAA4268588793CC SWAP2 ADD JUMPDEST PUSH1 0x40 MLOAD DUP1 SWAP2 SUB SWAP1 LOG1 POP POP JUMP JUMPDEST PUSH1 0x0 DUP2 DUP2 MSTORE PUSH1 0x2 PUSH1 0x20 MSTORE PUSH1 0x40 DUP2 KECCAK256 SLOAD PUSH1 0x1 PUSH1 0x1 PUSH1 0xA0 SHL SUB AND DUP1 PUSH2 0x7D8 JUMPI PUSH1 0x40 MLOAD PUSH3 0x461BCD PUSH1 0xE5 SHL DUP2 MSTORE PUSH1 0x20 PUSH1 0x4 DUP3 ADD MSTORE PUSH1 0x18 PUSH1 0x24 DUP3 ADD MSTORE PUSH24 0x115490CDCC8C4E881A5B9D985B1A59081D1BDAD95B881251 PUSH1 0x42 SHL PUSH1 0x44 DUP3 ADD MSTORE PUSH1 0x64 ADD PUSH2 0x90B JUMP JUMPDEST PUSH1 0x0 PUSH1 0x1 PUSH1 0x1 PUSH1 0xA0 SHL SUB DUP3 AND PUSH2 0xEF7 JUMPI PUSH1 0x40 MLOAD PUSH3 0x461BCD PUSH1 0xE5 SHL DUP2 MSTORE PUSH1 0x20 PUSH1 0x4 DUP3 ADD MSTORE PUSH1 0x29 PUSH1 0x24 DUP3 ADD MSTORE PUSH32 0x4552433732313A2061646472657373207A65726F206973206E6F742061207661 PUSH1 0x44 DUP3 ADD MSTORE PUSH9 0x3634B21037BBB732B9 PUSH1 0xB9 SHL PUSH1 0x64 DUP3 ADD MSTORE PUSH1 0x84 ADD PUSH2 0x90B JUMP JUMPDEST POP PUSH1 0x1 PUSH1 0x1 PUSH1 0xA0 SHL SUB AND PUSH1 0x0 SWAP1 DUP2 MSTORE PUSH1 0x3 PUSH1 0x20 MSTORE PUSH1 0x40 SWAP1 KECCAK256 SLOAD SWAP1 JUMP JUMPDEST PUSH1 0x0 PUSH1 0x19 SLOAD DUP3 PUSH2 0xF23 SWAP2 SWAP1 PUSH2 0x2596 JUMP JUMPDEST SWAP1 POP PUSH1 0x0 JUMPDEST PUSH1 0x19 SLOAD DUP2 LT ISZERO PUSH2 0xF68 JUMPI PUSH1 0x0 DUP2 DUP2 MSTORE PUSH1 0x10 PUSH1 0x20 MSTORE PUSH1 0x40 DUP2 KECCAK256 DUP1 SLOAD DUP5 SWAP3 SWAP1 PUSH2 0xF50 SWAP1 DUP5 SWAP1 PUSH2 0x2514 JUMP JUMPDEST SWAP1 SWAP2 SSTORE POP DUP2 SWAP1 POP PUSH2 0xF60 DUP2 PUSH2 0x25AA JUMP JUMPDEST SWAP2 POP POP PUSH2 0xF28 JUMP JUMPDEST POP PUSH1 0x40 MLOAD DUP3 DUP2 MSTORE PUSH32 0x22712B798AE7934EC355D80DA68E214E1ADA67AA7C0AB551450DFFEB27F10D2E SWAP1 PUSH1 0x20 ADD PUSH2 0xE21 JUMP JUMPDEST PUSH1 0x60 PUSH1 0x1 DUP1 SLOAD PUSH2 0x7ED SWAP1 PUSH2 0x249A JUMP JUMPDEST PUSH1 0x7 SLOAD PUSH1 0x40 MLOAD PUSH4 0x70A08231 PUSH1 0xE0 SHL DUP2 MSTORE ADDRESS PUSH1 0x4 DUP3 ADD MSTORE PUSH1 0x0 SWAP2 PUSH1 0x1 PUSH1 0x1 PUSH1 0xA0 SHL SUB AND SWAP1 PUSH4 0x70A08231 SWAP1 PUSH1 0x24 ADD PUSH1 0x20 PUSH1 0x40 MLOAD DUP1 DUP4 SUB DUP2 DUP7 GAS STATICCALL ISZERO DUP1 ISZERO PUSH2 0xFF1 JUMPI RETURNDATASIZE PUSH1 0x0 DUP1 RETURNDATACOPY RETURNDATASIZE PUSH1 0x0 REVERT JUMPDEST POP POP POP POP PUSH1 0x40 MLOAD RETURNDATASIZE PUSH1 0x1F NOT PUSH1 0x1F DUP3 ADD AND DUP3 ADD DUP1 PUSH1 0x40 MSTORE POP DUP2 ADD SWAP1 PUSH2 0x1015 SWAP2 SWAP1 PUSH2 0x25C3 JUMP JUMPDEST PUSH1 0x7 SLOAD PUSH1 0x40 MLOAD PUSH4 0x70A08231 PUSH1 0xE0 SHL DUP2 MSTORE ADDRESS PUSH1 0x4 DUP3 ADD MSTORE SWAP2 SWAP3 POP PUSH1 0x64 SWAP2 PUSH1 0x1 PUSH1 0x1 PUSH1 0xA0 SHL SUB SWAP1 SWAP2 AND SWAP1 PUSH4 0x70A08231 SWAP1 PUSH1 0x24 ADD PUSH1 0x20 PUSH1 0x40 MLOAD DUP1 DUP4 SUB DUP2 DUP7 GAS STATICCALL ISZERO DUP1 ISZERO PUSH2 0x1063 JUMPI RETURNDATASIZE PUSH1 0x0 DUP1 RETURNDATACOPY RETURNDATASIZE PUSH1 0x0 REVERT JUMPDEST POP POP POP POP PUSH1 0x40 MLOAD RETURNDATASIZE PUSH1 0x1F NOT PUSH1 0x1F DUP3 ADD AND DUP3 ADD DUP1 PUSH1 0x40 MSTORE POP DUP2 ADD SWAP1 PUSH2 0x1087 SWAP2 SWAP1 PUSH2 0x25C3 JUMP JUMPDEST GT PUSH2 0x10CD JUMPI PUSH1 0x40 MLOAD PUSH3 0x461BCD PUSH1 0xE5 SHL DUP2 MSTORE PUSH1 0x20 PUSH1 0x4 DUP3 ADD MSTORE PUSH1 0x16 PUSH1 0x24 DUP3 ADD MSTORE PUSH22 0x18985B185B98D9481B9BDD081CDD59999A58DA595B9D PUSH1 0x52 SHL PUSH1 0x44 DUP3 ADD MSTORE PUSH1 0x64 ADD PUSH2 0x90B JUMP JUMPDEST PUSH1 0x0 PUSH1 0x64 PUSH1 0x15 SLOAD DUP4 PUSH2 0x10DF SWAP2 SWAP1 PUSH2 0x25DC JUMP JUMPDEST PUSH2 0x10E9 SWAP2 SWAP1 PUSH2 0x2596 JUMP JUMPDEST SWAP1 POP PUSH1 0x0 JUMPDEST PUSH1 0x12 SLOAD DUP2 LT ISZERO PUSH2 0x9AC JUMPI PUSH1 0x0 PUSH1 0x12 DUP3 DUP2 SLOAD DUP2 LT PUSH2 0x110D JUMPI PUSH2 0x110D PUSH2 0x25FB JUMP JUMPDEST PUSH1 0x0 SWAP2 DUP3 MSTORE PUSH1 0x20 SWAP1 SWAP2 KECCAK256 ADD SLOAD PUSH1 0x7 SLOAD PUSH1 0x40 MLOAD PUSH4 0xA9059CBB PUSH1 0xE0 SHL DUP2 MSTORE PUSH1 0x1 PUSH1 0x1 PUSH1 0xA0 SHL SUB SWAP3 DUP4 AND PUSH1 0x4 DUP3 ADD DUP2 SWAP1 MSTORE PUSH1 0x24 DUP3 ADD DUP8 SWAP1 MSTORE SWAP4 POP SWAP2 AND SWAP1 PUSH4 0xA9059CBB SWAP1 PUSH1 0x44 ADD PUSH1 0x20 PUSH1 0x40 MLOAD DUP1 DUP4 SUB DUP2 PUSH1 0x0 DUP8 GAS CALL ISZERO DUP1 ISZERO PUSH2 0x116F JUMPI RETURNDATASIZE PUSH1 0x0 DUP1 RETURNDATACOPY RETURNDATASIZE PUSH1 0x0 REVERT JUMPDEST POP POP POP POP PUSH1 0x40 MLOAD RETURNDATASIZE PUSH1 0x1F NOT PUSH1 0x1F DUP3 ADD AND DUP3 ADD DUP1 PUSH1 0x40 MSTORE POP DUP2 ADD SWAP1 PUSH2 0x1193 SWAP2 SWAP1 PUSH2 0x2579 JUMP JUMPDEST POP PUSH2 0x119E DUP4 DUP6 PUSH2 0x2611 JUMP JUMPDEST PUSH1 0x40 DUP1 MLOAD PUSH1 0x1 PUSH1 0x1 PUSH1 0xA0 SHL SUB DUP5 AND DUP2 MSTORE PUSH1 0x20 DUP2 ADD DUP7 SWAP1 MSTORE SWAP2 SWAP6 POP PUSH32 0xCEA16A2D83554574DEF1EDF3EC1FB53F1373F7EBB1FA98FECDAA4268588793CC SWAP2 ADD PUSH1 0x40 MLOAD DUP1 SWAP2 SUB SWAP1 LOG1 POP DUP1 PUSH2 0x11EE DUP2 PUSH2 0x25AA JUMP JUMPDEST SWAP2 POP POP PUSH2 0x10EE JUMP JUMPDEST PUSH2 0xA2C CALLER DUP4 DUP4 PUSH2 0x19FC JUMP JUMPDEST PUSH1 0x8 SLOAD PUSH1 0x40 MLOAD PUSH4 0x70A08231 PUSH1 0xE0 SHL DUP2 MSTORE CALLER PUSH1 0x4 DUP3 ADD MSTORE PUSH2 0xC350 SWAP2 PUSH1 0x1 PUSH1 0x1 PUSH1 0xA0 SHL SUB AND SWAP1 PUSH4 0x70A08231 SWAP1 PUSH1 0x24 ADD PUSH1 0x20 PUSH1 0x40 MLOAD DUP1 DUP4 SUB DUP2 DUP7 GAS STATICCALL ISZERO DUP1 ISZERO PUSH2 0x124B JUMPI RETURNDATASIZE PUSH1 0x0 DUP1 RETURNDATACOPY RETURNDATASIZE PUSH1 0x0 REVERT JUMPDEST POP POP POP POP PUSH1 0x40 MLOAD RETURNDATASIZE PUSH1 0x1F NOT PUSH1 0x1F DUP3 ADD AND DUP3 ADD DUP1 PUSH1 0x40 MSTORE POP DUP2 ADD SWAP1 PUSH2 0x126F SWAP2 SWAP1 PUSH2 0x25C3 JUMP JUMPDEST GT PUSH2 0x12BC JUMPI PUSH1 0x40 MLOAD PUSH3 0x461BCD PUSH1 0xE5 SHL DUP2 MSTORE PUSH1 0x20 PUSH1 0x4 DUP3 ADD MSTORE PUSH1 0x1F PUSH1 0x24 DUP3 ADD MSTORE PUSH32 0x62616C616E6365206E6F7420656E6F7567687420746F206D696E74206E667400 PUSH1 0x44 DUP3 ADD MSTORE PUSH1 0x64 ADD PUSH2 0x90B JUMP JUMPDEST PUSH1 0x8 SLOAD PUSH1 0x40 MLOAD PUSH4 0x23B872DD PUSH1 0xE0 SHL DUP2 MSTORE CALLER PUSH1 0x4 DUP3 ADD MSTORE ADDRESS PUSH1 0x24 DUP3 ADD MSTORE PUSH2 0xC350 PUSH1 0x44 DUP3 ADD MSTORE PUSH1 0x1 PUSH1 0x1 PUSH1 0xA0 SHL SUB SWAP1 SWAP2 AND SWAP1 PUSH4 0x23B872DD SWAP1 PUSH1 0x64 ADD PUSH1 0x20 PUSH1 0x40 MLOAD DUP1 DUP4 SUB DUP2 PUSH1 0x0 DUP8 GAS CALL ISZERO DUP1 ISZERO PUSH2 0x1314 JUMPI RETURNDATASIZE PUSH1 0x0 DUP1 RETURNDATACOPY RETURNDATASIZE PUSH1 0x0 REVERT JUMPDEST POP POP POP POP PUSH1 0x40 MLOAD RETURNDATASIZE PUSH1 0x1F NOT PUSH1 0x1F DUP3 ADD AND DUP3 ADD DUP1 PUSH1 0x40 MSTORE POP DUP2 ADD SWAP1 PUSH2 0x1338 SWAP2 SWAP1 PUSH2 0x2579 JUMP JUMPDEST POP PUSH1 0x16 SLOAD PUSH1 0x0 DUP2 DUP2 MSTORE PUSH1 0x9 PUSH1 0x20 SWAP1 DUP2 MSTORE PUSH1 0x40 DUP1 DUP4 KECCAK256 DUP1 SLOAD PUSH1 0x1 PUSH1 0x1 PUSH1 0xA0 SHL SUB NOT AND CALLER OR SWAP1 SSTORE PUSH1 0xA DUP3 MSTORE SWAP1 SWAP2 KECCAK256 DUP4 MLOAD PUSH2 0x1372 SWAP3 DUP6 ADD SWAP1 PUSH2 0x2031 JUMP JUMPDEST POP PUSH2 0x137F DUP2 PUSH1 0x17 SLOAD PUSH2 0xA30 JUMP JUMPDEST PUSH1 0x16 SLOAD PUSH2 0x138D SWAP1 PUSH1 0x1 PUSH2 0x2514 JUMP JUMPDEST PUSH1 0x16 SSTORE PUSH1 0x17 SLOAD PUSH2 0x139E SWAP1 PUSH1 0x1 PUSH2 0x2514 JUMP JUMPDEST PUSH1 0x17 SSTORE PUSH1 0x40 MLOAD DUP2 SWAP1 PUSH32 0x29F8474DEE2F5F19AB0C7B6F5136824047CD822E5C7BB7526DF99D7C9258B075 SWAP1 PUSH1 0x0 SWAP1 LOG2 POP POP JUMP JUMPDEST PUSH2 0x13D9 CALLER PUSH2 0x9B6 JUMP JUMPDEST PUSH2 0x13F5 JUMPI PUSH1 0x40 MLOAD PUSH3 0x461BCD PUSH1 0xE5 SHL DUP2 MSTORE PUSH1 0x4 ADD PUSH2 0x90B SWAP1 PUSH2 0x252C JUMP JUMPDEST PUSH2 0x1401 DUP5 DUP5 DUP5 DUP5 PUSH2 0x1ACA JUMP JUMPDEST POP POP POP POP JUMP JUMPDEST PUSH1 0x12 SLOAD PUSH2 0x1456 JUMPI PUSH1 0x40 MLOAD PUSH3 0x461BCD PUSH1 0xE5 SHL DUP2 MSTORE PUSH1 0x20 PUSH1 0x4 DUP3 ADD MSTORE PUSH1 0x1A PUSH1 0x24 DUP3 ADD MSTORE PUSH32 0x746869732069732074686520666972737420636F6E7472616374000000000000 PUSH1 0x44 DUP3 ADD MSTORE PUSH1 0x64 ADD PUSH2 0x90B JUMP JUMPDEST PUSH1 0x12 SLOAD PUSH1 0x0 SWAP1 PUSH2 0x1467 SWAP1 PUSH1 0x1 PUSH2 0x2514 JUMP JUMPDEST SWAP1 POP PUSH1 0x0 PUSH1 0x19 SLOAD DUP3 PUSH2 0x1479 SWAP2 SWAP1 PUSH2 0x25DC JUMP JUMPDEST SWAP1 POP PUSH1 0x0 DUP2 PUSH1 0x19 SLOAD PUSH2 0x148B SWAP2 SWAP1 PUSH2 0x2596 JUMP JUMPDEST SWAP1 POP PUSH1 0x0 PUSH2 0x149A DUP5 PUSH1 0x1 PUSH2 0x2596 JUMP JUMPDEST SWAP1 POP PUSH1 0x2 PUSH2 0x14A8 DUP3 DUP5 PUSH2 0x2514 JUMP JUMPDEST PUSH2 0x14B2 SWAP2 SWAP1 PUSH2 0x2596 JUMP JUMPDEST PUSH1 0x15 SSTORE POP POP POP POP JUMP JUMPDEST PUSH1 0x60 PUSH2 0x14C6 DUP3 PUSH2 0x1689 JUMP JUMPDEST PUSH1 0x0 DUP3 DUP2 MSTORE PUSH1 0x6 PUSH1 0x20 MSTORE PUSH1 0x40 DUP2 KECCAK256 DUP1 SLOAD PUSH2 0x14DF SWAP1 PUSH2 0x249A JUMP JUMPDEST DUP1 PUSH1 0x1F ADD PUSH1 0x20 DUP1 SWAP2 DIV MUL PUSH1 0x20 ADD PUSH1 0x40 MLOAD SWAP1 DUP2 ADD PUSH1 0x40 MSTORE DUP1 SWAP3 SWAP2 SWAP1 DUP2 DUP2 MSTORE PUSH1 0x20 ADD DUP3 DUP1 SLOAD PUSH2 0x150B SWAP1 PUSH2 0x249A JUMP JUMPDEST DUP1 ISZERO PUSH2 0x1558 JUMPI DUP1 PUSH1 0x1F LT PUSH2 0x152D JUMPI PUSH2 0x100 DUP1 DUP4 SLOAD DIV MUL DUP4 MSTORE SWAP2 PUSH1 0x20 ADD SWAP2 PUSH2 0x1558 JUMP JUMPDEST DUP3 ADD SWAP2 SWAP1 PUSH1 0x0 MSTORE PUSH1 0x20 PUSH1 0x0 KECCAK256 SWAP1 JUMPDEST DUP2 SLOAD DUP2 MSTORE SWAP1 PUSH1 0x1 ADD SWAP1 PUSH1 0x20 ADD DUP1 DUP4 GT PUSH2 0x153B JUMPI DUP3 SWAP1 SUB PUSH1 0x1F AND DUP3 ADD SWAP2 JUMPDEST POP POP POP POP POP SWAP1 POP PUSH1 0x0 PUSH2 0x1576 PUSH1 0x40 DUP1 MLOAD PUSH1 0x20 DUP2 ADD SWAP1 SWAP2 MSTORE PUSH1 0x0 DUP2 MSTORE SWAP1 JUMP JUMPDEST SWAP1 POP DUP1 MLOAD PUSH1 0x0 SUB PUSH2 0x1588 JUMPI POP SWAP3 SWAP2 POP POP JUMP JUMPDEST DUP2 MLOAD ISZERO PUSH2 0x15BA JUMPI DUP1 DUP3 PUSH1 0x40 MLOAD PUSH1 0x20 ADD PUSH2 0x15A2 SWAP3 SWAP2 SWAP1 PUSH2 0x2628 JUMP JUMPDEST PUSH1 0x40 MLOAD PUSH1 0x20 DUP2 DUP4 SUB SUB DUP2 MSTORE SWAP1 PUSH1 0x40 MSTORE SWAP3 POP POP POP SWAP2 SWAP1 POP JUMP JUMPDEST PUSH2 0x15C3 DUP5 PUSH2 0x1AFD JUMP JUMPDEST SWAP5 SWAP4 POP POP POP POP JUMP JUMPDEST PUSH1 0x1 PUSH1 0x1 PUSH1 0xA0 SHL SUB AND PUSH1 0x0 SWAP1 DUP2 MSTORE PUSH1 0x11 PUSH1 0x20 MSTORE PUSH1 0x40 SWAP1 KECCAK256 DUP1 SLOAD PUSH1 0xFF NOT AND PUSH1 0x1 OR SWAP1 SSTORE JUMP JUMPDEST PUSH1 0xA PUSH1 0x20 MSTORE PUSH1 0x0 SWAP1 DUP2 MSTORE PUSH1 0x40 SWAP1 KECCAK256 DUP1 SLOAD PUSH2 0x1608 SWAP1 PUSH2 0x249A JUMP JUMPDEST DUP1 PUSH1 0x1F ADD PUSH1 0x20 DUP1 SWAP2 DIV MUL PUSH1 0x20 ADD PUSH1 0x40 MLOAD SWAP1 DUP2 ADD PUSH1 0x40 MSTORE DUP1 SWAP3 SWAP2 SWAP1 DUP2 DUP2 MSTORE PUSH1 0x20 ADD DUP3 DUP1 SLOAD PUSH2 0x1634 SWAP1 PUSH2 0x249A JUMP JUMPDEST DUP1 ISZERO PUSH2 0x1681 JUMPI DUP1 PUSH1 0x1F LT PUSH2 0x1656 JUMPI PUSH2 0x100 DUP1 DUP4 SLOAD DIV MUL DUP4 MSTORE SWAP2 PUSH1 0x20 ADD SWAP2 PUSH2 0x1681 JUMP JUMPDEST DUP3 ADD SWAP2 SWAP1 PUSH1 0x0 MSTORE PUSH1 0x20 PUSH1 0x0 KECCAK256 SWAP1 JUMPDEST DUP2 SLOAD DUP2 MSTORE SWAP1 PUSH1 0x1 ADD SWAP1 PUSH1 0x20 ADD DUP1 DUP4 GT PUSH2 0x1664 JUMPI DUP3 SWAP1 SUB PUSH1 0x1F AND DUP3 ADD SWAP2 JUMPDEST POP POP POP POP POP DUP2 JUMP JUMPDEST PUSH1 0x0 DUP2 DUP2 MSTORE PUSH1 0x2 PUSH1 0x20 MSTORE PUSH1 0x40 SWAP1 KECCAK256 SLOAD PUSH1 0x1 PUSH1 0x1 PUSH1 0xA0 SHL SUB AND PUSH2 0x16E8 JUMPI PUSH1 0x40 MLOAD PUSH3 0x461BCD PUSH1 0xE5 SHL DUP2 MSTORE PUSH1 0x20 PUSH1 0x4 DUP3 ADD MSTORE PUSH1 0x18 PUSH1 0x24 DUP3 ADD MSTORE PUSH24 0x115490CDCC8C4E881A5B9D985B1A59081D1BDAD95B881251 PUSH1 0x42 SHL PUSH1 0x44 DUP3 ADD MSTORE PUSH1 0x64 ADD PUSH2 0x90B JUMP JUMPDEST POP JUMP JUMPDEST PUSH1 0x0 DUP2 DUP2 MSTORE PUSH1 0x4 PUSH1 0x20 MSTORE PUSH1 0x40 SWAP1 KECCAK256 DUP1 SLOAD PUSH1 0x1 PUSH1 0x1 PUSH1 0xA0 SHL SUB NOT AND PUSH1 0x1 PUSH1 0x1 PUSH1 0xA0 SHL SUB DUP5 AND SWAP1 DUP2 OR SWAP1 SWAP2 SSTORE DUP2 SWAP1 PUSH2 0x1720 DUP3 PUSH2 0xE2D JUMP JUMPDEST PUSH1 0x1 PUSH1 0x1 PUSH1 0xA0 SHL SUB AND PUSH32 0x8C5BE1E5EBEC7D5BD14F71427D1E84F3DD0314C0F7B2291E5B200AC8C7C3B925 PUSH1 0x40 MLOAD PUSH1 0x40 MLOAD DUP1 SWAP2 SUB SWAP1 LOG4 POP POP JUMP JUMPDEST PUSH1 0x0 DUP1 PUSH2 0x1765 DUP4 PUSH2 0xE2D JUMP JUMPDEST SWAP1 POP DUP1 PUSH1 0x1 PUSH1 0x1 PUSH1 0xA0 SHL SUB AND DUP5 PUSH1 0x1 PUSH1 0x1 PUSH1 0xA0 SHL SUB AND EQ DUP1 PUSH2 0x17AC JUMPI POP PUSH1 0x1 PUSH1 0x1 PUSH1 0xA0 SHL SUB DUP1 DUP3 AND PUSH1 0x0 SWAP1 DUP2 MSTORE PUSH1 0x5 PUSH1 0x20 SWAP1 DUP2 MSTORE PUSH1 0x40 DUP1 DUP4 KECCAK256 SWAP4 DUP9 AND DUP4 MSTORE SWAP3 SWAP1 MSTORE KECCAK256 SLOAD PUSH1 0xFF AND JUMPDEST DUP1 PUSH2 0x15C3 JUMPI POP DUP4 PUSH1 0x1 PUSH1 0x1 PUSH1 0xA0 SHL SUB AND PUSH2 0x17C5 DUP5 PUSH2 0x870 JUMP JUMPDEST PUSH1 0x1 PUSH1 0x1 PUSH1 0xA0 SHL SUB AND EQ SWAP5 SWAP4 POP POP POP POP JUMP JUMPDEST PUSH1 0x0 DUP3 DUP2 MSTORE PUSH1 0x2 PUSH1 0x20 MSTORE PUSH1 0x40 SWAP1 KECCAK256 SLOAD PUSH1 0x1 PUSH1 0x1 PUSH1 0xA0 SHL SUB AND PUSH2 0x1852 JUMPI PUSH1 0x40 MLOAD PUSH3 0x461BCD PUSH1 0xE5 SHL DUP2 MSTORE PUSH1 0x20 PUSH1 0x4 DUP3 ADD MSTORE PUSH1 0x2E PUSH1 0x24 DUP3 ADD MSTORE PUSH32 0x45524337323155524953746F726167653A2055524920736574206F66206E6F6E PUSH1 0x44 DUP3 ADD MSTORE PUSH14 0x32BC34B9BA32B73A103A37B5B2B7 PUSH1 0x91 SHL PUSH1 0x64 DUP3 ADD MSTORE PUSH1 0x84 ADD PUSH2 0x90B JUMP JUMPDEST PUSH1 0x0 DUP3 DUP2 MSTORE PUSH1 0x6 PUSH1 0x20 SWAP1 DUP2 MSTORE PUSH1 0x40 SWAP1 SWAP2 KECCAK256 DUP3 MLOAD PUSH2 0x9AC SWAP3 DUP5 ADD SWAP1 PUSH2 0x2031 JUMP JUMPDEST PUSH2 0xA2C DUP3 DUP3 PUSH1 0x40 MLOAD DUP1 PUSH1 0x20 ADD PUSH1 0x40 MSTORE DUP1 PUSH1 0x0 DUP2 MSTORE POP PUSH2 0x1B71 JUMP JUMPDEST DUP3 PUSH1 0x1 PUSH1 0x1 PUSH1 0xA0 SHL SUB AND PUSH2 0x189E DUP3 PUSH2 0xE2D JUMP JUMPDEST PUSH1 0x1 PUSH1 0x1 PUSH1 0xA0 SHL SUB AND EQ PUSH2 0x18C4 JUMPI PUSH1 0x40 MLOAD PUSH3 0x461BCD PUSH1 0xE5 SHL DUP2 MSTORE PUSH1 0x4 ADD PUSH2 0x90B SWAP1 PUSH2 0x2657 JUMP JUMPDEST PUSH1 0x1 PUSH1 0x1 PUSH1 0xA0 SHL SUB DUP3 AND PUSH2 0x1926 JUMPI PUSH1 0x40 MLOAD PUSH3 0x461BCD PUSH1 0xE5 SHL DUP2 MSTORE PUSH1 0x20 PUSH1 0x4 DUP3 ADD MSTORE PUSH1 0x24 DUP1 DUP3 ADD MSTORE PUSH32 0x4552433732313A207472616E7366657220746F20746865207A65726F20616464 PUSH1 0x44 DUP3 ADD MSTORE PUSH4 0x72657373 PUSH1 0xE0 SHL PUSH1 0x64 DUP3 ADD MSTORE PUSH1 0x84 ADD PUSH2 0x90B JUMP JUMPDEST PUSH2 0x1933 DUP4 DUP4 DUP4 PUSH1 0x1 PUSH2 0x1BA4 JUMP JUMPDEST DUP3 PUSH1 0x1 PUSH1 0x1 PUSH1 0xA0 SHL SUB AND PUSH2 0x1946 DUP3 PUSH2 0xE2D JUMP JUMPDEST PUSH1 0x1 PUSH1 0x1 PUSH1 0xA0 SHL SUB AND EQ PUSH2 0x196C JUMPI PUSH1 0x40 MLOAD PUSH3 0x461BCD PUSH1 0xE5 SHL DUP2 MSTORE PUSH1 0x4 ADD PUSH2 0x90B SWAP1 PUSH2 0x2657 JUMP JUMPDEST PUSH1 0x0 DUP2 DUP2 MSTORE PUSH1 0x4 PUSH1 0x20 SWAP1 DUP2 MSTORE PUSH1 0x40 DUP1 DUP4 KECCAK256 DUP1 SLOAD PUSH1 0x1 PUSH1 0x1 PUSH1 0xA0 SHL SUB NOT SWAP1 DUP2 AND SWAP1 SWAP2 SSTORE PUSH1 0x1 PUSH1 0x1 PUSH1 0xA0 SHL SUB DUP8 DUP2 AND DUP1 DUP7 MSTORE PUSH1 0x3 DUP6 MSTORE DUP4 DUP7 KECCAK256 DUP1 SLOAD PUSH1 0x0 NOT ADD SWAP1 SSTORE SWAP1 DUP8 AND DUP1 DUP7 MSTORE DUP4 DUP7 KECCAK256 DUP1 SLOAD PUSH1 0x1 ADD SWAP1 SSTORE DUP7 DUP7 MSTORE PUSH1 0x2 SWAP1 SWAP5 MSTORE DUP3 DUP6 KECCAK256 DUP1 SLOAD SWAP1 SWAP3 AND DUP5 OR SWAP1 SWAP2 SSTORE SWAP1 MLOAD DUP5 SWAP4 PUSH32 0xDDF252AD1BE2C89B69C2B068FC378DAA952BA7F163C4A11628F55A4DF523B3EF SWAP2 LOG4 POP POP POP JUMP JUMPDEST DUP2 PUSH1 0x1 PUSH1 0x1 PUSH1 0xA0 SHL SUB AND DUP4 PUSH1 0x1 PUSH1 0x1 PUSH1 0xA0 SHL SUB AND SUB PUSH2 0x1A5D JUMPI PUSH1 0x40 MLOAD PUSH3 0x461BCD PUSH1 0xE5 SHL DUP2 MSTORE PUSH1 0x20 PUSH1 0x4 DUP3 ADD MSTORE PUSH1 0x19 PUSH1 0x24 DUP3 ADD MSTORE PUSH32 0x4552433732313A20617070726F766520746F2063616C6C657200000000000000 PUSH1 0x44 DUP3 ADD MSTORE PUSH1 0x64 ADD PUSH2 0x90B JUMP JUMPDEST PUSH1 0x1 PUSH1 0x1 PUSH1 0xA0 SHL SUB DUP4 DUP2 AND PUSH1 0x0 DUP2 DUP2 MSTORE PUSH1 0x5 PUSH1 0x20 SWAP1 DUP2 MSTORE PUSH1 0x40 DUP1 DUP4 KECCAK256 SWAP5 DUP8 AND DUP1 DUP5 MSTORE SWAP5 DUP3 MSTORE SWAP2 DUP3 SWAP1 KECCAK256 DUP1 SLOAD PUSH1 0xFF NOT AND DUP7 ISZERO ISZERO SWAP1 DUP2 OR SWAP1 SWAP2 SSTORE SWAP2 MLOAD SWAP2 DUP3 MSTORE PUSH32 0x17307EAB39AB6107E8899845AD3D59BD9653F200F220920489CA2B5937696C31 SWAP2 ADD PUSH1 0x40 MLOAD DUP1 SWAP2 SUB SWAP1 LOG3 POP POP POP JUMP JUMPDEST PUSH2 0x1AD5 DUP5 DUP5 DUP5 PUSH2 0x188B JUMP JUMPDEST PUSH2 0x1AE1 DUP5 DUP5 DUP5 DUP5 PUSH2 0x1C2C JUMP JUMPDEST PUSH2 0x1401 JUMPI PUSH1 0x40 MLOAD PUSH3 0x461BCD PUSH1 0xE5 SHL DUP2 MSTORE PUSH1 0x4 ADD PUSH2 0x90B SWAP1 PUSH2 0x269C JUMP JUMPDEST PUSH1 0x60 PUSH2 0x1B08 DUP3 PUSH2 0x1689 JUMP JUMPDEST PUSH1 0x0 PUSH2 0x1B1F PUSH1 0x40 DUP1 MLOAD PUSH1 0x20 DUP2 ADD SWAP1 SWAP2 MSTORE PUSH1 0x0 DUP2 MSTORE SWAP1 JUMP JUMPDEST SWAP1 POP PUSH1 0x0 DUP2 MLOAD GT PUSH2 0x1B3F JUMPI PUSH1 0x40 MLOAD DUP1 PUSH1 0x20 ADD PUSH1 0x40 MSTORE DUP1 PUSH1 0x0 DUP2 MSTORE POP PUSH2 0x1B6A JUMP JUMPDEST DUP1 PUSH2 0x1B49 DUP5 PUSH2 0x1D2D JUMP JUMPDEST PUSH1 0x40 MLOAD PUSH1 0x20 ADD PUSH2 0x1B5A SWAP3 SWAP2 SWAP1 PUSH2 0x2628 JUMP JUMPDEST PUSH1 0x40 MLOAD PUSH1 0x20 DUP2 DUP4 SUB SUB DUP2 MSTORE SWAP1 PUSH1 0x40 MSTORE JUMPDEST SWAP4 SWAP3 POP POP POP JUMP JUMPDEST PUSH2 0x1B7B DUP4 DUP4 PUSH2 0x1DC0 JUMP JUMPDEST PUSH2 0x1B88 PUSH1 0x0 DUP5 DUP5 DUP5 PUSH2 0x1C2C JUMP JUMPDEST PUSH2 0x9AC JUMPI PUSH1 0x40 MLOAD PUSH3 0x461BCD PUSH1 0xE5 SHL DUP2 MSTORE PUSH1 0x4 ADD PUSH2 0x90B SWAP1 PUSH2 0x269C JUMP JUMPDEST PUSH1 0x1 DUP2 GT ISZERO PUSH2 0x1401 JUMPI PUSH1 0x1 PUSH1 0x1 PUSH1 0xA0 SHL SUB DUP5 AND ISZERO PUSH2 0x1BEA JUMPI PUSH1 0x1 PUSH1 0x1 PUSH1 0xA0 SHL SUB DUP5 AND PUSH1 0x0 SWAP1 DUP2 MSTORE PUSH1 0x3 PUSH1 0x20 MSTORE PUSH1 0x40 DUP2 KECCAK256 DUP1 SLOAD DUP4 SWAP3 SWAP1 PUSH2 0x1BE4 SWAP1 DUP5 SWAP1 PUSH2 0x2611 JUMP JUMPDEST SWAP1 SWAP2 SSTORE POP POP JUMPDEST PUSH1 0x1 PUSH1 0x1 PUSH1 0xA0 SHL SUB DUP4 AND ISZERO PUSH2 0x1401 JUMPI PUSH1 0x1 PUSH1 0x1 PUSH1 0xA0 SHL SUB DUP4 AND PUSH1 0x0 SWAP1 DUP2 MSTORE PUSH1 0x3 PUSH1 0x20 MSTORE PUSH1 0x40 DUP2 KECCAK256 DUP1 SLOAD DUP4 SWAP3 SWAP1 PUSH2 0x1C21 SWAP1 DUP5 SWAP1 PUSH2 0x2514 JUMP JUMPDEST SWAP1 SWAP2 SSTORE POP POP POP POP POP POP JUMP JUMPDEST PUSH1 0x0 PUSH1 0x1 PUSH1 0x1 PUSH1 0xA0 SHL SUB DUP5 AND EXTCODESIZE ISZERO PUSH2 0x1D22 JUMPI PUSH1 0x40 MLOAD PUSH4 0xA85BD01 PUSH1 0xE1 SHL DUP2 MSTORE PUSH1 0x1 PUSH1 0x1 PUSH1 0xA0 SHL SUB DUP6 AND SWAP1 PUSH4 0x150B7A02 SWAP1 PUSH2 0x1C70 SWAP1 CALLER SWAP1 DUP10 SWAP1 DUP9 SWAP1 DUP9 SWAP1 PUSH1 0x4 ADD PUSH2 0x26EE JUMP JUMPDEST PUSH1 0x20 PUSH1 0x40 MLOAD DUP1 DUP4 SUB DUP2 PUSH1 0x0 DUP8 GAS CALL SWAP3 POP POP POP DUP1 ISZERO PUSH2 0x1CAB JUMPI POP PUSH1 0x40 DUP1 MLOAD PUSH1 0x1F RETURNDATASIZE SWAP1 DUP2 ADD PUSH1 0x1F NOT AND DUP3 ADD SWAP1 SWAP3 MSTORE PUSH2 0x1CA8 SWAP2 DUP2 ADD SWAP1 PUSH2 0x272B JUMP JUMPDEST PUSH1 0x1 JUMPDEST PUSH2 0x1D08 JUMPI RETURNDATASIZE DUP1 DUP1 ISZERO PUSH2 0x1CD9 JUMPI PUSH1 0x40 MLOAD SWAP2 POP PUSH1 0x1F NOT PUSH1 0x3F RETURNDATASIZE ADD AND DUP3 ADD PUSH1 0x40 MSTORE RETURNDATASIZE DUP3 MSTORE RETURNDATASIZE PUSH1 0x0 PUSH1 0x20 DUP5 ADD RETURNDATACOPY PUSH2 0x1CDE JUMP JUMPDEST PUSH1 0x60 SWAP2 POP JUMPDEST POP DUP1 MLOAD PUSH1 0x0 SUB PUSH2 0x1D00 JUMPI PUSH1 0x40 MLOAD PUSH3 0x461BCD PUSH1 0xE5 SHL DUP2 MSTORE PUSH1 0x4 ADD PUSH2 0x90B SWAP1 PUSH2 0x269C JUMP JUMPDEST DUP1 MLOAD DUP2 PUSH1 0x20 ADD REVERT JUMPDEST PUSH1 0x1 PUSH1 0x1 PUSH1 0xE0 SHL SUB NOT AND PUSH4 0xA85BD01 PUSH1 0xE1 SHL EQ SWAP1 POP PUSH2 0x15C3 JUMP JUMPDEST POP PUSH1 0x1 SWAP5 SWAP4 POP POP POP POP JUMP JUMPDEST PUSH1 0x60 PUSH1 0x0 PUSH2 0x1D3A DUP4 PUSH2 0x1F59 JUMP JUMPDEST PUSH1 0x1 ADD SWAP1 POP PUSH1 0x0 DUP2 PUSH8 0xFFFFFFFFFFFFFFFF DUP2 GT ISZERO PUSH2 0x1D5A JUMPI PUSH2 0x1D5A PUSH2 0x21E2 JUMP JUMPDEST PUSH1 0x40 MLOAD SWAP1 DUP1 DUP3 MSTORE DUP1 PUSH1 0x1F ADD PUSH1 0x1F NOT AND PUSH1 0x20 ADD DUP3 ADD PUSH1 0x40 MSTORE DUP1 ISZERO PUSH2 0x1D84 JUMPI PUSH1 0x20 DUP3 ADD DUP2 DUP1 CALLDATASIZE DUP4 CALLDATACOPY ADD SWAP1 POP JUMPDEST POP SWAP1 POP DUP2 DUP2 ADD PUSH1 0x20 ADD JUMPDEST PUSH1 0x0 NOT ADD PUSH16 0x181899199A1A9B1B9C1CB0B131B232B3 PUSH1 0x81 SHL PUSH1 0xA DUP7 MOD BYTE DUP2 MSTORE8 PUSH1 0xA DUP6 DIV SWAP5 POP DUP5 PUSH2 0x1D8E JUMPI POP SWAP4 SWAP3 POP POP POP JUMP JUMPDEST PUSH1 0x1 PUSH1 0x1 PUSH1 0xA0 SHL SUB DUP3 AND PUSH2 0x1E16 JUMPI PUSH1 0x40 MLOAD PUSH3 0x461BCD PUSH1 0xE5 SHL DUP2 MSTORE PUSH1 0x20 PUSH1 0x4 DUP3 ADD DUP2 SWAP1 MSTORE PUSH1 0x24 DUP3 ADD MSTORE PUSH32 0x4552433732313A206D696E7420746F20746865207A65726F2061646472657373 PUSH1 0x44 DUP3 ADD MSTORE PUSH1 0x64 ADD PUSH2 0x90B JUMP JUMPDEST PUSH1 0x0 DUP2 DUP2 MSTORE PUSH1 0x2 PUSH1 0x20 MSTORE PUSH1 0x40 SWAP1 KECCAK256 SLOAD PUSH1 0x1 PUSH1 0x1 PUSH1 0xA0 SHL SUB AND ISZERO PUSH2 0x1E7B JUMPI PUSH1 0x40 MLOAD PUSH3 0x461BCD PUSH1 0xE5 SHL DUP2 MSTORE PUSH1 0x20 PUSH1 0x4 DUP3 ADD MSTORE PUSH1 0x1C PUSH1 0x24 DUP3 ADD MSTORE PUSH32 0x4552433732313A20746F6B656E20616C7265616479206D696E74656400000000 PUSH1 0x44 DUP3 ADD MSTORE PUSH1 0x64 ADD PUSH2 0x90B JUMP JUMPDEST PUSH2 0x1E89 PUSH1 0x0 DUP4 DUP4 PUSH1 0x1 PUSH2 0x1BA4 JUMP JUMPDEST PUSH1 0x0 DUP2 DUP2 MSTORE PUSH1 0x2 PUSH1 0x20 MSTORE PUSH1 0x40 SWAP1 KECCAK256 SLOAD PUSH1 0x1 PUSH1 0x1 PUSH1 0xA0 SHL SUB AND ISZERO PUSH2 0x1EEE JUMPI PUSH1 0x40 MLOAD PUSH3 0x461BCD PUSH1 0xE5 SHL DUP2 MSTORE PUSH1 0x20 PUSH1 0x4 DUP3 ADD MSTORE PUSH1 0x1C PUSH1 0x24 DUP3 ADD MSTORE PUSH32 0x4552433732313A20746F6B656E20616C7265616479206D696E74656400000000 PUSH1 0x44 DUP3 ADD MSTORE PUSH1 0x64 ADD PUSH2 0x90B JUMP JUMPDEST PUSH1 0x1 PUSH1 0x1 PUSH1 0xA0 SHL SUB DUP3 AND PUSH1 0x0 DUP2 DUP2 MSTORE PUSH1 0x3 PUSH1 0x20 SWAP1 DUP2 MSTORE PUSH1 0x40 DUP1 DUP4 KECCAK256 DUP1 SLOAD PUSH1 0x1 ADD SWAP1 SSTORE DUP5 DUP4 MSTORE PUSH1 0x2 SWAP1 SWAP2 MSTORE DUP1 DUP3 KECCAK256 DUP1 SLOAD PUSH1 0x1 PUSH1 0x1 PUSH1 0xA0 SHL SUB NOT AND DUP5 OR SWAP1 SSTORE MLOAD DUP4 SWAP3 SWAP2 SWAP1 PUSH32 0xDDF252AD1BE2C89B69C2B068FC378DAA952BA7F163C4A11628F55A4DF523B3EF SWAP1 DUP3 SWAP1 LOG4 POP POP JUMP JUMPDEST PUSH1 0x0 DUP1 PUSH19 0x184F03E93FF9F4DAA797ED6E38ED64BF6A1F01 PUSH1 0x40 SHL DUP4 LT PUSH2 0x1F98 JUMPI PUSH19 0x184F03E93FF9F4DAA797ED6E38ED64BF6A1F01 PUSH1 0x40 SHL DUP4 DIV SWAP3 POP PUSH1 0x40 ADD JUMPDEST PUSH14 0x4EE2D6D415B85ACEF8100000000 DUP4 LT PUSH2 0x1FC4 JUMPI PUSH14 0x4EE2D6D415B85ACEF8100000000 DUP4 DIV SWAP3 POP PUSH1 0x20 ADD JUMPDEST PUSH7 0x2386F26FC10000 DUP4 LT PUSH2 0x1FE2 JUMPI PUSH7 0x2386F26FC10000 DUP4 DIV SWAP3 POP PUSH1 0x10 ADD JUMPDEST PUSH4 0x5F5E100 DUP4 LT PUSH2 0x1FFA JUMPI PUSH4 0x5F5E100 DUP4 DIV SWAP3 POP PUSH1 0x8 ADD JUMPDEST PUSH2 0x2710 DUP4 LT PUSH2 0x200E JUMPI PUSH2 0x2710 DUP4 DIV SWAP3 POP PUSH1 0x4 ADD JUMPDEST PUSH1 0x64 DUP4 LT PUSH2 0x2020 JUMPI PUSH1 0x64 DUP4 DIV SWAP3 POP PUSH1 0x2 ADD JUMPDEST PUSH1 0xA DUP4 LT PUSH2 0x7D8 JUMPI PUSH1 0x1 ADD SWAP3 SWAP2 POP POP JUMP JUMPDEST DUP3 DUP1 SLOAD PUSH2 0x203D SWAP1 PUSH2 0x249A JUMP JUMPDEST SWAP1 PUSH1 0x0 MSTORE PUSH1 0x20 PUSH1 0x0 KECCAK256 SWAP1 PUSH1 0x1F ADD PUSH1 0x20 SWAP1 DIV DUP2 ADD SWAP3 DUP3 PUSH2 0x205F JUMPI PUSH1 0x0 DUP6 SSTORE PUSH2 0x20A5 JUMP JUMPDEST DUP3 PUSH1 0x1F LT PUSH2 0x2078 JUMPI DUP1 MLOAD PUSH1 0xFF NOT AND DUP4 DUP1 ADD OR DUP6 SSTORE PUSH2 0x20A5 JUMP JUMPDEST DUP3 DUP1 ADD PUSH1 0x1 ADD DUP6 SSTORE DUP3 ISZERO PUSH2 0x20A5 JUMPI SWAP2 DUP3 ADD JUMPDEST DUP3 DUP2 GT ISZERO PUSH2 0x20A5 JUMPI DUP3 MLOAD DUP3 SSTORE SWAP2 PUSH1 0x20 ADD SWAP2 SWAP1 PUSH1 0x1 ADD SWAP1 PUSH2 0x208A JUMP JUMPDEST POP PUSH2 0x20B1 SWAP3 SWAP2 POP PUSH2 0x20B5 JUMP JUMPDEST POP SWAP1 JUMP JUMPDEST JUMPDEST DUP1 DUP3 GT ISZERO PUSH2 0x20B1 JUMPI PUSH1 0x0 DUP2 SSTORE PUSH1 0x1 ADD PUSH2 0x20B6 JUMP JUMPDEST PUSH1 0x1 PUSH1 0x1 PUSH1 0xE0 SHL SUB NOT DUP2 AND DUP2 EQ PUSH2 0x16E8 JUMPI PUSH1 0x0 DUP1 REVERT JUMPDEST PUSH1 0x0 PUSH1 0x20 DUP3 DUP5 SUB SLT ISZERO PUSH2 0x20F2 JUMPI PUSH1 0x0 DUP1 REVERT JUMPDEST DUP2 CALLDATALOAD PUSH2 0x1B6A DUP2 PUSH2 0x20CA JUMP JUMPDEST PUSH1 0x0 JUMPDEST DUP4 DUP2 LT ISZERO PUSH2 0x2118 JUMPI DUP2 DUP2 ADD MLOAD DUP4 DUP3 ADD MSTORE PUSH1 0x20 ADD PUSH2 0x2100 JUMP JUMPDEST DUP4 DUP2 GT ISZERO PUSH2 0x1401 JUMPI POP POP PUSH1 0x0 SWAP2 ADD MSTORE JUMP JUMPDEST PUSH1 0x0 DUP2 MLOAD DUP1 DUP5 MSTORE PUSH2 0x2141 DUP2 PUSH1 0x20 DUP7 ADD PUSH1 0x20 DUP7 ADD PUSH2 0x20FD JUMP JUMPDEST PUSH1 0x1F ADD PUSH1 0x1F NOT AND SWAP3 SWAP1 SWAP3 ADD PUSH1 0x20 ADD SWAP3 SWAP2 POP POP JUMP JUMPDEST PUSH1 0x20 DUP2 MSTORE PUSH1 0x0 PUSH2 0x1B6A PUSH1 0x20 DUP4 ADD DUP5 PUSH2 0x2129 JUMP JUMPDEST PUSH1 0x0 PUSH1 0x20 DUP3 DUP5 SUB SLT ISZERO PUSH2 0x217A JUMPI PUSH1 0x0 DUP1 REVERT JUMPDEST POP CALLDATALOAD SWAP2 SWAP1 POP JUMP JUMPDEST DUP1 CALLDATALOAD PUSH1 0x1 PUSH1 0x1 PUSH1 0xA0 SHL SUB DUP2 AND DUP2 EQ PUSH2 0x2198 JUMPI PUSH1 0x0 DUP1 REVERT JUMPDEST SWAP2 SWAP1 POP JUMP JUMPDEST PUSH1 0x0 DUP1 PUSH1 0x40 DUP4 DUP6 SUB SLT ISZERO PUSH2 0x21B0 JUMPI PUSH1 0x0 DUP1 REVERT JUMPDEST PUSH2 0x21B9 DUP4 PUSH2 0x2181 JUMP JUMPDEST SWAP5 PUSH1 0x20 SWAP4 SWAP1 SWAP4 ADD CALLDATALOAD SWAP4 POP POP POP JUMP JUMPDEST PUSH1 0x0 PUSH1 0x20 DUP3 DUP5 SUB SLT ISZERO PUSH2 0x21D9 JUMPI PUSH1 0x0 DUP1 REVERT JUMPDEST PUSH2 0x1B6A DUP3 PUSH2 0x2181 JUMP JUMPDEST PUSH4 0x4E487B71 PUSH1 0xE0 SHL PUSH1 0x0 MSTORE PUSH1 0x41 PUSH1 0x4 MSTORE PUSH1 0x24 PUSH1 0x0 REVERT JUMPDEST PUSH1 0x0 PUSH8 0xFFFFFFFFFFFFFFFF DUP1 DUP5 GT ISZERO PUSH2 0x2213 JUMPI PUSH2 0x2213 PUSH2 0x21E2 JUMP JUMPDEST PUSH1 0x40 MLOAD PUSH1 0x1F DUP6 ADD PUSH1 0x1F NOT SWAP1 DUP2 AND PUSH1 0x3F ADD AND DUP2 ADD SWAP1 DUP3 DUP3 GT DUP2 DUP4 LT OR ISZERO PUSH2 0x223B JUMPI PUSH2 0x223B PUSH2 0x21E2 JUMP JUMPDEST DUP2 PUSH1 0x40 MSTORE DUP1 SWAP4 POP DUP6 DUP2 MSTORE DUP7 DUP7 DUP7 ADD GT ISZERO PUSH2 0x2254 JUMPI PUSH1 0x0 DUP1 REVERT JUMPDEST DUP6 DUP6 PUSH1 0x20 DUP4 ADD CALLDATACOPY PUSH1 0x0 PUSH1 0x20 DUP8 DUP4 ADD ADD MSTORE POP POP POP SWAP4 SWAP3 POP POP POP JUMP JUMPDEST PUSH1 0x0 DUP3 PUSH1 0x1F DUP4 ADD SLT PUSH2 0x227F JUMPI PUSH1 0x0 DUP1 REVERT JUMPDEST PUSH2 0x1B6A DUP4 DUP4 CALLDATALOAD PUSH1 0x20 DUP6 ADD PUSH2 0x21F8 JUMP JUMPDEST PUSH1 0x0 DUP1 PUSH1 0x40 DUP4 DUP6 SUB SLT ISZERO PUSH2 0x22A1 JUMPI PUSH1 0x0 DUP1 REVERT JUMPDEST DUP3 CALLDATALOAD SWAP2 POP PUSH1 0x20 DUP4 ADD CALLDATALOAD PUSH8 0xFFFFFFFFFFFFFFFF DUP2 GT ISZERO PUSH2 0x22BF JUMPI PUSH1 0x0 DUP1 REVERT JUMPDEST PUSH2 0x22CB DUP6 DUP3 DUP7 ADD PUSH2 0x226E JUMP JUMPDEST SWAP2 POP POP SWAP3 POP SWAP3 SWAP1 POP JUMP JUMPDEST PUSH1 0x0 DUP1 PUSH1 0x40 DUP4 DUP6 SUB SLT ISZERO PUSH2 0x22E8 JUMPI PUSH1 0x0 DUP1 REVERT JUMPDEST POP POP DUP1 CALLDATALOAD SWAP3 PUSH1 0x20 SWAP1 SWAP2 ADD CALLDATALOAD SWAP2 POP JUMP JUMPDEST PUSH1 0x0 DUP1 PUSH1 0x0 PUSH1 0x60 DUP5 DUP7 SUB SLT ISZERO PUSH2 0x230C JUMPI PUSH1 0x0 DUP1 REVERT JUMPDEST PUSH2 0x2315 DUP5 PUSH2 0x2181 JUMP JUMPDEST SWAP3 POP PUSH2 0x2323 PUSH1 0x20 DUP6 ADD PUSH2 0x2181 JUMP JUMPDEST SWAP2 POP PUSH1 0x40 DUP5 ADD CALLDATALOAD SWAP1 POP SWAP3 POP SWAP3 POP SWAP3 JUMP JUMPDEST DUP1 ISZERO ISZERO DUP2 EQ PUSH2 0x16E8 JUMPI PUSH1 0x0 DUP1 REVERT JUMPDEST PUSH1 0x0 DUP1 PUSH1 0x40 DUP4 DUP6 SUB SLT ISZERO PUSH2 0x2354 JUMPI PUSH1 0x0 DUP1 REVERT JUMPDEST PUSH2 0x235D DUP4 PUSH2 0x2181 JUMP JUMPDEST SWAP2 POP PUSH1 0x20 DUP4 ADD CALLDATALOAD PUSH2 0x236D DUP2 PUSH2 0x2333 JUMP JUMPDEST DUP1 SWAP2 POP POP SWAP3 POP SWAP3 SWAP1 POP JUMP JUMPDEST PUSH1 0x0 PUSH1 0x20 DUP3 DUP5 SUB SLT ISZERO PUSH2 0x238A JUMPI PUSH1 0x0 DUP1 REVERT JUMPDEST DUP2 CALLDATALOAD PUSH8 0xFFFFFFFFFFFFFFFF DUP2 GT ISZERO PUSH2 0x23A1 JUMPI PUSH1 0x0 DUP1 REVERT JUMPDEST PUSH2 0x15C3 DUP5 DUP3 DUP6 ADD PUSH2 0x226E JUMP JUMPDEST PUSH1 0x0 DUP1 PUSH1 0x0 DUP1 PUSH1 0x80 DUP6 DUP8 SUB SLT ISZERO PUSH2 0x23C3 JUMPI PUSH1 0x0 DUP1 REVERT JUMPDEST PUSH2 0x23CC DUP6 PUSH2 0x2181 JUMP JUMPDEST SWAP4 POP PUSH2 0x23DA PUSH1 0x20 DUP7 ADD PUSH2 0x2181 JUMP JUMPDEST SWAP3 POP PUSH1 0x40 DUP6 ADD CALLDATALOAD SWAP2 POP PUSH1 0x60 DUP6 ADD CALLDATALOAD PUSH8 0xFFFFFFFFFFFFFFFF DUP2 GT ISZERO PUSH2 0x23FD JUMPI PUSH1 0x0 DUP1 REVERT JUMPDEST DUP6 ADD PUSH1 0x1F DUP2 ADD DUP8 SGT PUSH2 0x240E JUMPI PUSH1 0x0 DUP1 REVERT JUMPDEST PUSH2 0x241D DUP8 DUP3 CALLDATALOAD PUSH1 0x20 DUP5 ADD PUSH2 0x21F8 JUMP JUMPDEST SWAP2 POP POP SWAP3 SWAP6 SWAP2 SWAP5 POP SWAP3 POP JUMP JUMPDEST PUSH4 0x4E487B71 PUSH1 0xE0 SHL PUSH1 0x0 MSTORE PUSH1 0x21 PUSH1 0x4 MSTORE PUSH1 0x24 PUSH1 0x0 REVERT JUMPDEST PUSH1 0x20 DUP2 ADD PUSH1 0x1 DUP4 LT PUSH2 0x2461 JUMPI PUSH4 0x4E487B71 PUSH1 0xE0 SHL PUSH1 0x0 MSTORE PUSH1 0x21 PUSH1 0x4 MSTORE PUSH1 0x24 PUSH1 0x0 REVERT JUMPDEST SWAP2 SWAP1 MSTORE SWAP1 JUMP JUMPDEST PUSH1 0x0 DUP1 PUSH1 0x40 DUP4 DUP6 SUB SLT ISZERO PUSH2 0x247A JUMPI PUSH1 0x0 DUP1 REVERT JUMPDEST PUSH2 0x2483 DUP4 PUSH2 0x2181 JUMP JUMPDEST SWAP2 POP PUSH2 0x2491 PUSH1 0x20 DUP5 ADD PUSH2 0x2181 JUMP JUMPDEST SWAP1 POP SWAP3 POP SWAP3 SWAP1 POP JUMP JUMPDEST PUSH1 0x1 DUP2 DUP2 SHR SWAP1 DUP3 AND DUP1 PUSH2 0x24AE JUMPI PUSH1 0x7F DUP3 AND SWAP2 POP JUMPDEST PUSH1 0x20 DUP3 LT DUP2 SUB PUSH2 0x24CE JUMPI PUSH4 0x4E487B71 PUSH1 0xE0 SHL PUSH1 0x0 MSTORE PUSH1 0x22 PUSH1 0x4 MSTORE PUSH1 0x24 PUSH1 0x0 REVERT JUMPDEST POP SWAP2 SWAP1 POP JUMP JUMPDEST PUSH4 0x4E487B71 PUSH1 0xE0 SHL PUSH1 0x0 MSTORE PUSH1 0x12 PUSH1 0x4 MSTORE PUSH1 0x24 PUSH1 0x0 REVERT JUMPDEST PUSH1 0x0 DUP3 PUSH2 0x24F9 JUMPI PUSH2 0x24F9 PUSH2 0x24D4 JUMP JUMPDEST POP MOD SWAP1 JUMP JUMPDEST PUSH4 0x4E487B71 PUSH1 0xE0 SHL PUSH1 0x0 MSTORE PUSH1 0x11 PUSH1 0x4 MSTORE PUSH1 0x24 PUSH1 0x0 REVERT JUMPDEST PUSH1 0x0 DUP3 NOT DUP3 GT ISZERO PUSH2 0x2527 JUMPI PUSH2 0x2527 PUSH2 0x24FE JUMP JUMPDEST POP ADD SWAP1 JUMP JUMPDEST PUSH1 0x20 DUP1 DUP3 MSTORE PUSH1 0x2D SWAP1 DUP3 ADD MSTORE PUSH32 0x4552433732313A2063616C6C6572206973206E6F7420746F6B656E206F776E65 PUSH1 0x40 DUP3 ADD MSTORE PUSH13 0x1C881BDC88185C1C1C9BDD9959 PUSH1 0x9A SHL PUSH1 0x60 DUP3 ADD MSTORE PUSH1 0x80 ADD SWAP1 JUMP JUMPDEST PUSH1 0x0 PUSH1 0x20 DUP3 DUP5 SUB SLT ISZERO PUSH2 0x258B JUMPI PUSH1 0x0 DUP1 REVERT JUMPDEST DUP2 MLOAD PUSH2 0x1B6A DUP2 PUSH2 0x2333 JUMP JUMPDEST PUSH1 0x0 DUP3 PUSH2 0x25A5 JUMPI PUSH2 0x25A5 PUSH2 0x24D4 JUMP JUMPDEST POP DIV SWAP1 JUMP JUMPDEST PUSH1 0x0 PUSH1 0x1 DUP3 ADD PUSH2 0x25BC JUMPI PUSH2 0x25BC PUSH2 0x24FE JUMP JUMPDEST POP PUSH1 0x1 ADD SWAP1 JUMP JUMPDEST PUSH1 0x0 PUSH1 0x20 DUP3 DUP5 SUB SLT ISZERO PUSH2 0x25D5 JUMPI PUSH1 0x0 DUP1 REVERT JUMPDEST POP MLOAD SWAP2 SWAP1 POP JUMP JUMPDEST PUSH1 0x0 DUP2 PUSH1 0x0 NOT DIV DUP4 GT DUP3 ISZERO ISZERO AND ISZERO PUSH2 0x25F6 JUMPI PUSH2 0x25F6 PUSH2 0x24FE JUMP JUMPDEST POP MUL SWAP1 JUMP JUMPDEST PUSH4 0x4E487B71 PUSH1 0xE0 SHL PUSH1 0x0 MSTORE PUSH1 0x32 PUSH1 0x4 MSTORE PUSH1 0x24 PUSH1 0x0 REVERT JUMPDEST PUSH1 0x0 DUP3 DUP3 LT ISZERO PUSH2 0x2623 JUMPI PUSH2 0x2623 PUSH2 0x24FE JUMP JUMPDEST POP SUB SWAP1 JUMP JUMPDEST PUSH1 0x0 DUP4 MLOAD PUSH2 0x263A DUP2 DUP5 PUSH1 0x20 DUP9 ADD PUSH2 0x20FD JUMP JUMPDEST DUP4 MLOAD SWAP1 DUP4 ADD SWAP1 PUSH2 0x264E DUP2 DUP4 PUSH1 0x20 DUP9 ADD PUSH2 0x20FD JUMP JUMPDEST ADD SWAP5 SWAP4 POP POP POP POP JUMP JUMPDEST PUSH1 0x20 DUP1 DUP3 MSTORE PUSH1 0x25 SWAP1 DUP3 ADD MSTORE PUSH32 0x4552433732313A207472616E736665722066726F6D20696E636F727265637420 PUSH1 0x40 DUP3 ADD MSTORE PUSH5 0x37BBB732B9 PUSH1 0xD9 SHL PUSH1 0x60 DUP3 ADD MSTORE PUSH1 0x80 ADD SWAP1 JUMP JUMPDEST PUSH1 0x20 DUP1 DUP3 MSTORE PUSH1 0x32 SWAP1 DUP3 ADD MSTORE PUSH32 0x4552433732313A207472616E7366657220746F206E6F6E204552433732315265 PUSH1 0x40 DUP3 ADD MSTORE PUSH18 0x31B2B4BB32B91034B6B83632B6B2B73A32B9 PUSH1 0x71 SHL PUSH1 0x60 DUP3 ADD MSTORE PUSH1 0x80 ADD SWAP1 JUMP JUMPDEST PUSH1 0x1 PUSH1 0x1 PUSH1 0xA0 SHL SUB DUP6 DUP2 AND DUP3 MSTORE DUP5 AND PUSH1 0x20 DUP3 ADD MSTORE PUSH1 0x40 DUP2 ADD DUP4 SWAP1 MSTORE PUSH1 0x80 PUSH1 0x60 DUP3 ADD DUP2 SWAP1 MSTORE PUSH1 0x0 SWAP1 PUSH2 0x2721 SWAP1 DUP4 ADD DUP5 PUSH2 0x2129 JUMP JUMPDEST SWAP7 SWAP6 POP POP POP POP POP POP JUMP JUMPDEST PUSH1 0x0 PUSH1 0x20 DUP3 DUP5 SUB SLT ISZERO PUSH2 0x273D JUMPI PUSH1 0x0 DUP1 REVERT JUMPDEST DUP2 MLOAD PUSH2 0x1B6A DUP2 PUSH2 0x20CA JUMP INVALID LOG2 PUSH5 0x6970667358 0x22 SLT KECCAK256 0x49 0xE1 PUSH31 0x117FE444DCFDDD8F0F5CDC7D6698187692D72BC8E2E9E4F6E2F65BBE4C6473 PUSH16 0x6C634300080E00330000000000000000 ","sha1":"0660e68ac862415e10292138f03968edc675c407","source":"// SPDX-License-Identifier: MIT\npragma solidity ^0.8.1;\nimport \"@openzeppelin/contracts/token/ERC721/extensions/ERC721URIStorage.sol\";\nimport \"@openzeppelin/contracts/token/ERC20/IERC20.sol\";\n\ninterface Nft_interface {\n    function update_nft_balance(uint256 amount) external;\n}\n\ncontract AdvancedCollectible is ERC721URIStorage {\n    enum Breed {\n        DREX1\n    }\n    // add other things\n    IERC20 private _token;\n    IERC20 private _daiTokens;\n    mapping(uint256 => address) public requestIdToSender;\n    mapping(uint256 => string) public requestIdToTokenURI;\n    mapping(uint256 => Breed) public tokenIdToBreed;\n    mapping(uint256 => uint256) public requestIdToTokenId;\n    mapping(address => uint256) public tokenToOwner;\n    mapping(uint256 => uint256) public participationValue;\n    mapping(address => uint256) public ownerToValue;\n    mapping(uint256 => uint256) public tokenidToValue;\n    mapping(address => bool) public Wallets;\n    address[] public previousContracts;\n\n    //events\n    event CREATE_NFT(uint256 indexed requestId);\n    event CLAIM(address _destAddr, uint256 _amount);\n    event UPDATE_NFT_BALANCE(uint256 amount);\n    event MINT(uint256 indexed requestId, uint256 randomNumber);\n\n    uint256 public totalTokenTransfered; //amount of drex tokens transfered till date\n    uint256 public tokenCounter;\n    uint256 public fParticipation;\n    uint256 public RequestId; //hardcoded value\n    uint256 public randomNumber; //harcoded value\n    address public Admin;\n    uint256 public nft_count;\n\n    // uint256 public curr_balance_for_each_token;\n\n    constructor(\n        IERC20 erc_token_address,\n        IERC20 dai_token_address,\n        address[] memory prevContracts,\n        uint256 no_of_nfts\n    ) public ERC721(\"DREX\", \"DRx\") {\n        Admin = msg.sender;\n        previousContracts = prevContracts;\n        _token = erc_token_address;\n        _daiTokens = dai_token_address;\n        RequestId = 1;\n        randomNumber = 10;\n        tokenCounter = 0;\n        totalTokenTransfered = 0;\n        nft_count = no_of_nfts;\n        // curr_balance_for_each_token = 0;\n    }\n\n    /// @notice Creates the nft\n    /// @param  tokenURI -> the token uri of the each nft, it can be empty also\n    function create_nft(string memory tokenURI) public payable {\n        require(\n            _daiTokens.balanceOf(msg.sender) > 50000,\n            \"balance not enought to mint nft\"\n        );\n        _daiTokens.transferFrom(msg.sender, address(this), 50000);\n        uint256 requestId = RequestId; //requestRandomness(keyHash, fee);\n        requestIdToSender[requestId] = msg.sender;\n        requestIdToTokenURI[requestId] = tokenURI;\n        mint(requestId, randomNumber);\n        RequestId = RequestId + 1;\n        randomNumber = randomNumber + 1;\n        emit CREATE_NFT(requestId);\n    }\n\n    /// @notice Used to set each of the user who have bought the nft\n    /// @param _wallet -> address of tge nft holder\n    function setWallet(address _wallet) public {\n        Wallets[_wallet] = true;\n    }\n\n    /// @notice Helper fucntion called by create_nft, calls the 'safemint fucntion'\n    /// @param requestId -->a uint256 number unique for each nft\n    /// @param RandomNumber -->  a uint256 number for each of the nft\n    function mint(uint256 requestId, uint256 RandomNumber) public {\n        address DrexOwner = requestIdToSender[requestId];\n        string memory tokenURI = requestIdToTokenURI[requestId];\n        uint256 newItemId = tokenCounter;\n        _safeMint(Admin, newItemId);\n        _setTokenURI(newItemId, tokenURI);\n        setWallet(DrexOwner);\n        Breed breed = Breed(RandomNumber % 1);\n        tokenIdToBreed[newItemId] = breed;\n        requestIdToTokenId[requestId] = newItemId;\n\n        // bug in the tokenToowner Mapping , have to fix it\n\n        tokenToOwner[DrexOwner] = newItemId;\n        tokenCounter = tokenCounter + 1;\n        emit MINT(requestId, RandomNumber);\n    }\n\n    ///@notice Sets tokenURI for each nft minted\n    /// @param tokenId --> a tokenId of each of the nft\n    /// @param _tokenURI --> string which refers the tokenuri for the nft\n    function setTokenURI(uint256 tokenId, string memory _tokenURI) public {\n        require(\n            _isApprovedOrOwner(_msgSender(), tokenId),\n            \"ERC721: transfer caller is not owner nor approved\"\n        );\n        _setTokenURI(tokenId, _tokenURI);\n    }\n\n    //correct this functions --> find new function for each contract\n    function participationCalculation() public {\n        require(previousContracts.length > 0, \"this is the first contract\");\n\n        //needs another check to remove the first contract after 25 years or after 25 contracts have been created\n\n        uint256 totalContracts = previousContracts.length + 1;\n        uint256 totalNfts = totalContracts * nft_count; //no of nfts per collection is a variable and find a way to make it variable\n        uint256 fEmission = nft_count / totalNfts; //decide how to deal with floating points --> need to be different for each collection\n        uint256 fYear = 1 / totalContracts;\n        fParticipation = (fEmission + fYear) / 2;\n    }\n\n    function participationReturns() public {\n        uint256 erc20balance = _token.balanceOf(address(this));\n        require(\n            _token.balanceOf(address(this)) > 100,\n            \"balance not sufficient\"\n        );\n        uint256 costTosend = (erc20balance * fParticipation) / 100;\n        for (uint256 holder = 0; holder < previousContracts.length; holder++) {\n            address to = previousContracts[holder];\n            _token.transfer(to, costTosend);\n            erc20balance -= costTosend;\n            // event for transfering funds from token pool to particular contract\n            emit CLAIM(to, costTosend);\n        }\n    }\n\n    /// @notice Divides the amount generated in each of the nft holders\n    /// @param amount --> amount generated and transfered to the contract\n    function update_nft_balance(uint256 amount) external {\n        uint256 curr_balance_for_each_token = amount / (nft_count);\n        for (uint256 token_id = 0; token_id < nft_count; token_id++) {\n            tokenidToValue[token_id] += curr_balance_for_each_token;\n        }\n        emit UPDATE_NFT_BALANCE(amount);\n    }\n\n    function approve_erc_20(address rec, uint256 amount) public {\n        _token.approve(rec, amount);\n    }\n\n    /// @notice NFt holder claims there drexTokens to stable coins using this function\n    function claim() public {\n        require(Wallets[msg.sender] == true, \"sender dont hold a nft\");\n        uint256 tokenId = tokenToOwner[msg.sender];\n        uint256 amount_to_send = (tokenidToValue[tokenId]);\n        totalTokenTransfered += amount_to_send;\n        approve_erc_20(msg.sender, amount_to_send);\n        _token.transferFrom(address(this), msg.sender, amount_to_send);\n        tokenidToValue[tokenId] = 0;\n        emit CLAIM(msg.sender, amount_to_send);\n    }\n}\n","sourcePath":"contracts/AdvancedCollectible.sol","type":"contract","deployment":{"address":"0xfD44508e0E6303F1d7Aced52992358164f2647c0","chainid":"1287","blockHeight":3405018}}