{"bytecode":"6080604052600160045534801561001557600080fd5b50604051610f01380380610f01833981016040819052610034916100f3565b600280546001600160a01b03191673a36085f69e2889c224210f603d836748e7dc00881790556006805473d4d9ac4ecf5ddf18056ce6a91d0a8e7b0c910cce6001600160a01b0319918216179091557f373961626331653336626533343061363937653262343964643264383637393860075560006008819055600a805483166001600160a01b03958616179055600b805490921692909316919091179055600c5561012d565b6001600160a01b03811681146100f057600080fd5b50565b6000806040838503121561010657600080fd5b8251610111816100db565b6020840151909250610122816100db565b809150509250929050565b610dc58061013c6000396000f3fe608060405234801561001057600080fd5b50600436106100625760003560e01c80634357855e14610067578063483566311461007c578063a14aa51114610097578063c618a1e4146100a0578063c8c92ea6146100a9578063fcdcdeee146100d4575b600080fd5b61007a610075366004610a69565b6100e7565b005b6100846101af565b6040519081526020015b60405180910390f35b610084600c5481565b61008460095481565b600b546100bc906001600160a01b031681565b6040516001600160a01b03909116815260200161008e565b600a546100bc906001600160a01b031681565b60008281526005602052604090205482906001600160a01b031633146101655760405162461bcd60e51b815260206004820152602860248201527f536f75726365206d75737420626520746865206f7261636c65206f6620746865604482015267081c995c5d595cdd60c21b60648201526084015b60405180910390fd5b60008181526005602052604080822080546001600160a01b03191690555182917f7cc135e0cebb02c3480ae5d74d377283180a2601f8f644edf7987b009316c63a91a25060095550565b6000806101c660075430634357855e60e01b6102b7565b90506102086040518060400160405280600381526020016219d95d60ea1b815250604051806080016040528060518152602001610d3f605191398391906102dc565b610263604051806040016040528060048152602001630e0c2e8d60e31b81525060405180604001604052806012815260200171195b995c99de4b5858d8dd5b5d5b185d195960721b815250836102dc9092919063ffffffff16565b60408051808201909152600581526474696d657360d81b6020820152670de0b6b3a764000090610295908390836102ff565b6006546008546102b0916001600160a01b031690849061031d565b9250505090565b6102bf610a2e565b6102c7610a2e565b6102d3818686866103b0565b95945050505050565b60808301516102eb90836103f6565b60808301516102fa90826103f6565b505050565b608083015161030e90836103f6565b60808301516102fa908261040d565b60045460009061032e816001610aa1565b600455835160408086015160808701515191516000936320214ca360e11b936103669386938493923092918a91600191602401610b06565b60408051601f198184030181529190526020810180516001600160e01b03166001600160e01b03199093169290921790915290506103a686838684610471565b9695505050505050565b6103b8610a2e565b6103c885608001516101006105cf565b50508284526001600160a01b03821660208501526001600160e01b031981166040850152835b949350505050565b610403826003835161063a565b6102fa828261074f565b67ffffffffffffffff1981121561042c57610428828261077d565b5050565b67ffffffffffffffff8113156104465761042882826107bf565b6000811261045a576104288260008361063a565b61042882600161046c84600019610b6e565b61063a565b6040516bffffffffffffffffffffffff193060601b1660208201526034810184905260009060540160408051808303601f1901815282825280516020918201206000818152600590925291812080546001600160a01b0319166001600160a01b038a1617905590925082917fb5e6e01e79f91267dc17b4e6314d5d4d03593d2ceee0fbb452b750bd70ea5af99190a2600254604051630200057560e51b81526001600160a01b0390911690634000aea09061053490889087908790600401610bad565b6020604051808303816000875af1158015610553573d6000803e3d6000fd5b505050506040513d601f19601f820116820180604052508101906105779190610bd4565b6103ee5760405162461bcd60e51b815260206004820152602360248201527f756e61626c6520746f207472616e73666572416e6443616c6c20746f206f7261604482015262636c6560e81b606482015260840161015c565b6040805180820190915260608152600060208201526105ef602083610bf6565b15610617576105ff602083610bf6565b61060a906020610c18565b6106149083610aa1565b91505b506020808301829052604080518085526000815283019091019052815b92915050565b60178167ffffffffffffffff16116106655761065f8360e0600585901b1683176107e2565b50505050565b60ff8167ffffffffffffffff16116106a35761068c836018611fe0600586901b16176107e2565b5061065f8367ffffffffffffffff83166001610807565b61ffff8167ffffffffffffffff16116106e2576106cb836019611fe0600586901b16176107e2565b5061065f8367ffffffffffffffff83166002610807565b63ffffffff8167ffffffffffffffff16116107235761070c83601a611fe0600586901b16176107e2565b5061065f8367ffffffffffffffff83166004610807565b61073883601b611fe0600586901b16176107e2565b5061065f8367ffffffffffffffff83166008610807565b6040805180820190915260608152600060208201526107768384600001515184855161082d565b9392505050565b6107888260c36107e2565b506104288261079983600019610b6e565b6040516020016107ab91815260200190565b604051602081830303815290604052610917565b6107ca8260c26107e2565b5061042882826040516020016107ab91815260200190565b6040805180820190915260608152600060208201526107768384600001515184610924565b6040805180820190915260608152600060208201526103ee84856000015151858561097f565b604080518082019091526060815260006020820152825182111561085057600080fd5b602085015161085f8386610aa1565b111561089257610892856108828760200151878661087d9190610aa1565b610a00565b61088d906002610c2f565b610a17565b6000808651805187602083010193508088870111156108b15787860182525b505050602084015b602084106108f157805182526108d0602083610aa1565b91506108dd602082610aa1565b90506108ea602085610c18565b93506108b9565b51815160001960208690036101000a019081169019919091161790525083949350505050565b610403826002835161063a565b6040805180820190915260608152600060208201528360200151831061095957610959848560200151600261088d9190610c2f565b8351805160208583010184815350808503610975576001810182525b5093949350505050565b60408051808201909152606081526000602082015260208501516109a38584610aa1565b11156109b7576109b7856108828685610aa1565b600060016109c784610100610d32565b6109d19190610c18565b90508551838682010185831982511617815250805184870111156109f55783860181525b509495945050505050565b600081831115610a11575081610634565b50919050565b8151610a2383836105cf565b5061065f838261074f565b6040805160a0810182526000808252602080830182905282840182905260608084018390528451808601909552845283015290608082015290565b60008060408385031215610a7c57600080fd5b50508035926020909101359150565b634e487b7160e01b600052601160045260246000fd5b60008219821115610ab457610ab4610a8b565b500190565b6000815180845260005b81811015610adf57602081850181015186830182015201610ac3565b81811115610af1576000602083870101525b50601f01601f19169290920160200192915050565b6001600160a01b0389811682526020820189905260408201889052861660608201526001600160e01b03198516608082015260a0810184905260c0810183905261010060e08201819052600090610b5f83820185610ab9565b9b9a5050505050505050505050565b60008083128015600160ff1b850184121615610b8c57610b8c610a8b565b6001600160ff1b0384018313811615610ba757610ba7610a8b565b50500390565b60018060a01b03841681528260208201526060604082015260006102d36060830184610ab9565b600060208284031215610be657600080fd5b8151801515811461077657600080fd5b600082610c1357634e487b7160e01b600052601260045260246000fd5b500690565b600082821015610c2a57610c2a610a8b565b500390565b6000816000190483118215151615610c4957610c49610a8b565b500290565b600181815b80851115610c89578160001904821115610c6f57610c6f610a8b565b80851615610c7c57918102915b93841c9390800290610c53565b509250929050565b600082610ca057506001610634565b81610cad57506000610634565b8160018114610cc35760028114610ccd57610ce9565b6001915050610634565b60ff841115610cde57610cde610a8b565b50506001821b610634565b5060208310610133831016604e8410600b8410161715610d0c575081810a610634565b610d168383610c4e565b8060001904821115610d2a57610d2a610a8b565b029392505050565b60006107768383610c9156fe687474703a2f2f64726578616c6c2d656e762e6562612d65336d6e6e6d36392e75732d656173742d312e656c61737469636265616e7374616c6b2e636f6d2f677269642f6c6173743f636f64653d4c494da2646970667358221220bf6fbc111ff20336fe05f50fffc474c3433f64280f323e84eab2b10f037f1c2564736f6c634300080e0033","bytecodeSha1":"41586aecb337ba6195fca4bc915ad2dff6d42411","type":"contract","abi":[{"inputs":[{"internalType":"address payable","name":"nft_address","type":"address"},{"internalType":"address","name":"erc20_address","type":"address"}],"stateMutability":"nonpayable","type":"constructor","name":"constructor"},{"anonymous":false,"inputs":[{"indexed":true,"internalType":"bytes32","name":"id","type":"bytes32"}],"name":"ChainlinkCancelled","type":"event"},{"anonymous":false,"inputs":[{"indexed":true,"internalType":"bytes32","name":"id","type":"bytes32"}],"name":"ChainlinkFulfilled","type":"event"},{"anonymous":false,"inputs":[{"indexed":true,"internalType":"bytes32","name":"id","type":"bytes32"}],"name":"ChainlinkRequested","type":"event"},{"inputs":[],"name":"curr_volume","outputs":[{"internalType":"uint256","name":"","type":"uint256"}],"stateMutability":"view","type":"function"},{"inputs":[],"name":"drex_token_contract","outputs":[{"internalType":"address","name":"","type":"address"}],"stateMutability":"view","type":"function"},{"inputs":[{"internalType":"bytes32","name":"_requestId","type":"bytes32"},{"internalType":"uint256","name":"_volume","type":"uint256"}],"name":"fulfill","outputs":[],"stateMutability":"nonpayable","type":"function"},{"inputs":[],"name":"nft_contract","outputs":[{"internalType":"address payable","name":"","type":"address"}],"stateMutability":"view","type":"function"},{"inputs":[],"name":"request_sensor_data","outputs":[{"internalType":"bytes32","name":"requestId","type":"bytes32"}],"stateMutability":"nonpayable","type":"function"},{"inputs":[],"name":"volume","outputs":[{"internalType":"uint256","name":"","type":"uint256"}],"stateMutability":"view","type":"function"}],"compiler":{"version":"0.8.14+commit.80d49f37","evm_version":"istanbul","optimizer":{"enabled":true,"runs":200}},"contractName":"Client","language":"Solidity","natspec":{"methods":{"request_sensor_data()":{"notice":"Create a Chainlink request to retrieve API response, find the target data, then multiply by 1000000000000000000 (to remove decimal places from data)."},"constructor":{"notice":"This example uses the LINK token address on Moonbase Alpha. Make sure to update the oracle and jobId."},"fulfill(bytes32,uint256)":{"notice":"Receive the response in the form of uint256"}},"kind":"dev","version":1},"opcodes":"PUSH1 0x80 PUSH1 0x40 MSTORE CALLVALUE DUP1 ISZERO PUSH2 0x10 JUMPI PUSH1 0x0 DUP1 REVERT JUMPDEST POP PUSH1 0x4 CALLDATASIZE LT PUSH2 0x62 JUMPI PUSH1 0x0 CALLDATALOAD PUSH1 0xE0 SHR DUP1 PUSH4 0x4357855E EQ PUSH2 0x67 JUMPI DUP1 PUSH4 0x48356631 EQ PUSH2 0x7C JUMPI DUP1 PUSH4 0xA14AA511 EQ PUSH2 0x97 JUMPI DUP1 PUSH4 0xC618A1E4 EQ PUSH2 0xA0 JUMPI DUP1 PUSH4 0xC8C92EA6 EQ PUSH2 0xA9 JUMPI DUP1 PUSH4 0xFCDCDEEE EQ PUSH2 0xD4 JUMPI JUMPDEST PUSH1 0x0 DUP1 REVERT JUMPDEST PUSH2 0x7A PUSH2 0x75 CALLDATASIZE PUSH1 0x4 PUSH2 0xA69 JUMP JUMPDEST PUSH2 0xE7 JUMP JUMPDEST STOP JUMPDEST PUSH2 0x84 PUSH2 0x1AF JUMP JUMPDEST PUSH1 0x40 MLOAD SWAP1 DUP2 MSTORE PUSH1 0x20 ADD JUMPDEST PUSH1 0x40 MLOAD DUP1 SWAP2 SUB SWAP1 RETURN JUMPDEST PUSH2 0x84 PUSH1 0xC SLOAD DUP2 JUMP JUMPDEST PUSH2 0x84 PUSH1 0x9 SLOAD DUP2 JUMP JUMPDEST PUSH1 0xB SLOAD PUSH2 0xBC SWAP1 PUSH1 0x1 PUSH1 0x1 PUSH1 0xA0 SHL SUB AND DUP2 JUMP JUMPDEST PUSH1 0x40 MLOAD PUSH1 0x1 PUSH1 0x1 PUSH1 0xA0 SHL SUB SWAP1 SWAP2 AND DUP2 MSTORE PUSH1 0x20 ADD PUSH2 0x8E JUMP JUMPDEST PUSH1 0xA SLOAD PUSH2 0xBC SWAP1 PUSH1 0x1 PUSH1 0x1 PUSH1 0xA0 SHL SUB AND DUP2 JUMP JUMPDEST PUSH1 0x0 DUP3 DUP2 MSTORE PUSH1 0x5 PUSH1 0x20 MSTORE PUSH1 0x40 SWAP1 KECCAK256 SLOAD DUP3 SWAP1 PUSH1 0x1 PUSH1 0x1 PUSH1 0xA0 SHL SUB AND CALLER EQ PUSH2 0x165 JUMPI PUSH1 0x40 MLOAD PUSH3 0x461BCD PUSH1 0xE5 SHL DUP2 MSTORE PUSH1 0x20 PUSH1 0x4 DUP3 ADD MSTORE PUSH1 0x28 PUSH1 0x24 DUP3 ADD MSTORE PUSH32 0x536F75726365206D75737420626520746865206F7261636C65206F6620746865 PUSH1 0x44 DUP3 ADD MSTORE PUSH8 0x81C995C5D595CDD PUSH1 0xC2 SHL PUSH1 0x64 DUP3 ADD MSTORE PUSH1 0x84 ADD JUMPDEST PUSH1 0x40 MLOAD DUP1 SWAP2 SUB SWAP1 REVERT JUMPDEST PUSH1 0x0 DUP2 DUP2 MSTORE PUSH1 0x5 PUSH1 0x20 MSTORE PUSH1 0x40 DUP1 DUP3 KECCAK256 DUP1 SLOAD PUSH1 0x1 PUSH1 0x1 PUSH1 0xA0 SHL SUB NOT AND SWAP1 SSTORE MLOAD DUP3 SWAP2 PUSH32 0x7CC135E0CEBB02C3480AE5D74D377283180A2601F8F644EDF7987B009316C63A SWAP2 LOG2 POP PUSH1 0x9 SSTORE POP JUMP JUMPDEST PUSH1 0x0 DUP1 PUSH2 0x1C6 PUSH1 0x7 SLOAD ADDRESS PUSH4 0x4357855E PUSH1 0xE0 SHL PUSH2 0x2B7 JUMP JUMPDEST SWAP1 POP PUSH2 0x208 PUSH1 0x40 MLOAD DUP1 PUSH1 0x40 ADD PUSH1 0x40 MSTORE DUP1 PUSH1 0x3 DUP2 MSTORE PUSH1 0x20 ADD PUSH3 0x19D95D PUSH1 0xEA SHL DUP2 MSTORE POP PUSH1 0x40 MLOAD DUP1 PUSH1 0x80 ADD PUSH1 0x40 MSTORE DUP1 PUSH1 0x51 DUP2 MSTORE PUSH1 0x20 ADD PUSH2 0xD3F PUSH1 0x51 SWAP2 CODECOPY DUP4 SWAP2 SWAP1 PUSH2 0x2DC JUMP JUMPDEST PUSH2 0x263 PUSH1 0x40 MLOAD DUP1 PUSH1 0x40 ADD PUSH1 0x40 MSTORE DUP1 PUSH1 0x4 DUP2 MSTORE PUSH1 0x20 ADD PUSH4 0xE0C2E8D PUSH1 0xE3 SHL DUP2 MSTORE POP PUSH1 0x40 MLOAD DUP1 PUSH1 0x40 ADD PUSH1 0x40 MSTORE DUP1 PUSH1 0x12 DUP2 MSTORE PUSH1 0x20 ADD PUSH18 0x195B995C99DE4B5858D8DD5B5D5B185D1959 PUSH1 0x72 SHL DUP2 MSTORE POP DUP4 PUSH2 0x2DC SWAP1 SWAP3 SWAP2 SWAP1 PUSH4 0xFFFFFFFF AND JUMP JUMPDEST PUSH1 0x40 DUP1 MLOAD DUP1 DUP3 ADD SWAP1 SWAP2 MSTORE PUSH1 0x5 DUP2 MSTORE PUSH5 0x74696D6573 PUSH1 0xD8 SHL PUSH1 0x20 DUP3 ADD MSTORE PUSH8 0xDE0B6B3A7640000 SWAP1 PUSH2 0x295 SWAP1 DUP4 SWAP1 DUP4 PUSH2 0x2FF JUMP JUMPDEST PUSH1 0x6 SLOAD PUSH1 0x8 SLOAD PUSH2 0x2B0 SWAP2 PUSH1 0x1 PUSH1 0x1 PUSH1 0xA0 SHL SUB AND SWAP1 DUP5 SWAP1 PUSH2 0x31D JUMP JUMPDEST SWAP3 POP POP POP SWAP1 JUMP JUMPDEST PUSH2 0x2BF PUSH2 0xA2E JUMP JUMPDEST PUSH2 0x2C7 PUSH2 0xA2E JUMP JUMPDEST PUSH2 0x2D3 DUP2 DUP7 DUP7 DUP7 PUSH2 0x3B0 JUMP JUMPDEST SWAP6 SWAP5 POP POP POP POP POP JUMP JUMPDEST PUSH1 0x80 DUP4 ADD MLOAD PUSH2 0x2EB SWAP1 DUP4 PUSH2 0x3F6 JUMP JUMPDEST PUSH1 0x80 DUP4 ADD MLOAD PUSH2 0x2FA SWAP1 DUP3 PUSH2 0x3F6 JUMP JUMPDEST POP POP POP JUMP JUMPDEST PUSH1 0x80 DUP4 ADD MLOAD PUSH2 0x30E SWAP1 DUP4 PUSH2 0x3F6 JUMP JUMPDEST PUSH1 0x80 DUP4 ADD MLOAD PUSH2 0x2FA SWAP1 DUP3 PUSH2 0x40D JUMP JUMPDEST PUSH1 0x4 SLOAD PUSH1 0x0 SWAP1 PUSH2 0x32E DUP2 PUSH1 0x1 PUSH2 0xAA1 JUMP JUMPDEST PUSH1 0x4 SSTORE DUP4 MLOAD PUSH1 0x40 DUP1 DUP7 ADD MLOAD PUSH1 0x80 DUP8 ADD MLOAD MLOAD SWAP2 MLOAD PUSH1 0x0 SWAP4 PUSH4 0x20214CA3 PUSH1 0xE1 SHL SWAP4 PUSH2 0x366 SWAP4 DUP7 SWAP4 DUP5 SWAP4 SWAP3 ADDRESS SWAP3 SWAP2 DUP11 SWAP2 PUSH1 0x1 SWAP2 PUSH1 0x24 ADD PUSH2 0xB06 JUMP JUMPDEST PUSH1 0x40 DUP1 MLOAD PUSH1 0x1F NOT DUP2 DUP5 SUB ADD DUP2 MSTORE SWAP2 SWAP1 MSTORE PUSH1 0x20 DUP2 ADD DUP1 MLOAD PUSH1 0x1 PUSH1 0x1 PUSH1 0xE0 SHL SUB AND PUSH1 0x1 PUSH1 0x1 PUSH1 0xE0 SHL SUB NOT SWAP1 SWAP4 AND SWAP3 SWAP1 SWAP3 OR SWAP1 SWAP2 MSTORE SWAP1 POP PUSH2 0x3A6 DUP7 DUP4 DUP7 DUP5 PUSH2 0x471 JUMP JUMPDEST SWAP7 SWAP6 POP POP POP POP POP POP JUMP JUMPDEST PUSH2 0x3B8 PUSH2 0xA2E JUMP JUMPDEST PUSH2 0x3C8 DUP6 PUSH1 0x80 ADD MLOAD PUSH2 0x100 PUSH2 0x5CF JUMP JUMPDEST POP POP DUP3 DUP5 MSTORE PUSH1 0x1 PUSH1 0x1 PUSH1 0xA0 SHL SUB DUP3 AND PUSH1 0x20 DUP6 ADD MSTORE PUSH1 0x1 PUSH1 0x1 PUSH1 0xE0 SHL SUB NOT DUP2 AND PUSH1 0x40 DUP6 ADD MSTORE DUP4 JUMPDEST SWAP5 SWAP4 POP POP POP POP JUMP JUMPDEST PUSH2 0x403 DUP3 PUSH1 0x3 DUP4 MLOAD PUSH2 0x63A JUMP JUMPDEST PUSH2 0x2FA DUP3 DUP3 PUSH2 0x74F JUMP JUMPDEST PUSH8 0xFFFFFFFFFFFFFFFF NOT DUP2 SLT ISZERO PUSH2 0x42C JUMPI PUSH2 0x428 DUP3 DUP3 PUSH2 0x77D JUMP JUMPDEST POP POP JUMP JUMPDEST PUSH8 0xFFFFFFFFFFFFFFFF DUP2 SGT ISZERO PUSH2 0x446 JUMPI PUSH2 0x428 DUP3 DUP3 PUSH2 0x7BF JUMP JUMPDEST PUSH1 0x0 DUP2 SLT PUSH2 0x45A JUMPI PUSH2 0x428 DUP3 PUSH1 0x0 DUP4 PUSH2 0x63A JUMP JUMPDEST PUSH2 0x428 DUP3 PUSH1 0x1 PUSH2 0x46C DUP5 PUSH1 0x0 NOT PUSH2 0xB6E JUMP JUMPDEST PUSH2 0x63A JUMP JUMPDEST PUSH1 0x40 MLOAD PUSH12 0xFFFFFFFFFFFFFFFFFFFFFFFF NOT ADDRESS PUSH1 0x60 SHL AND PUSH1 0x20 DUP3 ADD MSTORE PUSH1 0x34 DUP2 ADD DUP5 SWAP1 MSTORE PUSH1 0x0 SWAP1 PUSH1 0x54 ADD PUSH1 0x40 DUP1 MLOAD DUP1 DUP4 SUB PUSH1 0x1F NOT ADD DUP2 MSTORE DUP3 DUP3 MSTORE DUP1 MLOAD PUSH1 0x20 SWAP2 DUP3 ADD KECCAK256 PUSH1 0x0 DUP2 DUP2 MSTORE PUSH1 0x5 SWAP1 SWAP3 MSTORE SWAP2 DUP2 KECCAK256 DUP1 SLOAD PUSH1 0x1 PUSH1 0x1 PUSH1 0xA0 SHL SUB NOT AND PUSH1 0x1 PUSH1 0x1 PUSH1 0xA0 SHL SUB DUP11 AND OR SWAP1 SSTORE SWAP1 SWAP3 POP DUP3 SWAP2 PUSH32 0xB5E6E01E79F91267DC17B4E6314D5D4D03593D2CEEE0FBB452B750BD70EA5AF9 SWAP2 SWAP1 LOG2 PUSH1 0x2 SLOAD PUSH1 0x40 MLOAD PUSH4 0x2000575 PUSH1 0xE5 SHL DUP2 MSTORE PUSH1 0x1 PUSH1 0x1 PUSH1 0xA0 SHL SUB SWAP1 SWAP2 AND SWAP1 PUSH4 0x4000AEA0 SWAP1 PUSH2 0x534 SWAP1 DUP9 SWAP1 DUP8 SWAP1 DUP8 SWAP1 PUSH1 0x4 ADD PUSH2 0xBAD JUMP JUMPDEST PUSH1 0x20 PUSH1 0x40 MLOAD DUP1 DUP4 SUB DUP2 PUSH1 0x0 DUP8 GAS CALL ISZERO DUP1 ISZERO PUSH2 0x553 JUMPI RETURNDATASIZE PUSH1 0x0 DUP1 RETURNDATACOPY RETURNDATASIZE PUSH1 0x0 REVERT JUMPDEST POP POP POP POP PUSH1 0x40 MLOAD RETURNDATASIZE PUSH1 0x1F NOT PUSH1 0x1F DUP3 ADD AND DUP3 ADD DUP1 PUSH1 0x40 MSTORE POP DUP2 ADD SWAP1 PUSH2 0x577 SWAP2 SWAP1 PUSH2 0xBD4 JUMP JUMPDEST PUSH2 0x3EE JUMPI PUSH1 0x40 MLOAD PUSH3 0x461BCD PUSH1 0xE5 SHL DUP2 MSTORE PUSH1 0x20 PUSH1 0x4 DUP3 ADD MSTORE PUSH1 0x23 PUSH1 0x24 DUP3 ADD MSTORE PUSH32 0x756E61626C6520746F207472616E73666572416E6443616C6C20746F206F7261 PUSH1 0x44 DUP3 ADD MSTORE PUSH3 0x636C65 PUSH1 0xE8 SHL PUSH1 0x64 DUP3 ADD MSTORE PUSH1 0x84 ADD PUSH2 0x15C JUMP JUMPDEST PUSH1 0x40 DUP1 MLOAD DUP1 DUP3 ADD SWAP1 SWAP2 MSTORE PUSH1 0x60 DUP2 MSTORE PUSH1 0x0 PUSH1 0x20 DUP3 ADD MSTORE PUSH2 0x5EF PUSH1 0x20 DUP4 PUSH2 0xBF6 JUMP JUMPDEST ISZERO PUSH2 0x617 JUMPI PUSH2 0x5FF PUSH1 0x20 DUP4 PUSH2 0xBF6 JUMP JUMPDEST PUSH2 0x60A SWAP1 PUSH1 0x20 PUSH2 0xC18 JUMP JUMPDEST PUSH2 0x614 SWAP1 DUP4 PUSH2 0xAA1 JUMP JUMPDEST SWAP2 POP JUMPDEST POP PUSH1 0x20 DUP1 DUP4 ADD DUP3 SWAP1 MSTORE PUSH1 0x40 DUP1 MLOAD DUP1 DUP6 MSTORE PUSH1 0x0 DUP2 MSTORE DUP4 ADD SWAP1 SWAP2 ADD SWAP1 MSTORE DUP2 JUMPDEST SWAP3 SWAP2 POP POP JUMP JUMPDEST PUSH1 0x17 DUP2 PUSH8 0xFFFFFFFFFFFFFFFF AND GT PUSH2 0x665 JUMPI PUSH2 0x65F DUP4 PUSH1 0xE0 PUSH1 0x5 DUP6 SWAP1 SHL AND DUP4 OR PUSH2 0x7E2 JUMP JUMPDEST POP POP POP POP JUMP JUMPDEST PUSH1 0xFF DUP2 PUSH8 0xFFFFFFFFFFFFFFFF AND GT PUSH2 0x6A3 JUMPI PUSH2 0x68C DUP4 PUSH1 0x18 PUSH2 0x1FE0 PUSH1 0x5 DUP7 SWAP1 SHL AND OR PUSH2 0x7E2 JUMP JUMPDEST POP PUSH2 0x65F DUP4 PUSH8 0xFFFFFFFFFFFFFFFF DUP4 AND PUSH1 0x1 PUSH2 0x807 JUMP JUMPDEST PUSH2 0xFFFF DUP2 PUSH8 0xFFFFFFFFFFFFFFFF AND GT PUSH2 0x6E2 JUMPI PUSH2 0x6CB DUP4 PUSH1 0x19 PUSH2 0x1FE0 PUSH1 0x5 DUP7 SWAP1 SHL AND OR PUSH2 0x7E2 JUMP JUMPDEST POP PUSH2 0x65F DUP4 PUSH8 0xFFFFFFFFFFFFFFFF DUP4 AND PUSH1 0x2 PUSH2 0x807 JUMP JUMPDEST PUSH4 0xFFFFFFFF DUP2 PUSH8 0xFFFFFFFFFFFFFFFF AND GT PUSH2 0x723 JUMPI PUSH2 0x70C DUP4 PUSH1 0x1A PUSH2 0x1FE0 PUSH1 0x5 DUP7 SWAP1 SHL AND OR PUSH2 0x7E2 JUMP JUMPDEST POP PUSH2 0x65F DUP4 PUSH8 0xFFFFFFFFFFFFFFFF DUP4 AND PUSH1 0x4 PUSH2 0x807 JUMP JUMPDEST PUSH2 0x738 DUP4 PUSH1 0x1B PUSH2 0x1FE0 PUSH1 0x5 DUP7 SWAP1 SHL AND OR PUSH2 0x7E2 JUMP JUMPDEST POP PUSH2 0x65F DUP4 PUSH8 0xFFFFFFFFFFFFFFFF DUP4 AND PUSH1 0x8 PUSH2 0x807 JUMP JUMPDEST PUSH1 0x40 DUP1 MLOAD DUP1 DUP3 ADD SWAP1 SWAP2 MSTORE PUSH1 0x60 DUP2 MSTORE PUSH1 0x0 PUSH1 0x20 DUP3 ADD MSTORE PUSH2 0x776 DUP4 DUP5 PUSH1 0x0 ADD MLOAD MLOAD DUP5 DUP6 MLOAD PUSH2 0x82D JUMP JUMPDEST SWAP4 SWAP3 POP POP POP JUMP JUMPDEST PUSH2 0x788 DUP3 PUSH1 0xC3 PUSH2 0x7E2 JUMP JUMPDEST POP PUSH2 0x428 DUP3 PUSH2 0x799 DUP4 PUSH1 0x0 NOT PUSH2 0xB6E JUMP JUMPDEST PUSH1 0x40 MLOAD PUSH1 0x20 ADD PUSH2 0x7AB SWAP2 DUP2 MSTORE PUSH1 0x20 ADD SWAP1 JUMP JUMPDEST PUSH1 0x40 MLOAD PUSH1 0x20 DUP2 DUP4 SUB SUB DUP2 MSTORE SWAP1 PUSH1 0x40 MSTORE PUSH2 0x917 JUMP JUMPDEST PUSH2 0x7CA DUP3 PUSH1 0xC2 PUSH2 0x7E2 JUMP JUMPDEST POP PUSH2 0x428 DUP3 DUP3 PUSH1 0x40 MLOAD PUSH1 0x20 ADD PUSH2 0x7AB SWAP2 DUP2 MSTORE PUSH1 0x20 ADD SWAP1 JUMP JUMPDEST PUSH1 0x40 DUP1 MLOAD DUP1 DUP3 ADD SWAP1 SWAP2 MSTORE PUSH1 0x60 DUP2 MSTORE PUSH1 0x0 PUSH1 0x20 DUP3 ADD MSTORE PUSH2 0x776 DUP4 DUP5 PUSH1 0x0 ADD MLOAD MLOAD DUP5 PUSH2 0x924 JUMP JUMPDEST PUSH1 0x40 DUP1 MLOAD DUP1 DUP3 ADD SWAP1 SWAP2 MSTORE PUSH1 0x60 DUP2 MSTORE PUSH1 0x0 PUSH1 0x20 DUP3 ADD MSTORE PUSH2 0x3EE DUP5 DUP6 PUSH1 0x0 ADD MLOAD MLOAD DUP6 DUP6 PUSH2 0x97F JUMP JUMPDEST PUSH1 0x40 DUP1 MLOAD DUP1 DUP3 ADD SWAP1 SWAP2 MSTORE PUSH1 0x60 DUP2 MSTORE PUSH1 0x0 PUSH1 0x20 DUP3 ADD MSTORE DUP3 MLOAD DUP3 GT ISZERO PUSH2 0x850 JUMPI PUSH1 0x0 DUP1 REVERT JUMPDEST PUSH1 0x20 DUP6 ADD MLOAD PUSH2 0x85F DUP4 DUP7 PUSH2 0xAA1 JUMP JUMPDEST GT ISZERO PUSH2 0x892 JUMPI PUSH2 0x892 DUP6 PUSH2 0x882 DUP8 PUSH1 0x20 ADD MLOAD DUP8 DUP7 PUSH2 0x87D SWAP2 SWAP1 PUSH2 0xAA1 JUMP JUMPDEST PUSH2 0xA00 JUMP JUMPDEST PUSH2 0x88D SWAP1 PUSH1 0x2 PUSH2 0xC2F JUMP JUMPDEST PUSH2 0xA17 JUMP JUMPDEST PUSH1 0x0 DUP1 DUP7 MLOAD DUP1 MLOAD DUP8 PUSH1 0x20 DUP4 ADD ADD SWAP4 POP DUP1 DUP9 DUP8 ADD GT ISZERO PUSH2 0x8B1 JUMPI DUP8 DUP7 ADD DUP3 MSTORE JUMPDEST POP POP POP PUSH1 0x20 DUP5 ADD JUMPDEST PUSH1 0x20 DUP5 LT PUSH2 0x8F1 JUMPI DUP1 MLOAD DUP3 MSTORE PUSH2 0x8D0 PUSH1 0x20 DUP4 PUSH2 0xAA1 JUMP JUMPDEST SWAP2 POP PUSH2 0x8DD PUSH1 0x20 DUP3 PUSH2 0xAA1 JUMP JUMPDEST SWAP1 POP PUSH2 0x8EA PUSH1 0x20 DUP6 PUSH2 0xC18 JUMP JUMPDEST SWAP4 POP PUSH2 0x8B9 JUMP JUMPDEST MLOAD DUP2 MLOAD PUSH1 0x0 NOT PUSH1 0x20 DUP7 SWAP1 SUB PUSH2 0x100 EXP ADD SWAP1 DUP2 AND SWAP1 NOT SWAP2 SWAP1 SWAP2 AND OR SWAP1 MSTORE POP DUP4 SWAP5 SWAP4 POP POP POP POP JUMP JUMPDEST PUSH2 0x403 DUP3 PUSH1 0x2 DUP4 MLOAD PUSH2 0x63A JUMP JUMPDEST PUSH1 0x40 DUP1 MLOAD DUP1 DUP3 ADD SWAP1 SWAP2 MSTORE PUSH1 0x60 DUP2 MSTORE PUSH1 0x0 PUSH1 0x20 DUP3 ADD MSTORE DUP4 PUSH1 0x20 ADD MLOAD DUP4 LT PUSH2 0x959 JUMPI PUSH2 0x959 DUP5 DUP6 PUSH1 0x20 ADD MLOAD PUSH1 0x2 PUSH2 0x88D SWAP2 SWAP1 PUSH2 0xC2F JUMP JUMPDEST DUP4 MLOAD DUP1 MLOAD PUSH1 0x20 DUP6 DUP4 ADD ADD DUP5 DUP2 MSTORE8 POP DUP1 DUP6 SUB PUSH2 0x975 JUMPI PUSH1 0x1 DUP2 ADD DUP3 MSTORE JUMPDEST POP SWAP4 SWAP5 SWAP4 POP POP POP POP JUMP JUMPDEST PUSH1 0x40 DUP1 MLOAD DUP1 DUP3 ADD SWAP1 SWAP2 MSTORE PUSH1 0x60 DUP2 MSTORE PUSH1 0x0 PUSH1 0x20 DUP3 ADD MSTORE PUSH1 0x20 DUP6 ADD MLOAD PUSH2 0x9A3 DUP6 DUP5 PUSH2 0xAA1 JUMP JUMPDEST GT ISZERO PUSH2 0x9B7 JUMPI PUSH2 0x9B7 DUP6 PUSH2 0x882 DUP7 DUP6 PUSH2 0xAA1 JUMP JUMPDEST PUSH1 0x0 PUSH1 0x1 PUSH2 0x9C7 DUP5 PUSH2 0x100 PUSH2 0xD32 JUMP JUMPDEST PUSH2 0x9D1 SWAP2 SWAP1 PUSH2 0xC18 JUMP JUMPDEST SWAP1 POP DUP6 MLOAD DUP4 DUP7 DUP3 ADD ADD DUP6 DUP4 NOT DUP3 MLOAD AND OR DUP2 MSTORE POP DUP1 MLOAD DUP5 DUP8 ADD GT ISZERO PUSH2 0x9F5 JUMPI DUP4 DUP7 ADD DUP2 MSTORE JUMPDEST POP SWAP5 SWAP6 SWAP5 POP POP POP POP POP JUMP JUMPDEST PUSH1 0x0 DUP2 DUP4 GT ISZERO PUSH2 0xA11 JUMPI POP DUP2 PUSH2 0x634 JUMP JUMPDEST POP SWAP2 SWAP1 POP JUMP JUMPDEST DUP2 MLOAD PUSH2 0xA23 DUP4 DUP4 PUSH2 0x5CF JUMP JUMPDEST POP PUSH2 0x65F DUP4 DUP3 PUSH2 0x74F JUMP JUMPDEST PUSH1 0x40 DUP1 MLOAD PUSH1 0xA0 DUP2 ADD DUP3 MSTORE PUSH1 0x0 DUP1 DUP3 MSTORE PUSH1 0x20 DUP1 DUP4 ADD DUP3 SWAP1 MSTORE DUP3 DUP5 ADD DUP3 SWAP1 MSTORE PUSH1 0x60 DUP1 DUP5 ADD DUP4 SWAP1 MSTORE DUP5 MLOAD DUP1 DUP7 ADD SWAP1 SWAP6 MSTORE DUP5 MSTORE DUP4 ADD MSTORE SWAP1 PUSH1 0x80 DUP3 ADD MSTORE SWAP1 JUMP JUMPDEST PUSH1 0x0 DUP1 PUSH1 0x40 DUP4 DUP6 SUB SLT ISZERO PUSH2 0xA7C JUMPI PUSH1 0x0 DUP1 REVERT JUMPDEST POP POP DUP1 CALLDATALOAD SWAP3 PUSH1 0x20 SWAP1 SWAP2 ADD CALLDATALOAD SWAP2 POP JUMP JUMPDEST PUSH4 0x4E487B71 PUSH1 0xE0 SHL PUSH1 0x0 MSTORE PUSH1 0x11 PUSH1 0x4 MSTORE PUSH1 0x24 PUSH1 0x0 REVERT JUMPDEST PUSH1 0x0 DUP3 NOT DUP3 GT ISZERO PUSH2 0xAB4 JUMPI PUSH2 0xAB4 PUSH2 0xA8B JUMP JUMPDEST POP ADD SWAP1 JUMP JUMPDEST PUSH1 0x0 DUP2 MLOAD DUP1 DUP5 MSTORE PUSH1 0x0 JUMPDEST DUP2 DUP2 LT ISZERO PUSH2 0xADF JUMPI PUSH1 0x20 DUP2 DUP6 ADD DUP2 ADD MLOAD DUP7 DUP4 ADD DUP3 ADD MSTORE ADD PUSH2 0xAC3 JUMP JUMPDEST DUP2 DUP2 GT ISZERO PUSH2 0xAF1 JUMPI PUSH1 0x0 PUSH1 0x20 DUP4 DUP8 ADD ADD MSTORE JUMPDEST POP PUSH1 0x1F ADD PUSH1 0x1F NOT AND SWAP3 SWAP1 SWAP3 ADD PUSH1 0x20 ADD SWAP3 SWAP2 POP POP JUMP JUMPDEST PUSH1 0x1 PUSH1 0x1 PUSH1 0xA0 SHL SUB DUP10 DUP2 AND DUP3 MSTORE PUSH1 0x20 DUP3 ADD DUP10 SWAP1 MSTORE PUSH1 0x40 DUP3 ADD DUP9 SWAP1 MSTORE DUP7 AND PUSH1 0x60 DUP3 ADD MSTORE PUSH1 0x1 PUSH1 0x1 PUSH1 0xE0 SHL SUB NOT DUP6 AND PUSH1 0x80 DUP3 ADD MSTORE PUSH1 0xA0 DUP2 ADD DUP5 SWAP1 MSTORE PUSH1 0xC0 DUP2 ADD DUP4 SWAP1 MSTORE PUSH2 0x100 PUSH1 0xE0 DUP3 ADD DUP2 SWAP1 MSTORE PUSH1 0x0 SWAP1 PUSH2 0xB5F DUP4 DUP3 ADD DUP6 PUSH2 0xAB9 JUMP JUMPDEST SWAP12 SWAP11 POP POP POP POP POP POP POP POP POP POP POP JUMP JUMPDEST PUSH1 0x0 DUP1 DUP4 SLT DUP1 ISZERO PUSH1 0x1 PUSH1 0xFF SHL DUP6 ADD DUP5 SLT AND ISZERO PUSH2 0xB8C JUMPI PUSH2 0xB8C PUSH2 0xA8B JUMP JUMPDEST PUSH1 0x1 PUSH1 0x1 PUSH1 0xFF SHL SUB DUP5 ADD DUP4 SGT DUP2 AND ISZERO PUSH2 0xBA7 JUMPI PUSH2 0xBA7 PUSH2 0xA8B JUMP JUMPDEST POP POP SUB SWAP1 JUMP JUMPDEST PUSH1 0x1 DUP1 PUSH1 0xA0 SHL SUB DUP5 AND DUP2 MSTORE DUP3 PUSH1 0x20 DUP3 ADD MSTORE PUSH1 0x60 PUSH1 0x40 DUP3 ADD MSTORE PUSH1 0x0 PUSH2 0x2D3 PUSH1 0x60 DUP4 ADD DUP5 PUSH2 0xAB9 JUMP JUMPDEST PUSH1 0x0 PUSH1 0x20 DUP3 DUP5 SUB SLT ISZERO PUSH2 0xBE6 JUMPI PUSH1 0x0 DUP1 REVERT JUMPDEST DUP2 MLOAD DUP1 ISZERO ISZERO DUP2 EQ PUSH2 0x776 JUMPI PUSH1 0x0 DUP1 REVERT JUMPDEST PUSH1 0x0 DUP3 PUSH2 0xC13 JUMPI PUSH4 0x4E487B71 PUSH1 0xE0 SHL PUSH1 0x0 MSTORE PUSH1 0x12 PUSH1 0x4 MSTORE PUSH1 0x24 PUSH1 0x0 REVERT JUMPDEST POP MOD SWAP1 JUMP JUMPDEST PUSH1 0x0 DUP3 DUP3 LT ISZERO PUSH2 0xC2A JUMPI PUSH2 0xC2A PUSH2 0xA8B JUMP JUMPDEST POP SUB SWAP1 JUMP JUMPDEST PUSH1 0x0 DUP2 PUSH1 0x0 NOT DIV DUP4 GT DUP3 ISZERO ISZERO AND ISZERO PUSH2 0xC49 JUMPI PUSH2 0xC49 PUSH2 0xA8B JUMP JUMPDEST POP MUL SWAP1 JUMP JUMPDEST PUSH1 0x1 DUP2 DUP2 JUMPDEST DUP1 DUP6 GT ISZERO PUSH2 0xC89 JUMPI DUP2 PUSH1 0x0 NOT DIV DUP3 GT ISZERO PUSH2 0xC6F JUMPI PUSH2 0xC6F PUSH2 0xA8B JUMP JUMPDEST DUP1 DUP6 AND ISZERO PUSH2 0xC7C JUMPI SWAP2 DUP2 MUL SWAP2 JUMPDEST SWAP4 DUP5 SHR SWAP4 SWAP1 DUP1 MUL SWAP1 PUSH2 0xC53 JUMP JUMPDEST POP SWAP3 POP SWAP3 SWAP1 POP JUMP JUMPDEST PUSH1 0x0 DUP3 PUSH2 0xCA0 JUMPI POP PUSH1 0x1 PUSH2 0x634 JUMP JUMPDEST DUP2 PUSH2 0xCAD JUMPI POP PUSH1 0x0 PUSH2 0x634 JUMP JUMPDEST DUP2 PUSH1 0x1 DUP2 EQ PUSH2 0xCC3 JUMPI PUSH1 0x2 DUP2 EQ PUSH2 0xCCD JUMPI PUSH2 0xCE9 JUMP JUMPDEST PUSH1 0x1 SWAP2 POP POP PUSH2 0x634 JUMP JUMPDEST PUSH1 0xFF DUP5 GT ISZERO PUSH2 0xCDE JUMPI PUSH2 0xCDE PUSH2 0xA8B JUMP JUMPDEST POP POP PUSH1 0x1 DUP3 SHL PUSH2 0x634 JUMP JUMPDEST POP PUSH1 0x20 DUP4 LT PUSH2 0x133 DUP4 LT AND PUSH1 0x4E DUP5 LT PUSH1 0xB DUP5 LT AND OR ISZERO PUSH2 0xD0C JUMPI POP DUP2 DUP2 EXP PUSH2 0x634 JUMP JUMPDEST PUSH2 0xD16 DUP4 DUP4 PUSH2 0xC4E JUMP JUMPDEST DUP1 PUSH1 0x0 NOT DIV DUP3 GT ISZERO PUSH2 0xD2A JUMPI PUSH2 0xD2A PUSH2 0xA8B JUMP JUMPDEST MUL SWAP4 SWAP3 POP POP POP JUMP JUMPDEST PUSH1 0x0 PUSH2 0x776 DUP4 DUP4 PUSH2 0xC91 JUMP INVALID PUSH9 0x7474703A2F2F647265 PUSH25 0x616C6C2D656E762E6562612D65336D6E6E6D36392E75732D65 PUSH2 0x7374 0x2D BALANCE 0x2E PUSH6 0x6C6173746963 PUSH3 0x65616E PUSH20 0x74616C6B2E636F6D2F677269642F6C6173743F63 PUSH16 0x64653D4C494DA2646970667358221220 0xBF PUSH16 0xBC111FF20336FE05F50FFFC474C3433F PUSH5 0x280F323E84 0xEA 0xB2 0xB1 0xF SUB PUSH32 0x1C2564736F6C634300080E003300000000000000000000000000000000000000 ","sha1":"34cd4fd971028ba18e43efe431304a7f2f71f094","source":"// SPDX-License-Identifier: GPL-3.0\n\npragma solidity ^0.8.1;\n\nimport \"@chainlink/contracts/src/v0.8/ChainlinkClient.sol\";\nimport \"./AdvancedCollectible.sol\";\nimport \"./Our_ERC20.sol\";\n\ncontract Client is ChainlinkClient {\n    using Chainlink for Chainlink.Request;\n\n    address private oracle;\n    bytes32 private jobId;\n    uint256 private fee;\n    uint256 public volume;\n    address payable public nft_contract;\n    address public drex_token_contract;\n    uint256 public curr_volume;\n\n    /**\n    This example uses the LINK token address on Moonbase Alpha.\n    Make sure to update the oracle and jobId.\n    */\n    constructor(address payable nft_address, address erc20_address) {\n        setChainlinkToken(address(0xa36085F69e2889c224210F603D836748e7dC0088));\n        oracle = 0xD4D9ac4ecF5dDf18056ce6A91d0a8E7B0c910ccE;\n        jobId = \"79abc1e36be340a697e2b49dd2d86798\";\n        fee = 0;\n        nft_contract = nft_address;\n        drex_token_contract = erc20_address;\n        curr_volume = 0;\n    }\n\n    /**\n     * Create a Chainlink request to retrieve API response, find the target\n     * data, then multiply by 1000000000000000000 (to remove decimal places from data).\n     */\n    function request_sensor_data() public returns (bytes32 requestId) {\n        Chainlink.Request memory request = buildChainlinkRequest(\n            jobId,\n            address(this),\n            this.fulfill.selector\n        );\n\n        // Set the URL to perform the GET request on\n        request.add(\n            \"get\",\n            \"http://drexall-env.eba-e3mnnm69.us-east-1.elasticbeanstalk.com/grid/last?code=LIM\"\n        );\n\n        // Set the path to find the desired data in the API response, where the response format is:\n\n        request.add(\"path\", \"energy-accumulated\");\n\n        // Multiply the result by 1000000000000000000 to remove decimals\n        int256 timesAmount = 10**18;\n        request.addInt(\"times\", timesAmount);\n\n        // Sends the request\n        return sendChainlinkRequestTo(oracle, request, fee);\n    }\n\n    /**\n     * Receive the response in the form of uint256\n     */\n    function fulfill(bytes32 _requestId, uint256 _volume)\n        public\n        recordChainlinkFulfillment(_requestId)\n    {\n        volume = _volume;\n        // uint256 amt_generated = volume - curr_volume;\n        // curr_volume = volume;\n        // Nft_interface nfti = Nft_interface(nft_contract);\n        // drex_token_interface erc20 = drex_token_interface(drex_token_contract);\n        // erc20.tranferingfunds(nft_contract, amt_generated);\n        // nfti.update_nft_balance(amt_generated);\n    }\n}\n","sourcePath":"contracts/DrexApi.sol","deployment":{"address":"0xffBcc84d69BA2084a4E11383115563d567f62ec1","chainid":"1287","blockHeight":3362006}}