{
  "abi": [
    {
      "inputs": [
        {
          "internalType": "address payable",
          "name": "nft_address",
          "type": "address"
        },
        {
          "internalType": "address",
          "name": "erc20_address",
          "type": "address"
        }
      ],
      "stateMutability": "nonpayable",
      "type": "constructor"
    },
    {
      "anonymous": false,
      "inputs": [
        {
          "indexed": true,
          "internalType": "bytes32",
          "name": "id",
          "type": "bytes32"
        }
      ],
      "name": "ChainlinkCancelled",
      "type": "event"
    },
    {
      "anonymous": false,
      "inputs": [
        {
          "indexed": true,
          "internalType": "bytes32",
          "name": "id",
          "type": "bytes32"
        }
      ],
      "name": "ChainlinkFulfilled",
      "type": "event"
    },
    {
      "anonymous": false,
      "inputs": [
        {
          "indexed": true,
          "internalType": "bytes32",
          "name": "id",
          "type": "bytes32"
        }
      ],
      "name": "ChainlinkRequested",
      "type": "event"
    },
    {
      "anonymous": false,
      "inputs": [
        {
          "indexed": false,
          "internalType": "uint256",
          "name": "transferd_amout",
          "type": "uint256"
        }
      ],
      "name": "TOKEN_TRANSFER",
      "type": "event"
    },
    {
      "inputs": [],
      "name": "curr_volume",
      "outputs": [
        {
          "internalType": "uint256",
          "name": "",
          "type": "uint256"
        }
      ],
      "stateMutability": "view",
      "type": "function"
    },
    {
      "inputs": [],
      "name": "drex_token_contract",
      "outputs": [
        {
          "internalType": "address",
          "name": "",
          "type": "address"
        }
      ],
      "stateMutability": "view",
      "type": "function"
    },
    {
      "inputs": [
        {
          "internalType": "bytes32",
          "name": "_requestId",
          "type": "bytes32"
        },
        {
          "internalType": "uint256",
          "name": "_volume",
          "type": "uint256"
        }
      ],
      "name": "fulfill",
      "outputs": [],
      "stateMutability": "nonpayable",
      "type": "function"
    },
    {
      "inputs": [],
      "name": "nft_contract",
      "outputs": [
        {
          "internalType": "address payable",
          "name": "",
          "type": "address"
        }
      ],
      "stateMutability": "view",
      "type": "function"
    },
    {
      "inputs": [],
      "name": "request_sensor_data",
      "outputs": [
        {
          "internalType": "bytes32",
          "name": "requestId",
          "type": "bytes32"
        }
      ],
      "stateMutability": "nonpayable",
      "type": "function"
    },
    {
      "inputs": [],
      "name": "token_transfer",
      "outputs": [],
      "stateMutability": "nonpayable",
      "type": "function"
    },
    {
      "inputs": [],
      "name": "volume",
      "outputs": [
        {
          "internalType": "uint256",
          "name": "",
          "type": "uint256"
        }
      ],
      "stateMutability": "view",
      "type": "function"
    }
  ],
  "bytecode": "6080604052600160045534801561001557600080fd5b5060405161104a38038061104a833981016040819052610034916100f3565b600280546001600160a01b03191673a36085f69e2889c224210f603d836748e7dc00881790556006805473d4d9ac4ecf5ddf18056ce6a91d0a8e7b0c910cce6001600160a01b0319918216179091557f373961626331653336626533343061363937653262343964643264383637393860075560006008819055600a805483166001600160a01b03958616179055600b805490921692909316919091179055600c5561012d565b6001600160a01b03811681146100f057600080fd5b50565b6000806040838503121561010657600080fd5b8251610111816100db565b6020840151909250610122816100db565b809150509250929050565b610f0e8061013c6000396000f3fe608060405234801561001057600080fd5b506004361061007d5760003560e01c8063a14aa5111161005b578063a14aa511146100ba578063c618a1e4146100c3578063c8c92ea6146100cc578063fcdcdeee146100f757600080fd5b806323a98bd7146100825780634357855e1461008c578063483566311461009f575b600080fd5b61008a61010a565b005b61008a61009a366004610bab565b610229565b6100a76102f1565b6040519081526020015b60405180910390f35b6100a7600c5481565b6100a760095481565b600b546100df906001600160a01b031681565b6040516001600160a01b0390911681526020016100b1565b600a546100df906001600160a01b031681565b6000600c5460095461011c9190610be3565b600954600c55600a54600b54604051635bf6fa8960e01b81526001600160a01b0392831660048201819052602482018590529394509116908190635bf6fa8990604401600060405180830381600087803b15801561017957600080fd5b505af115801561018d573d6000803e3d6000fd5b5050604051638a77409160e01b8152600481018690526001600160a01b0385169250638a7740919150602401600060405180830381600087803b1580156101d357600080fd5b505af11580156101e7573d6000803e3d6000fd5b505050507fd54fe17376faee64eeced9c450072891fba80c4f6a94ae654f0634600f82f54e8360405161021c91815260200190565b60405180910390a1505050565b60008281526005602052604090205482906001600160a01b031633146102a75760405162461bcd60e51b815260206004820152602860248201527f536f75726365206d75737420626520746865206f7261636c65206f6620746865604482015267081c995c5d595cdd60c21b60648201526084015b60405180910390fd5b60008181526005602052604080822080546001600160a01b03191690555182917f7cc135e0cebb02c3480ae5d74d377283180a2601f8f644edf7987b009316c63a91a25060095550565b60008061030860075430634357855e60e01b6103f9565b905061034a6040518060400160405280600381526020016219d95d60ea1b815250604051806080016040528060588152602001610e816058913983919061041e565b6103a5604051806040016040528060048152602001630e0c2e8d60e31b81525060405180604001604052806012815260200171195b995c99de4b5858d8dd5b5d5b185d195960721b8152508361041e9092919063ffffffff16565b60408051808201909152600581526474696d657360d81b6020820152670de0b6b3a7640000906103d790839083610441565b6006546008546103f2916001600160a01b031690849061045f565b9250505090565b610401610b70565b610409610b70565b610415818686866104f2565b95945050505050565b608083015161042d9083610538565b608083015161043c9082610538565b505050565b60808301516104509083610538565b608083015161043c908261054f565b600454600090610470816001610bfa565b600455835160408086015160808701515191516000936320214ca360e11b936104a89386938493923092918a91600191602401610c5f565b60408051601f198184030181529190526020810180516001600160e01b03166001600160e01b03199093169290921790915290506104e8868386846105b3565b9695505050505050565b6104fa610b70565b61050a8560800151610100610711565b50508284526001600160a01b03821660208501526001600160e01b031981166040850152835b949350505050565b610545826003835161077c565b61043c8282610891565b67ffffffffffffffff1981121561056e5761056a82826108bf565b5050565b67ffffffffffffffff8113156105885761056a8282610901565b6000811261059c5761056a8260008361077c565b61056a8260016105ae84600019610cc7565b61077c565b6040516bffffffffffffffffffffffff193060601b1660208201526034810184905260009060540160408051808303601f1901815282825280516020918201206000818152600590925291812080546001600160a01b0319166001600160a01b038a1617905590925082917fb5e6e01e79f91267dc17b4e6314d5d4d03593d2ceee0fbb452b750bd70ea5af99190a2600254604051630200057560e51b81526001600160a01b0390911690634000aea09061067690889087908790600401610d06565b6020604051808303816000875af1158015610695573d6000803e3d6000fd5b505050506040513d601f19601f820116820180604052508101906106b99190610d2d565b6105305760405162461bcd60e51b815260206004820152602360248201527f756e61626c6520746f207472616e73666572416e6443616c6c20746f206f7261604482015262636c6560e81b606482015260840161029e565b604080518082019091526060815260006020820152610731602083610d4f565b1561075957610741602083610d4f565b61074c906020610be3565b6107569083610bfa565b91505b506020808301829052604080518085526000815283019091019052815b92915050565b60178167ffffffffffffffff16116107a7576107a18360e0600585901b168317610924565b50505050565b60ff8167ffffffffffffffff16116107e5576107ce836018611fe0600586901b1617610924565b506107a18367ffffffffffffffff83166001610949565b61ffff8167ffffffffffffffff16116108245761080d836019611fe0600586901b1617610924565b506107a18367ffffffffffffffff83166002610949565b63ffffffff8167ffffffffffffffff16116108655761084e83601a611fe0600586901b1617610924565b506107a18367ffffffffffffffff83166004610949565b61087a83601b611fe0600586901b1617610924565b506107a18367ffffffffffffffff83166008610949565b6040805180820190915260608152600060208201526108b88384600001515184855161096f565b9392505050565b6108ca8260c3610924565b5061056a826108db83600019610cc7565b6040516020016108ed91815260200190565b604051602081830303815290604052610a59565b61090c8260c2610924565b5061056a82826040516020016108ed91815260200190565b6040805180820190915260608152600060208201526108b88384600001515184610a66565b604080518082019091526060815260006020820152610530848560000151518585610ac1565b604080518082019091526060815260006020820152825182111561099257600080fd5b60208501516109a18386610bfa565b11156109d4576109d4856109c4876020015187866109bf9190610bfa565b610b42565b6109cf906002610d71565b610b59565b6000808651805187602083010193508088870111156109f35787860182525b505050602084015b60208410610a335780518252610a12602083610bfa565b9150610a1f602082610bfa565b9050610a2c602085610be3565b93506109fb565b51815160001960208690036101000a019081169019919091161790525083949350505050565b610545826002835161077c565b60408051808201909152606081526000602082015283602001518310610a9b57610a9b84856020015160026109cf9190610d71565b8351805160208583010184815350808503610ab7576001810182525b5093949350505050565b6040805180820190915260608152600060208201526020850151610ae58584610bfa565b1115610af957610af9856109c48685610bfa565b60006001610b0984610100610e74565b610b139190610be3565b9050855183868201018583198251161781525080518487011115610b375783860181525b509495945050505050565b600081831115610b53575081610776565b50919050565b8151610b658383610711565b506107a18382610891565b6040805160a0810182526000808252602080830182905282840182905260608084018390528451808601909552845283015290608082015290565b60008060408385031215610bbe57600080fd5b50508035926020909101359150565b634e487b7160e01b600052601160045260246000fd5b600082821015610bf557610bf5610bcd565b500390565b60008219821115610c0d57610c0d610bcd565b500190565b6000815180845260005b81811015610c3857602081850181015186830182015201610c1c565b81811115610c4a576000602083870101525b50601f01601f19169290920160200192915050565b6001600160a01b0389811682526020820189905260408201889052861660608201526001600160e01b03198516608082015260a0810184905260c0810183905261010060e08201819052600090610cb883820185610c12565b9b9a5050505050505050505050565b60008083128015600160ff1b850184121615610ce557610ce5610bcd565b6001600160ff1b0384018313811615610d0057610d00610bcd565b50500390565b60018060a01b03841681528260208201526060604082015260006104156060830184610c12565b600060208284031215610d3f57600080fd5b815180151581146108b857600080fd5b600082610d6c57634e487b7160e01b600052601260045260246000fd5b500690565b6000816000190483118215151615610d8b57610d8b610bcd565b500290565b600181815b80851115610dcb578160001904821115610db157610db1610bcd565b80851615610dbe57918102915b93841c9390800290610d95565b509250929050565b600082610de257506001610776565b81610def57506000610776565b8160018114610e055760028114610e0f57610e2b565b6001915050610776565b60ff841115610e2057610e20610bcd565b50506001821b610776565b5060208310610133831016604e8410600b8410161715610e4e575081810a610776565b610e588383610d90565b8060001904821115610e6c57610e6c610bcd565b029392505050565b60006108b88383610dd356fe687474703a2f2f64726578616c6c2d656e762e6562612d65336d6e6e6d36392e75732d656173742d312e656c61737469636265616e7374616c6b2e636f6d2f677269642f6c6173743f636f64653d647265785f70696c6f74a2646970667358221220fbe5b0c32249f744bbf7cafe7c344ffcf4174f38c64aa73ba041e9260265812b64736f6c634300080e0033",
  "bytecodeSha1": "dc9ffb96bc15ac7d97fcab51afcff2e8a104b92d",
  "compiler": {
    "evm_version": "istanbul",
    "optimizer": {
      "enabled": true,
      "runs": 200
    },
    "version": "0.8.14+commit.80d49f37"
  },
  "contractName": "Client",
  "language": "Solidity",
  "natspec": {
    "kind": "dev",
    "methods": {
      "constructor": {
        "notice": "This example uses the LINK token address on Moonbase Alpha. Make sure to update the oracle and jobId."
      },
      "fulfill(bytes32,uint256)": {
        "notice": "Receive the response in the form of uint256"
      },
      "request_sensor_data()": {
        "notice": "This functions sends requests on the end point and calls the fulfill function to update the volume",
        "returns": {
          "requestId": "requestId"
        }
      },
      "token_transfer()": {
        "notice": "This function makes intercontract calls and transfers the erc20 tokens to nft contract and updates the balance for each nft holder"
      }
    },
    "version": 1
  },
  "opcodes": "PUSH1 0x80 PUSH1 0x40 MSTORE CALLVALUE DUP1 ISZERO PUSH2 0x10 JUMPI PUSH1 0x0 DUP1 REVERT JUMPDEST POP PUSH1 0x4 CALLDATASIZE LT PUSH2 0x7D JUMPI PUSH1 0x0 CALLDATALOAD PUSH1 0xE0 SHR DUP1 PUSH4 0xA14AA511 GT PUSH2 0x5B JUMPI DUP1 PUSH4 0xA14AA511 EQ PUSH2 0xBA JUMPI DUP1 PUSH4 0xC618A1E4 EQ PUSH2 0xC3 JUMPI DUP1 PUSH4 0xC8C92EA6 EQ PUSH2 0xCC JUMPI DUP1 PUSH4 0xFCDCDEEE EQ PUSH2 0xF7 JUMPI PUSH1 0x0 DUP1 REVERT JUMPDEST DUP1 PUSH4 0x23A98BD7 EQ PUSH2 0x82 JUMPI DUP1 PUSH4 0x4357855E EQ PUSH2 0x8C JUMPI DUP1 PUSH4 0x48356631 EQ PUSH2 0x9F JUMPI JUMPDEST PUSH1 0x0 DUP1 REVERT JUMPDEST PUSH2 0x8A PUSH2 0x10A JUMP JUMPDEST STOP JUMPDEST PUSH2 0x8A PUSH2 0x9A CALLDATASIZE PUSH1 0x4 PUSH2 0xBAB JUMP JUMPDEST PUSH2 0x229 JUMP JUMPDEST PUSH2 0xA7 PUSH2 0x2F1 JUMP JUMPDEST PUSH1 0x40 MLOAD SWAP1 DUP2 MSTORE PUSH1 0x20 ADD JUMPDEST PUSH1 0x40 MLOAD DUP1 SWAP2 SUB SWAP1 RETURN JUMPDEST PUSH2 0xA7 PUSH1 0xC SLOAD DUP2 JUMP JUMPDEST PUSH2 0xA7 PUSH1 0x9 SLOAD DUP2 JUMP JUMPDEST PUSH1 0xB SLOAD PUSH2 0xDF SWAP1 PUSH1 0x1 PUSH1 0x1 PUSH1 0xA0 SHL SUB AND DUP2 JUMP JUMPDEST PUSH1 0x40 MLOAD PUSH1 0x1 PUSH1 0x1 PUSH1 0xA0 SHL SUB SWAP1 SWAP2 AND DUP2 MSTORE PUSH1 0x20 ADD PUSH2 0xB1 JUMP JUMPDEST PUSH1 0xA SLOAD PUSH2 0xDF SWAP1 PUSH1 0x1 PUSH1 0x1 PUSH1 0xA0 SHL SUB AND DUP2 JUMP JUMPDEST PUSH1 0x0 PUSH1 0xC SLOAD PUSH1 0x9 SLOAD PUSH2 0x11C SWAP2 SWAP1 PUSH2 0xBE3 JUMP JUMPDEST PUSH1 0x9 SLOAD PUSH1 0xC SSTORE PUSH1 0xA SLOAD PUSH1 0xB SLOAD PUSH1 0x40 MLOAD PUSH4 0x5BF6FA89 PUSH1 0xE0 SHL DUP2 MSTORE PUSH1 0x1 PUSH1 0x1 PUSH1 0xA0 SHL SUB SWAP3 DUP4 AND PUSH1 0x4 DUP3 ADD DUP2 SWAP1 MSTORE PUSH1 0x24 DUP3 ADD DUP6 SWAP1 MSTORE SWAP4 SWAP5 POP SWAP2 AND SWAP1 DUP2 SWAP1 PUSH4 0x5BF6FA89 SWAP1 PUSH1 0x44 ADD PUSH1 0x0 PUSH1 0x40 MLOAD DUP1 DUP4 SUB DUP2 PUSH1 0x0 DUP8 DUP1 EXTCODESIZE ISZERO DUP1 ISZERO PUSH2 0x179 JUMPI PUSH1 0x0 DUP1 REVERT JUMPDEST POP GAS CALL ISZERO DUP1 ISZERO PUSH2 0x18D JUMPI RETURNDATASIZE PUSH1 0x0 DUP1 RETURNDATACOPY RETURNDATASIZE PUSH1 0x0 REVERT JUMPDEST POP POP PUSH1 0x40 MLOAD PUSH4 0x8A774091 PUSH1 0xE0 SHL DUP2 MSTORE PUSH1 0x4 DUP2 ADD DUP7 SWAP1 MSTORE PUSH1 0x1 PUSH1 0x1 PUSH1 0xA0 SHL SUB DUP6 AND SWAP3 POP PUSH4 0x8A774091 SWAP2 POP PUSH1 0x24 ADD PUSH1 0x0 PUSH1 0x40 MLOAD DUP1 DUP4 SUB DUP2 PUSH1 0x0 DUP8 DUP1 EXTCODESIZE ISZERO DUP1 ISZERO PUSH2 0x1D3 JUMPI PUSH1 0x0 DUP1 REVERT JUMPDEST POP GAS CALL ISZERO DUP1 ISZERO PUSH2 0x1E7 JUMPI RETURNDATASIZE PUSH1 0x0 DUP1 RETURNDATACOPY RETURNDATASIZE PUSH1 0x0 REVERT JUMPDEST POP POP POP POP PUSH32 0xD54FE17376FAEE64EECED9C450072891FBA80C4F6A94AE654F0634600F82F54E DUP4 PUSH1 0x40 MLOAD PUSH2 0x21C SWAP2 DUP2 MSTORE PUSH1 0x20 ADD SWAP1 JUMP JUMPDEST PUSH1 0x40 MLOAD DUP1 SWAP2 SUB SWAP1 LOG1 POP POP POP JUMP JUMPDEST PUSH1 0x0 DUP3 DUP2 MSTORE PUSH1 0x5 PUSH1 0x20 MSTORE PUSH1 0x40 SWAP1 KECCAK256 SLOAD DUP3 SWAP1 PUSH1 0x1 PUSH1 0x1 PUSH1 0xA0 SHL SUB AND CALLER EQ PUSH2 0x2A7 JUMPI PUSH1 0x40 MLOAD PUSH3 0x461BCD PUSH1 0xE5 SHL DUP2 MSTORE PUSH1 0x20 PUSH1 0x4 DUP3 ADD MSTORE PUSH1 0x28 PUSH1 0x24 DUP3 ADD MSTORE PUSH32 0x536F75726365206D75737420626520746865206F7261636C65206F6620746865 PUSH1 0x44 DUP3 ADD MSTORE PUSH8 0x81C995C5D595CDD PUSH1 0xC2 SHL PUSH1 0x64 DUP3 ADD MSTORE PUSH1 0x84 ADD JUMPDEST PUSH1 0x40 MLOAD DUP1 SWAP2 SUB SWAP1 REVERT JUMPDEST PUSH1 0x0 DUP2 DUP2 MSTORE PUSH1 0x5 PUSH1 0x20 MSTORE PUSH1 0x40 DUP1 DUP3 KECCAK256 DUP1 SLOAD PUSH1 0x1 PUSH1 0x1 PUSH1 0xA0 SHL SUB NOT AND SWAP1 SSTORE MLOAD DUP3 SWAP2 PUSH32 0x7CC135E0CEBB02C3480AE5D74D377283180A2601F8F644EDF7987B009316C63A SWAP2 LOG2 POP PUSH1 0x9 SSTORE POP JUMP JUMPDEST PUSH1 0x0 DUP1 PUSH2 0x308 PUSH1 0x7 SLOAD ADDRESS PUSH4 0x4357855E PUSH1 0xE0 SHL PUSH2 0x3F9 JUMP JUMPDEST SWAP1 POP PUSH2 0x34A PUSH1 0x40 MLOAD DUP1 PUSH1 0x40 ADD PUSH1 0x40 MSTORE DUP1 PUSH1 0x3 DUP2 MSTORE PUSH1 0x20 ADD PUSH3 0x19D95D PUSH1 0xEA SHL DUP2 MSTORE POP PUSH1 0x40 MLOAD DUP1 PUSH1 0x80 ADD PUSH1 0x40 MSTORE DUP1 PUSH1 0x58 DUP2 MSTORE PUSH1 0x20 ADD PUSH2 0xE81 PUSH1 0x58 SWAP2 CODECOPY DUP4 SWAP2 SWAP1 PUSH2 0x41E JUMP JUMPDEST PUSH2 0x3A5 PUSH1 0x40 MLOAD DUP1 PUSH1 0x40 ADD PUSH1 0x40 MSTORE DUP1 PUSH1 0x4 DUP2 MSTORE PUSH1 0x20 ADD PUSH4 0xE0C2E8D PUSH1 0xE3 SHL DUP2 MSTORE POP PUSH1 0x40 MLOAD DUP1 PUSH1 0x40 ADD PUSH1 0x40 MSTORE DUP1 PUSH1 0x12 DUP2 MSTORE PUSH1 0x20 ADD PUSH18 0x195B995C99DE4B5858D8DD5B5D5B185D1959 PUSH1 0x72 SHL DUP2 MSTORE POP DUP4 PUSH2 0x41E SWAP1 SWAP3 SWAP2 SWAP1 PUSH4 0xFFFFFFFF AND JUMP JUMPDEST PUSH1 0x40 DUP1 MLOAD DUP1 DUP3 ADD SWAP1 SWAP2 MSTORE PUSH1 0x5 DUP2 MSTORE PUSH5 0x74696D6573 PUSH1 0xD8 SHL PUSH1 0x20 DUP3 ADD MSTORE PUSH8 0xDE0B6B3A7640000 SWAP1 PUSH2 0x3D7 SWAP1 DUP4 SWAP1 DUP4 PUSH2 0x441 JUMP JUMPDEST PUSH1 0x6 SLOAD PUSH1 0x8 SLOAD PUSH2 0x3F2 SWAP2 PUSH1 0x1 PUSH1 0x1 PUSH1 0xA0 SHL SUB AND SWAP1 DUP5 SWAP1 PUSH2 0x45F JUMP JUMPDEST SWAP3 POP POP POP SWAP1 JUMP JUMPDEST PUSH2 0x401 PUSH2 0xB70 JUMP JUMPDEST PUSH2 0x409 PUSH2 0xB70 JUMP JUMPDEST PUSH2 0x415 DUP2 DUP7 DUP7 DUP7 PUSH2 0x4F2 JUMP JUMPDEST SWAP6 SWAP5 POP POP POP POP POP JUMP JUMPDEST PUSH1 0x80 DUP4 ADD MLOAD PUSH2 0x42D SWAP1 DUP4 PUSH2 0x538 JUMP JUMPDEST PUSH1 0x80 DUP4 ADD MLOAD PUSH2 0x43C SWAP1 DUP3 PUSH2 0x538 JUMP JUMPDEST POP POP POP JUMP JUMPDEST PUSH1 0x80 DUP4 ADD MLOAD PUSH2 0x450 SWAP1 DUP4 PUSH2 0x538 JUMP JUMPDEST PUSH1 0x80 DUP4 ADD MLOAD PUSH2 0x43C SWAP1 DUP3 PUSH2 0x54F JUMP JUMPDEST PUSH1 0x4 SLOAD PUSH1 0x0 SWAP1 PUSH2 0x470 DUP2 PUSH1 0x1 PUSH2 0xBFA JUMP JUMPDEST PUSH1 0x4 SSTORE DUP4 MLOAD PUSH1 0x40 DUP1 DUP7 ADD MLOAD PUSH1 0x80 DUP8 ADD MLOAD MLOAD SWAP2 MLOAD PUSH1 0x0 SWAP4 PUSH4 0x20214CA3 PUSH1 0xE1 SHL SWAP4 PUSH2 0x4A8 SWAP4 DUP7 SWAP4 DUP5 SWAP4 SWAP3 ADDRESS SWAP3 SWAP2 DUP11 SWAP2 PUSH1 0x1 SWAP2 PUSH1 0x24 ADD PUSH2 0xC5F JUMP JUMPDEST PUSH1 0x40 DUP1 MLOAD PUSH1 0x1F NOT DUP2 DUP5 SUB ADD DUP2 MSTORE SWAP2 SWAP1 MSTORE PUSH1 0x20 DUP2 ADD DUP1 MLOAD PUSH1 0x1 PUSH1 0x1 PUSH1 0xE0 SHL SUB AND PUSH1 0x1 PUSH1 0x1 PUSH1 0xE0 SHL SUB NOT SWAP1 SWAP4 AND SWAP3 SWAP1 SWAP3 OR SWAP1 SWAP2 MSTORE SWAP1 POP PUSH2 0x4E8 DUP7 DUP4 DUP7 DUP5 PUSH2 0x5B3 JUMP JUMPDEST SWAP7 SWAP6 POP POP POP POP POP POP JUMP JUMPDEST PUSH2 0x4FA PUSH2 0xB70 JUMP JUMPDEST PUSH2 0x50A DUP6 PUSH1 0x80 ADD MLOAD PUSH2 0x100 PUSH2 0x711 JUMP JUMPDEST POP POP DUP3 DUP5 MSTORE PUSH1 0x1 PUSH1 0x1 PUSH1 0xA0 SHL SUB DUP3 AND PUSH1 0x20 DUP6 ADD MSTORE PUSH1 0x1 PUSH1 0x1 PUSH1 0xE0 SHL SUB NOT DUP2 AND PUSH1 0x40 DUP6 ADD MSTORE DUP4 JUMPDEST SWAP5 SWAP4 POP POP POP POP JUMP JUMPDEST PUSH2 0x545 DUP3 PUSH1 0x3 DUP4 MLOAD PUSH2 0x77C JUMP JUMPDEST PUSH2 0x43C DUP3 DUP3 PUSH2 0x891 JUMP JUMPDEST PUSH8 0xFFFFFFFFFFFFFFFF NOT DUP2 SLT ISZERO PUSH2 0x56E JUMPI PUSH2 0x56A DUP3 DUP3 PUSH2 0x8BF JUMP JUMPDEST POP POP JUMP JUMPDEST PUSH8 0xFFFFFFFFFFFFFFFF DUP2 SGT ISZERO PUSH2 0x588 JUMPI PUSH2 0x56A DUP3 DUP3 PUSH2 0x901 JUMP JUMPDEST PUSH1 0x0 DUP2 SLT PUSH2 0x59C JUMPI PUSH2 0x56A DUP3 PUSH1 0x0 DUP4 PUSH2 0x77C JUMP JUMPDEST PUSH2 0x56A DUP3 PUSH1 0x1 PUSH2 0x5AE DUP5 PUSH1 0x0 NOT PUSH2 0xCC7 JUMP JUMPDEST PUSH2 0x77C JUMP JUMPDEST PUSH1 0x40 MLOAD PUSH12 0xFFFFFFFFFFFFFFFFFFFFFFFF NOT ADDRESS PUSH1 0x60 SHL AND PUSH1 0x20 DUP3 ADD MSTORE PUSH1 0x34 DUP2 ADD DUP5 SWAP1 MSTORE PUSH1 0x0 SWAP1 PUSH1 0x54 ADD PUSH1 0x40 DUP1 MLOAD DUP1 DUP4 SUB PUSH1 0x1F NOT ADD DUP2 MSTORE DUP3 DUP3 MSTORE DUP1 MLOAD PUSH1 0x20 SWAP2 DUP3 ADD KECCAK256 PUSH1 0x0 DUP2 DUP2 MSTORE PUSH1 0x5 SWAP1 SWAP3 MSTORE SWAP2 DUP2 KECCAK256 DUP1 SLOAD PUSH1 0x1 PUSH1 0x1 PUSH1 0xA0 SHL SUB NOT AND PUSH1 0x1 PUSH1 0x1 PUSH1 0xA0 SHL SUB DUP11 AND OR SWAP1 SSTORE SWAP1 SWAP3 POP DUP3 SWAP2 PUSH32 0xB5E6E01E79F91267DC17B4E6314D5D4D03593D2CEEE0FBB452B750BD70EA5AF9 SWAP2 SWAP1 LOG2 PUSH1 0x2 SLOAD PUSH1 0x40 MLOAD PUSH4 0x2000575 PUSH1 0xE5 SHL DUP2 MSTORE PUSH1 0x1 PUSH1 0x1 PUSH1 0xA0 SHL SUB SWAP1 SWAP2 AND SWAP1 PUSH4 0x4000AEA0 SWAP1 PUSH2 0x676 SWAP1 DUP9 SWAP1 DUP8 SWAP1 DUP8 SWAP1 PUSH1 0x4 ADD PUSH2 0xD06 JUMP JUMPDEST PUSH1 0x20 PUSH1 0x40 MLOAD DUP1 DUP4 SUB DUP2 PUSH1 0x0 DUP8 GAS CALL ISZERO DUP1 ISZERO PUSH2 0x695 JUMPI RETURNDATASIZE PUSH1 0x0 DUP1 RETURNDATACOPY RETURNDATASIZE PUSH1 0x0 REVERT JUMPDEST POP POP POP POP PUSH1 0x40 MLOAD RETURNDATASIZE PUSH1 0x1F NOT PUSH1 0x1F DUP3 ADD AND DUP3 ADD DUP1 PUSH1 0x40 MSTORE POP DUP2 ADD SWAP1 PUSH2 0x6B9 SWAP2 SWAP1 PUSH2 0xD2D JUMP JUMPDEST PUSH2 0x530 JUMPI PUSH1 0x40 MLOAD PUSH3 0x461BCD PUSH1 0xE5 SHL DUP2 MSTORE PUSH1 0x20 PUSH1 0x4 DUP3 ADD MSTORE PUSH1 0x23 PUSH1 0x24 DUP3 ADD MSTORE PUSH32 0x756E61626C6520746F207472616E73666572416E6443616C6C20746F206F7261 PUSH1 0x44 DUP3 ADD MSTORE PUSH3 0x636C65 PUSH1 0xE8 SHL PUSH1 0x64 DUP3 ADD MSTORE PUSH1 0x84 ADD PUSH2 0x29E JUMP JUMPDEST PUSH1 0x40 DUP1 MLOAD DUP1 DUP3 ADD SWAP1 SWAP2 MSTORE PUSH1 0x60 DUP2 MSTORE PUSH1 0x0 PUSH1 0x20 DUP3 ADD MSTORE PUSH2 0x731 PUSH1 0x20 DUP4 PUSH2 0xD4F JUMP JUMPDEST ISZERO PUSH2 0x759 JUMPI PUSH2 0x741 PUSH1 0x20 DUP4 PUSH2 0xD4F JUMP JUMPDEST PUSH2 0x74C SWAP1 PUSH1 0x20 PUSH2 0xBE3 JUMP JUMPDEST PUSH2 0x756 SWAP1 DUP4 PUSH2 0xBFA JUMP JUMPDEST SWAP2 POP JUMPDEST POP PUSH1 0x20 DUP1 DUP4 ADD DUP3 SWAP1 MSTORE PUSH1 0x40 DUP1 MLOAD DUP1 DUP6 MSTORE PUSH1 0x0 DUP2 MSTORE DUP4 ADD SWAP1 SWAP2 ADD SWAP1 MSTORE DUP2 JUMPDEST SWAP3 SWAP2 POP POP JUMP JUMPDEST PUSH1 0x17 DUP2 PUSH8 0xFFFFFFFFFFFFFFFF AND GT PUSH2 0x7A7 JUMPI PUSH2 0x7A1 DUP4 PUSH1 0xE0 PUSH1 0x5 DUP6 SWAP1 SHL AND DUP4 OR PUSH2 0x924 JUMP JUMPDEST POP POP POP POP JUMP JUMPDEST PUSH1 0xFF DUP2 PUSH8 0xFFFFFFFFFFFFFFFF AND GT PUSH2 0x7E5 JUMPI PUSH2 0x7CE DUP4 PUSH1 0x18 PUSH2 0x1FE0 PUSH1 0x5 DUP7 SWAP1 SHL AND OR PUSH2 0x924 JUMP JUMPDEST POP PUSH2 0x7A1 DUP4 PUSH8 0xFFFFFFFFFFFFFFFF DUP4 AND PUSH1 0x1 PUSH2 0x949 JUMP JUMPDEST PUSH2 0xFFFF DUP2 PUSH8 0xFFFFFFFFFFFFFFFF AND GT PUSH2 0x824 JUMPI PUSH2 0x80D DUP4 PUSH1 0x19 PUSH2 0x1FE0 PUSH1 0x5 DUP7 SWAP1 SHL AND OR PUSH2 0x924 JUMP JUMPDEST POP PUSH2 0x7A1 DUP4 PUSH8 0xFFFFFFFFFFFFFFFF DUP4 AND PUSH1 0x2 PUSH2 0x949 JUMP JUMPDEST PUSH4 0xFFFFFFFF DUP2 PUSH8 0xFFFFFFFFFFFFFFFF AND GT PUSH2 0x865 JUMPI PUSH2 0x84E DUP4 PUSH1 0x1A PUSH2 0x1FE0 PUSH1 0x5 DUP7 SWAP1 SHL AND OR PUSH2 0x924 JUMP JUMPDEST POP PUSH2 0x7A1 DUP4 PUSH8 0xFFFFFFFFFFFFFFFF DUP4 AND PUSH1 0x4 PUSH2 0x949 JUMP JUMPDEST PUSH2 0x87A DUP4 PUSH1 0x1B PUSH2 0x1FE0 PUSH1 0x5 DUP7 SWAP1 SHL AND OR PUSH2 0x924 JUMP JUMPDEST POP PUSH2 0x7A1 DUP4 PUSH8 0xFFFFFFFFFFFFFFFF DUP4 AND PUSH1 0x8 PUSH2 0x949 JUMP JUMPDEST PUSH1 0x40 DUP1 MLOAD DUP1 DUP3 ADD SWAP1 SWAP2 MSTORE PUSH1 0x60 DUP2 MSTORE PUSH1 0x0 PUSH1 0x20 DUP3 ADD MSTORE PUSH2 0x8B8 DUP4 DUP5 PUSH1 0x0 ADD MLOAD MLOAD DUP5 DUP6 MLOAD PUSH2 0x96F JUMP JUMPDEST SWAP4 SWAP3 POP POP POP JUMP JUMPDEST PUSH2 0x8CA DUP3 PUSH1 0xC3 PUSH2 0x924 JUMP JUMPDEST POP PUSH2 0x56A DUP3 PUSH2 0x8DB DUP4 PUSH1 0x0 NOT PUSH2 0xCC7 JUMP JUMPDEST PUSH1 0x40 MLOAD PUSH1 0x20 ADD PUSH2 0x8ED SWAP2 DUP2 MSTORE PUSH1 0x20 ADD SWAP1 JUMP JUMPDEST PUSH1 0x40 MLOAD PUSH1 0x20 DUP2 DUP4 SUB SUB DUP2 MSTORE SWAP1 PUSH1 0x40 MSTORE PUSH2 0xA59 JUMP JUMPDEST PUSH2 0x90C DUP3 PUSH1 0xC2 PUSH2 0x924 JUMP JUMPDEST POP PUSH2 0x56A DUP3 DUP3 PUSH1 0x40 MLOAD PUSH1 0x20 ADD PUSH2 0x8ED SWAP2 DUP2 MSTORE PUSH1 0x20 ADD SWAP1 JUMP JUMPDEST PUSH1 0x40 DUP1 MLOAD DUP1 DUP3 ADD SWAP1 SWAP2 MSTORE PUSH1 0x60 DUP2 MSTORE PUSH1 0x0 PUSH1 0x20 DUP3 ADD MSTORE PUSH2 0x8B8 DUP4 DUP5 PUSH1 0x0 ADD MLOAD MLOAD DUP5 PUSH2 0xA66 JUMP JUMPDEST PUSH1 0x40 DUP1 MLOAD DUP1 DUP3 ADD SWAP1 SWAP2 MSTORE PUSH1 0x60 DUP2 MSTORE PUSH1 0x0 PUSH1 0x20 DUP3 ADD MSTORE PUSH2 0x530 DUP5 DUP6 PUSH1 0x0 ADD MLOAD MLOAD DUP6 DUP6 PUSH2 0xAC1 JUMP JUMPDEST PUSH1 0x40 DUP1 MLOAD DUP1 DUP3 ADD SWAP1 SWAP2 MSTORE PUSH1 0x60 DUP2 MSTORE PUSH1 0x0 PUSH1 0x20 DUP3 ADD MSTORE DUP3 MLOAD DUP3 GT ISZERO PUSH2 0x992 JUMPI PUSH1 0x0 DUP1 REVERT JUMPDEST PUSH1 0x20 DUP6 ADD MLOAD PUSH2 0x9A1 DUP4 DUP7 PUSH2 0xBFA JUMP JUMPDEST GT ISZERO PUSH2 0x9D4 JUMPI PUSH2 0x9D4 DUP6 PUSH2 0x9C4 DUP8 PUSH1 0x20 ADD MLOAD DUP8 DUP7 PUSH2 0x9BF SWAP2 SWAP1 PUSH2 0xBFA JUMP JUMPDEST PUSH2 0xB42 JUMP JUMPDEST PUSH2 0x9CF SWAP1 PUSH1 0x2 PUSH2 0xD71 JUMP JUMPDEST PUSH2 0xB59 JUMP JUMPDEST PUSH1 0x0 DUP1 DUP7 MLOAD DUP1 MLOAD DUP8 PUSH1 0x20 DUP4 ADD ADD SWAP4 POP DUP1 DUP9 DUP8 ADD GT ISZERO PUSH2 0x9F3 JUMPI DUP8 DUP7 ADD DUP3 MSTORE JUMPDEST POP POP POP PUSH1 0x20 DUP5 ADD JUMPDEST PUSH1 0x20 DUP5 LT PUSH2 0xA33 JUMPI DUP1 MLOAD DUP3 MSTORE PUSH2 0xA12 PUSH1 0x20 DUP4 PUSH2 0xBFA JUMP JUMPDEST SWAP2 POP PUSH2 0xA1F PUSH1 0x20 DUP3 PUSH2 0xBFA JUMP JUMPDEST SWAP1 POP PUSH2 0xA2C PUSH1 0x20 DUP6 PUSH2 0xBE3 JUMP JUMPDEST SWAP4 POP PUSH2 0x9FB JUMP JUMPDEST MLOAD DUP2 MLOAD PUSH1 0x0 NOT PUSH1 0x20 DUP7 SWAP1 SUB PUSH2 0x100 EXP ADD SWAP1 DUP2 AND SWAP1 NOT SWAP2 SWAP1 SWAP2 AND OR SWAP1 MSTORE POP DUP4 SWAP5 SWAP4 POP POP POP POP JUMP JUMPDEST PUSH2 0x545 DUP3 PUSH1 0x2 DUP4 MLOAD PUSH2 0x77C JUMP JUMPDEST PUSH1 0x40 DUP1 MLOAD DUP1 DUP3 ADD SWAP1 SWAP2 MSTORE PUSH1 0x60 DUP2 MSTORE PUSH1 0x0 PUSH1 0x20 DUP3 ADD MSTORE DUP4 PUSH1 0x20 ADD MLOAD DUP4 LT PUSH2 0xA9B JUMPI PUSH2 0xA9B DUP5 DUP6 PUSH1 0x20 ADD MLOAD PUSH1 0x2 PUSH2 0x9CF SWAP2 SWAP1 PUSH2 0xD71 JUMP JUMPDEST DUP4 MLOAD DUP1 MLOAD PUSH1 0x20 DUP6 DUP4 ADD ADD DUP5 DUP2 MSTORE8 POP DUP1 DUP6 SUB PUSH2 0xAB7 JUMPI PUSH1 0x1 DUP2 ADD DUP3 MSTORE JUMPDEST POP SWAP4 SWAP5 SWAP4 POP POP POP POP JUMP JUMPDEST PUSH1 0x40 DUP1 MLOAD DUP1 DUP3 ADD SWAP1 SWAP2 MSTORE PUSH1 0x60 DUP2 MSTORE PUSH1 0x0 PUSH1 0x20 DUP3 ADD MSTORE PUSH1 0x20 DUP6 ADD MLOAD PUSH2 0xAE5 DUP6 DUP5 PUSH2 0xBFA JUMP JUMPDEST GT ISZERO PUSH2 0xAF9 JUMPI PUSH2 0xAF9 DUP6 PUSH2 0x9C4 DUP7 DUP6 PUSH2 0xBFA JUMP JUMPDEST PUSH1 0x0 PUSH1 0x1 PUSH2 0xB09 DUP5 PUSH2 0x100 PUSH2 0xE74 JUMP JUMPDEST PUSH2 0xB13 SWAP2 SWAP1 PUSH2 0xBE3 JUMP JUMPDEST SWAP1 POP DUP6 MLOAD DUP4 DUP7 DUP3 ADD ADD DUP6 DUP4 NOT DUP3 MLOAD AND OR DUP2 MSTORE POP DUP1 MLOAD DUP5 DUP8 ADD GT ISZERO PUSH2 0xB37 JUMPI DUP4 DUP7 ADD DUP2 MSTORE JUMPDEST POP SWAP5 SWAP6 SWAP5 POP POP POP POP POP JUMP JUMPDEST PUSH1 0x0 DUP2 DUP4 GT ISZERO PUSH2 0xB53 JUMPI POP DUP2 PUSH2 0x776 JUMP JUMPDEST POP SWAP2 SWAP1 POP JUMP JUMPDEST DUP2 MLOAD PUSH2 0xB65 DUP4 DUP4 PUSH2 0x711 JUMP JUMPDEST POP PUSH2 0x7A1 DUP4 DUP3 PUSH2 0x891 JUMP JUMPDEST PUSH1 0x40 DUP1 MLOAD PUSH1 0xA0 DUP2 ADD DUP3 MSTORE PUSH1 0x0 DUP1 DUP3 MSTORE PUSH1 0x20 DUP1 DUP4 ADD DUP3 SWAP1 MSTORE DUP3 DUP5 ADD DUP3 SWAP1 MSTORE PUSH1 0x60 DUP1 DUP5 ADD DUP4 SWAP1 MSTORE DUP5 MLOAD DUP1 DUP7 ADD SWAP1 SWAP6 MSTORE DUP5 MSTORE DUP4 ADD MSTORE SWAP1 PUSH1 0x80 DUP3 ADD MSTORE SWAP1 JUMP JUMPDEST PUSH1 0x0 DUP1 PUSH1 0x40 DUP4 DUP6 SUB SLT ISZERO PUSH2 0xBBE JUMPI PUSH1 0x0 DUP1 REVERT JUMPDEST POP POP DUP1 CALLDATALOAD SWAP3 PUSH1 0x20 SWAP1 SWAP2 ADD CALLDATALOAD SWAP2 POP JUMP JUMPDEST PUSH4 0x4E487B71 PUSH1 0xE0 SHL PUSH1 0x0 MSTORE PUSH1 0x11 PUSH1 0x4 MSTORE PUSH1 0x24 PUSH1 0x0 REVERT JUMPDEST PUSH1 0x0 DUP3 DUP3 LT ISZERO PUSH2 0xBF5 JUMPI PUSH2 0xBF5 PUSH2 0xBCD JUMP JUMPDEST POP SUB SWAP1 JUMP JUMPDEST PUSH1 0x0 DUP3 NOT DUP3 GT ISZERO PUSH2 0xC0D JUMPI PUSH2 0xC0D PUSH2 0xBCD JUMP JUMPDEST POP ADD SWAP1 JUMP JUMPDEST PUSH1 0x0 DUP2 MLOAD DUP1 DUP5 MSTORE PUSH1 0x0 JUMPDEST DUP2 DUP2 LT ISZERO PUSH2 0xC38 JUMPI PUSH1 0x20 DUP2 DUP6 ADD DUP2 ADD MLOAD DUP7 DUP4 ADD DUP3 ADD MSTORE ADD PUSH2 0xC1C JUMP JUMPDEST DUP2 DUP2 GT ISZERO PUSH2 0xC4A JUMPI PUSH1 0x0 PUSH1 0x20 DUP4 DUP8 ADD ADD MSTORE JUMPDEST POP PUSH1 0x1F ADD PUSH1 0x1F NOT AND SWAP3 SWAP1 SWAP3 ADD PUSH1 0x20 ADD SWAP3 SWAP2 POP POP JUMP JUMPDEST PUSH1 0x1 PUSH1 0x1 PUSH1 0xA0 SHL SUB DUP10 DUP2 AND DUP3 MSTORE PUSH1 0x20 DUP3 ADD DUP10 SWAP1 MSTORE PUSH1 0x40 DUP3 ADD DUP9 SWAP1 MSTORE DUP7 AND PUSH1 0x60 DUP3 ADD MSTORE PUSH1 0x1 PUSH1 0x1 PUSH1 0xE0 SHL SUB NOT DUP6 AND PUSH1 0x80 DUP3 ADD MSTORE PUSH1 0xA0 DUP2 ADD DUP5 SWAP1 MSTORE PUSH1 0xC0 DUP2 ADD DUP4 SWAP1 MSTORE PUSH2 0x100 PUSH1 0xE0 DUP3 ADD DUP2 SWAP1 MSTORE PUSH1 0x0 SWAP1 PUSH2 0xCB8 DUP4 DUP3 ADD DUP6 PUSH2 0xC12 JUMP JUMPDEST SWAP12 SWAP11 POP POP POP POP POP POP POP POP POP POP POP JUMP JUMPDEST PUSH1 0x0 DUP1 DUP4 SLT DUP1 ISZERO PUSH1 0x1 PUSH1 0xFF SHL DUP6 ADD DUP5 SLT AND ISZERO PUSH2 0xCE5 JUMPI PUSH2 0xCE5 PUSH2 0xBCD JUMP JUMPDEST PUSH1 0x1 PUSH1 0x1 PUSH1 0xFF SHL SUB DUP5 ADD DUP4 SGT DUP2 AND ISZERO PUSH2 0xD00 JUMPI PUSH2 0xD00 PUSH2 0xBCD JUMP JUMPDEST POP POP SUB SWAP1 JUMP JUMPDEST PUSH1 0x1 DUP1 PUSH1 0xA0 SHL SUB DUP5 AND DUP2 MSTORE DUP3 PUSH1 0x20 DUP3 ADD MSTORE PUSH1 0x60 PUSH1 0x40 DUP3 ADD MSTORE PUSH1 0x0 PUSH2 0x415 PUSH1 0x60 DUP4 ADD DUP5 PUSH2 0xC12 JUMP JUMPDEST PUSH1 0x0 PUSH1 0x20 DUP3 DUP5 SUB SLT ISZERO PUSH2 0xD3F JUMPI PUSH1 0x0 DUP1 REVERT JUMPDEST DUP2 MLOAD DUP1 ISZERO ISZERO DUP2 EQ PUSH2 0x8B8 JUMPI PUSH1 0x0 DUP1 REVERT JUMPDEST PUSH1 0x0 DUP3 PUSH2 0xD6C JUMPI PUSH4 0x4E487B71 PUSH1 0xE0 SHL PUSH1 0x0 MSTORE PUSH1 0x12 PUSH1 0x4 MSTORE PUSH1 0x24 PUSH1 0x0 REVERT JUMPDEST POP MOD SWAP1 JUMP JUMPDEST PUSH1 0x0 DUP2 PUSH1 0x0 NOT DIV DUP4 GT DUP3 ISZERO ISZERO AND ISZERO PUSH2 0xD8B JUMPI PUSH2 0xD8B PUSH2 0xBCD JUMP JUMPDEST POP MUL SWAP1 JUMP JUMPDEST PUSH1 0x1 DUP2 DUP2 JUMPDEST DUP1 DUP6 GT ISZERO PUSH2 0xDCB JUMPI DUP2 PUSH1 0x0 NOT DIV DUP3 GT ISZERO PUSH2 0xDB1 JUMPI PUSH2 0xDB1 PUSH2 0xBCD JUMP JUMPDEST DUP1 DUP6 AND ISZERO PUSH2 0xDBE JUMPI SWAP2 DUP2 MUL SWAP2 JUMPDEST SWAP4 DUP5 SHR SWAP4 SWAP1 DUP1 MUL SWAP1 PUSH2 0xD95 JUMP JUMPDEST POP SWAP3 POP SWAP3 SWAP1 POP JUMP JUMPDEST PUSH1 0x0 DUP3 PUSH2 0xDE2 JUMPI POP PUSH1 0x1 PUSH2 0x776 JUMP JUMPDEST DUP2 PUSH2 0xDEF JUMPI POP PUSH1 0x0 PUSH2 0x776 JUMP JUMPDEST DUP2 PUSH1 0x1 DUP2 EQ PUSH2 0xE05 JUMPI PUSH1 0x2 DUP2 EQ PUSH2 0xE0F JUMPI PUSH2 0xE2B JUMP JUMPDEST PUSH1 0x1 SWAP2 POP POP PUSH2 0x776 JUMP JUMPDEST PUSH1 0xFF DUP5 GT ISZERO PUSH2 0xE20 JUMPI PUSH2 0xE20 PUSH2 0xBCD JUMP JUMPDEST POP POP PUSH1 0x1 DUP3 SHL PUSH2 0x776 JUMP JUMPDEST POP PUSH1 0x20 DUP4 LT PUSH2 0x133 DUP4 LT AND PUSH1 0x4E DUP5 LT PUSH1 0xB DUP5 LT AND OR ISZERO PUSH2 0xE4E JUMPI POP DUP2 DUP2 EXP PUSH2 0x776 JUMP JUMPDEST PUSH2 0xE58 DUP4 DUP4 PUSH2 0xD90 JUMP JUMPDEST DUP1 PUSH1 0x0 NOT DIV DUP3 GT ISZERO PUSH2 0xE6C JUMPI PUSH2 0xE6C PUSH2 0xBCD JUMP JUMPDEST MUL SWAP4 SWAP3 POP POP POP JUMP JUMPDEST PUSH1 0x0 PUSH2 0x8B8 DUP4 DUP4 PUSH2 0xDD3 JUMP INVALID PUSH9 0x7474703A2F2F647265 PUSH25 0x616C6C2D656E762E6562612D65336D6E6E6D36392E75732D65 PUSH2 0x7374 0x2D BALANCE 0x2E PUSH6 0x6C6173746963 PUSH3 0x65616E PUSH20 0x74616C6B2E636F6D2F677269642F6C6173743F63 PUSH16 0x64653D647265785F70696C6F74A26469 PUSH17 0x667358221220FBE5B0C32249F744BBF7CA INVALID PUSH29 0x344FFCF4174F38C64AA73BA041E9260265812B64736F6C634300080E00 CALLER ",
  "sha1": "18b60459bc9519da3f79074a1d4de764804de86f",
  "source": "// SPDX-License-Identifier: GPL-3.0\n\npragma solidity ^0.8.1;\n\nimport \"@chainlink/contracts/src/v0.8/ChainlinkClient.sol\";\nimport \"./AdvancedCollectible.sol\";\nimport \"./Our_ERC20.sol\";\n\ncontract Client is ChainlinkClient {\n    using Chainlink for Chainlink.Request;\n\n    address private oracle;\n    bytes32 private jobId;\n    uint256 private fee;\n    uint256 public volume;\n    address payable public nft_contract;\n    address public drex_token_contract;\n    uint256 public curr_volume;\n\n    //events\n    event TOKEN_TRANSFER(uint256 transferd_amout);\n\n    /**\n    This example uses the LINK token address on Moonbase Alpha.\n    Make sure to update the oracle and jobId.\n    */\n    constructor(address payable nft_address, address erc20_address) {\n        setChainlinkToken(address(0xa36085F69e2889c224210F603D836748e7dC0088));\n        oracle = 0xD4D9ac4ecF5dDf18056ce6A91d0a8E7B0c910ccE;\n        jobId = \"79abc1e36be340a697e2b49dd2d86798\";\n        fee = 0;\n        nft_contract = nft_address;\n        drex_token_contract = erc20_address;\n        curr_volume = 0;\n    }\n\n    /**\n     * Create a Chainlink request to retrieve API response, find the target\n     * data, then multiply by 1000000000000000000 (to remove decimal places from data).\n     */\n\n    /// @notice This functions sends requests on the end point and calls the fulfill function to update the volume\n    /// @return requestId\n    function request_sensor_data() public returns (bytes32 requestId) {\n        Chainlink.Request memory request = buildChainlinkRequest(\n            jobId,\n            address(this),\n            this.fulfill.selector\n        );\n\n        // Set the URL to perform the GET request on\n        request.add(\n            \"get\",\n            \"http://drexall-env.eba-e3mnnm69.us-east-1.elasticbeanstalk.com/grid/last?code=drex_pilot\"\n        );\n\n        // Set the path to find the desired data in the API response, where the response format is:\n\n        request.add(\"path\", \"energy-accumulated\");\n\n        // Multiply the result by 1000000000000000000 to remove decimals\n        int256 timesAmount = 10**18;\n        request.addInt(\"times\", timesAmount);\n\n        // Sends the request\n        return sendChainlinkRequestTo(oracle, request, fee);\n    }\n\n    /**\n     * Receive the response in the form of uint256\n     */\n    function fulfill(bytes32 _requestId, uint256 _volume)\n        public\n        recordChainlinkFulfillment(_requestId)\n    {\n        volume = _volume;\n    }\n\n    ///@notice This function makes intercontract calls and transfers the erc20 tokens to nft contract and updates the balance for each nft holder\n\n    function token_transfer() public {\n        uint256 amt_generated = volume - curr_volume;\n        curr_volume = volume;\n        Nft_interface nfti = Nft_interface(nft_contract);\n        drex_token_interface erc20 = drex_token_interface(drex_token_contract);\n        erc20.tranferingfunds(nft_contract, amt_generated);\n        nfti.update_nft_balance(amt_generated);\n        emit TOKEN_TRANSFER(amt_generated);\n    }\n}\n",
  "sourcePath": "contracts/DrexApi.sol",
  "type": "contract"
}