{
  "abi": [
    {
      "inputs": [
        {
          "internalType": "address",
          "name": "stable_coin_address",
          "type": "address"
        },
        {
          "internalType": "address",
          "name": "drex_token_address",
          "type": "address"
        }
      ],
      "stateMutability": "nonpayable",
      "type": "constructor"
    },
    {
      "anonymous": false,
      "inputs": [
        {
          "indexed": false,
          "internalType": "address",
          "name": "_destAddr",
          "type": "address"
        },
        {
          "indexed": false,
          "internalType": "uint256",
          "name": "_amount",
          "type": "uint256"
        }
      ],
      "name": "TransferSent",
      "type": "event"
    },
    {
      "inputs": [],
      "name": "drex_stable",
      "outputs": [
        {
          "internalType": "contract DRExStable",
          "name": "",
          "type": "address"
        }
      ],
      "stateMutability": "view",
      "type": "function"
    },
    {
      "inputs": [],
      "name": "drex_token",
      "outputs": [
        {
          "internalType": "contract DRExToken",
          "name": "",
          "type": "address"
        }
      ],
      "stateMutability": "view",
      "type": "function"
    },
    {
      "inputs": [
        {
          "internalType": "uint256",
          "name": "amount",
          "type": "uint256"
        }
      ],
      "name": "pay_fees",
      "outputs": [],
      "stateMutability": "payable",
      "type": "function"
    },
    {
      "inputs": [],
      "name": "redeem",
      "outputs": [],
      "stateMutability": "nonpayable",
      "type": "function"
    },
    {
      "inputs": [
        {
          "internalType": "bytes32",
          "name": "",
          "type": "bytes32"
        }
      ],
      "name": "reqTosender",
      "outputs": [
        {
          "internalType": "address",
          "name": "",
          "type": "address"
        }
      ],
      "stateMutability": "view",
      "type": "function"
    },
    {
      "inputs": [],
      "name": "transfer_to_owner",
      "outputs": [],
      "stateMutability": "nonpayable",
      "type": "function"
    }
  ],
  "bytecode": "608060405234801561001057600080fd5b5060405161066b38038061066b83398101604081905261002f9161008c565b600180546001600160a01b039384166001600160a01b03199182161790915560008054929093169181169190911790915560028054909116331790556100be565b80516001600160a01b038116811461008757600080fd5b919050565b6000806040838503121561009e578182fd5b6100a783610070565b91506100b560208401610070565b90509250929050565b61059e806100cd6000396000f3fe6080604052600436106100555760003560e01c806325046e681461005a578063364c6ab8146100855780633ffaf5c61461009a578063a3d0b404146100af578063be040fb0146100c4578063fdfecf8a146100d9575b600080fd5b34801561006657600080fd5b5061006f6100f9565b60405161007c91906104a8565b60405180910390f35b34801561009157600080fd5b5061006f610108565b6100ad6100a8366004610478565b610117565b005b3480156100bb57600080fd5b506100ad610282565b3480156100d057600080fd5b506100ad6103ab565b3480156100e557600080fd5b5061006f6100f4366004610478565b610436565b6000546001600160a01b031681565b6001546001600160a01b031681565b6001546040516370a0823160e01b815282916001600160a01b0316906370a08231906101479033906004016104a8565b60206040518083038186803b15801561015f57600080fd5b505afa158015610173573d6000803e3d6000fd5b505050506040513d601f19601f820116820180604052508101906101979190610490565b116101bd5760405162461bcd60e51b81526004016101b490610526565b60405180910390fd5b6001546040516323b872dd60e01b81526001600160a01b03909116906323b872dd906101f1903390309086906004016104bc565b602060405180830381600087803b15801561020b57600080fd5b505af115801561021f573d6000803e3d6000fd5b505050506040513d601f19601f820116820180604052508101906102439190610451565b507f8aa89c45e00b1dc8befa3736e4d341042a1cd0021a629920526985a6028f7525306004546040516102779291906104e0565b60405180910390a150565b6002546001600160a01b031633146102ac5760405162461bcd60e51b81526004016101b4906104f9565b6000546002546040516370a0823160e01b81526001600160a01b039283169263095ea7b392169083906370a08231906102e99030906004016104a8565b60206040518083038186803b15801561030157600080fd5b505afa158015610315573d6000803e3d6000fd5b505050506040513d601f19601f820116820180604052508101906103399190610490565b6040518363ffffffff1660e01b81526004016103569291906104e0565b602060405180830381600087803b15801561037057600080fd5b505af1158015610384573d6000803e3d6000fd5b505050506040513d601f19601f820116820180604052508101906103a89190610451565b50565b6000546040516323b872dd60e01b8152600a916001600160a01b0316906323b872dd906103e0903390309086906004016104bc565b602060405180830381600087803b1580156103fa57600080fd5b505af115801561040e573d6000803e3d6000fd5b505050506040513d601f19601f820116820180604052508101906104329190610451565b5050565b6003602052600090815260409020546001600160a01b031681565b600060208284031215610462578081fd5b81518015158114610471578182fd5b9392505050565b600060208284031215610489578081fd5b5035919050565b6000602082840312156104a1578081fd5b5051919050565b6001600160a01b0391909116815260200190565b6001600160a01b039384168152919092166020820152604081019190915260600190565b6001600160a01b03929092168252602082015260400190565b60208082526013908201527221b0b63632b91034b9903737ba1037bbb732b960691b604082015260600190565b60208082526022908201527f42616c616e6365206e6f7420656e6f7567682c706c6561736520726563686172604082015261676560f01b60608201526080019056fea2646970667358221220da3d37cc9c78483a87e1fb965696b849424c87457ad74113b6ac98ecb417b0b964736f6c63430008010033",
  "bytecodeSha1": "6ec9deda16edf2fc768a7201e75d08787e7f3d45",
  "compiler": {
    "evm_version": "istanbul",
    "optimizer": {
      "enabled": true,
      "runs": 200
    },
    "version": "0.8.1+commit.df193b15"
  },
  "contractName": "DrexTreasury",
  "language": "Solidity",
  "natspec": {
    "kind": "dev",
    "methods": {
      "pay_fees(uint256)": {
        "notice": "This function is used to by the smes to send payments for the gas they have used",
        "params": {
          "amount": "--> the amount smes will be paying"
        }
      },
      "redeem()": {
        "notice": "This function is used by nft owner to convert their drexTokens to drexStable coins"
      }
    },
    "version": 1
  },
  "opcodes": "PUSH1 0x80 PUSH1 0x40 MSTORE PUSH1 0x4 CALLDATASIZE LT PUSH2 0x55 JUMPI PUSH1 0x0 CALLDATALOAD PUSH1 0xE0 SHR DUP1 PUSH4 0x25046E68 EQ PUSH2 0x5A JUMPI DUP1 PUSH4 0x364C6AB8 EQ PUSH2 0x85 JUMPI DUP1 PUSH4 0x3FFAF5C6 EQ PUSH2 0x9A JUMPI DUP1 PUSH4 0xA3D0B404 EQ PUSH2 0xAF JUMPI DUP1 PUSH4 0xBE040FB0 EQ PUSH2 0xC4 JUMPI DUP1 PUSH4 0xFDFECF8A EQ PUSH2 0xD9 JUMPI JUMPDEST PUSH1 0x0 DUP1 REVERT JUMPDEST CALLVALUE DUP1 ISZERO PUSH2 0x66 JUMPI PUSH1 0x0 DUP1 REVERT JUMPDEST POP PUSH2 0x6F PUSH2 0xF9 JUMP JUMPDEST PUSH1 0x40 MLOAD PUSH2 0x7C SWAP2 SWAP1 PUSH2 0x4A8 JUMP JUMPDEST PUSH1 0x40 MLOAD DUP1 SWAP2 SUB SWAP1 RETURN JUMPDEST CALLVALUE DUP1 ISZERO PUSH2 0x91 JUMPI PUSH1 0x0 DUP1 REVERT JUMPDEST POP PUSH2 0x6F PUSH2 0x108 JUMP JUMPDEST PUSH2 0xAD PUSH2 0xA8 CALLDATASIZE PUSH1 0x4 PUSH2 0x478 JUMP JUMPDEST PUSH2 0x117 JUMP JUMPDEST STOP JUMPDEST CALLVALUE DUP1 ISZERO PUSH2 0xBB JUMPI PUSH1 0x0 DUP1 REVERT JUMPDEST POP PUSH2 0xAD PUSH2 0x282 JUMP JUMPDEST CALLVALUE DUP1 ISZERO PUSH2 0xD0 JUMPI PUSH1 0x0 DUP1 REVERT JUMPDEST POP PUSH2 0xAD PUSH2 0x3AB JUMP JUMPDEST CALLVALUE DUP1 ISZERO PUSH2 0xE5 JUMPI PUSH1 0x0 DUP1 REVERT JUMPDEST POP PUSH2 0x6F PUSH2 0xF4 CALLDATASIZE PUSH1 0x4 PUSH2 0x478 JUMP JUMPDEST PUSH2 0x436 JUMP JUMPDEST PUSH1 0x0 SLOAD PUSH1 0x1 PUSH1 0x1 PUSH1 0xA0 SHL SUB AND DUP2 JUMP JUMPDEST PUSH1 0x1 SLOAD PUSH1 0x1 PUSH1 0x1 PUSH1 0xA0 SHL SUB AND DUP2 JUMP JUMPDEST PUSH1 0x1 SLOAD PUSH1 0x40 MLOAD PUSH4 0x70A08231 PUSH1 0xE0 SHL DUP2 MSTORE DUP3 SWAP2 PUSH1 0x1 PUSH1 0x1 PUSH1 0xA0 SHL SUB AND SWAP1 PUSH4 0x70A08231 SWAP1 PUSH2 0x147 SWAP1 CALLER SWAP1 PUSH1 0x4 ADD PUSH2 0x4A8 JUMP JUMPDEST PUSH1 0x20 PUSH1 0x40 MLOAD DUP1 DUP4 SUB DUP2 DUP7 DUP1 EXTCODESIZE ISZERO DUP1 ISZERO PUSH2 0x15F JUMPI PUSH1 0x0 DUP1 REVERT JUMPDEST POP GAS STATICCALL ISZERO DUP1 ISZERO PUSH2 0x173 JUMPI RETURNDATASIZE PUSH1 0x0 DUP1 RETURNDATACOPY RETURNDATASIZE PUSH1 0x0 REVERT JUMPDEST POP POP POP POP PUSH1 0x40 MLOAD RETURNDATASIZE PUSH1 0x1F NOT PUSH1 0x1F DUP3 ADD AND DUP3 ADD DUP1 PUSH1 0x40 MSTORE POP DUP2 ADD SWAP1 PUSH2 0x197 SWAP2 SWAP1 PUSH2 0x490 JUMP JUMPDEST GT PUSH2 0x1BD JUMPI PUSH1 0x40 MLOAD PUSH3 0x461BCD PUSH1 0xE5 SHL DUP2 MSTORE PUSH1 0x4 ADD PUSH2 0x1B4 SWAP1 PUSH2 0x526 JUMP JUMPDEST PUSH1 0x40 MLOAD DUP1 SWAP2 SUB SWAP1 REVERT JUMPDEST PUSH1 0x1 SLOAD PUSH1 0x40 MLOAD PUSH4 0x23B872DD PUSH1 0xE0 SHL DUP2 MSTORE PUSH1 0x1 PUSH1 0x1 PUSH1 0xA0 SHL SUB SWAP1 SWAP2 AND SWAP1 PUSH4 0x23B872DD SWAP1 PUSH2 0x1F1 SWAP1 CALLER SWAP1 ADDRESS SWAP1 DUP7 SWAP1 PUSH1 0x4 ADD PUSH2 0x4BC JUMP JUMPDEST PUSH1 0x20 PUSH1 0x40 MLOAD DUP1 DUP4 SUB DUP2 PUSH1 0x0 DUP8 DUP1 EXTCODESIZE ISZERO DUP1 ISZERO PUSH2 0x20B JUMPI PUSH1 0x0 DUP1 REVERT JUMPDEST POP GAS CALL ISZERO DUP1 ISZERO PUSH2 0x21F JUMPI RETURNDATASIZE PUSH1 0x0 DUP1 RETURNDATACOPY RETURNDATASIZE PUSH1 0x0 REVERT JUMPDEST POP POP POP POP PUSH1 0x40 MLOAD RETURNDATASIZE PUSH1 0x1F NOT PUSH1 0x1F DUP3 ADD AND DUP3 ADD DUP1 PUSH1 0x40 MSTORE POP DUP2 ADD SWAP1 PUSH2 0x243 SWAP2 SWAP1 PUSH2 0x451 JUMP JUMPDEST POP PUSH32 0x8AA89C45E00B1DC8BEFA3736E4D341042A1CD0021A629920526985A6028F7525 ADDRESS PUSH1 0x4 SLOAD PUSH1 0x40 MLOAD PUSH2 0x277 SWAP3 SWAP2 SWAP1 PUSH2 0x4E0 JUMP JUMPDEST PUSH1 0x40 MLOAD DUP1 SWAP2 SUB SWAP1 LOG1 POP JUMP JUMPDEST PUSH1 0x2 SLOAD PUSH1 0x1 PUSH1 0x1 PUSH1 0xA0 SHL SUB AND CALLER EQ PUSH2 0x2AC JUMPI PUSH1 0x40 MLOAD PUSH3 0x461BCD PUSH1 0xE5 SHL DUP2 MSTORE PUSH1 0x4 ADD PUSH2 0x1B4 SWAP1 PUSH2 0x4F9 JUMP JUMPDEST PUSH1 0x0 SLOAD PUSH1 0x2 SLOAD PUSH1 0x40 MLOAD PUSH4 0x70A08231 PUSH1 0xE0 SHL DUP2 MSTORE PUSH1 0x1 PUSH1 0x1 PUSH1 0xA0 SHL SUB SWAP3 DUP4 AND SWAP3 PUSH4 0x95EA7B3 SWAP3 AND SWAP1 DUP4 SWAP1 PUSH4 0x70A08231 SWAP1 PUSH2 0x2E9 SWAP1 ADDRESS SWAP1 PUSH1 0x4 ADD PUSH2 0x4A8 JUMP JUMPDEST PUSH1 0x20 PUSH1 0x40 MLOAD DUP1 DUP4 SUB DUP2 DUP7 DUP1 EXTCODESIZE ISZERO DUP1 ISZERO PUSH2 0x301 JUMPI PUSH1 0x0 DUP1 REVERT JUMPDEST POP GAS STATICCALL ISZERO DUP1 ISZERO PUSH2 0x315 JUMPI RETURNDATASIZE PUSH1 0x0 DUP1 RETURNDATACOPY RETURNDATASIZE PUSH1 0x0 REVERT JUMPDEST POP POP POP POP PUSH1 0x40 MLOAD RETURNDATASIZE PUSH1 0x1F NOT PUSH1 0x1F DUP3 ADD AND DUP3 ADD DUP1 PUSH1 0x40 MSTORE POP DUP2 ADD SWAP1 PUSH2 0x339 SWAP2 SWAP1 PUSH2 0x490 JUMP JUMPDEST PUSH1 0x40 MLOAD DUP4 PUSH4 0xFFFFFFFF AND PUSH1 0xE0 SHL DUP2 MSTORE PUSH1 0x4 ADD PUSH2 0x356 SWAP3 SWAP2 SWAP1 PUSH2 0x4E0 JUMP JUMPDEST PUSH1 0x20 PUSH1 0x40 MLOAD DUP1 DUP4 SUB DUP2 PUSH1 0x0 DUP8 DUP1 EXTCODESIZE ISZERO DUP1 ISZERO PUSH2 0x370 JUMPI PUSH1 0x0 DUP1 REVERT JUMPDEST POP GAS CALL ISZERO DUP1 ISZERO PUSH2 0x384 JUMPI RETURNDATASIZE PUSH1 0x0 DUP1 RETURNDATACOPY RETURNDATASIZE PUSH1 0x0 REVERT JUMPDEST POP POP POP POP PUSH1 0x40 MLOAD RETURNDATASIZE PUSH1 0x1F NOT PUSH1 0x1F DUP3 ADD AND DUP3 ADD DUP1 PUSH1 0x40 MSTORE POP DUP2 ADD SWAP1 PUSH2 0x3A8 SWAP2 SWAP1 PUSH2 0x451 JUMP JUMPDEST POP JUMP JUMPDEST PUSH1 0x0 SLOAD PUSH1 0x40 MLOAD PUSH4 0x23B872DD PUSH1 0xE0 SHL DUP2 MSTORE PUSH1 0xA SWAP2 PUSH1 0x1 PUSH1 0x1 PUSH1 0xA0 SHL SUB AND SWAP1 PUSH4 0x23B872DD SWAP1 PUSH2 0x3E0 SWAP1 CALLER SWAP1 ADDRESS SWAP1 DUP7 SWAP1 PUSH1 0x4 ADD PUSH2 0x4BC JUMP JUMPDEST PUSH1 0x20 PUSH1 0x40 MLOAD DUP1 DUP4 SUB DUP2 PUSH1 0x0 DUP8 DUP1 EXTCODESIZE ISZERO DUP1 ISZERO PUSH2 0x3FA JUMPI PUSH1 0x0 DUP1 REVERT JUMPDEST POP GAS CALL ISZERO DUP1 ISZERO PUSH2 0x40E JUMPI RETURNDATASIZE PUSH1 0x0 DUP1 RETURNDATACOPY RETURNDATASIZE PUSH1 0x0 REVERT JUMPDEST POP POP POP POP PUSH1 0x40 MLOAD RETURNDATASIZE PUSH1 0x1F NOT PUSH1 0x1F DUP3 ADD AND DUP3 ADD DUP1 PUSH1 0x40 MSTORE POP DUP2 ADD SWAP1 PUSH2 0x432 SWAP2 SWAP1 PUSH2 0x451 JUMP JUMPDEST POP POP JUMP JUMPDEST PUSH1 0x3 PUSH1 0x20 MSTORE PUSH1 0x0 SWAP1 DUP2 MSTORE PUSH1 0x40 SWAP1 KECCAK256 SLOAD PUSH1 0x1 PUSH1 0x1 PUSH1 0xA0 SHL SUB AND DUP2 JUMP JUMPDEST PUSH1 0x0 PUSH1 0x20 DUP3 DUP5 SUB SLT ISZERO PUSH2 0x462 JUMPI DUP1 DUP2 REVERT JUMPDEST DUP2 MLOAD DUP1 ISZERO ISZERO DUP2 EQ PUSH2 0x471 JUMPI DUP2 DUP3 REVERT JUMPDEST SWAP4 SWAP3 POP POP POP JUMP JUMPDEST PUSH1 0x0 PUSH1 0x20 DUP3 DUP5 SUB SLT ISZERO PUSH2 0x489 JUMPI DUP1 DUP2 REVERT JUMPDEST POP CALLDATALOAD SWAP2 SWAP1 POP JUMP JUMPDEST PUSH1 0x0 PUSH1 0x20 DUP3 DUP5 SUB SLT ISZERO PUSH2 0x4A1 JUMPI DUP1 DUP2 REVERT JUMPDEST POP MLOAD SWAP2 SWAP1 POP JUMP JUMPDEST PUSH1 0x1 PUSH1 0x1 PUSH1 0xA0 SHL SUB SWAP2 SWAP1 SWAP2 AND DUP2 MSTORE PUSH1 0x20 ADD SWAP1 JUMP JUMPDEST PUSH1 0x1 PUSH1 0x1 PUSH1 0xA0 SHL SUB SWAP4 DUP5 AND DUP2 MSTORE SWAP2 SWAP1 SWAP3 AND PUSH1 0x20 DUP3 ADD MSTORE PUSH1 0x40 DUP2 ADD SWAP2 SWAP1 SWAP2 MSTORE PUSH1 0x60 ADD SWAP1 JUMP JUMPDEST PUSH1 0x1 PUSH1 0x1 PUSH1 0xA0 SHL SUB SWAP3 SWAP1 SWAP3 AND DUP3 MSTORE PUSH1 0x20 DUP3 ADD MSTORE PUSH1 0x40 ADD SWAP1 JUMP JUMPDEST PUSH1 0x20 DUP1 DUP3 MSTORE PUSH1 0x13 SWAP1 DUP3 ADD MSTORE PUSH19 0x21B0B63632B91034B9903737BA1037BBB732B9 PUSH1 0x69 SHL PUSH1 0x40 DUP3 ADD MSTORE PUSH1 0x60 ADD SWAP1 JUMP JUMPDEST PUSH1 0x20 DUP1 DUP3 MSTORE PUSH1 0x22 SWAP1 DUP3 ADD MSTORE PUSH32 0x42616C616E6365206E6F7420656E6F7567682C706C6561736520726563686172 PUSH1 0x40 DUP3 ADD MSTORE PUSH2 0x6765 PUSH1 0xF0 SHL PUSH1 0x60 DUP3 ADD MSTORE PUSH1 0x80 ADD SWAP1 JUMP INVALID LOG2 PUSH5 0x6970667358 0x22 SLT KECCAK256 0xDA RETURNDATASIZE CALLDATACOPY 0xCC SWAP13 PUSH25 0x483A87E1FB965696B849424C87457AD74113B6AC98ECB417B0 0xB9 PUSH5 0x736F6C6343 STOP ADDMOD ADD STOP CALLER ",
  "sha1": "9440232c0eba434f9ecc945706a1b58511e0163b",
  "source": "// SPDX-License-Identifier: MIT\npragma solidity 0.8.1;\nimport \"@openzeppelin/contracts/token/ERC20/IERC20.sol\";\nimport \"./Our_ERC20.sol\";\nimport \"./Drex_stableCoin.sol\";\n\ncontract DrexTreasury {\n    //varibales required in smart contract\n    // IERC20 private drex_stable;\n    // IERC20 private drex_tokens;\n    DRExToken public drex_token;\n    DRExStable public drex_stable;\n    address private owner;\n    mapping(bytes32 => address) public reqTosender;\n    uint256 random_amount;\n\n    // events\n    event TransferSent(address _destAddr, uint256 _amount);\n\n    constructor(address stable_coin_address, address drex_token_address)\n        public\n    {\n        drex_stable = DRExStable(stable_coin_address);\n        drex_token = DRExToken(drex_token_address);\n        owner = msg.sender;\n    }\n\n    modifier isOwner() {\n        require(msg.sender == owner, \"Caller is not owner\");\n        _;\n    }\n\n    /// @notice  This function is used to by the smes to send payments for the gas they have used\n    /// @param amount --> the amount smes will be paying\n    function pay_fees(uint256 amount) public payable {\n        require(\n            drex_stable.balanceOf(msg.sender) > amount,\n            \"Balance not enough,please recharge\"\n        );\n\n        drex_stable.transferFrom(msg.sender, address(this), amount);\n        emit TransferSent(address(this), random_amount);\n    }\n\n    //wallet of owener --> 100 drexCoins ---> 100drexCoins and in return they will  get 100drexStablecoins\n\n    /// @notice This function is used by nft owner to convert their drexTokens to drexStable coins\n\n    function redeem() public {\n        // require(\n        //     drex_token.balanceOf(msg.sender) > 0,\n        //     \"Owner should have some drex tokens to convert them into stable coins\"\n        // );\n        // require(\n        //     drex_stable.balanceOf(address(this)) >\n        //         drex_token.balanceOf(msg.sender),\n        //     \"not enough stable coins\"\n        // );\n        uint256 total_transfer = 10;\n        // drex_token.balanceOf(msg.sender);\n        drex_token.transferFrom(msg.sender, address(this), total_transfer);\n\n        //approving the user to take the drex_token\n        // drex_stable.approve(address(this), total_transfer);\n        // drex_stable.transferFrom(address(this), address(msg.sender), 10);\n        //call the tranferfrom contract to the user from outside this fucntion\n    }\n\n    function transfer_to_owner() public isOwner {\n        drex_token.approve(owner, drex_token.balanceOf(address(this)));\n    }\n}\n",
  "sourcePath": "contracts/Drex_treasury.sol",
  "type": "contract"
}